:020000040000FA
:0600000002011D02258B28
:03002B00021E4E64
:03003300021DCFDC
:030053000225FE85
:03006B00021CE490
:03007B00021D570C
:100083000223F7E5C754F84401F5C77901220000BC
:100093000080FB120086B90003020107E47921788E
:1000A30011B800028004F709D8FCE479327802B869
:1000B30000028004F709D8FCE4900281780D7908E6
:1000C3008002F0A3D8FCD9FA781A90014D7A01BACC
:1000D30000028007E493A3F608DAF990098DAA8257
:1000E300AB8390014E783D79038015E493A3AC82F2
:1000F300AD838A828B83F0A3AA82AB838C828D83A8
:10010300D8E9D9E77582757583F5740312012F75E4
:100113008291758300740012012F75D00075813FA1
:10012300751881751902759F00020096C09FF59F8F
:10013300E473D09F22D083D082C09FE493C0E07445
:100143000193C0E0740293F59F22010248860100E7
:10015300008585024486010000788610A38403008D
:1001630000890202408603000082020244860100E5
:1001730000778610C38403000000000000A20396EA
:10018300038480F2818682128352813D82008067DC
:10019300858583DA837385FE80CD82000056000057
:1001A300020000000030FF02020202020202020209
:1001B300010D00000010010248860100003786028D
:1001C3004486010000E909026A8601000074030203
:1001D3004486010000EA0902668601000054860293
:1001E3004486010000EB0902648601000052860286
:1001F3004486010000EC0902608601000056840277
:100203004486010000ED09025E8601000068860253
:100213004486010000EE09025C860100001285029B
:100223004486010000EF09025A860100004E86024F
:100233004486010000F0090258860100003E850251
:100243004486010000F109027486010000F209FFEF
:10025300000000FF00080101000302010600000086
:10026300000000000000000000000000000000008B
:10027300000000000000000000FFFF01100020004C
:10028300E80322082E08FF0000B40000280028001D
:10029300283075A000A000A000A00000080008E01E
:1002A30001F00010001000100010001000100050AA
:1002B300005000500010001000D0070000000000A4
:1002C300000F0001000500307507001000010081D8
:1002D300FF00000000FF420960094809FF02020213
:1002E30008025000A0000000E80302488601000055
:1002F30034860244860100001F0B024C8601000075
:10030300AE04024486010000200B02708601000047
:10031300C404024486010000210B026E8601000022
:10032300C604024486010000220B02628608000014
:10033300C704024486010000230B02568601000015
:10034300240BFF0100FF200248860100003A8602C9
:100353004486010000880B02508600000000000262
:1003630040860300001405480F480F480F480F4804
:100373000F480F480F480F480F480F480F480F48C2
:100383000F06121E12001212013817CE0312013883
:1003930093CE031201381AD00312013873D003121B
:1003A3000138CCD003120138DED0031201386ED1EC
:1003B30003120138FED103120138C42C0012013894
:1003C300E02C00120138BE2E00120138792F0012E2
:1003D3000138DD2F001201382330001201384C3070
:1003E30000120138883000120138E431001201385C
:1003F300663200120138533300120138DD33001224
:100403000138D83400120138FF3600120138303D6C
:1004130000120138713D00120138923D001201387B
:10042300F53D00120138233E00120138F05B001243
:1004330001385E5C00120138EC5C001201389060F8
:10044300001201383B66001201381D6D001201389D
:10045300066E00120138776E001201386E6F0012BB
:100463000138DF70001201381F71001201388F72DA
:100473000012013837B40312013841B403120138B2
:100483007FB403120138C8B40312013802B5031252
:1004930001385CB5031201387DB50312013886B506
:1004A30003120138D3B503120138FCB50312013826
:1004B30006B60312013872B60312013804B70312E9
:1004C30001384EB70312013884B70312013810B84C
:1004D3000312013851B80312013888B803120138E6
:1004E3009AB803120138B9B803120138C2B803121B
:1004F30001388FB903120138CDF503120138EFF13A
:100503000312013889E803120138BFE803120138E6
:10051300F5E80312013840EA0312013866F40312C6
:1005230001387CF40312013886F403120138D0F445
:1005330003120138BED203120138D3D20312013899
:1005430083D303120138C3D303120138DCD303125C
:10055300013817D40312013864D40312013896D436
:1005630003120138D8D403120138D9D60312013843
:100573004BD70312013824F60312013836F603125F
:1005830001386BE10312013890E103120138BAE13B
:1005930003120138FEF403120138D3F603120138B3
:1005A300B6F303120138C6F303120138CFF3031273
:1005B300013860F403120138F07E00120138757FB0
:1005C30000120138DB7F00120138F87F0012013876
:1005D30050E603120138DFE70312013840E8031243
:1005E300013886E803120138BDB9031201388FBA06
:1005F30003120138C0BA03120138D7BA0312013803
:10060300E1BA031201382BBB031201382EBB0312CC
:10061300013894BB0312013800BC031201389EBC9D
:100623000312013822BD031201386BBD03120138D6
:1006330097BD03120138C1BD031201383CBE03123A
:10064300013892BE03120138E5BE03120138F2BE2F
:1006530003120138FCBE03120138D9ED031201382D
:100663002BEE03120138B5EE031201381CEF03120F
:1006730001380BE40312013835E40312013803E5B2
:1006830003120138DEE503120138F2910312013837
:10069300B99203120138F092031201381A9303122C
:1006A30001387A9303120138D09303120138359439
:1006B30003120138CD9403120138DC95031201387B
:1006C30073970312013800980312013867980312D5
:1006D30001387E980312013898990312013828ECE7
:1006E30001120138C2EF0112013830F20112013850
:1006F3008AF201120138A9F20112013827F301121B
:100703000138A0F4011201388CF50112013862FAA4
:100713000112013832FB01120138D9FB01120138F1
:1007230017FC011201387AEA0312013891EA031225
:100733000138C2EA03120138FDEA0312013827EB3C
:100743000312013851EB0312013868EB031201382D
:100753007FEB0312013896EB03120138BFEB031250
:100763000138D2EB03120138E8EB03120138FBEB3B
:100773000312013822EC0312013827F20212013866
:100783002BF30212013863F30212013886F30212CB
:10079300013891F302120138B4F302120138C3F4A1
:1007A3000212013898F50212013813F602120138C9
:1007B3009BF602120138D6F6021201380DF7021227
:1007C30001389BF70212013874F802120138D4F889
:1007D30002120138DFF8021201385EF90212013801
:1007E30061F90212013864F902120138F3F90212B5
:1007F3000138F6F90212013826FA0212013850FACA
:10080300021201383EFB02120138F0FB02120138DA
:10081300008003120138F880031201382C8103127F
:100823000138AE8103120138F681031201385A826E
:1008330003120138E78203120138A183031201383E
:10084300B086031201383B88031201385E88031215
:1008530001385AC90312013882C903120138B0C9D9
:1008630003120138E7C90312013845CA03120138DC
:1008730090CA03120138DBCA031201381BCB0312DF
:10088300013861CB031201388FCB031201384CCCF2
:100893000312013856CC0312013863CC031201381A
:1008A30096CC0312013862CD031201386ECD0312C8
:1008B300013886CD0312013890CD03120138EDF2D1
:1008C3000312013805F3031201381DF30312013833
:1008D3003773001201381374001201387775001250
:1008E3000138CE75001201384F76001201383F7778
:1008F300001201388C770012013812780012013887
:10090300447800120138587A001201389A7A00129A
:100913000138B87A001201383B7B001201380F7C92
:1009230000120138D77C0012013822A103120138CA
:10093300F5A1031201389EA203120138F1A203129A
:100943000138A1A3031201382DA40312013819A5FC
:100953000312013848A5031201385BA603120138BC
:10096300A3A60312013878A703120138B4A7031210
:100973000138D0A7031201386DFC0212013893FC31
:1009830002120138AFFD02120138B9FD021201381B
:10099300EEFE02120138E6FF02120138F0FF0212E6
:1009A300013819BF0312013849C0031201387CC052
:1009B30003120138C6C0031201388DC20312013875
:1009C3006A9402120138D494021201383396021247
:1009D3000138BD9602120138CD9602120138FA96FB
:1009E300021201385697021201385D98021201383B
:1009F300279902120138879A02120138CA9A021201
:100A030001386F9B02120138BC9B02120138E29B32
:100A130002120138F09D02120138F59D02120138CD
:100A2300FA9F0212013847A002120138BAA002123B
:100A33000138EDA0021201388FA10212013838A249
:100A43000212013870A20212013873A20212013895
:100A5300BBA202120138FBA20212013852A30212F6
:100A6300013898DE03120138B0DE03120138F8DED4
:100A7300031201380EDF0312013855DF0312013868
:100A830069E003120138F6E00312013841E1031271
:100A9300013857A20112013892A201120138D7A2DC
:100AA3000112013897A30112013826A4011201385B
:100AB300ACA40112013811A5011201383DA50112A0
:100AC300013876A501120138B4A70112013898A99B
:100AD300011201387EAB01120138C1AC0112013899
:100AE3000FAF0112013821B0011201386CB10112AC
:100AF30001387CB20112013899B201120138D4B223
:100B030001120138F6B20112013859B3011201384A
:100B13001AB801120138AFB80112013801B9011234
:100B230001381FB90112013879B90112013862BACB
:100B330001120138D8BB011201385CBC0112013823
:100B430092AE031201389CAE03120138DFAE0312DA
:100B53000138FAAE031201388AAF03120138B2AF7B
:100B630003120138EFAF0312013826B00312013824
:100B73004FB003120138C4B003120138D9B00312C5
:100B83000138EEB00312013810B10312013859B124
:100B9300031201387EB103120138B8B103120138D0
:100BA300E4B10312013812B2031201385DB2031229
:100BB3000138CDB2031201383BB30312013846B3F7
:100BC3000312013871B303120138BAB303120138A7
:100BD300E4B3031201380FB403120138D6F0031241
:100BE300013844A40212013892A50212013872A6F8
:100BF3000212013891A6021201380EA7021201381F
:100C030051A702120138A7A80212013857A90212EC
:100C1300013890AB0212013817AE02120138B8AE98
:100C230002120138AEAF02120138ABB00212013822
:100C330005B20212013890B2021201387BEF03129F
:100C43000138E4EF0312013838F0031201385FF082
:100C53000312013890F00312013858D703120138F8
:100C6300C5D7031201380CD80312013824D9031253
:100C7300013820DA0312013803DB031201388989B2
:100C830003120138CB89031201389D8A03120138FC
:100C9300768B03120138708C03120138528D0312C4
:100CA3000138BB8D03120138718E03120138E58EB2
:100CB30003120138518F031201387A8F031201385E
:100CC300F48F031201388D9003120138F29003124E
:100CD30001380791031201384D91031201386691CF
:100CE30003120138CB9103120138CE91031201385C
:100CF300C5DB03120138EDDB031201382BDC0312D1
:100D03000138E9DC0312013850DD031201386CDDD0
:100D13000312013894DD03120138C4DD03120138D4
:100D2300D3DD0312013850DE0312013800800212B2
:100D330001382182021201385384021201388F8450
:100D430002120138BC8402120138AA85021201384A
:100D5300F5850212013840860212013875860212A7
:100D63000138C38602120138F28602120138158750
:100D730002120138628702120138E7870212013832
:100D8300018A02120138408C02120138818C02124E
:100D93000138258E02120138668E021201385F8FE8
:100DA300021201386C9102120138DF9102120138EC
:100DB3002B9202120138D99202120138AA9302121D
:100DC3000138DE93021201384894021201386DCEC5
:100DD300021201386BCF0212013804D60212013815
:100DE30025D802120138F0D90212013858DB021259
:100DF3000138C3BC0112013872BD011201389FBD15
:100E030001120138E5BD011201381BBF011201387F
:100E130079BF011201389EBF0112013834C101129A
:100E23000138B8C10112013832C2011201388CC332
:100E330001120138ECC401120138F2C50112013864
:100E430053C701120138A5C70112013816C901128F
:100E530001382FC9011201388DC901120138B1C9F6
:100E6300011201389FCA01120138D2CA0112013896
:100E730042CB01120138BCCB0112013806CC01125E
:100E83000138D0CC01120138A5CD0112013884CE2E
:100E9300011201380FCF011201387DCF0112013841
:100EA300F1CF011201381CD001120138DBD001123D
:100EB300013840D2011201385DD2011201387CD2CF
:100EC300011201386DD30112013892D30112013896
:100ED300BCD30112013837D40112013891D4011265
:100EE3000138FAD501120138A8D601120138E9D622
:100EF3000112013811B3021201385FB30212013833
:100F03006BB30212013849B4021201387AB40212E7
:100F13000138ABB4021201382BB50212013863B5A4
:100F230002120138B5B502120138F2B502120138C6
:100F33000FB80212013835BA0212013820BC02126E
:100F430001380ABE02120138B92C0012013840C41C
:100F530003120138E4C403120138B6C50312013881
:100F6300E0C5031201382EC8031201387986011235
:100F73000138C38601120138B594011201383A963B
:100F830001120138AB9C01120138A69D01120138F0
:100F9300E39D01120138069E01120138489E011299
:100FA3000138519E011201385B9E01120138499F9D
:100FB300011201383FA00112013819D7011201387B
:100FC30018DB011201381EDB0112013859E201124C
:100FD300013872E70112013826FC01120138BCFC0A
:100FE30001120138D2FC0112013848FD0112013807
:100FF300BCFD01120138FAFD011201386EFE011227
:101003000138E7FE01120138F0FE01120138FCFE3F
:101013000112013811FF011201384FFF011201388B
:1010230065FF01120138C4FF0112013845A80312FC
:10103300013852A8031201386CA803120138ABA877
:1010430003120138E9A8031201384EA9031201382B
:1010530063A9031201386EA9031201387BA9031295
:10106300013892A903120138A0A903120138AFA9CC
:1010730003120138C4A903120138D9A90312013894
:10108300E4A903120138F0A903120138FFA90312DE
:1010930001380AAA031201382DAA03120138D4AA6F
:1010A30003120138E4AA03120138F9AA0312013822
:1010B30013AB031201382EAB031201384BAB0312EF
:1010C300013856AB0312013812AC03120138FEACDF
:1010D3000312013823AD031201382EAD0312013878
:1010E30043AD0312013857AD03120138B8AD0312F3
:1010F3000138BEAD03120138C4AD03120138CAADC5
:1011030003120138E2AD0312013815AE03120138A0
:10111300EAC00212013876C102120138D5C20212A6
:101123000138F6C402120138E2C50212013817C6AB
:101133000212013839C602120138E8C60212013818
:10114300E0C80212013809C9021201389BC9021210
:101153000138CDC902120138DAC90212013831CA85
:101163000212013857CA02120138C4CC02120138E4
:10117300C7CD021201381FCE02120138ABDB0212B7
:101183000138B5DB02120138D7DB02120138E3DB89
:10119300021201387CDD02120138ABDD0212013884
:1011A300C7DE0212013820DF0212013894E0021276
:1011B300013801E1021201383CE1021201387BE1FE
:1011C3000212013834E4021201384EE402120138EB
:1011D300DAE402120138E8E40212013841E50212AE
:1011E30001384FE502120138C2E50212013826E642
:1011F3000212013870E602120138F9E602120138D0
:101203001BE70212013841E90212013856EC0212BF
:1012130001386EED0212013821EE0212013803EF9C
:101223000212013834EC0312013859EC031201386D
:10123300CBEC03120138D69903120138DF9903125C
:101243000138E89903120138BF9A03120138709CE0
:1012530003120138A69C03120138E09C03120138E3
:10126300169D03120138509D03120138849D031209
:101273000138B09D03120138F99D03120138339EE2
:10128300031201387C9E03120138D49E03120138E5
:10129300099F03120138649F031201389E9F0312B2
:1012A3000138EF9F0312013825A0031201385FA014
:1012B3000312013882A00312013891F60312013898
:1012C3009BF603120138ABF60312013865F60312DD
:1012D3000138B5F603E066701008A3E066700A08EB
:1012E300A3E066700408A3E06622E4936670130823
:1012F30074019366700C0874029366700508740396
:10130300936622C3E7960809E7960809E796080952
:10131300E796A2D265D03322C3E09608A3E09608ED
:10132300A3E09608A3E096A2D265D03322C008C3F7
:10133300E096F50808A3E096420808A3E096420861
:1013430008A3E0964208A2D265D033E5087001D322
:10135300D00822C3E7960809E7960809E796080923
:10136300E79622C3E09608A3E09608A3E09608A3B5
:10137300E09622C008C3E096F50808A3E096420869
:1013830008A3E096420808A3E09645087001D3D06D
:101393000822C3E493960874019396087402939603
:1013A300087403939622080808EAC0E0EBC0E086BD
:1013B300F0E7A4FA180986F0E7A42AFA180986F0D8
:1013C300E7A42AFA180986F0E7A42AFA1986F0E7AF
:1013D300A4FBE5F02AFA190886F0E7A42BFBE5F055
:1013E3003AFA190886F0E7A42BFBE5F03AFA181845
:1013F3000986F0E7A4C5F02BFBE43AFA1908E7C520
:10140300F0C6A426F6E5F03BFBE43AFA1886F0E7CB
:10141300A4F6E5F00826F6E43B08F6E43A08F6D02D
:10142300E0FBD0E0FA22E4CFC0E0E4CEC0E0E4CDBC
:10143300C0E0E4CCC0E075F020C3E633F608E63341
:10144300F608E633F608E633F6181818EC33FCED25
:1014530033FDEE33FEEF33FFC3EC9709ED9709EE4F
:101463009709EF97191919400FFFEC97FC09ED97AE
:10147300FD09EE97FE191906D5F0BEECF709EDF755
:1014830009EEF709EFF7191919D0E0FCD0E0FDD008
:10149300E0FED0E0FF2212150118181812142912C9
:1014A30014F0191919221214F0191919080808E669
:1014B30018181820E7E01214291215011818182219
:1014C300090909E719191920E7DC080808E61818BB
:1014D3001820E703021429121501181818121429E9
:1014E3001215011818181214F019191922E4C397C8
:1014F300F709E497F709E497F709E497F722E4C3B8
:1015030096F608E496F608E496F608E496F6226062
:1015130017080808C6A2E713C618C613C618C613C9
:10152300C618C613C6D5E0E9226016080808C6C364
:1015330013C618C613C618C613C618C613C6D5E0F5
:10154300EA227009080808226016181818C6C3335F
:10155300C608C633C608C633C608C633C6D5E0EACE
:1015630022E627F60809E637F60809E637F60809FA
:10157300E637F622E026F608A3E036F608A3E036BF
:10158300F608A3E036F622E026F008A3E036F008DA
:10159300A3E036F008A3E036F022C3E697F6080985
:1015A300E697F60809E697F60809E697F622C3E0F8
:1015B30096F008A3E096F008A3E096F008A3E0965F
:1015C300F022E657F60809E657F60809E657F60843
:1015D30009E657F622E056F608A3E056F608A3E01C
:1015E30056F608A3E056F622E056F008A3E056F0BC
:1015F30008A3E056F008A3E056F022E647F60809F0
:10160300E647F60809E647F60809E647F622E04604
:10161300F008A3E046F008A3E046F008A3E046F094
:1016230022E066F008A3E066F008A3E066F008A3F2
:10163300E066F022E0F608A3E0F608A3E0F608A3CC
:10164300E0F622E6F008A3E6F008A3E6F008A3E636
:10165300F022E0FAA3E0FBA3E0FCA3E0FD22EAF022
:10166300A3EBF0A3ECF0A3EDF022CAC0E0E6F0A3F5
:1016730008DAFAD0E0FA22CAC0E0E0A3C582CCC5FA
:1016830082C583CDC583F0A3C582CCC582C583CD76
:10169300C583DAE6D0E0CA22C3E498F8E499F912E4
:1016A30016DC8026C3E49AFAE49BFBE920E7E912FF
:1016B30016DCE498F8E499F922C3E498F8E499F97C
:1016C3001216DCE498F8E499F9C3E49AFAE49BFB74
:1016D30022EB20E7CFE920E7E0B90010BB0008E8E0
:1016E3008AF084F8AAF022E4FBC8FA22EB70227B8A
:1016F30010C833C8C933C9335007C39AC3DBF28058
:10170300069A50012ADBEAC833F4C8C933F4C9FA8C
:101713002275F008E4C833C8C933C933C99AC99BD1
:101723005004C92AC93BD5F0ECFBC833F4C8E4C95B
:10173300FA22600D08C6A2E713C618C613C6D5E081
:10174300F322600C08C6C313C618C613C6D5E0F44B
:1017530022700422600D18C6C333C608C633C6D52B
:10176300E0F41822251810AF08F518400215198067
:1017730008F51840021519D2AF22C0D0251810AFB2
:1017830008F518500205198008F51850020519D2FA
:10179300AFD0D0222518F58210AF08F518400215F6
:1017A300198008F51840021519D2AF85198322252F
:1017B30018F582E43519F58322E4732518C582C030
:1017C300E0E51934FFC583C0E0E518C3958224F82A
:1017D30010AF08858319858218800885831985824F
:1017E30018D2AFCEF0A3E520F0A37808E608F0A363
:1017F300DEFAEFF0A3E58124FAF8E608F0A3E608A1
:10180300F0A3E608F0A30808E608F0A3E608F0A3AF
:1018130015811581D0E0FED0E0F815811581158181
:10182300E8C0E0EEC0E0222518C582C0E0E5193427
:10183300FFC583C0E0E518C3958224F910AF08857E
:1018430083198582188008858319858218D2AFCEC3
:10185300F0A3E520F0A37808E608F0A3DEFAEFF0A2
:10186300A3E58124FBF8E608F0A3E608F0A3080843
:10187300E608F0A3E608F0A315811581D0E0FED0B9
:10188300E0F815811581E8C0E0EEC0E022851983F8
:10189300851882E0A3FEE0A3F5207808E0A3F6080C
:1018A300DFFAE0A3FFE0A3C0E0E0A3C0E0E0A3C051
:1018B300E0E0A3C0E0E0A3C0E010AF088582188594
:1018C30083198008858218858319D2AFD083D0828B
:1018D300020135851983851882E0A3FEE0A3F52074
:1018E3007808E0A3F608DFFAE0A3FFE0A3C0E0E096
:1018F300A3C0E0E0A3C0E0E0A3C0E010AF0885828E
:10190300188583198008858218858319D2AFD083FF
:10191300D08222C0D02518C582C0E0E51934FFC5A6
:1019230083C0E0E518C3958224F310AF08858319BB
:101933008582188008858319858218D2AFC8F0A3E1
:10194300E9F0A3EAF0A3EBF0A37908E709F0A3D841
:10195300FAECF0A3EDF0A3EEF0A3EFF0A3D0E0F0E8
:10196300A3D0E0F0A3D0E0F0A3E520F0A3E5F0F0EE
:10197300A322851983851882E0C0E0A3E0F9A3E0E0
:10198300FAA3E0FBA37808E0F608A3DFFAE0FCA3E0
:10199300E0FDA3E0FEA3E0FFA3E0C0E0A3E0C0E01E
:1019A300A3E0F5D0A3E0F520A3E0A3F5F010AF0882
:1019B3008583198582188008858319858218D2AF9B
:1019C300D082D083D0E0F8D0E03274048006740271
:1019D30080027401C0E0F404121797D0E012166D70
:1019E300227404800474028000CCC0E0EDC0E0E502
:1019F30018C39CCCAD1950011D10AF068C188D195E
:101A030080068C188D19D2AF12167AD0E0FDD0E083
:101A1300FC22D083D082C5F0E493A3C5F0C395F034
:101A2300F5F0E493A3C395F04005E5F0048001E4E9
:101A330075F002A42582F582E5F03583F583E493FE
:101A4300A3C0E0E493C0E022D083D082E9C0E0E405
:101A530093A3C386F0C5F095F0F908E493A386F049
:101A6300C5F095F0700BE493A3C3994005E9048096
:101A730002A3E475F002A42582F582E5F03583F52F
:101A830083D0E0F9E493A3C0E0E493C0E022D083E1
:101A9300D082E9C0E0E493A3C386F0C5F095F0F9E2
:101AA30008E493A386F0C5F095F0702408E493A3AB
:101AB30086F0C5F095F0701908E493A386F0C5F09D
:101AC30095F0700E08E493A3C3994007E9048004DA
:101AD300A3A3A3E475F002A42582F582E5F0358380
:101AE300F583D0E0F9E493A3C0E0E493C0E022D00F
:101AF30083D082CCC0E0E493A36006121B1C147055
:101B0300FAE493A36006121B3B1470FAD0E0FCE4E2
:101B130093A3C0E0E493C0E022C0E0E493A3D39C8A
:101B23005010E493A3C39C400AD0E0D0E0D0E0027D
:101B33001B0FA3A3A3D0E022C0E0E493A36C70091E
:101B4300D0E0D0E0D0E0021B0FA3A3D0E022D083EB
:101B5300D082ECC0E0EDC0E0E493A3FCE493A3FDEA
:101B6300ED4C600D121B9DEC24FFFCED34FFFD805A
:101B7300EFE493A3FCE493A3FDED4C600D121BDC97
:101B8300EC24FFFCED34FFFD80EFD0E0FDD0E0FC62
:101B9300E493A3C0E0E493C0E022C0E0C3E49396DF
:101BA300087401939618400FE49366700808740153
:101BB30093661870007019A3A3C3E4939608740185
:101BC300939618A3A3400DD0E0D0E0D0E0021B8D84
:101BD300A3A3A3A3A3A3D0E022C0E0C0F088F0E4B2
:101BE300936670080874019366187000A8F0A3A3A5
:101BF300700BD0F0D0E0D0E0D0E0021B8DA3A3D0D7
:101C0300F0D0E022D083D082ECC0E0EDC0E0EEC0A3
:101C1300E0EFC0E0E493A3FCE493A3FDE493A3FE0D
:101C2300E493A3FFEF4E4D4C6015121C83EC24FF8D
:101C3300FCED34FFFDEE34FFFEEF34FFFF80E5E4FF
:101C430093A3FCE493A3FDE493A3FEE493A3FFEF28
:101C53004E4D4C6015121CC0EC24FFFCED34FFFD0F
:101C6300EE34FFFEEF34FFFF80E5D0E0FFD0E0FE6F
:101C7300D0E0FDD0E0FCE493A3C0E0E493C0E02215
:101C8300C0E0C0F088F0121395A8F040071212EDDF
:101C9300A8F0701AA3A3A3A3121395A8F0A3A3A358
:101CA300A34013D0F0D0E0D0E0D0E0021C6DA3A39A
:101CB300A3A3A3A3A3A3A3A3D0F0D0E022C0E0C017
:101CC300F088F01212EDA8F0A3A3A3A3700BD0F039
:101CD300D0E0D0E0D0E0021C6DA3A3D0F0D0E0228E
:101CE400C0E074F0121916A2AFE433FFD2AFE58955
:101CF400F8E5AB58F50A6051F4F589C2C57E008E4B
:101D04000875090074027808121754121DCAC3E832
:101D14009408E99400502BE85407F87401B80002C1
:101D24008004C333D8FC550A60187508007509018E
:101D3400EE7808121754AA08AB09900281E0F91250
:101D440004CE0EEEC3940440B6EFA2E092AF7F033C
:101D5400021975C0E074F0121916A2AFE433FFD271
:101D6400AFE58AF8E58D58F50A6059F4F58AC2EBB7
:101D74007E008E0875090074027808121754121D2B
:101D8400CAE82400FAE934FFFBC3EA9408EB9400A0
:101D9400502BE85407F87401B800028004C333D808
:101DA400FC550A6018750800750901EE78081217C9
:101DB40054AA08AB09900281E0F91204CE0EEEC3D6
:101DC400940440AE8083121E37F922C0E074F012EE
:101DD4001916A2AFE433FFD2AFE58BF8E5AC58F5A2
:101DE4000A604DF4F58BC2E87E008E087509007414
:101DF400027808121754121E37C39402402BE85479
:101E040007F87401B800028004C333D8FC550A6093
:101E140018750800750901EE7808121754AA08AB62
:101E240009900281E0F91204CE0EEEC3940440BA84
:101E3400021D4D74A72508F58274033509F583E066
:101E4400F8A3E022C2AF02000022C0E0C0D0E8C084
:101E5400E0E9C0E0E5A8D2AFC2C7751A00A2E7A2C4
:101E6400E792AFD0E0F9D0E0F8D0D0D0E03274F50A
:101E740012182AEAFEEBFFEE2434F8EF3400F98856
:101E8400088909EE2435F582EF3400F583E0F8EE95
:101E94002437F582EF3400F583E0F50AEC850AF087
:101EA400A4FCAAF0850AF0EDA42AFDE82CF8E43D90
:101EB400F97A257B001216DCEA850882850983F00D
:101EC400F8740758F97401B900028004C333D9FCCB
:101ED400FAE8131313541FF8EE28F8EF3400F9E866
:101EE400245DF582E93400F583E05A6008EE243479
:101EF400F582EF802CEE2434F582EF3400F583E094
:101F0400C0E0EE2436F582EF3400F583E0F5F0D03E
:101F1400E084A8F0EE28F8EF3400F9E82438F582DC
:101F2400E93400F583E0F97F040218D674F5121839
:101F34002AEAFEEBFFEE2434F582EF3400F583E069
:101F4400C0E0EE2435F582EF3400F583D0E0F08E66
:101F5400828F83A3A3A3A3A3A3A3C082C0838E82DF
:101F64008F83A3A3A3A3A3E0F8A3E0F9D083D08233
:101F7400E0C398F508A3E099F509EE247FF582EF14
:101F84003400F583E064017069EE2480F582EF3457
:101F940000F583E0F8A3E0F98E828F83A3A3A3A3C3
:101FA400A3A3A3E0FCA3E0FD8E828F83A3A3A3A33A
:101FB400A3E0FAA3E0FBC3EA9CEB9D5010C3EC98AA
:101FC400ED99402EC3EA98EB995027800EC3EA9806
:101FD400EB994007C3EC98ED9940177CD77D06EE4A
:101FE400FAEFFB120EA6EE247FF582EF3400F583A0
:101FF400E4F0EE2434F8EF3400F9E8FCE9FDEE24D3
:1020040035F582EF3400F583E0F8EE2437F582EFFE
:102014003400F583E0F50AE508850AF0A4F508AA7A
:10202400F0850AF0E509A42AF509E82508F8E4355D
:1020340009F97A257B001216DCEA8C828D83F0F88C
:10204400740758F97401B900028004C333D9FCFA47
:10205400E8131313541FF8EE28F8EF3400F9E824BA
:102064005DF582E93400F583E05A6008EE2434F526
:1020740082EF802CEE2434F582EF3400F583E0C047
:10208400E0EE2436F582EF3400F583E0F5F0D0E09D
:1020940084A8F0EE28F8EF3400F9E82438F582E952
:1020A4003400F583E0F9122CAB021F2BC082C083ED
:1020B400851882851983E0F8A3E0F9C3EA9CEB9DB7
:1020C4005010C3EC98ED99401BC3EA98EB99501457
:1020D400800EC3EA98EB994007C3EC98ED9940044D
:1020E400790180027900D083D08222EAC39CFAEB82
:1020F4009DFB2274EF12182A90059DE06408600588
:10210400E06407702A9061C8E060249005CBE0F495
:10211400601DE0F875F003A4C8AAF02AF974CD286C
:10212400FE740539FF8E828F83A3A3A3E07003029C
:102134002227906060E0C0E0EE2468F582EF34006E
:10214400F583D0E0F0750C57750D07750800750917
:1021540000E5D914F50AE5D95403F50E60177403A4
:10216400650E605CE50A6010EE2467F582EF3400CA
:10217400F583E0700302220C900752E06401602AA8
:10218400EE2482F582EF3400F583E0600478048065
:10219400027800850A08E508C398FA95E0FB120D59
:1021A4003E8A088B09EA450970051210F28074EE24
:1021B4002482F582EF3400F583E070048A0C8B0DE1
:1021C400E50A6012850C82850D83F50BE5D9F0A331
:1021D400150BE50B70F6EE2482F582EF3400F583DF
:1021E400E0604474FC250AF50A780C1219D1AC0A93
:1021F400A90EEEFAEFFB120F42740212177DE9707A
:1022040026AA08AB09120660793D8E828F83A3A3A8
:10221400A3A3E0FA7B00120C18EEFAEFFB120EBE39
:10222400120F72790080747403650E6056850A106B
:1022340075110078101219D1AC0CAD0DAA08AB09B8
:10224400120F1E740212177DEE2468F582EF34001B
:10225400F583E064807004747F8001E0F50C780CF1
:102264001219D5E50EF50C780C1219D5A90AAC088B
:10227400AD099005CBE0FA7B00120BDC7402121757
:102284007D801390059DE06408600BAC0CAD0DEEF1
:10229400FAEFFB120FCC1210FE79017F0A0218D656
:1022A40074F512182A74FC121767EAFEEBFF89080A
:1022B400A2AFE433F509C2AF806AEE2463F8EF34C9
:1022C40000F97A007B00A2AFE433F50AC2AF88823A
:1022D4008983E0FCA3E0FDEC4D603A88828983E0C9
:1022E400FAA3E0FB8A828B83E0FCA3E0FD88828969
:1022F40083ECF0A3EDF08A828B83E4F0A3F0888270
:102304008983E0FCA3E0FDEC4D700A88828983A3F5
:10231400A3E4F0A3F0E50AA2E092AF1206609006EF
:10232400DEE004F0EE2463F582EF3400F583E0F898
:10233400A3E0F9E849603DEE2463F582EF3400F54B
:1023440083E02402FAA3E03400FBEA2402F50AEB5A
:102354003400F50B780A1219D18A828B83E0FCA32E
:10236400E0F9EEFAEFFB120EE2740212177DE97047
:10237400030222BE9006DEE060639006DFE0F89080
:1023840006DEE0C398500C7402650870509006E0B5
:10239400E0604A8E828F83A3A3A3A3E0851882857D
:1023A4001983F0A3E4F09006DEE0F874021217B289
:1023B400E8F0A3E4F09006DEE0F89006DDE028F013
:1023C40074021217B2AC82AD83851882851983AA70
:1023D40082AB837901120BE29006DEE4F0E509A2F8
:1023E400E092AF740412177D021F2B00852A8785A3
:1023F4002BC622C0E0C0D0E8C0E0E9C0E0EAC0E0FB
:10240400EBC0E0ECC0E0EDC0E0EEC0E0C008C00905
:10241400C00AC00BC082C083C0F0A2AFE433FEC2C6
:10242400AF759B00906182E0A2E05012E591A2E0BA
:10243400500C7591FE7401652A70031220F7E0A216
:10244400E55051E591A2E5504B7591DF90059DE073
:1024540064076005E0640870237401652A703579A7
:10246400019005CBE0FA75F003A4CAA8F028FB7428
:10247400CD2AFA74053BFB1222A48018E0640D7087
:10248400139005BFE004F064287002E4F07A00E0E1
:10249400F9121104906182E0A2E6400302253EE5B0
:1024A40091A2E6400302253E7591BF90059DE0642C
:1024B40005700812100212100E8003121008752AFB
:1024C4000012107AE990059EF0790012105C120E49
:1024D400047A017B0090059CE0F91204CE90780305
:1024E400E064427055900756E014F0704DC2AF128C
:1024F40024F6007833D0E0F618D0E0F6E59F5407D0
:1025040070057509FF800375097FC4C0E07832E661
:10251400F50808E65509F509740B7808121745D033
:10252400E02508F8906270E0A2E740F8E8C3339031
:102534006272F0906270E0D2E0F0906181E0A2E318
:102544005009E5E9A2E3500375E9F7A3E0A2E750D7
:1025540009E591A2E7500375917FEEA2E092AFD016
:10256400F0D083D082D00BD00AD009D008D0E0FEBE
:10257400D0E0FDD0E0FCD0E0FBD0E0FAD0E0F9D030
:10258400E0F8D0D0D0E032C0E0C0D0C082C08390A8
:102594006183E0A2E05009E5BFA2E0500375BFFEED
:1025A400E0A2E15009E5BFA2E1500375BFFDE0A23E
:1025B400E25009E5BFA2E2500375BFFBE0A2E3507D
:1025C40009E5BFA2E3500375BFF7E0A2E45009E5B3
:1025D400BFA2E4500375BFEFE0A2E55009E5BFA236
:1025E400E5500375BFDFE0A2E65009E5BFA2E6505F
:1025F4000375BFBFD083D0828088C0E0C0D0E8C05C
:10260400E0E9C0E0EAC0E0EBC0E0ECC0E0EDC0E02F
:10261400C0F0E5A7A2E6500FE5A1A2E6500953A732
:10262400BF75A1BF122663E5A7A2E5500CE5A1A2E0
:10263400E5500653A7DF75A1DFE5A7A2E15009E540
:10264400A1A2E1500375A1FDE5A7A2E2500CE5A10A
:10265400A2E2500653A7FB75A1FBD0F002257474C7
:10266400F812182A752A0190059DE0640670151267
:102674000F908A828B83A3A3A3A3A3A3E0FAA3E06E
:10268400FB120FF0A2AFE433FED2AF9005A3E064D7
:102694000170187A207B0090059CE0F91205587AA5
:1026A400207B0090059CE0F91204D4906182E0D272
:1026B400E6F0900753E0602185C62B80169005A2B2
:1026C400E064017008E5C654F84405F5C653BEFC41
:1026D4001223F07401652A60E4EEA2E092AF7F0158
:1026E4000218D6008E2C8F2D858231858330851873
:1026F40082851983E0CEA3E0CF853182853083EBD8
:10270400C9EAC8EDCBECCA75F010C3E833C8E933A5
:10271400C9EA33CAEB33CBC3EA9EF52FEB9FF52E00
:10272400B35004AB2EAA2FEC33CCED33CDD5F0DA75
:10273400AE2CAF2D2274E912182A74F8121767858B
:102744001882851983ECF0A3EDF08A088B099005B3
:102754009DE024F7C3940550067508010228D012A1
:102764000F908A0A8B0BAE0AAF0BEE4F7003022850
:10277400CDAC08AD0974021217B2AA82AB83121051
:10278400208E828F83A3A3750CFF750DFF750EFF3A
:10279400750F00780C1215D874021217B27510FF59
:1027A4007511FF7512FF75130078101215D8780C87
:1027B4007910121356502A780C791012159D750849
:1027C400017509C8750A00750B007808790C121395
:1027D400565052850C08850D09850E0A850F0B800D
:1027E400507514017515C875160075170085100805
:1027F40085110985120A85130B7808790C12159D29
:1028040078147908121356401C7508007509007570
:102814000A00750B017808791012159D7808790C57
:10282400121564800C750801750900750A00750B92
:102834000074097808121545750C19F50DF50EF597
:102844000F7808790C1214298E828F83A3A3A3A373
:10285400A3A3E0F8A3E0F97AD07B031216DC880C7A
:10286400890DE4F50EF50F7808790C1215647406D9
:102874001217B2E0F8A3E0F97AD07B031216DCE871
:10288400FA8A0CE4F50D7808790C1213565007787F
:1028940008790C12159D90059DE06408600AE064B7
:1028A400066005E06405702D750C0D780C7908122E
:1028B40013564021750CF4750DFF750EFF750FFF4F
:1028C4007808790C121564800C7508007509007578
:1028D4000A00750B00851882851983E0F8A3E0F5DA
:1028E4008388827808121646740812177D7F1002B6
:1028F40018D674F712182A121032900751E06401A6
:102904007010906245E4F0A3F053F4F343FE0C53CB
:1029140090F3120FDEE5C654804449F5C6E59E5493
:102924007F644970F8906185740FF090074FE0F46C
:102934007002A3E0604E900750E0600814601B141E
:10294400602E804075080175090090074FE07808F3
:10295400121754E508F45280802A7508017509009D
:1029640090074FE07808121754E508F45290801449
:1029740075080175090090074FE07808121754E5AF
:1029840008F452A079007F020218D674F712182AAC
:10299400E9FEEAFF74016E700C7A807B0090059C5E
:1029A400E0F91204CE902CBCE493F46008E493F9AB
:1029B400120DF8800953C680E59E547F70FA120FF9
:1029C400E4900751E064017003120E1C90074FE07D
:1029D400F47002A3E0604B900750E0600814601AA2
:1029E40014602C803D75080175090090074FE0784C
:1029F40008121754E50842808028750801750900FB
:102A040090074FE07808121754E508429080137538
:102A1400080175090090074FE07808121754E5087B
:102A240042A0121032120F908A088B09A808A90933
:102A3400E8496015E5E170FCE82414F582E9340006
:102A4400F583E0F46003E0F5E174016F700A7A0144
:102A540090059CE0F912052802298A74ED12182ABF
:102A64008A088B098C0A8D0B74131217B2780C1216
:102A740016377808790C1213567510017511C8753C
:102A8400120075130050127808790C12159D7810F5
:102A9400790812135650168010780C790812159D77
:102AA4007810790C12135640047901800279007F62
:102AB4000C0218D674ED12182A8A088B098C0A8D18
:102AC4000B74131217B2780C121637780C7908129B
:102AD400135640117808790C12159DAA08AB09AC5D
:102AE4000AAD0B8022751000751100751200751364
:102AF400017810790C12159D78107908121564AAC2
:102B040010AB11AC12AD1380A68A828B837508FFBB
:102B14007509FF750AFF750B0078081215EB7F0421
:102B24000218D674F512182A8C828D83780812162E
:102B3400378A828B8378081215B1EA2404F8EB34BF
:102B440000F98C828D83A3A3A3A3E0FCA3E0FD88FA
:102B5400828983C3E09CF0A3E09DF088828983C3CB
:102B6400E09420A3E0944E40268A828B837508FF6C
:102B74007509FF750AFF750BFF780812158A8A829A
:102B84008B83A3A3A3A3E02420F0A3E0344EF0029C
:102B94002B0D74F512182AE9FE9006F2E0FAA3E070
:102BA400FBEEC333F8E433F974F328F58274843903
:102BB400F583E02AF508A3E03BF50978081219D15A
:102BC4007A407B427C0F7D001226E8740212177D46
:102BD4008A088B098C0A8D0B7410780812152CAA9C
:102BE40008AB097F040218D674F112182A8A0C8BD8
:102BF4000D8C0E8D0F740F1217B2E0FAA3E0FB7464
:102C0400111217B2E0F508A3E0F50978081219D1FA
:102C1400EA2401F508EB3400F509E4F50AF50B782C
:102C24000C79081213A9750871750902780C7908D2
:102C34001213A9AA0CAB0DAC0EAD0F1226E8740248
:102C440012177D8B09EA450960047A0180027A0033
:102C5400EC2AFCED3400FD74131217B2E0F8A3E083
:102C6400F9E8FEE9FFECF8EDF97A717B021216DC63
:102C7400880889098E828F837808121646ECF8ED4D
:102C8400F97A717B021216DC8A088B0974057808BC
:102C94001217548E828F83A3A3A3A3E508F0A3E5A0
:102CA40009F07F080218D6C082C083E9906000F062
:102CB400D083D08222020135FFFFFFFFFFFFFFFF19
:102CC400C082C083852182852283E06420700A85C6
:102CD4002283A3858221858322023D6A74F412171C
:102CE400BEA821A922AC21AD22801CA3AA82AB8359
:102CF4008A828B83E0F50A7420650A60EE740965A4
:102D04000A60E8EAFCEBFDECFAEDFB8A828B83E0D7
:102D140075F00D84E5F033FEE433FF74C32EF582C1
:102D240074093FF58312662A8004ECFAEDFB8A826B
:102D34008B83E0F50A7427650A60067422650A70BD
:102D44003A122EB18A828B83A3AA82AB838A828BA6
:102D540083E0FCA3AA82AB8388828983122EB7E521
:102D64000A6C609F740A6C70E4E824FFF8E934FF8D
:102D7400F9EA24FFFAEB34FFFB8088740A650A70D1
:102D84001A88828983740AF002334EAE08AF098A26
:102D9400828B83A3AA82AB83E0F50A8E828F83A3FE
:102DA4008582088583098E828F83E0650A60DCE072
:102DB400F50AC394804033C3E52198E5229950086D
:102DC400122EAA700318A983122EB18E828F83E06B
:102DD40064806003022CF4850882850983E088827C
:102DE4008983F0A308A983022CF4EEFAEFFB8A820C
:102DF4008B83A3AE82AF838A828B83E0C3948040AB
:102E0400E9EE24FF122EA4648070088E828F83A3BF
:102E14000EAF838E828F83E06003022D2E8C828D11
:102E240083125B395016122EB18C828D83A3AC822F
:102E3400AD83125B394003022D0B80EA88828983BB
:102E4400A3AA82AB837409650A60067420650A70BC
:102E540036C3E52198E522995010122EAA600B88FA
:102E64008289837420F0EAF8EBF98C828D83A3AC19
:102E740082AD83E0F50A7420650A60EE7409650A80
:102E84006003022D0B80E388828983E50AF0EAF867
:102E9400EBF98C828D83A3AC82AD83022D0BF5827A
:102EA400EF126C2FE0221270BDE064202288828928
:102EB40083E50AF0A3A882A9832274E81217BEE965
:102EC400FE8A0C8B0D8C0E8D0F75100A7511007512
:102ED40012007513009085DC780C121330401C79B5
:102EE4002D1205FA780C12150180109086087808C6
:102EF400121637781079081213A91E7810790C125B
:102F0400130650E7EEFF74FF2F1E04C39401A2D2F0
:102F140065D033403D79201205FA80E8850C088598
:102F24000D09850E0A850F0B851014851115851260
:102F340016851317780879141214C3908608781428
:102F4400121637780879141214C3E5142430F912D0
:102F540005FA908608780812163778107908121442
:102F6400C3E51045114512451370B1800312177D56
:102F74007F1002189074F61217BE1203BA90031150
:102F8400E4F0A3125A65802B125FDCE875F00AA402
:102F9400F8AAF075F00AE9A42AF9E50828F8E43952
:102FA400F9E824D0F8E934FFF9900311E8F0A3E933
:102FB400125A5AE0F50874D02508C3940A501590A3
:102FC4000311C3E09499A3E0941990031140B974D8
:102FD400FFF0A3F07F02021890C082C0837A007BC6
:102FE40000852182852283E0F874226860057427B5
:102FF400687025852283A38582218583228003121C
:1030040066097921E72AF58209E73BF583E0F9E8C7
:10301400696009740A6970E77AFF7BFF023D6A748C
:10302400F71217BEEAFEEBFF800C1205FA8E828FB0
:1030340083A3AE82AF838E828F83E0F970EC790A2A
:103044001205FA7F01021890C082C08390030FE03A
:10305400FAA3E0800E8A828B83A3A3E0F8EA28FA1D
:10306400EB3400FBEA65237003EB652460138A826A
:10307400C082125FD98B83D082C3E098A3E09940C9
:10308400D4023D6A74F01217BE89088A09750A20B1
:103094001231DCF50CA3E0F50D90030DE0240312CE
:1030A40031CDAA0CAB0DE4FCFDA9081203C68005C2
:1030B40079201205FA85090C74FF250CF5090470B2
:1030C400EF8005890B850B0A1231DCF50B90030D9B
:1030D400E02401081231CE740A650B70030231C575
:1030E400E50BC394805007A90B1205FA80D77CC363
:1030F4007D0980267480650D7004A80EA90F88824E
:103104008983A3A882A983E8FEE9FF88828983E0F2
:10311400701DEC2402FCED3400FD8C828D8312665C
:103124002AEE4F60A0EEF8EFF980E0A80EA90F8810
:10313400828983A385820E85830F88828983E0C375
:10314400948040E7E0F50DE50B650D70A77480658C
:103154000B701B850E82850F83E0FB90030D125FBD
:10316400FDE06B708F90030DE024011231CD7420CB
:10317400650A600979208002A90B1205FA8E828FF4
:1031840083E0F50BA3AE82AF83E50BC3948040E8E4
:10319400EE24FE122EA2F974286970030230C712BD
:1031A40031DC642C70030230C7EE24FF122EA264BB
:1031B400C170030230C779201205FA750B20023062
:1031C400C9790A1205FA0236FAF8A3E03400F99034
:1031D400030DE8F0A3E9F02290030D125AC2E02295
:1031E40074F01217BEE9FFEAFE7508007509007550
:1031F4000A00750B00802274D02AFAEAC39E50514B
:103204008E0CE4F50DF50EF50F7808790C1213A960
:103214008A0C7808790C121564EFF974FF291F04DD
:103224006035852182852283E0FAA3858221858306
:103234002274D02AC3940A40BE74BF2AC394065091
:103244000474C980B4749F2AC39406500474A9807A
:10325400A8752502125C56AA08AB09AC0AAD0B028C
:1032640036FA74F41217BE8908EAFCEBFD900313D6
:10327400E06508700D900314125FDC8C828D83026C
:10328400333174BF2508F985080A750B0074027878
:103294000A1217547826E6250AFA08E6350BFBEAE3
:1032A40024FCFAEB34FEFBE9131313541FFE18E657
:1032B4002EFE08E63400FFEE2468F582EF123CEDA2
:1032C400C0E0740759F8D0E0B800028004C313D8F2
:1032D400FCA2E05063A828A929800D888289831262
:1032E4006629E82EF8E93FF9C3E89526E9952750C1
:1032F4004788828983E0645670E1A3A3A3A3E065B1
:103304000870D88C828D83123D0788828983A3A399
:10331400A3E06402602DE508900313F090031412F7
:103324003D07E82408F8E93400F9900316123D0734
:10333400900316126CD1800B8C828D8374DFF0A302
:103344007409F08005740212177D7F0402189074CA
:10335400EC1217BEEAFEEBFF123D0D5061A385820D
:10336400218583221203F08A088B098E828F8312AF
:10337400608A705C852182852283E06428703FA383
:1033840085822185832279011204088A108B118C8D
:10339400128D13E52570279085DC781012133050B8
:1033A4001D8E828F83123D22F50CA3E034FFF50DB0
:1033B400E4F50EF50F780C791012130640067A0026
:1033C4007B008010E5082510F508E5093511F5099D
:1033D400AA08AB097F0C02189074F21217BEE9FE1A
:1033E4008A088B09A808A9091234BFEA24F8F8EB63
:1033F40034FFF9C3E89523E99524500675250402A2
:1034040034BA85080C85090DE50C2408F8E50D345B
:1034140000F91234BF8A288B29AC28FD8C828D8355
:103424007456F0E50C2408A3123D088C828D83A306
:10343400A3A37404F0EE8C828D83A3A3A3A3F074DE
:10344400BF2EFF1259C15FFA88828983E0C0E0EA87
:10345400FBD0E0BB00028004C313DBFC54018C826C
:103464008D83A3A3A3A3A3125A19A3A3125A38B8F2
:1034740000028004C333D8FCF974FFC399F8E05800
:1034840049F07828E62408FA08E63400FB740E12A2
:1034940017B2126CC8EC4D600F78081219D11204DF
:1034A4007A740212177D8009AC08AD097900120400
:1034B40092900313E4F07F06021890C31234C422DE
:1034C400E498FAE499FB78281234D022E62AFA0820
:1034D400E63BFB2274F01217BEE9FEEA24FCFCEB87
:1034E40034FFFD74BB6E701A8C828D8378081216BB
:1034F4003778081215018C828D83780812164602DB
:1035040036FAECFAEDFBEA24FCFCEB34FFFDEE1298
:103514001A15A911EE363E35523566358235AB356E
:10352400E035F5350A361F362E3644365A365A36C5
:10353400703686362E36AF36CA368A828B83780842
:103544001216378C828D83780812158A80B18A828C
:103554008B8378081216378C828D8378081215B104
:10356400809D8C828D8378081216378A828B8378AB
:103574000C1216377808790C1213A90236E38A82E2
:103584008B83780C121637E50C450D450E450F70EC
:10359400030236F38C828D83780812163778087903
:1035A4000C1214C30236E38A828B83780C1216370A
:1035B400E50C450D450E450F70030236F38C828DE4
:1035C4008378081216377808790C1214C3850C080E
:1035D400850D09850E0A850F0B0236E38A828B83DB
:1035E40078081216378C828D8378081215EB023610
:1035F400FA8A828B8378081216378C828D83780836
:103604001216110236FA8A828B8378081216378CC6
:10361400828D8378081216240236FA8A828B837884
:10362400081216378C828D83804F8A828B837808A8
:103634001216378C828D8378081212D8605C8056FB
:103644008C828D8378081216378A828B83780812CD
:10365400131B504680408A828B8378081216378C5D
:10366400828D8378081212D87030802A8C828D83E0
:1036740078081216378A828B83780812131B401A33
:1036840080148A828B8378081216378C828D837813
:103694000812131B5004D2F08002C2F0A2F0E433EB
:1036A400F508E4F509F50AF50B80348C828D8378EE
:1036B400081216378A828B83780C121637E50C7839
:1036C4000812154580198C828D8378081216378A62
:1036D400828B83780C121637E50C78081215128C3D
:1036E400828D837808121646800C75250280037536
:1036F40025037A007B007F0802189074E81217BE35
:1037040074D112176774021217B2E9F0750E01E54D
:10371400256003023A8B740F1217B28582088583E1
:103724000974071217B2AE82AF83740E1217B2A8CF
:1037340082A98374051217B2123D0774071217B2D7
:10374400A882A98374031217B2123D07740F1217CB
:10375400B28582168583178055742F1217B2E582BD
:1037640065087004E5836509700302387B8521824E
:10377400852283E0F50A750B007402780A12175447
:10378400749E250AF5827481350BF58312165585CE
:103794000882850983121661852182852283A38587
:1037A4008221858322851408851509750E008521DB
:1037B40082852283E0F510125FACE5082404F51439
:1037C400E5093400F5158E828F83A385820C8583E9
:1037D4000D8E0A8F0BE510121AF2029A9C303AAB46
:1037E400BA383C0F0AA53820B237280D3A29B33A23
:1037F4002C683A805D37A9383CAA2F3CBC303ABDCE
:10380400A439BE303ABFE738C01F39C1D138E230DD
:103814003A173874D02510C3940A5031742F1217F4
:10382400B2E58265087004E5836509604A882189E8
:10383400227A0A79FF1203EA85088285098312161F
:10384400618514088515097525000237AF74BF25F5
:1038540010C3941A504B851882851983AA82AB83AE
:10386400A9101203F0126084701374051217B212B7
:1038740066305003023A1F752504023A8B742F12E6
:1038840017B2E58265087004E583650960E98A82F8
:103894008B831216558508828509831216610237B7
:1038A400A98821892274031217B2C3E09EA3E09F62
:1038B4004003023CB61259FFAA08AB098E828F83DB
:1038C400E0F9120402123CD740DB023A84742F124E
:1038D40017B2E58265087004E583650960997A107A
:1038E4000238371203BAA821A92288828983A385C2
:1038F400822185832288828983E064296003023AD5
:1039040084742F1217B2E58265087004E583650993
:10391400700302387B1206480238991203BAA821B0
:10392400A92288828983A38582218583228882892A
:1039340083E064296003023A84742F1217B2E5828B
:1039440065087004E5836509700302387B75B61F4A
:10395400E5B4A2E750FAE5BAF50AE5BBF9E50AF5DC
:103964000CE9F50D7406780C121735E50D3395E066
:10397400F50EF50F9086007810121637780C791032
:103984001213A99085E87810121637780C79101262
:1039940014C3850882850983780C1216460237A958
:1039A400123D0D4003023A84A3E064296003023A05
:1039B40084742F1217B2E58265087004E5836509E3
:1039C400700302387B852182852283A3A38582210B
:1039D400858322851882851983AA82AB831203F01A
:1039E4001260846003023A84851882851983125B0D
:1039F4009E85088285098388088909750A00750BE4
:103A04000078081216460237A9740F1217B2E5821D
:103A14006E7003E5836F700302387B8E828F83E5BB
:103A240010F0AE0CAF0D750E010237B2740512170B
:103A3400B2126630400302387B8E828F83E510F029
:103A4400AE0CAF0D8E828F837428F0A30EAF8380EB
:103A5400D5123CF3603EAA08AB09E8F9120402123D
:103A64003CD7501C74071217B2E5826E7003E583CD
:103A74006F70DE74021217B2E0640270030238A998
:103A8400E52570037525027A007B007C007D0074B7
:103A94002F022F71A3AE82AF830237AF123CF360C3
:103AA4002AAA08AB09E8F9120402123CD750D174CF
:103AB400071217B2E5826E7003E5836F70DE74023D
:103AC4001217B2E0640170B80238A974031217B275
:103AD400C3E09EA3E09F40030237B2740F1217B2F3
:103AE400E58265087004E58365096094E50824FCB3
:103AF400F50AE50934FFF50B850A82F583780C1283
:103B040016371259FF8E828F83E0F51024666068A1
:103B140014606B14606E24E0600B24FE603024DCBF
:103B24006075023BC69085DC780C12133040057832
:103B34000C121501850C10850D11850E12850F13BD
:103B4400850A82850B837810121646023A2A1204DB
:103B5400988A108B11E4F512F5137810790C12146D
:103B6400C3850A82850B83E50CF0A3E50DF0A3E57C
:103B74000EF0A3E50F023C24AA0C7900800AAA0CDB
:103B840079018004AA0C7902120432850A82850B19
:103B940083121661023A2A850D11E51154806003DF
:103BA400023A84E4F510F51178101219D17900ACB9
:103BB4000AAD0BAA0CAB0D1206E4740212177D02B7
:103BC4003A2A74BF2510C3941A505885188285194F
:103BD40083AA82AB83A9101203F0126084600302EB
:103BE4003A849085DC780C1213304003023A841234
:103BF4003D1CF510A3E034FFF511E4F512F513783C
:103C040010790C1213064003023A84EA250CF5825B
:103C1400EB350DF583E0850A82850B83126616A3C6
:103C2400F08005A3AE82AF83023A2AE50EA2E050EB
:103C3400037510BB85100A74D7250AF582748312A4
:103C44003CEDF50AEE24FFF8EF34FFF9888289830E
:103C5400E0FC74572CF50C74071217B2E5826E70F1
:103C640003E5836F6019E50CC39413501274802527
:103C74000CF5827484123CEDFAE50AC39A501F7461
:103C84000F1217B2E5826E7003E5836F700302387A
:103C94007B8E828F83E510F0A3AE82023A511EE937
:103CA400FFAA08AB09ECF9120402123CD7409502B2
:103CB4003A8474131217B2E58265087004E58365CB
:103CC400096003023A84E50824FC126C2B12165591
:103CD400023A938A088B098A828B83C3E5169582FC
:103CE400E517958322F58208E63400F583E022EE99
:103CF40024FF1EEF34FFFF8E828F83E0F8642822B6
:103D0400900340E8F0A3E9F022852182852283E034
:103D1400F974BF29C3941A22851882851983E0F89F
:103D2400123D2822125AC8A3E024F822C082C0837C
:103D34007A007B0C12051090030F125FD37C007D78
:103D44000C7900120492125AB090030F126CED24F5
:103D540094F582E8340BF5838582268583278526AE
:103D640028F529120414D083D082020135C082C000
:103D7400837AB57B831203D812597F1203C67A5A09
:103D84007B851203D87A3D7B861203D880D874F6DB
:103D94001217BE12060612040E123E131205EE127C
:103DA400062AE960497A72790012060C1259DC403D
:103DB40006125B4412061212061E90030FC3E0950E
:103DC40023A3E09524502190030F125ABE1219E840
:103DD40075080078081219D59085E41216557903F0
:103DE400120636740312177D123E131205EE022FCB
:103DF400D8C082C083800F79007A007B0012042629
:103E0400123E131205EE1205F4E970EB023D6AACA2
:103E140028AD297823E62402FA08E63400FB22744C
:103E2400E81217BE74F112176774021217B2E9F0A0
:103E3400752500EA4B7003023F0E900311125FD305
:103E4400AE23AF2474021217B2E06021782812590D
:103E54006BC3EA9EEB9F50030251CB8A288B298ABD
:103E6400828B837445F0A37403F0A3E4F01203DEA1
:103E74008A828B83A3A3A3858221858322C3E52120
:103E84009EE5229F40030242D0A821A9228882896C
:103E940083A385822185832288828983E0121A156F
:103EA4008028B540C9421F4166417D41A341024279
:103EB4002C42FA3E8442B84209430943C94A374373
:103EC4005643D84B8C508C50C843134E66443942E9
:103ED4009144E9441B457245914591459145D94525
:103EE400E74554467247D6474048EB4825499B4925
:103EF400B649E549F349852182852283E0640A6055
:103F0400030242C9125AB002428490031DE4F0A392
:103F1400F0852382852483A3A385822185832212AD
:103F240003C0750A0074021217B2E50AF004F50A18
:103F3400E0FA7821E62A123CE9640A70E8A80AC388
:103F4400E498FE95E0FF750B00780A1219D1AC21B4
:103F5400AD227828E62EFA08E63FFB12060074022A
:103F640012177D7828E62EFA08E63FFB8A218B2279
:103F74001203CC1203BA90031112728970198523AB
:103F840082852483A3A3858221858322E0640A6039
:103F940003023E8D0240B1900311E0F47003A3E0EC
:103FA400F470030242C9782112596B8A218B22A82A
:103FB40021AA28EAC398F50A900311E088828B832A
:103FC400123D08E50A88828B83A3A3F01203DE8ADC
:103FD400088B09AE08AF09EE65237003EF65246012
:103FE4004F8E828F83126CC1E0687003A3E0697006
:103FF4003F8E828F83A3A3E0F88882AC82C3E49CC3
:10400400FA95E0FB78231234D08A238B24EAC395F3
:1040140008F50CEB9509F50D780C1219D1EE2CFC72
:10402400EF3400FDEEFAEFFB12047A740212177DEE
:10403400852182852283A3A3A3E0640A606FAC2355
:10404400AD24850A8285820C750D007821E6C39C17
:10405400FA08E69DFBC3EA950CEB9400500779023D
:10406400740F022F71ECC39508F508ED9509F50955
:1040740078081219D1EEFCEFFDEE250AFAEF3400B0
:10408400FB120600740212177D780C1219D1AC21B0
:10409400AD22EEFAEFFB12047A740212177D782334
:1040A400E6250AFA08E63400FB8A238B247901808A
:1040B400AF125C568A82F583E0C3948040030242C7
:1040C400C9740D1217B2AA82AB831203F68A088B45
:1040D40009AE08AF09EE4F70030242C985218285FB
:1040E4002283E064B560030242C9A38582218583EB
:1040F4002279001204088A088B098C0A8D0BE525A5
:1041040060030242C9740D1217B212608A8E828F44
:10411400836003024D5DEAF0024D62750801750982
:10412400017E017F001203CC852182852283E06415
:104134000A60030242C990030FE0F8A3E0F9E865BE
:10414400237003E965247003024D8D8882898312EC
:10415400662A88828983A3A3E0FAE82AF8E934006E
:1041640080DB125AB07A72790012060C1259DC40C4
:1041740022125B44120612801A7A77790012060C16
:10418400782390030F126CD1E6C39AFC08E69BFDDA
:1041940012061812061E8523218524220242D07994
:1041A400001204088A08AF08E52560030242C9EF3B
:1041B40070030242CD1203BA125AFE5062E0F87440
:1041C40020686005740A6870597A72EFF912060C57
:1041D40012597550030242C974031217B2AA82AB72
:1041E40083EEF91203F074031217B212608A6003AB
:1041F400024E9874031217B2125B08024E9C7900A7
:104204001204088A08AF08E52560030242C9EF706A
:10421400030242CD1203BA125AFE5003024EA512F3
:104224005C5612061E0242C912597F1203C67A5AFC
:104234007B851203D8852182852283E0640A60038A
:104244000242CD025097A3A3A3A3E024BFFC1259BA
:10425400C15CFA852882852983A3A3A3A3A3E0C014
:10426400E0EAFBD0E0BB00028004C333DBFCFB7458
:1042740001BA00028004C333DAFC125A8A125BC00A
:10428400C3E5289526E5299527501985288285298F
:1042940083E024AD600624FD60AC80E1125B1E1255
:1042A4000AA480D990030F125ABE125994500302E3
:1042B4003E8D8018852182852283E024BFC3941A11
:1042C4005003024BC4E5257003752501E525C3336E
:1042D400F8E433F974E328F582748439F583126CB5
:1042E400D11203D8AC21AD22C3EC9523ED95244023
:1042F40003024A74E5257003024A7E90030FE0FA34
:10430400A3E0024A2B79001204088B098C0A8D0B56
:10431400E52570B1852182852283E0640A70AA12A2
:10432400596360030242397900A38582218583227F
:10433400024A987900120408125A4F708885218223
:10434400852283E0640A70811203DE8A828B8302F1
:1043540042AE7900120408125A4F60030242C98522
:104364002182852283E0640A60030242CDAE23AF3A
:1043740024852882852983A3A3A3A3A3C3E5829EBE
:10438400E5839F50030251CB7828E624FB126C5D31
:10439400A828F9888289837447F0A37405F0A3E4FC
:1043A400126C82E521F0A3E522F01203DE8A828BEF
:1043B40083A3A3A3858221858322C3E5219EE522CD
:1043C4009F0242B1125A6D40030242C98815A38567
:1043D40082218583221203BA852182852283E064A7
:1043E400B560030242C9A385822185832279001224
:1043F40004088A088B098C0A8D0BE52560030242A8
:10440400C9A821A92288828983A385822185832240
:1044140088828983E064C260030242CD7900120479
:10442400088A0C8B0D8C0E8D0FE52560030242C9A2
:10443400A821A92288828983A38582218583228851
:10444400828983E064C36003024B2B790012040861
:104454008A108B118C128D13E52560030242C90268
:104464004B3A852182852283E064557018A3E06469
:10447400507012852182852283A3A3E0640A70050B
:10448400790112064E790012064E0242C9125A6D83
:1044940040030242C974021217B2E8125A5A1203B4
:1044A400BA852182852283E0642860030242C9A37D
:1044B4008582218583227901120408E5256003029F
:1044C40042C9E4F50CF50D780C1219D174041217D5
:1044D400B2E0F91203FC740212177DE525600302B1
:1044E40042C90242397E0079021204088A08AF08E0
:1044F400E52560030242C91203BA8521828522831D
:10450400E064C46003024EEEA3858221858322EF1A
:10451400F912063002423979001204088A088B091C
:104524008C0A8D0BE52560030242C99085DC78086E
:1045340012133040030242CDA821A9228882898324
:10454400A385822185832288828983E0640A70E8B6
:104554008521828522831219E8750C00780C1219C2
:10456400D57903120636740312177D0240B179001F
:104574001204088B098C0A8D0BE52560030242C9DD
:104584001259637003024F657901024F67125C563A
:1045940012042C74021217B2E9F0E52560030242FA
:1045A400C9852182852283E064B560030242CDA3DC
:1045B40085822185832279001204088B098C0A8D57
:1045C4000BE52560030242C91259637003024D3B97
:1045D4007803024D3D12599D50030250377525074B
:1045E4000242D09003427401F0127286700A900362
:1045F400407421F0A37403F0852182852283E0F5C1
:104604000A750840750903246B70030253F524B836
:1046140070030251D614601024FE70030251E61494
:1046240070030252BE025467125BA85003024A226E
:10463400125BD67405F0900340E02401125A9EF0F8
:10464400852182852283A3858221858322024239A2
:10465400900342E4126CA6C39480508D7510007FC1
:104664000079001204088A088B098C0A8D0BE52551
:1046740060030242C91203BA852182852283E024A1
:104684002360091470030251D10242C97E01A3853B
:104694008221858322E064DE70090E0EA3858221C7
:1046A400858322852182852283E064E3700AA385C1
:1046B4008221858322751001852182852283E0640D
:1046C400E47008A38582218583220F8521828522B7
:1046D40083E064D560030242CDA3E0648E600302EC
:1046E40042CD852182852283A3A3858221858322CD
:1046F4007900120408125A4F60030242C9125FD9AA
:104704009003BF123D0778081219CD7C007D007913
:10471400007A027B001206DE740412177D780812F8
:1047240019CD7C007D0079007A037B001206DE74CB
:104734000412177DEFA2E0B3E433F508E4F509F5BC
:104744000AF50B78081219CD7C007D0079007A23D4
:104754007B001206DE740412177D1207207B00E52D
:1047640010A2E0E433FAEEF912071A024239790092
:104774001204088A088B09A909E52560030242C9C5
:10478400AE08E9547FFFE95480700302552285186E
:1047940082851983AA82AB83852182852283E0F9ED
:1047A4001203F08A088B09AC08AD09126084600317
:1047B4000242C99085DC1219E474041217B2123D46
:1047C40022F9EEFAEFFB1206DE740412177DE902F9
:1047D40044E174051217B2E4F012042C74061217A3
:1047E400B2E9F0E52560030242C91203BAA821A97F
:1047F4002288828983A38582218583228882898372
:10480400E02438600A24FE7003024FAA024A1C7492
:10481400071217B27410126CA6F8A385822185833F
:1048240022740A686003024F6D74081217B2741878
:10483400F074091217B2125C56024FB5750C0012CF
:10484400042CE9FEE52560030242C9EE1313135458
:104854001F5407F50EEE54C0F50D7480650D700AF3
:10486400E50EC3940440030250311203BAA821A9EF
:104874002288828983A385822185832288828983F1
:10488400E024356009146003024A1C750C01A82158
:10489400A92288828983A3858221858322888289AB
:1048A40083E0648E6003024A1C7900120408E52543
:1048B40060030242C9EEF912063CE970030250316A
:1048C400A80E7401B800028004C333D8FCF9E50DC6
:1048D4006003024FC8E58CA2E0E433450CF58CE993
:1048E40042ABD2BD02423912042CE9F8E52560033B
:1048F4000242C9E8131313541F5407FA7401BA008F
:10490400028004C333DAFCF4FAE854C0FB60030207
:10491400500DEA52ABE5AB6003025028C2BD025011
:1049240028852182852283E0F874E86860030255B3
:10493400BDA385822185832279021204088A08AEE8
:10494400087902120408EAF50CE52560030242C95D
:10495400EEC3940440030242CDEAC394044003022C
:1049640042CD852182852283E0FF74E66F6008745E
:10497400E76F60030242CDA38582218583227900FB
:10498400120408E52560030242C974E66F6003025D
:1049940055447820025546852182852283E02433BC
:1049A400600914700302595B0242C9900319E402BE
:1049B400464379001204088A0C8B0D8C0E8D0F78F7
:1049C4000C121A910800000006C942DD49C942DDF3
:1049D40049C942DD49C942DD49EA9009E7F002428A
:1049E4003912599D40030245E11204380244DFA8FC
:1049F40021A92288828983A38582218583228882B2
:104A04008983E0242870030256CC24FE70030256E6
:104A1400CC24F27003025696125C560242C97525E4
:104A2400050242D0E8FAE9FB8A828B83A3A3E0F86B
:104A3400EA28F8EB3400F9EA65237003EB65246097
:104A44000EC3EC9AED9B40DCC3EC98ED9950D590E5
:104A5400030D125FD3793E1205FA793E1205FA79F5
:104A6400201205FA7A0179001203E4790A1205FA90
:104A7400740465257004790280027901024064E9B6
:104A84007003024B1F19852182852283A3A3E0FAB8
:104A9400181259B412599D505D7821E62403123C32
:104AA400E92476600C14601114600924F760D08046
:104AB400D50980D2E970CF8062E970CA85822185E8
:104AC4008322023E8D7E001203BA852182852283D1
:104AD400E0640A60030242C9A3858221858322809F
:104AE400101E852182852283A3A3E0FA782112591E
:104AF400B412599D400A7A3D7B861203D80240B114
:104B0400852182852283A3A3A3E0F8748A687003B5
:104B14000E80CF74956870CAEE70C6852182852296
:104B240083A3A3A302464A125C56751001751100B3
:104B34007512007513001203BA852182852283E061
:104B4400640A60030242C97828E624F21259F1503B
:104B5400030251CB8A288B29AC28AD2985151675FB
:104B64001700740278161217547826E62516FA08E8
:104B7400E63517FBEA24FCF582EB34FEF58378086E
:104B84001216468C828D837446F0A3740EF0A3E44F
:104B9400125A1EE515125A19780C1216468C828D7B
:104BA40083A3A3A3A3A3A3A3A37810121646EC2460
:104BB4000CF582ED126C3BE521F0A3E5220249E1FC
:104BC400A3E0640A60030242C98009125B1E120A50
:104BD400A4125BC0C3E5289526E529952740030266
:104BE4004D30852882852983E024BB603514603DDF
:104BF40014600E24F460D424FD7003024CF40251BA
:104C0400CB125A0870CBA828A92988828983A3A328
:104C1400A3E0F521A3E0F52288828983125BC60212
:104C24004239125A0870AA125BC00240B11270C70E
:104C340008E6122EA564897098AA28AB298A828B6B
:104C440083A3A3A3E0F508852182852283E0650878
:104C54006003024BD5750900740278081217547862
:104C640026E62508FC08E63509FDEC24FCFCED34B9
:104C7400FEFDEA2408FEEB3400FF8C828D83780865
:104C84001216378E828F8378081215778C828D8363
:104C940078081216468E828F83780C121637EA240F
:104CA40004F8EB3400F9E8FCE9FD908630780C1246
:104CB400133050158C828D83780812131B501F8A71
:104CC400828B83125BC60246449085DC780C1213F7
:104CD4003040EC8C828D83780812133050E1EA2442
:104CE4000CF582EB123CEDF521A3E0F522024239EA
:104CF400AC28AD29A3A3A3A3E024BFFE1259C15E2F
:104D0400FA8C828D83A3A3A3A3A3E0C0E0EAFBD023
:104D1400E0BB00028004C333DBFCFB7401BA000275
:104D24008004C333DAFC125A8A024BD5125A086043
:104D3400030242C90242D0780474021217B2E04856
:104D4400F074031217B2AC82AD8374021217B2AAC4
:104D540082AB8312043E0242397808121646740D5F
:104D64001217B2126CE0126F687003024239120417
:104D7400620242390509EEF8EFF97A0A7B0012164D
:104D8400DC880A890BAE0AAF0BEE4F70E71203DE24
:104D940090030D125FD31231DCFEA3E0FFEE4F60EF
:104DA400291509EEF8EFF97A0A7B001216DC880A55
:104DB400890BAE0AAF0B80E5E508C39402400215E7
:104DC40008AA08A9091203E4050890030DE0652365
:104DD4007004A3E06524700302423990030D125A53
:104DE400F5247760111460D91460CD1460CA24FAD4
:104DF40060CF24FD7009E508C3940240021508AA97
:104E040008A9091203E480C2A3858221858322852F
:104E14002182852283E0640A7008790A1205FA0265
:104E240042391203D28A088B09AE08AF0974FF6EA7
:104E3400700374FF6F7050852182852283E0F874BB
:104E4400226870030242C974276870030242C9745D
:104E54002C6860B474206860AF7902120408E525F8
:104E640060030242C979001203C680A3A821A922C3
:104E740088828983A385822185832288828983E02D
:104E8400F91205FA1259FFEE4F70E185218285224D
:104E940083024E0C7C047D0012061212061E02428E
:104EA40039E0F87420686008740A686003024226D6
:104EB4007A77EFF912060C12597550030242C9743D
:104EC4000B1217B2AA82AB83EEF91203F0740B1221
:104ED40017B212608A700A740B1217B2125B088040
:104EE400047C047D0012061880B179001204088A3B
:104EF4000C8B0D8C0E8D0FE52560030242C9120345
:104F0400BA852182852283E064C57008A385822145
:104F14008583220E852182852283E0648E600302CC
:104F240042CDA385822185832279001204088A0850
:104F34008B09E52560030242C978081219D1EEF500
:104F44000878081219D5AA0CAB0DAC0EAD0FEFF909
:104F5400120636740312177DE960030242390242D5
:104F6400C9790012062402423974C66870097408AB
:104F74001217B27420802A74C76870097408121753
:104F8400B27428801C74C9686003024A1C74091234
:104F940017B2E054C060030242CD74081217B27411
:104FA40030F07409800874071217B27408F01217ED
:104FB400B2AC82AD8374051217B2AA82AB83120419
:104FC4003E0244DF7440650D7027E50EC39404E58A
:104FD4000C5013C333F8E58C540248F58CE9428D28
:104FE400439A10024239333354FCF8E58C5404805C
:104FF400E9E50C33333354F8F8E58C540848F58C60
:10500400E942AC439A0202423974406B700CEA5292
:105014008DE58D700F539AEF800AEA52ACE5AC70BF
:1050240003539AFD120642E96003024239752506CC
:105034000242D0A821A92288828983A3858221855E
:10504400832288828983E0246B70030251BB24BFCE
:1050540060181470030251AD14605314605014604E
:105064004D14604A1460470242C97821E624FBF5D6
:105074008208E6126C2F125FDC900343123D079006
:1050840003457401F0A3E4F0852182852283E06462
:105094000A7012852182852283A312599440030247
:1050A40042D0023E8DA385822185832280DA90033B
:1050B40045E02401F0A3E03400F0A821A92288826D
:1050C4008983A385822185832288828983E0242899
:1050D40060E81460E51460E21460D31460D0125CDC
:1050E40056F583E0FE74BF2EFFC3941A40030242B8
:1050F400C9851882851983AA82AB83EEF91203F05D
:10510400851882851983125AF5644E600302508C07
:105114007828E624F81259F150030251CB8A288BDF
:1051240029851882851983125FD38518828519838E
:10513400125ABE7456125AD6125ABEA37408F0A359
:10514400E4125ACF7402125ACFA3EEF08F14EF1266
:1051540059C15514FA88828983E0C0E0EAFBD0E0A3
:10516400BB00028004C313DBFC5401C0E085188239
:10517400851983E0FBA3E0F5838B82A3A3A3A3A3F8
:10518400D0E0125A14FBA3E0CB2406F582EB126C98
:105194003B125A38B800028004C333D8FCF974FFB8
:1051A400C399F8E0584902508B900345E02402F07B
:1051B400A3E0340002508B120444E9147003024249
:1051C400C914600302508C7525040242D07E020289
:1051D40046A7125BA85003024A22125BD674060249
:1051E4004639A3858221858322E0F50A7427650A5E
:1051F40060097422650A60030242C91203D28A0A52
:105204008B0BAE0AAF0B74FF6E700374FF6F7003E9
:105214000242C9125BA85003024A22181818E0F986
:10522400E508C398F8E50999F9E824FEF508E93496
:10523400FFF509C3EE9508EF9509A2D265D0335066
:105244001AEE04C0E0900340125ABED0E0125B7C18
:105254007409125B5F8E088F098015E50804C0E0AD
:10526400900340125ABED0E0125B7C7408125B5F5C
:1052740078081219D1AC21AD22126CCE12047A74C2
:105284000212177D900340E02508F8A3E03509F9E0
:10529400123D04C3EE9415EF1259775004EEFA80D0
:1052A400027A15AC21AD2279001209A27821E62EEA
:1052B400F58208E63FF58302464A127286700302BD
:1052C40042C9900340E0240108125BB35003024A30
:1052D4002290034012662A123D04803E900340123D
:1052E4006016C3E5089AE5099B5003024A2290031D
:1052F40040125ABEE50C125B5F1203BA7A107902AF
:105304001203EA8A0CE52560D3852182852283E095
:10531400650A60030242D0752500852182852283B7
:10532400A3858221858322E0F50A740A650A701038
:10533400EEF8900340E0C398148E828F830249E113
:105344007427650A60067422650A7009A3858221A0
:1053540085832280A474BF250AC3941A4003025390
:10536400E9A3E0F8740A68600874206860030242E4
:10537400C9851882851983AA82AB83A90A1203F00E
:1053840012608460030242C9126E63900340E028F5
:10539400F8A3E039F9E824F8F8E934FFF9C3E5089B
:1053A40098E509995003024A22750A08850A0C8572
:1053B4001882851983E0F8126E69C3E50C98E499A4
:1053C400400302531E8A828B83E0C0E090034012A4
:1053D4005ABED0E0F08A828B83A3AA82AB83125B8D
:1053E40060050A80C77420650A60030242C902533B
:1053F4001E900340E064217004A3E06403700A90EB
:105404000340E4F0A3F00242C9900342E0A2E0901A
:1054140085DC502B1219E47C217D03900340E0C30A
:105424009421F97A077B031206DE740412177D9027
:1054340086301219E47C007D0079007A058011120F
:1054440019E47C217D03900340E0C39421F97A0898
:105454007B031206DE740412177D900340E4F0A36C
:105464000246437427650A60097422650A600302D0
:1054740042C912044AE970030242C9900357E0F892
:10548400900340E028FAA3E034008A82F583A3A3C2
:10549400C3E5089582E50995835003024A229003E7
:1054A40057E004C0E0900340125ABED0E0125B7390
:1054B40024FE600B24FE600E24F460110242C91223
:1054C4005FE07403800C125FE074058005125FE0F6
:1054D4007407125B73F50875090078081219D17CFA
:1054E400477D03126CCE12047A740212177D1203E4
:1054F400BA852182852283E064DF70129003401212
:105504006CED1270CAE8122EA5C2E0125A5A90032A
:1055140057E0F8900340E028125A9E0249E17900CE
:105524001204088A088B098C0A8D0BE52560030296
:1055340042C978081219CD7C007D0079000247C663
:105544007800E50CC4333354C048F50CEA14600AFF
:1055540014600C24FE60100242C9430C0F800BE55A
:105564000CD2E4F50C8003430C11EEA2E190031875
:105574004023E4F0EEA2E0400543F32C800343F41F
:105584002CA2E0E5F192E0F5F175C200850CC57539
:1055940086000242397401F0EEA2E0400543F3387C
:1055A400800343F4E0A2E0E5F192E1F5F175FA003D
:1055B400850CFC75F80002423974E5686003024208
:1055C400C9A385822185832212042CE9851882854A
:1055D4001983F04403C0E074011217B2D0E0125AE8
:1055E40014D2E2F0E52560030242C91203BA123D67
:1055F4000D40030242CD74031217B2AA82AB831288
:1056040003F08A088B09AE08AF0974031217B212AB
:10561400608A60030242C9852182852283A3858230
:105624002185832274011217B2AC82AD838518825E
:10563400851983AA82AB8312043E900318E0702379
:1056440074031217B2125B9CE84960385386F98ED2
:10565400828F83E0F5C1E586A2E150FAE5C1125AD2
:105664004080E574031217B2125B9C801353F8F95F
:105674008E828F83E0F5F9A2F950FCE5F9125A40C5
:10568400E84970E974021217B2AC82AD8374010266
:105694004D50AE23AF2412042CE990031AF01204E7
:1056A4002CE990031BF0E525701B90031A125B1282
:1056B400AE82AF8390031B125B12AC82AD83AA232C
:1056C400AB2412043E0244DF751000751100750806
:1056D40000750A00AE23AF247821E624FF08E61201
:1056E4002EA564D8700575090180037509008E82A2
:1056F4008F837488125A27E4F0A3F01259A7E4F0B8
:10570400A30E125B8080020508852182852283E036
:10571400F8740A6870030258AC74D8687028A385BA
:105724008221858322E50960030242C9E5087003EA
:105734000242C990031A125A7CAE82125B80750928
:1057440001850A0B80157902120408EAF50BE52598
:1057540060030242C9E50870028A0AE509420B7A2D
:10576400808E828F83A3A882A983E50B5A90031BA2
:105774006005E044028003E044018E828F83F0E8F8
:10578400FEE9FF90031AE04402F88E828F83F0A3AF
:105794007468F0A30E0EAF8390031AE04401F9126B
:1057A4005A2EEAC313FA70B990031B125A7CE8F01C
:1057B400A37468123D08A3AE82AF83E509700302A7
:1057C400570B1203BA852182852283125B39400369
:1057D4000242C9A385822185832274091217B2AAC1
:1057E40082AB83A90A1203F08A108B117409121771
:1057F400B212608A701974091217B2A3125FE3A37C
:10580400E024F8F508FC7D007900120492800C8AEB
:10581400828B83127330A3F07508018E828F837498
:1058240088125A328E128F131259A77401125A32E7
:1058340090031AE04401FA125A2E90031BE044022A
:10584400FB125A2E85080A8019EB8E828F83F00E84
:10585400E9FFEC8E828F83F0A3125FD3A30E0E0EAA
:10586400AF83850A0974FF2509F50A04603A7808AC
:1058740090031AE04402FC8E828F83F0A3746812B2
:105884005A2790031BE044058E828F83F0A3EAF02D
:10589400A30E0EAF8318E870D7A3A983E50A60A905
:1058A40090031BE0440180A290031BE044018E821C
:1058B4008F83125A2790031A125AEE90031B125A1E
:1058C400EEE51245136024851282851383EEF0A35E
:1058D400EFF085080C750D007404780C121754ACA5
:1058E4000CAD0DF9EEFAEFFB120492EEFCEFFDAAFB
:1058F40023AB2412043EE52560030244DFE5124590
:105904001370030242397B00E50833333354F8F54E
:10591400087A018E828F83A30EAF8380267800EBF2
:10592400C33348FB74075A7011EB851082851183C9
:10593400F0A38582108583117B000AEE2402FEEF1A
:105944003400FFE508C39A50030242398E828F83E4
:10595400E060CA780180C89003197440024643EAA3
:105964004509450A450B22E624FDFA08E634FFFB07
:1059740022C3EB9400A2D265D0332279287823E79E
:10598400C396FA0809E796FB3395E0FCFD790022FB
:10599400A3A3A3858221858322C3E5219523E52240
:1059A400952422EE2402FEEF3400FF8E828F8322A0
:1059B400E62AFA08E63400FB8A218B222213131309
:1059C400541FFA7826E62AFA08E63400FBEA24682B
:1059D400F8EB3400F97407228A088B09AC08AD0986
:1059E400C3EC9401ED9400A2D265D03322FA08E608
:1059F40034FFFBC3EA9523EB952422EE24FF1EEF2C
:105A040034FFFF221270C708E6126C2FE0648F2265
:105A1400125AD6E022125A1EA322F08C828D83A33E
:105A2400A3A322F0A3AE82AF83228E828F83F0A33E
:105A34000EAF8322126C89EAF8740122F0E824FF85
:105A440018E934FFF9A3AE82AF8322900311EAF080
:105A5400A3EBF0E52522125A65A3858221858322D2
:105A640022F085218285228322852182852283E07A
:105A7400F874BF28C3941A22125A8022E044028E7A
:105A8400828F83F0A322FA74FFC39AFA88828983EF
:105A9400E05A4BF0900313E4F022125AA222F8A326
:105AA400E03400F9900340E8F0A3E92290030FE00A
:105AB400F523A3E0F5242290031D125AC222E0F834
:105AC400125AC822A3E0F583888222125AD6125AA7
:105AD400DE22F085188285198322125AE222E0F828
:105AE400A3E0F5838882A3A3A322125A800EAF8376
:105AF40022125AF922125AE2E022125C4674BF2E94
:105B0400C3941A22123D28FCA3E034FFFD22125A4A
:105B1400807420F0A37458F0A32285188285198319
:105B2400AC82AD83852882852983A3A3A3125ADE80
