:020000040000FA
:0600000002011D022410A4
:03002B00021E8A28
:03003300021E0B9F
:03005300022486FE
:03006B00021D2053
:03007B00021D93D0
:100083000222BFE5C754F84401F5C77901220000F5
:100093000080FB120086B90003020107E47921788E
:1000A3000DB800028004F709D8FCE4792E7802B871
:1000B30000028004F709D8FCE490028178D1790723
:1000C3008002F0A3D8FCD9FA781A90014D7A01BACC
:1000D30000028007E493A3F608DAF9900951AA8293
:1000E300AB8390014E783479038015E493A3AC82FB
:1000F300AD838A828B83F0A3AA82AB838C828D83A8
:10010300D8E9D9E77582367583DC740312012F753C
:100113008291758300740012012F75D00075813FA1
:10012300751881751902759F00020096C09FF59F8F
:10013300E473D09F22D083D082C09FE493C0E07445
:100143000193C0E0740293F59F22010254940100CD
:10015300003C940250940100007C941072920300BE
:10016300008C02025C94030000820202509401009E
:10017300007D9410A2920300000000000099038DFB
:10018300037A8E908FB390DB8F408F2590FE8D5234
:10019300935C91C1917C93ED8E6E90000030FF02D1
:1001A3000202020202020202010D0000001001021B
:1001B30054940100003193025094010000A50902F8
:1001C30074940100003503025094010000A6090253
:1001D30072940100002493025094010000A70902C5
:1001E3007094010000DF92025094010000A80902FC
:1001F3006E940100001C92025094010000A90902B0
:100203006C940100000A92025094010000AA0902B2
:100213006A940100002E92025094010000AB09027F
:1002230068940100004092025094010000AC09025E
:1002330066940100000993025094010000AD090285
:100243006494010000AE09FF000000FF00080130C4
:10025300750302010600000000000000000000001A
:10026300000000000000000000000000000000008B
:1002730000FFFF0600800CE80313081F08FF0000BF
:10028300B4000028002800283075A000A000A000BA
:10029300A00000080008E001F000100010001000AA
:1002A300100010001000500050005000100010000B
:1002B300D0070000000000000F00010005003075AA
:1002C30007001000010081FF00000000FF3F095DEF
:1002D300094509FF02020208025000A0000000E8DD
:1002E300030254940100004294025094010000DA86
:1002F3000A027A940100007004025094010000DBAA
:100303000A024C940100008604025094010000DCB0
:100313000A0248940100008804025094010000DDA1
:100323000A024A940800008904025094010000DE86
:100333000A024E94010000DF0AFF0100FF2002546D
:10034300940100003F94025094010000430B0262A9
:10035300940000000000025C94030000D604870FA1
:10036300870F870F870F870F870F870F870F870FDA
:10037300870F870F870F870F9312AB128D1212010E
:1003830038319403120138699503120138E9960351
:1003930012013842970312013886970312013898E5
:1003A3009703120138539803120138FE9803120180
:1003B300388C2A00120138A72A00120138692C0050
:1003C3001201380B2D00120138632D00120138AED3
:1003D3002D00120138D72D00120138162E001201FC
:1003E300385E2F00120138CC2F001201388B3000F9
:1003F300120138863100120138253500120138CD3B
:1004030035001201384C36001201382C3700120126
:1004130038CF37001201380B38001201382C38005E
:100423001201388F3800120138C138001201382602
:1004330054001201389D5400120138F25400120185
:1004430038E45B00120138E55C001201386D5D0091
:10045300120138655E00120138CF5F0012013813B4
:100463006000120138C46100120138CD99031201F2
:1004730038D79903120138159A031201385E9A038B
:10048300120138989A03120138F29A0312013813B1
:100493009B031201381C9B03120138699B03120151
:1004A30038929B031201389C9B03120138089C036A
:1004B3001201389A9C03120138E49C031201381A82
:1004C3009D03120138A69D03120138E79D03120113
:1004D300381E9E03120138309E031201384F9E03CB
:1004E300120138589E03120138259F03120138DC8C
:1004F300DB0312013843D803120138D9CD031201AB
:10050300380FCE0312013845CE0312013890CF03C2
:10051300120138CDDA03120138E3DA03120138EDA0
:10052300DA0312013837DB0312013878B3031201FF
:10053300388DB3031201383DB4031201387DB4037F
:1005430012013896B403120138D1B4031201381ED4
:10055300B50312013850B50312013892B5031201E5
:100563003893B70312013805B803120138ADFF02FF
:10057300120138BFFF021201388FC603120138B4CB
:10058300C603120138DEC60312013865DB0312010C
:1005930038EEFF0212013850FF0112013860FF01EB
:1005A30012013869FF01120138FAFF011201383FC5
:1005B300D703120138C4D7031201382AD803120112
:1005C30038F87F00120138A0CB031201382FCD0376
:1005D30012013890CD03120138D6CD03120138C071
:1005E300A9031201387DAA03120138AEAA0312012E
:1005F30038C5AA03120138D9AA0312013822AB0362
:1006030012013825AB0312013889AB03120138CC30
:10061300AB03120138FDAB0312013881AC031201A5
:1006230038CAAC03120138F6AC0312013820AD030B
:100633001201389BAD03120138F1AD0312013844A6
:10064300AE0312013851AE0312013829D30312014C
:10065300387BD30312013805D4031201386CD40359
:100663001201385BC90312013885C90312013853DB
:10067300CA031201382ECB031201387DF002120196
:100683003844F1021201387BF102120138A5F1025C
:1006930012013805F2021201385BF202120138C06E
:1006A300F20212013858F30212013867F402120100
:1006B30038FEF5021201388BF602120138F2F60207
:1006C30012013809F70212013823F8021201380027
:1006D3008002120138A48302120138128602120129
:1006E300386C86021201388B8602120138098702A0
:1006F3001201388288021201386E8902120138F120
:100703008D02120138C18E02120138688F02120164
:1007130038A68F02120138CACF03120138E1CF0382
:1007230012013812D0031201384DD0031201387769
:10073300D003120138A1D003120138B8D00312013B
:1007430038CFD003120138E6D0031201380FD1039A
:1007530012013822D10312013838D1031201384B68
:10076300D10312013872D1031201380EC1021201F2
:100773003812C2021201384AC2021201386DC20293
:1007830012013878C2021201389BC202120138AA40
:10079300C3021201387FC402120138FAC4021201E3
:1007A3003882C502120138BDC502120138F4C502F0
:1007B30012013882C6021201385BC702120138BB2C
:1007C300C702120138C6C70212013845C802120116
:1007D3003848C8021201384BC802120138DAC8027D
:1007E300120138DDC8021201380DC902120138376F
:1007F300C90212013825CA02120138D7CA021201EE
:100803003812D5021201380AD6021201383ED60236
:10081300120138C0D60212013808D7021201386C0F
:10082300D702120138F9D702120138B3D8021201E4
:1008330038C2DB021201384DDD0212013870DD02CD
:10084300120138E68D031201380E8E031201383C73
:100853008E03120138738E03120138D18E031201F5
:10086300385F9003120138AA9003120138F5900300
:100873001201383591031201387B9103120138A913
:100883009103120138669203120138709203120128
:10089300387D9203120138B092031201387C93031E
:1008A300120138889303120138A09303120138AA66
:1008B300930312013841D90312013859D9031201A4
:1008C3003871D90312013889D903120138B09E0255
:1008D3001201388C9F02120138F0A002120138472E
:1008E300A102120138C8A102120138B8A2021201F2
:1008F3003805A3021201388BA302120138BDA302EB
:10090300120138D1A50212013813A602120138319F
:10091300A602120138B4A60212013888A7021201F6
:100923003850A802120138008003120138D3800323
:100933001201387C8103120138CF81031201387F01
:1009430082031201380B8303120138F78303120168
:10095300382684031201383985031201388185034F
:10096300120138568603120138928603120138AEFB
:1009730086031201387FBC0312013895BC031201B0
:1009830038BBBC03120138D7BD03120138E1BD03E4
:1009930012013816BF031201380EC00312013818B2
:1009A300C00312013899A403120138C9A503120127
:1009B30038FCA50312013846A6031201380DA8031B
:1009C300120138F3E1011201385DE201120138BC72
:1009D300E30112013846E40112013856E401120121
:1009E3003883E401120138DFE401120138E6E5013E
:1009F300120138B0E60112013810E8011201385330
:100A0300E801120138F8E80112013845E901120141
:100A1300386BE90112013879EB011201387EEB01E1
:100A230012013883ED01120138D0ED011201384370
:100A3300EE0112013876EE0112013818EF011201AE
:100A430038C1EF01120138F9EF01120138FCEF014F
:100A530012013844F00112013884F001120138DB2D
:100A6300F001120138BCC303120138D4C3031201CD
:100A7300381CC40312013832C40312013879C40389
:100A83001201388DC5031201381AC60312013865E5
:100A9300C6031201388B6200120138C662001201CC
:100AA300380B6300120138CB63001201385A64001B
:100AB300120138E0640012013845650012013871F3
:100AC3006500120138AA6500120138E867001201B7
:100AD30038CC6900120138B26B00120138F56C0092
:100AE300120138436F00120138557000120138A00B
:100AF3007100120138B07200120138CD7200120178
:100B0300380873001201382A73001201388D7300FC
:100B13001201384E7800120138E37800120138359B
:100B23007900120138537900120138AD79001201AE
:100B330038967A001201380C7C00120138907C0040
:100B4300120138539F031201385D9F03120138A02D
:100B53009F03120138BB9F031201384BA0031201FC
:100B63003873A003120138B0A003120138E7A003C1
:100B730012013810A10312013885A1031201389A1A
:100B8300A103120138AFA103120138D1A10312014D
:100B9300381AA2031201383FA20312013879A203C3
:100BA300120138A5A203120138D3A2031201381E81
:100BB300A303120138C8A303120138D3A3031201FC
:100BC300381CA40312013846A40312013871A4038C
:100BD30012013826D603120138B58F02120138E309
:100BE3008F0212013831910212013811920212015F
:100BF30038309202120138AD9202120138F092029B
:100C0300120138469402120138F694021201382F69
:100C13009702120138B69902120138579A0212014B
:100C2300384D9B021201384A9C02120138A49D02DE
:100C33001201382F9E02120138CBD403120138342B
:100C4300D50312013888D503120138AFD503120139
:100C530038E0D50312013812B8031201387FB80304
:100C6300120138C6B803120138DEB903120138DAAB
:100C7300BA03120138BDBB0312013814E802120192
:100C83003856E80212013828E90212013801EA0253
:100C9300120138FBEA02120138DDEB021201384679
:100CA300EC02120138FCEC0212013870ED02120161
:100CB30038DCED0212013805EE021201387FEE0234
:100CC30012013818EF021201387DEF021201389237
:100CD300EF02120138D8EF02120138F1EF021201CC
:100CE3003856F00212013859F002120138F77C002D
:100CF3001201381F7D001201385D7D001201381B7F
:100D03007E00120138827E001201389E7E0012019D
:100D130038C67E00120138F67E00120138057F00C6
:100D2300120138827F001201385BA9011201382CAD
:100D3300AB011201383DAD0112013879AD01120149
:100D430038A6AD011201388FAE01120138D6AE01BB
:100D530012013817AF0112013844AF011201388F65
:100D6300AF01120138D6AF0112013804B0011201EC
:100D73003856B001120138E6B00112013883B301CD
:100D83001201389EB501120138DCB5011201385148
:100D9300B70112013896B7011201387AB80112016E
:100DA3003881BA01120138F8BA0112013842BB0185
:100DB30012013863BB0112013805BC01120138610D
:100DC300BD011201389BDE021201381ADF02120143
:100DD30038DCE402120138EBE50212013853E70272
:100DE300120138EAE7021201387F9401120138C870
:100DF3009401120138F5940112013828950112016A
:100E03003835950112013841950112013853950186
:100E13001201383A9601120138989601120138CD21
:100E230096011201381098011201385D98011201E0
:100E330038C99801120138729901120138209A01B8
:100E43001201387E9A01120138EE9A011201384ECE
:100E53009B01120138B99C01120138C69C01120191
:100E630038119D011201386E9D011201382D9E012A
:100E73001201385A9E01120138D29E011201382EF6
:100E83009F01120138789F011201380EA00112014F
:100E930038D9A0011201388EA10112013803A20131
:100EA3001201385EA201120138CEA201120138F9F3
:100EB300A2011201389BA301120138ABA401120154
:100EC30038EBA40112013808A50112013827A50146
:100ED3001201386EA50112013893A501120138C918
:100EE300A50112013843A60112013884A60112019B
:100EF30038A8A7011201384FA801120138A6A8018A
:100F030012013810A90112013829A9011201384828
:100F1300CB021201389BCB02120138A7CB0212017C
:100F2300387CCC02120138A3CC02120138DECC0289
:100F33001201384ACD0212013886CD02120138BFA0
:100F4300CD02120138D7CD021201382CCE02120184
:100F53003845CE021201388ECE02120138A1CE02DC
:100F6300120138BBCE02120138D1CE02120138046D
:100F7300D0021201384BD1021201384DD2021201B4
:100F83003847D302120138ACDC03120138AFAE0389
:100F930012013845AF03120138FCAF0312013826A2
:100FA300B00312013819B20312013841B30312011D
:100FB30038CABD01120138FEBD01120138E8C6016D
:100FC3001201383CC80112013835C901120138B584
:100FD300CA0112013897CB01120138D1CB0112019A
:100FE30038F4CB0112013836CC011201383FCC0161
:100FF30012013889CC0112013893CC011201383D1A
:10100300CD0112013816CE011201386ACE01120148
:1010130038CCCE011201381FCF011201384ECF0157
:101023001201388BCF0112013866D001120138CD7D
:10103300D301120138D3D30112013855D90112015A
:1010430038CEDD01120138A4E10112013822C003B8
:1010530012013898C003120138AEC003120138EFF1
:10106300C00312013829C103120138A2C1031201BE
:1010730038DDC10312013850C2031201388EC20396
:1010830012013897C203120138A3C203120138BFF9
:10109300C203120138EAC20312013800C30312016A
:1010A3003829C3031201388CC30312013823870381
:1010B3001201383687031201385087031201387939
:1010C3008703120138BC8703120138FB870312011F
:1010D300383988031201389E8803120138B3880314
:1010E300120138BE8803120138CB8803120138E29B
:1010F3008803120138F08803120138FF88031201B4
:1011030038148903120138298903120138348903F9
:101113001201384089031201385389031201385EE2
:101123008903120138818903120138288A031201C5
:1011330038388A031201384D8A03120138678A034B
:10114300120138828A031201389F8A03120138AAD6
:101153008A03120138668B03120138528C03120181
:1011630038778C03120138828C03120138978C0371
:10117300120138AB8C031201380C8D0312013812A3
:101183008D03120138188D031201381E8D031201CD
:1011930038368D03120138698D03120138CDF10100
:1011A30012013859F201120138B8F301120138D98A
:1011B300F501120138C5F601120138FAF6011201E0
:1011C300381CF701120138CBF701120138C3F901BA
:1011D300120138ECF9011201387EFA01120138B01C
:1011E300FA01120138BDFA0112013814FB01120190
:1011F300383AFB01120138A7FD01120138AAFE019A
:1012030012013802FF0112013892AA021201389C1E
:10121300AA02120138BEAA02120138CAAA02120196
:101223003863AC0212013892AC02120138AEAD023F
:1012330012013807AE021201387BAF02120138E8FF
:10124300AF0212013823B00212013862B002120158
:10125300381BB30212013835B302120138C1B3028D
:10126300120138CFB30212013828B4021201383602
:10127300B402120138A9B4021201380DB5021201E9
:101283003857B502120138E0B50212013802B6022E
:1012930012013828B8021201383DBB021201385539
:1012A300BC0212013808BD02120138EABD02120164
:1012B3003884D103120138A9D1031201381BD20398
:1012C30012013861F8021201386AF8021201387308
:1012D300F8021201384AF902120138FBFA0212012C
:1012E3003831FB021201386BFB02120138A1FB02F9
:1012F300120138DBFB021201380FFC021201383BEA
:10130300FC0212013884FC02120138BEFC021201F5
:101313003807FD021201385FFD0212013894FD0205
:10132300120138EFFD0212013829FE021201387A48
:10133300FE02120138B0FE02120138EAFE02120167
:10134300380DFF0212013822DA031201384EDA0394
:10135300120138A9DA03120138B3DA03120138C3D0
:10136300DA03120138CA7F001201388EDC03E76604
:1013730070100809E766700A0809E766700408092F
:10138300E76622E066701008A3E066700A08A3E02F
:1013930066700408A3E06622E49366701308740180
:1013A3009366700C08740293667005087403936661
:1013B30022C3E7960809E7960809E7960809E7961E
:1013C300A2D265D03322C3E09608A3E09608A3E037
:1013D3009608A3E096A2D265D03322C008C3E09654
:1013E300F50808A3E096420808A3E096420808A37C
:1013F300E0964208A2D265D033E5087001D3D00845
:1014030022C3E7960809E7960809E7960809E796CD
:1014130022C3E09608A3E09608A3E09608A3E0960B
:1014230022C008C3E096F50808A3E096420808A383
:10143300E096420808A3E09645087001D3D008223D
:10144300C3E4939608740193960874029396087400
:1014530003939622080808EAC0E0EBC0E086F0E7B1
:10146300A4FA180986F0E7A42AFA180986F0E7A473
:101473002AFA180986F0E7A42AFA1986F0E7A4FBEA
:10148300E5F02AFA190886F0E7A42BFBE5F03AFA0F
:10149300190886F0E7A42BFBE5F03AFA1818098639
:1014A300F0E7A4C5F02BFBE43AFA1908E7C5F0C648
:1014B300A426F6E5F03BFBE43AFA1886F0E7A4F637
:1014C300E5F00826F6E43B08F6E43A08F6D0E0FB3C
:1014D300D0E0FA22E4CFC0E0E4CEC0E0E4CDC0E047
:1014E300E4CCC0E075F020C3E633F608E633F60833
:1014F300E633F608E633F6181818EC33FCED33FD43
:10150300EE33FEEF33FFC3EC9709ED9709EE97092E
:10151300EF97191919400FFFEC97FC09ED97FD0997
:10152300EE97FE191906D5F0BEECF709EDF709EEB3
:10153300F709EFF7191919D0E0FCD0E0FDD0E0FE70
:10154300D0E0FF221215AF1818181214D712159EE7
:101553001919192212159E191919080808E61818DD
:101563001820E7E01214D71215AF1818182209092A
:1015730009E719191920E7DC080808E618181820E4
:10158300E7030214D71215AF1818181214D712153F
:10159300AF18181812159E19191922E4C397F709E1
:1015A300E497F709E497F709E497F722E4C396F67B
:1015B30008E496F608E496F608E496F6226017081F
:1015C3000808C6A2E713C618C613C618C613C6185A
:1015D300C613C6D5E0E9226016080808C6C313C6B9
:1015E30018C613C618C613C618C613C6D5E0EA2212
:1015F3007009080808226016181818C6C333C608ED
:10160300C633C608C633C608C633C6D5E0EA22E6E3
:1016130027F60809E637F60809E637F60809E63734
:10162300F622E026F608A3E036F608A3E036F6082D
:10163300A3E036F622E026F008A3E036F008A3E0A4
:1016430036F008A3E036F022C3E697F60809E697DA
:10165300F60809E697F60809E697F622C3E096F03E
:1016630008A3E096F008A3E096F008A3E096F02222
:10167300E657F60809E657F60809E657F60809E6B5
:1016830057F622E056F608A3E056F608A3E056F60E
:1016930008A3E056F622E056F008A3E056F008A3AC
:1016A300E056F008A3E056F022E647F60809E647BD
:1016B300F60809E647F60809E647F622E667F6085C
:1016C30009E667F60809E667F60809E667F622E021
:1016D300F608A3E0F608A3E0F608A3E0F622E6F096
:1016E30008A3E6F008A3E6F008A3E6F022E0FAA3D5
:1016F300E0FBA3E0FCA3E0FD22EAF0A3EBF0A3EC04
:10170300F0A3EDF022CAC0E0E6F0A308DAFAD0E0D5
:10171300FA22CAC0E0E0A3C582CCC582C583CDC589
:1017230083F0A3C582CCC582C583CDC583DAE6D059
:10173300E0CA22C3E498F8E499F91217778026C324
:10174300E49AFAE49BFBE920E7E9121777E498F8B7
:10175300E499F922C3E498F8E499F9121777E49825
:10176300F8E499F9C3E49AFAE49BFB22EB20E7CF70
:10177300E920E7E0B90010BB0008E88AF084F8AA82
:10178300F022E4FBC8FA22EB70227B10C833C8C9ED
:1017930033C9335007C39AC3DBF280069A50012A38
:1017A300DBEAC833F4C8C933F4C9FA2275F008E494
:1017B300C833C8C933C933C99AC99B5004C92AC994
:1017C3003BD5F0ECFBC833F4C8E4C9FA22600D083A
:1017D300C6A2E713C618C613C6D5E0F322600C08E9
:1017E300C6C313C618C613C6D5E0F422700422601C
:1017F3000D18C6C333C608C633C6D5E0F418222570
:101803001810AF08F518400215198008F5184002A2
:101813001519D2AF22C0D0251810AF08F518500201
:1018230005198008F51850020519D2AFD0D022252A
:1018330018F58210AF08F518400215198008F5183D
:1018430040021519D2AF851983222518F582E43594
:1018530019F58322E4732518C582C0E0E51934FF26
:10186300C583C0E0E518C3958224F810AF088583CB
:10187300198582188008858319858218D2AFCEF026
:10188300A3E520F0A37808E608F0A3DEFAEFF0A3BF
:10189300E58124FAF8E608F0A3E608F0A3E608F0E9
:1018A300A30808E608F0A3E608F0A315811581D084
:1018B300E0FED0E0F8158115811581E8C0E0EEC0A7
:1018C300E0222518C582C0E0E51934FFC583C0E0D6
:1018D300E518C3958224F910AF088583198582180A
:1018E3008008858319858218D2AFCEF0A3E520F056
:1018F300A37808E608F0A3DEFAEFF0A3E58124FB62
:10190300F8E608F0A3E608F0A30808E608F0A3E663
:1019130008F0A315811581D0E0FED0E0F8158115FC
:1019230081E8C0E0EEC0E022851983851882E0A338
:10193300FEE0A3F5207808E0A3F608DFFAE0A3FFB2
:10194300E0A3C0E0E0A3C0E0E0A3C0E0E0A3C0E008
:10195300E0A3C0E010AF088582188583198008854D
:101963008218858319D2AFD083D0820201358519BD
:1019730083851882E0A3FEE0A3F5207808E0A3F6B0
:1019830008DFFAE0A3FFE0A3C0E0E0A3C0E0E0A328
:10199300C0E0E0A3C0E010AF0885821885831980FA
:1019A30008858218858319D2AFD083D08222C0D014
:1019B3002518C582C0E0E51934FFC583C0E0E518EA
:1019C300C3958224F310AF08858319858218800894
:1019D300858319858218D2AFC8F0A3E9F0A3EAF092
:1019E300A3EBF0A37908E709F0A3D8FAECF0A3ED91
:1019F300F0A3EEF0A3EFF0A3D0E0F0A3D0E0F0A3C8
:101A0300D0E0F0A3E520F0A3E5F0F0A3228519834D
:101A1300851882E0C0E0A3E0F9A3E0FAA3E0FBA30A
:101A23007808E0F608A3DFFAE0FCA3E0FDA3E0FEFC
:101A3300A3E0FFA3E0C0E0A3E0C0E0A3E0F5D0A3F0
:101A4300E0F520A3E0A3F5F010AF088583198582A4
:101A5300188008858319858218D2AFD082D083D0AD
:101A6300E0F8D0E03274048006740280027401C08E
:101A7300E0F404121832D0E0121708227404800430
:101A830074028000CCC0E0EDC0E0E518C39CCCAD8F
:101A93001950011D10AF068C188D1980068C188DF6
:101AA30019D2AF121715D0E0FDD0E0FC22D083D0BD
:101AB30082C5F0E493A3C5F0C395F0F5F0E493A3D6
:101AC300C395F04005E5F0048001E475F002A42518
:101AD30082F582E5F03583F583E493A3C0E0E493D4
:101AE300C0E022D083D082E9C0E0E493A3C386F0B0
:101AF300C5F095F0F908E493A386F0C5F095F0706E
:101B03000BE493A3C3994005E9048002A3E475F0B1
:101B130002A42582F582E5F03583F583D0E0F9E46C
:101B230093A3C0E0E493C0E022D083D082E9C0E075
:101B3300E493A3C386F0C5F095F0F908E493A38674
:101B4300F0C5F095F0702408E493A386F0C5F095F2
:101B5300F0701908E493A386F0C5F095F0700E08B1
:101B6300E493A3C3994007E9048004A3A3A3E47502
:101B7300F002A42582F582E5F03583F583D0E0F900
:101B8300E493A3C0E0E493C0E022D083D082ECC00E
:101B9300E0EDC0E0E493A3FCE493A3FDED4C600D02
:101BA300121BD9EC24FFFCED34FFFD80EFE493A37B
:101BB300FCE493A3FDED4C600D121C18EC24FFFC18
:101BC300ED34FFFD80EFD0E0FDD0E0FCE493A3C053
:101BD300E0E493C0E022C0E0C3E493960874019369
:101BE3009618400FE49366700808740193661870A2
:101BF300007019A3A3C3E49396087401939618A3E2
:101C0300A3400DD0E0D0E0D0E0021BC9A3A3A3A35F
:101C1300A3A3D0E022C0E0C0F088F0E4936670088C
:101C23000874019366187000A8F0A3A3700BD0F09A
:101C3300D0E0D0E0D0E0021BC9A3A3D0F0D0E022D3
:101C4300D083D082ECC0E0EDC0E0EEC0E0EFC0E0B6
:101C5300E493A3FCE493A3FDE493A3FEE493A3FF23
:101C6300EF4E4D4C6015121CBFEC24FFFCED34FF0E
:101C7300FDEE34FFFEEF34FFFF80E5E493A3FCE4C5
:101C830093A3FDE493A3FEE493A3FFEF4E4D4C60B7
:101C930015121CFCEC24FFFCED34FFFDEE34FFFEBB
:101CA300EF34FFFF80E5D0E0FFD0E0FED0E0FDD0D1
:101CB300E0FCE493A3C0E0E493C0E022C0E0C0F002
:101CC30088F0121443A8F0400712139BA8F0701A6F
:101CD300A3A3A3A3121443A8F0A3A3A3A34013D0C5
:101CE300F0D0E0D0E0D0E0021CA9A3A3A3A3A3A358
:101CF300A3A3A3A3D0F0D0E022C0E0C0F088F012E9
:101D0300139BA8F0A3A3A3A3700BD0F0D0E0D0E063
:0C1D1300D0E0021CA9A3A3D0F0D0E02275
:101D2000C0E074F01219B1A2AFE433FFD2AFE5897D
:101D3000F8E5AB58F50A6051F4F589C2C57E008E0E
:101D400008750900740278081217EF121E06C3E81E
:101D50009408E99400502BE85407F87401B8000285
:101D60008004C333D8FC550A601875080075090152
:101D7000EE78081217EFAA08AB09900281E0F91279
:101D800004C50EEEC3940440B6EFA2E092AF7F0309
:101D9000021A10C0E074F01219B1A2AFE433FFD2FE
:101DA000AFE58AF8E58D58F50A6059F4F58AC2EB7B
:101DB0007E008E08750900740278081217EF121E53
:101DC00006E82400FAE934FFFBC3EA9408EB940028
:101DD000502BE85407F87401B800028004C333D8CC
:101DE000FC550A6018750800750901EE780812178D
:101DF000EFAA08AB09900281E0F91204C50EEEC308
:101E0000940440AE8083121E73F922C0E074F01275
:101E100019B1A2AFE433FFD2AFE58BF8E5AC58F5CA
:101E20000A604DF4F58BC2E87E008E0875090074D7
:101E30000278081217EF121E73C39402402BE85465
:101E400007F87401B800028004C333D8FC550A6057
:101E500018750800750901EE78081217EFAA08AB8B
:101E600009900281E0F91204C50EEEC3940440BA51
:101E7000021D8974682508F58274033509F583E02D
:101E8000F8A3E022C2AF02000022C0E0C0D0E8C048
:101E9000E0E9C0E0E5A8D2AFC2C7751A00A2E7A288
:101EA000E792AFD0E0F9D0E0F8D0D0D0E03274F5CE
:101EB0001218C5EAFEEBFFEE2434F8EF3400F9887F
:101EC000088909EE2435121FDAF8EE2437121FDADA
:101ED000F50AEC850AF0A4FCAAF0850AF0EDA42A24
:101EE000FDE82CF8E43DF97A257B00121777EA85A6
:101EF0000882850983F074075AF87401B8000280DB
:101F000004C333D8FCFBEA131313541FF8EE28F86C
:101F1000EF3400F9E8245DF582E9121FDD5B600310
:101F2000EA801CEE2436121FDAF5F0EA84A8F0EEFF
:101F300028F8EF3400F9E82438F582E9121FDDF9BA
:101F40007F0402197174F51218C5EAFEEBFFEE2446
:101F500034121FDAC0E0EE2435F582EF3400F58349
:101F6000D0E0F08E828F83A3A3A3A3A3E0FAA3E023
:101F7000FB8E828F83A3A3A3A3A3A3A3E0FCA3E070
:101F8000FDECC39AF50AED9BF50BEE247FF508EF07
:101F90003400F509850882F583E06401702BEE2496
:101FA00080F582EF3400F583121A83121FE3740266
:101FB000121818E960137C997D06EEFAEFFB120EF9
:101FC000AF850882850983E4F0AC0AAD0BEEFAEF29
:101FD000FB121EAE122A75021F40F582EF3400F587
:101FE00083E022C082C083851882851983E0F8A32C
:101FF000E0F9C3EA9CEB9D5010C3EC98ED99401BAF
:10200000C3EA98EB995014800EC3EA98EB99400705
:10201000C3EC98ED994004790180027900D083D017
:102020008222EAC39CFAEB9DFB2274ED1218C59044
:10203000055FE064086005E06407702C9061C8E00B
:10204000602690058DE0F874FF68601CE875F00369
:10205000A4C8AAF02AF9748F28FE740539FF8E826D
:102060008F83A3A3A3E0700579000221CAEE246840
:10207000F510EF3400F511906060E0851082851155
:1020800083F0750A19750B07750800750900E5D905
:1020900014F50EE5D95403F50F601CEE2482F50CFF
:1020A000EF3400F50D7403650F6058E50E6013EE14
:1020B0002467121FDA700B793DEEFAEFFB120ED394
:1020C00080A6900714E064016026850C82850D834C
:1020D000E06004780480027800850E08E508C39863
:1020E000FA95E0FB120D3B8A088B09EA4509700658
:1020F00012117F022068850C82850D83E070048AAE
:102100000A8B0B78008016E5D9C0E08812E50A2515
:1021100012F582E50B3400F583D0E0F008E8C395B2
:102120000E40E4850C82850D83E0602874FC250E4A
:10213000F50E780A121A6CAC0EA90FEEFAEFFB122C
:102140000F817402121818E9700AAA08AB09120666
:10215000510220B77403650F6058850E0C750D0091
:10216000780C121A6CAC0AAD0BAA08AB09120F4519
:102170007402121818851082851183E0F874806843
:102180007005750C7F8002880CE50CF50A780A1240
:102190001A70E50FF50A780A121A70A90EAC08AD8C
:1021A0000990058DE0FA7B00120BD3740212181807
:1021B000801390055FE06408600BAC0AAD0BEEFA8B
:1021C000EFFB12103B12118B79017F0C0219717415
:1021D000F31218C574FC121802EAFEEBFF8908A27C
:1021E000AFE433F509C2AFEE2463F50AEF3400F52E
:1021F0000B8010AA0AAB0B120EFD1206519006A01E
:10220000E004F0850A82850B83E0F8A3E0F9E84951
:10221000602FE82402FAE93400FBEA2402F50CEB13
:102220003400F50D780C121A6C8A828B83E0FCA3C3
:10223000E0F9EEFAEFFB120EF17402121818E960E1
:10224000B29006A0E060579006A1E0F89006A0E0EA
:10225000C398500C7402650870449006A2E0603E7A
:102260008E828F83A3A3A3A3E0851882851983128E
:1022700022AE740212184DE81222AE90069FE0289A
:10228000F0740212184DAC82AD83851882851983D3
:10229000AA82AB837901120BDF9006A0E4F0E50976
:1022A000A2E092AF74041218187F06021971F0A30D
:1022B000E4F09006A0E0F8228526878527C622C094
:1022C000E074EF1219B1A2AFE433FEC2AF759B0008
:1022D000906182E0A2E05012E591A2E0500C75916D
:1022E000FE74016526700312202AE0A2E55051E534
:1022F00091A2E5504B7591DF90055FE064076005A2
:10230000E064087023740165267035790190058DAD
:10231000E0FA75F003A4CAA8F028FB748F2AFA74B7
:10232000053BFB1221CF8018E0640D7013900581EE
:10233000E004F064287002E4F07A00E0F9121191F0
:10234000906182E0A2E640030223E6E591A2E64026
:10235000030223E67591BF90055FE06405700812E3
:10236000107D121089800312108375260012110748
:10237000E9900560F079001210E9120E0D7A017BE8
:102380000090055EE0F91204C5907803E0644270A5
:1023900055900718E014F0704DC2AF12239E0078DC
:1023A0002FD0E0F618D0E0F6E59F540770057509C8
:1023B000FF800375097FC4C0E0782EE6F50808E6C3
:1023C0005509F509740B78081217E0D0E02508F8D4
:1023D000906270E0A2E740F8E8C333906272F09038
:1023E0006270E0D2E0F0906181E0A2E35009E5E99B
:1023F000A2E3500375E9F7A3E0A2E75009E591A233
:10240000E7500375917FEEA2E092AF7F04021A10AD
:10241000C0E0C0D0C082C083906183E0A2E05009D8
:10242000E5BFA2E0500375BFFEE0A2E15009E5BFA1
:10243000A2E1500375BFFDE0A2E25009E5BFA2E2B0
:10244000500375BFFBE0A2E35009E5BFA2E35003D0
:1024500075BFF7E0A2E45009E5BFA2E4500375BFE1
:10246000EFE0A2E55009E5BFA2E5500375BFDFE04C
:10247000A2E65009E5BFA2E6500375BFBFD083D0E6
:1024800082D0D0D0E032C0E074F21219B1E5A7A238
:10249000E4500FE5A1A2E4500953A7EF75A1EF1294
:1024A00024DAE5A7A2E5500CE5A1A2E5500653A762
:1024B000DF75A1DFE5A7A2E15009E5A1A2E1500384
:1024C00075A1FDE5A7A2E2500CE5A1A2E2500653DA
:1024D000A7FB75A1FB7F01021A1074F81218C575CD
:1024E000260190055FE0640670077A007B001210F9
:1024F00065A2AFE433FED2AF900565E064017018C9
:102500007A207B0090055EE0F912054F7A207B006F
:1025100090055EE0F91204CB906182E0D2E6F09083
:102520000715E0602185C6278016900564E06401E8
:102530007008E5C654F84405F5C653BEFC1222B82F
:102540007401652660E4EEA2E092AF7F010219718A
:102550008E288F2985822D85832C85188285198365
:10256000E0CEA3E0CF852D82852C83EBC9EAC8EDB0
:10257000CBECCA75F010C3E833C8E933C9EA33CAF3
:10258000EB33CBC3EA9EF52BEB9FF52AB35004AB9C
:102590002AAA2BEC33CCED33CDD5F0DAAE28AF2917
:1025A0002274E91218C574FA121802EAFEEBFF8CC5
:1025B000088D0990055FE024F7C394055006751057
:1025C000010226CC120FDB8A0A8B0BEA450B700343
:1025D0000226C912109B8A0C8B0D12109BEA650C07
:1025E0007003EB650D60ECEEFCEFFD85188285193C
:1025F00083AA82AB831210A1850A82850B83A3A3D1
:10260000780C1216D29093E4780C121686851882F4
:1026100085198378141216D29093E47814121686D2
:10262000780C7914121404501F780C791412164B7C
:10263000909398780C1214244047850C10850D1146
:10264000850E12850F13804590939885141085157B
:10265000118516128517137810790C12164B781005
:10266000121424501C75100075110075120075139A
:10267000017810791412164B7810790C121612800A
:102680000C7510017511007512007513007409782E
:10269000101215F3909394780C1216D27810790CCE
:1026A0001214D790055FE06408600AE064066005D4
:1026B000E0640570209093907810121424501690C6
:1026C000938C7810121625800C751000751100750A
:1026D000120075130085088285098378101216E1AF
:1026E00074061218187F1002197174F71218C512A7
:1026F00010B3900713E064017010906245E4F0A3FA
:10270000F053F4F343FE0C5390F3121053E5C65408
:10271000804449F5C6E59E547F644970F890618510
:10272000740FF0900711E0F47002A3E0602C7508BC
:1027300001750900900711E078081217EFE508F419
:10274000FAA3E0600814600A14600C800DEA52805D
:102750008008EA52908003EA52A079007F020219B1
:102760007174F71218C5E9FEEAFF74016E700C7AF5
:10277000807B0090055EE0F91204C5902A84E49302
:10278000F46008E493F9120DEF800953C680E59ECA
:10279000547F70FA121059900713E064017003120D
:1027A0000E25900711E0F47002A3E0602A7508017D
:1027B000750900900711E078081217EFAA08A3E046
:1027C000600814600A14600C800DEA42808008EAF8
:1027D00042908003EA42A0120FDB8A088B09A80806
:1027E000A909E8496017E5E170FCE82414F582E9DD
:1027F0003400F583E0F874FF68600288E174016FCB
:10280000700A7A0190055EE0F912051F02275C74D8
:10281000F11218C58A088B098C0A8D0B9093E47805
:1028200008121686740F12184D780C1216D2909357
:10283000E4780C1216867808790C12140490939898
:1028400050107808790C12164B7808121424401492
:10285000800E780C790812164B780C121424500450
:102860007901800279007F0802197174ED1218C590
:102870008A088B098C0A8D0B9093E47808121686CF
:10288000741312184D780C1216D29093E4780C122F
:102890001686780C790812140440117808790C1205
:1028A000164BAA08AB09AC0AAD0B80227510007557
:1028B00011007512007513017810790C12164B78FF
:1028C000107908121612AA10AB11AC12AD137F0CBE
:1028D0000219719093E478081216D28A828B837859
:1028E000081216997F0402197174F51218C58C82AA
:1028F0008D8378081216D28A828B83780812165F2D
:1029000012293DC3E098F0A3E09912292F401E90B0
:10291000938878081216D28A828B83780812163828
:102920008E828F83E02420F0A3E0344EF080A4F068
:102930008E828F83C3E09420A3E0944E22EA240485
:10294000F8EB3400F9E8FEE9FF8C828D83A3A3A3A2
:10295000A3E0F8A3E0F98E828F832274F51218C5E4
:10296000E9FE9006B4E0FAA3E0FBEEC333F8E433EB
:10297000F9749228F582749239F583E02AF508A358
:10298000E03BF5097808121A6C9093F81216F012D1
:10299000255074021218188A088B098C0A8D0B7442
:1029A0001078081215DAAA08AB097F0402197174AD
:1029B000F11218C58A0C8B0D8C0E8D0F740F121826
:1029C0004DE0FAA3E0FB741112184DE0F508A3E006
:1029D000F5097808121A6CEA2401F508EB3400F5C1
:1029E00009E4F50AF50B780C79081214579093F462
:1029F00078081216D2780C7908121457AA0CAB0D6D
:102A0000AC0EAD0F12255074021218188B09EA454E
:102A10000960047A0180027A00EC2AFCED3400FDA2
:102A2000741312184DE0F8A3E0F9E8FEE9FFECF8A2
:102A3000EDF97A717B0212177788088909E4F50AA3
:102A4000F50B8E828F8378081216E1ECF8EDF97A97
:102A5000717B021217778A088B09740578081217A0
:102A6000EF8E828F83A3A3A3A3E508F0A3E509F06B
:102A70007F08021971C082C083E9906000F0D083A2
:032A8000D08222DF
:102A8400FFFFFFFFFFFFFFFFC082C0838007A38516
:102A94008221858322852182852283E0642060EE61
:102AA40002380474F4121859A821A922AC21AD22C9
:102AB400801CA3AA82AB838A828B83E0F50A7420EC
:102AC400650A60EE7409650A60E8EAFCEBFDECFA5D
:102AD400EDFB8A828B83E075F00D84E5F033FEE430
:102AE40033FF74872EF58274093FF5831252908068
:102AF40004ECFAEDFB8A828B83E0F50A7427650AFD
:102B040060067422650A7025122C5C8A828B83A36A
:102B1400AA82AB838A828B83E0FCA3AA82AB8388DC
:102B2400828983122C62E50A6C609F80E7740A65CF
:102B34000A701A88828983740AF0025D44AE08AF71
:102B4400098A828B83A3AA82AB83E0F50A8E828FE3
:102B540083A38582088583098E828F83E0650A605A
:102B6400DCE0F50AC394804033C3E52198E522995B
:102B74005008122C55700318A983122C5C8E828F76
:102B840083E064806003022ABB850882850983E0B0
:102B940088828983F0A308A983022ABBEEFAEFFB9B
:102BA4008A828B83A3AE82AF838A828B83E0C394B1
:102BB4008040E9EE24FFEF1251CE648070088E82CB
:102BC4008F83A30EAF838E828F83E06003022AF586
:102BD4008C828D8312530B5016122C5C8C828D8345
:102BE400A3AC82AD8312530B4003022AD280EA883D
:102BF400828983A3AA82AB837409650A6006742060
:102C0400650A7036C3E52198E522995010122C55B7
:102C1400600B888289837420F0EAF8EBF98C828D4A
:102C240083A3AC82AD83E0F50A7420650A60EE7478
:102C340009650A6003022AD280E388828983E50A4F
:102C4400F0EAF8EBF98C828D83A3AC82AD83022A7F
:102C5400D2125FB4E064202288828983E50AF0A35B
:102C6400A882A9832274E81218598A108B118C1235
:102C74008D13750C0A750D00750E00750F00909379
:102C8400AC78101213DE401B792D1205F178101266
:102C940015AF800F9093F078081216D2780C79084B
:102CA400121457780C79101213B450E8803685103A
:102CB40014851115851216851317850C08850D09C1
:102CC400850E0A850F0B781479081215719093F00C
:102CD40078081216D278147908121571E508243090
:102CE400F91205F19093F078081216D2780C79084D
:102CF400121571E50C450D450E450F70B180031298
:102D040018187F1002192B74F61218597E007F00D0
:102D14001203B18025EE75F00AA4FEA8F075F00A3E
:102D2400EFA428FFE5082EF8E43FF9E824D0FEE9F3
:102D340034FFFFA385822185832285218285228316
:102D4400E0F50874D02508C3940A500DC3EE949995
:102D5400EF941940C07EFF7FFFEEFAEF023889C07E
:102D640082C0837A007B00852182852283E0F87407
:102D740022686005742768702A852283A3858221CE
:102D84008583228008EA24010AEB3400FB7921E7D9
:102D94002AF58209E73BF583E0F9E8696009740ADA
:102DA4006970E27AFF7BFF02380474F7121859EA5B
:102DB400FEEBFF800C1205F18E828F83A3AE82AFEF
:102DC400838E828F83E0F970EC790A1205F17F011A
:102DD40002192BC082C0839002CFE0FAA3E0800ED8
:102DE4008A828B83A3A3E0F8EA28FAEB3400FBEA97
:102DF40065237003EB652460168A82C0829002D535
:102E0400125B008B83D082C3E098A3E09940D10287
:102E1400380474F11218598908750920122F48A32F
:102E2400E0F50B9002CDE02403122F51AA0AAB0B5C
:102E3400E4FCFD1203BD800579201205F185080B21
:102E440074FF250BF5080470EF8034A90A1205F10C
:102E54008E828F83E0F50AA3AE82AF83E50AC39422
:102E64008040E8EE24FEF582EF1251CEF50A742874
:102E7400650A600879201205F1750A20850A09128D
:102E84002F489002CDE0240108122F52740A650ADB
:102E94007003022F3EE50AC394805007A90A120565
:102EA400F180D9750C87750D09802A7480650E70C0
:102EB40004ECF8EDF988828983A3A882A983E8FE4B
:102EC400E9FF88828983E07023E50C2402F50CE590
:102ED4000D3400F50D850C82850D83125290EE4F52
:102EE400609AEEF8EFF980DAECF8EDF988828983DC
:102EF400A3AC82AD8388828983E0C3948040E9E0F7
:102F0400F50EE50A650E70A37480650A701E8C8246
:102F14008D83E0FB9002CDE0FAA3E0F5838A82E0A2
:102F24006B70889002CDE02401122F517420650942
:102F3400600579201205F1022E54790A1205F17FF9
:102F44000702192B9002CD12528BF50A22F8A3E046
:102F54003400F99002CD1251EE2274F0121859E99E
:102F6400FFEAFE750800750900750A00750B0080FC
:102F74002274D02AFAEAC39E50458E0CE4F50DF56E
:102F84000EF50F7808790C1214578A0C7808790C0E
:102F9400121612EFF974FF291F0460291252DC740F
:102FA400D02AC3940A40CA74BF2AC3940650047436
:102FB400C980C0749F2AC39406500474A980B47550
:102FC40025021237BB025CD874F6121859E9FE7454
:102FD400BF2E1253BA12523BE82468F582E912510B
:102FE400B8C0E09002D7E05407F8D0E0B8000280FF
:102FF40004C313D8FCA2E050539002D3125D5C804A
:103004000C88828983125B33E82CF8E93DF990023D
:10301400D1125B34C3E89CE99D503188828983E0F6
:10302400645670DDA3A3A3A3E06E70D5EA4B6007DA
:103034008A828B8312318188828983A3A3A3E0646B
:1030440002602EE82408FAE934008038EA4B602153
:10305400900311744EF09003147402F0EEA3F090F8
:103064000317E4F0A3F08A828B837411F0A3740332
:10307400F08E08750900740278081217EF12529640
:10308400FAE934FE02388974F2121859E9FE8A0802
:103094008B09A808A90912316F1252F6E89523E9A1
:1030A400952450067525040231618A0C8B0DEA249F
:1030B40008F8EB3400F912316F1253031251E38A0A
:1030C400828B837456F0E50C2408F8E50D3400F97E
:1030D400A31231818A828B83A3A3A37404F0EE8AA2
:1030E400828B83A3A3A3A3F074BF2E1253A5FC88E1
:1030F400828983E0C0E0ECFDD0E0BD00028004C31F
:1031040013DDFC54018A828B83A3A3A3A3A31251CE
:10311400F4A3A3123166ECF87401B800028004C36E
:1031240033D8FCF974FFC399F8E05849F09002D3FE
:10313400E02408FAA3E03400FB740E12184D125B6D
:1031440034EC4D600F7808121A6C12047174021278
:1031540018188009AC08AD0979001204897F0602A9
:10316400192BE4F0A3F08882898322C312317422DC
:10317400E498F8E499F99002D3229002D3E812512A
:10318400EF2274EC12185974FA121802125489744A
:10319400BB6E70131203F38A088B098C0A8D0B78AB
:1031A400081215AF0233DB1237C374D02EC3940A4E
:1031B400500B8A218B227A0A79FF023283EEC39460
:1031C40080500302343174652EC3940340030232E9
:1031D4007A8A218B2212042FE9F8E525600302354F
:1031E4000EE8540FF50CE8C4540F6007147066E53C
:1031F400908064750A01750B00850C08E508780A4F
:103204001217EFE50A55F260489002D9E0F89009E8
:10321400A3E0450C48F5B6E5B4A2E750FAE5BAF5E3
:1032240008E4F509F50AF50BE5BBF50CE4C50CF566
:103234000D3395E0F50EF50F7808790C1216ACE015
:10324400131313541FF87408C39878081215C08018
:1032540022E5808002E5A0F508750900E50C7808F0
:103264001217D0E5085401F508E4F5093395E0F5A3
:103274000AF50B0233DB74B96E700D7A10790812FB
:1032840003E175250002351D74806E702BA821A9F9
:1032940022A385822185832288828983E0F50875AB
:1032A4000900740278081217EF74F02508F5827487
:1032B400903509F5830234E9E0F918E62401F58232
:1032C40008E6125CD37429697059858221858322AA
:1032D400EE2451600614600902350E12063F0235D1
:1032E4001D75B61FE5B4A2E750FAE5BAF508E5BBCB
:1032F400F509740678081217D0E5093395E0F50A44
:10330400F50B9093D0780C1216D27808790C12141D
:10331400579093C8780C1216D27808790C1215714C
:103324000233DB74AD6E7053E9FE74BF2EC3941A7E
:10333400400302350EE06429600302350E852182C4
:10334400852283A3A38582218583228518828519FA
:1033540083AA82AB831203E7125D61600302350E18
:10336400851882851983A3125B1BA3E024F8F50852
:10337400A3E034FFAA08FBE40234DC12040B8A1035
:103384008B118C128D13852182852283E064296040
:103394000302350EE525600302350EA385822185DF
:1033A4008322EE2454600B24FE603724D360510240
:1033B400350E9093AC78101213DE4013781012156A
:1033C400AF85100885110985120A85130B80088AB8
:1033D400088B098C0A8D0BAA08AB09AC0AAD0B0249
:1033E400351D12048F8A088B09E4F50AF50B780859
:1033F4007910121571AA10AB11AC12AD1302351D60
:10340400EB54806003023512E4F508F509780812DC
:103414001A6C7900740412184DAC82AD831206D56F
:103424007402121818740212184D0234E974BF2E73
:10343400C3941A40030234EE851882851983AA8244
:10344400AB83EEF91203E78A088B09852182852272
:1034540083E0F8851882851983E0F9A3E0F5838970
:1034640082A3A3A3E0640470737428686003023524
:103474000E852182852283A38582218583221204DD
:103484000B8A108B118C128D13852182852283E087
:1034940064297076E5257072A38582218583229044
:1034A40093AC78101213DE50658518828519831247
:1034B4005316F50CA3E034FFF50DE4F50EF50F7883
:1034C4000C79101213B45046E5082510F582E5096D
:1034D4003511F583E0FAE4FBFCFD803D7428686057
:1034E400298A828B831216F0802F74286E701B1227
:1034F400040B852182852283E06429700DE5257003
:1035040009A3858221858322800FE5257003752513
:10351400027A007B007C007D007406121818026297
:103524007D74EC1218591203F38A0C8B0D8C0E8DDA
:103534000F80121203F38A088B098C0A8D0B780C06
:103544007908121457E525600BAA0CAB0DAC0EAD2F
:103554000F02627DA821A92288828983A385822102
:1035640085832288828983E0244460C71460081418
:1035740060221237BB80D21203F38A108B118C1293
:103584008D13EA451145124513601B780C7910120E
:10359400157180B11203F38B118C128D13EA45114E
:1035A400451245137005752503809E850C08850D0D
:1035B40009850E0A850F0B8A0C8B0D8C0E8D0F78E6
:1035C40008790C12157102354974F01218598521C5
:1035D40082852283E0F874BB68600574BA68700E53
:1035E400750800750900750A00750B00801F120329
:1035F400F98A088B098C0A8D0B80121203F98A0C44
:103604008B0D8C0E8D0F7808790C12164BE5256006
:1036140003025CD8A821A92288828983A3858221F8
:1036240085832288828983E0244660081460CC1252
:1036340037BB80DD1203F98A0C8B0D8C0E8D0F784D
:1036440008790C12161280C574F01218591203FF6F
:103654008A088B098C0A8D0B800C7508017509008A
:10366400750A00750B00E5256003025CD8A821A942
:103674002288828983A38582218583228882898303
:10368400E0244F601A1460301460431460591460CD
:103694005614606C14607D14601E1237BB80CB120C
:1036A40003FF8A0C8B0D8C0E8D0F780C7908121386
:1036B400B450A775080080A51203FF8A0C8B0D8CEB
:1036C4000E8D0F7808790C121371708E80E5120339
:1036D400FF8A0C8B0D8C0E8D0F7808790C1213B4A5
:1036E400500302365E80CC1203FF8A0C8B0D8C0EC5
:1036F4008D0F7808790C121371700302365E80B353
:103704001203FF8A0C8B0D8C0E8D0F7808790C1226
:1037140013B4809D1203FF8A0C8B0D8C0E8D0F78D1
:103724000C79081213B480B874F0121859E52560A6
:103734000B7A007B007C007D00025CE01203B11276
:1037440004058A088B098C0A8D0B80121204058AE1
:103754000C8B0D8C0E8D0F7808790C121673E525E1
:10376400600AAA08AB09AC0AAD0B80CDA821A92236
:1037740088828983A385822185832288828983E044
:10378400244160C81460081460191237BB80D31236
:1037940004058A0C8B0D8C0E8D0F7808790C12168B
:1037A400AC80BB1204058A0C8B0D8C0E8D0F78082F
:1037B400790C1216BF80A71237C38A218B22227874
:1037C40021E624FFFA08E634FFFB22C082C0837A94
:1037D400007B0C1205079002CF125ACA7C007D0CA4
:1037E400790012048912526B9002CFE02494F8A35A
:1037F400E0340BF99002D112318112317E12041798
:10380400D083D082020135C082C0837AC17B9212F8
:1038140003CF1252AA1203BD7A177B931203CF7AF5
:10382400457B941203CF80D874F61218591205FD03
:103834001204111238AD1205E5120621E960447A2A
:1038440072790012060312617C400612534C120670
:10385400091206159002CF125BDB50219002CF12A1
:103864005B22121A837508007808121A709093C4A8
:103874001216F0790312062D74031218181238ADBB
:103884001205E58001FB7F0202192BC082C08380F0
:103894000F79007A007B001204291238AD1205E575
:1038A4001205EBE970EB0238049002D3E0FCA3E0CC
:1038B400FD7823E62402FA08E63400FB2274E812B9
:1038C400185974F7121802740212184DE9F075258C
:1038D40000EA4B70030239AD125AC7AE23AF247409
:1038E4000212184DE060279002D3E024FDF8A3E013
:1038F40034FFF9C3E89EE99F5003024CC412317EA1
:10390400888289837445F0A37403F0A3E4F012035E
:10391400D58A828B83A3A3A3858221858322C3E5D1
:10392400219EE5229F4003023D00A821A92288820E
:103934008983A385822185832288828983E0121A60
:10394400B08027633BF93CBC3BDE3BF53B1B3C7A38
:103954003C9B3C9939C63CE83C733B393D473D842C
:1039640044773D9A3D95456A40043EE6489C3EA610
:103974003EB73E353F653FBA3FDF3F004000400061
:103984004006409040E540BC411E426A42D5420B8D
:10399400437B439643852182852283E0640A600346
:1039A400023CF912526B023CC6852382852483A310
:1039B400A38582218583221203B7750C0074021239
:1039C400184DE50CF004F50CE0FA7821E62A1251C2
:1039D400B4640A70E8A80CC3E498FE95E0FF750D82
:1039E40000780C121A6CAC21AD229002D3E02EFAAE
:1039F400A3E03FFB1205F774021218189002D3E0FB
:103A04002EF8A3E03FF9882189221203C3125AC772
:103A14001203B19002D51261BE70198523828524E8
:103A240083A3A3858221858322E0640A600302398B
:103A34002E023B5F9002D5E0F47003A3E0F4700320
:103A4400023CF97821E624FDFA08E634FFFB8A21DA
:103A54008B22A8219002D3E0C398F50C9002D5E004
:103A640088828B83123182E50C88828B83A3A3F036
:103A74001203D58A088B09AE08AF098E0E8F0FEE9C
:103A840065237003EF652460528E828F83125B047A
:103A9400E0687003A3E06970428E828F83A3A3E081
:103AA400F508F8C3E498FA95E0FB7823E62AFA08C7
:103AB400E63BFB8A238B24EAC3950EF510EB950FA6
:103AC400F5117810121A6CEE2508FCEF3400FDEEA7
:103AD400FAEFFB12047174021218188521828522F0
:103AE40083A3A3A3E0640A6072AC23AD24850C8293
:103AF40085820A750B007821E6C39CFA08E69DFBD3
:103B0400C3EA950AEB9400500779027409022D0365
:103B1400858208ECC3950EF50CED950FF50D780C28
:103B2400121A6CEEFCEFFDEE2508FAEF3400FB12DE
:103B340005F77402121818780A121A6CAC21AD2217
:103B4400EEFAEFFB12047174021218187823E625BA
:103B540008FA08E63400FB8A238B24790180AC122E
:103B640037BB8A82F583E0C394804003023CF98525
:103B74002182852283E0FE74652EC39403400302F0
:103B8400471412042FE9FEE5256003023CF91203F1
:103B9400B1852182852283E064B56003023CFDA3E4
:103BA40085822185832212040BE5256003023CF9FA
:103BB400EEF9120435023CA87E011203C39002D52B
:103BC400EAF0A3EB125AEF640A6003023CF9120311
:103BD400D59002CD125ACA02485912526B7A7279A0
:103BE4000012060312617C402212534C1206098013
:103BF4001A7A77790012060378239002CF12619E15
:103C0400E6C39AFC08E69BFD12060F1206158523EF
:103C140021852422023D0012040B8A08AF08E52501
:103C24006003023CF9EF7003023CFD1203B112522F
:103C3400EC505CE0F87420686005740A6870537A8C
:103C440072EFF9120603C3EB1261895003023CF9C7
:103C5400740712184DAA82AB83EEF91203E77407B6
:103C640012184D125D676003024935740712184D2E
:103C74001252D202493912040B8A08AF08E52570A2
:103C840074EF60751203B11252EC500302494212F0
:103C940037BB120615805E1252AA1203BD7A177B37
:103CA400931203CF852182852283E0640A704A023D
:103CB4004075125284645370061253C8120AA71234
:103CC40054199002D3C082125257D082C3E098A3F1
:103CD400E09940DE9002CF125B221251A150030200
:103CE400392E8018852182852283E024BFC3941A4B
:103CF4005003024581E5257003752501E525C3338D
:103D0400F8E433F974ED28F582749239F58312617D
:103D14009E1203CFAC21AD22C3EC9523ED95244034
:103D240003024413E525700302441D9002CFE0FA18
:103D3400A3E00243CC852182852283E0649570034D
:103D440002519812040B8B098C0A8D0BE52570A582
:103D5400852182852283E0640A709EEA4509450A2A
:103D6400450B6003023CA87900A385822185832248
:103D740002443712040B1252306003023CF98521CD
:103D840082852283E0640A6003023CFD1203D58A23
:103D9400828B83023CDE12040B1252306003023C1D
:103DA400F9852182852283E0640A6003023CFDAE2A
:103DB40023AF249002D31252C6A3C3E5829EE583A7
:103DC4009F5003024CC49002D3E024FB125B808812
:103DD4008289837447F0A37405F0A3E4125AC0E502
:103DE40021F0A3E522F01203D58A828B83A3A3A337
:103DF400858221858322C3E5219EE5229F023CE141
:103E04001252484003023CF98811A385822185831C
:103E1400221203B1852182852283E064B560030206
:103E24003CF9A385822185832212040B8A088B091D
:103E34008C0A8D0BE5256003023CF9A821A9228890
:103E4400828983A385822185832288828983E06491
:103E5400A86003023CFD12040B8A0C8B0D8C0E8DA2
:103E64000FE5256003023CF9A821A92288828983F1
:103E7400A385822185832288828983E064A96003E3
:103E84000244EB12040B8A148B158C168D17E5254E
:103E94006003023CF90244FAC2AF75C9AB75C95B51
:103EA40080FE852182852283E0640A6003023CF956
:103EB400023D001252484003023CF9740212184DAC
:103EC400E81252021203B1852182852283E064281C
:103ED4006003023CF9A385822185832212040B8AA4
:103EE400088B098C0A8D0BE5256003023CF912034B
:103EF400B1852182852283E064296003023CFDA30D
:103F0400858221858322E4F50CF50D780C121A6C58
:103F1400AA08AB09AC0AAD0B740412184DE0F912EF
:103F240003ED7402121818E5256003023CF9023C03
:103F3400A87E0012040B8A08AF08E5256003023C42
:103F4400F91203B1852182852283E064AA60030209
:103F5400498DA3858221858322EFF9120627023C2D
:103F6400A812040B8A088B098C0A8D0BE5256003C3
:103F7400023CF99093AC78081213DE4003023CFD36
:103F8400A821A92288828983A38582218583228806
:103F9400828983E0640A70E8852182852283121A6B
:103FA40083750C00780C121A70790312062D7403B1
:103FB400121818023B5F12040B8A088B098C0A8DB5
:103FC4000BE5256003023CF99093AC78081213DEEC
:103FD4004003023CFD120645023CA812040B8B0967
:103FE4008C0A8D0BE5256003023CF9EA4509450A74
:103FF400450B7003024A007901024A021237BB02E0
:104004003B73A821A92288828983A3858221858381
:104014002288828983E0246B7003024CB424C66036
:1040240027147003024CA6147003024BB0147003DF
:10403400024BB0147003024BB0147003024BB01463
:104044007003024BB0023CF97821E624FBF58208A8
:10405400E6125FBA125B009002FC1231819002FEFC
:104064007401F0A3E4F0852182852283E0640A7060
:1040740012852182852283A31251A14003023D00AF
:1040840002392EA385822185832280DA9002FB7473
:1040940001F01261BB700A9002F974DAF0A37402A1
:1040A400F0852182852283E0F50A7508F9750902F5
:1040B400246B7003024F2024BF7003024D0C146064
:1040C4001024FE7003024D24147003024DF6024FB7
:1040D400921253E750030243C31253FF7405024D77
:1040E400199002FBE4125AEFC3948050A512040BFA
:1040F4008A088B098C0A8D0BE5256003023CF912B2
:1041040003B1852182852283E0242A600914700387
:10411400024CCA023CF97E01A3858221858322E0F8
:1041240064D770090E0EA385822185832212040BA5
:10413400EAF51012040B8A0CE5256003023CF9121F
:1041440003B1852182852283E064CE6003023CFDB5
:10415400A3E0648F6003023CFD852182852283A352
:10416400A385822185832212040B1252306003023C
:104174003CF99002D5125B009003801231817808DB
:10418400121A687C007D0079007A027B001206CF47
:1041940074041218187808121A687C007D007900DB
:1041A4007A037B001206CF7404121818E50C60031E
:1041B400024CCFD2F0024CD112040B8A088B09A90D
:1041C40009E5256003023CF9AE08E9547FFFE95490
:1041D40080700302504C851882851983AA82AB83B0
:1041E400852182852283E0F91203E78A088B09ACD2
:1041F40008AD09125D616003023CF99093AC121A98
:104204007F740412184D125316F9EEFAEFFB1206DE
:10421400CF7404121818E9023F2D12042FE9FEE5A9
:10422400256003023CF9750801750900740F5E7876
:10423400081217EF1203B11252DC74F05EF50A850E
:104244000882AE82EEF4F50974C46A6003024A1768
:104254001203B11252DC740A6A6003024A0812376C
:10426400BB7AC4024A2D750C0012042FE9FEE52521
:104274006003023CF9EE540FF50EEE54F0F50D74A4
:1042840020650D700AE50EC394044003024BAA1284
:1042940003B1A821A92288828983A38582218583E9
:1042A4002288828983E02439600614701E750C010B
:1042B400A821A92288828983A385822185832288D3
:1042C400828983E0648F7003024B051237BB023C82
:1042D400FD12042FE9FAE5256003023CF975080193
:1042E400750900EA540F78081217EFE508F4F8EAA4
:1042F40054F0F96003024B84E852ABE5AB6003026F
:104304004B9FC2BD024B9F852182852283E0F874B6
:10431400DF6860030250E5A38582218583221204AD
:104324000B8A08AE0812040BEAF50CE525600302BB
:104334003CF9EEC394044003023CFDEAC3940440F8
:1043440003023CFD852182852283E0FF74DD6F60DA
:104354000874DE6F6003023CFDA3858221858322FD
:1043640012040BE5256003023CF974DD6F6003025F
:10437400506C782002506E852182852283E0243798
:104384006009147003025192023CF99002D9E402CC
:10439400519712040B8A0C8B0D8C0E8D0F780C1216
:1043A4001B2C0800000006F93CBB43F93CBB43F955
:1043B4003CBB43F93CBB43EA9009A3F0023CA8751B
:1043C4002505023D00E8FAE9FB8A828B83A3A3E07A
:1043D400F8EA28F8EB3400F9EA65237003EB652466
:1043E400600EC3EC9AED9B40DCC3EC98ED9950D57C
:1043F4009002CD125ACA793E1205F1793E1205F1A6
:1044040079201205F179011203DB790A1205F1749E
:104414000465257004790280027901023B0FE9707A
:10442400030244DF19852182852283A3A3E0FA18BD
:104434001251BE1251AA50797821E624031251B4C4
:104444002475600814602D14601480D98521828538
:104454002283A3A3A3A3E0649560C30980C7E97082
:10446400C4852182852283A3A3A3A3858221858376
:1044740022023CA8E970AE85822185832202392E6E
:104484007E001203B1852182852283E0640A6003E1
:10449400023CF9A385822185832280100E85218226
:1044A400852283A3A3E0FA78211251BE1251AA40B7
:1044B4000A7A457B941203CF023B5F8521828522D1
:1044C40083A3A3A3E0648B70D4852182852283A374
:1044D400A3A3A3E0649570C4EE70098521828522AC
:1044E40083A380831E80B61237BB75140175150033
:1044F4007516007517001203B1852182852283E0A9
:10450400640A6003023CF99002D3E024F21252766A
:104514005003024CC41251E3851112751300740246
:1045240078121217EF9002D1E02512F8A3E03513A8
:10453400F9E824FCF582E934FEF58378081216E1E3
:104544008A828B837446F0A3740EF0A3E41251F9AB
:10455400E5111251F4780C1216E18A828B83A3A31D
:10456400A3A3A3A3A3A378141216E1EA240CF5824F
:10457400EB125CD3E521F0A3E5220243BFA3E06480
:104584000A6003023CF980091253C8120AA71254A4
:10459400199002D3C082125257D082C3E098A3E08C
:1045A400994003023CF912528424BB603714603FE3
:1045B40014600E24F460D124FD70030246AE024C54
:1045C400C41251D370C89002D3E0F8A3125261E030
:1045D400F521A3E0F52288828983125335E8F0A3FC
:1045E400E90243BF1251D370A5125419023B5F78FC
:1045F40021E624FFF58208E61251CE6489708F12F9
:10460400619B8A828B83A3A3A3E0F508852182851D
:104614002283E065086003024592750900740278FC
:10462400081217EF125296FCE934FEFDEA2408FE44
:10463400EB3400FF8C828D8378081216D28E828F21
:104644008378081216258C828D8378081216E18EE1
:10465400828F83780C1216D2EA2404F8EB3400F922
:10466400E8FCE9FD9093BC780C1213DE50158C82A3
:104674008D8378081213C9501F8A828B8312533595
:10468400024D1D9093AC780C1213DE40EC8C828D9D
:104694008378081213DE50E1EA240CF582EB125100
:1046A400B8F521A3E0F522023CA89002D41252618D
:1046B400A3E024BF9002D7F0131313541FFA9002FF
:1046C400D1E02AFAA3E03400FBEA2468FAEB3400D0
:1046D400FB9002D7E05407FC88828983A3A3A3A399
:1046E400A3E0C0E0ECF8D0E0B800028004C333D803
:1046F400FCF9ECF87401B800028004C333D8FCF868
:1047040074FFC398F88A828B83E05849F00245927B
:1047140074BF2EC3941A4003023CF9A385822185F9
:1047240083221203B1740312184DAA82AB83EEF9EB
:104734001203E78A088B09AE08AF09740312184DF7
:1047440012539024FE600724FE6044023CF9852144
:1047540082852283E064B56003023CF9A38582214B
:1047640085832212040B8A088B098C0A8D0BE5259C
:104774006003023CF9852182852283E0640A600398
:10478400023CFD8E828F8378081216E102483C8534
:104794002182852283E064286003023CF9A3858298
:1047A4002185832212040B8A0C8B0D8C0E8D0FE550
:1047B400256003023CF91203B1852182852283E03E
:1047C40064296003023CFDA38582218583221203B0
:1047D400B19093AC780C1213DE4003023CFD7403D9
:1047E40012184D125316F508A3E034FFF509E4F549
:1047F4000AF50B7808790C1213B44003023CFD85CA
:104804002182852283E064B56003023CFDA3858296
:104814002185832212040BE5256003023CF98521DE
:1048240082852283E0640A6003023CFDEE250CF5D8
:1048340082EF350DF583EAF0740312184D125B47CD
:10484400125E5F7003023CA8120459023CA81EEEDB
:10485400F91203DB0E9002CDE065237004A3E0653A
:10486400247003023CA89002CD1253902477601B5D
:1048740024FE600C1460D71460D424FB60D1800C37
:104884009002CE1252C9E0649570C41EEEF9120370
:10489400DB80C21203C98A088B09AE08AF0974FF12
:1048A4006E700374FF6F7070852182852283E0F837
:1048B4007422687003023CF97427687003023CF99F
:1048C40012040BE5256003023CF9852182852283CD
:1048D400E0F8740A6860087420686003023CFD1202
:1048E40003BD1203B1852182852283E0640A70A38B
:1048F400790A1205F1023CA8A821A9228882898399
:10490400A385822185832288828983E0F91205F1B7
:10491400EE24FF1EEF34FFFFC3EE9401EF12618912
:1049240050D6852182852283A38582218583228096
:10493400B17C047D00120609120615023CA8E0F8B9
:104944007420686008740A686003023C967A77EF02
:10495400F9120603C3EB1261895003023CF9740592
:1049640012184DAA82AB83EEF91203E774051218EC
:104974004D125D67700A740512184D1252D28004EC
:104984007C047D0012060F80AF12040B8A0C8B0D81
:104994008C0E8D0FE5256003023CF91203B18521CD
:1049A40082852283E064AB7008A3858221858322FB
:1049B4000E852182852283E0648F6003023CFDA37F
:1049C40085822185832212040B8A088B09E52560E0
:1049D40003023CF97808121A6CEEF5087808121AEA
:1049E40070AA0CAB0DAC0EAD0FEFF912062D7403CB
:1049F400121818E96003023CA8023CF97900120677
:104A04001B023CA874C26A602074C36A6003024239
:104A1400CF801674C56A7009E50A6003023CFD8004
:104A24000C74C66A60030242CFE50A704BE5095272
:104A3400F352F2E5FDFB74C66A7004EEF880027866
:104A440000EB550948F5FDEA243E60121460191480
:104A5400600614601D023CA8EE428F023CA8E509E2
:104A6400528F53F7DF023CA8E509528F43F7200227
:104A74003CA8EE42F2023CA87410650A7046E509AF
:104A840052F4E5FEFB74C66A7004EEF88002780006
:104A9400EB550948F5FEEA243E601514601C1460C9
:104AA40009147003023CF9023CA8EE42F6023CA849
:104AB400E50952F653F7BF023CA8E50952F643F75D
:104AC40040023CA8E50952F5E5FFFB74C66A700490
:104AD400EEF880027800EB550948F5FFEA243E60C1
:104AE4000C1460131470BAEE42F7023CA8E50952A4
:104AF400F753F77F023CA8E50952F743F780023CDD
:104B0400A812040BE5256003023CF9EEF912063302
:104B1400E97003024BAA750801750900E50E7808CF
:104B24001217EFA908E50D7012E58CA2E0E43345F5
:104B34000CF58CE942ABD2BD023CA87410650D7033
:104B440027E50EC39404E50C5013C333F8E58C54E5
:104B54000248F58CE9428D439A10023CA833335441
:104B6400FCF8E58C540480E9E50C33333354F8F84D
:104B7400E58C540848F58CE942AC439A02023CA8FF
:104B8400741069700CE8528DE58D700F539AEF80A4
:104B94000AE852ACE5AC7003539AFDEAF9120639FF
:104BA400E96003023CA8752506023D009002FEE080
:104BB4002401F0A3E03400F0A821A922888289838B
:104BC400A385822185832288828983E0242F60E85B
:104BD4001460E51460E21460D31460D01237BBF59E
:104BE40083E0F50A74BF250AFEC3941A4003023C0D
:104BF400F9851882851983AA82AB83A90A1203E76F
:104C0400851882851983125390644E600302406AAA
:104C14009002D3E024F81252765003024CC490025E
:104C2400D3125220125220125B2274561252BE74B6
:104C340008F0A3E41252BEA3A37402125224125227
:104C4400C6E50AF0EE1253A5FA88828983E0C0E033
:104C5400EAFBD0E0BB00028004C313DBFC5401C0B8
:104C6400E0851882851983E0FBA3E0F5838B82A39A
:104C7400A3A3A3A3D0E0125224E0FBA3E0CB240619
:104C8400F582EB125CD3123166EAF87401B80002C3
:104C94008004C333D8FCF974FFC399F8E05849027F
:104CA40040699002FEE02402F0A3E034000240696F
:104CB40012043BE9147003023CF914600302406AD5
:104CC400752504023D007E02024131C2F0A2F0E4E7
:104CD40033F508E4F509F50AF50B7808121A687C2F
:104CE400007D0079007A237B001206CF7404121829
:104CF40018120711E51060047A0180027A007B0023
:104D0400EEF912070B023CA81253E750030243C307
:104D14001253FF7406F0125373E8F0A3E90251979B
:104D2400A3858221858322E0F50A7427650A600938
:104D34007422650A6003023CF91203C98A0A8B0BC8
:104D4400AE0AAF0B74FF6E700374FF6F7003023C06
:104D5400F91253E750030243C3181818E0F9E508A1
:104D6400C398F8E50999F9E824FEF508E934FFF554
:104D740009C3EE9508EF9509A2D265D0335017EE1A
:104D840004C0E0125B1FD0E012538C74091253610B
:104D94008E088F098012E50804C0E0125B1FD0E082
:104DA40012538C74081253617808121A6CAC21AD3A
:104DB400229002F912619E12047174021218189062
:104DC40002F91252A09002F9123181C3EE9415EF48
:104DD4001261895004EEFA80027A15AC21AD227971
:104DE400001209A57821E62EF58208E63FF5830234
:104DF400446E1261BB7003023CF99002F9E0240195
:104E0400081253F250030243C39002F912529090D5
:104E140002F912318180419002F9E02401FAA3E001
:104E24003400FBC3E5089AE5099B50030243C3120F
:104E34005B1FE50C1253611203B17A10790212035D
:104E4400E18A0CE52560D0852182852283E0650A0C
:104E54006003023D00752500852182852283A38598
:104E64008221858322E0F50A740A650A7010EEF83F
:104E74009002F9E0C398148E828F830243BF742793
:104E8400650A60067422650A7009A38582218583F8
:104E94002280A474BF250AC3941A5074A3E0F87442
:104EA4000A6860087420686003023CF985188285EA
:104EB4001983AA82AB83A90A1203E7125D61600316
:104EC400023CF9125D499002F91252F6E50898E5A0
:104ED400099950030243C3750A08850A0C85188290
:104EE400851983E0F8125D4FC3E50C98E4994003FB
:104EF400024E5C8A828B83E0C0E0125B1FD0E0F03C
:104F04008A828B83A3AA82AB83125362050A80CA66
:104F14007420650A6003023CF9024E5C9002F9E0D9
:104F240064DA7004A3E06402700A9002F9E4F0A366
:104F3400F0023CF99002FBE0A2E09093AC502B12FB
:104F44001A7F7CDA7D029002F9E0C394DAF97A07D9
:104F54007B031206CF74041218189093BC121A7FA4
:104F64007C007D0079007A058011121A7F7CDA7D3D
:104F7400029002F9E0C394DAF97A087B031206CFAF
:104F840074041218189002F9E4F0A30251977427DC
:104F9400650A60097422650A6003023CF91204413F
:104FA400E97003023CF9900310E0F89002F9E0285C
:104FB400FAA3E034008A82F583A3A3C3E5089582AB
:104FC400E509958350030243C3900310E004C0E055
:104FD400125B1FD0E012538324FE600B24FE600E8C
:104FE40024F46011023CF9125B187403800C125B08
:104FF4001874058005125B187407125383F508753D
:1050040009007808121A6C7C007D039002F9126181
:105014009E12047174021218181203B1852182853C
:105024002283E064D870109002F91261A524FF1263
:1050340051CBC2E0125202900310E0F89002F91230
:10504400523B9002F90245E112040B8A088B098C49
:105054000A8D0BE5256003023CF97808121A687C76
:10506400007D00790002420E7800E50CC43333540D
:10507400C048F50CEA14600A14600C24FE601002A7
:105084003CF9430C0F800BE50CD2E4F50C80034390
:105094000C11EEA2E19002D84023E4F0EEA2E0402D
:1050A4000543F32C800343F42CA2E0E5F192E0F5F0
:1050B400F175C200850CC5758600023CA87401F028
:1050C400EEA2E0400543F338800343F4E0A2E0E5B8
:1050D400F192E1F5F175FA00850CFC75F800023CDB
:1050E400A874DC686003023CF9A3858221858322CD
:1050F40012042FE9F508E5256003023CF91203B117
:1051040085218285228312530B4003023CFD8518BE
:1051140082851983AA82AB83A90A1203E78A0A8BC0
:105124000BAE0AAF0B125D616003023CF98521826C
:10513400852283A38582218583227A00A90812040B
:10514400359002D8E0851882851983701E12532B7E
:10515400E84960335386F98E828F83E0F5C1E58692
:10516400A2E150FAE5C112521180E512532B8013CB
:1051740053F8F98E828F83E0F5F9A2F950FCE5F932
:10518400125211E84970E97A01A908023BB690026B
:10519400D97440F085218285228302446EA3A3A39F
:1051A400858221858322C3E5219523E52295242246
:1051B400F58208E63400F583E022E62AFA08E634AC
:1051C40000FB8A218B2222F582E8125FBAE0227862
:1051D40021E624FFF58208E6125FBAE06490221209
:1051E40051EBE8FAE9FB229002D3E8F0A3E9F022BC
:1051F4001251F9A322F08A828B83A3A3A322F08500
:105204002182852283A385822185832222F0E824BA
:10521400FF18E934FFF9A3AE82AF8322E8F0A3E9D3
:1052240012522822F0851882851983229002D5EA29
:10523400F0A3EBF0E5252212523F22E028F8A3E088
:105244003400F922852182852283E0F874BF28C3C3
:10525400941A229002D1125D5775830222E0F988D4
:10526400828983A3A3A3229002CFE0F523A3E0F5D0
:105274002422F8A3E034FFF9C3E89523E995242216
:105284009002D312528B22125B2AE022E0FEA3E0AA
:10529400FF229002D11252A0E824FC22E02508F853
:1052A400A3E03509F9229002D37823E0C396FA08E3
:1052B400A3E096FB3395E0FCFD22125228125B26F4
:1052C400A322E0F8A31252CD2212539CA32212531C
:1052D4001CFCA3E034FFFD22852182852283E0FAB1
:1052E400A38582218583222212548D74BF2EC394F8
:1052F4001A22125303E824F8F8E934FFF9C322E030
:1053040028F8A3E039F922E0F50A74BF250AC3940A
:105314001A2212531A22E0F8125324A3E024F8228A
:10532400A3E0F58388822212531AF8A3E034FFF92C
:105334002212533922A3125D5CF99002D3E028F8BB
:10534400A3E039F99002D3229002CFE02CF8A3E035
:105354003DF9882389249002CF1253E122F012539D
:10536400662212536A22125373E8F0A3E9F02290E2
:1053740002F9E02401F8A3E03400F99002F922F0E4
:10538400125366900310E0221254102212539422F6
:10539400E0F8A312539CE022E0F5838882A3A3A340
:1053A400221253BA12523FE82468F8E93400F99003
:1053B40002D7E05407229002D7F0131313541FF8B6
:1053C4009002D122851882851983AC82AD83900224
:1053D400D4125397F8A31252CD1253E122E0FAA348
:1053E400E0FB229002F9E02403F81253F222A3E036
:1053F4003400F9C3E50898E50999221818181253DE
:10540400257402125410740112541022F012536ABB
:10541400F5838882229002D3125B261253391251EB
:10542400EE2274F412185912548974652EFFC39431
:1054340003400B1237BB7525067900025D44120444
:105444000B8A08A808E52570EDE8C3940850E785A1
:105454002182852283E0642970DCA38582218583EF
:1054640022749D6E700C74016860CB740268700DB8
:1054740080C4749C6E7006E8C3940450B9EFC4549D
:10548400F048F980B612548D22852182852283E06A
:10549400FEA38582218583222274F6121859E9FC21
:1054A400EAFD750801750900740F5C78081217EF9E
:1054B400A808E8F4FEECC4540F6005146011801EC3
:1054C400E580FFED70027800EF5E48F580801CE512
:1054D40090FFED70027800EF5E48F590800DE5A036
:1054E400FFED70027800EF5E48F5A002388A74E898
:1054F40012185974F81218027E007F0074021218F0
:105504004DE4F0A3F0F50A740612184DE4F0A3F08C
:105514009002FC125B041231811203D58A128B13A0
:105524008A828B83A3A3A3858221858322125AFDB9
:105534008518828519831231819002FE125FC77427
:105544000378081217EFE5082402F8E5093400F996
:10555400C3125BCB5003025AA19002D3E02402F59C
:1055640014A3E03400F5150256DA740A650B6003DF
:10557400025829125AAB1252875430700302562A29
:105584009002D3E024FA125B80125BD85003025AD3
:10559400A19002D3125B347AFF7BFF120B19125ACB
:1055A400B78E0C8F0D7403780C1217EFE514250CCD
:1055B400F8E515350DF988828983A37478F0A3740E
:1055C400941231697402F0A3A3A304125AC0A3E491
:1055D400F0A3F09002D3125B3AA3125AF885088222
:1055E400850983A3A3A3123181125BAF5003025A2E
:1055F400A1125B64740412184DAA82AB83850882DD
:10560400850983E0F91203E7740412184D125B470D
:10561400E508F0A3E509F09002D3E02407F8A3E03D
:105624003400F912317EE50A70030256B4125AB7F7
:105634008E088F09740378081217EFE5142508F50E
:1056440008E5153509F509850882F583A37460F02A
:10565400A37494125AD77402F0A3A3A314125AD0B9
:10566400A3E4F0A3F0850A8285820CE50C240112E0
:105674005BC65003025AA1750B00780A121A6C74A7
:105684000412184D125B3412619B120471740212DD
:1056940018189002D3E0250CF8A3E034008882F5B2
:1056A40083E4F09002D3125B55A3123181750A0092
:1056B400851282851383A3A3E0F8E51228F512E589
:1056C400133400F513851282F583A3A3A3858221E5
:1056D400858322125AB79002FE125B00C3EE98EF44
:1056E400994003025A4BA821A92288828983A38561
:1056F400822185832288828983E0649E70D58521F6
:1057040082852283E0F50EA3858221858322749508
:10571400650E7003025A4B8E088F097403780812C1
:1057240017EFE5142508F510E5153509F511851071
:1057340082F583A385820C85830DE4F0A3F08510A4
:10574400828511837402F0A3A3A314125ADFE4F038
:10575400A3125ADFA3A3F0A3F074CF650E600974FB
:10576400D0650E6003025889852182852283E0F585
:105774000B7422650B60097427650B6003025829BA
:10578400120441E9700302582974CF650E600302C4
:105794005831850C82850D83745AF0A37494F0906B
:1057A4000310E0F5087509002403125BC6500302D8
:1057B4005AA17808121A6C7C007D03125B0B120448
:1057C400717402121818900310E0C0E09002D31212
:1057D4005B22D0E0F0125B0B9002D31252C1125A3A
:1057E400F8851082851183A3A3A3A3A3A3123181F7
:1057F4001203B1852182852283E064CD60030256C1
:10580400B4A3E0648F701E852182852283A3A385BF
:10581400822185832212040B740612184D1252330E
:1058240070030256B4125B937901025AA674D065D0
:105834000E60030256B4850C82850D83745EF0A35A
:105844007494F01203B11203C974FF6A700374FFF5
:105854006B6024740212184DE521F0A3E522F0EAEE
:10586400F50A7821E62AF58208E63BF583A38582CA
:10587400218583220256B4740212184DE4F0A3F079
:10588400F50A0256B4742F250EC3940550971237A7
:10589400BB750B008006E50BD2E1F50BA821A9220C
:1058A40088828983A385822185832288828983E0F3
:1058B400242F60E214601D14600814600B14600E41
:1058C4008018E50BD2E380D2E50BD2E480CCE50B63
:1058D400D2E580C6E50BD2E280C01237BB9002D37A
:1058E400E024FF125B80AA23AB249002D3C3E09A86
:1058F400A3E09B5003025AA1125B1BE50B125AFC56
:10590400125AABE8F0A3E9125AEFF50B74BF250B5A
:10591400C3941A4003025829A3858221858322E077
:10592400F8742068600E740A686009E8C3948050B3
:1059340003025829900310E0F82409FCE43400FD24
:10594400E49CFCE49DFD9002D3E02CFCA3E03DFD2F
:105954009002D3ECF0A3EDF09002D3C3E09AA3E05D
:105964009B5003025AA1900310E0FA9002D3E02A5C
:10597400F508A3E0126191A3A3A3A3A3E4F0A3F009
:10598400E5082407F516E5093400F517851682F5B0
:1059940083E4F0A3125AD7E50BF0A3E514F0A3E5D2
:1059A40015125AD0E4F0A3F0880EF50F780E121AEF
:1059B4006C7C007D0312619B12047174021218182E
:1059C400851082851183A3A3A3A3A3A3E508F0A351
:1059D400E509125AE47403125AFC850C82850D837E
:1059E400123181900310E0851082851183800712A3
:1059F4005B55E8F0A3E9F01203B185218285228387
:105A0400E0F50B74CB650B600974CC650B60030285
:105A1400556EA3858221858322E0648F600302583A
:105A240029A385822185832212040B12523060033C
:105A340002582974CB650B9002D560B3125B0085C4
:105A4400168285178380AB125BAF4051125B64886A
:105A5400828983A3A3A3E514F0A3E515F0740612C9
:105A6400184D125B3A125ACAE51424FEF582E51564
:105A7400125FBAEEF0A3EFF0750864750993780825
:105A8400121A6CEEFCEFFDAA14AB15120AA17402F3
:105A9400121818E9600302582979008005125B93F3
:105AA40079027408022D03E51024FEF582E5111233
:105AB4005FBA22EE24010EEF3400FF22123169A3F3
:105AC400A3A3229002D5EAF0A3EBF022125AD7A3A3
:105AD400A3A322F085088285098322125AE4A32213
:105AE400F0851082851183A3A3A322F085218285EA
:105AF4002283E022EAF0A3EBF09002D3125D572256
:105B0400125D579002D5229002D3E02403FAA3E059
:105B14003400FB229002FA125325229002F9125B00
:105B24002622125B2A22E0F8A3E0F583888222A3CE
