:020000040000FA
:200000000206B2C2AFF508614AFFFFC2AFF508615CFFFFC2AFF508616EFFFFC2AFF50861DC
:2000200080FFFFC2AFF5086192FFFFC2AFF50861A4FFFFC2AFF50861B6FFFFC2AFF5086120
:20004000C8FFFFC2AFF50861DAFFFFC2AFF50861ECFFFFC2AFF50861FEFFFFC2AFF50881C0
:2000600010FFFFC2AFF5088122FFFFC2AFF5088134FFFFC2AFF5088146FFFFC2AFF5088120
:2000800058FFFFC2AFF508816AFFFFC2AFF508817CFFFFFF758701002274F712057FE9FE44
:2000A000750A00750B08780A1206837C807D017A007B001204927402120640900186E0F54B
:2000C0000AA3E0F50B7409780A120694E50A2EF50A74016E7006744E250AF50A53B4F37514
:2000E000BC0075BC007CFC7D077A047B00EEF91202BC74012EFFC3950A501B74086F70029B
:200100007F567C007D087A007B00EFF91202BC0FEFC3950A40E5E5BDF9E5BCFAE9FB7F023C
:200120000205E574F612057F890CEAFEEBFF53BEFBE59DA2E650FAE5C654804449F5C6E560
:200140009E547F644970F853C67FE59EA2E740FA53C680E59E547F70FA43BE049062707407
:2001600008F01200998E828F83E0F8A3E0F9EA687002EB6970498E828F83A3A3E8F0A3E9C9
:20018000F08E828F8374FFF0A3F07409F5D575D480750A01750B00780A120683EEFCEFFD54
:2001A000850C0A7409780A120670FAAB0B1205197402120640C2AF75C9AB75C95B80FE7F7F
:2001C000030205E574FC12065A750A04750B00780A12068374021206CEAC82AD837A007B7F
:2001E0000079081204927402120640851A82E0F47003A3E0F4603C851A82851B83E0F8A3CE
:20020000E0F9E849602D74021206CEE0687003A3E0697010750901024030C2AF75C9AB7504
:20022000C95B80FE851A82851B83AA82AB837908120123780A12068374021206CEAC82AD73
:20024000837A007B0079011204927402120640851A82E0F47003A3E0F46051851A82851BE5
:2002600083E0F8A3E0F9E849604274021206CEE0F8A3E0F9851A82851B83E0687003A3E0A2
:20028000697010750900020830C2AF75C9AB75C95B80FE74FF68700374FF69700F851A8282
:2002A000851B83AA82AB83790112012343BE03120094C2AF75C9AB75C95B80FE74F7120574
:2002C0007FE9FEE5C7FF740F5EF50A750B00740B780A120670EA2400F8EB350BF9E82400EE
:2002E000E93480F9A2AFE433F50AC2AFEEC4540FFAE5C754F84AF5C7E9900980F0E8A3F016
:20030000A37470F0A374BDF0EC900985F0EDFC900984E054E04CF09009867420F0A3744256
:20032000F07409F5D575D48075D601000000000000000000000075D701E5D7A2E040FA8F1D
:20034000C7E50AA2E092AF02011EE5096007E508D2AF024033E508D2AF020833E5096007CB
:20036000E508D2AF02403BE508D2AF02083BE5096007E508D2AF024043E508D2AF020843DC
:20038000E5096007E508D2AF02404BE508D2AF02084BE5096007E508D2AF024053E508D233
:2003A000AF020853E5096007E508D2AF02405BE508D2AF02085BE5096007E508D2AF0240F9
:2003C00063E508D2AF020863E5096007E508D2AF02406BE508D2AF02086BE5096007E5084A
:2003E000D2AF024073E508D2AF020873E5096007E508D2AF02407BE508D2AF02087BE5097B
:200400006007E508D2AF024083E508D2AF020883E5096007E508D2AF02408BE508D2AF0247
:20042000088BE5096007E508D2AF024093E508D2AF020893E5096007E508D2AF02409BE501
:2004400008D2AF02089BE5096007E508D2AF0240A3E508D2AF0208A3E5096007E508D2AFE8
:200460000240ABE508D2AF0208ABE5096007E508D2AF0240B3E508D2AF0208B3E509600734
:20048000E508D2AF0240BBE508D2AF0208BB0002048E74F512057F890A740F550AF50C7540
:2004A0000D00740B780C120670EA2400F8EB3480F9E82400E9350DF9E5C7F50BA2AFE433C2
:2004C000F50CC2AFE50AC4540FFAE5C754F84AF5C7740B1206CEE0FEA3E0FFEE4F602CEE20
:2004E000FAEFFB88828983E08C828D83F088828983A3A882A9838C828D83A3AC82AD83EAFC
:2005000024FF1AEB34FFFBEA4B70D8850BC7E50CA2E092AF7F040205E574F712057FED9010
:200520000980F0ECA3F0A37462F0A37473F0A3E0541FF074091206CEE0F50AA3E0F50BE550
:200540000A333354FC900985F07406780A120694E50A900984F09009867412F0A37442F04B
:2005600053D1FE75D601EA906271F0EBA3F0906270E0D2E1F0E0A2E740FB7F020205E52537
:200580001AC582C0E0E51B34FFC583C0E0E51AC3958224F910AF0885831B85821A80088531
:2005A000831B85821AD2AFCEF0A3E520F0A3780AE608F0A3DEFAEFF0A3E58124FBF8E6083A
:2005C000F0A3E608F0A30808E608F0A3E608F0A315811581D0E0FED0E0F815811581E8C09F
:2005E000E0EEC0E022851B83851A82E0A3FEE0A3F520780AE0A3F608DFFAE0A3FFE0A3C06D
:20060000E0E0A3C0E0E0A3C0E0E0A3C0E010AF0885821A85831B800885821A85831BD2AF39
:20062000D083D08222251AF58210AF08F51A4002151B8008F51A4002151BD2AF851B832226
:20064000C0D0251A10AF08F51A5002051B8008F51A5002051BD2AFD0D022251A10AF08F53C
:200660001A4002151B8008F51A4002151BD2AF22700422600D18C6C333C608C633C6D5E029
:20068000F4182274028000C0E0F404120625D0E01206C122600C08C6C313C618C613C6D554
:2006A000E0F4221206DDB900030206AC1201C41206D875D00075813F751A80751B010206F6
:2006C000A3CAC0E0E6F0A308DAFAD0E0FA22251AF582E4351BF5832200000080FB79012251
:2006E000FFFFFFFFFFFFFFFFFFFFFFFFFFFFFFFFFFFFFFFFFFFFFFFFFFFFFFFFFFFFFFFF1A
:20070000FFFFFFFFFFFFFFFFFFFFFFFFFFFFFFFFFFFFFFFFFFFFFFFFFFFFFFFFFFFFFFFFF9
:20072000FFFFFFFFFFFFFFFFFFFFFFFFFFFFFFFFFFFFFFFFFFFFFFFFFFFFFFFFFFFFFFFFD9
:20074000FFFFFFFFFFFFFFFFFFFFFFFFFFFFFFFFFFFFFFFFFFFFFFFFFFFFFFFFFFFFFFFFB9
:20076000FFFFFFFFFFFFFFFFFFFFFFFFFFFFFFFFFFFFFFFFFFFFFFFFFFFFFFFFFFFFFFFF99
:20078000FFFFFFFFFFFFFFFFFFFFFFFFFFFFFFFFFFFFFFFFFFFFFFFFFFFFFFFFFFFFFFFF79
:2007A000FFFFFFFFFFFFFFFFFFFFFFFFFFFFFFFFFFFFFFFFFFFFFFFFFFFFFFFFFFFFFFFF59
:2007C000FFFFFFFFFFFFFFFFFFFFFFFFFFFFFFFFFFFFFFFFFFFFFFFFFFFFFFFFFFFFFFFF39
:2007E000FFFFFFFFFFFFFFFFFFFFFFFFFFFFFFFFFFFFFFFFFFFFFFFFFFFFFFFFFFFFFFFF19
:2008000019B6FFFF0000005C41414141FFFFFFFFFFFFFFFFFFFFFFFFFFFFFFFFFFFFFFFFBF
:20082000000102030405060708090A0BFFFFFFFF020AB60217E8FFFFFFFFFFFFFFFFFFFFC1
:20084000FFFFFFFFFFFFFFFFFFFFFFFFFFFFFFFFFFFFFFFFFFFFFFFFFFFFFF021262FFFF3F
:20086000FFFFFFFFFFFFFFFFFFFFFFFFFFFFFFFFFFFFFFFFFFFFFFFFFFFFFFFFFFFFFFFF98
:20088000FFFFFF02185EFFFFFFFFFFFFFFFFFFFFFFFFFFFFFFFFFFFFFFFFFFFFFFFFFFFFFD
:2008A000FFFFFFFFFFFFFFFFFFFFFFFFFFFFFFFFFFFFFF021697FF1C021ABF010000B7BF2F
:2008C00002CFBF0100003D08104EBE020000C50202CBBF030000C70202CDBF010000FABEBE
:2008E00002CFBF0100003D08105EBE020000C60202CBBF030000CD0202CDBF01000007BF79
:20090000FFFFFF0008010100030201060000000000000000000000000000000000000000C4
:200920000000000000000000FFFF0110002000E803FF0000B4000028002800283075A0002D
:20094000A000A000A00000080008E001F00010001000100010001000100050005000500086
:2009600010001000D0070000000000000F0001000500307507001000010081FF000000002E
:20098000FFA71FC51FAD1FFF02020208025000A0000000E803021ABF010000B4BF02CFBF19
:2009A0000100000E0902C9BF010000B10302CFBF0100000F0902C7BF010000C70302CFBF54
:2009C000010000100902C5BF010000C90302CFBF010000110902C3BF080000CA0302CFBF16
:2009E000010000120902C1BF0100001309FF0100FF20021ABF010000BABF02CFBF01000037
:200A0000770902BFBF000000000002CBBF0300001704712571257125712571257125712512
:200A2000712571257125712571257125112829280B28E5C754F84405F5C7790122000000DC
:200A400080FB120A32B90003020AA0E479217808B800028004F709D8FCE479297802B8009D
:200A6000028004F709D8FCE490028078BD79068002F0A3D8FCD9FA90083CAA82AB839008F0
:200A8000B6787D79028015E493A3AC82AD838A828B83F0A3AA82AB838C828D83D8E9D9E77D
:200AA0007582AA7583D17407120AC875823D75830A7400120AC875D00075813F751A8075E1
:200AC0001B02759F00020A42C09FF59FE473D09F22D083D082C09FE493C0E0740193C0E0F9
:200AE000740293F59F22E066701008A3E066700A08A3E066700408A3E06622E4936670132E
:200B00000874019366700C08740293667005087403936622C3E7960809E7960809E79608F9
:200B200009E79622C3E09608A3E09608A3E09608A3E09622C00AC3E096F50A08A3E09642EA
:200B40000A08A3E096420A08A3E096450A7001D3D00A22C3E49396087401939608740293E7
:200B600096087403939622080808EAC0E0EBC0E086F0E7A4FA180986F0E7A42AFA18098600
:200B8000F0E7A42AFA180986F0E7A42AFA1986F0E7A4FBE5F02AFA190886F0E7A42BFBE535
:200BA000F03AFA190886F0E7A42BFBE5F03AFA18180986F0E7A4C5F02BFBE43AFA1908E78B
:200BC000C5F0C6A426F6E5F03BFBE43AFA1886F0E7A4F6E5F00826F6E43B08F6E43A08F676
:200BE000D0E0FBD0E0FA226016080808C6C313C618C613C618C613C618C613C6D5E0EA22A8
:200C00007009080808226016181818C6C333C608C633C608C633C608C633C6D5E0EA22E6E5
:200C200027F60809E637F60809E637F60809E637F622E026F608A3E036F608A3E036F60897
:200C4000A3E036F622E026F008A3E036F008A3E036F008A3E036F022C3E697F60809E697D4
:200C6000F60809E697F60809E697F622C3E096F008A3E096F008A3E096F008A3E096F022D6
:200C8000E056F608A3E056F608A3E056F608A3E056F622E056F008A3E056F008A3E056F0B9
:200CA00008A3E056F022E0F608A3E0F608A3E0F608A3E0F622E6F008A3E6F008A3E6F008E6
:200CC000A3E6F022E0FAA3E0FBA3E0FCA3E0FD22EAF0A3EBF0A3ECF0A3EDF022CAC0E0E637
:200CE000F0A308DAFAD0E0FA22CAC0E0E0A3C582CCC582C583CDC583F0A3C582CCC582C563
:200D000083CDC583DAE6D0E0CA22C3E498F8E499F9120D4B8026C3E49AFAE49BFBE920E77D
:200D2000E9120D4BE498F8E499F922C3E498F8E499F9120D4BE498F8E499F9C3E49AFAE434
:200D40009BFB22EB20E7CFE920E7E0B90010BB0008E88AF084F8AAF022E4FBC8FA22EB7006
:200D6000227B10C833C8C933C9335007C39AC3DBF280069A50012ADBEAC833F4C8C933F4C0
:200D8000C9FA2275F008E4C833C8C933C933C99AC99B5004C92AC93BD5F0ECFBC833F4C8ED
:200DA000E4C9FA22600D08C6A2E713C618C613C6D5E0F322600C08C6C313C618C613C6D5EA
:200DC000E0F422700422600D18C6C333C608C633C6D5E0F41822251A10AF08F51A4002156A
:200DE0001B8008F51A4002151BD2AF22C0D0251A10AF08F51A5002051B8008F51A50020527
:200E00001BD2AFD0D022251AF58210AF08F51A4002151B8008F51A4002151BD2AF851B83C9
:200E200022251AF582E4351BF58322E473251AC582C0E0E51B34FFC583C0E0E51AC395829B
:200E400024F810AF0885831B85821A800885831B85821AD2AFCEF0A3E520F0A3780AE608B5
:200E6000F0A3DEFAEFF0A3E58124FAF8E608F0A3E608F0A3E608F0A30808E608F0A3E60807
:200E8000F0A315811581D0E0FED0E0F8158115811581E8C0E0EEC0E022251AC582C0E0E538
:200EA0001B34FFC583C0E0E51AC3958224F910AF0885831B85821A800885831B85821AD25D
:200EC000AFCEF0A3E520F0A3780AE608F0A3DEFAEFF0A3E58124FBF8E608F0A3E608F0A38E
:200EE0000808E608F0A3E608F0A315811581D0E0FED0E0F815811581E8C0E0EEC0E0228575
:200F00001B83851A82E0A3FEE0A3F520780AE0A3F608DFFAE0A3FFE0A3C0E0E0A3C0E0E075
:200F2000A3C0E0E0A3C0E0E0A3C0E010AF0885821A85831B800885821A85831BD2AFD0837D
:200F4000D082020ACE851B83851A82E0A3FEE0A3F520780AE0A3F608DFFAE0A3FFE0A3C067
:200F6000E0E0A3C0E0E0A3C0E0E0A3C0E010AF0885821A85831B800885821A85831BD2AFD0
:200F8000D083D08222C0D0251AC582C0E0E51B34FFC583C0E0E51AC3958224F310AF08857D
:200FA000831B85821A800885831B85821AD2AFC8F0A3E9F0A3EAF0A3EBF0A3790AE709F0F0
:200FC000A3D8FAECF0A3EDF0A3EEF0A3EFF0A3D0E0F0A3D0E0F0A3D0E0F0A3E520F0A3E554
:200FE000F0F0A322851B83851A82E0C0E0A3E0F9A3E0FAA3E0FBA3780AE0F608A3DFFAE0B2
:20100000FCA3E0FDA3E0FEA3E0FFA3E0C0E0A3E0C0E0A3E0F5D0A3E0F520A3E0A3F5F01010
:20102000AF0885831B85821A800885831B85821AD2AFD082D083D0E0F8D0E032740480063B
:20104000740280027401C0E0F404120E06D0E0120CDC227404800474028000CCC0E0EDC08E
:20106000E0E51AC39CCCAD1B50011D10AF068C1A8D1B80068C1A8D1BD2AF120CE9D0E0FD14
:20108000D0E0FC22D083D082E9C0E0E493A3C386F0C5F095F0F908E493A386F0C5F095F0FC
:2010A000700BE493A3C3994005E9048002A3E475F002A42582F582E5F03583F583D0E0F92D
:2010C000E493A3C0E0E493C0E022D083D082ECC0E0EDC0E0E493A3FCE493A3FDED4C600D8C
:2010E000121116EC24FFFCED34FFFD80EFE493A3FCE493A3FDED4C600D121155EC24FFFCCA
:20110000ED34FFFD80EFD0E0FDD0E0FCE493A3C0E0E493C0E022C0E0C3E493960874019377
:201120009618400FE49366700808740193661870007019A3A3C3E49396087401939618A35F
:20114000A3400DD0E0D0E0D0E0021106A3A3A3A3A3A3D0E022C0E0C0F088F0E493667008B5
:201160000874019366187000A8F0A3A3700BD0F0D0E0D0E0D0E0021106A3A3D0F0D0E02257
:20118000D083D082ECC0E0EDC0E0EEC0E0EFC0E0E493A3FCE493A3FDE493A3FEE493A3FF16
:2011A000EF4E4D4C60151211FCEC24FFFCED34FFFDEE34FFFEEF34FFFF80E5E493A3FCE4FE
:2011C00093A3FDE493A3FEE493A3FFEF4E4D4C6015121239EC24FFFCED34FFFDEE34FFFEBC
:2011E000EF34FFFF80E5D0E0FFD0E0FED0E0FDD0E0FCE493A3C0E0E493C0E022C0E0C0F070
:2012000088F0120B53A8F04007120AFBA8F0701AA3A3A3A3120B53A8F0A3A3A3A34013D08B
:20122000F0D0E0D0E0D0E00211E6A3A3A3A3A3A3A3A3A3A3D0F0D0E022C0E0C0F088F012EB
:201240000AFBA8F0A3A3A3A3700BD0F0D0E0D0E0D0E00211E6A3A3D0F0D0E022C2AF0200D6
:201260000022C0E0C0D0E8C0E0E9C0E0E5A8D2AFC2C7A2E7A2E792AFD0E0F9D0E0F8D0D030
:20128000D0E03274F5120E99EAFEEBFFEE2434F8EF3400F9880A890BEE24351213AFF8EEF7
:2012A00024371213AFF50CEC850CF0A4FCAAF0850CF0EDA42AFDE82CF8E43DF97A257B00DE
:2012C000120D4BEA850A82850B83F074075AF87401B800028004C333D8FCFBEA13131354EA
:2012E0001FF8EE28F8EF3400F9E8245DF582E91213B25B6003EA801CEE24361213AFF5F0C8
:20130000EA84A8F0EE28F8EF3400F9E82438F582E91213B2F97F04020F4574F5120E99EA44
:20132000FEEBFFEE24341213AFC0E0EE2435F582EF3400F583D0E0F08E828F83A3A3A3A364
:20134000A3E0FAA3E0FB8E828F83A3A3A3A3A3A3A3E0FCA3E0FDECC39AF50CED9BF50DEEDD
:20136000247FF50AEF3400F50B850A82F583E06401702BEE2480F582EF3400F58312105722
:201380001213B87402120DECE960137CDA7D05EEFAEFFB122499850A82850B83E4F0AC0C6A
:2013A000AD0DEEFAEFFB121283121BDF021315F582EF3400F583E022C082C083851A828585
:2013C0001B83E0F8A3E0F9C3EA9CEB9D5010C3EC98ED99401BC3EA98EB995014800EC3EA5A
:2013E00098EB994007C3EC98ED994004790180027900D083D08222EAC39CFAEB9DFB2274E1
:20140000ED120E999004A0E064086005E06407702C9061C8E060269004CEE0F874FF6860C6
:201420001CE875F003A4C8AAF02AF974D028FE740439FF8E828F83A3A3A3E0700579000222
:20144000159FEE2468F512EF3400F513906060E0851282851383F0750C43750D06750A000D
:20146000750B00E5D914F510E5D95403F511601CEE2482F50EEF3400F50F7403651160581B
:20148000E5106013EE24671213AF700B793DEEFAEFFB1224BD80A690063EE0640160268557
:2014A0000E82850F83E0600478048002780085100AE50AC398FA95E0FB1223498A0A8B0BD0
:2014C000EA450B700612270302143D850E82850F83E070048A0C8B0D78008016E5D9C0E0B3
:2014E0008814E50C2514F582E50D3400F583D0E0F008E8C3951040E4850E82850F83E06089
:201500002874FC2510F510780C121040AC10A911EEFAEFFB12256B7402120DECE9700AAA9B
:201520000AAB0B121D7302148C74036511605885100E750F00780E121040AC0CAD0DAA0ACD
:20154000AB0B12252F7402120DEC851282851383E0F87480687005750E7F8002880EE50E04
:20156000F50C780C121044E511F50C780C121044A910AC0AAD0B9004CEE0FA7B001221EDA1
:201580007402120DEC80139004A0E06408600BAC0CAD0DEEFAEFFB12260112270F79017F8E
:2015A0000C020F4574F3120E9974FC120DD6EAFEEBFF890AA2AFE433F50BC2AFEE2463F59C
:2015C0000CEF3400F50D8010AA0CAB0D1224E7121D739005E1E004F0850C82850D83E0F8D3
:2015E000A3E0F9E849602FE82402FAE93400FBEA2402F50EEB3400F50F780E1210408A8265
:201600008B83E0FCA3E0F9EEFAEFFB1224DB7402120DECE960B29005E1E060579005E2E0A1
:20162000F89005E1E0C398500C7402650A70449005E3E0603E8E828F83A3A3A3A3E0851AE9
:2016400082851B831216837402120E21E81216839005E0E028F07402120E21AC82AD8385E9
:201660001A82851B83AA82AB8379011221F39005E1E4F0E50BA2E092AF7404120DEC7F06AC
:20168000020F45F0A3E4F09005E1E0F822FFFFFF8521878522C622C0E074EF120F85A2AF6A
:2016A000E433FEC2AF759B00906182E0A2E05012E591A2E0500C7591FE7401652170031285
:2016C00013FFE0A2E55051E591A2E5504B7591DF9004A0E064076005E064087023740165D6
:2016E00021703579019004CEE0FA75F003A4CAA8F028FB74D02AFA74043BFB1215A4801864
:20170000E0640D70139004C2E004F064287002E4F07A00E0F9122715906182E0A2E640033A
:201720000217BEE591A2E640030217BE7591BF9004A0E06405700812264312264F80031269
:2017400026497521001226B5E99004A1F079001226A91224097A017B0090049FE0F9121CC0
:201760005F907803E064427055900642E014F0704DC2AF12177600782AD0E0F618D0E0F625
:20178000E59F54077005750BFF8003750B7FC4C0E07829E6F50A08E6550BF50B740B780ABB
:2017A000120DB4D0E0250AF8906270E0A2E740F8E8C333906272F0906270E0D2E0F0906175
:2017C00081E0A2E35009E5E9A2E3500375E9F7A3E0A2E75009E591A2E7500375917FEEA203
:2017E000E092AF7F04020FE4C0E0C0D0C082C083906183E0A2E05009E5BFA2E0500375BFBF
:20180000FEE0A2E15009E5BFA2E1500375BFFDE0A2E25009E5BFA2E2500375BFFBE0A2E397
:201820005009E5BFA2E3500375BFF7E0A2E45009E5BFA2E4500375BFEFE0A2E55009E5BFE5
:20184000A2E5500375BFDFE0A2E65009E5BFA2E6500375BFBFD083D082D0D0D0E032C0E0A1
:2018600074F2120F85E5A7A2E4500FE5A1A2E4500953A7EF75A1EF1218B2E5A7A2E5500C4D
:20188000E5A1A2E5500653A7DF75A1DFE5A7A2E15009E5A1A2E1500375A1FDE5A7A2E250E0
:2018A0000CE5A1A2E2500653A7FB75A1FB7F01020FE474F8120E997521019004A0E0640607
:2018C00070077A007B0012262BA2AFE433FED2AF9004A6E0640170187A207B0090049FE023
:2018E000F9121CD17A207B0090049FE0F9121C65906182E0D2E6F090063FE0602185C6229E
:2019000080169004A5E064017008E5C654F84405F5C653BEFC1216907401652160E4EEA2AC
:20192000E092AF7F01020F458E238F24858228858327851A82851B83E0CEA3E0CF8528827B
:20194000852783EBC9EAC8EDCBECCA75F010C3E833C8E933C9EA33CAEB33CBC3EA9EF5264E
:20196000EB9FF525B35004AB25AA26EC33CCED33CDD5F0DAAE23AF242274F1120E998A0A2D
:201980008B0B8C0C8D0D90BFA8780A120C80740F120E21780E120CA690BFA8780E120C803F
:2019A000780A790E120B1490BF905010780A790E120C58780A120B344014800E780E790A71
:2019C000120C58780E120B3450047901800279007F08020F4574ED120E998A0A8B0B8C0C38
:2019E0008D0D90BFA8780A120C807413120E21780E120CA690BFA8780E120C80780E790A00
:201A0000120B144011780A790E120C58AA0AAB0BAC0CAD0D8022751200751300751400753A
:201A200015017812790E120C587812790A120C1FAA12AB13AC14AD157F0C020F4590BFA8EB
:201A4000780A120CA68A828B83780A120C937F04020F4574F5120E998C828D83780A120C3A
:201A6000A68A828B83780A120C6C121AA7C3E098F0A3E099121A99401E90BF48780A120C26
:201A8000A68A828B83780A120C458E828F83E02420F0A3E0344EF080A4F08E828F83C3E09D
:201AA0009420A3E0944E22EA2404F8EB3400F9E8FEE9FF8C828D83A3A3A3A3E0F8A3E0F9FD
:201AC0008E828F832274F5120E99E9FE9005F5E0FAA3E0FBEEC333F8E433F974CA28F5820E
:201AE00074BE39F583E02AF50AA3E03BF50B780A12104090BF88120CC41219287402120DB7
:201B0000EC8A0A8B0B8C0C8D0D7410780A120BE7AA0AAB0B7F04020F4574F1120E998A0E7A
:201B20008B0F8C108D11740F120E21E0FAA3E0FB7411120E21E0F50AA3E0F50B780A1210E9
:201B400040EA2401F50AEB3400F50BE4F50CF50D780E790A120B6790BF94780A120CA67803
:201B60000E790A120B67AA0EAB0FAC10AD111219287402120DEC8B0BEA450B60047A018061
:201B8000027A00EC2AFCED3400FD7413120E21E0F8A3E0F9E8FEE9FFECF8EDF97A717B027D
:201BA000120D4B880A890BE4F50CF50D8E828F83780A120CB5ECF8EDF97A717B02120D4B9B
:201BC0008A0A8B0B7405780A120DC38E828F83A3A3A3A3E50AF0A3E50BF07F08020F45C051
:201BE00082C083E9906000F0D083D08222120AD196D007120AD10AD107120AD1FAD1071296
:201C00000AD1FFD107120AD1C29F07120AD1CC9F07120AD10AA007120AD153A007120AD1EC
:201C20008DA007120AD1E7A007120AD108A107120AD111A107120AD15EA107120AD187A1AA
:201C400007120AD191A107120AD1FDA107120AD18FA207120AD1D9A207120AD10FA3071279
:201C60000AD19BA307120AD1DCA307120AD113A407120AD125A407120AD141A407120AD1A3
:201C80004AA407120AD112A507120AD102D207120AD1CFCE07120AD177C407120AD1ADC4BE
:201CA00007120AD1E3C407120AD12EC607120AD16AAE07120AD17FAE07120AD132AF071286
:201CC0000AD172AF07120AD18BAF07120AD1C6AF07120AD113B007120AD145B007120AD1DD
:201CE00087B007120AD1AFD207120AD1C1D207120AD159D207120AD140D307120AD14BD379
:201D000007120AD157D307120AD14AD107120AD15AD107120AD163D107120AD1A7D10712CA
:201D20000AD1CBCD07120AD150CE07120AD1B6CE07120AD1059907120AD1429907120AD151
:201D40005D9907120AD12E9A07120AD11C9B07120AD1849C07120AD1F69C07120AD1DE9D1D
:201D600007120AD1659E07120AD17E9F07120AD1B5C907120AD107CA07120AD191CA0712BC
:201D80000AD1F8CA07120AD132C207120AD15CC207120AD12AC307120AD105C407120AD11A
:201DA000BEB506120AD16AB906120AD1C4B906120AD1E3B906120AD140BA06120AD1ACBB54
:201DC00006120AD198BC06120AD1C1C006120AD191C106120AD168C607120AD17FC6071290
:201DE0000AD1B0C607120AD1EBC607120AD115C707120AD13FC707120AD156C707120AD11E
:201E00006DC707120AD184C707120AD1ADC707120AD1C0C707120AD1D6C707120AD1E9C737
:201E200007120AD1ABE406120AD1AFE506120AD1E7E506120AD10AE606120AD115E60612F0
:201E40000AD138E606120AD147E706120AD11CE806120AD197E806120AD11FE906120AD111
:201E60005AE906120AD191E906120AD11FEA06120AD1F8EA06120AD158EB06120AD163EB6A
:201E800006120AD1E2EB06120AD1E5EB06120AD1E8EB06120AD177EC06120AD17AEC061232
:201EA0000AD1AAEC06120AD1D4EC06120AD1C2ED06120AD174EE06120AD140A507120AD13B
:201EC00068A507120AD196A507120AD1CDA507120AD12BA607120AD176A607120AD1C1A630
:201EE00007120AD101A707120AD147A707120AD175A707120AD132A807120AD13CA8071295
:201F00000AD149A807120AD17CA807120AD148A907120AD154A907120AD16CA907120AD10A
:201F200076A907120AD1CDCF07120AD1E5CF07120AD1FDCF07120AD14DC206120AD129C3A8
:201F400006120AD18DC406120AD1E4C406120AD165C506120AD155C606120AD1A2C6061204
:201F60000AD128C706120AD15AC706120AD16EC906120AD1B0C906120AD1CEC906120AD170
:201F800051CA06120AD125CB06120AD1EDCB06120AD1E29107120AD1B59207120AD15E9312
:201FA00007120AD1B19307120AD1619407120AD1ED9407120AD1D99507120AD1089607127E
:201FC0000AD11B9707120AD1639707120AD1389807120AD1749807120AD1909807120AD1B2
:201FE000773C00120AD19D3C00120AD1B93D00120AD1C33D00120AD1F83E00120AD1F03F59
:2020000000120AD192B207120AD1BEB207120AD185B407120AD1008006120AD16A80061295
:202020000AD1C98106120AD1D98106120AD1068206120AD1628206120AD1698306120AD10A
:20204000338406120AD1938506120AD1DC8506120AD1298606120AD14F8606120AD15D8828
:2020600006120AD1628806120AD1678A06120AD1B48A06120AD1278B06120AD15A8B0612D9
:202080000AD1FC8B06120AD1A58C06120AD1DD8C06120AD1E08C06120AD1288D06120AD164
:2020A000688D06120AD1AABF07120AD1C2BF07120AD10AC007120AD120C007120AD167C0AD
:2020C00007120AD17BC107120AD108C207120AD1D6BF05120AD111C005120AD156C00512A7
:2020E0000AD116C105120AD19CC105120AD101C205120AD12DC205120AD166C205120AD13D
:20210000A4C405120AD188C605120AD16EC805120AD1B1C905120AD1FFCB05120AD111CDF7
:2021200005120AD15CCE05120AD16CCF05120AD189CF05120AD1C4CF05120AD1E6CF0512C9
:202140000AD149D005120AD10AD505120AD19FD505120AD1F1D505120AD10FD605120AD1D3
:2021600069D605120AD168D705120AD1ECD705120AD1F3FA05120AD1FDFA05120AD140FB45
:2021800005120AD15BFB05120AD1EBFB05120AD113FC05120AD150FC05120AD187FC051254
:2021A0000AD1B0FC05120AD125FD05120AD13AFD05120AD14FFD05120AD190FD05120AD1AC
:2021C000CAFD05120AD1F6FD05120AD124FE05120AD16FFE05120AD119FF05120AD162FF83
:2021E00005120AD18CFF05120AD1B7FF05120AD1B2CC07120AD119A906120AD167AA061278
:202200000AD147AB06120AD166AB06120AD1E3AB06120AD126AC06120AD17CAD06120AD198
:202220003DAE06120AD1C4B006120AD165B106120AD15BB206120AD158B306120AD1B2B4EC
:2022400006120AD13DB506120AD157CB07120AD1C0CB07120AD114CC07120AD13BCC07121D
:202260000AD16CCC07120AD1FDA907120AD16AAA07120AD1B1AA07120AD1C9AB07120AD1FE
:20228000C5AC07120AD1A8AD07120AD1798907120AD1BB8907120AD18D8A07120AD1668B66
:2022A00007120AD1608C07120AD1428D07120AD1AB8D07120AD1618E07120AD1D58E0712FC
:2022C0000AD1418F07120AD16A8F07120AD1E48F07120AD17D9007120AD1E29007120AD1A4
:2022E000F79007120AD13D9107120AD1569107120AD1BB9107120AD1BE9107120AD1D7BCB0
:2023000007120AD1FFBC07120AD13DBD07120AD1FBBD07120AD162BE07120AD17EBE071217
:202320000AD1A6BE07120AD1D6BE07120AD1E5BE07120AD162BF07120AD1E0E905120AD17B
:202340007EEB05120AD199ED05120AD1D5ED05120AD102EE05120AD1E7EE05120AD12EEF30
:2023600005120AD172EF05120AD19FEF05120AD1EAEF05120AD12AF005120AD158F0051262
:202380000AD1AAF005120AD13AF105120AD1D8F305120AD1EEF505120AD12CF605120AD113
:2023A000BDF705120AD102F805120AD179F805120AD1C3F805120AD1E4F805120AD188F92C
:2023C00005120AD1008007120AD17F8007120AD1418607120AD1508707120AD1B8880712C5
:2023E0000AD14F8907120AD1EC2800120AD1352900120AD1622900120AD1952900120AD1C7
:20240000A22900120AD1AE2900120AD1C02900120AD1A72A00120AD1052B00120AD13A2B2A
:2024200000120AD17D2C00120AD1D42C00120AD1412D00120AD1FF2D00120AD1B82E0012C0
:202440000AD1252F00120AD1D72F00120AD1E72F00120AD16E3000120AD12D3100120AD194
:202460005A3100120AD1D33100120AD1303200120AD17A3200120AD1103300120AD1DB33CD
:2024800000120AD1903400120AD1053500120AD1663500120AD1D03500120AD109360012AC
:2024A0000AD1AB3600120AD1BB3700120AD1FB3700120AD1183800120AD1373800120AD1DC
:2024C0007E3800120AD1A33800120AD1D03800120AD14A3900120AD18B3900120AD1AF3A92
:2024E00000120AD15F3B00120AD1B63B00120AD1203C00120AD1393C00120AD1E5EE0612F4
:202500000AD138EF06120AD144EF06120AD119F006120AD140F006120AD17BF006120AD123
:20252000E7F006120AD123F106120AD15CF106120AD174F106120AD1C9F106120AD1E2F1B2
:2025400006120AD12BF206120AD13EF206120AD158F206120AD16EF206120AD1A1F3061219
:202560000AD1E8F406120AD1EAF506120AD1E4F606120AD1FA3F00120AD1DD9B06120AD181
:202580000D9C06120AD1D59F06120AD12CA106120AD1F5A106120AD175A306120AD146A4FA
:2025A00006120AD183A406120AD1A6A406120AD1E4A406120AD1EDA406120AD137A50612DE
:2025C0000AD141A506120AD1EBA506120AD1C4A606120AD118A706120AD17AA706120AD1A1
:2025E000CDA706120AD1FCA706120AD139A806120AD153D805120AD1BADB05120AD1C0DBCB
:2026000005120AD142E105120AD1BBE505120AD191E905120AD138B607120AD1AEB6071256
:202620000AD1C4B607120AD105B707120AD13FB707120AD1B8B707120AD1F3B707120AD1B6
:2026400066B807120AD1A4B807120AD1ADB807120AD1B9B807120AD1D5B807120AD100B920
:2026600007120AD116B907120AD15AB907120AD18AB907120AD19DB907120AD1B7B9071292
:202680000AD1E0B907120AD123BA07120AD162BA07120AD1A0BA07120AD105BB07120AD1EF
:2026A0001ABB07120AD125BB07120AD132BB07120AD149BB07120AD157BB07120AD162BB81
:2026C00007120AD16EBB07120AD181BB07120AD18CBB07120AD1A9BB07120AD1B9BB071299
:2026E0000AD1CFBB07120AD1EBBB07120AD1F6BB07120AD10BBC07120AD11FBC07120AD1B8
:2027000080BC07120AD186BC07120AD18CBC07120AD192BC07120AD1A4BC07120AD15A8E99
:2027200006120AD1E68E06120AD1459006120AD1669206120AD1529306120AD18793061282
:202740000AD1A99306120AD1589406120AD1509606120AD1799606120AD10B9706120AD120
:202760003D9706120AD14A9706120AD1A19706120AD1C79706120AD1349A06120AD1379BAF
:2027800006120AD18F9B06120AD12FCE06120AD139CE06120AD15BCE06120AD167CE0612D6
:2027A0000AD100D006120AD12FD006120AD14BD106120AD1A4D106120AD118D306120AD134
:2027C00085D306120AD1C0D306120AD1FFD306120AD1B8D606120AD1D2D606120AD15ED712
:2027E00006120AD16CD706120AD1C5D706120AD1D3D706120AD146D806120AD1AAD80612D9
:202800000AD1F4D806120AD17DD906120AD19FD906120AD1C5DB06120AD1DADE06120AD12C
:20282000F2DF06120AD1A5E006120AD187E106120AD110C807120AD135C807120AD1A7C8D5
:2028400007120AD1AFF806120AD1B8F806120AD1C1F806120AD198F906120AD149FB0612BB
:202860000AD17FFB06120AD1B9FB06120AD1EFFB06120AD129FC06120AD15DFC06120AD128
:2028800089FC06120AD1D2FC06120AD10CFD06120AD155FD06120AD1ADFD06120AD1E2FD42
:2028A00006120AD13DFE06120AD177FE06120AD1C8FE06120AD1FEFE06120AD138FF061298
:2028C0000AD15BFF06120AD11CD307120AD126D307120AD136D307120AD1F0D207120AD14D
:2028E000DFFF05FFFFFFFFFFFFFFFFFFC082C0839061907404F0A37448F0A3E4F090618059
:202900007440F09061BC7407F09061877469F09061B67416F0790012240F79021224159081
:2029200028E8E493F46006E493F91223EB79051226F7022CCDC082C083E9540FF99061853E
:20294000E0696012E5C654804449F5C6E59E547F644970F8E9F053C680E59E547F70FA0256
:202960002CCD74F7120E2DE5A8FE53A87E1223F7C2BA539AFEC289759B00C2C21223FD7589
:20298000A91175B905122403D2BA439A0174805E42A8023264C082C083906181E4F0A30263
:2029A0002CCA75E90075910075BF00020ACEC082C083906181E4F0A374C0F0A3E4022CCC9C
:2029C000C082C08374F8120DD69004A2123BFD7003022A9F9004A2E0544060237908851A06
:2029E00082851B83AA82AB83122505851A82851B83AA82AB831221D59004A2E054BFF0E0FD
:202A000054806010790C7A637B061225059004A2E0547FF0E0A2E0500F790012240F1221C8
:202A2000DB9004A2E054FEF0E05402600F790112240F1221DB9004A2E054FDF0E054046002
:202A40000F79001224151221E19004A2E054FBF0E05408600F79011224151221E19004A280
:202A6000E054F7F0E05410600F79021224151221E19004A2E054EFF0E05420600F79031214
:202A800024151221E19004A2E054DFF0A3E05401600D1224211221E79004A3E054FEF0742D
:202AA00008120DEC022CCDC082C083E9600514602A804F90619A7433F0A37455F09061A0B9
:202AC000743AF090063DE064017009C2919004A47467802D9004A47461802690619A743FC3
:202AE000F0A3745AF09061A0747FF090063DE064017009D2919004A4747180059004A474CF
:202B00006AF0022CCDC082C083E9600B14600D14601714600C80209028E480159028E5800D
:202B20001090063DE0640170059028E680039028E7E493906186F0022CCD74EE120E2D743C
:202B4000F4120DD6851A82851B83AC82AD837583BF75829C7404120CE99028E493F460039B
:202B6000022C64907808E0C394025003022C447404120E21AC82AD837583BF758222740852
:202B8000120CE9FC7EFF7FFF8E0E7D008C82858210800F74086D606D74096D6068740A6D17
:202BA00060638D0A750B007402780A120DC3122C6E120CA6A90BE50CC9F888127418780AE3
:202BC000120BE7E512450AFAE9FBE510C333F8E433F97404120E21E58228F582E583391268
:202BE0003154C3E89AE99B4008E8C39AF8E99B8006EAC398F8EB99F9C3E89EE99F5006E82F
:202C0000FEE9FF8D0E0DEDC39413408774FF6E700374FF6F6024850E0A7402780A120DC3D7
:202C2000122C6E120CA6851A82851B83E5822510F582E5831235F3E50AF00CECC3940450A9
:202C400003022B84750A01750B00780A1210407402120E21AC82AD837A397B0A121D2574C7
:202C600002120DEC740C120DEC7F0A020EFF7448250AF5827478350BF583780A22C082C078
:202C800083906186E0F89028E7E4936870099028E6E493906186F09061AE7468F0A3746A03
:202CA000F090624574FBF0A304F053F4FD43FE0290063D7401F09061A0E0643A700479003C
:202CC0008002790112240F022CCDF0A3F0D083D082020ACEC082C08375E1F19005F2E06023
:202CE0004D14600914605114604914705012242D9005E8E0F97AE97B0512268B90BF741280
:202D00000CC41226C190BFA4120CC41226979005F3E0F91226A379011226EB122DF0241604
:202D20001235F07445F0A37424F07900809F12243380BD12243980B812243F80B3791280F0
:202D4000EB74F4120E2D75D90D9005D3E0A2E0E4331313F8122DE6484401F5D97800122E41
:202D60005340FB7800880A74D4123B537405122E5D40F275E1959005D3E0F97AD47B05127F
:202D8000269190099874C1F0A37423122E63122EA7122E9E122FBB9005F2E064019005E641
:202DA000700B122DF9120CA690BF448009122DF9120CA690BF60780A120C3290BFA8780A8A
:202DC000120C80122DF0240E1235F0780A120CB5122DF024141235F07413F09004A07402A9
:202DE000F07F04020EFF9005E8E0C4333354C0229005E6E0F8A3E0C822123A8B780A2274E5
:202E0000F6120E2D122F8C8AD97800122E5340FB78008006122F04123041E8C39940F512A8
:202E20002F7E122E5340FB78008008123B4F7406123041E8C39940F375E19590099874CDAA
:202E4000F0A37423122E63122E6D7412F09004A0023228880A74E9250AF58274051231BEE3
:202E6000940622122FA474C7F0A3742322122EA7122E9E122FBF9005E6E0F8A3E0C8240E95
:202E8000122E9674FF1238C89005E6E0F8A3E0C82414122E9622F582E83400F58322F0A349
:202EA00074DFF0A3742322122EAB22122EAF22F0A37471F0A374252274F6120E2D122EF99F
:202EC000122DE64402F5D97800122E5340FB78008006122F04123041E8C39940F575E19549
:202EE000900998122F0FF0A3122F0F122E707414F09004A0740402322A9005F8E0F974075B
:202F000029F5D922880A74F9250AF58274052274D9122F1C122F1CF0A3742322F0A37423DB
:202F2000F0A374D92274F6120E2D122F8C74064AF5D97800122E5340FB78008006122F04F0
:202F4000123041E8C39940F5122F7E122E5340FB78008008123B4F7406123041E8C39940CB
:202F6000F375E19590099874D3F0A37423122F9A122E6D7415F09004A0740302322A900631
:202F800018122EFC74044AF5D9780022122EF99005E8E0C4333354C0FA22122FA47471F009
:202FA000A3742522122FA822122FB57471F0A37425122FB522122EAFF0A322122FBF22F0D3
:202FC0009009A67471F0A37425122FA87471F0A37425122EABF022C082C083122DF02406CC
:202FE0001235F0E4022CCA74F7120E2D9004CEE0F875F003A4C8AAF02AF974D028F874045F
:2030000039F9E82405FAE9123A9EA3A3A3A3A3A3A3A3A3123B9FA3A3A3A3A3A3A3E024FF81
:20302000F8A3E034FFF98A828B83E8F0A3E9F00232647F06020EFF880A7443250AF58274EC
:20304000061235CAF5D90822EAFEEBFF9061D0E0F87480C398FAEE2482221230609404229B
:20306000F582E93400F583E0F5D90AEAC32274F6120E2DEAFEEBFF9061D0E06003023102FB
:2030800075D90E75D90375D9047A008A0AEE250A123B58248B12310740F17A008A0AEE2516
:2030A0000A123B58248312305A40F175E1957908EE248BFAEF3400FB1224F97904EE24838B
:2030C000FAEF3400FB1224F97C008C82AA82C3E49AF895E0F9EE28F8EF39F9E8248AF58210
:2030E000E91235C6C0E0EE2A123B5824AAF582E91235F3D0E0F00CECC3940840CD123110BE
:203100008002790002322B12306094082275E195EE246FF582EF122E99123C1AEE2471F56A
:2031200082EF122E99E8F0A3E9F0790122C082C08375D90275D90375D90575E195EA246F74
:20314000F582EB123152EA2471F582EB123122022CCD3400F583123C1A2274F6120E2DEA60
:20316000FEEBFF90064374061231C91210407C0179031225657402120DEC75D90675D903EB
:2031800078001231AE40FB75E1959004A0E064087017EE246FF582EF123152EE2471F58223
:2031A000EF1235F3E8F0A3E9F0790102322B880A7443250AF58274061231BE940522340060
:2031C000F583E0F5D908E8C322F0750A43750B06780A2274F6120E2DEAFEEBFF9061D0E0EE
:2031E00070427901900643740BF09004A0E064077019750A43750B06780A1210407C0109A1
:20320000091225657402120DEC7905740129F5D975D90378008003123037E8C39940F8124B
:20322000310D8002790080037401F07F02020EFF74F7120E2DEAFEEBFF75D90375D903753C
:20324000D90DEE24DD12325575E19579041226C7123110800FF582EF1235CAF5D922A2E0CE
:2032600092AF79007F01020EFF7F03020EFF7401250CF5D975D90378002274F5120E2D124D
:2032800032FA6004780480027800E8240BF8EAC3984055750C099006437409F079081232AA
:2032A000ED1224F3850A82850B83E0601E750A43750B06780A1210407C097903EEFAEFFB77
:2032C0001225657402120DEC750C0D12326E8003123037E8C3950C40F775E1957904122672
:2032E000C712346D790180027900023269EE24E2FCEF3400FD7A447B0622123048F8EF124E
:203300003303223400F9880A890B8882F583E02274F3120E2D8A0A8B0B123479FAE50A24D4
:2033200082F50CEB1233D06004780480027800E82408F8EAC39850030233C9750E0690066F
:2033400043740CF09004BDE0900644F07402C0E0F97CBE7D047A457B061224F3D0E0F97C67
:20336000C07D041224F3850C82850D83E0601E750C43750D06780C1210407C067903AA0A79
:20338000AB0B1225657402120DEC750E0A7401250EF5D975D90378008009880C7443250C89
:2033A00012303DE8C3950E40F175E19579041226C7E50A246FF582E50B123152E50A2471A6
:2033C000F582E50B123122800279007F05020EFF3400F50D850C82F583E02274F6120E2D19
:2033E000EAFEEBFF123479FCEE2482F8EF1234FC60047A0480027A00EA2404FAECC39A4010
:20340000607A02900643EAF0EE24F4F582EF123483601B750A43750B06780A1210407C02C3
:203420007903EEFA1225657402120DEC7A0674012AF5D975D90378008003123037E8C39A14
:2034400040F875E195EE2473123466EE247F12346612346D79041226C7EE240D12311380B7
:2034600002790002322BF582EF12360222EE241DF582EF123602A3F0229061D0E0F874807F
:20348000C398221235CA900644F088828983E02274F6120E2D123479FEEA2482F8EB12348F
:2034A000FC60047C0480027C00EC2404FCEEC39C40457C029006437407F0EA24F5F582EB25
:2034C0001234836017750A43750B06780A12104079031225657402120DEC7C0674012CF5CF
:2034E000D975D90378008003123037E8C39C40F875E19579018002790002322B3400F9883B
:20350000828983E02274F5120E2DE9FEA2AFE433F50CC2AF7F00EA246EF8EB3400F9800118
:203520000F88828983E0F50AEFC3950A50188F0AEA250AFCEB3400FDEC246AF582ED1235DF
:20354000C66E70DC8017EA250AFAEB3400FBEA246AF582EB1235F3EE12348904F0E50CA2CF
:20356000E092AF02326974F6120E2DA2AFE433FFC2AFEA246EF8EB123930E014F07E008042
:20358000218E0AEA250AF8EB123B5A246BF582E91235C6C0E0E8246AF582E91235F3D0E073
:2035A000F00E8C828D83E0F8EEC39840D4EA246DF582EB1235F374FF1235F7EFA2E092AF40
:2035C00002322BF582EB1235CA223400F583E022C082C083E5A8F8C2AFEA246AF582EB12E2
:2035E00035F3E91235F7E8A2E7A2E792AF022CCDF582E8122E9922F0EA2469F582EB1236DB
:2036000002223400F583E4F02274F2120E2D8C828D83A3A3A3A3E0541FF0EA24361239268F
:203620008E828F83E4F0F50E850E8285820CEC250CF8ED123303C0E0EA250CF8EB12369E9B
:20364000D0E0F0750F00850A82850B83E0F50C750D00E50F780C120DA4E50CA2E0502AE5B2
:203660000E33333354F8250FC0E08E828F83E0F8EA28F8EB123B5A2438F582E91235F3D027
:20368000E0F08E828F83E004F0050FE50FC3940840B4050EE50EC39405408D023032340042
:2036A000F9E8245DF582E9122E992274F6120E2D9004CCE0640170030237AC7A009004D2B9
:2036C000E060030237AC7401F0A3E4F0A3F090053204F0900537F09004D51238C39004DFF3
:2036E00004F0900505E4F09004E81238C4A3F0A3F0A3F090054FF0900543F09005387480C8
:20370000F0A3E4F090053EF09005BA1237B39005C3F0900552F09005A21237B3A3F0A3F0BC
:203720009005AEF09005B0F09005ACF09005C61237B38A0A743A123B5374051235F374FF91
:20374000F00AEAC3940440EA7A008A82A88274DA28F58274051235C6C0E0742D28F5827489
:20376000051235F3D0E0F00AEAC3940540DC7A008A82A88274B428F58274041235C6C0E062
:2037800074B228F58274051235F3D0E0F00AEAC3940840DC9004CCE004F0640170089004FD
:2037A000D4E09004CEF07AD07B0480047A007B0002322B1238C8A31238C822C082C083EA0A
:2037C00024031235C36008E4F09004CDE014F09004CCE014F070069004CE74FFF08A828B21
:2037E00083A3A3E4F09005DFE0700D9004CDE06401700579001226A9022CCDC082C08390D6
:2038000004D3E4F09004D2F09004CCF0A3F0A374FFF075E1F1022CCDC082C0837800790006
:203820009004D3E0600478D0790488828983A3A3A3A3E0F9022CCD74F6120E2DEAFEEBFF19
:20384000EE2463F50AEF3400F50B8016AA0AAB0B1224E7121D739005E0E004F09005E1E073
:2038600004F0850A82850B83123BFD70DFEEFAEFFB1224A5EEFAEFFB12259B02322B74F77C
:20388000120E2DEAFEEBFF8E828F83A3A3A3A3E0FA7B00122223EEFAEFFB1224B712257D3C
:2038A00002326474F6120E2D7800880A74B4123B53740412346908E8C3940840ED9004B4FC
:2038C000023228E41238C822F0A3F0A3F0A3F02274F6120E2DEA240D123926EC2403F8ED6E
:2038E0003400F9880A890BEC2407F8ED123930123156850A82850B83E0FAA3E0FB120D4B7F
:203900008E828F83E8F0A3E9123C11850A82850B83E0FAA3E0FB120D4B8B0BEA450B6003A9
:2039200012393C02322BF8EB3400F9E8FEE9FF223400F9E8FCE9FD8C828D83228E828F8348
:20394000E02401F0A3E03400F02274F6120E2DEA242E1235C3FCA3E0FDEA246F12392678CA
:203960000079FAECFAEDFB120D4B8E828F83E8F0A3E9F0780079FAECFAEDFB120D4B8B0B6D
:20398000EA450B600312393C02322B74F0120E2DEAFEEBFF7410120E21780A120CA61226DE
:2039A0005B8A0E8B0F8C108D1190BF40780E120C3290BFA8780E120C80780E12103C8E82CC
:2039C0008F83123A87120CC41219797404120DECE96003023A778E828F83E02402F8A3E057
:2039E000123B5AFAE9FB8A828B83780A120C4590BFA8780A120CA68A828B83780A120C93B9
:203A0000EE240BF582EF1235F3C082C0838E828F83A3A3A3A3A3E02401F8A3E03400F9D096
:203A200083D082E0687003A3E069700479018049EE2407F8EF3400F988828983123940EE97
:203A40002473123A7E7014EE2474123A967003A3E06D70078A828B83123940EE247F123ABD
:203A60007E7014EE2480123A967003A3E06D70078A828B8312394079007F08020EFFF582CB
:203A8000EF1235CA640122123A8B22E0F8A3E0F5838882A3A322FAEF123A9EE06C223400EC
:203AA000FB8A828B83E0FCA3E0FD888289832274F3120E2DE9FEECFFEA2462F582EB123AB9
:203AC000816003023B4A9061D0E0F50AEA24821235C3F50E60047804800278007480C39518
:203AE0000AFC95E0FDEF28F8E4123B5A2402F8E93400F9EC98ED99A2D265D0334048740D91
:203B0000120E21E0F50CA3E0F50DE50E6015780C121040EFFCEEF91225657402120DEC744D
:203B2000042FFF74012FF5D98ED97800800C880AE50C123B53E50D123041E8C39F40EF75F0
:203B4000E195790080067907800279FF0233CB880A7419250AF58222F8EF3400F9E82274FD
:203B6000F7120E2DA2AFE433F50AC2AFEA2402F8EB3400F98A828B83E0FEA3E0FFEE4F60F2
:203B80000E88828983E0FAA3E0F5838A8280048A828B83123B9F123BA9F0E50A02325EEC43
:203BA000F0A3EDF08882898322ECF0A3EDF08C828D83E4F0A32274F7120E2DEAFCEBFD7A4A
:203BC000007B00A2AFE433FEC2AF8C828D83123BFD6022E8FAE9FB8A828B83123156123CE2
:203BE00003E4F0A3123C11E849700A8C828D83A3A3E4F0A3F0EEA2E092AF023264123C1AC5
:203C0000E849228C828D83E8F0A3E9F08A828B8322F08C828D83123C1A22E0F8A3E0F92295
:203C2000C082C0838003123C4EE9F874FF28190470F4ECFAEDFB022CCDC082C08380031200
:203C40003C4EE9F874FF28190470F4022CCD8C828D83E08A828B83F08C828D83A3AC82AD3E
:203C6000838A828B83A3AA82AB8322EAF0A3EBF0D083D082020ACE74F7120E2DE99003AAD3
:203C8000F01222FB9003AAE0F91228C57A057B009003AAE0F91222477F01020EFF74F4125C
:203CA0000E2D74FA120DD68A0A8B0BEB5480603E9003AAE0F9121C478A0C8B0DAE0CAF0DB0
:203CC000EE4F6020121FEFE9701390090DE0F4600CEEFAEFFBE0F9121C3BE96007EEFAEF7A
:203CE000FB121C35AA0AE50B6480FB023DAFEAA2E05018123EE2600C123EED60077A007BEA
:203D000000120E2BE50A6401023DA6540260189003AB123EE5600A123EED60057901120E38
:203D20002BE50A6402807FEA5404607F900381123EE56062900381E024FFF018A3E034FF03
:203D4000F0F9E849705C121F23E960189003837401F09003AB123EE5600A123EED60057955
:203D600001120E2B851A82851B83AE82AF83121F17EEFCEFFD12271B851A82851B83AA826F
:203D8000AB83121EDB7A1D7B00121EBD900381EAF0A3EBF0800C7A047B009003AAE0F912D2
:203DA0001CD1E50A6404FAAB0B80047A007B007406120DEC7F04020EFFC082C083122325A0
:203DC000023C7074F6120E2D74FA120DD6EAFCEBFD7E01EC2402ED34000A0AFBEC2404F880
:203DE000ED3400F98C828D83E0246F600A24EF7003023E8F023ED5A3E024FB601824F760AF
:203E00000A14601B24D1604D023ED51A1AEDFB121FF5E980771A1AEDFB121F47023ED67F07
:203E20000188828983E0FAA3E0FB8A0A8B0B780A1210CA000002000D20413E1320413E8A91
:203E40003E9003A0123EE56042123EED603D120E2BE9FF80367F018A828B83E014600F1446
:203E600060151470251A1AEDFB121F41801D1A1AEDFB121F3B8014123EE2600F123EED609F
:203E80000A1A1AEDFB120E2B80011FEFFE804790037FE0A2E25028851A82851B83E4F0A3B4
:203EA000F0851A82851B83AC82AD8388828983E0F98A828B83E0FAA3E0FB12225380179061
:203EC00003A0123EE5600F123EED600A7AFF7BFF120E2B80011EEEF97406120DEC7F020228
:203EE0000EFF9003ADE0F8A3E0F9E84922E0F5838882A3A3123FDE2274F4120E2D750A01A0
:203F00008A828B83A3A3A3E0FEA3E0FF8E0C8F0D780C1210CA010008200A20A53F07000951
:203F200010593F0220463F05203D3F0620A53F0B207A3F0C20753F0E208E3FBA3F123FC2BC
:203F4000F9121EED80778A828B83A3A3A3A3A3E0FAA3E0FB121ED5805C8A828B83A3A3A3CF
:203F6000A3A3123FE6A3AA82AB8388828983E0F9121ECF8040123FC26043123EE2603E1281
:203F80003FD56039EAFCEBFDEEFAEFFB80249003A0123EE56027123EED6022EAFCEBFD7A3A
:203FA0000E7B20800D9003AB123EE56010123FD5600B120E2BE9F50A8003750A00A90A026D
:203FC0003DB48A828B83A3A3A3A3A3E0F8A3E0F5838882E022E0F5838882123FDE22123FC4
:203FE000E6E582458322E0F8A3E0F98882898322C082C0839003AB023C6B020ACEFFFFFFBB
:204000002E9EFFFF0500009442424242FFFFFFFFFFFFFFFFFFFFFFFFFFFFFFFFFFFFFFFF49
:20402000000102030405060708090A0BFFFFFFFF02438C0254A4FFFFFFFFFFFFFFFFFFFF81
:20404000FFFFFFFFFFFFFFFFFFFFFFFFFFFFFFFFFFFFFFFFFFFFFFFFFFFFFF024F1EFFFF0E
:20406000FFFFFF024E9FFFFFFFFFFFFFFFFFFFFFFFFFFFFFFFFFFFFFFFFFFFFFFFFFFFFF6E
:20408000FFFFFF02551AFFFFFFFFFFFFFFFFFFFFFFFFFFFFFFFFFFFFFFFFFF024DB4FFFFC6
:2040A000FFFFFFFFFFFFFFFFFFFFFF024E27FFFFFFFFFF0253530102C986010000AC86026A
:2040C000D786010000F38610F184030000880202BF86030000810202D786010000F1861043
:2040E000D184030000000000002F5B235B0090010000008D806381528228830E81E482006A
:204100008085858F83ED839D8503829F820000560000020000000030FF0202020202020236
:204120000202010D000000100102C986010000AF8602D7860100000A0A02EB86010000935A
:204140000302D7860100000B0A02E986010000D58602D7860100000C0A02E786010000D361
:204160008602D7860100000D0A02E586010000508402D7860100000E0A02E386010000D14B
:204180008602D7860100000F0A02E186010000218502D786010000100A02DF86010000CF5F
:2041A0008602D786010000110A02DD860100005C8502D786010000120A02D98601000013C6
:2041C0000AFF000801010003020106000000000000000000000000000000000000000000C0
:2041E00000000000000000FFFF0110002000E803915F9D5FFF0000B400002800280028305E
:2042000075A000A000A000A00000080008E001F000100010001000100010001000500050C8
:2042200000500010001000D0070000000000000F0001000500307507001000010081FF00E5
:20424000000000FFB160CF60B760FF02020208025000A0000000E80302C986010000B8868E
:2042600002D7860100003C0B02BD86010000C90402D7860100003D0B02BB86010000DF04B5
:2042800002D7860100003E0B02EF86010000E10402D7860100003F0B02C186080000E20437
:2042A00002D786010000400B02C586010000410BFF0100FF2002C986010000B28602D786B1
:2042C000010000A50B02DB86000000000002BF860300002F0505670567056705670567052B
:2042E000670567056705670567056705670567116A296A0B6AE5C754F84405F5C779012247
:2043000000000080FB1242F5B90003024376E479217813B800028004F709D8FCE47934783E
:2043200002B800028004F709D8FCE4900280782979088002F0A3D8FCD9FA781C9040B67A01
:2043400001BA00028007E493A3F608DAF99009A8AA82AB839040B7783F79038015E493A32A
:20436000AC82AD838A828B83F0A3AA82AB838C828D83D8E9D9E775821575839774041243D1
:204380009E758200758343740012439E75D00075813F751A80751B02759F00024305C09F0E
:2043A000F59FE473D09F22D083D082C09FE493C0E0740193C0E0740293F59F22E066701039
:2043C00008A3E066700A08A3E066700408A3E06622E4936670130874019366700C0874022A
:2043E00093667005087403936622C3E7960809E7960809E7960809E796A2D265D03322C30A
:20440000E09608A3E09608A3E09608A3E096A2D265D03322C00AC3E096F50A08A3E0964260
:204420000A08A3E096420A08A3E096420AA2D265D033E50A7001D3D00A22C3E7960809E755
:20444000960809E7960809E79622C3E09608A3E09608A3E09608A3E09622C00AC3E096F5D2
:204460000A08A3E096420A08A3E096420A08A3E096450A7001D3D00A22C3E493960874015B
:2044800093960874029396087403939622080808EAC0E0EBC0E086F0E7A4FA180986F0E7DC
:2044A000A42AFA180986F0E7A42AFA180986F0E7A42AFA1986F0E7A4FBE5F02AFA190886F3
:2044C000F0E7A42BFBE5F03AFA190886F0E7A42BFBE5F03AFA18180986F0E7A4C5F02BFBCC
:2044E000E43AFA1908E7C5F0C6A426F6E5F03BFBE43AFA1886F0E7A4F6E5F00826F6E43B17
:2045000008F6E43A08F6D0E0FBD0E0FA22E4CFC0E0E4CEC0E0E4CDC0E0E4CCC0E075F0203F
:20452000C3E633F608E633F608E633F608E633F6181818EC33FCED33FDEE33FEEF33FFC3E1
:20454000EC9709ED9709EE9709EF97191919400FFFEC97FC09ED97FD09EE97FE191906D5F3
:20456000F0BEECF709EDF709EEF709EFF7191919D0E0FCD0E0FDD0E0FED0E0FF221245E581
:2045800018181812450D1245D4191919221245D4191919080808E618181820E7E012450DD0
:2045A0001245E518181822090909E719191920E7DC080808E618181820E70302450D12452A
:2045C000E518181812450D1245E51818181245D419191922E4C397F709E497F709E497F703
:2045E00009E497F722E4C396F608E496F608E496F608E496F6226017080808C6A2E713C6AA
:2046000018C613C618C613C618C613C6D5E0E9226016080808C6C313C618C613C618C6131D
:20462000C618C613C6D5E0EA227009080808226016181818C6C333C608C633C608C633C6BB
:2046400008C633C6D5E0EA22E627F60809E637F60809E637F60809E637F622E026F608A39A
:20466000E036F608A3E036F608A3E036F622E026F008A3E036F008A3E036F008A3E036F095
:2046800022C3E697F60809E697F60809E697F60809E697F622C3E096F008A3E096F008A32F
:2046A000E096F008A3E096F022E056F608A3E056F608A3E056F608A3E056F622E056F00860
:2046C000A3E056F008A3E056F008A3E056F022E647F60809E647F60809E647F60809E64784
:2046E000F622E046F008A3E046F008A3E046F008A3E046F022E066F008A3E066F008A3E085
:2047000066F008A3E066F022E0F608A3E0F608A3E0F608A3E0F622E6F008A3E6F008A3E6DD
:20472000F008A3E6F022E0FAA3E0FBA3E0FCA3E0FD22EAF0A3EBF0A3ECF0A3EDF022CAC06A
:20474000E0E6F0A308DAFAD0E0FA22CAC0E0E0A3C582CCC582C583CDC583F0A3C582CCC549
:2047600082C583CDC583DAE6D0E0CA22C3E498F8E499F91247AD8026C3E49AFAE49BFBE907
:2047800020E7E91247ADE498F8E499F922C3E498F8E499F91247ADE498F8E499F9C3E49A39
:2047A000FAE49BFB22EB20E7CFE920E7E0B90010BB0008E88AF084F8AAF022E4FBC8FA22E9
:2047C000EB70227B10C833C8C933C9335007C39AC3DBF280069A50012ADBEAC833F4C8C9F2
:2047E00033F4C9FA2275F008E4C833C8C933C933C99AC99B5004C92AC93BD5F0ECFBC833E8
:20480000F4C8E4C9FA22600D08C6A2E713C618C613C6D5E0F322600C08C6C313C618C6132E
:20482000C6D5E0F422700422600D18C6C333C608C633C6D5E0F41822251A10AF08F51A404B
:2048400002151B8008F51A4002151BD2AF22C0D0251A10AF08F51A5002051B8008F51A507C
:2048600002051BD2AFD0D022251AF58210AF08F51A4002151B8008F51A4002151BD2AF85C6
:204880001B8322251AF582E4351BF58322E473251AC582C0E0E51B34FFC583C0E0E51AC37A
:2048A000958224F810AF0885831B85821A800885831B85821AD2AFCEF0A3E520F0A3780AF2
:2048C000E608F0A3DEFAEFF0A3E58124FAF8E608F0A3E608F0A3E608F0A30808E608F0A36D
:2048E000E608F0A315811581D0E0FED0E0F8158115811581E8C0E0EEC0E022251AC582C075
:20490000E0E51B34FFC583C0E0E51AC3958224F910AF0885831B85821A800885831B8582E9
:204920001AD2AFCEF0A3E520F0A3780AE608F0A3DEFAEFF0A3E58124FBF8E608F0A3E6089A
:20494000F0A30808E608F0A3E608F0A315811581D0E0FED0E0F815811581E8C0E0EEC0E0EE
:2049600022851B83851A82E0A3FEE0A3F520780AE0A3F608DFFAE0A3FFE0A3C0E0E0A3C0F4
:20498000E0E0A3C0E0E0A3C0E0E0A3C0E010AF0885821A85831B800885821A85831BD2AF76
:2049A000D083D0820243A4851B83851A82E0A3FEE0A3F520780AE0A3F608DFFAE0A3FFE0CE
:2049C000A3C0E0E0A3C0E0E0A3C0E0E0A3C0E010AF0885821A85831B800885821A85831B54
:2049E000D2AFD083D08222C0D0251AC582C0E0E51B34FFC583C0E0E51AC3958224F310AFEF
:204A00000885831B85821A800885831B85821AD2AFC8F0A3E9F0A3EAF0A3EBF0A3790AE7C1
:204A200009F0A3D8FAECF0A3EDF0A3EEF0A3EFF0A3D0E0F0A3D0E0F0A3D0E0F0A3E520F048
:204A4000A3E5F0F0A322851B83851A82E0C0E0A3E0F9A3E0FAA3E0FBA3780AE0F608A3DF69
:204A6000FAE0FCA3E0FDA3E0FEA3E0FFA3E0C0E0A3E0C0E0A3E0F5D0A3E0F520A3E0A3F59C
:204A8000F010AF0885831B85821A800885831B85821AD2AFD082D083D0E0F8D0E032740427
:204AA0008006740280027401C0E0F404124868D0E012473E227404800474028000CCC0E0E2
:204AC000EDC0E0E51AC39CCCAD1B50011D10AF068C1A8D1B80068C1A8D1BD2AF12474BD00D
:204AE000E0FDD0E0FC22D083D082C5F0E493A3C5F0C395F0F5F0E493A3C395F04005E5F039
:204B0000048001E475F002A42582F582E5F03583F583E493A3C0E0E493C0E022D083D08266
:204B2000E9C0E0E493A3C386F0C5F095F0F908E493A386F0C5F095F0700BE493A3C3994063
:204B400005E9048002A3E475F002A42582F582E5F03583F583D0E0F9E493A3C0E0E493C092
:204B6000E022D083D082E9C0E0E493A3C386F0C5F095F0F908E493A386F0C5F095F0702419
:204B800008E493A386F0C5F095F0701908E493A386F0C5F095F0700E08E493A3C3994007A5
:204BA000E9048004A3A3A3E475F002A42582F582E5F03583F583D0E0F9E493A3C0E0E493AF
:204BC000C0E022D083D082CCC0E0E493A36006124BED1470FAE493A36006124C0C1470FA52
:204BE000D0E0FCE493A3C0E0E493C0E022C0E0E493A3D39C5010E493A3C39C400AD0E0D04A
:204C0000E0D0E0024BE0A3A3A3D0E022C0E0E493A36C7009D0E0D0E0D0E0024BE0A3A3D02A
:204C2000E022D083D082ECC0E0EDC0E0E493A3FCE493A3FDED4C600D124C6EEC24FFFCED1D
:204C400034FFFD80EFE493A3FCE493A3FDED4C600D124CADEC24FFFCED34FFFD80EFD0E090
:204C6000FDD0E0FCE493A3C0E0E493C0E022C0E0C3E49396087401939618400FE4936670CE
:204C80000808740193661870007019A3A3C3E49396087401939618A3A3400DD0E0D0E0D0EE
:204CA000E0024C5EA3A3A3A3A3A3D0E022C0E0C0F088F0E4936670080874019366187000A9
:204CC000A8F0A3A3700BD0F0D0E0D0E0D0E0024C5EA3A3D0F0D0E022D083D082ECC0E0ED09
:204CE000C0E0EEC0E0EFC0E0E493A3FCE493A3FDE493A3FEE493A3FFEF4E4D4C6015124DEF
:204D000054EC24FFFCED34FFFDEE34FFFEEF34FFFF80E5E493A3FCE493A3FDE493A3FEE449
:204D200093A3FFEF4E4D4C6015124D91EC24FFFCED34FFFDEE34FFFEEF34FFFF80E5D0E086
:204D4000FFD0E0FED0E0FDD0E0FCE493A3C0E0E493C0E022C0E0C0F088F0124479A8F040EB
:204D6000071243D1A8F0701AA3A3A3A3124479A8F0A3A3A3A34013D0F0D0E0D0E0D0E00240
:204D80004D3EA3A3A3A3A3A3A3A3A3A3D0F0D0E022C0E0C0F088F01243D1A8F0A3A3A3A386
:204DA000700BD0F0D0E0D0E0D0E0024D3EA3A3D0F0D0E022C0E074F01249E7A2AFE433FF96
:204DC000D2AFE589F8E5AB58F50C6051F4F589C2C57E008E0A750B007402780A124825123A
:204DE0004E9AC3E89408E99400502BE85407F87401B800028004C333D8FC550C6018750A7C
:204E000000750B01EE780A124825AA0AAB0B900280E0F9125CAF0EEEC3940440B6EFA2E0F2
:204E200092AF7F03024A46C0E074F01249E7A2AFE433FFD2AFE58AF8E58D58F50C6059F410
:204E4000F58AC2EB7E008E0A750B007402780A124825124E9AE82400FAE934FFFBC3EA94C1
:204E600008EB9400502BE85407F87401B800028004C333D8FC550C6018750A00750B01EEB1
:204E8000780A124825AA0AAB0B900280E0F9125CAF0EEEC3940440AE8083124F07F922C014
:204EA000E074F01249E7A2AFE433FFD2AFE58BF8E5AC58F50C604DF4F58BC2E87E008E0A51
:204EC000750B007402780A124825124F07C39402402BE85407F87401B800028004C333D8F3
:204EE000FC550C6018750A00750B01EE780A124825AA0AAB0B900280E0F9125CAF0EEEC3BD
:204F0000940440BA024E1D74C6250AF5827403350BF583E0F8A3E022C2AF02000022C0E0D1
:204F2000C0D0E8C0E0E9C0E0E5A8D2AFC2C7751C00A2E7A2E792AFD0E0F9D0E0F8D0D0D094
:204F4000E03274F51248FBEAFEEBFFEE2434F8EF3400F9880A890BEE243512506EF8EE240E
:204F60003712506EF50CEC850CF0A4FCAAF0850CF0EDA42AFDE82CF8E43DF97A257B0012F7
:204F800047ADEA850A82850B83F074075AF87401B800028004C333D8FCFBEA131313541F44
:204FA000F8EE28F8EF3400F9E8245DF582E91250715B6003EA801CEE243612506EF5F0EA08
:204FC00084A8F0EE28F8EF3400F9E82438F582E9125071F97F040249A774F51248FBEAFE00
:204FE000EBFFEE243412506EC0E0EE2435F582EF3400F583D0E0F08E828F83A3A3A3A3A3C7
:20500000E0FAA3E0FB8E828F83A3A3A3A3A3A3A3E0FCA3E0FDECC39AF50CED9BF50DEE245F
:205020007FF50AEF3400F50B850A82F583E06401702BEE2480F582EF3400F583124AB9129B
:205040005077740212484EE960137CF27D06EEFAEFFB12662D850A82850B83E4F0AC0CAD4A
:205060000DEEFAEFFB124F42125B09024FD4F582EF3400F583E022C082C083851A82851BB9
:2050800083E0F8A3E0F9C3EA9CEB9D5010C3EC98ED99401BC3EA98EB995014800EC3EA98E0
:2050A000EB994007C3EC98ED994004790180027900D083D08222EAC39CFAEB9DFB2274ED8F
:2050C0001248FB9005B8E064086005E06407702C9061C8E060269005E6E0F874FF68601CCD
:2050E000E875F003A4C8AAF02AF974E828FE740539FF8E828F83A3A3A3E0700579000252D7
:205100005EEE2468F512EF3400F513906060E0851282851383F0750C72750D07750A0075C1
:205120000B00E5D914F510E5D95403F511601CEE2482F50EEF3400F50F740365116058E5AE
:20514000106013EE246712506E700B793DEEFAEFFB12665180A690076DE064016026850E2F
:2051600082850F83E0600478048002780085100AE50AC398FA95E0FB1264AD8A0A8B0BEA52
:20518000450B70061268FD0250FC850E82850F83E070048A0C8B0D78008016E5D9C0E088E2
:2051A00014E50C2514F582E50D3400F583D0E0F008E8C3951040E4850E82850F83E06028EC
:2051C00074FC2510F510780C124AA2AC10A911EEFAEFFB1266FF740212484EE9700AAA0AAF
:2051E000AB0B125E2302514B74036511605885100E750F00780E124AA2AC0CAD0DAA0AABA7
:205200000B1266C3740212484E851282851383E0F87480687005750E7F8002880EE50EF54B
:205220000C780C124AA6E511F50C780C124AA6A910AC0AAD0B9005E6E0FA7B0012634B7434
:205240000212484E80139005B8E06408600BAC0CAD0DEEFAEFFB1267B912690979017F0C0E
:205260000249A774F31248FB74FC124838EAFEEBFF890AA2AFE433F50BC2AFEE2463F50CCA
:20528000EF3400F50D8010AA0CAB0D12667B125E239006F9E004F0850C82850D83E0F8A35F
:2052A000E0F9E849602FE82402FAE93400FBEA2402F50EEB3400F50F780E124AA28A828BE4
:2052C00083E0FCA3E0F9EEFAEFFB12666F740212484EE960B29006F9E060579006FAE0F893
:2052E0009006F9E0C398500C7402650A70449006FBE0603E8E828F83A3A3A3A3E0851A8231
:20530000851B831253427402124883E81253429006F8E028F07402124883AC82AD83851A0B
:2053200082851B83AA82AB8379011263519006F9E4F0E50BA2E092AF740412484E7F060271
:2053400049A7F0A3E4F09006F9E0F822852C87852DC622C0E074EF1249E7A2AFE433FEC22E
:20536000AF759B00906182E0A2E05012E591A2E0500C7591FE7401652C70031250BEE0A2C4
:20538000E55051E591A2E5504B7591DF9005B8E064076005E0640870237401652C7035790A
:2053A000019005E6E0FA75F003A4CAA8F028FB74E82AFA74053BFB1252638018E0640D70B7
:2053C000139005DAE004F064287002E4F07A00E0F912690F906182E0A2E6400302547AE5F5
:2053E00091A2E6400302547A7591BF9005B8E0640570081267FB1268078003126801752C1A
:2054000000126885E99005B9F0790012686712658B7A017B009005B7E0F9125CAF907803C7
:20542000E064427055900771E014F0704DC2AF125432007835D0E0F618D0E0F6E59F54077F
:205440007005750BFF8003750B7FC4C0E07834E6F50A08E6550BF50B740B780A124816D052
:20546000E0250AF8906270E0A2E740F8E8C333906272F0906270E0D2E0F0906181E0A2E335
:205480005009E5E9A2E3500375E9F7A3E0A2E75009E591A2E7500375917FEEA2E092AF7F4C
:2054A00004024A46C0E0C0D0C082C083906183E0A2E05009E5BFA2E0500375BFFEE0A2E164
:2054C0005009E5BFA2E1500375BFFDE0A2E25009E5BFA2E2500375BFFBE0A2E35009E5BFFF
:2054E000A2E3500375BFF7E0A2E45009E5BFA2E4500375BFEFE0A2E55009E5BFA2E550030C
:2055000075BFDFE0A2E65009E5BFA2E6500375BFBFD083D082D0D0D0E032C0E074F21249BD
:20552000E7E5A7A2E4500FE5A1A2E4500953A7EF75A1EF12556EE5A7A2E5500CE5A1A2E56F
:20554000500653A7DF75A1DFE5A7A2E15009E5A1A2E1500375A1FDE5A7A2E2500CE5A1A2BC
:20556000E2500653A7FB75A1FB7F01024A4674F81248FB752C019005B8E0640670077A00F0
:205580007B001267E3A2AFE433FED2AF9005BEE0640170187A207B009005B7E0F9125D394B
:2055A0007A207B009005B7E0F9125CB5906182E0D2E6F090076EE0602185C62D801690058A
:2055C000BDE064017008E5C654F84405F5C653BEFC12534C7401652C60E4EEA2E092AF7F1E
:2055E000010249A78E2E8F2F858233858332851A82851B83E0CEA3E0CF853382853283EB27
:20560000C9EAC8EDCBECCA75F010C3E833C8E933C9EA33CAEB33CBC3EA9EF531EB9FF530B1
:20562000B35004AB30AA31EC33CCED33CDD5F0DAAE2EAF2F2274E91248FB74FA124838EABE
:20564000FEEBFF8C0A8D0B9005B8E024F7C3940550067512010257601267598A0C8B0DEA0F
:20566000450D700302575D1268198A0E8B0F126819EA650E7003EB650F60ECEEFCEFFD8581
:205680001A82851B83AA82AB8312681F850C82850D83A3A3780E124708908654780E1246BB
:2056A000A9851A82851B83781612470890865478161246A9780E791612443A501F780E7902
:2056C0001612468190860C780E12445A4047850E12850F13851014851115804590860C85F0
:2056E00016128517138518148519157812790E124681781212445A501C751200751300755B
:205700001400751501781279161246817812790E124648800C751201751300751400751598
:205720000074097812124629908608780E1247087812790E12450D9005B8E06408600AE084
:2057400064066005E064057020908604781212445A5016908600781212465B800C75120081
:20576000751300751400751500850A82850B837812124717740612484E7F100249A774F762
:205780001248FB12683190076CE064017010906245E4F0A3F053F4F343FE0C5390F31267CD
:2057A000D1E5C654804449F5C6E59E547F644970F8906185740FF090076AE0F47002A3E033
:2057C000602C750A01750B0090076AE0780A124825E50AF4FAA3E0600814600A14600C8015
:2057E0000DEA52808008EA52908003EA52A079007F020249A774F71248FBE9FEEAFF74013C
:205800006E700C7A807B009005B7E0F9125CAF906AE8E493F46008E493F912656D80095302
:20582000C680E59E547F70FA1267D790076CE0640170031265A390076AE0F47002A3E06013
:205840002A750A01750B0090076AE0780A124825AA0AA3E0600814600A14600C800DEA42E6
:20586000808008EA42908003EA42A01267598A0A8B0BA80AA90BE8496017E5E170FCE824CD
:2058800014F582E93400F583E0F874FF68600288E174016F700A7A019005B7E0F9125D09F4
:2058A0000257F074F11248FB8A0A8B0B8C0C8D0D908654780A1246A9740F124883780E12A4
:2058C0004708908654780E1246A9780A790E12443A90860C5010780A790E124681780A12F7
:2058E000445A4014800E780E790A124681780E12445A50047901800279007F080249A7745A
:20590000ED1248FB8A0A8B0B8C0C8D0D908654780A1246A97413124883780E12470890869B
:2059200054780E1246A9780E790A12443A4011780A790E124681AA0AAB0BAC0CAD0D802242
:205940007512007513007514007515017812790E1246817812790A124648AA12AB13AC1453
:20596000AD157F0C0249A7908654780A1247088A828B83780A1246BC7F040249A774F512FB
:2059800048FB8C828D83780A1247088A828B83780A1246951259D1C3E098F0A3E09912594C
:2059A000C3401E908638780A1247088A828B83780A12466E8E828F83E02420F0A3E0344EF8
:2059C000F080A4F08E828F83C3E09420A3E0944E22EA2404F8EB3400F9E8FEE9FF8C828D38
:2059E00083A3A3A3A3E0F8A3E0F98E828F832274F51248FBE9FE90070DE0FAA3E0FBEEC3AE
:205A000033F8E433F974E128F582748439F583E02AF50AA3E03BF50B780A124AA290866CE5
:205A20001247261255E4740212484E8A0A8B0B8C0C8D0D7410780A124610AA0AAB0B7F04C7
:205A40000249A774F11248FB8A0E8B0F8C108D11740F124883E0FAA3E0FB7411124883E034
:205A6000F50AA3E0F50B780A124AA2EA2401F50AEB3400F50BE4F50CF50D780E790A1244B1
:205A80008D90862C780A124708780E790A12448DAA0EAB0FAC10AD111255E4740212484E13
:205AA0008B0BEA450B60047A0180027A00EC2AFCED3400FD7413124883E0F8A3E0F9E8FE6D
:205AC000E9FFECF8EDF97A717B021247AD880A890BE4F50CF50D8E828F83780A124717EC99
:205AE000F8EDF97A717B021247AD8A0A8B0B7405780A1248258E828F83A3A3A3A3E50AF029
:205B0000A3E50BF07F080249A7C082C083E9906000F0D083D082221243A769E5031243A72B
:205B2000E5E5031243A76CE7031243A7C5E7031243A71EE8031243A730E8031243A7C0E8DB
:205B4000031243A750E9031243A70AE0021243A7F6E0021243A7B4E1021243A716E30212B2
:205B600043A7BDE3021243A741E4021243A7D7E5021243A79BE6021243A7B5E6021243A7A8
:205B800030E7021243A7C2E7021243A7A1E8021243A7D5E8021243A72EEB021243A7008070
:205BA000011243A71C80011243A7F281011243A7AD82011243A71883011243A75E83011227
:205BC00043A78783011243A7DC84011243A75E85011243A75386011243A7CC86011243A772
:205BE0009487011243A7F587011243A71C8A011243A7BC90011243A70391011243A72C91DA
:205C0000011243A78191011243A7AF91011243A76DB0011243A7E3B0011243A771B101125C
:205C200043A70EB5011243A7ADBA011243A78DC1011243A778C2011243A7E9C2011243A72C
:205C4000ECC3011243A75DC5011243A7A1C5011243A719C7011243A736D1031243A740D122
:205C6000031243A77ED1031243A7C7D1031243A701D2031243A75BD2031243A77CD20312DF
:205C800043A785D2031243A7D2D2031243A7FBD2031243A705D3031243A771D3031243A73B
:205CA00003D4031243A74DD4031243A783D4031243A70FD5031243A750D5031243A787D535
:205CC000031243A799D5031243A7B8D5031243A7C1D5031243A78ED6031243A7BE9604126A
:205CE00043A7D093041243A77F8A041243A7B58A041243A7EB8A041243A7368C041243A7D8
:205D000051FF011243A767FF011243A771FF011243A7BBFF011243A710EA031243A725EAA7
:205D2000031243A7D5EA031243A715EB031243A72EEB031243A769EB031243A7B6EB031286
:205D400043A7E8EB031243A72AEC031243A72BEE031243A79DEE031243A76A97041243A7CF
:205D60007C97041243A7A685041243A7CB85041243A7F585041243A74796041243A7E9FF56
:205D8000011243A79795041243A7A795041243A7B095041243A74196041243A7CC9204120E
:205DA00043A75193041243A7B793041243A7F87F001243A74688041243A7D589041243A72C
:205DC000368A041243A77C8A041243A74AFA031243A719FB031243A743FB031243A75AFB15
:205DE000031243A764FB031243A7AEFB031243A7B1FB031243A7DBFB031243A758FC0312B5
:205E000043A7AEFC031243A701FD031243A70EFD031243A74EFD031243A76BFD031243A737
:205E2000CF8F041243A72190041243A7AB90041243A71291041243A788FD031243A7B2FD42
:205E4000031243A780FE031243A75BFF031243A7FEB3021243A7A2B7021243A712BA021287
:205E600043A76CBA021243A78BBA021243A7E8BA021243A754BC021243A740BD021243A728
:205E8000EEC1021243A7BCC2021243A763C3021243A7A1C3021243A7708C041243A7878C44
:205EA000041243A7B88C041243A7F38C041243A71D8D041243A7478D041243A75E8D0412A0
:205EC00043A7758D041243A78C8D041243A7B58D041243A7C88D041243A7DE8D041243A7BB
:205EE000F18D041243A7188E041243A7A596031243A7A997031243A7E197031243A70498F2
:205F0000031243A70F98031243A73298031243A74199031243A7169A031243A7919A03124B
:205F200043A7199B031243A7549B031243A78B9B031243A7199C031243A7F29C031243A770
:205F4000529D031243A75D9D031243A7DC9D031243A7DF9D031243A7E29D031243A7719EDA
:205F6000031243A7749E031243A7A49E031243A7CE9E031243A7BC9F031243A76EA00312E8
:205F800043A7A9AA031243A7A1AB031243A7D5AB031243A757AC031243A79FAC031243A7AF
:205FA00003AD031243A790AD031243A74AAE031243A759B1031243A7E4B2031243A707B3A7
:205FC000031243A7ACE0031243A7D4E0031243A702E1031243A739E1031243A797E10312FC
:205FE00043A7E2E1031243A72DE2031243A76DE2031243A7B3E2031243A7E1E2031243A743
:206000009EE3031243A7A8E3031243A7B5E3031243A7E8E3031243A7B4E4031243A7C0E4DA
:20602000031243A7D8E4031243A7E2E4031243A7CE94041243A7E694041243A7FE9404125D
:2060400043A7D7EB021243A7B3EC021243A717EE021243A76EEE021243A7EFEE021243A7C1
:20606000DFEF021243A72CF0021243A7B2F0021243A7E4F0021243A7F8F2021243A73AF3B3
:20608000021243A758F3021243A7DBF3021243A7AFF4021243A777F5021243A7ABBD031265
:2060A00043A77EBE031243A727BF031243A77ABF031243A72AC0031243A7B6C0031243A740
:2060C000A2C1031243A7D1C1031243A7E4C2031243A72CC3031243A701C4031243A73DC475
:2060E000031243A759C4031243A7BDF6031243A7E3F6031243A7FFF7031243A709F80312F0
:2061000043A73EF9031243A736FA031243A740FA031243A7BCD6031243A7ECD7031243A7A4
:206120001FD8031243A769D8031243A730DA031243A729A4021243A793A4021243A7F2A589
:20614000021243A77CA6021243A78CA6021243A7B9A6021243A715A7021243A71CA8021202
:2061600043A7E6A8021243A746AA021243A789AA021243A72EAB021243A77BAB021243A78F
:20618000A1AB021243A7AFAD021243A7B4AD021243A7B9AF021243A706B0021243A779B0B9
:2061A000021243A7ACB0021243A74EB1021243A7F7B1021243A72FB2021243A732B202120D
:2061C00043A77AB2021243A7BAB2021243A711B3021243A7D382041243A7EB82041243A7BD
:2061E0003383041243A74983041243A79083041243A7A484041243A73185041243A77C852B
:20620000041243A7C1C7011243A7FCC7011243A741C8011243A701C9011243A790C9011200
:2062200043A716CA011243A77BCA011243A7A7CA011243A7E0CA011243A71ECD011243A758
:2062400002CF011243A7E8D0011243A72BD2011243A779D4011243A78BD5011243A7D6D66E
:20626000011243A7E6D7011243A703D8011243A73ED8011243A760D8011243A7C3D8011299
:2062800043A784DD011243A719DE011243A76BDE011243A789DE011243A7E3DE011243A75A
:2062A000CCDF011243A742E1011243A7C6E1011243A791CB031243A79BCB031243A7DECB09
:2062C000031243A7F9CB031243A789CC031243A7B1CC031243A7EECC031243A725CD03126C
:2062E00043A74ECD031243A7C3CD031243A7D8CD031243A7EDCD031243A70FCE031243A7D2
:2063000058CE031243A77DCE031243A7B7CE031243A7E3CE031243A711CF031243A75CCFD0
:20632000031243A7CCCF031243A73AD0031243A745D0031243A770D0031243A7B9D00312CA
:2063400043A7E3D0031243A70ED1031243A7DCFE021243A7B5C3021243A703C5021243A7AF
:20636000E3C5021243A702C6021243A77FC6021243A7C2C6021243A718C8021243A7C8C87A
:20638000021243A701CB021243A788CD021243A729CE021243A71FCF021243A71CD0021201
:2063A00043A776D1021243A701D2021243A77191041243A7DA91041243A72E92041243A7B0
:2063C0005592041243A78692041243A7AAEE031243A717EF031243A75EEF031243A776F070
:2063E000031243A772F1031243A755F2031243A7E8F6011243A72AF7011243A7FCF70112F7
:2064000043A7D5F8011243A7CFF9011243A7B1FA011243A71AFB011243A7D0FB011243A781
:2064200044FC011243A7B0FC011243A7D9FC011243A753FD011243A7ECFD011243A751FE22
:20644000011243A766FE011243A7ACFE011243A7C5FE011243A72AFF011243A72DFF011212
:2064600043A70080041243A72880041243A76680041243A72481041243A78B81041243A773
:20648000A781041243A7CF81041243A7FF81041243A70E82041243A78B82041243A72DE258
:2064A000011243A7FEE3011243A70FE6011243A74BE6011243A778E6011243A761E701122B
:2064C00043A7A8E7011243A7E9E7011243A716E8011243A761E8011243A7A8E8011243A7AB
:2064E000D6E8011243A728E9011243A7B8E9011243A755EC011243A770EE011243A7AEEE00
:20650000011243A723F0011243A768F0011243A74CF1011243A753F3011243A7CAF30112CC
:2065200043A714F4011243A735F4011243A7D7F4011243A7C1F5011243A75DF6011243A77B
:20654000C6F6011243A732B4031243A7B1B4031243A773BA031243A782BB031243A7EABC2B
:20656000031243A781BD031243A7EC6A001243A7356B001243A7626B001243A7956B001216
:2065800043A7A26B001243A7AE6B001243A7C06B001243A7A76C001243A7056D001243A74F
:2065A0003A6D001243A77D6E001243A7CA6E001243A7366F001243A7DF6F001243A78D7035
:2065C000001243A7EB70001243A75B71001243A7BB71001243A72673001243A7337300122B
:2065E00043A77E73001243A7DB73001243A79A74001243A7C774001243A73F75001243A789
:206600009B75001243A7E575001243A77B76001243A74677001243A7FB77001243A770781C
:20662000001243A7CB78001243A73B79001243A76679001243A7087A001243A7187B001271
:2066400043A7587B001243A7757B001243A7947B001243A7DB7B001243A7007C001243A7C0
:20666000367C001243A7B07C001243A7F17C001243A7157E001243A7BC7E001243A7137F84
:20668000001243A77D7F001243A7967F001243A7DFA0031243A732A1031243A73EA10312B1
:2066A00043A713A2031243A73AA2031243A775A2031243A7E1A2031243A71DA3031243A70A
:2066C00056A3031243A76EA3031243A7C3A3031243A7DCA3031243A725A4031243A738A42B
:2066E000031243A752A4031243A768A4031243A79BA5031243A7E2A6031243A7E4A7031235
:2067000043A7DEA8031243A7F47F001243A7E3DB031243A779DC031243A730DD031243A77E
:206720005ADD031243A74DDF031243A775E0031243A70080021243A73480021243A71E89CD
:20674000021243A7728A021243A76B8B021243A7EB8C021243A7CD8D021243A7078E0212D7
:2067600043A72A8E021243A76C8E021243A7758E021243A7BF8E021243A7C98E021243A7E0
:20678000738F021243A74C90021243A7A090021243A70291021243A75591021243A7849167
:2067A000021243A7C191021243A79C92021243A70396021243A70996021243A78B9B0212F1
:2067C00043A704A0021243A7DAA3021243A717F3031243A78DF3031243A7A3F3031243A795
:2067E000E4F3031243A71EF4031243A797F4031243A7D2F4031243A745F5031243A783F5B2
:20680000031243A78CF5031243A798F5031243A7B4F5031243A7DFF5031243A7F5F50312F3
:2068200043A71EF6031243A781F6031243A7CEC4031243A7E1C4031243A7FBC4031243A7F2
:2068400024C5031243A767C5031243A7A6C5031243A7E4C5031243A749C6031243A75EC6E1
:20686000031243A769C6031243A776C6031243A78DC6031243A79BC6031243A7AAC6031279
:2068800043A7BFC6031243A7D4C6031243A7DFC6031243A7EBC6031243A7FEC6031243A7DA
:2068A00009C7031243A72CC7031243A7D3C7031243A7E3C7031243A7F8C7031243A712C83D
:2068C000031243A72DC8031243A74AC8031243A755C8031243A711C9031243A7FDC90312E4
:2068E00043A722CA031243A72DCA031243A742CA031243A756CA031243A7B7CA031243A723
:20690000BDCA031243A7C3CA031243A7C9CA031243A7E1CA031243A714CB031243A787D2F2
