:020000040000FA
:200000000206B2C2AFF508614AFFFFC2AFF508615CFFFFC2AFF508616EFFFFC2AFF50861DC
:2000200080FFFFC2AFF5086192FFFFC2AFF50861A4FFFFC2AFF50861B6FFFFC2AFF5086120
:20004000C8FFFFC2AFF50861DAFFFFC2AFF50861ECFFFFC2AFF50861FEFFFFC2AFF50881C0
:2000600010FFFFC2AFF5088122FFFFC2AFF5088134FFFFC2AFF5088146FFFFC2AFF5088120
:2000800058FFFFC2AFF508816AFFFFC2AFF508817CFFFFFF758701002274F712057FE9FE44
:2000A000750A00750B08780A1206837C807D017A007B001204927402120640900186E0F54B
:2000C0000AA3E0F50B7409780A120694E50A2EF50A74016E7006744E250AF50A53B4F37514
:2000E000BC0075BC007CFC7D077A047B00EEF91202BC74012EFFC3950A501B74086F70029B
:200100007F567C007D087A007B00EFF91202BC0FEFC3950A40E5E5BDF9E5BCFAE9FB7F023C
:200120000205E574F612057F890CEAFEEBFF53BEFBE59DA2E650FAE5C654804449F5C6E560
:200140009E547F644970F853C67FE59EA2E740FA53C680E59E547F70FA43BE049062707407
:2001600008F01200998E828F83E0F8A3E0F9EA687002EB6970498E828F83A3A3E8F0A3E9C9
:20018000F08E828F8374FFF0A3F07409F5D575D480750A01750B00780A120683EEFCEFFD54
:2001A000850C0A7409780A120670FAAB0B1205197402120640C2AF75C9AB75C95B80FE7F7F
:2001C000030205E574FC12065A750A04750B00780A12068374021206CEAC82AD837A007B7F
:2001E0000079081204927402120640851A82E0F47003A3E0F4603C851A82851B83E0F8A3CE
:20020000E0F9E849602D74021206CEE0687003A3E0697010750901024030C2AF75C9AB7504
:20022000C95B80FE851A82851B83AA82AB837908120123780A12068374021206CEAC82AD73
:20024000837A007B0079011204927402120640851A82E0F47003A3E0F46051851A82851BE5
:2002600083E0F8A3E0F9E849604274021206CEE0F8A3E0F9851A82851B83E0687003A3E0A2
:20028000697010750900020830C2AF75C9AB75C95B80FE74FF68700374FF69700F851A8282
:2002A000851B83AA82AB83790112012343BE03120094C2AF75C9AB75C95B80FE74F7120574
:2002C0007FE9FEE5C7FF740F5EF50A750B00740B780A120670EA2400F8EB350BF9E82400EE
:2002E000E93480F9A2AFE433F50AC2AFEEC4540FFAE5C754F84AF5C7E9900980F0E8A3F016
:20030000A37470F0A374BDF0EC900985F0EDFC900984E054E04CF09009867420F0A3744256
:20032000F07409F5D575D48075D601000000000000000000000075D701E5D7A2E040FA8F1D
:20034000C7E50AA2E092AF02011EE5096007E508D2AF024033E508D2AF020833E5096007CB
:20036000E508D2AF02403BE508D2AF02083BE5096007E508D2AF024043E508D2AF020843DC
:20038000E5096007E508D2AF02404BE508D2AF02084BE5096007E508D2AF024053E508D233
:2003A000AF020853E5096007E508D2AF02405BE508D2AF02085BE5096007E508D2AF0240F9
:2003C00063E508D2AF020863E5096007E508D2AF02406BE508D2AF02086BE5096007E5084A
:2003E000D2AF024073E508D2AF020873E5096007E508D2AF02407BE508D2AF02087BE5097B
:200400006007E508D2AF024083E508D2AF020883E5096007E508D2AF02408BE508D2AF0247
:20042000088BE5096007E508D2AF024093E508D2AF020893E5096007E508D2AF02409BE501
:2004400008D2AF02089BE5096007E508D2AF0240A3E508D2AF0208A3E5096007E508D2AFE8
:200460000240ABE508D2AF0208ABE5096007E508D2AF0240B3E508D2AF0208B3E509600734
:20048000E508D2AF0240BBE508D2AF0208BB0002048E74F512057F890A740F550AF50C7540
:2004A0000D00740B780C120670EA2400F8EB3480F9E82400E9350DF9E5C7F50BA2AFE433C2
:2004C000F50CC2AFE50AC4540FFAE5C754F84AF5C7740B1206CEE0FEA3E0FFEE4F602CEE20
:2004E000FAEFFB88828983E08C828D83F088828983A3A882A9838C828D83A3AC82AD83EAFC
:2005000024FF1AEB34FFFBEA4B70D8850BC7E50CA2E092AF7F040205E574F712057FED9010
:200520000980F0ECA3F0A37462F0A37473F0A3E0541FF074091206CEE0F50AA3E0F50BE550
:200540000A333354FC900985F07406780A120694E50A900984F09009867412F0A37442F04B
:2005600053D1FE75D601EA906271F0EBA3F0906270E0D2E1F0E0A2E740FB7F020205E52537
:200580001AC582C0E0E51B34FFC583C0E0E51AC3958224F910AF0885831B85821A80088531
:2005A000831B85821AD2AFCEF0A3E520F0A3780AE608F0A3DEFAEFF0A3E58124FBF8E6083A
:2005C000F0A3E608F0A30808E608F0A3E608F0A315811581D0E0FED0E0F815811581E8C09F
:2005E000E0EEC0E022851B83851A82E0A3FEE0A3F520780AE0A3F608DFFAE0A3FFE0A3C06D
:20060000E0E0A3C0E0E0A3C0E0E0A3C0E010AF0885821A85831B800885821A85831BD2AF39
:20062000D083D08222251AF58210AF08F51A4002151B8008F51A4002151BD2AF851B832226
:20064000C0D0251A10AF08F51A5002051B8008F51A5002051BD2AFD0D022251A10AF08F53C
:200660001A4002151B8008F51A4002151BD2AF22700422600D18C6C333C608C633C6D5E029
:20068000F4182274028000C0E0F404120625D0E01206C122600C08C6C313C618C613C6D554
:2006A000E0F4221206DDB900030206AC1201C41206D875D00075813F751A80751B010206F6
:2006C000A3CAC0E0E6F0A308DAFAD0E0FA22251AF582E4351BF5832200000080FB79012251
:2006E000FFFFFFFFFFFFFFFFFFFFFFFFFFFFFFFFFFFFFFFFFFFFFFFFFFFFFFFFFFFFFFFF1A
:20070000FFFFFFFFFFFFFFFFFFFFFFFFFFFFFFFFFFFFFFFFFFFFFFFFFFFFFFFFFFFFFFFFF9
:20072000FFFFFFFFFFFFFFFFFFFFFFFFFFFFFFFFFFFFFFFFFFFFFFFFFFFFFFFFFFFFFFFFD9
:20074000FFFFFFFFFFFFFFFFFFFFFFFFFFFFFFFFFFFFFFFFFFFFFFFFFFFFFFFFFFFFFFFFB9
:20076000FFFFFFFFFFFFFFFFFFFFFFFFFFFFFFFFFFFFFFFFFFFFFFFFFFFFFFFFFFFFFFFF99
:20078000FFFFFFFFFFFFFFFFFFFFFFFFFFFFFFFFFFFFFFFFFFFFFFFFFFFFFFFFFFFFFFFF79
:2007A000FFFFFFFFFFFFFFFFFFFFFFFFFFFFFFFFFFFFFFFFFFFFFFFFFFFFFFFFFFFFFFFF59
:2007C000FFFFFFFFFFFFFFFFFFFFFFFFFFFFFFFFFFFFFFFFFFFFFFFFFFFFFFFFFFFFFFFF39
:2007E000FFFFFFFFFFFFFFFFFFFFFFFFFFFFFFFFFFFFFFFFFFFFFFFFFFFFFFFFFFFFFFFF19
:200800000932FFFF0000005C41414141FFFFFFFFFFFFFFFFFFFFFFFFFFFFFFFFFFFFFFFF53
:20082000000102030405060708090A0BFFFFFFFF020AB60218F7FFFFFFFFFFFFFFFFFFFFB1
:20084000FFFFFFFFFFFFFFFFFFFFFFFFFFFFFFFFFFFFFFFFFFFFFFFFFFFFFF0211BEFFFFE4
:20086000FFFFFFFFFFFFFFFFFFFFFFFFFFFFFFFFFFFFFFFFFFFFFFFFFFFFFFFFFFFFFFFF98
:20088000FFFFFF02196AFFFFFFFFFFFFFFFFFFFFFFFFFFFFFFFFFFFFFFFFFFFFFFFFFFFFF0
:2008A000FFFFFFFFFFFFFFFFFFFFFFFFFFFFFFFFFFFFFF021763FF1C0293B101000074B148
:2008C000028FB10100003D081050B0020000C502028BB1030000C702028DB1010000FCB0C0
:2008E000028FB10100003D081060B0020000C602028BB1030000CD02028DB101000009B17B
:20090000FFFFFF0008010100030201060000000000000000000000000000000000000000C4
:200920000000000000000000FFFF0110002000E803FF0000B4000028002800283075A0002D
:20094000A000A000A00000080008E001F00010001000100010001000100050005000500086
:2009600010001000D0070000000000000F0001000500307507001000010081FF000000002E
:20098000FFB920D720BF20FF02020208025000A0000000E8030293B10100007AB1028FB10B
:2009A0000100000E090289B1010000B103028FB10100000F090285B1010000C703028FB18E
:2009C00001000010090283B1010000C903028FB10100001109027FB1080000CA03028FB154
:2009E0000100001209027DB10100001309FF0100FF200293B101000077B1028FB1010000BD
:200A000077090281B10000000000028BB103000017042F262F262F262F262F262F262F2673
:200A20002F262F262F262F262F262F267B2893287528E5C754F84405F5C779012200000024
:200A400080FB120A32B90003020AA0E479217808B800028004F709D8FCE479297802B8009D
:200A6000028004F709D8FCE490028078BD79068002F0A3D8FCD9FA90083CAA82AB839008F0
:200A8000B6787D79028015E493A3AC82AD838A828B83F0A3AA82AB838C828D83D8E9D9E77D
:200AA0007582B27583D97407120AC875823D75830A7400120AC875D00075813F751A8075D1
:200AC0001B02759F00020A42C09FF59FE473D09F22D083D082C09FE493C0E0740193C0E0F9
:200AE000740293F59F22E066701008A3E066700A08A3E066700408A3E06622E4936670132E
:200B00000874019366700C08740293667005087403936622C3E7960809E7960809E79608F9
:200B200009E79622C3E09608A3E09608A3E09608A3E09622C00AC3E096F50A08A3E09642EA
:200B40000A08A3E096420A08A3E096450A7001D3D00A22C3E49396087401939608740293E7
:200B600096087403939622080808EAC0E0EBC0E086F0E7A4FA180986F0E7A42AFA18098600
:200B8000F0E7A42AFA180986F0E7A42AFA1986F0E7A4FBE5F02AFA190886F0E7A42BFBE535
:200BA000F03AFA190886F0E7A42BFBE5F03AFA18180986F0E7A4C5F02BFBE43AFA1908E78B
:200BC000C5F0C6A426F6E5F03BFBE43AFA1886F0E7A4F6E5F00826F6E43B08F6E43A08F676
:200BE000D0E0FBD0E0FA226016080808C6C313C618C613C618C613C618C613C6D5E0EA22A8
:200C00007009080808226016181818C6C333C608C633C608C633C608C633C6D5E0EA22E6E5
:200C200027F60809E637F60809E637F60809E637F622E026F608A3E036F608A3E036F60897
:200C4000A3E036F622E026F008A3E036F008A3E036F008A3E036F022C3E697F60809E697D4
:200C6000F60809E697F60809E697F622C3E096F008A3E096F008A3E096F008A3E096F022D6
:200C8000E657F60809E657F60809E657F60809E657F622E056F608A3E056F608A3E056F659
:200CA00008A3E056F622E056F008A3E056F008A3E056F008A3E056F022E0F608A3E0F60821
:200CC000A3E0F608A3E0F622E6F008A3E6F008A3E6F008A3E6F022E0FAA3E0FBA3E0FCA303
:200CE000E0FD22EAF0A3EBF0A3ECF0A3EDF022CAC0E0E6F0A308DAFAD0E0FA22CAC0E0E0A7
:200D0000A3C582CCC582C583CDC583F0A3C582CCC582C583CDC583DAE6D0E0CA22C3E49894
:200D2000F8E499F9120D5E8026C3E49AFAE49BFBE920E7E9120D5EE498F8E499F922C3E464
:200D400098F8E499F9120D5EE498F8E499F9C3E49AFAE49BFB22EB20E7CFE920E7E0B90005
:200D600010BB0008E88AF084F8AAF022E4FBC8FA22EB70227B10C833C8C933C9335007C366
:200D80009AC3DBF280069A50012ADBEAC833F4C8C933F4C9FA2275F008E4C833C8C933C964
:200DA00033C99AC99B5004C92AC93BD5F0ECFBC833F4C8E4C9FA22600D08C6A2E713C6180D
:200DC000C613C6D5E0F322600C08C6C313C618C613C6D5E0F422700422600D18C6C333C6B5
:200DE00008C633C6D5E0F41822251A10AF08F51A4002151B8008F51A4002151BD2AF22C056
:200E0000D0251A10AF08F51A5002051B8008F51A5002051BD2AFD0D022251AF58210AF08B2
:200E2000F51A4002151B8008F51A4002151BD2AF851B8322251AF582E4351BF58322E47387
:200E4000251AC582C0E0E51B34FFC583C0E0E51AC3958224F810AF0885831B85821A8008C9
:200E600085831B85821AD2AFCEF0A3E520F0A3780AE608F0A3DEFAEFF0A3E58124FAF8E6F5
:200E800008F0A3E608F0A3E608F0A30808E608F0A3E608F0A315811581D0E0FED0E0F8150C
:200EA0008115811581E8C0E0EEC0E022251AC582C0E0E51B34FFC583C0E0E51AC39582240F
:200EC000F910AF0885831B85821A800885831B85821AD2AFCEF0A3E520F0A3780AE608F068
:200EE000A3DEFAEFF0A3E58124FBF8E608F0A3E608F0A30808E608F0A3E608F0A3158115B9
:200F000081D0E0FED0E0F815811581E8C0E0EEC0E022851B83851A82E0A3FEE0A3F52078C1
:200F20000AE0A3F608DFFAE0A3FFE0A3C0E0E0A3C0E0E0A3C0E0E0A3C0E0E0A3C0E010AF5D
:200F40000885821A85831B800885821A85831BD2AFD083D082020ACE851B83851A82E0A3B2
:200F6000FEE0A3F520780AE0A3F608DFFAE0A3FFE0A3C0E0E0A3C0E0E0A3C0E0E0A3C0E0F1
:200F800010AF0885821A85831B800885821A85831BD2AFD083D0822274048006740280023C
:200FA0007401C0E0F404120E19D0E0120CEF227404800474028000CCC0E0EDC0E0E51AC35F
:200FC0009CCCAD1B50011D10AF068C1A8D1B80068C1A8D1BD2AF120CFCD0E0FDD0E0FC2276
:200FE000D083D082E9C0E0E493A3C386F0C5F095F0F908E493A386F0C5F095F0700BE49379
:20100000A3C3994005E9048002A3E475F002A42582F582E5F03583F583D0E0F9E493A3C0E5
:20102000E0E493C0E022D083D082ECC0E0EDC0E0E493A3FCE493A3FDED4C600D121072EC86
:2010400024FFFCED34FFFD80EFE493A3FCE493A3FDED4C600D1210B1EC24FFFCED34FFFD17
:2010600080EFD0E0FDD0E0FCE493A3C0E0E493C0E022C0E0C3E49396087401939618400F38
:20108000E49366700808740193661870007019A3A3C3E49396087401939618A3A3400DD03D
:2010A000E0D0E0D0E0021062A3A3A3A3A3A3D0E022C0E0C0F088F0E49366700808740193AB
:2010C00066187000A8F0A3A3700BD0F0D0E0D0E0D0E0021062A3A3D0F0D0E022D083D08208
:2010E000ECC0E0EDC0E0EEC0E0EFC0E0E493A3FCE493A3FDE493A3FEE493A3FFEF4E4D4C86
:201100006015121158EC24FFFCED34FFFDEE34FFFEEF34FFFF80E5E493A3FCE493A3FDE401
:2011200093A3FEE493A3FFEF4E4D4C6015121195EC24FFFCED34FFFDEE34FFFEEF34FFFFF7
:2011400080E5D0E0FFD0E0FED0E0FDD0E0FCE493A3C0E0E493C0E022C0E0C0F088F0120B9C
:2011600053A8F04007120AFBA8F0701AA3A3A3A3120B53A8F0A3A3A3A34013D0F0D0E0D051
:20118000E0D0E0021142A3A3A3A3A3A3A3A3A3A3D0F0D0E022C0E0C0F088F0120AFBA8F003
:2011A000A3A3A3A3700BD0F0D0E0D0E0D0E0021142A3A3D0F0D0E022C2AF02000022C0E0F6
:2011C000C0D0E8C0E0E9C0E0E5A8D2AFC2C7A2E7A2E792AFD0E0F9D0E0F8D0D0D0E032743D
:2011E000F5120EACEAFEEBFFEE2434F8EF3400F9880A890BEE2435F582EF3400F583E0F8AB
:20120000EE2437F582EF3400F583E0F50CEC850CF0A4FCAAF0850CF0EDA42AFDE82CF8E4C2
:201220003DF97A257B00120D5EEA850A82850B83F0F8740758F97401B900028004C333D99C
:20124000FCFAE8131313541FF8EE28F8EF3400F9E8245DF582E93400F583E05A6008EE24B9
:2012600034F582EF802CEE2434F582EF3400F583E0C0E0EE2436F582EF3400F583E0F5F031
:20128000D0E084A8F0EE28F8EF3400F9E82438F582E93400F583E0F97F04020F5874F512C8
:2012A0000EACEAFEEBFFEE2434F582EF3400F583E0C0E0EE2435F582EF3400F583D0E0F0D1
:2012C0008E828F83A3A3A3A3A3A3A3C082C0838E828F83A3A3A3A3A3E0F8A3E0F9D083D02A
:2012E00082E0C398F50AA3E099F50BEE247FF582EF3400F583E064017069EE2480F582EF5D
:201300003400F583E0F8A3E0F98E828F83A3A3A3A3A3A3A3E0FCA3E0FD8E828F83A3A3A3CF
:20132000A3A3E0FAA3E0FBC3EA9CEB9D5010C3EC98ED99402EC3EA98EB995027800EC3EA28
:2013400098EB994007C3EC98ED9940177CDA7D05EEFAEFFB12258DEE247FF582EF3400F578
:2013600083E4F0EE2434F8EF3400F9E8FCE9FDEE2435F582EF3400F583E0F8EE2437F58201
:20138000EF3400F583E0F50CE50A850CF0A4F50AAAF0850CF0E50BA42AF50BE8250AF8E4F2
:2013A000350BF97A257B00120D5EEA8C828D83F0F8740758F97401B900028004C333D9FC22
:2013C000FAE8131313541FF8EE28F8EF3400F9E8245DF582E93400F583E05A6008EE243400
:2013E000F582EF802CEE2434F582EF3400F583E0C0E0EE2436F582EF3400F583E0F5F0D014
:20140000E084A8F0EE28F8EF3400F9E82438F582E93400F583E0F9121CF1021298C082C0B0
:2014200083851A82851B83E0F8A3E0F9C3EA9CEB9D5010C3EC98ED99401BC3EA98EB99501F
:2014400014800EC3EA98EB994007C3EC98ED994004790180027900D083D08222EAC39CFA4A
:20146000EB9DFB2274EF120EAC9004A0E064086005E06407702A9061C8E060249004CEE06F
:20148000F4601DE0F875F003A4C8AAF02AF974D028FE740439FF8E828F83A3A3A3E07003FA
:2014A000021594906060E0C0E0EE2468F582EF3400F583D0E0F0750E43750F06750A007541
:2014C0000B00E5D914F50CE5D95403F510601774036510605CE50C6010EE2467F582EF3481
:2014E00000F583E0700302157990063EE06401602AEE2482F582EF3400F583E06004780488
:2015000080027800850C0AE50AC398FA95E0FB12245B8A0A8B0BEA450B700512276D80747E
:20152000EE2482F582EF3400F583E070048A0E8B0FE50C6012850E82850F83F50DE5D9F040
:20154000A3150DE50D70F6EE2482F582EF3400F583E0604474FC250CF50C780E120F9CACB3
:201560000CA910EEFAEFFB1226297402120DFFE97026AA0AAB0B121E85793D8E828F83A3C6
:20158000A3A3A3E0FA7B00122335EEFAEFFB1225A512263B79008074740365106056850CE2
:2015A000127513007812120F9CAC0EAD0FAA0AAB0B1226057402120DFFEE2468F582EF3485
:2015C00000F583E064807004747F8001E0F50E780E120FA0E510F50E780E120FA0A90CAC1D
:2015E0000AAD0B9004CEE0FA7B001222FF7402120DFF80139004A0E06408600BAC0EAD0FB7
:20160000EEFAEFFB12269512277979017F0A020F5874F5120EAC74FC120DE9EAFEEBFF8905
:201620000AA2AFE433F50BC2AF806AEE2463F8EF3400F97A007B00A2AFE433F50CC2AF88FD
:20164000828983E0FCA3E0FDEC4D603A88828983E0FAA3E0FB8A828B83E0FCA3E0FD8882DF
:201660008983ECF0A3EDF08A828B83E4F0A3F088828983E0FCA3E0FDEC4D700A8882898346
:20168000A3A3E4F0A3F0E50CA2E092AF121E859005E1E004F0EE2463F582EF3400F583E083
:2016A000F8A3E0F9E849603DEE2463F582EF3400F583E02402FAA3E03400FBEA2402F50C9E
:2016C000EB3400F50D780C120F9C8A828B83E0FCA3E0F9EEFAEFFB1225C97402120DFFE9E7
:2016E000700302162B9005E1E060639005E2E0F89005E1E0C398500C7402650A7050900585
:20170000E3E0604A8E828F83A3A3A3A3E0851A82851B83F0A3E4F09005E1E0F87402120E3F
:2017200034E8F0A3E4F09005E1E0F89005E0E028F07402120E34AC82AD83851A82851B83FF
:20174000AA82AB8379011223059005E1E4F0E50BA2E092AF7404120DFF021298852187858A
:2017600022C622C0E0C0D0E8C0E0E9C0E0EAC0E0EBC0E0ECC0E0EDC0E0EEC0E0C00AC00BCD
:20178000C00CC00DC082C083C0F0A2AFE433FEC2AF759B00906182E0A2E05012E591A2E065
:2017A000500C7591FE740165217003121464E0A2E55051E591A2E5504B7591DF9004A0E038
:2017C00064076005E06408702374016521703579019004CEE0FA75F003A4CAA8F028FB74FF
:2017E000D02AFA74043BFB1216118018E0640D70139004C2E004F064287002E4F07A00E04C
:20180000F912277F906182E0A2E640030218AAE591A2E640030218AA7591BF9004A0E064F3
:201820000570081226BF1226CB80031226C575210012271FE99004A1F079001227131224BA
:20184000FD7A017B0090049FE0F9121D71907803E064427055900642E014F0704DC2AF1297
:20186000186200782AD0E0F618D0E0F6E59F54077005750BFF8003750B7FC4C0E07829E6A8
:20188000F50A08E6550BF50B740B780A120DC7D0E0250AF8906270E0A2E740F8E8C33390CC
:2018A0006272F0906270E0D2E0F0906181E0A2E35009E5E9A2E3500375E9F7A3E0A2E750F9
:2018C00009E591A2E7500375917FEEA2E092AFD0F0D083D082D00DD00CD00BD00AD0E0FEF6
:2018E000D0E0FDD0E0FCD0E0FBD0E0FAD0E0F9D0E0F8D0D0D0E032C0E0C0D0C082C0839022
:201900006183E0A2E05009E5BFA2E0500375BFFEE0A2E15009E5BFA2E1500375BFFDE0A294
:20192000E25009E5BFA2E2500375BFFBE0A2E35009E5BFA2E3500375BFF7E0A2E45009E5B9
:20194000BFA2E4500375BFEFE0A2E55009E5BFA2E5500375BFDFE0A2E65009E5BFA2E6503E
:201960000375BFBFD083D0828088C0E0C0D0E8C0E0E9C0E0EAC0E0EBC0E0ECC0E0EDC0E055
:20198000C0F0E5A7A2E6500FE5A1A2E6500953A7BF75A1BF1219CFE5A7A2E5500CE5A1A29E
:2019A000E5500653A7DF75A1DFE5A7A2E15009E5A1A2E1500375A1FDE5A7A2E2500CE5A155
:2019C000A2E2500653A7FB75A1FBD0F00218E074F8120EAC7521019004A0E0640670151289
:2019E00026598A828B83A3A3A3A3A3A3E0FAA3E0FB1226ADA2AFE433FED2AF9004A6E064DA
:201A00000170187A207B0090049FE0F9121DE37A207B0090049FE0F9121D77906182E0D21E
:201A2000E6F090063FE0602185C62280169004A5E064017008E5C654F84405F5C653BEFC99
:201A400012175C7401652160E4EEA2E092AF7F01020F58FF8E238F24858228858327851AC8
:201A600082851B83E0CEA3E0CF852882852783EBC9EAC8EDCBECCA75F010C3E833C8E93358
:201A8000C9EA33CAEB33CBC3EA9EF526EB9FF525B35004AB25AA26EC33CCED33CDD5F0DA85
:201AA000AE23AF242274ED120EAC8A0A8B0B8C0C8D0D7413120E34780E120CB9780A790E96
:201AC000120B147512017513C87514007515005012780A790E120C587812790A120B14507B
:201AE000168010780E790A120C587812790E120B1440047901800279007F0C020F5874ED71
:201B0000120EAC8A0A8B0B8C0C8D0D7413120E34780E120CB9780E790A120B144011780A58
:201B2000790E120C58AA0AAB0BAC0CAD0D80227512007513007514007515017812790E12E4
:201B40000C587812790A120C1FAA12AB13AC14AD1580A68A828B83750AFF750BFF750CFF1E
:201B6000750D00780A120CA67F04020F5874F5120EAC8C828D83780A120CB98A828B837873
:201B80000A120C6CEA2404F8EB3400F98C828D83A3A3A3A3E0FCA3E0FD88828983C3E09C34
:201BA000F0A3E09DF088828983C3E09420A3E0944E40268A828B83750AFF750BFF750CFF56
:201BC000750DFF780A120C458A828B83A3A3A3A3E02420F0A3E0344EF0021B5374F5120EF7
:201BE000ACE9FE9005F5E0FAA3E0FBEEC333F8E433F974CC28F58274B039F583E02AF50AC7
:201C0000A3E03BF50B780A120F9C7A407B427C0F7D00121A547402120DFF8A0A8B0B8C0C72
:201C20008D0D7410780A120BE7AA0AAB0B7F04020F5874F1120EAC8A0E8B0F8C108D117499
:201C40000F120E34E0FAA3E0FB7411120E34E0F50AA3E0F50B780A120F9CEA2401F50AEB56
:201C60003400F50BE4F50CF50D780E790A120B67750A71750B02780E790A120B67AA0EAB5A
:201C80000FAC10AD11121A547402120DFF8B0BEA450B60047A0180027A00EC2AFCED3400C9
:201CA000FD7413120E34E0F8A3E0F9E8FEE9FFECF8EDF97A717B02120D5E880A890B8E8245
:201CC0008F83780A120CC8ECF8EDF97A717B02120D5E8A0A8B0B7405780A120DD68E828F22
:201CE00083A3A3A3A3E50AF0A3E50BF07F08020F58C082C083E9906000F0D083D08222125C
:201D00000AD19ED807120AD112D907120AD102DA07120AD107DA07120AD148A307120AD11B
:201D200052A307120AD190A307120AD1D9A307120AD113A407120AD16DA407120AD18EA441
:201D400007120AD197A407120AD1E4A407120AD10DA507120AD117A507120AD183A507124D
:201D60000AD115A607120AD15FA607120AD195A607120AD121A707120AD162A707120AD1F8
:201D800099A707120AD1ABA707120AD1C7A707120AD1D0A707120AD198A807120AD10ADAE4
:201DA00007120AD1D7D607120AD1F7CF07120AD12DD007120AD163D007120AD1AED1071224
:201DC0000AD1DCB607120AD1F1B607120AD1A4B707120AD1E4B707120AD1FDB707120AD181
:201DE00038B807120AD185B807120AD1B7B807120AD1F9B807120AD1B7DA07120AD1C9DA9E
:201E000007120AD161DA07120AD116DB07120AD121DB07120AD1EE3F00120AD152D907126C
:201E20000AD162D907120AD16BD907120AD1AFD907120AD1D6FE06120AD15BFF06120AD1D0
:201E4000C1FF06120AD18B9C07120AD1C89C07120AD1E39C07120AD1B49D07120AD1A29E64
:201E600007120AD10AA007120AD17CA007120AD164A107120AD1EBA107120AD104A3071287
:201E80000AD135D507120AD187D507120AD111D607120AD178D607120AD1B2CD07120AD189
:201EA000DCCD07120AD1AACE07120AD185CF07120AD1D5D306120AD177D706120AD1D1D74D
:201EC00006120AD1F0D706120AD14DD806120AD1B9D906120AD1A5DA06120AD1CEDE061282
:201EE0000AD19EDF06120AD1E8D107120AD1FFD107120AD130D207120AD16BD207120AD1FF
:201F000095D207120AD1BFD207120AD1D6D207120AD1EDD207120AD104D307120AD12DD3C7
:201F200007120AD140D307120AD156D307120AD169D307120AD12E8B07120AD1328C0712D5
:201F40000AD16A8C07120AD18D8C07120AD1988C07120AD1BB8C07120AD1CA8D07120AD111
:201F60009F8E07120AD11A8F07120AD1A28F07120AD1DD8F07120AD1149007120AD1A29054
:201F800007120AD17B9107120AD1DB9107120AD1E69107120AD1659207120AD16892071284
:201FA0000AD16B9207120AD1FA9207120AD1FD9207120AD12D9307120AD1579307120AD1C0
:201FC000459407120AD1F79407120AD1B2AD07120AD1DAAD07120AD108AE07120AD13FAE50
:201FE00007120AD19DAE07120AD1E8AE07120AD133AF07120AD173AF07120AD1B9AF0712B7
:202000000AD1E7AF07120AD1A4B007120AD1AEB007120AD1BBB007120AD1EEB007120AD1D0
:20202000BAB107120AD1C6B107120AD1DEB107120AD1E8B107120AD1D5D707120AD1EDD762
:2020400007120AD105D807120AD15AE006120AD136E106120AD19AE206120AD1F1E206122A
:202060000AD172E306120AD162E406120AD1AFE406120AD135E506120AD167E506120AD132
:202080007BE706120AD1BDE706120AD1DBE706120AD15EE806120AD132E906120AD1FAE975
:2020A00006120AD1689507120AD13B9607120AD1E49607120AD1379707120AD1E7970712B0
:2020C0000AD1739807120AD15F9907120AD18E9907120AD1A19A07120AD1E99A07120AD179
:2020E000BE9B07120AD1FA9B07120AD1169C07120AD1B6BE07120AD1DCBE07120AD1F8BFB7
:2021000007120AD102C007120AD137C107120AD12FC207120AD104BB07120AD130BB07128D
:202120000AD1F7BC07120AD1659006120AD1CF9006120AD12E9206120AD13E9206120AD16D
:202140006B9206120AD1C79206120AD1CE9306120AD1989406120AD1F89506120AD1419679
:2021600006120AD18E9606120AD1B49606120AD1C29806120AD1C79806120AD1CC9A0612FB
:202180000AD1199B06120AD18C9B06120AD1BF9B06120AD1619C06120AD10A9D06120AD1CC
:2021A000429D06120AD1459D06120AD18D9D06120AD1CD9D06120AD12ACB07120AD142CB08
:2021C00007120AD18ACB07120AD1A0CB07120AD1E7CB07120AD1FBCC07120AD188CD071294
:2021E0000AD198B105120AD1D3B105120AD118B205120AD1D8B205120AD15EB305120AD118
:20220000C3B305120AD1EFB305120AD128B405120AD166B605120AD14AB805120AD130BA08
:2022200005120AD173BB05120AD1C1BD05120AD1D3BE05120AD11EC005120AD12EC10512C3
:202240000AD14BC105120AD186C105120AD1A8C105120AD10BC205120AD1CCC605120AD1CE
:2022600061C705120AD1B3C705120AD1D1C705120AD12BC805120AD12AC905120AD1AEC90D
:2022800005120AD1C6A807120AD1D0A807120AD113A907120AD12EA907120AD1BEA9071283
:2022A0000AD1E6A907120AD123AA07120AD15AAA07120AD183AA07120AD1F8AA07120AD150
:2022C0000DAB07120AD122AB07120AD163AB07120AD19DAB07120AD1C9AB07120AD1F7AB49
:2022E00007120AD142AC07120AD1ECAC07120AD135AD07120AD15FAD07120AD18AAD071256
:202300000AD1D2FE05120AD130C706120AD17EC806120AD15EC906120AD17DC906120AD1AA
:20232000FAC906120AD13DCA06120AD193CB06120AD154CC06120AD1DBCE06120AD17CCFA2
:2023400006120AD172D006120AD16FD106120AD1C9D206120AD154D306120AD1673E0012C3
:202360000AD1D03E00120AD1243F00120AD14B3F00120AD17C3F00120AD16FB207120AD103
:20238000DCB207120AD123B307120AD13BB407120AD137B507120AD11AB607120AD169F60B
:2023A00005120AD1ABF605120AD17DF705120AD156F805120AD150F905120AD132FA051274
:2023C0000AD19BFA05120AD151FB05120AD1C5FB05120AD131FC05120AD15AFC05120AD144
:2023E000D4FC05120AD16DFD05120AD1D2FD05120AD1E7FD05120AD12DFE05120AD146FEC7
:2024000005120AD1ABFE05120AD1AEFE05120AD157C807120AD17FC807120AD1BDC80712A5
:202420000AD17BC907120AD1E2C907120AD1FEC907120AD126CA07120AD156CA07120AD137
:2024400065CA07120AD1E2CA07120AD1008006120AD1DE8106120AD1108406120AD14C849D
:2024600006120AD1798406120AD1638506120AD1AE8506120AD1F98506120AD12E8606123B
:202480000AD17C8606120AD1AB8606120AD1CE8606120AD11B8706120AD1A08706120AD152
:2024A000BA8906120AD1F98B06120AD13A8C06120AD1DC8D06120AD11D8E06120AD1908E9E
:2024C00006120AD1DC8E06120AD18A8F06120AD116BA06120AD114BB06120AD1ADC1061295
:2024E0000AD1CEC306120AD199C506120AD101C706120AD115CA05120AD1C4CA05120AD120
:202500000ACB05120AD140CC05120AD19DCC05120AD1CBCC05120AD161CE05120AD1DBCE48
:2025200005120AD156CF05120AD1B0D005120AD110D205120AD116D305120AD177D405120F
:202540000AD190D405120AD1EED405120AD1DCD505120AD10FD605120AD17FD605120AD1D5
:20256000F9D605120AD143D705120AD10DD805120AD1E2D805120AD1C1D905120AD14CDA59
:2025800005120AD1BADA05120AD12EDB05120AD159DB05120AD118DC05120AD17DDD05124B
:2025A0000AD19ADD05120AD1B9DD05120AD1AADE05120AD1CFDE05120AD1F9DE05120AD16D
:2025C00074DF05120AD1CEDF05120AD137E105120AD1E5E105120AD126E205120AD1BA9E03
:2025E00006120AD1089F06120AD1149F06120AD1F29F06120AD123A006120AD154A0061262
:202600000AD1D4A006120AD10CA106120AD15EA106120AD19BA106120AD1B8A306120AD169
:20262000DEA506120AD1C9A706120AD1B3A906120AD1EBFF05120AD156E205120AD186E204
:2026400005120AD15FE905120AD1E4EA05120AD1E1F005120AD1C9F105120AD106F2051210
:202660000AD129F205120AD15AF205120AD163F205120AD16DF205120AD15BF305120AD15C
:2026800051F405120AD1582900120AD1572D00120AD15D2D00120AD1983400120AD1B1390A
:2026A00000120AD139C207120AD133C307120AD1A7C307120AD1E5C307120AD159C4071224
:2026C0000AD1D2C407120AD1DBC407120AD1E7C407120AD1FCC407120AD13AC507120AD1BC
:2026E00050C507120AD180C507120AD18DC507120AD1A7C507120AD1E6C507120AD124C669
:2027000007120AD189C607120AD19EC607120AD1A9C607120AD1B6C607120AD1CDC60712AB
:202720000AD1DBC607120AD1E6C607120AD1F2C607120AD101C707120AD10CC707120AD15A
:2027400029C707120AD139C707120AD14FC707120AD16BC707120AD176C707120AD18BC7EE
:2027600007120AD19FC707120AD100C807120AD106C807120AD10CC807120AD112C80712D2
:202780000AD124C807120AD193AC06120AD11FAD06120AD17EAE06120AD19FB006120AD12C
:2027A0008BB106120AD1C0B106120AD1E2B106120AD191B206120AD189B406120AD1B2B434
:2027C00006120AD144B506120AD176B506120AD183B506120AD1DAB506120AD100B6061281
:2027E0000AD16DB806120AD170B906120AD1C8B906120AD13CEC06120AD146EC06120AD116
:2028000068EC06120AD174EC06120AD10DEE06120AD13CEE06120AD158EF06120AD1B1EF39
:2028200006120AD125F106120AD192F106120AD1CDF106120AD10CF206120AD1C5F40612B3
:202840000AD1DFF406120AD16BF506120AD179F506120AD1D2F506120AD1E0F506120AD1A1
:2028600053F606120AD1B7F606120AD101F706120AD1008007120AD1228007120AD14882BD
:2028800007120AD15D8507120AD1758607120AD1288707120AD10A8807120AD190D30712DA
:2028A0000AD1B5D307120AD127D407120AD18AF706120AD193F706120AD19CF706120AD15B
:2028C00073F806120AD124FA06120AD15AFA06120AD194FA06120AD1CAFA06120AD104FB0B
:2028E00006120AD138FB06120AD164FB06120AD1ADFB06120AD1E7FB06120AD130FC0612B9
:202900000AD188FC06120AD1BDFC06120AD118FD06120AD152FD06120AD1A3FD06120AD1DC
:20292000D9FD06120AD113FE06120AD136FE06120AD1DAFF06120AD1E4FF06120AD1F4FF0E
:2029400006120AD1C23F00120AD1F8DA07FFFFFFFFFFFFFFFFFFFFFF74F4120E40907803F5
:20296000E064427055900642E014F0704DC2AF12297200782AD0E0F618D0E0F6E59F540790
:202980007005750BFF8003750B7FC4C0E07829E6F50A08E6550BF50B740B780A120DC7D0D2
:2029A000E0250AF8906270E0A2E740F8E8C333906272F0906270E0D2E0F09004CEE0F47051
:2029C00003022D52E0F875F003A4C8AAF02AF974D028FE740439FFEE2401F582EF3401F54D
:2029E00083E0F8A3E0F9E849601EEE2401F582EF3401F583E0FAA3E0FBEE2400F582EF3427
:202A000001F583E0F9121D718E828F83A3A3A3A3A3A3A3E0F8A3E0F98E828F83A3A3A3A32B
:202A2000A3E8F0A3E9F0906054E09004A7F0906055E09004A8F0906056E09004A9F09060BC
:202A400057E09004AAF0906058E09004ABF0906059E09004ACF090605AE09004ADF0906016
:202A60005BE09004AEF090605CE0FC9004AFF090605DE0FB9004B0F090605EE0FD9004B1C2
:202A8000F090605FE0FA9004B2F09004ADE08C0A250AF8E43400F98D0AE8250AF8E9340035
:202AA000F98B0AE8250AF8E93400F98A0AE8250AFAE93400FBEE24F6F582EF3400F583E0AC
:202AC0002AF0A3E03BF08C0AEE24F8F582EF3400F583E0250AF0A3E03400F0EE24FAF58253
:202AE000EF3400F583E02401F0A3E03400F0EE24FEF582EF3400F583E0F8A3E0F9E8496098
:202B000042906000E0C333FCE433FDE82CF582E93DF583E02AF0A3E03BF0906000E0FA9072
:202B200004AFE0FCEAC333FAE433FBE82AF8E93BF9E8244AF582E93400F583E02CF0A3E012
:202B40003400F09004ADE070119004B0E0700BA3E07007A3E07003022C4F8E828F83A3A33B
:202B6000A3A3A3E0F8A3E0F9EE240DF582EF3400F583E028F8A3E039F9EE240BF582EF347B
:202B800000F583E8F0A3E9F0EE240FF582EF3400F583E4F0EE241CF582EF3400F583E064DE
:202BA00001701EEE2420F582EF3400F583E0F8A3E0F9EE241DF582EF3400F583E8F0A3E949
:202BC000F09004A8E06052EE241CF582EF3400F5837401F0EE2469F582EF3400F583E070B5
:202BE00038EE2473F582EF3400F583E0702BEE247FF582EF3400F583E0701EEE2420F582D1
:202C0000EF3400F583E0F8A3E0F9EE241DF582EF3400F583E8F0A3E9F0906062E070030289
:202C20002D028E828F83E0F8A3E0F9E82406FCE93400FDE82402FAE93400FB1226D18E828E
:202C40008F83E0F8A3E0C82412F582E8022D089004AFE0603AEE240FF582EF3400F583E49F
:202C6000F0EE241CF582EF3400F583E064017040EE2420F582EF3400F583E0F8A3E0F9EEA9
:202C8000241DF582EF3400F583E8F0A3E98020EE24FCF582EF3400F583E02401F0A3E03411
:202CA00000F0EE241DF582EF3400F583E4F0A3F0EE240BF582EF3400F583E0F8A3E0F98E6B
:202CC000828F83A3A3A3A3A3E0687003A3E0696003022BC1EE240FF582EF3400F583E060C6
:202CE000128E828F83A3A3A3A3A3E064057002A3E0600479088002793EEEFAEFFB1225AB61
:202D00008050EE241DF582EF3400F583E4F0A3F09061C8E06006121464E970F48E828F8343
:202D2000A3A3A3E0602C9061C8E070069060607480F0EEFAEFFB12269BE964016014790219
:202D4000EEFAEFFB12161112268FE96401600312263B7F04020F1253BFEF020ACE74EC128A
:202D60000E409004CEE0F875F003A4C8AAF02AF974D028FE740439FF9061D0E07013EE24EA
:202D800063F582EF3400F583E0F8A3E0F9E849600FEE241DF582EF3400F583E4F0A380533F
:202DA000EE2469F582EF3400F583E07047EE2473F582EF3400F583E0703AEE247FF582EFD7
:202DC0003400F583E0702DEE241CF582EF3400F583E06401701EEE2420F582EF3400F58373
:202DE000E0F8A3E0F9EE241DF582EF3400F583E8F0A3E9F08E828F83A3A3A3A3A3E0F8A31E
:202E0000E0F9EE241DF582EF3400F583E028F8A3E039F9E8240108E93400F9EE2407F50C9E
:202E2000EF3400F50D850C82F583E8F0A3E9F0EE240BF582EF3400F583C3E098A3E09950B8
:202E4000358E828F83A3A3A3A3A3A3A3C082C083EE240BF582EF3400F583E0F8A3E0F9D0CE
:202E600083D082E0C398F8A3E099F9C3E894AAE994105035803BEE240BF582EF3400F58350
:202E8000C082C0838E828F83A3A3A3A3A3A3A3E0F8A3E0F9D083D082E0C398F8A3E099F9D5
:202EA000C3E894ABE9941050089005E5E064017030EE241DF582EF3400F583E4F0A3F08EAE
:202EC000828F83A3A3A3A3A3E02401F8A3E03400F98E828F83A3A3A3A3A3A3A3E8F0A3E987
:202EE000F0EE2473F582EF3400F583E064016003023158EE2474F582EF3400F583120FB3AC
:202F00008E828F83A3A3A3A3A3A3A3E0FCA3E0FD8E828F83A3A3A3A3A3E0FAA3E0FB1214EF
:202F20001D7402120DFFE97003023158EE2474F8EF3400F9880A890B8882F583E0F8A3E05C
:202F4000F9850C82850D83E8F0A3E9F0EE2476FCEF3400FDEEFAEFFB1225B7EE247BF58294
:202F6000EF3400F583E0F8A3E0F9EE2420F582EF3400F583E8F0A3E9F0EE241CF582EF3402
:202F800000F583E4F0EE241DF582EF3400F583E4F0A3F0EE240FF582EF3400F5837401F0A5
:202FA000850C82850D83E0F8A3E0F9EE240DF582EF3400F583E028F8A3E039F9EE240BF59D
:202FC00082EF3400F583E8F0A3E9F08E828F83A3A3A3A3A3E0FCA3E0FD850A82850B83E0CF
:202FE000FAA3E0FB12145C8A0A8B0BEE242EF582EF3400F583E0FAA3E0FBE4F50CF50D8A92
:203000000E8B0FF510F511780A790E120B67EE2477F582EF3400F583E0F50EA3E0F50F78F3
:203020000A790E120C1FEE2479F582EF3400F583E06A7003A3E06B7044EE247DF582EF349D
:2030400000F583E0F8A3E0F9EE2432F582EF3400F583E0687003A3E0697022EE247BF58211
:20306000EF3400F583E0F8A3E0F9EE2430F582EF3400F583E0687003A3E0696052EE247D25
:20308000F582EF3400F583E0F50EA3E0F50F7404780E120DC7780E120F9CEE247BF582EF9A
:2030A0003400F583120FB3EE2479F582EF3400F583E0FCA3E0C313FDEC13FC8E828F83A301
:2030C000A3A3A3E0FA7B0012233B7404120DFFEE2476F582EF3400F583E0C0E0EE242BF560
:2030E00082EF3400F583D0E0F0EE2479F582EF3400F583E0F8A3E0F9EE242EF582EF340048
:20310000F583E8F0A3E9F0EE247BF582EF3400F583E0F8A3E0F9EE2430F582EF3400F5839C
:20312000E8F0A3E9F0EE247DF582EF3400F583E0F8A3E0F9EE2432F582EF3400F583E8F018
:20314000A3E9F0EEFAEFFB1225BDEE2473F582EF3400F583E4F08016EE242EF582EF340052
:20316000F583E0F50AA3E0F50BE4F50CF50DEE2418F582EF3400F583780A120AE6701EEE52
:20318000241FF582EF3400F583E0F8EE241DF582EF3400F583E0687002A3E06039EE2412C7
:2031A000F50EEF3400F50F780E120F9CEE2410F582EF3400F583120FB3EE241DF582EF34D1
:2031C00000F583120FB3AA0AAB0BAC0CAD0D121C327406120DFFEE2418F582EF3400F58393
:2031E000780A120CC8EE241DF582EF3400F583E0C0E0EE241FF582EF3400F583D0E0F0EED5
:203200002412FCEF3400FD8E828F83E02402FAA3E03400FB121B6D906062E060147C1C7D33
:20322000B18E828F83E02402FAA3E03400FB121B6D8E828F83E0F8A3E0F988828983A3A39D
:20324000E82408FCE93400FD7406120CFC8E828F83E02402F8A3E03400F9E8FAE9FBEE2408
:203260001DF582EF3400F583E0F512A3E0F513E4F514F515750E01F50FF510F51178127920
:203280000E120C1F7812790A120B678A828B837812120C458A828B83750EFF750FFF7510A7
:2032A000FF780E120CA69005DFE0640160030233E579011227138E828F83E0FAA3E0FB75DA
:2032C0000AFF750BFF750CFF750DFFEA240EF582EB3400F583780A120CC8EA2412F8EB349C
:2032E00000F9E8FAE9FBEE2412F582EF3400F583780A120CB9E50A75F0E2A4C50AA8F075CA
:20330000F004A428F875F0E2E50BA428F50B8A828B83E0250AF0A3E0350BF0EE2416F58287
:20332000EF3400F583E0F50AA3E0F50B7404780A120DC7E50A2401F8E50B3400F98A828BF0
:2033400083E028F0A3E039F0906062E08E828F837003023459E0F8A3E0C82412F582E83404
:2033600000F583E02410F0A3E03401F0EE240FF582EF3400F583E06032EE242BF582EF34AD
:2033800000F583E0F875F071A4C8AAF075F002A42AF98E828F83E0FAA3E0CA2412F582EAF3
:2033A0003400F583E028F0A3E039F08E828F83E0F8A3E0C82414F582E83400F5837410F0C1
:2033C0008E828F83E0F8A3E0C82416F582E83400F583743FF0A37425F0EEFAEFFB12129D01
:2033E00079000239AC750E50750F00751000780E790A120B1440030232B6EE241DF582EF95
:203400003400F583E0F8A3E0F9E84960030232B6780A120F98EEFAEFFB1225C37404120D90
:20342000FFE9640160030232B6EE240FF582EF3400F583E060128E828F83A3A3A3A3A3E03C
:2034400064057002A3E0600479088002793EEEFAEFFB1225AB79018089E0F8A3E0C8241260
:20346000F582E83400F583E02410F8A3E034FFF97A717B02120D5E880A890BEE242EF582C4
:20348000EF3400F583E0F8A3E0F9C3E50A98E50B99500302336C80B074EC120E40EAFEEBB3
:2034A000FF8C828D83E0F8A385820A85830B603B14700302368014700302397514700302B6
:2034C00036FC24FD70030238151470030239AC14700302386C24FE700302381A14700302CA
:2034E000385C1470030238F802399BEE2476F512EF3400F513E0851282851383F0850A82DA
:20350000850B83A385820A85830BEE2477F510EF3400F5117902AC0AAD0BAA10FB1225D570
:203520008A0A8B0BEE2479F50EEF3400F50F7902AC0AAD0BAA0EFB1225D58A0A8B0B79025F
:20354000AC0AAD0BEE247BFAEF3400FB1225D58A0A8B0BEE247DF50CEF3400F50D7902AC46
:203560000AAD0BAA0CFB1225D58A0A8B0B851282851383E0C333F0851082851183E0F8A3FD
:20358000E0F9E8C333F8E933F9851082851183E8F0A3E9F0850E82850F83E0F8A3E0F9E87B
:2035A000C333F8E933F9850E82850F83E8F0A3E9F0850C82850D83E0F50EA3E0F50F74047E
:2035C000780E120DD6850C82850D83E50EF0A3E50FF0EE2474F50CEF3400F50D7902AC0A01
:2035E000AD0BAA0CFB1225D5850C82850D83C082C0838E828F83A3A3A3A3A3E0F8A3E0F904
:20360000D083D082E0C398F8A3E099F9C3E894FFE9947F40030236D6EE247DF582EF340009
:20362000F583E0F50AA3E0F50BE4F50CF50DEE247BF582EF3400F583E02401F50EA3E0346B
:2036400000F50FE4F510F511EE2479F582EF3400F583E0F8A3E0F9E8C333F8E933F9881201
:203660008913E4F514F515780E7912120B67780A790E120B144004793B805DEE24738062AC
:20368000EE2480F50CEF3400F50D7402C0E07905AC0AAD0B7ADA7B051225D5EAFCEBFDD0F2
:2036A000E0F9AA0CAB0D1225D5850C82850D83C082C0838E828F83A3A3A3A3A3E0F8A3E05E
:2036C000F9D083D082E0C398F8A3E099F9C3E894FFE9947F40097928EEFAEFFB023996EE4F
:2036E000247FF582EF3400F5837401F0EE241DF582EF3400F583E4F0A3023868EE24E1F56E
:2037000082EF3400F583E07039EEF8EFF97AB37B048A828B83A3E0C0E0E824E2F582E934CA
:2037200000F583D0E0F08A828B83A3AA82AB8388828983A3A882A983EA64BB7003EB64047C
:2037400070CFEE24E2F582EF3400F583E0A2E0EE401124DDF582EF3400F583741AF0790D6C
:2037600002396F2462F582EF3400F583E4F0EE2467F582EF3400F583E4F0EE24E0F582EF7C
:203780003400F5837401F07908AC0AAD0BEE249BFAEF3400FB1225D58A0A8B0B7902AC0AFD
:2037A000AD0BEE24A3FAEF3400FB1225D58A0A8B0BEE2493F50CEF3400F50D7908AC0AAD9F
:2037C0000BAA0CFB1225D58A0A8B0B7908AA0CAB0D1225DBEE2487F50CEF3400F50D7904BA
:2037E000AC0AAD0BAA0CFB1225D57904AA0CAB0D1225DBEE248BFAEF3400FB1225EDEE24B6
:2038000083FAEF3400FB1225F39004A2E04480F0790402396FEE24DE8045EE2462F582EF63
:203820003400F583E4F0EE2467F582EF3400F583E4F0EE24D2F582EF3400F583E4F0EE24CD
:20384000DCF582EF3400F5837401F0EE24D3F582EF3400F583E4F0790B0239A9EE24DFF5FC
:2038600082EF3400F5837401F00239ACEEF8EFF97AB37B048A828B83A3E0C0E0E824E2F545
:2038800082E93400F583D0E0F08A828B83A3AA82AB8388828983A3A882A983EA64BB7003CF
:2038A000EB640470CFEEF8EFF97AB37B048A828B83A3E0FC850A82850B83E05CC0E0E82457
:2038C000E2F582E93400F583D0E0F0850A82850B83A385820A85830B8A828B83A3AA82ABDB
:2038E0008388828983A3A882A983EA64BB7003EB640470B979098077EE24EAF582EF34002F
:20390000F583E06401700302399B850A82850B83E0C0E0EE24EDF582EF3400F583D0E0F04C
:20392000850A82850B83A385820A85830B7402C0E0F9AC0AAD0BEE24EEFAEF3400FB1225D0
:20394000D5EAFCEBFDD0E0F9EE24F0FAEF3400FB1225D5EE24EAF582EF3400F5837401F082
:20396000EE24ECF582EF3400F583E0703F790CEEFAEFFB8034EE24F4F8EF3400F9E0888299
:203980008983F0EE24F3F582EF3400F5837401F088828983E0F91225AB8011EE24F5F582CF
:2039A000EF3400F583E8F0790712257B7F0C020F1274F6120E40EAFEEBFF023BF7EEFAEF0D
:2039C000FB12256F023E43EE2469F582EF3400F583E06401703E9004AAE07003023CD3EEB3
:2039E000FAEFFB122581EE24A3F50AEF3400F50B780A120F9CEE249BFCEF3400FD8E828FAD
:203A000083A3A3A3A3E0FA7B001223477402120DFF023BF7EEFAEFFB122545023E43EE241B
:203A200069F582EF3400F583E0640170559004AAE06031EE2482F582EF3400F5837401F047
:203A4000EE24D4F582EF3400F583E4F0A3F0A3F0A3F0EE24D8F582EF3400F583E4F0A3F07E
:203A6000A3F0A3F0EE24DEF582EF3400F583E064016003023CD37906EEFAEFFB1225870254
:203A80003BF7EE24D2F582EF3400F583E06401702AEEFAEFFB12254BE964016003023E607A
:203AA000EE24DEF582EF3400F583E4F0EE2469F582EF3400F5837401023E4EEE24D3F58244
:203AC000EF3400F583E07003023E60EE24B2F50AEF3400F50B780A120F9CEE248BFCEF3477
:203AE00000FDEE24C2FAEF3400FB1225F97402120DFFEE24D2F582EF3400F5837401023B71
:203B0000BFEE2469F582EF3400F583E064016003023BC29004AAE07003023CD3EE2420F5E9
:203B200082EF3400F583E0F8A3E0F9EE241DF582EF3400F583E8F0A3E9F0EEFAEFFB122576
:203B400081EE2462F582EF3400F5837401F0EE2467F582EF3400F5837401F0EE24DCF582A4
:203B6000EF3400F583E06401701379008E828F83A3A3A3A3E0FA7B0012235380137C017955
:203B8000008E828F83A3A3A3A3E0FA7B0012234DEE24DCF582EF3400F583E4F0EE24E0F5E5
:203BA00082EF3400F583E4F0EE24DFF582EF3400F583E4F0EE24DEF582EF3400F583E4F067
:203BC0008035EEFAEFFB122551023E43EE2469F582EF3400F583E064016003023C62EE246C
:203BE000DFF582EF3400F583E064016003023CD3EEFAEFFB122581EE246EF582EF3400F582
:203C000083E07003023E60EE246AF582EF3400F583E024FE602F24FE70030239C7147003F1
:203C2000023A1E147003023B01147003023E5124FE7003023D0524FE6092147003023D5248
:203C400014604C80B2EE2469F582EF3400F583E0640160030239BD9004A9E06076791602C1
:203C60003E24EEFAEFFB122557E964016003023E60EE24DFF582EF3400F583E4F0EE2482C6
:203C8000F582EF3400F583E4F0EE2469023AF5EE2469F582EF3400F583E06401705D90045F
:203CA000AAE06026EE2482F582EF3400F583E4F0EE2462F582EF3400F5837401F0EE246716
:203CC000F582EF3400F5837401F09004A9E06003023BF0EE2471F8EF3400F988828983E033
:203CE00024FFF0A3E034FFF088828983E0F8A3E0F9E8496003023E60023E22EEFAEFFB1227
:203D0000255D023E43EE2469F582EF3400F583E0640170349004AAE060B9EE24E1F582EF98
:203D20003400F5837401F0EE2420F582EF3400F583E0F8A3E0F9EE241DF582EF3400F58399
:203D4000E8F0A3E9F0023BF0EEFAEFFB122563023E43EE2469F582EF3400F583E0640160C1
:203D600003023E2FEE24EAF582EF3400F583E064017051EE24EBF582EF3400F583E0640169
:203D80006003023BF0EE24F0F582EF3400F583120FB3EE24EEF582EF3400F583120FB3EED7
:203DA00024EDF582EF3400F583E0FC8E828F83A3A3A3A3E0FA7B0079001223417404120D7B
:203DC000FF023BF0EE2471F8EF3400F988828983E024FFF0A3E034FFF088828983E0F8A3E0
:203DE000E0F9E849707AEE24F0F582EF3400F583120FB3EE24EEF582EF3400F583120FB301
:203E0000EE24EDF582EF3400F583E0FC8E828F83A3A3A3A3E0FA7B00792212234174041217
:203E20000DFF7922EEFAEFFB1225AB79018033EE24ECF582EF3400F5837401F0EEFAEFFBB3
:203E4000122569EE2469F582EF3400F583E9F0800FEEFAEFFB122575E964017003023BF061
:203E600079007F02020F12C082C083E9FD74076A7001EB601874056A7001EB601074046A70
:203E80007001EB600874066A7001EB703AEAF8EBF9E875F003A4F8ACF075F003E9A42CF90C
:203EA000742D28F8740439F9E824F4F582E934FFF583EAF0A3EBF0E824F6F582E934FFF5AA
:203EC00083EDF0790080027902D083D082020ACE74F6120E40EAFEEBFF8C0A8D0B8C828D28
:203EE00083E0F8A3E0F97407687001E9601C7405687001E960147404687001E9600C740663
:203F0000687001E96004790280177901122431E970047914800BAC0AAD0BEEFAEFFB12239E
:203F2000AD023F7774F6120E40E9FE750AB9750B23780A120F9C8C0A8D0B780A120F9CEEF6
:203F4000FC7901023F6F1223A1802774F6120E40E9F50A780A120FA0750A03780A120FA004
:203F6000750AC5750B23780A120F9C791280D71223A77404120DFF7F02020F12C082C0839E
:203F800074FC120DE97402120E34EAF0A3EBF0851A82851B83ECF0A3EDF090042BE06401E3
:203FA0007018851A82851B83AC82AD837402120E34AA82AB8379011222937404120DFF02DA
:203FC0003EC9C082C083851A82851B83E0F8A3E0F9E84960128A828B83ECF0A3E824FF185E
:203FE000E934FFF94870F2D083D082020ACE7402F5D575D49C7402F5D375D2A4020ACEFF5C
:20400000A13CFFFF0500009442424242FFFFFFFFFFFFFFFFFFFFFFFFFFFFFFFFFFFFFFFF38
:20402000000102030405060708090A0BFFFFFFFF0243D402575BFFFFFFFFFFFFFFFFFFFF7F
:20404000FFFFFFFFFFFFFFFFFFFFFFFFFFFFFFFFFFFFFFFFFFFFFFFFFFFFFF024FB5FFFF77
:20406000FFFFFF024F0DFFFFFFFFFF024FD9FFFFFFFFFF024F8CFFFFFFFFFFFFFFFFFFFFF2
:20408000FFFFFF0257CEFFFFFFFFFFFFFFFFFFFFFFFFFFFFFFFFFFFFFFFFFF024E10FFFFB3
:2040A000FFFFFFFFFFFFFFFFFFFFFF024E95FFFFFFFFFF0255C701023087010000208702A9
:2040C00054870100005E8710A0850300008802025887030000810202548701000061871020
:2040E000708503000000000230870100002687025487010000628710C08502000000000241
:204100005887030000A286025687010000000002548701000062871090850200005F8702DF
:204120005887030000A2860256870100005F870000A15E955E009001000000D5818A823298
:2041400082D4830B81DA8200804086698330844C86768125830000560000020000000030BF
:20416000FF020202020202020202010D00000010010230870100001A87025487010000EBEB
:204180000B025C870100009E03025487010000EC0B024C870100003887025487010000ED58
:2041A0000B0248870100003687025487010000EE0B024687010000D184025487010000EF9C
:2041C0000B0244870100003487025487010000F00B024287010000DF85025487010000F173
:2041E0000B024087010000B284025487010000F20B023E870100000B86025487010000F3AF
:204200000B023C87010000F40BFF00080101000302010600000000000000000000000000B9
:20422000000000000000000000000000000000FFFF0110002000E80393639F63FF0000B4B9
:20424000000028002800283075A000A000A000A00000080008E001F00010001000100010A0
:20426000001000100050005000500010001000D0070000000000000F000100050030750776
:20428000001000010081FF00000000FFB364D164B964FF02020208025000A0000000E8033B
:2042A00002308701000023870254870100001D0D02528701000062060254870100001E0D45
:2042C000024E8701000078060254870100001F0D024A870100007A06025487010000200D1F
:2042E000023A870800007B06025487010000210D027686010000220DFF0100FF2002308760
:204300000100001D87025487010000860D022C870000000000025887030000C806B96AB944
:204320006AB96AB96AB96AB96AB96AB96AB96AB96AB96AB96AB96A776D8F6D716DE5C754D4
:20434000F84405F5C779012200000080FB12433DB900030243BEE479217815B800028004AF
:20436000F709D8FCE479367802B800028004F709D8FCE490028078C279098002F0A3D8FCAF
:20438000D9FA781C9040B67A01BA00028007E493A3F608DAF9900B41AA82AB839040B77852
:2043A0008779038015E493A3AC82AD838A828B83F0A3AA82AB838C828D83D8E9D9E7758250
:2043C000807583C274041243E675824875834374001243E675D00075813F751A80751B02AC
:2043E000759F0002434DC09FF59FE473D09F22D083D082C09FE493C0E0740193C0E0740203
:2044000093F59F22E066701008A3E066700A08A3E066700408A3E06622E4936670130874CE
:20442000019366700C08740293667005087403936622C3E7960809E7960809E7960809E72C
:2044400096A2D265D03322C3E09608A3E09608A3E09608A3E096A2D265D03322C00AC3E0C1
:2044600096F50A08A3E096420A08A3E096420A08A3E096420AA2D265D033E50A7001D3D081
:204480000A22C3E7960809E7960809E7960809E79622C3E09608A3E09608A3E09608A3E0DE
:2044A0009622C00AC3E096F50A08A3E096420A08A3E096420A08A3E096450A7001D3D00ADA
:2044C00022C3E4939608740193960874029396087403939622080808EAC0E0EBC0E086F030
:2044E000E7A4FA180986F0E7A42AFA180986F0E7A42AFA180986F0E7A42AFA1986F0E7A44B
:20450000FBE5F02AFA190886F0E7A42BFBE5F03AFA190886F0E7A42BFBE5F03AFA181809CC
:2045200086F0E7A4C5F02BFBE43AFA1908E7C5F0C6A426F6E5F03BFBE43AFA1886F0E7A408
:20454000F6E5F00826F6E43B08F6E43A08F6D0E0FBD0E0FA22E4CFC0E0E4CEC0E0E4CDC0A6
:20456000E0E4CCC0E075F020C3E633F608E633F608E633F608E633F6181818EC33FCED33EC
:20458000FDEE33FEEF33FFC3EC9709ED9709EE9709EF97191919400FFFEC97FC09ED97FD4C
:2045A00009EE97FE191906D5F0BEECF709EDF709EEF709EFF7191919D0E0FCD0E0FDD0E0B3
:2045C000FED0E0FF2212462D18181812455512461C1919192212461C191919080808E618DD
:2045E000181820E7E012455512462D18181822090909E719191920E7DC080808E618181893
:2046000020E70302455512462D18181812455512462D18181812461C19191922E4C397F798
:2046200009E497F709E497F709E497F722E4C396F608E496F608E496F608E496F6226017B3
:20464000080808C6A2E713C618C613C618C613C618C613C6D5E0E9226016080808C6C3130B
:20466000C618C613C618C613C618C613C6D5E0EA227009080808226016181818C6C333C69B
:2046800008C633C608C633C608C633C6D5E0EA22E627F60809E637F60809E637F60809E6C2
:2046A00037F622E026F608A3E036F608A3E036F608A3E036F622E026F008A3E036F008A316
:2046C000E036F008A3E036F022C3E697F60809E697F60809E697F60809E697F622C3E096E4
:2046E000F008A3E096F008A3E096F008A3E096F022E657F60809E657F60809E657F60809A9
:20470000E657F622E056F608A3E056F608A3E056F608A3E056F622E056F008A3E056F00872
:20472000A3E056F008A3E056F022E647F60809E647F60809E647F60809E647F622E046F0C6
:2047400008A3E046F008A3E046F008A3E046F022E066F008A3E066F008A3E066F008A3E071
:2047600066F022E0F608A3E0F608A3E0F608A3E0F622E6F008A3E6F008A3E6F008A3E6F0ED
:2047800022E0FAA3E0FBA3E0FCA3E0FD22EAF0A3EBF0A3ECF0A3EDF022CAC0E0E6F0A3081A
:2047A000DAFAD0E0FA22CAC0E0E0A3C582CCC582C583CDC583F0A3C582CCC582C583CDC5EE
:2047C00083DAE6D0E0CA22C3E498F8E499F91248088026C3E49AFAE49BFBE920E7E912485D
:2047E00008E498F8E499F922C3E498F8E499F9124808E498F8E499F9C3E49AFAE49BFB22D5
:20480000EB20E7CFE920E7E0B90010BB0008E88AF084F8AAF022E4FBC8FA22EB70227B1016
:20482000C833C8C933C9335007C39AC3DBF280069A50012ADBEAC833F4C8C933F4C9FA228D
:2048400075F008E4C833C8C933C933C99AC99B5004C92AC93BD5F0ECFBC833F4C8E4C9FA30
:2048600022600D08C6A2E713C618C613C6D5E0F322600C08C6C313C618C613C6D5E0F422A0
:20488000700422600D18C6C333C608C633C6D5E0F41822251A10AF08F51A4002151B8008C2
:2048A000F51A4002151BD2AF22C0D0251A10AF08F51A5002051B8008F51A5002051BD2AF33
:2048C000D0D022251AF58210AF08F51A4002151B8008F51A4002151BD2AF851B8322251A0A
:2048E000F582E4351BF58322E473251AC582C0E0E51B34FFC583C0E0E51AC3958224F810D6
:20490000AF0885831B85821A800885831B85821AD2AFCEF0A3E520F0A3780AE608F0A3DE75
:20492000FAEFF0A3E58124FAF8E608F0A3E608F0A3E608F0A30808E608F0A3E608F0A315D5
:20494000811581D0E0FED0E0F8158115811581E8C0E0EEC0E022251AC582C0E0E51B34FF97
:20496000C583C0E0E51AC3958224F910AF0885831B85821A800885831B85821AD2AFCEF043
:20498000A3E520F0A3780AE608F0A3DEFAEFF0A3E58124FBF8E608F0A3E608F0A30808E60A
:2049A00008F0A3E608F0A315811581D0E0FED0E0F815811581E8C0E0EEC0E022851B83854D
:2049C0001A82E0A3FEE0A3F520780AE0A3F608DFFAE0A3FFE0A3C0E0E0A3C0E0E0A3C0E05B
:2049E000E0A3C0E0E0A3C0E010AF0885821A85831B800885821A85831BD2AFD083D0820272
:204A000043EC851B83851A82E0A3FEE0A3F520780AE0A3F608DFFAE0A3FFE0A3C0E0E0A306
:204A2000C0E0E0A3C0E0E0A3C0E010AF0885821A85831B800885821A85831BD2AFD083D015
:204A40008222C0D0251AC582C0E0E51B34FFC583C0E0E51AC3958224F310AF0885831B8582
:204A6000821A800885831B85821AD2AFC8F0A3E9F0A3EAF0A3EBF0A3790AE709F0A3D8FAA3
:204A8000ECF0A3EDF0A3EEF0A3EFF0A3D0E0F0A3D0E0F0A3D0E0F0A3E520F0A3E5F0F0A34B
:204AA00022851B83851A82E0C0E0A3E0F9A3E0FAA3E0FBA3780AE0F608A3DFFAE0FCA3E0BB
:204AC000FDA3E0FEA3E0FFA3E0C0E0A3E0C0E0A3E0F5D0A3E0F520A3E0A3F5F010AF088559
:204AE000831B85821A800885831B85821AD2AFD082D083D0E0F8D0E0327404800674028087
:204B0000027401C0E0F4041248C3D0E0124799227404800474028000CCC0E0EDC0E0E51ABB
:204B2000C39CCCAD1B50011D10AF068C1A8D1B80068C1A8D1BD2AF1247A6D0E0FDD0E0FC54
:204B400022D083D082C5F0E493A3C5F0C395F0F5F0E493A3C395F04005E5F0048001E47583
:204B6000F002A42582F582E5F03583F583E493A3C0E0E493C0E022D083D082E9C0E0E493E4
:204B8000A3C386F0C5F095F0F908E493A386F0C5F095F0700BE493A3C3994005E90480028F
:204BA000A3E475F002A42582F582E5F03583F583D0E0F9E493A3C0E0E493C0E022D083D081
:204BC00082E9C0E0E493A3C386F0C5F095F0F908E493A386F0C5F095F0702408E493A38636
:204BE000F0C5F095F0701908E493A386F0C5F095F0700E08E493A3C3994007E9048004A3D9
:204C0000A3A3E475F002A42582F582E5F03583F583D0E0F9E493A3C0E0E493C0E022D0834D
:204C2000D082CCC0E0E493A36006124C481470FAE493A36006124C671470FAD0E0FCE4932C
:204C4000A3C0E0E493C0E022C0E0E493A3D39C5010E493A3C39C400AD0E0D0E0D0E0024C2E
:204C60003BA3A3A3D0E022C0E0E493A36C7009D0E0D0E0D0E0024C3BA3A3D0E022D083D0CB
:204C800082ECC0E0EDC0E0E493A3FCE493A3FDED4C600D124CC9EC24FFFCED34FFFD80EFE8
:204CA000E493A3FCE493A3FDED4C600D124D08EC24FFFCED34FFFD80EFD0E0FDD0E0FCE4E6
:204CC00093A3C0E0E493C0E022C0E0C3E49396087401939618400FE49366700808740193E3
:204CE000661870007019A3A3C3E49396087401939618A3A3400DD0E0D0E0D0E0024CB9A31C
:204D0000A3A3A3A3A3D0E022C0E0C0F088F0E4936670080874019366187000A8F0A3A37029
:204D20000BD0F0D0E0D0E0D0E0024CB9A3A3D0F0D0E022D083D082ECC0E0EDC0E0EEC0E06D
:204D4000EFC0E0E493A3FCE493A3FDE493A3FEE493A3FFEF4E4D4C6015124DAFEC24FFFC02
:204D6000ED34FFFDEE34FFFEEF34FFFF80E5E493A3FCE493A3FDE493A3FEE493A3FFEF4ED6
:204D80004D4C6015124DECEC24FFFCED34FFFDEE34FFFEEF34FFFF80E5D0E0FFD0E0FED0C0
:204DA000E0FDD0E0FCE493A3C0E0E493C0E022C0E0C0F088F01244C1A8F04007124419A8A2
:204DC000F0701AA3A3A3A31244C1A8F0A3A3A3A34013D0F0D0E0D0E0D0E0024D99A3A3A39E
:204DE000A3A3A3A3A3A3A3D0F0D0E022C0E0C0F088F0124419A8F0A3A3A3A3700BD0F0D046
:204E0000E0D0E0D0E0024D99A3A3D0F0D0E022FFC0E074F0124A42A2AFE433FFD2AFE5899B
:204E2000F8E5AB58F50C6063F4F589C2C59003D17401F0751C00FA9003CEE0F91260937EC4
:204E4000008E0A750B007402780A124880124F08C3E89408E99400502BE85407F87401B858
:204E600000028004C333D8FC550C6018750A00750B01EE780A124880AA0AAB0B900280E063
:204E8000F91260270EEEC3940440B6EFA2E092AF7F03024AA1C0E074F0124A42A2AFE43308
:204EA000FFD2AFE58AF8E58D58F50C6059F4F58AC2EB7E008E0A750B007402780A124880FF
:204EC000124F08E82400FAE934FFFBC3EA9408EB9400502BE85407F87401B800028004C358
:204EE00033D8FC550C6018750A00750B01EE780A124880AA0AAB0B900280E0F91260270E8C
:204F0000EEC3940440AE8083124F75F922C0E074F0124A42A2AFE433FFD2AFE58BF8E5ACE3
:204F200058F50C604DF4F58BC2E87E008E0A750B007402780A124880124F75C39402402B4B
:204F4000E85407F87401B800028004C333D8FC550C6018750A00750B01EE780A124880AACC
:204F60000AAB0B900280E0F91260270EEEC3940440BA024E8B745B250AF5827405350BF59E
:204F800083E0F8A3E022C2AF02000022C0E074F2124A42A2AFE433FED2AFC2C0E5D1A2E433
:204FA000500653D1EF12619B751C00EEA2E092AF7F01024AA1C0E0C0D0E8C0E0E9C0E0E5A5
:204FC000A8D2AFC2C7751C00A2E7A2E792AFD0E0F9D0E0F8D0D0D0E032C0E0C0D0E8C0E0B0
:204FE000E9C0E0C00AC00BC082C083A2AFE433F9D2AF900555E0F8A3E0687008539AFBA37C
:2050000074018026C2E9900555E0F50A7401250AF074D5250AF58274043400F583E0F5C1C4
:20502000900555E0C394804002E4F0E9A2E092AFD083D082D00BD00AD0E0F9D0E0F8D0D0C2
:20504000D0E03274F5124956EAFEEBFFEE2434F8EF3400F9880A890BEE2435F582EF340021
:20506000F583E0F8EE2437F582EF3400F583E0F50CEC850CF0A4FCAAF0850CF0EDA42AFDC4
:20508000E82CF8E43DF97A257B00124808EA850A82850B83F0F8740758F97401B9000280FC
:2050A00004C333D9FCFAE8131313541FF8EE28F8EF3400F9E8245DF582E93400F583E05AC2
:2050C0006008EE2434F582EF802CEE2434F582EF3400F583E0C0E0EE2436F582EF3400F561
:2050E00083E0F5F0D0E084A8F0EE28F8EF3400F9E82438F582E93400F583E0F97F04024A7A
:205100000274F5124956EAFEEBFFEE2434F582EF3400F583E0C0E0EE2435F582EF3400F5F3
:2051200083D0E0F08E828F83A3A3A3A3A3A3A3C082C0838E828F83A3A3A3A3A3E0F8A3E084
:20514000F9D083D082E0C398F50AA3E099F50BEE247FF582EF3400F583E064017069EE2488
:2051600080F582EF3400F583E0F8A3E0F98E828F83A3A3A3A3A3A3A3E0FCA3E0FD8E828FB7
:2051800083A3A3A3A3A3E0FAA3E0FBC3EA9CEB9D5010C3EC98ED99402EC3EA98EB99502759
:2051A000800EC3EA98EB994007C3EC98ED9940177C8B7D08EEFAEFFB126A17EE247FF58234
:2051C000EF3400F583E4F0EE2434F8EF3400F9E8FCE9FDEE2435F582EF3400F583E0F8EE1D
:2051E0002437F582EF3400F583E0F50CE50A850CF0A4F50AAAF0850CF0E50BA42AF50BE88D
:20520000250AF8E4350BF97A257B00124808EA8C828D83F0F8740758F97401B9000280045E
:20522000C333D9FCFAE8131313541FF8EE28F8EF3400F9E8245DF582E93400F583E05A60E4
:2052400008EE2434F582EF802CEE2434F582EF3400F583E0C0E0EE2436F582EF3400F583BC
:20526000E0F5F0D0E084A8F0EE28F8EF3400F9E82438F582E93400F583E0F9125E7B02500D
:20528000FCC082C083851A82851B83E0F8A3E0F9C3EA9CEB9D5010C3EC98ED99401BC3EAEF
:2052A00098EB995014800EC3EA98EB994007C3EC98ED994004790180027900D083D0822283
:2052C000EAC39CFAEB9DFB2274EF124956900751E064086005E06407702A9061C8E0602437
:2052E00090077FE0F4601DE0F875F003A4C8AAF02AF9748128FE740739FF8E828F83A3A3A8
:20530000A3E070030253F8906060E0C0E0EE2468F582EF3400F583D0E0F0750E0B750F0933
:20532000750A00750B00E5D914F50CE5D95403F510601774036510605CE50C6010EE246788
:20534000F582EF3400F583E070030253DD900906E06401602AEE2482F582EF3400F583E0C2
:205360006004780480027800850C0AE50AC398FA95E0FB1268AF8A0A8B0BEA450B700512F0
:205380006C638074EE2482F582EF3400F583E070048A0E8B0FE50C6012850E82850F83F59A
:2053A0000DE5D9F0A3150DE50D70F6EE2482F582EF3400F583E0604474FC250CF50C780EC3
:2053C000124AFDAC0CA910EEFAEFFB126AB374021248A9E97026AA0AAB0B126225793D8EC3
:2053E000828F83A3A3A3A3E0FA7B00126789EEFAEFFB126A2F126AE3790080747403651001
:205400006056850C127513007812124AFDAC0EAD0FAA0AAB0B126A8F74021248A9EE2468EA
:20542000F582EF3400F583E064807004747F8001E0F50E780E124B01E510F50E780E124B0C
:2054400001A90CAC0AAD0B90077FE0FA7B0012674D74021248A98013900751E06408600B4C
:20546000AC0EAD0FEEFAEFFB126B3D126C6F79017F0A024A0274F512495674FC124893EA8B
:20548000FEEBFF890AA2AFE433F50BC2AF806AEE2463F8EF3400F97A007B00A2AFE433F5F3
:2054A0000CC2AF88828983E0FCA3E0FDEC4D603A88828983E0FAA3E0FB8A828B83E0FCA323
:2054C000E0FD88828983ECF0A3EDF08A828B83E4F0A3F088828983E0FCA3E0FDEC4D700AD7
:2054E00088828983A3A3E4F0A3F0E50CA2E092AF126225900892E004F0EE2463F582EF348F
:2055000000F583E0F8A3E0F9E849603DEE2463F582EF3400F583E02402FAA3E03400FBEACE
:205520002402F50CEB3400F50D780C124AFD8A828B83E0FCA3E0F9EEFAEFFB126A537402BD
:205540001248A9E9700302548F900892E06063900893E0F8900892E0C398500C7402650A91
:205560007050900894E0604A8E828F83A3A3A3A3E0851A82851B83F0A3E4F0900892E0F87A
:2055800074021248DEE8F0A3E4F0900892E0F8900891E028F074021248DEAC82AD83851A40
:2055A00082851B83AA82AB837901126753900892E4F0E50BA2E092AF74041248A90250FC2C
:2055C000852E87852FC622C0E0C0D0E8C0E0E9C0E0EAC0E0EBC0E0ECC0E0EDC0E0EEC0E0F8
:2055E000C00AC00BC00CC00DC082C083C0F0A2AFE433FEC2AF759B00906182E0A2E050122A
:20560000E591A2E0500C7591FE7401652E70031252C8E0A2E55051E591A2E5504B7591DF06
:20562000900751E064076005E0640870237401652E7035790190077FE0FA75F003A4CAA85E
:20564000F028FB74812AFA74073BFB1254758018E0640D7013900773E004F064287002E466
:20566000F07A00E0F9126C75906182E0A2E6400302570EE591A2E6400302570E7591BF9072
:205680000751E064057008126B73126B7F8003126B79752E00126BEBE9900752F079001234
:2056A0006BCD1269757A017B00900750E0F9126027907803E06442705590090AE014F07026
:2056C0004DC2AF1256C6007837D0E0F618D0E0F6E59F54077005750BFF8003750B7FC4C0F2
:2056E000E07836E6F50A08E6550BF50B740B780A124871D0E0250AF8906270E0A2E740F843
:20570000E8C333906272F0906270E0D2E0F0906181E0A2E35009E5E9A2E3500375E9F7A3A5
:20572000E0A2E75009E591A2E7500375917FEEA2E092AFD0F0D083D082D00DD00CD00BD056
:205740000AD0E0FED0E0FDD0E0FCD0E0FBD0E0FAD0E0F9D0E0F8D0D0D0E032C0E0C0D0C020
:2057600082C083906183E0A2E05009E5BFA2E0500375BFFEE0A2E15009E5BFA2E1500375DF
:20578000BFFDE0A2E25009E5BFA2E2500375BFFBE0A2E35009E5BFA2E3500375BFF7E0A2FF
:2057A000E45009E5BFA2E4500375BFEFE0A2E55009E5BFA2E5500375BFDFE0A2E65009E515
:2057C000BFA2E6500375BFBFD083D0828088C0E0C0D0E8C0E0E9C0E0EAC0E0EBC0E0ECC08D
:2057E000E0EDC0E0C0F0E5A7A2E6500FE5A1A2E6500953A7BF75A1BF125833E5A7A2E55024
:205800000CE5A1A2E5500653A7DF75A1DFE5A7A2E15009E5A1A2E1500375A1FDE5A7A2E264
:20582000500CE5A1A2E2500653A7FB75A1FBD0F002574474F8124956752E01900751E0645C
:20584000067015126B018A828B83A3A3A3A3A3A3E0FAA3E0FB126B61A2AFE433FED2AF90A6
:205860000757E0640170187A207B00900750E0F91260C37A207B00900750E0F912602D90EF
:205880006182E0D2E6F0900907E0602185C62F8016900756E064017008E5C654F84405F5AD
:2058A000C653BEFC1255C07401652E60E4EEA2E092AF7F01024A02FF8E308F3185823585E5
:2058C0008334851A82851B83E0CEA3E0CF853582853483EBC9EAC8EDCBECCA75F010C3E861
:2058E00033C8E933C9EA33CAEB33CBC3EA9EF533EB9FF532B35004AB32AA33EC33CCED3308
:20590000CDD5F0DAAE30AF312274E912495674F8124893851A82851B83ECF0A3EDF08A0AA0
:205920008B0B900751E024F7C394055006750A01025AA0126B018A0C8B0DAE0CAF0DEE4F61
:205940007003025A9DAC0AAD0B74021248DEAA82AB83126B918E828F83A3A3750EFF750FE9
:20596000FF7510FF751100780E12470474021248DE7512FF7513FF7514FF751500781212D2
:205980004704780E7912124482502A780E79121246C9750A01750BC8750C00750D00780ADA
:2059A000790E1244825052850E0A850F0B85100C85110D80507516017517C875180075199B
:2059C0000085120A85130B85140C85150D780A790E1246C97816790A124482401C750A0049
:2059E000750B00750C00750D01780A79121246C9780A790E124690800C750A01750B007503
:205A00000C00750D007409780A124671750E19F50FF510F511780A790E1245558E828F83AE
:205A2000A3A3A3A3A3A3E0F8A3E0F97AD07B03124808880E890FE4F510F511780A790E12DE
:205A4000469074061248DEE0F8A3E0F97AD07B03124808E8FA8A0EE4F50F780A790E12447F
:205A6000825007780A790E1246C9900751E06408600AE064066005E06405702D750E0D78E8
:205A80000E790A1244824021750EF4750FFF7510FF7511FF780A790E124690800C750A003D
:205AA000750B00750C00750D00851A82851B83E0F8A3E0F5838882780A124772740812481F
:205AC000A97F10024A0274F7124956126BA3900905E064017010906245E4F0A3F053F4F3C9
:205AE00043FE0C5390F3126B4FE5C654804449F5C6E59E547F644970F8906185740FF0900C
:205B00000903E0F47002A3E0604E900904E0600814601B14602E8040750A01750B00900993
:205B200003E0780A124880E50AF45280802A750A01750B00900903E0780A124880E50AF40C
:205B400052908014750A01750B00900903E0780A124880E50AF452A079007F02024A027466
:205B6000F7124956E9FEEAFF74016E700C7A807B00900750E0F9126027906E50E493F46067
:205B800008E493F9126969800953C680E59E547F70FA126B55900905E06401700312698D97
:205BA000900903E0F47002A3E0604B900904E0600814601A14602C803D750A01750B009075
:205BC0000903E0780A124880E50A42808028750A01750B00900903E0780A124880E50A421B
:205BE000908013750A01750B00900903E0780A124880E50A42A0126BA3126B018A0A8B0B11
:205C0000A80AA90BE8496015E5E170FCE82414F582E93400F583E0F46003E0F5E174016F49
:205C2000700A7A01900750E0F9126093025B5A74ED1249568A0A8B0B8C0C8D0D74131248A4
:205C4000DE780E124763780A790E1244827512017513C87514007515005012780A790E12DB
:205C600046C97812790A12448250168010780E790A1246C97812790E1244824004790180E9
:205C80000279007F0C024A0274ED1249568A0A8B0B8C0C8D0D74131248DE780E12476378C9
:205CA0000E790A1244824011780A790E1246C9AA0AAB0BAC0CAD0D802275120075130075FE
:205CC00014007515017812790E1246C97812790A124690AA12AB13AC14AD1580A68A828B45
:205CE00083750AFF750BFF750CFF750D00780A1247177F04024A0274F51249568C828D8327
:205D0000780A1247638A828B83780A1246DDEA2404F8EB3400F98C828D83A3A3A3A3E0FCCC
:205D2000A3E0FD88828983C3E09CF0A3E09DF088828983C3E09420A3E0944E40268A828BBF
:205D400083750AFF750BFF750CFF750DFF780A1246B68A828B83A3A3A3A3E02420F0A3E0F5
:205D6000344EF0025CDD74F5124956E9FE9008A6E0FAA3E0FBEEC333F8E433F9748028F5E2
:205D800082748539F583E02AF50AA3E03BF50B780A124AFD7A407B427C0F7D001258B87420
:205DA000021248A98A0A8B0B8C0C8D0D7410780A124658AA0AAB0B7F04024A0274F11249D1
:205DC000568A0E8B0F8C108D11740F1248DEE0FAA3E0FB74111248DEE0F50AA3E0F50B7857
:205DE0000A124AFDEA2401F50AEB3400F50BE4F50CF50D780E790A1244D5750A71750B0286
:205E0000780E790A1244D5AA0EAB0FAC10AD111258B874021248A98B0BEA450B60047A0118
:205E200080027A00EC2AFCED3400FD74131248DEE0F8A3E0F9E8FEE9FFECF8EDF97A717B25
:205E400002124808880A890B8E828F83780A124772ECF8EDF97A717B021248088A0A8B0B8B
:205E60007405780A1248808E828F83A3A3A3A3E50AF0A3E50BF07F08024A02C082C083E9FA
:205E8000906000F0D083D082221243EFAD8A041243EF458B041243EF178D041243EF738D94
:205EA000041243EFC98D041243EFDB8D041243EF6F8E041243EFFA8E041243EF9D9A0312EB
:205EC00043EF899B031243EF459C031243EFC29D031243EF699E031243EFED9E031243EF37
:205EE00080A0031243EF4CA1031243EF64A1031243EFEDA1031243EF7FA2031243EF5EA37D
:205F0000031243EF94A3031243EFE0A5031243EF0080011243EF2080011243EFF7810112BB
:205F200043EFB282011243EF1483011243EF5A83011243EF8383011243EFD684011243EFCE
:205F40005885011243EF7A86011243EFF986011243EFD387011243EF5A88011243EF818A45
:205F6000011243EFB791011243EF0292011243EF3292011243EF8892011243EFB6920112B3
:205F800043EF12B7011243EF77B7011243EF05B8011243EFA5BB011243EF4FC1011243EF52
:205FA0007FC1011243EFA3C8011243EF98C9011243EF07CA011243EF1DCB011243EF7DCC7A
:205FC000011243EFC1CC011243EF4ECE011243EF0080041243EF0A80041243EF48800412D1
:205FE00043EF9180041243EFCB80041243EF2581041243EF4681041243EF4F81041243EF6E
:206000009C81041243EFC581041243EFCF81041243EF3B82041243EFCD82041243EF1783BF
:20602000041243EF4D83041243EFD983041243EF1A84041243EF5184041243EF638404125C
:2060400043EF8284041243EF8B84041243EF5885041243EFDFC2041243EF9ABC041243EFBD
:2060600091BD041243EFABBD041243EFBCBD041243EF07B6041243EF3DB6041243EF73B6B0
:20608000041243EFBEB7041243EF71C1041243EF87C1041243EF91C1041243EFDBC10412A5
:2060A00043EF7994041243EF8E94041243EF3E95041243EF7E95041243EF9795041243EF05
:2060C000D295041243EF1F96041243EF5196041243EF9396041243EF9498041243EFBFFF42
:2060E000021243EFD1FF021243EF99AE041243EFBEAE041243EFE8AE041243EF09C2041242
:2061000043EFE37F001243EFB7C0041243EFC7C0041243EFD3C0041243EF64C1041243EFD1
:20612000E3BE041243EF68BF041243EFCEBF041243EFF87F001243EF5CB1041243EF18B357
:20614000041243EF79B3041243EFBFB3041243EF739D041243EF0E9E041243EF929E041237
:2061600043EF2B9F041243EFED9F041243EF62A0041243EF8AA0041243EF93A0041243EFD0
:2061800003A1041243EF16A1041243EF2CA1041243EF35A1041243EF48A1041243EF89A186
:2061A000041243EF4BF5031243EF17F6031243EF41F6031243EF58F6031243EF62F603123C
:2061C00043EFAEF6031243EFB1F6031243EFE2F6031243EF5FF7031243EFB5F7031243EF05
:2061E00008F8031243EF4AF8031243EF73F8031243EFB3F8031243EFD0F8031243EFEDF837
:20620000031243EF16F9031243EF47FA031243EF5BFA031243EF96FA031243EFC9FA03120E
:2062200043EF9DB9041243EFEFB9041243EF79BA041243EFE0BA041243EFC2B3041243EF84
:20624000ECB3041243EFBAB4041243EF95B5041243EF2CC9021243EFC6CC021243EF36CFF7
:20626000021243EF90CF021243EFAFCF021243EF0CD0021243EF78D1021243EF64D2021274
:2062800043EF1DD7021243EFEBD7021243EF92D8021243EFD0D8021243EF297E001243EF01
:2062A000407E001243EF717E001243EFAC7E001243EFD67E001243EF007F001243EF177F4A
:2062C000001243EF2E7F001243EF457F001243EF6E7F001243EF817F001243EF977F0012E4
:2062E00043EFAA7F001243EFD17F001243EF85F5021243EF89F6021243EFC1F6021243EFE9
:20630000E4F6021243EFEFF6021243EF12F7021243EF21F8021243EFF6F8021243EF71F9E6
:20632000021243EFF9F9021243EF34FA021243EF6BFA021243EFF9FA021243EFD2FB0212A6
:2063400043EF32FC021243EF3DFC021243EFBCFC021243EFBFFC021243EFC2FC021243EF15
:2063600051FD021243EF54FD021243EF84FD021243EFAEFD021243EF9CFE021243EF4EFF0D
:20638000021243EFF8C8031243EFF0C9031243EF24CA031243EFA6CA031243EFEECA0312F7
:2063A00043EF52CB031243EFDFCB031243EF99CC031243EFA8CF031243EF33D1031243EFA1
:2063C00056D1031243EFBC8F041243EFE48F041243EF1290041243EF4990041243EFA790BF
:2063E000041243EFF290041243EF3D91041243EF7D91041243EFC391041243EFF1910412EB
:2064000043EFAE92041243EFB892041243EFC592041243EFF892041243EFC493041243EF20
:20642000D093041243EFE893041243EFF293041243EFEEBF041243EF06C0041243EF1EC040
:20644000041243EF9AA6031243EF76A7031243EFDAA8031243EF31A9031243EFB2A90312AF
:2064600043EFA2AA031243EFEFAA031243EF75AB031243EFA7AB031243EFBBAD031243EFC8
:20648000FDAD031243EF1BAE031243EF9EAE031243EF72AF031243EF3AB0031243EF36E2B7
:2064A000031243EF09E3031243EFB2E3031243EF05E4031243EFB5E4031243EF41E503123B
:2064C00043EF2DE6031243EF5CE6031243EF6FE7031243EFB7E7031243EF8CE8031243EF6A
:2064E000C8E8031243EFE4E8031243EF66A5041243EF8CA5041243EFA8A6041243EFB2A6D8
:20650000041243EFE7A7041243EFDFA8041243EFE9A8041243EF8685041243EFB686041210
:2065200043EFE986041243EF3387041243EFFA88041243EF546E001243EFBE6E001243EF30
:206540001D70001243EFA770001243EFB770001243EFE470001243EF4071001243EF47725E
:20656000001243EF1173001243EF7174001243EFB474001243EF5975001243EFA67500123B
:2065800043EFCC75001243EFDA77001243EFDF77001243EFE479001243EF317A001243EF85
:2065A000A47A001243EFD77A001243EF797B001243EF227C001243EF5A7C001243EF5D7CD7
:2065C000001243EFA57C001243EFE57C001243EF3C7D001243EFC6AB041243EFDEAB041218
:2065E00043EF26AC041243EF3CAC041243EF83AC041243EF97AD041243EF24AE041243EF02
:206600006FAE041243EF0080021243EF3B80021243EF8080021243EF4081021243EFCF81B1
:20662000021243EF5582021243EFBA82021243EFE682021243EF1F83021243EF5D850212E9
:2066400043EF4187021243EF2789021243EF6A8A021243EFB88C021243EFCA8D021243EFA3
:20666000158F021243EF2590021243EF4290021243EF7D90021243EF9F90021243EF0291C2
:20668000021243EFC395021243EF5896021243EFAA96021243EFC896021243EF22970212EB
:2066A00043EF0B98021243EF8199021243EF059A021243EFA6EF031243EFB0EF031243EFB8
:2066C000F3EF031243EF0EF0031243EF9EF0031243EFC6F0031243EF03F1031243EF3AF114
:2066E000031243EF63F1031243EFD8F1031243EFEDF1031243EF02F2031243EF24F203121D
:2067000043EF6DF2031243EF92F2031243EFCCF2031243EFF8F2031243EF26F3031243EF40
:2067200071F3031243EFE1F3031243EF4FF4031243EF5AF4031243EF85F4031243EFCEF4F2
:20674000031243EFF8F4031243EF23F5031243EFCABD041243EFE4D8021243EF32DA02126F
:2067600043EF12DB021243EF31DB021243EFAEDB021243EFF1DB021243EF47DD021243EF17
:20678000F7DD021243EF30E0021243EFB7E2021243EF58E3021243EF4EE4021243EF4BE581
:2067A000021243EFA5E6021243EF30E7021243EF3FBB041243EFA8BB041243EFFCBB0412AB
:2067C00043EF23BC041243EF54BC041243EF0699041243EF7399041243EFBA99041243EF32
:2067E000D29A041243EFCE9B041243EFB19C041243EF81D2031243EFC3D2031243EF95D3C1
:20680000031243EF6ED4031243EF68D5031243EF4AD6031243EFB3D6031243EF69D7031298
:2068200043EFDDD7031243EF49D8031243EF72D8031243EFECD8031243EF85D9031243EF82
:20684000EAD9031243EFFFD9031243EF45DA031243EF5EDA031243EFC3DA031243EFC6DAA6
:20686000031243EFF3A8041243EF1BA9041243EF59A9041243EF17AA041243EF7EAA041251
:2068800043EF9AAA041243EFC2AA041243EFF2AA041243EF01AB041243EF7EAB041243EF3D
:2068A000C2B4021243EFE3B6021243EF15B9021243EF51B9021243EF7EB9021243EF6CBA36
:2068C000021243EFB7BA021243EF02BB021243EF37BB021243EF85BB021243EFB4BB021277
:2068E00043EFD7BB021243EF24BC021243EFA9BC021243EFC3BE021243EF02C1021243EFED
:2069000043C1021243EFE7C2021243EF28C3021243EF21C4021243EF2EC6021243EFA1C641
