:020000040000FA
:0600000002011D02225C5A
:03002B00021CD6DE
:03003300021C5755
:030053000222D2B4
:03006B00021B6C09
:03007B00021BDF86
:1000830002210BE5C754F84401F5C77901220000AA
:100093000080FB120086B90003020107E47921788E
:1000A30008B800028004F709D8FCE479297802B87B
:1000B30000028004F709D8FCE4900281781B7908D8
:1000C3008002F0A3D8FCD9FA781A90014D7A01BACC
:1000D30000028007E493A3F608DAF990099BAA8249
:1000E300AB8390014E781579038015E493A3AC821A
:1000F300AD838A828B83F0A3AA82AB838C828D83A8
:10010300D8E9D9E77582237583CF740312012F755C
:100113008291758300740012012F75D00075813FA1
:10012300751881751902759F00020096C09FF59F8F
:10013300E473D09F22D083D082C09FE493C0E07445
:100143000193C0E0740293F59F2201020193010021
:1001530000EB92020D930100002C93103D910300DC
:10016300008C0202FB920300008202020D93010045
:10017300002D93105D9103000000006E030000FF4B
:10018300020202020202020202010D00000010013B
:10019300020193010000E892020D93010000D009CF
:1001A300020B930100001E03020D93010000D1090D
:1001B300020F93010000F291020D93010000D20996
:1001C300021793010000BA91020D93010000D309B5
:1001D3000219930100001B91020D93010000D40941
:1001E300022593010000E590020D93010000D5095B
:1001F300022393010000F790020D93010000D6093A
:100203000221930100000991020D93010000D70917
:10021300021F93010000E491020D93010000D8092D
:10022300021D93010000D90901053F100AFF0000D8
:1002330000FF00013075030201060000000000000A
:1002430000000000000000000000000000000000AB
:10025300000000000000FFFF0600800CE803FF0021
:1002630000B4000028002800283075A000A000A0DA
:1002730000A00000080008E001F0001000100010CA
:10028300001000100010005000500050001000102B
:1002930000D0070000000000000F0001000500303F
:1002A3007507001000010081FF00000000FF7A09BC
:1002B30098098009FF02020208025000A000000012
:1002C300E803020193010000EE92020D9301000086
:1002D300050B02F9920100000E05020D93010000C7
:1002E300060B0227930100002405020D9301000071
:1002F300070B02F7920100002605020D930100008F
:10030300080B02FD920800002705020D930100006F
:10031300090B0207930100000A0BFF0100FF2002F3
:100323000193010000F492020D930100006E0B0291
:100333001B93000000000002FB920300007405B64B
:100343000FB60FB60FB60FB60FB60FB60FB60FB682
:100353000FB60FB60FB60FB60F9212AA128C121267
:1003630001386E8D03120138AF8E031201383690B7
:1003730003120138F6900312013836910312013843
:10038300C59103120138709203120138D828001264
:100393000138EB2800120138CE2A001201386D2BE8
:1003A30000120138C12B001201380A2C0012013847
:1003B300332C001201386E2C00120138482D001224
:1003C3000138D12D001201388C2E0012013835313D
:1003D30000120138D03100120138623200120138A4
:1003E300303300120138AF3300120138EB330012FF
:1003F30001382034001201389D3400120138CE3404
:1004030000120138C14D001201382B4E0012013881
:100413004455001201386B5600120138DD560012A4
:100423000138EA57001201385259001201389E5917
:10043300001201383F930312013849930312013824
:10044300879303120138D093031201380A940312DD
:1004530001386494031201388594031201388E9491
:1004630003120138DB940312013804950312013897
:100473000E95031201387A95031201380C96031274
:1004830001385696031201388C96031201381897D7
:100493000312013859970312013890970312013858
:1004A300A29703120138C19703120138CA970312A6
:1004B3000138979803120138C4CE0312013817CBC1
:1004C30003120138ADC003120138E3C0031201382F
:1004D30019C10312013864C203120138A8CD0312F3
:1004E3000138BECD03120138C8CD0312013812CE34
:1004F30003120138EC9D03120138019E03120138E7
:10050300B19E03120138F19E031201380A9F0312B0
:100513000138459F03120138929F03120138C49F8B
:100523000312013806A00312013807A2031201388F
:1005330079A203120138D1CF03120138E3CF03129A
:10054300013863B90312013888B903120138B2B90B
:10055300031201387BCF03120138C7A601120138F9
:1005630068A8011201381CA901120138AFA90112B0
:10057300013834AA0112013859AA01120138AFAD6A
:100583000112013835AE0112013868AF011201388A
:10059300A2AF01120138D7AF0112013897B101128E
:1005A3000138F4B1011201383DB201120138A8B289
:1005B3000112013819B3011201384BB3011201388A
:1005C30063B301120138ACB401120138BCB4011297
:1005D3000138D7B501120138F9B5011201382FB628
:1005E30001120138E3B70112013870B80112013862
:1005F300AFB801120138D3B9011201385CD003122C
:10060300013844FF0212013854FF021201385DFF22
:1006130002120138EEFF0212013813CA0312013825
:1006230098CA03120138FECA03120138F87F001278
:10063300013874BE0312013803C00312013864C0C9
:1006430003120138AAC00312013886A2031201382B
:1006530043A30312013874A3031201388BA30312BB
:1006630001389FA303120138E8A303120138F2A350
:100673000312013856A40312013899A40312013856
:10068300CAA4031201384EA50312013897A5031219
:100693000138C3A503120138EDA50312013868A67A
:1006A30003120138BEA603120138FDC50312013837
:1006B3004FC603120138D9C60312013840C70312CB
:1006C30001382FBC0312013859BC0312013827BD6E
:1006D3000312013802BE03120138EEEB0212013895
:1006E300B5EC02120138ECEC0212013816ED0212DD
:1006F300013876ED02120138CCED0212013831EEE9
:1007030002120138C9EE02120138D8EF0212013881
:100713006FF102120138FCF10212013863F2021286
:1007230001387AF20212013894F302120138D2F33B
:10073300021201389B9C021201381CA002120138DC
:10074300A4A102120138FBA1021201381AA202125B
:10075300013898A2021201382EA40212013813A5FF
:100763000212013821A902120138F7A90212013835
:100773009EC203120138B5C203120138E6C2031246
:10078300013821C3031201384BC30312013875C367
:10079300031201388CC303120138A3C303120138B7
:1007A300BAC303120138E3C303120138F6C30312B9
:1007B30001380CC4031201381FC40312013846C4A4
:1007C30003120138D2CF02120138D6D002120138F7
:1007D3000ED10212013831D1021201383CD102127A
:1007E30001385FD1021201386ED20212013843D3AD
:1007F30002120138BED30212013846D40212013864
:1008030081D402120138B8D40212013846D502123B
:1008130001381FD6021201387FD6021201388AD658
:100823000212013809D7021201380CD7021201381B
:100833000FD7021201389ED702120138A1D7021234
:100843000138D1D702120138FBD702120138E9D897
:10085300021201389BD9021201382387031201388F
:100863004B8703120138798703120138B0870312CB
:1008730001380E88031201389C8903120138E78975
:1008830003120138328A03120138728A03120138C3
:10089300B88A03120138E68A03120138A38B0312C4
:1008A3000138AD8B03120138BA8B03120138ED8B7B
:1008B30003120138B98C03120138C58C03120138B5
:1008C300DD8C03120138E78C031201380ECC0312BE
:1008D30001381CCC0312013834CC031201384CCC40
:1008E3000312013864CC0312013844EC01120138BD
:1008F300F0EC011201386BED011201388CEE01129C
:100903000138C8EE0112013871EF0112013858F0B5
:1009130001120138BCF10112013813F2011201383E
:1009230094F20112013884F301120138D1F3011258
:10093300013857F40112013889F4011201389DF688
:1009430001120138DFF601120138FDF601120138F8
:1009530080F70112013854F8011201381CF9011211
:100963000138008003120138D380031201387C81DF
:1009730003120138CF81031201387F820312013839
:100983000B8303120138F783031201382684031201
:1009930001383985031201388185031201385686DF
:1009A30003120138928603120138AE86031201380E
:1009B30040CE03120138FEAF0312013814B0031204
:1009C30001383AB00312013856B10312013860B14D
:1009D3000312013895B2031201388DB303120138A3
:1009E300C59803120138F59903120138289A0312A6
:1009F3000138729A03120138399C0312013885CBEE
:100A030001120138EFCB011201384ECD011201382A
:100A1300D8CD01120138E8CD0112013815CE0112EB
:100A230001386CCE0112013815CF011201381CD0E8
:100A330001120138E6D00112013846D20112013801
:100A430089D2011201382ED3011201387BD301124E
:100A53000138A1D301120138AFD501120138B4D541
:100A630001120138B9D70112013806D80112013831
:100A730079D801120138ACD8011201384ED90112CC
:100A83000138F7D9011201382FDA0112013832DAAD
:100A9300011201387ADA01120138BADA0112013887
:100AA30011DB0112013890B603120138A8B6031204
:100AB3000138F0B60312013806B7031201384DB7F7
:100AC3000312013861B803120138EEB8031201387A
:100AD30039B903120138375B00120138435B001246
:100AE30001387E5B00120138C35B00120138835C5E
:100AF30000120138125D00120138985D00120138AE
:100B0300FD5D00120138295E00120138625E001299
:100B13000138A060001201388462001201386A644F
:100B230000120138AD6500120138FB67001201386D
:100B33000D6900120138586A00120138686B0012FF
:100B43000138856B00120138C06B00120138E26B6B
:100B530000120138456C0012013806710012013889
:100B63009B7100120138EC710012013813720012EC
:100B73000138657200120138837200120138DD7288
:100B830000120138C673001201383C750012013897
:100B9300C0750012013811A7031201381BA70312F5
:100BA30001385EA70312013879A70312013809A897
:100BB3000312013831A8031201386EA80312013859
:100BC300A5A803120138CEA80312013843A90312C2
:100BD300013858A9031201386DA9031201389EA9DF
:100BE30003120138B2A903120138D7A9031201383D
:100BF30011AA031201383DAA03120138C0AA031235
:100C03000138CBAA0312013814AB031201383EABEF
:100C13000312013869AB03120138FAC80312013811
:100C2300D1B702120138FFB7021201384DB90212CF
:100C330001382DBA021201384CBA02120138C9BA6E
:100C4300021201380CBB0212013862BC02120138D5
:100C530023BD02120138AABF021201384BC002128F
:100C6300013841C1021201383EC20212013898C351
:100C73000212013823C4021201389FC7031201383C
:100C830008C8031201385CC80312013883C8031271
:100C93000138B4C80312013891AB03120138FEAB1B
:100CA3000312013845AC031201385DAD031201385C
:100CB30059AE031201383CAF0312013885E3021227
:100CC3000138C7E30212013899E40212013872E5D0
:100CD300021201386CE6021201384EE702120138A3
:100CE300B7E7021201386DE802120138E1E8021297
:100CF30001384DE90212013876E902120138F0E9B0
:100D03000212013889EA02120138EEEA02120138AE
:100D130003EB0212013849EB0212013862EB0212B3
:100D23000138C7EB02120138CAEB0212013897B33C
:100D330003120138BFB303120138FDB303120138A4
:100D4300BBB40312013822B5031201383EB50312B6
:100D5300013866B50312013896B503120138A5B5FB
:100D63000312013822B60312013848B603120138C0
:100D7300FEDB011201389CDD01120138B7DF0112DD
:100D83000138F3DF0112013820E00112013805E1D7
:100D9300011201384CE10112013890E101120138CE
:100DA300A2E101120138E2E1011201380FE201125E
:100DB30001385AE2011201389AE201120138C8E2FD
:100DC300011201381AE301120138AAE301120138B2
:100DD30048E6011201385EE8011201389CE801126D
:100DE30001382DEA0112013872EA01120138E9EAE9
:100DF3000112013833EB01120138DBEB0112013828
:100E03000CDA021201388BDA021201384DE00212B9
:100E130001385CE102120138C4E2021201385BE3DB
:100E2300021201382E93011201387793011201380F
:100E3300A49301120138D79301120138E4930112EC
:100E43000138F09301120138029401120138E99438
:100E5300011201384795011201387C9501120138BE
:100E6300BF96011201380C97011201383097011215
:100E730001389D97011201385B98011201381499CA
:100E830001120138819901120138339A0112013894
:100E9300439A01120138CA9A01120138899B01123F
:100EA3000138B69B011201382F9C011201388C9C2A
:100EB30001120138D69C011201386C9D01120138D0
:100EC300379E01120138EC9E01120138619F011215
:100ED3000138C29F011201382CA00112013865A00C
:100EE3000112013807A10112013817A201120138BA
:100EF30057A20112013874A20112013893A2011200
:100F03000138DAA201120138FFA2011201382CA321
:100F130001120138A6A301120138E7A30112013817
:100F23000BA501120138BBA50112013812A601124B
:100F330001387CA60112013895A6011201382776E3
:100F4300001201387A7600120138867600120138D1
:100F53005B7700120138827700120138BD770012E7
:100F630001382978001201386578001201389E781B
:100F730000120138B678001201380B7900120138DB
:100F83002479001201386D7900120138807900123A
:100F930001389A7900120138B07900120138E37AE6
:100FA300001201382A7C001201382C7D001201380E
:100FB300267E00120138F17F001201389AAA02122C
:100FC3000138CAAA0212013892AE02120138E9AFFF
:100FD30002120138B2B00212013832B202120138E1
:100FE30003B30212013840B30212013863B3021291
:100FF3000138A1B302120138AAB302120138F4B3C3
:1010030002120138FEB302120138A8B402120138E9
:1010130081B502120138D5B50212013837B6021272
:1010230001388AB602120138B9B602120138F6B68F
:1010330002120138F8B9011201385FBD01120138FB
:1010430065BD01120138E7C20112013860C7011200
:10105300013836CB01120138AAFB0212013820FCF9
:101063000212013836FC0212013877FC02120138F1
:10107300B1FC021201382AFD0212013865FD021289
:101083000138D8FD0212013816FE021201381FFE84
:10109300021201382BFE0212013847FE02120138F8
:1010A30072FE0212013888FE02120138B1FE0212EA
:1010B300013814FF0212013835FB0112013848FBD5
:1010C3000112013862FB011201388BFB0112013856
:1010D300CEFB011201380DFC011201384BFC011249
:1010E3000138B0FC01120138C5FC01120138D0FCF3
:1010F30001120138DDFC01120138F4FC0112013840
:1011030002FD011201380DFD0112013819FD011212
:1011130001382CFD0112013837FD011201385AFD47
:101123000112013801FE0112013811FE01120138CA
:101133002BFE0112013848FE0112013864FE011230
:10114300013889FE0112013894FE01120138A9FE0B
:1011530001120138BDFE011201381EFF01120138D0
:1011630024FF011201382AFF0112013830FF011256
:10117300013848FF011201387BFF01120138718EDB
:1011830002120138F58E02120138A48F02120138BF
:1011930003910212013824930212013810940212AF
:1011A30001384594021201386794021201381695EA
:1011B300021201380E9702120138379702120138D2
:1011C300C99702120138FB970212013808980212DC
:1011D30001385F9802120138859802120138F29A99
:1011E30002120138F59B021201384D9C021201389C
:1011F3000080021201380A8102120138F1810212C1
:101203000138FB81021201381D8202120138298242
:1012130002120138C28302120138F183021201382B
:101223000D8502120138668502120138CC8602123E
:101233000138AB870212013807880212013874881B
:1012430002120138AF8802120138EE880212013807
:10125300A78B02120138C18B021201384D8C021286
:1012630001385B8C02120138B48C02120138C28C33
:1012730002120138358D02120138998D021201389C
:10128300E38D02120138A4C402120138C6C402124B
:101293000138ECC60212013801CA0212013819CB17
:1012A30002120138CCCB02120138AECC0212013843
:1012B30058C4031201387DC403120138EFC403126A
:1012C300013830F40212013839F40212013842F4C1
:1012D3000212013819F502120138CAF60212013856
:1012E30000F7021201383AF70212013870F70212BE
:1012F3000138AAF702120138DEF7021201380AF8A0
:101303000212013853F8021201388DF80212013823
:10131300D6F8021201382EF90212013863F90212CB
:101323000138BEF902120138F8F90212013849FAFC
:10133300021201387FFA02120138B9FA0212013897
:10134300E7FA021201380AFB02120138FDCC03123C
:10135300013829CD0312013884CD031201388ECD13
:10136300031201389ECD0312013812D00312013843
:101373003ED003E76670100809E766700A0809E7BC
:101383006670040809E76622E066701008A3E06649
:10139300700A08A3E066700408A3E06622C3E79618
:1013A3000809E7960809E7960809E796A2D265D0E7
:1013B3003322C3E09608A3E09608A3E09608A3E0CF
:1013C30096A2D265D03322C008C3E096F50808A3DD
:1013D300E096420808A3E096420808A3E096420874
:1013E300A2D265D033E5087001D3D00822C3E796B3
:1013F3000809E7960809E7960809E79622C3E096E5
:1014030008A3E09608A3E09608A3E09622C008C3C9
:10141300E096F50808A3E096420808A3E096420880
:1014230008A3E09645087001D3D00822080808EA0B
:10143300C0E0EBC0E086F0E7A4FA180986F0E7A461
:101443002AFA180986F0E7A42AFA180986F0E7A40D
:101453002AFA1986F0E7A4FBE5F02AFA190886F0C0
:10146300E7A42BFBE5F03AFA190886F0E7A42BFB77
:10147300E5F03AFA18180986F0E7A4C5F02BFBE467
:101483003AFA1908E7C5F0C6A426F6E5F03BFBE4F3
:101493003AFA1886F0E7A4F6E5F00826F6E43B08E6
:1014A300F6E43A08F6D0E0FBD0E0FA22E4CFC0E05D
:1014B300E4CEC0E0E4CDC0E0E4CCC0E075F020C3EE
:1014C300E633F608E633F608E633F608E633F618AD
:1014D3001818EC33FCED33FDEE33FEEF33FFC3ECB2
:1014E3009709ED9709EE9709EF97191919400FFF1F
:1014F300EC97FC09ED97FD09EE97FE191906D5F057
:10150300BEECF709EDF709EEF709EFF7191919D052
:10151300E0FCD0E0FDD0E0FED0E0FF2212158718FA
:1015230018181214AF1215761919192212157619F3
:101533001919080808E618181820E7E01214AF1262
:10154300158718181822090909E719191920E7DC62
:10155300080808E618181820E7030214AF121587C5
:101563001818181214AF12158718181812157619AF
:10157300191922E4C397F709E497F709E497F709E0
:10158300E497F722E4C396F608E496F608E496F6A1
:1015930008E496F6226016080808C6C313C618C6E0
:1015A30013C618C613C618C613C6D5E0EA227009B7
:1015B300080808226016181818C6C333C608C633AD
:1015C300C608C633C608C633C6D5E0EA22E627F600
:1015D3000809E637F60809E637F60809E637F6227A
:1015E300E026F608A3E036F608A3E036F608A3E003
:1015F30036F622E026F008A3E036F008A3E036F042
:1016030008A3E036F022C3E697F60809E697F60842
:1016130009E697F60809E697F622C3E096F008A3D1
:10162300E096F008A3E096F008A3E096F022E657D0
:10163300F60809E657F60809E657F60809E657F6E5
:1016430022E056F608A3E056F608A3E056F608A3F0
:10165300E056F622E056F008A3E056F008A3E05661
:10166300F008A3E056F022E647F60809E647F60835
:1016730009E647F60809E647F622E667F60809E6AB
:1016830067F60809E667F60809E667F622E0F60852
:10169300A3E0F608A3E0F608A3E0F622E6F008A329
:1016A300E6F008A3E6F008A3E6F022E0FAA3E0FBE5
:1016B300A3E0FCA3E0FD22EAF0A3EBF0A3ECF0A38C
:1016C300EDF022CAC0E0E6F0A308DAFAD0E0FA228D
:1016D300CAC0E0E0A3C582CCC582C583CDC583F073
:1016E300A3C582CCC582C583CDC583DAE6D0E0CA63
:1016F30022C3E498F8E499F91217358026C3E49AD3
:10170300FAE49BFBE920E7E9121735E498F8E4993A
:10171300F922C3E498F8E499F9121735E498F8E448
:1017230099F9C3E49AFAE49BFB22EB20E7CFE92083
:10173300E7E0B90010BB0008E88AF084F8AAF022B9
:10174300E4FBC8FA22EB70227B10C833C8C933C943
:10175300335007C39AC3DBF280069A50012ADBEAAF
:10176300C833F4C8C933F4C9FA2275F008E4C8339E
:10177300C8C933C933C99AC99B5004C92AC93BD5BF
:10178300F0ECFBC833F4C8E4C9FA22600D08C6A222
:10179300E713C618C613C6D5E0F322600C08C6C308
:1017A30013C618C613C6D5E0F422700422600D18C0
:1017B300C6C333C608C633C6D5E0F41822251810AD
:1017C300AF08F518400215198008F51840021519DD
:1017D300D2AF22C0D0251810AF08F5185002051952
:1017E3008008F51850020519D2AFD0D0222518F57C
:1017F3008210AF08F518400215198008F518400249
:101803001519D2AF851983222518F582E43519F508
:101813008322E4732518C582C0E0E51934FFC5832C
:10182300C0E0E518C3958224F810AF0885831985B5
:1018330082188008858319858218D2AFCEF0A3E57C
:1018430020F0A37808E608F0A3DEFAEFF0A3E58121
:1018530024FAF8E608F0A3E608F0A3E608F0A308E4
:1018630008E608F0A3E608F0A315811581D0E0FE91
:10187300D0E0F8158115811581E8C0E0EEC0E022C3
:101883002518C582C0E0E51934FFC583C0E0E5181B
:10189300C3958224F910AF088583198582188008BF
:1018A300858319858218D2AFCEF0A3E520F0A37803
:1018B30008E608F0A3DEFAEFF0A3E58124FBF8E6DF
:1018C30008F0A3E608F0A30808E608F0A3E608F08A
:1018D300A315811581D0E0FED0E0F815811581E8CC
:1018E300C0E0EEC0E022851983851882E0A3FEE004
:1018F300A3F5207808E0A3F608DFFAE0A3FFE0A34E
:10190300C0E0E0A3C0E0E0A3C0E0E0A3C0E0E0A348
:10191300C0E010AF08858218858319800885821876
:10192300858319D2AFD083D082020135851983858F
:101933001882E0A3FEE0A3F5207808E0A3F608DF11
:10194300FAE0A3FFE0A3C0E0E0A3C0E0E0A3C0E0AF
:10195300E0A3C0E010AF088582188583198008854D
:101963008218858319D2AFD083D08222C0D02518A4
:10197300C582C0E0E51934FFC583C0E0E518C3950F
:101983008224F310AF088583198582188008858324
:1019930019858218D2AFC8F0A3E9F0A3EAF0A3EB4C
:1019A300F0A37908E709F0A3D8FAECF0A3EDF0A3CC
:1019B300EEF0A3EFF0A3D0E0F0A3D0E0F0A3D0E0EB
:1019C300F0A3E520F0A3E5F0F0A3228519838518A1
:1019D30082E0C0E0A3E0F9A3E0FAA3E0FBA3780868
:1019E300E0F608A3DFFAE0FCA3E0FDA3E0FEA3E03A
:1019F300FFA3E0C0E0A3E0C0E0A3E0F5D0A3E0F5DF
:101A030020A3E0A3F5F010AF088583198582188021
:101A130008858319858218D2AFD082D083D0E0F8AD
:101A2300D0E03274048006740280027401C0E0F4D2
:101A3300041217F0D0E01216C62274048004740254
:101A43008000CCC0E0EDC0E0E518C39CCCAD1950DC
:101A5300011D10AF068C188D1980068C188D19D2B4
:101A6300AF1216D3D0E0FDD0E0FC22D083D082E9C0
:101A7300C0E0E493A3C386F0C5F095F0F908E493BE
:101A8300A386F0C5F095F0700BE493A3C3994005CA
:101A9300E9048002A3E475F002A42582F582E5F04F
:101AA3003583F583D0E0F9E493A3C0E0E493C0E089
:101AB30022D083D082ECC0E0EDC0E0E493A3FCE449
:101AC30093A3FDED4C600D121B00EC24FFFCED34E1
:101AD300FFFD80EFE493A3FCE493A3FDED4C600DC5
:101AE300121B3FEC24FFFCED34FFFD80EFD0E0FD43
:101AF300D0E0FCE493A3C0E0E493C0E022C0E0C3E1
:101B0300E49396087401939618400FE49366700863
:101B130008740193661870007019A3A3C3E4939625
:101B2300087401939618A3A3400DD0E0D0E0D0E051
:101B3300021AF0A3A3A3A3A3A3D0E022C0E0C0F0A2
:101B430088F0E4936670080874019366187000A81F
:101B5300F0A3A3700BD0F0D0E0D0E0D0E0021AF0F5
:071B6300A3A3D0F0D0E022A3
:101B6C00C0E074F012196FA2AFE433FFD2AFE58975
:101B7C00F8E5AB58F50A6051F4F589C2C57E008EC4
:101B8C0008750900740278081217AD121C52C3E8CC
:101B9C009408E99400502BE85407F87401B800023B
:101BAC008004C333D8FC550A601875080075090108
:101BBC00EE78081217ADAA08AB09900281E0F91271
:101BCC00048E0EEEC3940440B6EFA2E092AF7F03F6
:101BDC000219CEC0E074F012196FA2AFE433FFD239
:101BEC00AFE58AF8E58D58F50A6059F4F58AC2EB31
:101BFC007E008E08750900740278081217AD121C4D
:101C0C0052E82400FAE934FFFBC3EA9408EB940091
:101C1C00502BE85407F87401B800028004C333D881
:101C2C00FC550A6018750800750901EE7808121742
:101C3C00ADAA08AB09900281E0F912048E0EEEC336
:101C4C00940440AE8083121CBFF922C0E074F012E1
:101C5C00196FA2AFE433FFD2AFE58BF8E5AC58F5C2
:101C6C000A604DF4F58BC2E87E008E08750900748D
:101C7C000278081217AD121CBFC39402402BE85413
:101C8C0007F87401B800028004C333D8FC550A600D
:101C9C0018750800750901EE78081217ADAA08AB83
:101CAC0009900281E0F912048E0EEEC3940440BA3E
:101CBC00021BD5740B2508F58274043509F583E0F5
:101CCC00F8A3E022C2AF02000022C0E0C0D0E8C0FE
:101CDC00E0E9C0E0E5A8D2AFC2C7751A00A2E7A23E
:101CEC00E792AFD0E0F9D0E0F8D0D0D0E03274F584
:101CFC00121883EAFEEBFFEE2434F8EF3400F98877
:101D0C00088909EE2435121E26F8EE2437121E26F9
:101D1C00F50AEC850AF0A4FCAAF0850AF0EDA42AD9
:101D2C00FDE82CF8E43DF97A257B00121735EA859D
:101D3C000882850983F074075AF87401B800028090
:101D4C0004C333D8FCFBEA131313541FF8EE28F822
:101D5C00EF3400F9E8245DF582E9121E295B60037B
:101D6C00EA801CEE2436121E26F5F0EA84A8F0EE6A
:101D7C0028F8EF3400F9E82438F582E9121E29F925
:101D8C007F0402192F74F5121883EAFEEBFFEE2480
:101D9C0034121E26C0E0EE2435F582EF3400F583B4
:101DAC00D0E0F08E828F83A3A3A3A3A3E0FAA3E0D9
:101DBC00FB8E828F83A3A3A3A3A3A3A3E0FCA3E026
:101DCC00FDECC39AF50AED9BF50BEE247FF508EFBD
:101DDC003400F509850882F583E06401702BEE244C
:101DEC0080F582EF3400F583121A41121E2F740213
:101DFC001217D6E960137C377D07EEFAEFFB120E53
:101E0C00DE850882850983E4F0AC0AAD0BEEFAEFAF
:101E1C00FB121CFA1228C1021D8CF582EF3400F55E
:101E2C0083E022C082C083851882851983E0F8A3E1
:101E3C00E0F9C3EA9CEB9D5010C3EC98ED99401B64
:101E4C00C3EA98EB995014800EC3EA98EB994007BB
:101E5C00C3EC98ED994004790180027900D083D0CD
:101E6C008222EAC39CFAEB9DFB2274ED121883903C
:101E7C0005FDE064086005E06407702C9061C8E023
:101E8C00602690062BE0F874FF68601CE875F00380
:101E9C00A4C8AAF02AF9742D28FE740639FF8E8284
:101EAC008F83A3A3A3E070057900022016EE2468AB
:101EBC00F510EF3400F511906060E085108285110B
:101ECC0083F0750AA0750B07750800750900E5D934
:101EDC0014F50EE5D95403F50F601CEE2482F50CB5
:101EEC00EF3400F50D7403650F6058E50E6013EECA
:101EFC002467121E26700B793DEEFAEFFB120F02CF
:101F0C0080A690079BE064016026850C82850D837A
:101F1C00E06004780480027800850E08E508C39818
:101F2C00FA95E0FB120D828A088B09EA45097006C6
:101F3C00121160021EB4850C82850D83E070048A38
:101F4C000A8B0B78008016E5D9C0E08812E50A25CB
:101F5C0012F582E50B3400F583D0E0F008E8C39568
:101F6C000E40E4850C82850D83E0602874FC250E00
:101F7C00F50E780A121A2AAC0EA90FEEFAEFFB1224
:101F8C000FB074021217D6E9700AAA08AB09120630
:101F9C00B0021F037403650F6058850E0C750D009D
:101FAC00780C121A2AAC0AAD0BAA08AB09120F74E2
:101FBC0074021217D6851082851183E0F87480683C
:101FCC007005750C7F8002880CE50CF50A780A12F6
:101FDC001A2EE50FF50A780A121A2EA90EAC08ADC6
:101FEC000990062BE0FA7B00120C1A74021217D619
:101FFC0080139005FDE06408600BAC0AAD0BEEFAA3
:10200C00EFFB12104612116C79017F0C02192F7420
:10201C00F312188374FC1217C0EAFEEBFF8908A2B6
:10202C00AFE433F509C2AFEE2463F50AEF3400F5E3
:10203C000B8010AA0AAB0B120F2C1206B090073EA5
:10204C00E004F0850A82850B83E0F8A3E0F9E84907
:10205C00602FE82402FAE93400FBEA2402F50CEBC9
:10206C003400F50D780C121A2A8A828B83E0FCA3BB
:10207C00E0F9EEFAEFFB120F2074021217D6E960AA
:10208C00B290073EE0605790073FE0F890073EE0C3
:10209C00C398500C740265087044900740E0603E91
:1020AC008E828F83A3A3A3A3E08518828519831244
:1020BC0020FA740212180BE81220FA90073DE0285F
:1020CC00F0740212180BAC82AD83851882851983CB
:1020DC00AA82AB837901120C2690073EE4F0E50945
:1020EC00A2E092AF74041217D67F0602192FF0A348
:1020FC00E4F090073EE0F8228521878522C622C0B5
:10210C00E074EF12196FA2AFE433FEC2AF759B00FF
:10211C00906182E0A2E05012E591A2E0500C759122
:10212C00FE740165217003121E76E0A2E55051E5A4
:10213C0091A2E5504B7591DF9005FDE064076005B9
:10214C00E064087023740165217035790190062BC9
:10215C00E0FA75F003A4CAA8F028FB742D2AFA74CF
:10216C00063BFB12201B8018E0640D701390061FB9
:10217C00E004F064287002E4F07A00E0F9121172C5
:10218C00906182E0A2E64003022232E591A2E64091
:10219C00030222327591BF9005FDE06405700812B0
:1021AC001088121094800312108E752100121100E9
:1021BC00E99005FEF079001210F4120E487A017BBA
:1021CC00009005FCE0F912048E907803E0644270F4
:1021DC005590079FE014F0704DC2AF1221EA0078C1
:1021EC002AD0E0F618D0E0F6E59F54077005750983
:1021FC00FF800375097FC4C0E07829E6F50808E67E
:10220C005509F509740B780812179ED0E02508F8CB
:10221C00906270E0A2E740F8E8C333906272F090ED
:10222C006270E0D2E0F0906181E0A2E35009E5E950
:10223C00A2E3500375E9F7A3E0A2E75009E591A2E8
:10224C00E7500375917FEEA2E092AF7F040219CEA6
:10225C00C0E0C0D0C082C083906183E0A2E050098E
:10226C00E5BFA2E0500375BFFEE0A2E15009E5BF57
:10227C00A2E1500375BFFDE0A2E25009E5BFA2E266
:10228C00500375BFFBE0A2E35009E5BFA2E3500386
:10229C0075BFF7E0A2E45009E5BFA2E4500375BF97
:1022AC00EFE0A2E55009E5BFA2E5500375BFDFE002
:1022BC00A2E65009E5BFA2E6500375BFBFD083D09C
:1022CC0082D0D0D0E032C0E074F212196FE5A7A230
:1022DC00E4500FE5A1A2E4500953A7EF75A1EF124A
:1022EC002326E5A7A2E5500CE5A1A2E5500653A7CD
:1022FC00DF75A1DFE5A7A2E15009E5A1A2E150033A
:10230C0075A1FDE5A7A2E2500CE5A1A2E25006538F
:10231C00A7FB75A1FB7F010219CE74F81218837507
:10232C0021019005FDE0640670077A007B00121015
:10233C0070A2AFE433FED2AF900603E064017018D4
:10234C007A207B009005FCE0F91205187A207B00BE
:10235C009005FCE0F9120494906182E0D2E6F090D2
:10236C00079CE0602185C6228016900602E064017D
:10237C007008E5C654F84405F5C653BEFC1221049A
:10238C007401652160E4EEA2E092AF7F0102192F87
:10239C008E238F248582288583278518828519832F
:1023AC00E0CEA3E0CF852882852783EBC9EAC8ED70
:1023BC00CBECCA75F010C3E833C8E933C9EA33CAA9
:1023CC00EB33CBC3EA9EF526EB9FF525B35004AB5C
:1023DC0025AA26EC33CCED33CDD5F0DAAE23AF24E1
:1023EC002274E912188374FA1217C0EAFEEBFF8C00
:1023FC00088D099005FDE024F7C39405500675106F
:10240C0001022518120FE68A0A8B0BEA450B7003A2
:10241C000225151210A68A0C8B0D1210A6EA650C5B
:10242C007003EB650D60ECEEFCEFFD8518828519F1
:10243C0083AA82AB831210AC850A82850B83A3A37B
:10244C00780C1216909092A4780C1216448518826F
:10245C0085198378141216909092A478141216444D
:10246C00780C79141213F0501F780C791412160989
:10247C00909264780C1214104047850C10850D1145
:10248C00850E12850F138045909264851410851566
:10249C00118516128517137810790C1216097810FD
:1024AC00121410501C751000751100751200751364
:1024BC0001781079141216097810790C1215D08045
:1024CC000C751001751100751200751300740978E4
:1024DC00101215B1909260780C1216907810790C3D
:1024EC001214AF9005FDE06408600AE06406600514
:1024FC00E06405702090925C7810121410501690C5
:10250C00925878101215E3800C7510007511007537
:10251C001200751300850882850983781012169FA6
:10252C0074061217D67F1002192F74F71218831223
:10253C0010BE90079AE064017010906245E4F0A31D
:10254C00F053F4F343FE0C5390F312105EE5C654B3
:10255C00804449F5C6E59E547F644970F8906185C6
:10256C00740FF0900798E0F47002A3E0602C7508EB
:10257C0001750900900798E078081217ADE508F48A
:10258C00FAA3E0600814600A14600C800DEA528013
:10259C008008EA52908003EA52A079007F02021967
:1025AC002F74F7121883E9FEEAFF74016E700C7A2F
:1025BC00807B009005FCE0F912048E9028D0E49307
:1025CC00F46008E493F9120E2A800953C680E59E44
:1025DC00547F70FA12106490079AE0640170031231
:1025EC000E60900798E0F47002A3E0602A75080171
:1025FC00750900900798E078081217ADAA08A3E0B7
:10260C00600814600A14600C800DEA42808008EAAD
:10261C0042908003EA42A0120FE68A088B09A808B0
:10262C00A909E8496017E5E170FCE82414F582E992
:10263C003400F583E0F874FF68600288E174016F80
:10264C00700A7A019005FCE0F91204E80225A874DE
:10265C00F11218838A088B098C0A8D0B9092A4783E
:10266C0008121644740F12180B780C1216909092D4
:10267C00A4780C1216447808790C1213F09092641A
:10268C0050107808790C121609780812141040149E
:10269C00800E780C7908121609780C12141050045C
:1026AC007901800279007F0802192F74ED121883CA
:1026BC008A088B098C0A8D0B9092A4780812164408
:1026CC00741312180B780C1216909092A4780C12AA
:1026DC001644780C79081213F040117808790C1212
:1026EC001609AA08AB09AC0AAD0B8022751000754F
:1026FC0011007512007513017810790C12160978F7
:10270C001079081215D0AA10AB11AC12AD137F0CB6
:10271C0002192F9092A478081216908A828B8378D3
:10272C00081216577F0402192F74F51218838C8225
:10273C008D8378081216908A828B83780812161D66
:10274C00122789C3E098F0A3E09912277B401E90D2
:10275C0092B478081216908A828B8378081215F638
:10276C008E828F83E02420F0A3E0344EF080A4F01E
:10277C008E828F83C3E09420A3E0944E22EA24043B
:10278C00F8EB3400F9E8FEE9FF8C828D83A3A3A358
:10279C00A3E0F8A3E0F98E828F832274F5121883DC
:1027AC00E9FE900752E0FAA3E0FBEEC333F8E43302
:1027BC00F9746D28F582749139F583E02AF508A334
:1027CC00E03BF5097808121A2A9092901216AE1274
:1027DC00239C74021217D68A088B098C0A8D0B74F1
:1027EC00107808121598AA08AB097F0402192F74E7
:1027FC00F11218838A0C8B0D8C0E8D0F740F12181E
:10280C000BE0FAA3E0FB741112180BE0F508A3E03F
:10281C00F5097808121A2AEA2401F508EB3400F5B8
:10282C0009E4F50AF50B780C790812142F9092D85C
:10283C007808121690780C790812142FAA0CAB0D8C
:10284C00AC0EAD0F12239C74021217D68B09EA45FD
:10285C000960047A0180027A00EC2AFCED3400FD58
:10286C00741312180BE0F8A3E0F9E8FEE9FFECF89A
:10287C00EDF97A717B0212173588088909E4F50A9B
:10288C00F50B8E828F83780812169FECF8EDF97A8F
:10289C00717B021217358A088B0974057808121798
:1028AC00AD8E828F83A3A3A3A3E508F0A3E509F063
:1028BC007F0802192FC082C083E9906000F0D0839A
:0328CC00D0822295
:1028D000FFFFFFFFFFFFFFFFC082C08380031231B5
:1028E0001A122C03642060F60233E474EB121817FA
:1028F000750EFE750F8DAE0EAF0F750A80750B004D
:10290000750C009002B0124B2D12594AA808F9809C
:1029100003750C2088828983E0F50DA3A882A98322
:10292000EA24FFF512EB34FFF5138A108B11740AB9
:10293000650D7039E824FFFCE934FFFDE5086C7093
:1029400003E5096D70279002B0C3E09510A3E095F0
:1029500011500E851282851383E0642070031AAB38
:10296000138A828B83740AF07F0D0218E98A828BA6
:1029700083A3AC82AD83E50B6025650D7007750BF5
:1029800000880889098A828B83E50DF0ECFAEDFB5B
:102990007409650D7003022911850D0C0229147448
:1029A00027650D60067422650D7005850D0B80D5B9
:1029B0007420650D60067409650D70067420650C41
:1029C000607C8E828F83E0F514707A750A80AE0E7B
:1029D000AF0F8A828B83ECFAEDFB7409650D7004EE
:1029E0007C208002AC0DECF074BF250DC3941A401E
:1029F0001574D0250DC3940A400C7428650D60062B
:102A0000745F650D703888828983800E8A828B831B
:102A1000E50D122AC3A3A882A983E0F50D74BF2592
:102A20000DC3941A40E674D0250DC3940A40DD749A
:102A300028650D60D7745F650D60D1750D0088083D
:102A40008909022990650D7008A3AE82AF8302291F
:102A5000907480450D651470479002B0C3E09510E6
:102A6000A3E09511500E851282851383E0642070D7
:102A7000031AAB138A828B83E50A122AC380098862
:102A8000828983A3A882A983E0F50D7420650D6077
:102A9000EE7409650D60E8750A80AE0EAF0F809E7A
:102AA000EEF8EFF988828983A3AE82AF83888289AA
:102AB00083E0C3948040E9A808A909750D00050AC0
:102AC000022999F0A3AA82AB83888289832274E8C1
:102AD0001218178A108B118C128D13750C0A750D34
:102AE00000750E00750F0090929878101213CA406E
:102AF0001B792D12065C7810121587800F9092AC0E
:102B00007808121690780C790812142F780C791026
:102B10001213A050E8803685101485111585121601
:102B2000851317850C08850D09850E0A850F0B780E
:102B30001479081215499092AC78081216907814FE
:102B40007908121549E5082430F912065C9092AC18
:102B50007808121690780C7908121549E50C124A7B
:102B6000DA70B480031217D67F100218E974F612D7
:102B700018177E007F0012038C8021EE75F00AA4E6
:102B8000FEA8F075F00AEFA428FFE5082EF8E43F50
:102B9000F9E824D0FEE934FFFF12311E9002B01292
:102BA0002D4274D02508C3940A500DC3EE9499EFBA
:102BB000941940C77EFF7FFFEEFAEFFB7F020218F9
:102BC000E9C082C0837A007B00122C03FC74226C63
:102BD000600574276C702512311A8008EA24010AF6
:102BE000EB3400FB9002B0E02AF8A3E03B8882F5CA
:102BF00083E0F8EC686009740A6870E07AFF7BFF94
:102C00000233E49002B0124D2A2274F7121817EA28
:102C1000FEEBFF800C12065C8E828F83A3AE82AF28
:102C2000838E828F83E0F970EC790A12065C7F0153
:102C30000218E9C082C0839002B5E0FAA3E0800EDA
:102C40008A828B83A3A3E0F8EA28FAEB3400FB9096
:102C500002B7124B4A687002EB69600F9002C01213
:102C60004B118B838A82124B9840D50233E474F463
:102C7000121817890A750B20122D3FA3E0F5099051
:102C800002B2E02403124D079002B2123493AA0854
:102C9000AB09E4FCFD1203988005792012065C85DF
:102CA0000A0974FF2509F50A0470EF8033A9081298
:102CB000065C8E828F83E0F508A3AE82AF83E508C1
:102CC000C3948040E8E508C2E7F508F912065C7491
:102CD0002865086008792012065C75082085080BB5
:102CE000122D3F9002B21231129002B2123493743C
:102CF0000A65086042E508C394805007A9081206D7
:102D00005C80DA7EFE7F8D8019EEF8EFF98882898B
:102D100083A3AE82AF8388828983E0C3948040E935
:102D20001508E508C3948150E07420650B60837931
:102D30002012065C022CB2790A12065C0256D09070
:102D400002B2124D2AF5082274F0121817E9FFEAB0
:102D5000FE750800750900750A00750B0080227465
:102D6000D02AFAEAC39E504A8E0CE4F50DF50EF512
:102D70000F7808790C12142F8A0C7808790C121528
:102D8000D08F0C74FF250C1F046030122C03FA1234
:102D9000311A74D02AC3940A40C574BF2AC394065A
:102DA000500474C980BB749F2AC39406500474A94C
:102DB00080AF9002B47402F0122DBE02312890024E
:102DC000B0E024FF18A3E034FFF99002B01234976A
:102DD0002274F6121817E9FE74BF2E124B88F58282
:102DE000E9125647E0C0E09002C2E05407F8D0E094
:102DF000B800028004C313D8FCA2E050549002BD76
:102E0000124D83800D88828983A3125427E82CF801
:102E1000E93DF99002B9125427C3E89CE99D50316D
:102E200088828983E0645670DCA3A3A3A3E06E705C
:102E3000D4EA4B60078A828B831234938882898319
:102E4000A3A3A3E06402602EE82408FAE93400801A
:102E500038EA4B60219002FA744EF09002FD740241
:102E6000F0EEA3F0900300E4F0A3F08A828B837469
:102E7000FAF0A37402F08E08750900740278081243
:102E800017AD124BA5FAE934FE022BBB74F01218F1
:102E90001774FE1217C0124E1574A86E7013120329
:102EA000C88A088B098C0A8D0B7808121587022FA7
:102EB000EE74D02EC3940A500A122DBE7A0A79FFFE
:102EC000022F62EEC39480500302304174452EC33A
:102ED00094034003022F591203E0124DAD60030228
:102EE00030FD9002B4E060030230FD9092B8780C9F
:102EF00012141050030230FD12311E74BB6E703676
:102F0000750A01750B00EA780A1217ADE50A55F249
:102F10006020EA4430F5B6E5B4A2E750FAE5BAF528
:102F200008E5BBF5097402780812178EAA08E509AE
:102F30008020E580800B74BC6E7004E5908002E513
:102F4000A0F508750900EA780812178EE508540103
:102F5000FAE4FB3395E00230C874A66E700E7A1066
:102F600079081203BC9002B4E40230FA743F2EC315
:102F700094065014EEC333F8E433F9741828F5823C
:102F8000748F39F583023030124AF26429701112BD
:102F9000311A749C6E60030230FD12053002310B51
:102FA0001203E0124DAD60030230FD9002B4E06008
:102FB000030230FD124C2D2466600E14603B24BECB
:102FC000605524FE60740230FD909298780C1213C4
:102FD000CA4013780C121587850C08850D09850EDB
:102FE0000A850F0B80088A088B098C0A8D0BAA08AA
:102FF000AB09AC0AAD0B02310B1204588A088B09DD
:10300000E4F50AF50B7808790C121549AA0CAB0DFA
:10301000AC0EAD0F02310B851882851983E4F0A345
:10302000124CD5AC82AD8312073A8518828519837C
:10303000E0F508A3E0AA08FB8003120860E4023070
:10304000C874BF2EC3941A40030230DA85188285F3
:103050001983AA82AB83EEF91203C28A088B09AEE8
:1030600008AF09124C1FF9A3E0F5838982A3A3A33B
:10307000E06404705774286860030230FD12311E4A
:103080001203E0124DAD70759002B4E0706F123112
:103090001A909298780C1213CA506285188285197A
:1030A00083124BD0F508A3E034FFF509E4F50AF5E7
:1030B0000B7808790C1213A05043EE250CF582EF23
:1030C000350DF583E0FAE4FBFCFD803F7428686071
:1030D0002C8E828F831216AE803174286E701E1271
:1030E00003E0124DB570169002B4E070109002B07B
:1030F0001231129002B0E8F0A3E9F0800E9002B411
:103100007402F07A007B007C007D0074021217D6F6
:10311000801EE0240108124D0822124E2022900247
:10312000B0E02401124BBD22AA08AB09AC0AAD0BDA
:103130007F080218E974EC1218171203C88A0C8B66
:103140000D8C0E8D0F80121203C88A088B098C0A11
:103150008D0B780C790812142F9002B4E0600BAA42
:103160000CAB0DAC0EAD0F02563312324B24576030
:10317000D614600914602312339CF080E21203C855
:103180008A108B118C128D13EA451145124513607C
:103190001B780C791012154980BF1203C88B118C53
:1031A000128D13EA45114512451370079002B4744D
:1031B0000380C7850C08850D09850E0A850F0B8ACB
:1031C0000C8B0D8C0E8D0F7808790C1215498089A7
:1031D00074F012181712323B74A868600574A7685F
:1031E000700E750800750900750A00750B00801FC8
:1031F0001203CE8A088B098C0A8D0B80121203CE23
:103200008A0C8B0D8C0E8D0F7808790C1216099094
:1032100002B4E0600302312812324B2459600814D2
:1032200060DB12339780EE1203CE8A0C8B0D8C0E6E
:103230008D0F7808790C1215D080D49002B012321C
:103240004222E0F8A3125417E0F8229002B0E012F4
:10325000325322F8A3E0F988828983A3AA82125309
:10326000E62274F01218171203D48A088B098C0A0C
:103270008D0B800C750801750900750A00750B002F
:103280009002B4E0600302312812324B2462601ACB
:103290001460301460431460561460531460691451
:1032A000607A14601E12339780DC1203D48A0C8B70
:1032B0000D8C0E8D0F780C79081213A050B675087E
:1032C0000080B41203D48A0C8B0D8C0E8D0F7808FD
:1032D000790C121376709D80E51203D48A0C8B0D45
:1032E0008C0E8D0F7808790C1213A0408780CF12B6
:1032F00003D48A0C8B0D8C0E8D0F7808790C121369
:1033000076700302327480B61203D48A0C8B0D8C53
:103310000E8D0F7808790C1213A080A01203D48AA6
:103320000C8B0D8C0E8D0F780C79081213A080BBBE
:1033300074F01218171203DA8A088B098C0A8D0BA5
:1033400080121203DA8A0C8B0D8C0E8D0F7808799F
:103350000C1216319002B4E0600302312812324B95
:10336000245460DE14600814601912339780EB1245
:1033700003DA8A0C8B0D8C0E8D0F7808790C1216DF
:103380006A80D11203DA8A0C8B0D8C0E8D0F7808AF
:10339000790C12167D80BD12339CF0229002B0E0B1
:1033A00024FFA3E034FFF99002B0E8F0A3E922C0C3
:1033B00082C0837A007B0C1204D09002B51253AC09
:1033C0007C007D0C7900120452124BE59002B5E0AE
:1033D0002494F8A3E0340BF99002B9123493123418
:1033E000901203ECD083D082020135C082C0837A70
:1033F0008D7B911203AA1234127582BD124BD71223
:1034000003987AFF7B911203AA7AF17B921203AAA6
:1034100080D29002B712341922124B1975830222FE
:1034200074F61218171206681203E61234BB12065D
:103430005012068CE960567A72790012066E125AA2
:10344000F64006124C981206741206809002B712CB
:103450004B117583027582B5124B9850219002B5BD
:10346000124B6A121A417508007808121A2E9092AF
:10347000E41216AE790312069874031217D690025E
:10348000B7124B261234931234BB120650022BBCD7
:103490009002BD12349722E8F0A3E9F022C082C066
:1034A00083800F79007A007B001203FE1234BB1276
:1034B0000650120656E970EB0233E49002BD125436
:1034C0002B9002B7E02402FAA3E03400FB2274E858
:1034D00012181774F41217C0740312180BE9F09045
:1034E00002B4E4F0EA4B60291253A9740312180BDA
:1034F000E0601B9002BDE024FD124D4050030247E6
:103500006812539C7445F0A37403F0A3E4F0023AEC
:103510009A124D36120392750800740312180BE5C7
:1035200008F004F508E0F89002B0124B7CE0640A61
:1035300070E808C3E498FE95E0FF7509007808126A
:103540001A2A9002B01254312EFAA3E03FFB120661
:103550006274021217D69002BDE02EF8A3E03FF984
:103560009002B012349312039E1253A912038C904E
:1035700002C0125B3160030236449002BBE4F0A348
:10358000F0124D36F5838882E0640A7003023A1D1A
:10359000122C039002BFF012311A9002BFE0C394C4
:1035A00080400BE02445C394034003023769122D89
:1035B000BE122C03F9891074452510C394034003EF
:1035C0000241D312311A1203E08A088B098C0A8D4A
:1035D0000B9002B4E06003023EA9124DB5600302F5
:1035E0003EB29092B878081214105003023EB275A1
:1035F0000C01750D00EA780C1217AD850C0812311C
:103600001E12038C124CEA6003023EB212311A12EF
:1036100003E08B0D8C0E8D0F9002B4E06003023E30
:10362000A9124DBB6003023EB2E508F4FCE510C3ED
:1036300094BC40030241A6E580124AD870030241BF
:103640009A02419D9002C0E0F47003A3E0F470037D
:10365000023EA99002B0E024FDF8122DC59002BDF3
:10366000E0C398F5089002C0124B1FE0FAA3E0F502
:10367000838A821234939002B0124B71E508F012E3
:1036800003B08A0A8B0BAE0AAF0B9002B7124B1134
:10369000EE687002EF6960518E828F8312541DE0D4
:1036A000687003A3E06970418E828F83A3A3E0F862
:1036B000880CC3E498F895E0F99002B7125656903A
:1036C00002B71234939002B7E0C3950AF512A3E053
:1036D000950BF5137812121A2AEE250CFCEF340024
:1036E000FD12043A74021217D69002B0124C4764CD
:1036F0000A7003023A1D9002B71257CF85088285DF
:10370000820C750D009002B0E0C39AF8A3E09BF91B
:10371000C3E8950CE9940050077902740C022B65FC
:10372000EAC3950AF50AEB950BF50B780A121A2AEB
:10373000EEFCEFFDEE2508FAEF3400FB1206627492
:10374000021217D6780C121A2A9002B0125B1E12BF
:10375000043A74021217D69002B7E02508124D07FA
:103760009002B7123493023A1DE0248070030238AD
:103770004214700302385E1470030239A7147003F8
:103780000239D51470030238751470030239ED1430
:1037900070030235B1147003023A0B147003023F38
:1037A00037147003023A15147003023A221470039E
:1037B000023A3714700302401D1470030239551485
:1037C0007003023AA724FD700302436C14700302D5
:1037D0003B22147003023B18147003023933147037
:1037E00003023B33147003023B22147003023C3B80
:1037F00024FE7003023C6424FC7003023C9C24EE13
:1038000070030239021470030238A3147003023DDE
:10381000FF147003023E43147003023E9524E570CA
:1038200003023CBF24F87003023D0F147003023DF5
:103830007824F97003023D7E24FE7003023DC40229
:103840003EA97E0112039E1253A9124DBB600302D2
:103850003EA91203B09002B21253AC0242E4124BE2
:10386000E57A72790012066E125AF64030124C98C0
:1038700012067480287A77790012066E9002B7C01B
:10388000829002B5124B11758302D082E0C398FC7E
:10389000A3E099FD9002B51257CF12067A12068066
:1038A000023B2A1203E08A08AF089002B4E06003EA
:1038B000023EA9EF7003023EB212038C124D685013
:1038C00062124B606005740A6870627A72EFF912D6
:1038D000066EC3EB125B035003023EA9740A121872
:1038E0000BAA82AB83EEF91203C2740A12180B12F0
:1038F00057E460030243A0740A12180B124C020230
:1039000043A41203E08A08AF089002B4E060030207
:103910003EA9EF7003023EB212038C124D685003B1
:103920000243AD9002B0E024FFF8122DC5120680CC
:10393000023EA99002BDC082123412D082124BD72F
:103940001203987AFF7B911203AA12038C124DBBCB
:103950006003023EA99002B4E07003023F079002A8
:10396000B4E0C333F8E433F974D628F5827491399E
:10397000F5831257CF1203AA125B2E601F9002B27A
:10398000123493793E12065C793E12065C7920125D
:10399000065C79011203B6790A12065C9002B4E063
:1039A00064047079023719124AF76003023EA99045
:1039B00002B5124B119002B780189002BD122C066E
:1039C0006453700B740412180B124CAF120AEE12EF
:1039D0004D721234939002BDC0829002B912341518
:1039E000D082124B9840D39002B5023B2D124AEF81
:1039F00024BFC3941A4003023EA912311A12038C49
:103A0000124DBB6003023EA902401D124AEF6496AC
:103A10007003023955125B2E6003023EC279010227
:103A2000371B1203E01253F66003023EA9124DBB8E
:103A30006003023EB280631203E01253F660030299
:103A40003EA9124DBB6003023EB29002BD125B293B
:103A50002407F582E8125647C082C0839002B7124D
:103A60004B11D083D082C3E58298E583995003023D
:103A700047689002BDE024F9F8A3E034FFF912533F
:103A80009C7447F0A37407F0A3E4F09002B01254C2
:103A9000889002BB1254641253AC1203B09002BB64
:103AA000EAF0A3EB023F17124B56C3941A400302ED
:103AB0003EA9881112311E12038C124CEA600302D7
:103AC0003EA912311A1203E08A0C8B0D8C0E8D0F59
:103AD0009002B4E06003023EA912324B648F60038F
:103AE000023EB21203E08A148B158C168D179002D9
:103AF000B4E06003023EA912324B64906003023FBF
:103B0000651203E08A088B098C0A8D0B9002B4E0E1
:103B10006003023EA9023F74C2AF75C9AB75C95BB1
:103B200080FE124AF76003023EA99002B7124D834D
:103B3000023F0F124B56FEC3941A4003023EA97473
:103B40000312180BE8F012311E12038C124B9F6007
:103B500003023EA912311A12038C1203E08A088B69
:103B6000099002B4E06003023EA912038C124DB525
:103B70006003023EB212551B640A6003023EB2A803
:103B800008A909124ACD124B4FFAE934FFFB900203
:103B9000B7124B11C3EA98EB9950030247688508A6
:103BA0000C85090D124AC2124ACD12565612349093
:103BB000E8FAE9FB8A828B837456F0124AC2A31298
:103BC00034938A828B83A3A3A37404F01412180B7A
:103BD000E08A828B83A3A3A3A3F0EE124B88F8E9BB
:103BE0003400F9124B01E0C0E0ECFDD0E0BD000272
:103BF0008004C313DDFC54018A828B83A3A3A3A397
:103C0000A3124AE1A3A3E4F0A31253A3ECF87401B6
:103C1000B800028004C333D8FCF974FFC399F8E0FC
:103C20005849F0AC08AD0979009002BDE02408FACB
:103C3000A3E03400FB12045202394A7F001203E071
:103C40008A08AE089002B4E06003023EA912038C19
:103C5000122C03649260030243F6124C2DF91206F3
:103C60009202394A1203E09002B4E06003023EA9D6
:103C70009002BBE0F8A3124C32F99002BB123493CD
:103C8000F5838882121A41750C00780C121A2E796D
:103C90000312069874031217D6023A1D1203E08B22
:103CA000098C0A8D0B9002B4E06003023EA9EA453C
:103CB00009450A450B700302445D790102445F1215
:103CC00053DB246A700302475824C760271470032B
:103CD00002474A1470030246431470030246431419
:103CE00070030246431470030246431470030246F5
:103CF00043023EA99002BB12323EA3E0F99002E5D6
:103D00001234939002E77401F0A3E4F00239559065
:103D100002E47401F09002E2125B31700A9002E258
:103D200074C3F0A37402F0122C03851882851983E2
:103D3000F07508E2750902246A70030249A324BEE3
:103D4000700302477014601024FE70030247801451
:103D500070030248500249FC124CF05003023EBB73
:103D6000124D937405F09002E2E02401124D079089
:103D700002E2E8F0A3E980939002E4E48096120363
:103D8000E08A088B09AE08AF099002B4E060030234
:103D90003EA912038C1203E0740612180B1253F999
:103DA0006003023EA974056E700374036F60030222
:103DB0004AA4740612180BAC82AD8379017A057B94
:103DC00003024AB31203E08A088B09AE08AF0990D8
:103DD00002B4E06003023EA912038C1203E08A08D9
:103DE0008B09AC08AD099002B4E06003023EA9EE75
:103DF000FAEFFB12085AE96003023EA90239551294
:103E000004048A088B09AE08AF099002B4E060038D
:103E1000023EA9750801750900EE78081217AD1267
:103E2000038C124D1F74B66C600302447412038C31
:103E3000124D1F740A6C6003024465122DBE7CB6DD
:103E400002447C750C001204048A088B09AE08AF8A
:103E5000099002B4E07052C3EE9404EF9402400360
:103E600002463B12038C12324B2447600614701931
:103E7000750C019002B0124B1188828983A30A123B
:103E800053E2648B70030245579002B0E024FFF8C0
:103E9000122DC5801D1204048A088B09A808A909DF
:103EA0009002B4E070030245E39002B4E0600302C4
:103EB00039559002B47401F002395E9002B4740571
:103EC00080F51203E08B0D8C0E8D0F9002B4E07024
:103ED000D8124DBB70DC124AD9702C7A008004EAEB
:103EE00060251A124D527003A3E069605F124C8581
:103EF0002479600814600D14603780E7124B346039
:103F0000DE0A80DFEA70DC125B2E6040124C32F970
:103F10009002BBE8F0A3E9F09002BB124B7670036D
:103F2000A3E06960279002BBE02403124BB902357D
:103F300090EA70AF0235907A008007EA7003023988
:103F4000551A124D527003A3E069700A7AF17B9200
:103F50001203AA023A1D124C85648770E5124B3495
:103F600060D90A80DD123397750801750900750A5A
:103F700000750B0012038C124DBB6003023EA9902A
:103F800002B4E06003023EA99002BDE024F0124DAD
:103F90004050030247681234901257CC85111275B5
:103FA0001300740278121217AD9002B9E02512F8CE
:103FB000A3E03513F9E824FCF582E934FEF58378B3
:103FC0000C12169F8A828B837446F0A37410F0A3A0
:103FD000E4124AE6E511124AE1781412169F8A8229
:103FE0008B83A3A3A3A3A3A3A3A3780812169F90D4
:103FF00002B0124B4A1256421234939002BB124B3B
:104000004A240C12564412349302394A740412188A
:104010000B124CAF120AEE124D721234939002BD85
:10402000C0829002B9123415D082124B984003021C
:104030003EA99002BD122C0624BB603C14604A14B9
:10404000600E24F460C624FD7003024148024768F4
:104050009002BFE0648C70BF124B3D1257CF9002AC
:10406000BBEAF0A3EB1253B2A3124B2D1253AC8850
:10407000828983124D7B808E9002BFE0648C7097A2
:104080009002BE124D780237639002BFE0648570E3
:10409000861257CC8A828B83A3A3A3E0F5089002F3
:1040A000B0124C14650860030240177509007402D1
:1040B00078081217AD124BA5FCE934FEFDEA24087E
:1040C000FEEB3400FF8C828D8378081216908E826E
:1040D0008F8378081215E385080C85090D850A0E73
:1040E000850B0F8C828D83780C12169F8E828F83A6
:1040F0007808121690EA2404F8EB3400F9E8FCE999
:10410000FD9092B078081213CA50128C828D837879
:104110000C1213B5501C8A828B83024073909298C4
:1041200078081213CA40EF8C828D83780C1213CA60
:1041300050E4EA125642124B1F123493EA240C1236
:104140005644124B26024006124B3DA3124CDDFA98
:104150009002B9E02AFAA3E03400FBEA2468FAEB03
:104160003400FB124B01A3A3A3A3A3E0C0E0ECF82F
:10417000D0E0B800028004C333D8FCF9ECF8740135
:10418000B800028004C333D8FCF874FFC398F88ADF
:10419000828B83E05849F0024017750C00ED5C45B6
:1041A0000CF58002394AE510C394BD5013E5901216
:1041B0004AD87003750C00ED5C450CF59002394A45
:1041C000E5A0124AD87003750C00ED5C450CF5A013
:1041D00002394A74BF29C3941A4003023EA97401EC
:1041E00012180BAA82AB831203C28A088B09AE088D
:1041F000AF0912311E12038C740112180B124C47B6
:1042000024FE600724FE6036023EA9124CEA6003D9
:10421000023EA912311A1203E08A0C8B0D8C0E8D0E
:104220000F9002B4E06003023EA9124DBB6003028E
:104230003EB28E828F83780C12169F0242C7124BB9
:104240009F6003023EA912311A1203E08A088B090B
:104250008C0A8D0B9002B4E06003023EA912038C1D
:10426000124DB56003023EB212311A12038C9092C5
:104270009878081213CA4003023EB2740112180B58
:10428000124BD0F50CA3E034FFF50DE4F50EF50F5D
:10429000780C79081213A04003023EB2124CEA6077
:1042A00003023EB212311A1203E09002B4E060033E
:1042B000023EA9124DBB6003023EB2EE2508F58214
:1042C000EF3509F583EAF0740112180B1254B3129A
:1042D00057D8700302394A12042802394A1EEEF9EF
:1042E0001203B60E9002B2124B767003A3E069700F
:1042F0000302394A9002B312540FA3A3A3E0247B14
:10430000601B24FE600C1460D41460D124FB60CECA
:10431000800C9002B3124BF9E0649670C11EEEF966
:104320001203B680BF1203A48A088B09AE08AF0936
:1043300074FF6E700374FF6F705112323B74226809
:104340007003023EA97427687003023EA91203E0BD
:104350009002B4E06003023EA912323B740A686026
:10436000087420686003023EB212039812038C1294
:104370004DBB70B1790A12065C02394A12324FF90C
:1043800012065CEE24FF1EEF34FFFFC3EE9401EF34
:10439000125B039002B0E050E32401124BB980CCD1
:1043A0007C047D0012067412068002394A124B60AA
:1043B0006008740A68600302392D7A77EFF91206F3
:1043C0006EC3EB125B035003023EA9740812180B74
:1043D000AA82AB83EEF91203C2740812180B1257AB
:1043E000E4700A740812180B124C0280047C047DDD
:1043F0000012067A80B11203E08A088B098C0A8DBC
:104400000B9002B4E06003023EA912038C122C034D
:104410006498700412311A0F122C03648B6003022B
:104420003EB212311A1203E08A0E8B0F9002B4E0F2
:104430006003023EA9780E121A2AEFF50C780C12CE
:104440001A2EAA08AB09AC0AAD0BEEF91206987445
:10445000031217D6E9600302394A023EA979001215
:10446000068602394A74B46C601274B56C6003023B
:104470003E89800874B86C6003023E89850882A872
:1044800082E8F4FDC3EE9408EF94005047ED52F338
:1044900052F2E5FDFE74B86C7004E8FA80027A000E
:1044A000EE5D4AF5FDEC244C6012146018146006B1
:1044B00014601B02394AE8428F02394AED528F5389
:1044C000F7DF02394AED528F43F72002394AE842BA
:1044D000F202394AC3EE9408EF9401ED504152F4D0
:1044E000E5FEFE74B86C7004E8FA80027A00EE5DB6
:1044F0004AF5FEEC244C601514601B14600914701E
:1045000003023EA902394AE842F602394AED52F660
:1045100053F7BF02394AED52F643F74002394A5287
:10452000F5E5FFFE74B86C7004E8FA80027A00EEDC
:104530005D4AF5FFEC244C600C1460121470BFE867
:1045400042F702394AED52F753F77F02394AED52EA
:10455000F743F78002394A1203E09002B4E06003A7
:10456000023EA9EEF912069EE9700302463BEE54A4
:1045700007F87401B800028004C333D8FCF9C3EE15
:104580009408EF94005012E58CA2E0E433450CF55A
:104590008CE942ABD2BD02394AC3EE9404EF9401D8
:1045A0005015E50CC333F8E58C540248F58CE9420C
:1045B0008D439A1002394AC3EE9408EF9401E50C3A
:1045C000500B333354FCF8E58C540480DE33333322
:1045D00054F8F8E58C540848F58CE942AC439A024B
:1045E00002394AE85407FA7401BA00028004C3335E
:1045F000DAFCF4FAC3E89408E99400500BEA52ABF1
:10460000E5AB702CC2BD8028C3E89408E994015042
:104610000CEA528DE58D7018539AEF8013C3E8941D
:1046200008E99402500AEA52ACE5AC7003539AFDD3
:10463000E8F91206A4E9600302394A9002B474064C
:10464000023EB79002E7E02401F0A3E03400F0124C
:1046500054C160FB1460F81460F51460E61460E364
:10466000123397F5838882E0851882851983F024B8
:10467000BFC3941A4003023EA9740112180BAA8208
:10468000AB83851882851983E0F91203C274011285
:10469000180B124C47644E60030239559002BDE07E
:1046A00024F8124D405003024768123490740112EE
:1046B000180B123493740112180B124B6A7456F0D3
:1046C000740112180B1254467408F0A3E4F004129B
:1046D000180B124B71A374021254ECC0E074011257
:1046E000180B124BF6D0E0124CC8F582E91256476F
:1046F000E0C0E09002C2E05407F8D0E0B8000280C9
:1047000004C313D8FC5401C0E0740112180B124BFF
:10471000F6A3D0E0F0740112180B1254B3E4F0A326
:10472000124CC8F8E93400F99002C2E05407FA7458
:1047300001BA00028004C333DAFCFB74FFC39BFAA6
:1047400088828983E05A4B023D0B9002E7E0240205
:10475000F0A3E03400023D0B12040AE914700302D6
:104760003EA91460030239559002B47404023EB7A6
:10477000124CF05003023EBB124D937406023D658D
:10478000124D0E64276008E064226003023EA91205
:1047900003A48A0A8B0BAE0AAF0B74FF6E7003740E
:1047A000FF6F7003023EA9124CF05003023EBB188B
:1047B0001818E0F9E508C398F8E50999F9E824FE26
:1047C000F508E934FFF509C3EE9508EF9509A2D283
:1047D00065D0335017EE04C0E0124B67D0E0124CA6
:1047E000817409124C5A8E088F098012E50804C0A2
:1047F000E0124B67D0E0124C817408124C5A7808D2
:10480000121A2A1254249002E21257CF12043A7458
:10481000021217D69002E2124BAF9002E2123493CA
:10482000C3EE9415EF125B035004EEFA80027A1582
:1048300012542479001209E09002B0E02EF8A3E0AF
:104840003F8882F583A3A882A9839002B0023D72BB
:104850009002E2125B317003023EA99002E2123133
:1048600012C3E50898E509995003023EBB9002E2A5
:10487000E0FEA3E0FF9002E2E8F0A3E980449002AA
:10488000E212564CEAF8EBF9C3E50898E5099950AD
:1048900003023EBB1812540FE50CF09002E2EAF05E
:1048A000A3EBF012038C7A1079021203BC8A0C90ED
:1048B00002B4E060C9124C1F68600302395E9002C6
:1048C000B4E4F0124D0E640A7010EEF89002E2E0CB
:1048D000C398148E828F83023D0BE064276005E04D
:1048E000642270129002B0E02401124D079002B0D1
:1048F000E8F0A3E980ACE024BFC3941A4003024966
:10490000989002B0125446E0F8740A686008742067
:10491000686003023EA9740112180BAA82AB83855A
:104920001882851983E0F91203C2740112180B1260
:1049300057E46003023EA9740112180B1256D59079
:1049400002E2124B4FF8E934FFF9C3E50898E50994
:10495000995003023EBB8518828519837408F0E0E4
:10496000FC740112180BE0F81256D5C3EC98E499C8
:1049700040030248C38A828B83E0C0E0124B67D0B9
:10498000E0F08A828B83A3AA82AB83124C5B8518EA
:1049900082851983E00480C6E064206003023EA99A
:1049A0000248C39002E2E064C37004A3E0640270B2
:1049B0000A9002E2E4F0A3F0023EA99002E4E0A231
:1049C000E07CC37D029002E2E0501DC394C3F97AFB
:1049D000077B031207348518828519837401F0ACB4
:1049E00082AD83F97A058006C394C3F97A087B0304
:1049F0001207349002E2E4F0A3023D0BE06427606A
:104A000008E064226003023EA9120410E9851882BE
:104A1000851983F07003023EA99002F9E0F8900234
:104A2000E2124B7CA3A3C3E5089582E50995835068
:104A300003023EBB12038C9002F9E004C0E0124B6B
:104A400067D0E0124C7824FE600B24FE600E24F444
:104A50006011023EA912540C7403800C12540C74A1
:104A600005800512540C7407124C78F5087509007E
:104A70007808121A2A7CE97D029002E21257CF12BE
:104A8000043A74021217D6122C0364DA70099002E9
:104A9000E2124C14C2E0F09002F9E0F89002E2E079
:104AA00028023D6C740612180BAC82AD837902EEBD
:104AB000FAEFFB120734E9851882851983F0E002CA
:104AC0003DF7E50C2408F8E50D3400F922C3E4981D
:104AD000F8E499F99002BD22FDEA450D450E450F17
:104AE00022124AE6A322F08A828B83A3A3A32290F8
:104AF00002B1125413E0229002B1125413E0640A7E
:104B0000229002C2E05407FC8882898322F090023E
:104B1000BD124B1522124B1922E0F8A3E0F9221224
:104B20004B159002B022124B159002BB22124CC2C0
:104B30009002B0229002B1124C0F6496229002BEF5
:104B4000E0F988828983A3A3A322124B15EA2212DB
:104B5000565AE824F8229002B112324574BF282236
:104B6000123245742068229002E2E0F8A312541336
:104B70002212544AA322124BEFE06822E028FAA343
:104B8000E034008A82F583229002C2F0131313549A
:104B90001F124D01E8246822C3E098A3E099221275
:104BA0004D276428229002B9124BAFE824FC22E082
:104BB0002508F8A3E03509F922124BBD22124BC19A
:104BC00022F8A3E03400F99002B0E8F0A3E9F02263
:104BD00012544AE024F822E0C398FAA3E099FB3388
:104BE00095E0FCFD229002B5124BEF123497221291
:104BF0004B199002B722E0F8A3124BFD22124C533E
:104C0000A322124C0E24F8FCA3E034FFFD22A312D1
:104C10005451E022124D83C824FF125996E022908D
:104C200002B0123242851882851983E022124E208A
:104C3000EE22124C3622125451A3E0F89002BBE04F
:104C400028F8A3E0340022124C4B22E0F8A3124CC7
:104C500053E022125417A3A3A322F0124C5F221296
:104C60004C63229002E2E02401F8A3E03400F990C2
:104C700002E2E8F0A3E9F022F0124C5F9002F9E0C2
:104C800022124DA4229002BBE02403124C8F221268
:104C90004BC1F5838882E0229002B5E02CF8A3E0B6
:104CA0003DF99002B71234979002B5124CC222AC73
:104CB00082AD839002BE124C4EF8A3124BFD124CF3
:104CC000C222E0FAA3E0FB22124CD5124CDD124DB9
:104CD00001E8246822F085188285198322E024BF28
:104CE0009002C2F0131313541F22124D2764A22204
:104CF0009002E2E02403124D07C3E50898E5099904
:104D000022F89002B9E028F8A3E03400F9229002DA
:104D1000B0E02401124C8F851882851983F022128D
:104D20004D27FC124E20229002B0124D2E22E0F8A8
:104D3000A3125417E0229002B7E02402124BBD22C6
:104D4000F8A3E034FFF99002B7124CC2C3E89AE925
:104D50009B229002BBE0F8A3124C36F99002BB12E2
:104D600034979002B7E06822124E1974BF2EC39494
:104D70001A229002BDE0F8A3125413A3124D83121D
:104D80004D8822E0F8A3E022F99002BD12565A9015
:104D900002BD221818181254137402124DA4740183
:104DA000124DA422F0124C63F5838882228A0C8B68
:104DB0000D8C0E8D0F124D27642922124D27640A87
:104DC0002274F4121817124E1574452EC394035012
:104DD000261203E09002B4E0701DEAC39408501755
:104DE000124DB5701212311A74BD6E701774016ACB
:104DF000600574026A70189002B47406F07A007B41
:104E0000000256D074BC6E7006EAC3940450E8EEFB
:104E10002445FB80EC124E19229002B0124D2EFE5A
:104E20009002B0E0240108124BC22274E812181755
:104E300074F81217C07E007F00740212180BE4F0A1
:104E4000A3F0F508740612180BE4F0A3F09002E545
:104E500012541D1234931203B08A148B15124B0E88
:104E60008518828519831234939002E7E0F50AA32E
:104E7000E0F50B7403780A1217ADE50A2402F8E591
:104E80000B3400F9C312552950030253869002BD1A
:104E9000E02402F512A3E03400F513024FFD740A7A
:104EA00065096003025137125390122C065430707A
:104EB00003024F5D9002BDE024FA125480F8A3E093
:104EC000F97583027582BD124B9850030253869088
:104ED00002BD1254277AFF7BFF120B6C1254038E13
:104EE0000C8F0D7403780C1217ADE512250CF8E544
:104EF00013350DF988828983A37405F0A374931286
:104F000053A37402F0A3A3A3041253B2E4F0A3F0DA
:104F10009002BD125464A3A3A3EAF0A3EB1254754C
:104F20001234931254F150030253861254CB74047A
:104F300012180BAA82AB83850A82850B83E0F912D3
:104F400003C2740412180B1254B3E50AF0A3E50B64
:104F5000F09002BDE02407124D07123490E508706E
:104F600003024FE51254038E0A8F0B7403780A1262
:104F700017ADE512250AF50AE513350BF50B850A81
:104F800082F583A37415F0A374931253C77402F0CF
:104F9000A3A3A3141253CFE4F0A3F0850882858263
:104FA0000CE50C24011255245003025386750900A8
:104FB0007808121A2A740412180B125431FAA3E05A
:104FC000FB12043A74021217D69002BDE0250CF8C9
:104FD000A3E034008882F583E4125475A3A3A312DE
:104FE0003493750800851482851583A3A3E0F8E542
:104FF0001428F514E5153400F5151254039002E752
:105000001256624003025333E5142403F8E51534C5
:1050100000F91253DB64CE70E1122C03F50A123151
:105020001A7496650A70030253338E0C8F0D740345
:10503000780C1217ADE512250CF510E513350DF5BA
:1050400011851082F583A385820C85830DE4F0A37E
:10505000F08510828511837402F0A3A3A314125368
:10506000BCA3E4F0A3F0E5102406F516E511340026
:10507000F517851682F583E4F0A3F074CF650A6016
:105080000974D0650A60030251A412549374226516
:10509000096009742765096003025137120410E999
:1050A000700302513774CF650A600302513F850CCB
:1050B00082850D837411F0A3749312563CF50A7522
:1050C0000B0024031255245003025386780A121A47
:1050D0002A7CE97D0212543912043A74021217D65E
:1050E0009002F9E0C0E09002BD124B6AD0E0F012ED
:1050F00054399002BD125446EAF0A3EB124B0D85D1
:10510000168285178312349312038C122C0364C009
:105110006003024FE59002B112540FA3E0648B705C
:10512000169002B0124D391203E0740612180B12D9
:1051300053F97003024FE5125499790102538B74AD
:10514000D0650A6003024FE5850C82850D837413D8
:10515000F0A37493F012038C1203A48A088B09A89D
:1051600008A90974FF68700374FF6960299002B090
:105170001257CF740212180B1253AC9002B0E028F1
:10518000FAA3E0398A82F583A3A882A9839002B0AA
:10519000123493024FE5740212180BE4F0A3F0F5F9
:1051A00008024FE5742F250AC39405508A9002B077
:1051B000E024FFF8122DC57509008006E509D2E14B
:1051C000F5091254C160F514601D14600814600BD9
:1051D00014600E8018E509D2E380E5E509D2E48089
:1051E000DFE509D2E580D9E509D2E280D312339711
:1051F0009002BDE024FF125480FAA3E0FB9002BDB0
:10520000C3E09AA3E09B500302538612540FE509B2
:10521000124B0D12539012349312549374BF2509FC
:10522000C3941A400302513712551BF8742068606A
:105230000E740A686009E8C39480500302513790E5
:1052400002F9E0F82409FCE43400FDE49CFCE49D50
:10525000FD9002BDE02CFCA3E03DFD9002BDECF012
:10526000A3EDF09002BDC3E09AA3E09B500302536C
:10527000869002F9E0FA9002BDE02AF50AA3E01256
:105280005B14A3A3A3A3A3E4F0A31253CFA3A3A3EC
:10529000F0A31253C7E509F0A3E512F0A3E513123A
:1052A00053C7A3A3A3E4F0A3F0880EF50F780E1262
:1052B0001A2A7CE97D021257CC12043A74021217A2
:1052C000D6851682851783E50AF0A3E50B1253BC39
:1052D0007403124B0D850C82850D83125638851090
:1052E00082851183800C125456A3A3A3A3A3E8F0D4
:1052F000A3E9F012038C12549374BE65096009741B
:10530000BF65096003024E9E12551B648B60030249
:10531000513712311A12038C1203E01253F6600354
:1053200002513774BE65099002C060BA125456A388
:10533000A380B61254F1404E1254CB88828983A3C5
:10534000A3A3E512F0A3E513F0740612180B125490
:1053500088E51224FEF582E513125999EEF0A3EFC9
:10536000F075084E7509927808121A2AEEFCEFFDC6
:10537000AA12AB13120AE874021217D6E9600302EC
:1053800051377900800512549979027408022B650F
:10539000E51024FEF582E511125999229002BDE82C
:1053A000F0A3E9F088828983229002C0EAF0A3EB9F
:1053B000F022F088828983A3A3A3A322F085108220
:1053C000851183A3A3A322F0850A82850B8322F093
:1053D000850A82850B83A3A3A3A32288828983A342
:1053E000AA821253E622AB839002B0EAF0A3EBF05C
:1053F00088828983E0229002C0EAF0A3EBF0900259
:10540000B4E022EE24010EEF3400FF229002E312FA
:1054100054132212541722E0F583888222124B156E
:105420009002C0229002B012542B22E0FCA3E0FDB7
:105430002212542B9002BDE0229002BDE02403FA18
:10544000A3E03400FB2212544A22E0F8A312545184
:1054500022125417A32212545A22124B19850A827F
:10546000850B832212546822E0FAA3E0FB8882892C
:1054700083A3A3A322F09002BD12545AA3A3A32294
:1054800012550C9002B7E022125468A3A3EAF0A3CD
:10549000EBF022124D27F509228518828519831217
:1054A0004B159002BD1234979002BBE514F0A3E5B2
:1054B00015F022124D83C82406F582E83400F583E6
:1054C000229002B0E0123253242F229002BD124BE0
:1054D000158882898374531254ECC39AFAA3E09B13
:1054E000FB88828983A3EAF0A3EBF022124CD5E07B
:1054F000229002BDE024F912550C9002BD124CC25C
:105500009002B7124B15C3EA98EB9922F8A3E03446
:10551000FFF99002BDE8F0A3E9F022124E20F583D6
:105520008882E022F8E43400F9E498F8E499124D16
:10553000881234979002B71234197582BDC3E0986F
:10554000A3E0992274EC1218171203A48A088B099D
:10555000A808A9099002B0125656E8FEE9FF900289
:10556000B012566240409002F9E480079002B0EA1F
:10557000F0A3EB12563CF5089002B012564C900284
:10558000B0C3E09EA3E09F50329002F9E0C39410B4
:105590005014122C03642D60D37A1079021203BCCC
:1055A0009002B4E0600302563174E92508F5827474
:1055B00002125647EA12563C0480B8750C00750D6D
:1055C00000750E00750F008040850C0A850D0B7468
:1055D000E9250AF87402350BF988828983E0FEE533
:1055E00008C3950AFCE4950BFD74E82CFC74023D9D
:1055F000FD8C828D83E088828983F0EE8C828D839E
:10560000F09092B0780C1215E39002F9E0C313F514
:1056100010E4F511F512F5137810790C1213A0406F
:10562000A8EAF8EBF99002B01256386004790180CC
:105630000279007F0C0218E9E8F0A3E9F09002F982
:10564000E022240EF582EB3400F58322E02401FAF7
:10565000A3E03400FB2212565A22E028F8A3E039D6
:10566000F922124B15C3EE98EF992274F412181711
:1056700074FE1217C0EAFEEBFF890BEC250BF50A4E
:10568000851882851983AA82AB838E828F83E0F985
:105690001203C21257DE70228518828519831256B2
:1056A000D5E824F8FAE934FFFB850A08C3EA95082F
:1056B000EB9400500FEAF50A800AE50AC39405400E
:1056C00003750A04850A08AA087B0074021217D61B
:1056D0007F040218E9124C0EF8A3E0F92274EE12CE
:1056E000181774FE1217C0741612180BE0F50CA3ED
:1056F000E0F50D8C828D83A3A3A3A3A3A3E0FEA357
:10570000E0FF741812180B12594AAC08FDEEFAEFBC
:10571000FB120416EAF50B700579010257C28E825E
:105720008F831257D3600579011203FE8518828595
:105730001983AA82AB838E828F83E0F91203C28A17
:105740000E8B0FAC0EAD0F741412180B1257CF1234
:1057500057DE7026850B0EE50EC39508F50EE49511
:1057600009F50F780E121A2AEC2508FCED3509FD13
:1057700012043A74021217D6803AAE088030850BB4
:105780000E8E10E50EC39510F895E0F9EC28F8EDB3
:10579000125935E0C0E08E0EE50EC39508F8E49589
:1057A00009F9EA28F582EB39F583D0E0F00EEEC373
:1057B000950B40CAE50BC39508850C82850D83F0D7
:1057C000790074021217D67F0A0218E99002BD12FE
:1057D0004CC222A3A3A3A3A3124CC2EA4B22851856
:1057E00082851983124C4B64042274EA12181774D0
:1057F000FE1217C08C0E8D0F890A7514057515934E
:10580000741812180BE0F512A3E0F513741A1218AD
:105810000BE0FEA3E0FF8C828D831259417003E5FB
:10582000156970267508017509007808121A2A8E04
:10583000088F097808121A2A7812121A2AA90A124D
:105840000B7E74061217D602592B8C828D83A3A36C
:10585000A3A3A3125949A90AEEFCEFFDAA08AB09BC
:10586000120416EAF50BF58285820C850A10EE25E6
:1058700010F8EF3400F9E8650C7001E96005790172
:1058800002592B851882851983AA82AB83850882E9
:10589000850983E0F91203C21257DE7023E50CC3B9
:1058A0009EF50CE49FF50D780C121A2AAC12AD137C
:1058B000EA2EFAEB3FFB12043A74021217D6803834
:1058C000EEFC802E8C0CE50CC39EF8E49FF9E512EB
:1058D00028F582E51339F583E0C0E0850B10E5106B
:1058E000C3950CF895E0F9EA28F8EB125935D0E0A9
:1058F000F00CECC3950B40CC850882850983A3A3EB
:105900001257D3600579011203FE850E82850F833D
:10591000A3A3A3A3A3A3A3A31259417003E51569ED
:105920007007AA08AB09120428790074021217D66E
:105930007F0E0218E939F9E824FFF582E912599936
:1059400022A3124B15E5146822A3E0F508A3E0F5A5
:10595000092274F5121817EAFCEBFD8C828D831274
:105960005949750AFF780A121A2EE50824FEF582B5
:10597000E509125999121A417808121A2A79008CED
:10598000828D83A3A3A31257CF120B847405121721
:10599000D67F030218E9F582E834FFF5832274EE1E
:1059A000121817EAFEEBFF890E9002BDE0F508A37E
:1059B000E08066850A10850B11740378101217AD0C
:1059C000850C82850D83E02510F8A3E03511F98858
:1059D000828983A3E064057004A3E0649370108857
:1059E000828983A3A3A3A3A3A3125B1E120B6CE55E
:1059F0000A24FFF50AE50B34FFF50BC3E50A940111
:105A0000E50B125B0350AC850882850983A3124B1A
:105A100011E50828F508E50939F5099002B9124B96
:105A200011C3E50898E509994003025AF3850882F5
:105A3000850983E0645370CFE5082405F50AE5097C
:105A4000125B14125B31606CEEFAEFFB125B2624E2
:105A50001CF582E81256471253ACA3E4F0A3F012EF
:105A60005B262448F582E8125647E50E125B0B745C
:105A700002650E7031750D00750C01A90CEEFAEF80
:105A8000FB120D52E96004E50C420DE50CC333F541
:105A90000CC3942040E5125B262414F582E81256CC
:105AA00047E50D125B0B7901850A82850B8312573E
:105AB000CF1203FE7401650E60187402650E600358
:105AC000025A077901EEFAEFFB120D52E960030268
:105AD0005A07E5082403F50CE5093400F50D850C9B
:105AE00082F583125B2924FE125996E0F50AA3E0A1
:105AF0000259F90257C78A088B09AC08AD09C3ECF3
:105B00009401ED9400A2D265D03322F0A3E4F0A377
:105B1000F0A3F0223400F50B850A82F5832212549B
:105B20002BEEFAEFFB229002B9124D83C8229002AD
