:020000040000FA
:0600000002011D0222BFF7
:03002B00021B8233
:03003300021B03AA
:0300530002233253
:03006B00021A185E
:03007B00021A8BDB
:1000830002212BE5C754F84401F5C779012200008A
:100093000080FB120086B90003020107E47921788E
:1000A30008B800028004F709D8FCE479297802B87B
:1000B30000028004F709D8FCE4900281785F790795
:1000C3008002F0A3D8FCD9FA781A90014D7A01BACC
:1000D30000028007E493A3F608DAF99008DFAA8206
:1000E300AB8390014E782D79038015E493A3AC8202
:1000F300AD838A828B83F0A3AA82AB838C828D83A8
:10010300D8E9D9E77582727583BB740312012F7521
:100113008291758300740012012F75D00075813FA1
:10012300751881751902759F00020096C09FF59F8F
:10013300E473D09F22D083D082C09FE493C0E07445
:100143000193C0E0740293F59F2201026B850100C5
:1001530000578502D284010000918510FB830300C0
:10016300008C02028985030000820202D28401000E
:10017300009085101B8403000000008603000089A3
:10018300803F828681A082F780C7810080E684CB8E
:10019300824A83FE843F810382000030FF02020211
:1001A300020202020202010D0000001001026B852F
:1001B300010000548502D2840100003109028B85BD
:1001C3000100001C0302D28401000032090287856A
:1001D300010000AD8402D2840100003309028D8541
:1001E300010000768402D284010000340902838571
:1001F300010000B78302D284010000350902818522
:10020300010000C98302D2840100003609027F8500
:10021300010000938302D2840100003709027D8527
:10022300010000A58302D2840100003809027B8506
:10023300010000848402D284010000390902798517
:100243000100003A09FF000000FF000130750302BE
:100253000106000000000000000000000000000094
:100263000000000000000000000000000000FFFF8D
:100273000600800CE803FF0000B4000028002800FB
:10028300283075A000A000A000A00000080008E02E
:1002930001F00010001000100010001000100050BA
:1002A300005000500010001000D0070000000000B4
:1002B300000F0001000500307507001000010081E8
:1002C300FF00000000FFCC08EA08D208FF02020288
:1002D30008025000A0000000E803026B8501000043
:1002E3004E8502D284010000610A025D850100008F
:1002F300520402D284010000620A025F85010000F9
:10030300680402D284010000630A026185010000CF
:100313006A0402D284010000640A026385080000B3
:100323006B0402D284010000650A026585010000A6
:10033300660AFF0100FF20026B8501000051850260
:10034300D284010000CA0A0267850000000000028F
:100353008985030000B8046C0E6C0E6C0E6C0E6C79
:100363000E6C0E6C0E6C0E6C0E6C0E6C0E6C0E6CBA
:100373000ECA10E210C410120138CFF30212013872
:1003830010F50212013890F60212013850F70212EA
:10039300013890F7021201381FF802120138CAF827
:1003A30002120138F829001201380B2A0012013811
:1003B300832B00120138252C001201387C2C0012EB
:1003C3000138BD2C00120138E62C00120138212D12
:1003D30000120138242E00120138AB2E001201380E
:1003E300662F001201389A32001201383533001299
:1003F3000138C7330012013895340012013815351E
:1004030000120138543500120138893500120138C1
:100413000B36001201383E360012013878500012B4
:100423000138D250001201382751001201382558E3
:10043300001201384C5900120138C9590012013811
:10044300D45A001201383E5C001201388F5C00124E
:10045300013899F902120138A3F902120138E1F9BE
:10046300021201382AFA0212013864FA0212013820
:10047300BEFA02120138DFFA02120138E8FA021258
:10048300013835FB021201385EFB0212013868FBAA
:1004930002120138D4FB0212013866FC0212013841
:1004A300B0FC02120138E6FC0212013872FD02129E
:1004B3000138B3FD02120138EAFD02120138FCFDD6
:1004C300021201381BFE0212013824FE0212013807
:1004D300F1FE0212013818BB03120138A1B803124E
:1004E300013837AE031201386DAE03120138A3AEE3
:1004F30003120138EEAF0312013880BA0312013838
:1005030096BA03120138A0BA03120138EABA0312E9
:1005130001382785031201383C8503120138EC8525
:10052300031201382C860312013845860312013861
:10053300808603120138CD8603120138FF86031229
:100543000138418703120138428903120138B48903
:100553000312013820BC0312013832BC03120138E4
:10056300EDA60312013812A7031201383CA70312A8
:100573000138CABB03120138E57F001201381FFF9F
:10058300021201382FFF0212013838FF021201381C
:10059300C9FF021201389DB70312013822B80312B2
:1005A300013888B803120138F87F00120138FEAB16
:1005B300031201388DAD03120138EEAD0312013879
:1005C30034AE03120138C189031201387E8A031243
:1005D3000138AF8A03120138C68A03120138DA8A56
:1005E30003120138238B03120138268B03120138BF
:1005F3008A8B03120138CD8B03120138FE8B031251
:100603000138828C03120138CB8C03120138F78C2A
:1006130003120138218D031201389C8D0312013816
:10062300F28D0312013887B303120138D9B30312D1
:10063300013863B403120138CAB403120138B9A9EB
:1006430003120138E3A903120138B1AA03120138D6
:100653008CAB031201387DDE0212013844DF021233
:1006630001387BDF02120138A5DF0212013805E0F1
:10067300021201385BE002120138C0E002120138B5
:1006830058E10212013867E202120138FEE3021256
:1006930001388BE402120138F2E40212013809E551
:1006A3000212013823E602120138008002120138D7
:1006B3008383021201380B8502120138628502120C
:1006C3000138818502120138FF8502120138A087A3
:1006D300021201388588021201384C8C021201384B
:1006E300228D0212013828B0031201383FB00312E1
:1006F300013870B003120138ABB003120138D5B022
:1007030003120138FFB00312013816B10312013886
:100713002DB10312013844B1031201386DB1031234
:10072300013880B10312013896B103120138A9B11F
:1007330003120138D0B103120138DACB02120138A7
:10074300DECC0212013816CD0212013839CD021265
:10075300013844CD0212013867CD0212013876CE3A
:10076300021201384BCF02120138C6CF02120138F0
:100773004ED00212013889D002120138C0D00212C1
:1007830001384ED10212013827D20212013887D222
:100793000212013892D20212013811D30212013827
:1007A30014D30212013817D302120138A6D302124E
:1007B3000138A9D302120138D9D30212013803D464
:1007C30002120138F1D402120138A3D50212013802
:1007D30084ED02120138ACED02120138DAED021297
:1007E300013811EE021201386FEE02120138FDEFEB
:1007F3000212013848F00212013893F00212013854
:10080300D3F00212013819F10212013847F1021232
:10081300013804F2021201380EF2021201381BF2FF
:10082300021201384EF2021201381AF30212013891
:1008330026F3021201383EF30212013848F3021282
:1008430001389FB903120138B7B903120138CFB980
:1008530003120138E7B9031201389AF30112013880
:1008630076F401120138DAF50112013831F601127A
:100873000138B2F601120138A2F701120138EFF77D
:100883000112013875F801120138A7F80112013875
:10089300BBFA01120138FDFA011201381BFB0112E8
:1008A30001389EFB0112013872FC011201383AFD36
:1008B3000112013861E60212013834E702120138ED
:1008C300DDE70212013830E802120138E0E80212D3
:1008D30001386CE90212013858EA0212013887EA3A
:1008E300021201389AEB02120138E2EB02120138CC
:1008F300B7EC02120138F3EC021201380FED0212C9
:100903000138D79A03120138ED9A03120138139B69
:10091300031201382F9C03120138399C031201384A
:100923006E9D03120138669E031201380080031284
:100933000138308103120138638103120138AD811C
:1009430003120138748303120138A1C6011201385E
:100953000BC7011201386AC801120138F4C8011229
:10096300013804C90112013831C9011201388DC996
:100973000112013894CA011201385ECB0112013809
:10098300BECC0112013801CD01120138A6CD0112EE
:100993000138F3CD0112013819CE0112013827D0E5
:1009A300011201382CD00112013831D20112013861
:1009B3007ED201120138F1D20112013824D301127F
:1009C3000138C6D3011201386FD401120138A7D4FC
:1009D30001120138AAD401120138F2D401120138EC
:1009E30032D50112013889D5011201381AA4031234
:1009F300013832A4031201387AA40312013890A4F7
:100A030003120138D7A403120138EBA503120138EE
:100A130078A603120138C3A6031201382D5E001213
:100A23000138685E00120138AD5E001201386D5F57
:100A330000120138FC5F0012013882600012013895
:100A4300E760001201381361001201384C61001293
:100A530001388A63001201386E6500120138546749
:100A630000120138976800120138E56A0012013854
:100A7300F76B00120138426D00120138526E0012FA
:100A830001386F6E00120138AA6E00120138CC6E65
:100A9300001201382F6F00120138F0730012013871
:100AA300857400120138D77400120138F5740012EE
:100AB30001384F7500120138387600120138AE77CD
:100AC30000120138327800120138B2920312013851
:100AD300BC9203120138FF92031201381A930312D6
:100AE3000138AA9303120138D293031201380F94E9
:100AF300031201384694031201386F94031201382C
:100B0300E49403120138F994031201380E95031289
:100B130001384F9503120138899503120138B595B1
:100B23000312013838960312013843960312013831
:100B33008C9603120138B69603120138E19603121C
:100B4300013884B60312013862A80212013890A852
:100B530002120138DEA902120138BEAA02120138BC
:100B6300DDAA021201385AAB021201389DAB021200
:100B73000138F3AC02120138B4AD021201383BB0B4
:100B830002120138DCB002120138D2B1021201386C
:100B9300CFB20212013829B402120138B4B40212DE
:100BA300013829B50312013892B503120138E6B5AD
:100BB300031201380DB6031201383EB60312013891
:100BC300458E03120138B28E03120138F98E0312D7
:100BD30001381190031201380D9103120138F0917D
:100BE3000312013814D60212013856D60212013804
:100BF30028D70212013801D802120138FBD8021299
:100C03000138DDD90212013846DA02120138FCDA62
:100C13000212013870DB02120138DCDB02120138E8
:100C230005DC021201387FDC0212013818DD0212E2
:100C330001387DDD0212013892DD02120138D8DD60
:100C430002120138F1DD0212013856DE02120138B8
:100C530059DE0212013847A1031201386FA10312B2
:100C63000138ADA1031201386BA203120138D2A2DD
:100C730003120138EEA20312013816A3031201383E
:100C830046A30312013855A303120138D2A303125A
:100C9300013876D60112013854D80112013886DAA8
:100CA30001120138C2DA01120138EFDA01120138F8
:100CB300D9DB0112013824DC011201386FDC011287
:100CC3000138A4DC01120138F2DC0112013821DD04
:100CD3000112013844DD0112013891DD011201389E
:100CE30016DE0112013830E0011201386FE2011201
:100CF3000138B0E20112013852E40112013893E4E1
:100D03000112013806E5011201385CE501120138D0
:100D13004D9B021201384B9C02120138E4A20212CD
:100D2300013805A502120138D0A60212013838A8ED
:100D330002120138928501120138418601120138ED
:100D43006E8601120138B48601120138F48701124C
:100D530001388A8901120138048A011201387F8A15
:100D630001120138D98B01120138398D0112013872
:100D73003F8E01120138A08F01120138B98F011281
:100D83000138179001120138059101120138389189
:100D930001120138A891011201382292011201387F
:100DA3006C92011201383693011201380B9401122F
:100DB3000138EA9401120138759501120138E3955F
:100DC3000112013857960112013882960112013837
:100DD300419701120138A69801120138C3980112F4
:100DE3000138E29801120138D39901120138F899B8
:100DF30001120138229A011201389D9A0112013819
:100E0300F79A01120138609C011201380E9D0112FC
:100E130001384F9D01120138C6E50112013814E66D
:100E23000112013820E601120138FEE601120138F1
:100E33002FE70112013860E701120138E0E70112E0
:100E4300013818E8011201386AE801120138A7E8ED
:100E530001120138C4EA01120138EAEC0112013827
:100E6300D5EE01120138BFF001120138ED2900124D
:100E730001388EB201120138BEB20112013897B99E
:100E8300011201381CBB0112013819C101120138CA
:100E930001C2011201383EC20112013861C20112BE
:100EA300013892C2011201389BC201120138A5C256
:100EB3000112013893C30112013889C401120138A8
:100EC3007F9D011201387EA10112013884A1011214
:100ED3000138BFA801120138D8AD011201380997B2
:100EE300031201389F9703120138B5970312013893
:100EF3002B98031201389F9803120138DD980312CF
:100F03000138519903120138CA9903120138D39950
:100F130003120138DF9903120138F49903120138DF
:100F2300329A03120138489A03120138A79A03121E
:100F33000138709E031201387D9E03120138979E7B
:100F430003120138D69E03120138149F031201388D
:100F5300799F031201388E9F03120138999F031260
:100F63000138A69F03120138BD9F03120138CB9F9E
:100F730003120138D69F03120138E29F031201388E
:100F8300F19F03120138FC9F0312013819A00312C9
:100F9300013829A0031201383FA0031201385BA0D6
:100FA3000312013866A0031201387BA00312013833
:100FB3008FA003120138F0A003120138F6A0031228
:100FC3000138FCA00312013802A10312013814A155
:100FD30003120138CA8D02120138568E02120138EB
:100FE300B58F02120138D69102120138C292021251
:100FF3000138F79202120138199302120138C8938B
:1010030002120138C09502120138E9950212013823
:101013007B9602120138AD9602120138BA9602127B
:101023000138119702120138379702120138A49937
:1010330002120138A79A02120138FF9A02120138EC
:101043005EB50212013868B5021201388AB5021280
:10105300013896B5021201382FB7021201385EB774
:10106300021201387AB802120138D3B802120138D9
:1010730047BA02120138B4BA02120138EFBA0212A7
:1010830001382EBB02120138E7BD0212013801BE3E
:10109300021201388DBE021201389BBE02120138C2
:1010A300F4BE0212013802BF0212013875BF0212E8
:1010B3000138D9BF0212013823C002120138ACC073
:1010C30002120138CEC002120138F4C202120138F2
:1010D30009C60212013821C702120138D4C702120D
:1010E3000138B6C802120138E2B10312013807B25F
:1010F3000312013879B203120138997800120138CA
:10110300A27800120138AB780012013882790012FC
:101113000138337B00120138697B00120138A37B4D
:1011230000120138D97B00120138137C00120138F8
:10113300477C00120138737C00120138BC7C00121A
:101143000138F67C001201383F7D00120138977D8B
:1011530000120138CC7D00120138277E00120138BD
:10116300617E00120138B27E00120138E87E00125F
:101173000138227F00120138457F0012013853FFE6
:10118300011201387FFF01120138DAFF0112013821
:10119300E4FF01120138F4FF01120138CFFF0212FC
:1011A300013861BC03E76670100809E766700A0836
:1011B30009E76670040809E76622E066701008A371
:1011C300E066700A08A3E066700408A3E06622C321
:1011D300E7960809E7960809E7960809E796A2D271
:1011E30065D03322C3E09608A3E09608A3E09608EF
:1011F300A3E096A2D265D03322C008C3E096F508D7
:1012030008A3E096420808A3E096420808A3E096E4
:101213004208A2D265D033E5087001D3D00822C3B7
:10122300E7960809E7960809E7960809E79622C3AF
:10123300E09608A3E09608A3E09608A3E09622C0F0
:1012430008C3E096F50808A3E096420808A3E096D1
:10125300420808A3E09645087001D3D00822080885
:1012630008EAC0E0EBC0E086F0E7A4FA180986F0CC
:10127300E7A42AFA180986F0E7A42AFA180986F0DF
:10128300E7A42AFA1986F0E7A4FBE5F02AFA19087D
:1012930086F0E7A42BFBE5F03AFA190886F0E7A4F9
:1012A3002BFBE5F03AFA18180986F0E7A4C5F02BF2
:1012B300FBE43AFA1908E7C5F0C6A426F6E5F03BC5
:1012C300FBE43AFA1886F0E7A4F6E5F00826F6E41C
:1012D3003B08F6E43A08F6D0E0FBD0E0FA22E4CF8C
:1012E300C0E0E4CEC0E0E4CDC0E0E4CCC0E075F003
:1012F30020C3E633F608E633F608E633F608E633AA
:10130300F6181818EC33FCED33FDEE33FEEF33FF24
:10131300C3EC9709ED9709EE9709EF97191919404F
:101323000FFFEC97FC09ED97FD09EE97FE191906DF
:10133300D5F0BEECF709EDF709EEF709EFF7191948
:1013430019D0E0FCD0E0FDD0E0FED0E0FF22121384
:10135300B91818181212E11213A819191922121325
:10136300A8191919080808E618181820E7E0121236
:10137300E11213B918181822090909E719191920D4
:10138300E7DC080808E618181820E7030212E11240
:1013930013B91818181212E11213B91818181213E6
:1013A300A819191922E4C397F709E497F709E497F1
:1013B300F709E497F722E4C396F608E496F608E4FF
:1013C30096F608E496F6226017080808C6A2E71303
:1013D300C618C613C618C613C618C613C6D5E0E981
:1013E300226016080808C6C313C618C613C618C653
:1013F30013C618C613C6D5E0EA22700908080822E6
:101403006016181818C6C333C608C633C608C633D1
:10141300C608C633C6D5E0EA22E627F60809E6374A
:10142300F60809E637F60809E637F622E026F60855
:10143300A3E036F608A3E036F608A3E036F622E08A
:1014430026F008A3E036F008A3E036F008A3E03660
:10145300F022C3E697F60809E697F60809E697F639
:101463000809E697F622C3E096F008A3E096F00891
:10147300A3E096F008A3E096F022E657F60809E603
:1014830057F60809E657F60809E657F622E056F636
:1014930008A3E056F608A3E056F608A3E056F622A2
:1014A300E056F008A3E056F008A3E056F008A3E0E6
:1014B30056F022E647F60809E647F60809E647F636
:1014C3000809E647F622E667F60809E667F608091B
:1014D300E667F60809E667F622E0F608A3E0F608F1
:1014E300A3E0F608A3E0F622E6F008A3E6F008A3DB
:1014F300E6F008A3E6F022E0FAA3E0FBA3E0FCA3F6
:10150300E0FD22EAF0A3EBF0A3ECF0A3EDF022CA96
:10151300C0E0E6F0A308DAFAD0E0FA22CAC0E0E0BD
:10152300A3C582CCC582C583CDC583F0A3C582CCB8
:10153300C582C583CDC583DAE6D0E0CA22C3E49869
:10154300F8E499F91215818026C3E49AFAE49BFB27
:10155300E920E7E9121581E498F8E499F922C3E454
:1015630098F8E499F9121581E498F8E499F9C3E439
:101573009AFAE49BFB22EB20E7CFE920E7E0B900EE
:1015830010BB0008E88AF084F8AAF022E4FBC8FA4A
:1015930022EB70227B10C833C8C933C9335007C349
:1015A3009AC3DBF280069A50012ADBEAC833F4C8F7
:1015B300C933F4C9FA2275F008E4C833C8C933C97A
:1015C30033C99AC99B5004C92AC93BD5F0ECFBC85F
:1015D30033F4C8E4C9FA22600D08C6A2E713C6189B
:1015E300C613C6D5E0F322600C08C6C313C618C6DB
:1015F30013C6D5E0F422700422600D18C6C333C6A7
:1016030008C633C6D5E0F41822251810AF08F5181C
:10161300400215198008F51840021519D2AF22C0EF
:10162300D0251810AF08F518500205198008F518D1
:1016330050020519D2AFD0D0222518F58210AF0879
:10164300F518400215198008F51840021519D2AF94
:10165300851983222518F582E43519F58322E4736D
:101663002518C582C0E0E51934FFC583C0E0E5183D
:10167300C3958224F810AF088583198582188008E2
:10168300858319858218D2AFCEF0A3E520F0A37825
:1016930008E608F0A3DEFAEFF0A3E58124FAF8E602
:1016A30008F0A3E608F0A3E608F0A30808E608F0AC
:1016B300A3E608F0A315811581D0E0FED0E0F8156C
:1016C3008115811581E8C0E0EEC0E0222518C582AE
:1016D300C0E0E51934FFC583C0E0E518C395822453
:1016E300F910AF08858319858218800885831985C9
:1016F3008218D2AFCEF0A3E520F0A37808E608F075
:10170300A3DEFAEFF0A3E58124FBF8E608F0A3E6F5
:1017130008F0A30808E608F0A3E608F0A31581156E
:1017230081D0E0FED0E0F815811581E8C0E0EEC07D
:10173300E022851983851882E0A3FEE0A3F52078D3
:1017430008E0A3F608DFFAE0A3FFE0A3C0E0E0A30C
:10175300C0E0E0A3C0E0E0A3C0E0E0A3C0E010AFBE
:10176300088582188583198008858218858319D294
:10177300AFD083D082020135851983851882E0A317
:10178300FEE0A3F5207808E0A3F608DFFAE0A3FF64
:10179300E0A3C0E0E0A3C0E0E0A3C0E0E0A3C0E0BA
:1017A30010AF088582188583198008858218858380
:1017B30019D2AFD083D08222C0D02518C582C0E011
:1017C300E51934FFC583C0E0E518C3958224F310FF
:1017D300AF08858319858218800885831985821847
:1017E300D2AFC8F0A3E9F0A3EAF0A3EBF0A3790822
:1017F300E709F0A3D8FAECF0A3EDF0A3EEF0A3EF22
:10180300F0A3D0E0F0A3D0E0F0A3D0E0F0A3E52074
:10181300F0A3E5F0F0A322851983851882E0C0E0E8
:10182300A3E0F9A3E0FAA3E0FBA37808E0F608A39A
:10183300DFFAE0FCA3E0FDA3E0FEA3E0FFA3E0C02A
:10184300E0A3E0C0E0A3E0F5D0A3E0F520A3E0A38C
:10185300F5F010AF088583198582188008858319F0
:10186300858218D2AFD082D083D0E0F8D0E0327432
:10187300048006740280027401C0E0F40412163C72
:10188300D0E0121512227404800474028000CCC0CC
:10189300E0EDC0E0E518C39CCCAD1950011D10AFBD
:1018A300068C188D1980068C188D19D2AF12151F4E
:1018B300D0E0FDD0E0FC22D083D082E9C0E0E49305
:1018C300A3C386F0C5F095F0F908E493A386F0C5A9
:1018D300F095F0700BE493A3C3994005E9048002EB
:1018E300A3E475F002A42582F582E5F03583F58340
:1018F300D0E0F9E493A3C0E0E493C0E022D083D026
:1019030082E9C0E0E493A3C386F0C5F095F0F9083B
:10191300E493A386F0C5F095F0702408E493A386BE
:10192300F0C5F095F0701908E493A386F0C5F0951F
:10193300F0700E08E493A3C3994007E9048004A35D
:10194300A3A3E475F002A42582F582E5F03583F5BF
:1019530083D0E0F9E493A3C0E0E493C0E022D08312
:10196300D082ECC0E0EDC0E0E493A3FCE493A3FDDC
:10197300ED4C600D1219ADEC24FFFCED34FFFD803E
:10198300EFE493A3FCE493A3FDED4C600D1219EC7B
:10199300EC24FFFCED34FFFD80EFD0E0FDD0E0FC54
:1019A300E493A3C0E0E493C0E022C0E0C3E49396D1
:1019B300087401939618400FE49366700808740145
:1019C30093661870007019A3A3C3E4939608740177
:1019D300939618A3A3400DD0E0D0E0D0E002199D68
:1019E300A3A3A3A3A3A3D0E022C0E0C0F088F0E4A4
:1019F300936670080874019366187000A8F0A3A397
:101A0300700BD0F0D0E0D0E0D0E002199DA3A3D0BA
:041A1300F0D0E0220D
:101A1800C0E074F01217BBA2AFE433FFD2AFE58980
:101A2800F8E5AB58F50A6051F4F589C2C57E008E19
:101A380008750900740278081215F9121AFEC3E82D
:101A48009408E99400502BE85407F87401B8000290
:101A58008004C333D8FC550A60187508007509015D
:101A6800EE78081215F9AA08AB09900281E0F9127C
:101A780004AC0EEEC3940440B6EFA2E092AF7F032D
:101A880002181AC0E074F01217BBA2AFE433FFD2F9
:101A9800AFE58AF8E58D58F50A6059F4F58AC2EB86
:101AA8007E008E08750900740278081215F9121A5A
:101AB800FEE82400FAE934FFFBC3EA9408EB94003B
:101AC800502BE85407F87401B800028004C333D8D7
:101AD800FC550A6018750800750901EE780812159A
:101AE800F9AA08AB09900281E0F91204AC0EEEC322
:101AF800940440AE8083121B6BF922C0E074F0128C
:101B080017BBA2AFE433FFD2AFE58BF8E5AC58F5CD
:101B18000A604DF4F58BC2E87E008E0875090074E2
:101B28000278081215F9121B6BC39402402BE85473
:101B380007F87401B800028004C333D8FC550A6062
:101B480018750800750901EE78081215F9AA08AB8E
:101B580009900281E0F91204AC0EEEC3940440BA75
:101B6800021A81744F2508F58274033509F583E05C
:101B7800F8A3E022C2AF02000022C0E0C0D0E8C053
:101B8800E0E9C0E0E5A8D2AFC2C7751A00A2E7A293
:101B9800E792AFD0E0F9D0E0F8D0D0D0E03274F5D9
:101BA8001216CFEAFEEBFFEE2434F8EF3400F98882
:101BB800088909EE2435F582EF3400F583E0F8EE64
:101BC8002437F582EF3400F583E0F50AEC850AF056
:101BD800A4FCAAF0850AF0EDA42AFDE82CF8E43D5F
:101BE800F97A257B00121581EA850882850983F038
:101BF800F8740758F97401B900028004C333D9FC9A
:101C0800FAE8131313541FF8EE28F8EF3400F9E834
:101C1800245DF582E93400F583E05A6008EE243447
:101C2800F582EF802CEE2434F582EF3400F583E062
:101C3800C0E0EE2436F582EF3400F583E0F5F0D00D
:101C4800E084A8F0EE28F8EF3400F9E82438F582AB
:101C5800E93400F583E0F97F0402177B74F5121666
:101C6800CFEAFEEBFFEE2434F582EF3400F583E093
:101C7800C0E0EE2435F582EF3400F583D0E0F08E35
:101C8800828F83A3A3A3A3A3A3A3C082C0838E82AE
:101C98008F83A3A3A3A3A3E0F8A3E0F9D083D08202
:101CA800E0C398F508A3E099F509EE247FF582EFE3
:101CB8003400F583E064017069EE2480F582EF3426
:101CC80000F583E0F8A3E0F98E828F83A3A3A3A392
:101CD800A3A3A3E0FCA3E0FD8E828F83A3A3A3A309
:101CE800A3E0FAA3E0FBC3EA9CEB9D5010C3EC9879
:101CF800ED99402EC3EA98EB995027800EC3EA98D5
:101D0800EB994007C3EC98ED9940177C7B7D06EE74
:101D1800FAEFFB120DCAEE247FF582EF3400F5834B
:101D2800E4F0EE2434F8EF3400F9E8FCE9FDEE24A1
:101D380035F582EF3400F583E0F8EE2437F582EFCD
:101D48003400F583E0F50AE508850AF0A4F508AA49
:101D5800F0850AF0E509A42AF509E82508F8E4352C
:101D680009F97A257B00121581EA8C828D83F0F8B7
:101D7800740758F97401B900028004C333D9FCFA16
:101D8800E8131313541FF8EE28F8EF3400F9E82489
:101D98005DF582E93400F583E05A6008EE2434F5F5
:101DA80082EF802CEE2434F582EF3400F583E0C016
:101DB800E0EE2436F582EF3400F583E0F5F0D0E06C
:101DC80084A8F0EE28F8EF3400F9E82438F582E921
:101DD8003400F583E0F91229DF021C5FC082C0835A
:101DE800851882851983E0F8A3E0F9C3EA9CEB9D86
:101DF8005010C3EC98ED99401BC3EA98EB99501426
:101E0800800EC3EA98EB994007C3EC98ED9940041B
:101E1800790180027900D083D08222EAC39CFAEB50
:101E28009DFB2274EF1216CF900541E0640860050F
:101E3800E06407702A9061C8E0602490056FE0F4C0
:101E4800601DE0F875F003A4C8AAF02AF974712897
:101E5800FE740539FF8E828F83A3A3A3E07003026B
:101E68001F5B906060E0C0E0EE2468F582EF34000C
:101E7800F583D0E0F0750CE4750D0675080075095A
:101E880000E5D914F50AE5D95403F50E6017740373
:101E9800650E605CE50A6010EE2467F582EF340099
:101EA800F583E07003021F409006DFE06401602ABA
:101EB800EE2482F582EF3400F583E0600478048034
:101EC800027800850A08E508C398FA95E0FB120C29
:101ED800A48A088B09EA45097005120FBC8074EEC4
:101EE8002482F582EF3400F583E070048A0C8B0DB0
:101EF800E50A6012850C82850D83F50BE5D9F0A300
:101F0800150BE50B70F6EE2482F582EF3400F583AD
:101F1800E0604474FC250AF50A780C121876AC0ABD
:101F2800A90EEEFAEFFB120E667402121622E97081
:101F380026AA08AB0912062C793D8E828F83A3A3AB
:101F4800A3A3E0FA7B00120B7EEEFAEFFB120DE280
:101F5800120E78790080747403650E6056850A1035
:101F68007511007810121876AC0CAD0DAA08AB09E3
:101F7800120E427402121622EE2468F582EF340023
:101F8800F583E064807004747F8001E0F50C780CC0
:101F980012187AE50EF50C780C12187AA90AAC0812
:101FA800AD0990056FE0FA7B00120B42740212161D
:101FB800228013900541E06408600BAC0CAD0DEE77
:101FC800FAEFFB120ED2120FC879017F0A02177BB3
:101FD80074F51216CF74FC12160CEAFEEBFF890892
:101FE800A2AFE433F509C2AF806AEE2463F8EF3498
:101FF80000F97A007B00A2AFE433F50AC2AF888209
:102008008983E0FCA3E0FDEC4D603A88828983E097
:10201800FAA3E0FB8A828B83E0FCA3E0FD88828937
:1020280083ECF0A3EDF08A828B83E4F0A3F088823E
:102038008983E0FCA3E0FDEC4D700A88828983A3C4
:10204800A3E4F0A3F0E50AA2E092AF12062C9006F2
:1020580082E004F0EE2463F582EF3400F583E0F8C3
:10206800A3E0F9E849603DEE2463F582EF3400F51A
:1020780083E02402FAA3E03400FBEA2402F50AEB29
:102088003400F50B780A1218768A828B83E0FCA359
:10209800E0F9EEFAEFFB120E067402121622E9704E
:1020A80003021FF2900682E06063900683E0F890D6
:1020B8000682E0C398500C7402650870509006843C
:1020C800E0604A8E828F83A3A3A3A3E0851882854C
:1020D8001983F0A3E4F0900682E0F8740212165710
:1020E800E8F0A3E4F0900682E0F8900681E028F09A
:1020F8007402121657AC82AD83851882851983AA9B
:1021080082AB837901120B4E900682E4F0E509A2B6
:10211800E092AF7404121622021C5F0085218785A5
:1021280022C622C0E0C0D0E8C0E0E9C0E0EAC0E0D2
:10213800EBC0E0ECC0E0EDC0E0EEC0E0C008C009D4
:10214800C00AC00BC082C083C0F0A2AFE433FEC295
:10215800AF759B00906182E0A2E05012E591A2E089
:10216800500C7591FE740165217003121E2BE0A2BC
:10217800E55051E591A2E5504B7591DF900541E09E
:1021880064076005E064087023740165217035797F
:102198000190056FE0FA75F003A4CAA8F028FB7453
:1021A800712AFA74053BFB121FD88018E0640D7081
:1021B80013900563E004F064287002E4F07A00E00C
:1021C800F9120FCE906182E0A2E64003022272E586
:1021D80091A2E640030222727591BF900541E06426
:1021E800057008120F08120F148003120F0E7521C4
:1021F80000120F6EE9900542F07900120F62120D7D
:10220800467A017B00900540E0F91204AC9078030F
:10221800E0644270559006E3E014F0704DC2AF12CE
:10222800222A00782AD0E0F618D0E0F6E59F540775
:1022380070057509FF800375097FC4C0E07829E639
:10224800F50808E65509F509740B78081215EAD05F
:10225800E02508F8906270E0A2E740F8E8C3339000
:102268006272F0906270E0D2E0F0906181E0A2E3E7
:102278005009E5E9A2E3500375E9F7A3E0A2E750A6
:1022880009E591A2E7500375917FEEA2E092AFD0E5
:10229800F0D083D082D00BD00AD009D008D0E0FE8D
:1022A800D0E0FDD0E0FCD0E0FBD0E0FAD0E0F9D0FF
:1022B800E0F8D0D0D0E032C0E0C0D0C082C0839077
:1022C8006183E0A2E05009E5BFA2E0500375BFFEBC
:1022D800E0A2E15009E5BFA2E1500375BFFDE0A20D
:1022E800E25009E5BFA2E2500375BFFBE0A2E3504C
:1022F80009E5BFA2E3500375BFF7E0A2E45009E582
:10230800BFA2E4500375BFEFE0A2E55009E5BFA204
:10231800E5500375BFDFE0A2E65009E5BFA2E6502D
:102328000375BFBFD083D0828088C0E0C0D0E8C02A
:10233800E0E9C0E0EAC0E0EBC0E0ECC0E0EDC0E0FE
:10234800C0F0E5A7A2E6500FE5A1A2E6500953A701
:10235800BF75A1BF122397E5A7A2E5500CE5A1A27E
:10236800E5500653A7DF75A1DFE5A7A2E15009E50F
:10237800A1A2E1500375A1FDE5A7A2E2500CE5A1D9
:10238800A2E2500653A7FB75A1FBD0F00222A87465
:10239800F81216CF752101900541E06406701512F8
:1023A8000E968A828B83A3A3A3A3A3A3E0FAA3E038
:1023B800FB120EF6A2AFE433FED2AF900547E064FD
:1023C8000170187A207B00900540E0F91205367AF2
:1023D800207B00900540E0F91204B2906182E0D2BF
:1023E800E6F09006E0E0602185C62280169005465A
:1023F800E064017008E5C654F84405F5C653BEFC10
:102408001221247401652160E4EEA2E092AF7F01FD
:1024180002177B008E238F248582288583278518C1
:1024280082851983E0CEA3E0CF852882852783EBB8
:10243800C9EAC8EDCBECCA75F010C3E833C8E93374
:10244800C9EA33CAEB33CBC3EA9EF526EB9FF525E1
:10245800B35004AB25AA26EC33CCED33CDD5F0DA56
:10246800AE23AF242274E91216CF74F812160C8525
:102478001882851983ECF0A3EDF08A088B09900582
:1024880041E024F7C394055006750801022604129A
:102498000E968A0A8B0BAE0AAF0BEE4F700302261C
:1024A80001AC08AD097402121657AA82AB83120F49
:1024B800268E828F83A3A3750CFF750DFF750EFF03
:1024C800750F00780C12149074021216577510FFCD
:1024D8007511FF7512FF7513007810121490780C9F
:1024E8007910121222502A780C7910121455750896
:1024F800017509C8750A00750B007808790C121265
:10250800225052850C08850D09850E0A850F0B800F
:10251800507514017515C8751600751700851008D3
:1025280085110985120A85130B7808790C12145540
:1025380078147908121222401C7508007509007574
:102548000A00750B01780879101214557808790C6F
:1025580012141C800C750801750900750A00750BAA
:1025680000740978081213FD750C19F50DF50EF5B0
:102578000F7808790C1212E18E828F83A3A3A3A38C
:10258800A3A3E0F8A3E0F97AD07B03121581880CA5
:10259800890DE4F50EF50F7808790C12141C7406F1
:1025A800121657E0F8A3E0F97AD07B03121581E8F8
:1025B800FA8A0CE4F50D7808790C12122250077883
:1025C80008790C121455900541E06408600AE0642B
:1025D800066005E06405702D750C0D780C790812FD
:1025E80012224021750CF4750DFF750EFF750FFF53
:1025F8007808790C12141C800C7508007509007590
:102608000A00750B00851882851983E0F8A3E0F5A8
:1026180083888278081214EB74081216227F10023D
:10262800177B74F71216CF120F389006DEE064019C
:102638007010906245E4F0A3F053F4F343FE0C539A
:1026480090F3120EE4E5C654804449F5C6E59E545D
:102658007F644970F8906185740FF09006DCE0F4AF
:102668007002A3E0604E9006DDE0600814601B1461
:10267800602E80407508017509009006DCE0780836
:102688001215F9E508F45280802A750801750900C9
:102698009006DCE078081215F9E508F452908014E9
:1026A8007508017509009006DCE078081215F9E54F
:1026B80008F452A079007F0202177B74F71216CF34
:1026C800E9FEEAFF74016E700C7A807B0090054089
:1026D800E0F91204AC9029F0E493F46008E493F96B
:1026E800120D3A800953C680E59E547F70FA120E87
:1026F800EA9006DEE064017003120D529006DCE0F9
:10270800F47002A3E0604B9006DDE0600814601AE4
:1027180014602C803D7508017509009006DCE0788E
:10272800081215F9E5084280802875080175090026
:102738009006DCE078081215F9E5084290801375D8
:1027480008017509009006DCE078081215F9E5081B
:1027580042A0120F38120E968A088B09A808A909F8
:10276800E8496015E5E170FCE82414F582E93400D5
:10277800F583E0F46003E0F5E174016F700A7A0113
:10278800900540E0F91205060226BE74ED1216CF38
:102798008A088B098C0A8D0B7413121657780C1241
:1027A80014DC7808790C1212227510017511C8759D
:1027B800120075130050127808790C12145578100D
:1027C800790812122250168010780C7908121455C4
:1027D8007810790C12122240047901800279007F66
:1027E8000C02177B74ED1216CF8A088B098C0A8DA0
:1027F8000B7413121657780C1214DC780C79081223
:10280800122240117808790C121455AA08AB09ACA9
:102818000AAD0B8022751000751100751200751332
:10282800017810790C1214557810790812141CAA22
:1028380010AB11AC12AD1380A68A828B837508FF8A
:102848007509FF750AFF750B0078081214A37F0439
:1028580002177B74F51216CF8C828D8378081214B8
:10286800DC8A828B837808121469EA2404F8EB3432
:1028780000F98C828D83A3A3A3A3E0FCA3E0FD88C9
:10288800828983C3E09CF0A3E09DF088828983C39A
:10289800E09420A3E0944E40268A828B837508FF3B
:1028A8007509FF750AFF750BFF78081214428A82B2
:1028B8008B83A3A3A3A3E02420F0A3E0344EF0026B
:1028C800284174F51216CFE9FE900696E0FAA3E0C7
:1028D800FBEEC333F8E433F974EB28F582748339DB
:1028E800F583E02AF508A3E03BF509780812187685
:1028F8007A407B427C0F7D0012241C74021216223F
:102908008A088B098C0A8D0B741078081213E4AAB4
:1029180008AB097F0402177B74F11216CF8A0C8B5F
:102928000D8C0E8D0F740F121657E0FAA3E0FB748E
:1029380011121657E0F508A3E0F509780812187681
:10294800EA2401F508EB3400F509E4F50AF50B78FB
:102958000C7908121261750871750902780C7908EA
:10296800121261AA0CAB0DAC0EAD0F12241C74022E
:102978001216228B09EA450960047A0180027A005E
:10298800EC2AFCED3400FD7413121657E0F8A3E0AE
:10299800F9E8FEE9FFECF8EDF97A717B021215818E
:1029A800880889098E828F8378081214EBECF8ED79
:1029B800F97A717B021215818A088B0974057808E7
:1029C8001215F98E828F83A3A3A3A3E508F0A3E5CC
:1029D80009F07F0802177BC082C083E9906000F08D
:1029E800D083D08222020135FFFFFFFFFFFFFFFFE8
:1029F800C082C083800312327E122C75642060F678
:102A080002354D74F61216639002AC124DD9FCA330
:102A1800E0801BA3AA82AB838A828B83E0F50874CB
:102A280020650860EE7409650860E8EAFCEBFDECD7
:102A3800FAEDFB8A828B83E075F00D84E5F033FEB6
:102A4800E433FF74132EF58274093FF583124E2781
:102A58008004ECFAEDFB8A828B83E0F50874276525
:102A680008600674226508703C88828983E508122C
:102A78002B7C8A828B83A3AA82AB838A828B83E096
:102A8800FCA3AA82AB8388828983122B7CE5086C1D
:102A9800609980E7A3AE82AF838A828B83A3AA82E0
:102AA800AB83E0F5088E828F83E0650860E6E0F589
:102AB80009C394804019124E895008122B7570036F
:102AC80018A98388828983E509122B7C022A20E5CC
:102AD80008C39509501274206508600C74096508CC
:102AE8006006740A6508702EEEFAEFFB8A828B8303
:102AF800A3AE82AF838A828B83E0C3948040E98E41
:102B0800828F83E06003022A5A800B88828983E5DA
:102B180008F0EAF8EBF98C828D83E0F5088C828D59
:102B280083A3AC82AD8388828983A3AA82AB837492
:102B3800BF2508C3941A40D3740965086006742039
:102B480065087012124E895018122B75601388820E
:102B580089837420800688828983E508F0EAF8EB87
:102B6800F9740A65087003023606022A37125C23D4
:102B7800E0642022F0A3A882A9832274E8121663D5
:102B88008A108B118C128D13750C0A750D00750E39
:102B980000750F0090850E78101211FC401B792DDE
:102BA8001205D878101213B9800F9085167808127C
:102BB80014DC780C7908121261780C79101211D291
:102BC80050E880368510148511158512168513175F
:102BD800850C08850D09850E0A850F0B7814790870
:102BE80012137B90851678081214DC781479081271
:102BF800137BE5082430F91205D890851678081259
:102C080014DC780C790812137BE50C450D450E454C
:102C18000F70B180031216227F1002173574F61256
:102C280016637E007F001203A48021EE75F00AA4CB
:102C3800FEA8F075F00AEFA428FFE5082EF8E43F97
:102C4800F9E824D0FEE934FFFF12326D122C75F535
:102C58000874D02508C3940A500DC3EE9499EF94D4
:102C68001940C87EFF7FFFEEFAEF0236059002ACEE
:102C7800124FA322C082C0837A007B00124ED57403
:102C8800226C600574276C702512327E8008EA2455
:102C9800010AEB3400FB9002ACE02AF8A3E03B8881
:102CA80082F583E0F8EC686009740A6870E07AFFDE
:102CB8007BFF02354D74F7121663EAFEEBFF800CBA
:102CC8001205D88E828F83A3AE82AF838E828F83C4
:102CD800E0F970EC790A1205D87F01021735C08235
:102CE800C0839002B1E0FAA3E0800E8A828B83A3AE
:102CF800A3E0F8EA28FAEB3400FB9002B3124DD4B3
:102D0800687002EB69600F9002BC124DB48B838A25
:102D180082124E8C40D502354D74F3121663890821
:102D2800750920122E1BA3E0F50B9002AEE02403D8
:102D3800124DA59002AE1235FBAA0AAB0BE4FCFDBE
:102D48001203B0800579201205D885080B74FF2579
:102D58000BF5080470EF8035A90A1205D88E828F0A
:102D680083E0F50AA3AE82AF83E50AC3948040E806
:102D7800EE24FEF582EF125C8AE0F50A7428650AF3
:102D8800600879201205D8750A20850A09122E1BB9
:102D98009002AE1232649002AE1235FB740A650AD4
:102DA8006067E50AC394805007A90A1205D880DA3B
:102DB8007C137D098017EAF8EBF9E8FEE9FF8882C1
:102DC8008983E0701DEC2402FCED3400FD8C828DBB
:102DD80083124E27EE4F60B2EEF8EFF980E0EAF882
:102DE800EBF988828983A3AA82AB8388828983E0EE
:102DF800F8C3948040E8E50A6870BB7420650960F0
:102E08000579201205D8022D65790A1205D87F05A3
:102E18000217359002AE124FA3F50A2274F012166B
:102E280063E9FFEAFE750800750900750A00750B6D
:102E380000802274D02AFAEAC39E504A8E0CE4F528
:102E48000DF50EF50F7808790C1212618A0C7808C6
:102E5800790C12141C8F0C74FF250C1F046030129F
:102E68002C75FA12327E74D02AC3940A40C574BFF6
:102E78002AC39406500474C980BB749F2AC394065D
:102E8800500474A980AF9002B07402F0122E9A0216
:102E9800328D9002ACE024FF18124EE29002AC1280
:102EA80035FF2274F6121663E9FE74BF2E124E1A0D
:102EB800F582E9125928E0C0E09002BEE05407F814
:102EC800D0E0B800028004C313D8FCA2E0505490AC
:102ED80002B9124EC2800D88828983A3125724E852
:102EE8002CF8E93DF99002B5125724C3E89CE99DF6
:102EF800503188828983E0645670DCA3A3A3A3E0E1
:102F08006E70D4EA4B60078A828B831235FB888205
:102F18008983A3A3A3E06402602EE82408FAE934B5
:102F2800008038EA4B60219002F8744EF09002FB62
:102F38007402F0EEA3F09002FEE4F0A3F08A828B14
:102F48008374F8F0A37402F08E087509007402788F
:102F5800081215F9124E45FAE934FE02360574F0E6
:102F680012166374FE12160C12327B74A96E70135B
:102F78001203E08A088B098C0A8D0B78081213B9A2
:102F880002313A9002ACE024FF18124EE274D02EBF
:102F9800C3940A500A1235F87A0A79FF02306AEEA9
:102FA800C39480500302318D74442EC394034003AC
:102FB8000230611235F812041CE9F89002B0E060A2
:102FC80003023249E8540FF50CE8C4540F600714A3
:102FD8007066E5908064750A01750B00850C08E53C
:102FE80008780A1215F9E50A55F260489002C0E01F
:102FF800F890092FE0450C48F5B6E5B4A2E750FA79
:10300800E5BAF508E4F509F50AF50BE5BBF50CE4B6
:10301800C50CF50D3395E0F50EF50F7808790C120F
:1030280014B6E0131313541FF87408C398780812E1
:1030380013CA8022E5808002E5A0F508750900E53D
:103048000C78081215DAE5085401F508E4F5093397
:1030580095E0F50AF50B02313A74A76E700E7A10F6
:1030680079081203D49002B0E402324674232EC3C6
:1030780094065014EEC333F8E433F9747628F582D5
:10308800748139F58302317C08124D8D642970549E
:10309800124FFE2464600614600902324912054E7C
:1030A80002325D75B61FE5B4A2E750FAE5BAF50835
:1030B800E5BBF509740678081215DAE5093395E0D9
:1030C800F50AF50B90851A780C1214DC7808790C3F
:1030D80012126190852E780C1214DC7808790C1283
:1030E800137B804E1203F812502E6003023249906F
:1030F80002B0E06003023249124FFE2466600E14EB
:10310800603B24C6605524FE607402324990850EE7
:10311800780C1211FC4013780C1213B9850C088531
:103128000D09850E0A850F0B80088A088B098C0A01
:103138008D0BAA08AB09AC0AAD0B02325D120476FE
:103148008A088B09E4F50AF50B7808790C12137BC9
:10315800AA0CAB0DAC0EAD0F02325D851882851935
:1031680083E4F0A3124F78AC82AD831206B08518C1
:1031780082851983E0F508A3E0AA08FB80031207FB
:10318800D6E402321474BF2EC3941A4003023226C6
:10319800851882851983AA82AB83EEF91203DA8A2D
:1031A800088B09AE08AF09124EC7F9A3E0F5838969
:1031B80082A3A3A3E06404705774286860030232F2
:1031C8004912326D1203F812502E70759002B0E059
:1031D800706F12327E90850E780C1211FC50688543
:1031E8001882851983124E5DF508A3E034FFF509AE
:1031F800E4F50AF50B7808790C1211D25049EE253E
:103208000CF582EF350DF583E0FAE4FBFCFD804513
:10321800742868602C8E828F831214FA8037742881
:103228006E701E1203F812503670169002B0E070DD
:10323800109002AC1232649002ACE8F0A3E9F0807E
:10324800149002B0E070069002B07402F07A007B2D
:10325800007C007D0074021216228031E0240108EF
:10326800124DAA22F0123271229002ACE02401120F
:103278004FE222125026123282229002ACE0240140
:1032880008124FE322AA08AB09AC0AAD0B7F08026B
:10329800173574EC1216631203E08A0C8B0D8C0E32
:1032A8008D0F80121203E08A088B098C0A8D0B7827
:1032B8000C79081212619002B0E0600BAA0CAB0DF9
:1032C800AC0EAD0F0259141233B0245660D61460F8
:1032D80009146023123504F080E21203E08A108B8F
:1032E800118C128D13EA451145124513601B780C99
:1032F800791012137B80BF1203E08B118C128D138F
:10330800EA45114512451370079002B0740380C74F
:10331800850C08850D09850E0A850F0B8A0C8B0D07
:103328008C0E8D0F7808790C12137B808974F0123B
:1033380016631233A074A968600574A868700E75C6
:103348000800750900750A00750B00801F1203E656
:103358008A088B098C0A8D0B80121203E68A0C8B63
:103368000D8C0E8D0F7808790C1214559002B0E070
:10337800600302328D1233B0245860081460DB12E7
:1033880034FF80EE1203E68A0C8B0D8C0E8D0F78BD
:1033980008790C12141C80D49002AC1233A722E0D6
:1033A800F8A3125707E0F8229002ACE01233B822D3
:1033B800F8A3E0F988828983A3AA821256D32274DB
:1033C800F01216631203EC8A088B098C0A8D0B80A5
:1033D8000C750801750900750A00750B009002B09C
:1033E800E0600302328D1233B02461601A14603039
:1033F80014604314605614605314606914607A149E
:10340800601E1234FF80DC1203EC8A0C8B0D8C0ECC
:103418008D0F780C79081211D250B675080080B457
:103428001203EC8A0C8B0D8C0E8D0F7808790C1218
:1034380011A8709D80E51203EC8A0C8B0D8C0E8D03
:103448000F7808790C1211D2408780CF1203EC8ACA
:103458000C8B0D8C0E8D0F7808790C1211A8700347
:103468000233D980B61203EC8A0C8B0D8C0E8D0FAB
:103478007808790C1211D280A01203EC8A0C8B0DFB
:103488008C0E8D0F780C79081211D280BB74F01253
:1034980016631203A41203F28A088B098C0A8D0B97
:1034A80080121203F28A0C8B0D8C0E8D0F7808791E
:1034B8000C12147D9002B0E0600302328D1233B01A
:1034C800245360DE1460081460191234FF80EB1274
:1034D80003F28A0C8B0D8C0E8D0F7808790C121460
:1034E800B680D11203F28A0C8B0D8C0E8D0F7808E2
:1034F800790C1214C980BD123504F0229002ACE098
:1035080024FF124EE29002ACE8F0A3E922C082C088
:10351800837A007B0C1204EE9002B11256997C005B
:103528007D0C7900120470124E789002B1E0249458
:10353800F8A3E0340BF99002B51235FB9002B912EA
:1035480035FB120404D083D082020135C082C083C7
:103558007A597B841203C212357B7582B9124E6A7E
:103568001203B07AA07B841203C27A5A7B851203B5
:10357800C280D29002B3123582221259C3758302D7
:103588002274F61216631205E41203FE123629128B
:1035980005CC120608E960567A7279001205EA121B
:1035A8005DEA4006124F3E1205F01205FC9002B388
:1035B800124DB47583027582B1124E8C502190025F
:1035C800B1124DFC12188D750800780812187A90FF
:1035D800853A1214FA79031206147403121622900B
:1035E80002B3124DB81235FB1236291205CC800EE3
:1035F8009002AC1235FF22E8F0A3E9F022FB7F022B
:10360800021735C082C083800F79007A007B0012D0
:1036180004161236291205CC1205D2E970EB0235D0
:103628004D9002B9E0FCA3E0FD9002B3E02402FA59
:10363800A3E03400FB2274E812166374F212160C2D
:103648007403121657E9F09002B0E4F0EA4B6029CF
:103658001256967403121657E0601B9002B9E024C4
:10366800FD124FEF50030248F71256897445F0A334
:103678007403F0A3E4F0023BB7124FD41203AA7507
:10368800080085081174012511F508A8119002ACED
:10369800124E0EE0640A70EA08C3E498FE95E0FF53
:1036A80075090078081218761257219002B9E02E91
:1036B800FAA3E03FFB1205DE74021216229002B94B
:1036C800E02EF8A3E03FF91235F81203B612569629
:1036D8001203A49002BC125E2770769002B7E4F041
:1036E800A3F0124FD4F5838882E0640A7003023B8A
:1036F8003D122C759002BBF012327E9002BBE0C3E3
:103708009480400BE02444C39403400302387D12A4
:103718002E9A122C75F9744429C39403400302436A
:10372800AD12041CE9FE9002B0E0600302409A1258
:1037380003A4124F9A60030240A312327E1203F8C8
:103748009002B0E0600302409AEEF9120422023AB5
:103758006C9002BCE0F47003A3E0F4700302409A9A
:103768009002ACE024FDF8122EA19002B9E0C398B3
:10377800F5089002BC124DD9FAA3E0F5838A8212AB
:1037880035FB9002AC124E03E508F01203C88A0A12
:103798008B0BAE0AAF0B9002B3124DB4EE687002F9
:1037A800EF6960518E828F8312570DE0687003A312
:1037B800E06970418E828F83A3A3E0F8880CC3E48C
:1037C80098F895E0F99002B31259379002B3123580
:1037D800FB9002B3E0C3950AF512A3E0950BF5132D
:1037E8007812121876EE250CFCEF3400FD120458FE
:1037F80074021216229002AC124F1C640A70030263
:103808003B3D9002B3125AB985088285820C750D2A
:10381800009002ACE0C39AF8A3E09BF9C3E8950CCA
:10382800E9940050077902740E022C1DEAC3950A28
:10383800F50AEB950BF50B780A121876EEFCEFFDFE
:10384800EE2508FAEF3400FB1205DE740212162288
:10385800780C1218769002AC125E12120458740298
:103868001216229002B3E02508124DA59002B31259
:1038780035FB023B3DE02480700302396414700379
:10388800023980147003023AC9147003023AF7141B
:103898007003023997147003023B0F147003023748
:1038A8001A147003023B2B14700302413514700381
:1038B800023B35147003023B42147003023B571459
:1038C800700302422C147003023A77147003023B0F
:1038D800C424FD700302454624FE7003023C3514DF
:1038E8007003023A55147003023C50147003023CF2
:1038F8003F147003023D5724FE7003023D8024FBF1
:103908007003023DB824EE7003023A2414700302D7
:1039180039C5147003023EFE147003023F4614704A
:1039280003023FA424F5700302405F1470030240B1
:103938007524FA7003023DDB24F87003023E2B1451
:103948007003023E7D24F97003023E8324FE700357
:10395800023EC6147003023FDC02409A7E01120345
:10396800B6125696125072600302409A1203C8901B
:1039780002AE1256990244BE124E787A727900123B
:1039880005EA125DEA4030124F3E1205F080287AAF
:103998007779001205EA9002B3C0829002B1124D05
:1039A800B4758302D082E0C398FCA3E099FD90022D
:1039B800B1125AB91205F61205FC023C471203F877
:1039C8008A08AF089002B0E0600302409AEF7003E3
:1039D8000240A31203A41250195062124DF260055E
:1039E800740A6870627A72EFF91205EAC3EB125D25
:1039F800F7500302409A740C121657AA82AB83EE52
:103A0800F91203DA740C121657125ACE60030245E3
:103A18007A740C121657124E9F02457E1203F88ACA
:103A280008AF089002B0E0600302409AEF7003020A
:103A380040A31203A412501950030245879002AC08
:103A4800E024FFF8122EA11205FC02409A9002B958
:103A5800C08212357BD082124E6A1203B07AA07BE4
:103A6800841203C21203A4125072600302409A9097
:103A780002B0E070030240B39002B0E0C333F8E450
:103A880033F9749228F582748439F583125AB9127D
:103A980003C2125E24601F9002AE1235FB793E12FB
:103AA80005D8793E1205D879201205D87901120374
:103AB800CE790A1205D89002B0E064047077023813
:103AC8002D124D92600302409A9002B1124DB490AB
:103AD80002B380189002B9122C786453700B7406E4
:103AE800121657124F55120A2E12503C1235FB90DF
:103AF80002B9C0829002B512357ED082124E8C4037
:103B0800D39002B1023C4A124D8A124D5140030231
:103B1800409A12327E1203A4125072600302409A35
:103B280002422C124D8A64967003024D41125E24A3
:103B380060030240E0790102382F1203F81256E3BD
:103B4800600302409A12507260030240A380601220
:103B580003F81256E3600302409A1250726003029F
:103B680040A39002B9125E1F2407F582E812592873
:103B7800C082C0839002B3124DB4D083D082C3E513
:103B88008298E5839950030248F79002B9E024F936
:103B9800124EE11256897447F0A37407F0A3E4F0BB
:103BA8009002AC12576C9002B712574812569912ED
:103BB80003C89002B7EAF0A3EB0240C6124DE8C36F
:103BC800941A400302409A881012326D1203A4120C
:103BD8004F9A600302409A12327E1203F88A0C8BC5
:103BE8000D8C0E8D0F9002B0E0600302409A1233E4
:103BF800B0648F60030240A31203F88A148B158CFB
:103C0800168D179002B0E0600302409A1233B06438
:103C18009060030241741203F88A088B098C0A8D9C
:103C28000B9002B0E0600302409A024183C2AF7574
:103C3800C9AB75C95B80FE124D92600302409A9031
:103C480002B3124EC20240BE124DE8FEC3941A409F
:103C58000302409A7403121657E812326C1203A436
:103C6800124E2D600302409A12327E1203F88A081F
:103C78008B099002B0E0600302409A1203A412502C
:103C88003660030240A31257FC640A60030240A393
:103C9800A808A909124D62124DE1FAE934FFFB9018
:103CA80002B3124DB4C3EA98EB9950030248F78562
:103CB800080C85090D124D57124D621259379002A2
:103CC800B91235FBE8FAE9FB8A828B837456F01245
:103CD8004D57A31235FB8A828B83A3A3A37404F0E8
:103CE80014121657E08A828B83A3A3A3A3F0EE12C3
:103CF8004E1AF8E93400F9124D99E0C0E0ECFDD015
:103D0800E0BD00028004C313DDFC54018A828B836A
:103D1800A3A3A3A3A3124D6DA3A3E4F0A3125690EB
:103D2800ECF87401B800028004C333D8FCF974FFBE
:103D3800C399F8E05849F0AC08AD0979009002B988
:103D4800E02408FAA3E03400FB120470023A6C7F06
:103D5800001203F88A08AE089002B0E0600302403F
:103D68009A1203A4122C75649260030245D0124F74
:103D7800FEF912060E023A6C1203F89002B0E060E7
:103D88000302409A9002B7E0F8A3124EE8F99002B5
:103D9800B71235FBF583888212188D750C00780CE4
:103DA80012187A79031206147403121622023B3D84
:103DB8001203F88B098C0A8D0B9002B0E0600302A5
:103DC800409AEA4509450A450B70030246377901CE
:103DD8000246391256C8246A70030248E724CF60A5
:103DE800271470030248D91470030247DA147003C9
:103DF8000247DA1470030247DA1470030247DA1430
:103E080070030247DA02409A9002B71233A3A3E084
:103E1800F99002E31235FB9002E57401F0A3E4F097
:103E2800023A779002E27401F09002E0125E277085
:103E38000A9002E074C1F0A37402F0124EB875083B
:103E4800E0750902246A7003024B2624C670030237
:103E580048FF14601024FE70030249161470030210
:103E680049E3024B7F124FAF50030240AC12505847
:103E7800740502490C9002E2E480AD1203F88A0846
:103E88008B09AE08AF099002B0E0600302409A12B5
:103E980003F874081216571256E6600302409A7423
:103EA800056E700374036F6003024C2F74081216BA
:103EB80057AC82AD8379017A057B03024C3E12032D
:103EC800F88A088B09AE08AF099002B0E0600302D7
:103ED800409A1203F88A088B09AC08AD099002B021
:103EE800E0600302409AEEFAEFFB1207D0E96003A4
:103EF80002409A023A6C12041CE9FF9002B0E0609A
:103F08000302409A750801750900740F5F7808125A
:103F180015F9AE081203A4124ED512327E74B76C8E
:103F2800600302464E1203A4124ED512327E740A62
:103F38006C600302463F122E9A7CB7024656750CF7
:103F48000012041CE9FE9002B0E0600302409AEE01
:103F5800540FF50DEE54F0F50E7420650E700AE559
:103F68000DC3940440030247D21203A41233B024B1
:103F7800466006147019750C019002AC124DB48895
:103F8800828983A30A1256CF648B700302472B9051
:103F980002ACE024FFF8122EA10240A312041CE98F
:103FA800FA9002B0E0600302409A750801750900B2
:103FB800EA540F78081215F9E508F4F8EA54F0F90C
:103FC80060030247ACE852ABE5AB60030247C7C2E7
:103FD800BD0247C7124D8A64DA6003024C4D1232A3
:103FE8007E12041CE9F5089002B0E0600302409AD2
:103FF8001203A4124EB8124D5140030240A3740498
:10400800121657AA82AB83851882851983E0F912A4
:1040180003DA8A0A8B0BAE0AAF0B74041216571216
:104028005ACE706E7A00A9081204229002BFE0608E
:1040380003024D167404121657124EDAE84970033B
:10404800024D348E828F83E0F5C1E586A2E150FAF5
:10405800E5C1124D7B80E5124D8A243F600814703B
:1040680003024D3B802C9002C0E4024D401203F83D
:104078008A088B098C0A8D0B780812190008000031
:1040880000069A404A4D9A404A4D9A404A4D9A40F5
:104098004A4D9002B0E06003023A779002B0740192
:1040A800F0023A809002B0740580F5125E24700325
:1040B800024144124EE8F99002B7E8F0A3E9F09003
:1040C80002B7124E087003A3E06960709002B7E06F
:1040D8002403124E590236F91203F88B0D8C0E8DFB
:1040E8000F9002B0E070AB12507270AFEA450D4508
:1040F8000E450F6003023A6C7A008004EA60561A93
:104108001250037003A3E0696032124F2F247960C4
:104118000814600D14601080E7124DBF60DE0A803D
:10412800DFEA70DC024D41EA70D60236F97A008087
:10413800011A1250037003A3E069700A7A5A7B854A
:104148001203C2023B3D124F2F648770E5124DBF28
:104158007017EA70DC9002ACE02402124DA59002C0
:10416800ACE8F0A3E9F0023A6C0A80C61234FF7595
:104178000801750900750A00750B001203A4125096
:1041880072600302409A9002B0E0600302409A9085
:1041980002B9E024F0124FEF50030248F79002B939
:1041A8001235FB125AB68510127513007402781274
:1041B8001215F99002B5E02512F8A3E03513F9E8D5
:1041C80024FCF582E934FEF583780C1214EB8A821C
:1041D8008B837446F0A37410F0A3E4124D72E510BB
:1041E800124D6D78141214EB8A828B83A3A3A3A3B8
:1041F800A3A3A3A378081214EB9002AC124DD41217
:1042080059231235FB9002B7124DD4240C125925AC
:104218000241697406121657124F55120A2E12508F
:104228003C1235FB9002B9C0829002B512357ED09F
:1042380082124E8C400302409A9002B9122C7824C4
:10424800BB604014604E14600E24F460C624FD70F8
:104258000302435B0248F79002BBE0648C70BF1214
:104268004DC7125AB99002B7EAF0A3EB12569FA3B2
:10427800125AB99002AC1256998882898312504515
:104288000241699002BBE0648C70939002BA1250AC
:10429800420238779002BBE064857082125AB68A6F
:1042A800828B83A3A3A3E0F5089002AC124EA96504
:1042B800086003024226750900740278081215F98D
:1042C800124E45FCE934FEFDEA2408FEEB3400FFFB
:1042D8008C828D8378081214DC8E828F8378081282
:1042E800142F85080C85090D850A0E850B0F8C8205
:1042F8008D83780C1214EB8E828F8378081214DC6D
:10430800EA2404F8EB3400F9E8FCE9FD90853678F6
:10431800081211FC50128C828D83780C1211E75010
:104328001C8A828B8302428590850E78081211FCC4
:1043380040EF8C828D83780C1211FC50E4EA1259FC
:1043480023124DB41235F8EA240C125925124DB82F
:10435800024169124DC7A3124F8DFA9002B5E02AA7
:10436800FAA3E03400FBEA2468FAEB3400FB124DB0
:1043780099A3A3A3A3A3E0C0E0ECF8D0E0B800029F
:104388008004C333D8FCF9ECF87401B80002800447
:10439800C333D8FCF874FFC398F88A828B83E0583B
:1043A80049F002422674BF29C3941A400302409A76
:1043B8007401121657AA82AB831203DA8A088B0992
:1043C800AE08AF0912326D1203A474011216571207
:1043D8004F1C24FE600724FE603602409A124F9A52
:1043E800600302409A12327E1203F88A0C8B0D8CFD
:1043F8000E8D0F9002B0E0600302409A1250726076
:10440800030240A38E828F83780C1214EB0244A11E
:10441800124E2D600302409A12327E1203F88A0867
:104428008B098C0A8D0B9002B0E0600302409A124F
:1044380003A412503660030240A312327E1203A472
:1044480090850E78081211FC40030240A3740112F3
:104458001657124E5DF50CA3E034FFF50DE4F50E8A
:10446800F50F780C79081211D240030240A3124FBD
:104478009A60030240A312327E1203F89002B0E061
:10448800600302409A12507260030240A3EE2508AE
:10449800F582EF3509F583EAF074011216571257C1
:1044A80097125AC27003023A6C120446023A6C1E02
:1044B800EEF91203CE0E9002AE124E087003A3E07E
:1044C800697003023A6C9002AF1256FCA3A3A3E0F2
:1044D800247B601B24FE600C1460D41460D124FB80
:1044E80060CE800C9002AF124E96E0649670C11EAA
:1044F800EEF91203CE80BF1203BC8A088B09AE08FE
:10450800AF0974FF6E700374FF6F70511233A0749B
:104518002268700302409A742768700302409A1256
:1045280003F89002B0E0600302409A1233A0740AC4
:1045380068600874206860030240A31203B0120385
:10454800A412507270B1790A1205D8023A6C12336B
:10455800B4F91205D8EE24FF1EEF34FFFFC3EE9422
:1045680001EF125DF79002ACE050E32401124E59BE
:1045780080CC7C047D001205F01205FC023A6C1216
:104588004DF26008740A686003023A4F7A77EFF9CF
:104598001205EAC3EB125DF7500302409A740A123F
:1045A8001657AA82AB83EEF91203DA740A12165769
:1045B800125ACE700A740A121657124E9F80047C43
:1045C800047D001205F680B11203F88A088B098C65
:1045D8000A8D0B9002B0E0600302409A1203A41205
:1045E8002C756498700412327E0F122C75648B60DF
:1045F800030240A312327E1203F88A0E8B0F900238
:10460800B0E0600302409A780E121876EFF50C7845
:104618000C12187AAA08AB09AC0AAD0BEEF912060F
:10462800147403121622E96003023A6C02409A7964
:1046380000120602023A6C74B56C601274B66C60B3
:1046480003023F97800874B96C6003023F9774F0C7
:104658005FFA8E82A882EEF4FDEA7047ED52F352BB
:10466800F2E5FDFF74B96C7004E8FA80027A00EF95
:104678005D4AF5FDEC244B601214601814600614B2
:10468800601B023A6CEE428F023A6CED528F53F780
:10469800DF023A6CED528F43F720023A6CEE42F299
:1046A800023A6C74106A7042ED52F4E5FEFF74B978
:1046B8006C7004E8FA80027A00EF5D4AF5FEEC249B
:1046C8004B601514601B14600914700302409A02B1
:1046D8003A6CEE42F6023A6CED52F653F7BF023AE4
:1046E8006CED52F643F740023A6CED52F5E5FFFFE8
:1046F80074B96C7004E8FA80027A00EF5D4AF5FF3D
:10470800EC244B600C1460121470BEEE42F7023AAF
:104718006CED52F753F77F023A6CED52F743F7808E
:10472800023A6C1203F89002B0E0600302409AEE7D
:10473800F912061AE970030247D2750801750900D3
:10474800E50D78081215F9A908E50E7012E58CA296
:10475800E0E433450CF58CE942ABD2BD023A6C7407
:1047680010650E7027E50DC39404E50C5013C33390
:10477800F8E58C540248F58CE9428D439A10023AC8
:104788006C333354FCF8E58C540480E9E50C33337E
:104798003354F8F8E58C540848F58CE942AC439A50
:1047A80002023A6C741069700CE8528DE58D700F36
:1047B800539AEF800AE852ACE5AC7003539AFDEACD
:1047C800F9120620E96003023A6C9002B0740602FE
:1047D80040A89002E5E02401F0A3E03400F012576D
:1047E800A560FB1460F81460F51460E61460E31229
:1047F80034FF124FC7124D51400302409A74011200
:104808001657AA82AB83851882851983E0F91203AB
:10481800DA7401121657124F1C644E6003023A777D
:104828009002B9E024F8124FEF50030248F79002C3
:10483800B91235FB74011216571235FB74011216A2
:1048480057124DFC7456F0740112165712572A74F9
:1048580008F0A3E4F004121657124E03A3740212D0
:1048680057D0C0E07401121657124E93D0E0124F81
:104878006EF582E9125928E0C0E09002BEE05407C4
:10488800F8D0E0B800028004C313D8FC5401C0E09B
:104898007401121657124E93A3D0E0F07401121649
:1048A80057125797E4F0A3124F6EF8E93400F990C5
:1048B80002BEE05407FA7401BA00028004C333DA76
:1048C800FCFB74FFC39BFA88828983E05A4B023E43
:1048D800279002E5E02402F0A3E03400023E27120C
:1048E8000428E914700302409A146003023A77908E
:1048F80002B074040240A8124FAF50030240AC1239
:1049080050587406124E33E8F0A3E9024D40124F96
:10491800C064276008E06422600302409A1203BC66
:104928008A0A8B0BAE0AAF0B74FF6E700374FF6FAD
:10493800700302409A124FAF50030240AC18181887
:10494800E0F9E508C398F8E50999F9E824FEF508BF
:10495800E934FFF509C3EE9508EF9509A2D265D0B1
:10496800335017EE04C0E0124DF9D0E0124F18741E
:1049780009124EFD8E088F098012E50804C0E01266
:104988004DF9D0E0124F187408124EFD780812182D
:10499800761257219002E0125AB912045874021282
:1049A80016229002E0124E4F9002E01235FBC3EE41
:1049B8009415EF125DF75004EEFA80027A1512573B
:1049C80021790012092C9002ACE02EF8A3E03F8870
:1049D80082F583A3A882A9830241669002E0125E51
:1049E80027700302409A9002E0123264C3E50898E7
:1049F800E5099950030240AC9002E0124E2790025C
:104A0800E0E8F0A3E9803C9002E012592DC3E508E4
:104A18009AE5099B50030240AC124DF9E50C124E81
:104A2800331235FB1203A47A1079021203D48A0CCC
:104A38009002B0E060D1124EC7686003023A8090DD
:104A480002B0E4F0124FC0640A7010EEF89002E071
:104A5800E0C398148E828F8302416DE0642760055D
:104A6800E06422700E9002ACE02401124DA5900281
:104A7800AC80AEE0124D514003024B1B9002AC12C9
:104A8800572AE0F8740A68600874206860030240D6
:104A98009A7401121657AA82AB83851882851983E6
:104AA800E0F91203DA7401121657125ACE600302A3
:104AB800409A74011216571259B69002E0124DE14D
:104AC800F8E934FFF9C3E50898E50999500302406D
:104AD800AC8518828519837408F0E0FC74011216FD
:104AE80057E0F81259B6C3EC98E4994003024A4CCF
:104AF8008A828B83E0C0E0124DF9D0E0F08A828B85
:104B080083A3AA82AB83124EFE851882851983E09F
:104B18000480C6E06420600302409A024A4C900276
:104B2800E0E064C17004A3E06402700A9002E0E46B
:104B3800F0A3F002409A9002E2E0A2E07CC17D027C
:104B48009002E0E0501DC394C1F97A077B03120676
:104B5800AA8518828519837401F0AC82AD83F97A2D
:104B6800058006C394C1F97A087B031206AA90024D
:104B7800E0E4F0A3024D40E064276008E0642260AE
:104B88000302409A12042EE9851882851983F07071
:104B98000302409A9002F7E0F89002E0124E0EA34A
:104BA800A3C3E5089582E509958350030240AC90BC
:104BB80002F7E004C0E0124DF9D0E0124F0F24FED6
:104BC800600B24FE600E24F4601102409A1256F91C
:104BD8007403800C1256F9740580051256F974078F
:104BE800124F0FF50875090078081218767CE77DD2
:104BF800029002E0125AB9120458740212162212D4
:104C080003A4122C7564D2700B9002E0124EA9C254
:104C1800E012326C9002F7E0F89002E0E028124DC2
:104C2800A59002E00241697408121657AC82AD8360
:104C38007902EEFAEFFB1206AAE985188285198334
:104C4800F0E0023EF61203F88A08AE089002B0E0DF
:104C5800600302409AEEC3940440030240A3120387
:104C6800F8EAF50C9002B0E0600302409AEAC394B7
:104C78000440030240A3122C75FF74DB6F600874B4
:104C8800DC6F60030240A312327E1203F89002B078
:104C9800E0600302409AE50CC3940250077401C314
:104CA800950CF50C74DB6F7004782080027800E5B1
:104CB8000CC4333354C048F50CEA14600A14600C71
:104CC80024FE601002409A430C0F800BE50CD2E4DE
:104CD800F50C8003430C11EEA2E19002BF4017E4EB
:104CE800F0EEA2E0E5F192E0F5F175C200850CC5A1
:104CF8007586E0023A6C7401F0EEA2E0E5F192E10B
:104D0800F5F175FA00850CFC75F8E0023A6C74044C
:104D1800121657124EDA80108E828F83E0F5F9A2B0
:104D2800F950FCE5F9124D7BE84970EC7A01A908C5
:104D38000237539002C07440F09002ACE0240102A4
:104D48004163EA90092F02416D24BFC3941A22E5FA
:104D58000C2408F8E50D3400F922C3E498F8E49926
:104D6800F99002B922124D72A322F08A828B83A392
:104D7800A3A322F0E824FF18E934FFF9A3AE82AF19
:104D880083229002AD125703E022125700E0640A12
:104D9800229002BEE05407FC8882898322124DA922
:104DA80022F8A3E03400F922F09002B91259BF2288
:104DB8001259BF9002B722125700A3E064962290BE
:104DC80002BAE0F988828983A3A3A3221259BFEA11
:104DD800221259BF9002ACE02212593BE824F82273
:104DE8009002AD1233AA74BF28221233AA74206825
:104DF800229002E0E0F8A31257032212572EA322B2
:104E0800124E82E06822E028FAA3E034008A82F594
:104E180083229002BEF0131313541F124F8022E016
:104E2800FEA3E0FF22124FA0642822F0124E38227F
:104E38009002E0E02401124DA99002E0229002B510
:104E4800124E4FE824FC22E02508F8A3E03509F9C2
:104E580022124FDE22124E6122E0F8125734E0246B
:104E6800F822E0C398FAA3E099FB3395E0FCFD2211
:104E78009002B1124E821235FF221259C39002B32A
:104E8800229002ACC3E098A3E09922E0F8A3124E66
:104E98009A22124F28A322124E63FCA3E034FFFD8E
:104EA80022124EC2C824FFF582E834FFF583E022BF
:104EB8009002AC124EC2124FC722E0F8A3E0229033
:104EC80002AC1233A7851882851983E022124FA0FD
:104ED800FC22124E61124EE122F8A3E034FFF922BF
:104EE800124EEC22125735A3E0F89002B7E028F8EA
:104EF800A3E0340022F0124F0222124F0622124E73
:104F080038E8F0A3E9F022F0124F029002F7E0220D
:104F180012506922124F2022E0F8A3124F28E022F3
:104F2800125707A3A3A3229002B7E02403124FDE6F
:104F3800F5838882E0229002B1E02CF8A3E03DF9E5
:104F48009002B31235FF9002B1124F6822AC82ADC5
:104F5800839002BA124F23F8A3124E9A124F682276
:104F6800E0FAA3E0FB22124F78124F8D124F8022F5
:104F7800F085188285198322F89002B5E028124D31
:104F8800A9E8246822E024BF9002BEF0131313544A
:104F98001F22124FA064A3229002AC124FA722E056
:104FA800F8A3125707E0229002E0E02403124DA96B
:104FB800C3E50898E5099922123271124FC722F504
:104FC800838882E0851882851983F0229002B3E0F5
:104FD8002402124FDE22124FE222F8124DAA90024A
:104FE800ACE8F0A3E9F022124EE19002B3124F6848
:104FF800C3E89AE99B22123282EE229002B7E0F8C7
:10500800A3124EECF99002B71235FF9002B3E06894
:105018002212502612328274BF2EC3941A22900292
:10502800AC124FA7FE228A0C8B0D8C0E8D0F124FDF
:10503800A06429229002B9E0F8A3125703A3124EE4
:10504800C212504D22F99002B912593B9002B9226E
:105058001818181257037402125069740112506913
:1050680022F0124F06F583888222124FA0640A228A
:1050780074F412166312327B74442EFFC3940340F7
:105088000E122E9A9002B07406F079000259B112ED
:1050980003F89002B0E070ECEAC3940850E61250AE
:1050A8003670E112327E74BE6E700C74016A60D480
:1050B80074026A700D80CD74BD6E7006EAC39404E4
:1050C80050C2EFC454F04AF980C274F6121663E96C
:1050D800FCEAFD750801750900740F5C7808121563
:1050E800F9A808E8F4FEECC4540F600514601180B8
:1050F8001EE580FFED70027800EF5E48F580801CA9
:10510800E590FFED70027800EF5E48F590800DE5C0
:10511800A0FFED70027800EF5E48F5A00236067435
:10512800E812166374F812160C7E007F00740212DF
:105138001657E4F0A3F0F5087406121657E4F0A326
:10514800F09002E312570D1235FB1203C88A148B34
:1051580015124DB18518828519831235FB9002E529
:10516800E0F50AA3E0F50B7403780A1215F9E50ACD
:105178002402F8E50B3400F9C312580A500302560A
:105188007F9002B9E02402F512A3E03400F513027F
:1051980052FB740A65096003025436125C82122CB1
:1051A800785430700302525C9002B9E024FA125726
:1051B80064F8A3E0F97583027582B9124E8C500326
:1051C80002567F9002B91257247AFF7BFF120AA079
:1051D8001256F08E0C8F0D7403780C1215F9E51227
:1051E800250CF8E513350DF988828983A37475F0C9
:1051F800A374851256907402F0A3A3A30412569FB9
:10520800E4F0A3F09002B9125748A3A3A3EAF0A3CD
:10521800EB1257591235FB1257D5500302567F121D
:1052280057AF7404121657AA82AB83850A82850B7E
:1052380083E0F91203DA7404121657125797E50A35
:10524800F0A3E50BF09002B9E02407124DA59002F7
:10525800B91235FBE50870030252E31256F08E0AC4
:105268008F0B7403780A1215F9E512250AF50AE579
:1052780013350BF50B850A82F583A37473F0A374B9
:10528800851256B47402F0A3A3A3141256BCE4F01A
:10529800A3F085088285820CE50C2401125805507C
:1052A8000302567F750900780812187674041216DE
:1052B80057125724125AB612045874021216229022
:1052C80002B9E0250CF8A3E034008882F583E412E3
:1052D8005759A3A3A31235FB7508008514828515B9
:1052E80083A3A3E0F8E51428F514E5153400F515B3
:1052F8001256F09002E5125943400302562CE51469
:105308002403F8E5153400F91256C864C670E19014
:1053180002AC122E1E12327E7496650A7003025673
:105328002C8E0C8F0D7403780C1215F9E512250CD0
:10533800F510E513350DF511851082F583A38582E7
:105348000C85830DE4F0A3F0851082851183740227
:10535800F0A3A3A3141256A9A3E4F0A3F0E5102424
:1053680006F516E5113400F517851682F583E4F085
:10537800A3F074C7650A600974C8650A600302541B
:10538800A0125777742265096009742765096003BC
:1053980002543612042EE9700302543674C7650AA3
:1053A800600302543E850C82850D837477F0A374E4
:1053B8008512591DF50A750B002403125805500370
:1053C80002567F780A1218767CE77D02125714126B
:1053D800045874021216229002F7E0C0E09002B955
:1053E800124DFCD0E0F01257149002B912572AEA75
:1053F800F0A3EB124DB08516828517831235FB1288
:1054080003A4122C7564C560030252E39002AD1226
:1054180056FCA3E0648B70169002AC124FD71203AF
:10542800F874061216571256E670030252E3125722
:105438007D790102568474C8650A60030252E385C7
:105448000C82850D837471F0A37485F01203A41285
:1054580003BC8A088B09A808A90974FF687003743B
:10546800FF6960269002AC125AB9740212165712DC
:1054780056999002ACE028FAA3E0398A82F583A312
:10548800A882A9831235F80252E37402121657E46F
:10549800F0A3F0F5080252E37437250AC3940550C7
:1054A8008D9002ACE024FFF8122EA1750900800649
:1054B800E509D2E1F5091257A560F514601D1460DD
:1054C8000814600B14600E8018E509D2E380E5E546
:1054D80009D2E480DFE509D2E580D9E509D2E28086
:1054E800D31234FF9002B9E024FF125764FAA3E004
:1054F800FB9002B9C3E09AA3E09B500302567F12C7
:1055080056FCE509124DB0125C821235FB12577732
:1055180074BF2509C3941A40030254361257FCF885
:10552800742068600E740A686009E8C394805003A8
:105538000254369002F7E0F82409FCE43400FDE454
:105548009CFCE49DFD9002B9E02CFCA3E03DFD909D
:1055580002B9ECF0A3EDF09002B9C3E09AA3E09B86
:10556800500302567F9002F7E0FA9002B9E02AF55C
:105578000AA3E0125E08A3A3A3A3A3E4F0A3125610
:10558800BCA3A3A3F0A31256B4E509F0A3E512F057
:10559800A3E5131256B4A3A3A3E4F0A3F0880EF571
:1055A8000F780E1218767CE77D02125AB61204584C
:1055B8007402121622851682851783E50AF0A3E580
:1055C8000B1256A97403124DB0850C82850D8312F7
:1055D8005919851082851183800C12573AA3A3A309
:1055E800A3A3E8F0A3E9F01203A412577774C365E4
:1055F80009600974C46509600302519A1257FC6472
:105608008B600302543612327E1203F81256E3609E
:105618000302543674C365099002BC60BD12573A40
:10562800A3A380B91257D5404E1257AF88828983F9
:10563800A3A3A3E512F0A3E513F0740612165712FC
:10564800576CE51224FEF582E513125C8AEEF0A38E
:10565800EFF07508EC7509847808121876EEFCEFFF
:10566800FDAA12AB13120A287402121622E960036B
:105678000254367900800512577D79027408022C8D
:105688001D9002B9E8F0A3E9F0888289832290028C
:10569800BCEAF0A3EBF022F088828983A3A3A3A33A
:1056A80022F0851082851183A3A3A322F0850A82A4
:1056B800850B8322F0850A82850B83A3A3A3A322EB
:1056C80088828983A3AA821256D322AB839002AC24
:1056D800EAF0A3EBF088828983E0229002BCEAF02A
:1056E800A3EBF09002B0E022EE24010EEF3400FFAD
:1056F800229002E1125703229002AD12570722E0CE
:10570800F5838882221259BF9002BC229002B9E028
:105718002403FAA3E03400FB229002ACE0FCA3E0EF
:10572800FD2212572E22E0F812573422A3125707EF
:10573800A32212573E221259C3850A82850B83225F
:1057480012574C22E0FAA3E0FB88828983A3A3A323
:1057580022F09002B912573EA3A3A3221257F09049
:1057680002B3E02212574CA3A3EAF0A3EBF02212F3
:105778004FA0F509228518828519831259BF900216
:10578800B91235FF9002B7E514F0A3E515F022121F
:105798004EC2C82406F582E83400F583229002AC94
:1057A800E01233B82437229002B91259BF8882898F
:1057B8008374531257D0C39AFAA3E09BFB8882895B
:1057C80083A3EAF0A3EBF022124F78E0229002B90B
:1057D800E024F91257F09002B9124F689002B31200
:1057E80059BFC3EA98EB9922124EE19002B9E8F04A
:1057F800A3E9F022123282F5838882E022F8E434A9
:1058080000F9E498F8E49912504D1235FF9002B36C
:105818001235827582B9C3E098A3E0992274EC121C
:1058280016631203BC8A088B09A808A9099002AC60
:10583800125937E8FEE9FF9002AC125943404090F4
:1058480002F7E480079002ACEAF0A3EB12591DF5C9
:10585800089002AC12592D9002ACC3E09EA3E09FC1
:1058680050329002F7E0C394105014122C75642D36
:1058780060D37A1079021203D49002B0E060030278
:10588800591274E72508F5827402125928EA125948
:105898001D0480B8750C00750D00750E00750F009D
:1058A8008040850C0A850D0B74E7250AF8740235CB
:1058B8000BF988828983E0FEE508C3950AFCE49524
:1058C8000BFD74E62CFC74023DFD8C828D83E08810
:1058D800828983F0EE8C828D83F0908536780C1265
:1058E800142F9002F7E0C313F510E4F511F512F543
:1058F800137810790C1211D240A8EAF8EBF990024B
:10590800AC12591960047901800279007F0C0217E2
:1059180035E8F0A3E9F09002F7E022240EF582EBD7
:105928003400F58322E02401FAA3E03400FB2212BC
:10593800593B22E028F8A3E039F9221259BFC3EEF7
:1059480098EF992274F412166374FE12160CEAFE8C
:10595800EBFF890BEC250BF50A851882851983AABC
:1059680082AB838E828F83E0F91203DA125AC870F1
:10597800228518828519831259B6E824F8FAE93481
:10598800FFFB850A08C3EA9508EB9400500FEAF577
:105998000A800AE50AC394054003750A04850A08C3
:1059A800AA087B0074021216227F04021735A3127C
:1059B80057031259BE22A31259C322E0F8A3E0F9F3
:1059C8002274EE12166374FE12160C741612165711
:1059D800E0F50CA3E0F50D8C828D83A3A3A3A3A30C
:1059E800A3124E277418121657125C36AC08FDEE37
:1059F800FAEFFB120434EAF50B70057901025AAC90
:105A08008E828F83125ABD6005790112041685189B
:105A180082851983AA82AB838E828F83E0F9120371
:105A2800DA8A0E8B0FAC0EAD0F7414121657125A79
:105A3800B9125AC87026850B0EE50EC39508F50EE7
:105A4800E49509F50F780E121876EC2508FCED356B
:105A580009FD1204587402121622803AAE088030EA
:105A6800850B0E8E10E50EC39510F895E0F9EC281D
:105A7800F8ED125C1DE0C0E08E0EE50EC39508F847
:105A8800E49509F9EA28F582EB39F583D0E0F00EC0
:105A9800EEC3950B40CAE50BC39508850C82850DAE
:105AA80083F0790074021216227F0A0217359002D9
:105AB800B9124F6822A3A3A3A3A3124F68EA4B22EB
:105AC800851882851983124F2064042274EA1216FD
:105AD8006374FE12160C8C0E8D0F890A7514757579
:105AE80015857418121657E0F512A3E0F513741A09
:105AF800121657124E278C828D83125C2E7003E586
:105B08001569702675080175090078081218768ECF
:105B1800088F0978081218767812121876A90A12CE
:105B28000AB27406121622025C138C828D83A3A318
