:020000040000FA
:200000000206B2C2AFF508614AFFFFC2AFF508615CFFFFC2AFF508616EFFFFC2AFF50861DC
:2000200080FFFFC2AFF5086192FFFFC2AFF50861A4FFFFC2AFF50861B6FFFFC2AFF5086120
:20004000C8FFFFC2AFF50861DAFFFFC2AFF50861ECFFFFC2AFF50861FEFFFFC2AFF50881C0
:2000600010FFFFC2AFF5088122FFFFC2AFF5088134FFFFC2AFF5088146FFFFC2AFF5088120
:2000800058FFFFC2AFF508816AFFFFC2AFF508817CFFFFFF758701002274F712057FE9FE44
:2000A000750A00750B08780A1206837C807D017A007B001204927402120640900186E0F54B
:2000C0000AA3E0F50B7409780A120694E50A2EF50A74016E7006744E250AF50A53B4F37514
:2000E000BC0075BC007CFC7D077A047B00EEF91202BC74012EFFC3950A501B74086F70029B
:200100007F567C007D087A007B00EFF91202BC0FEFC3950A40E5E5BDF9E5BCFAE9FB7F023C
:200120000205E574F612057F890CEAFEEBFF53BEFBE59DA2E650FAE5C654804449F5C6E560
:200140009E547F644970F853C67FE59EA2E740FA53C680E59E547F70FA43BE049062707407
:2001600008F01200998E828F83E0F8A3E0F9EA687002EB6970498E828F83A3A3E8F0A3E9C9
:20018000F08E828F8374FFF0A3F07409F5D575D480750A01750B00780A120683EEFCEFFD54
:2001A000850C0A7409780A120670FAAB0B1205197402120640C2AF75C9AB75C95B80FE7F7F
:2001C000030205E574FC12065A750A04750B00780A12068374021206CEAC82AD837A007B7F
:2001E0000079081204927402120640851A82E0F47003A3E0F4603C851A82851B83E0F8A3CE
:20020000E0F9E849602D74021206CEE0687003A3E0697010750901024030C2AF75C9AB7504
:20022000C95B80FE851A82851B83AA82AB837908120123780A12068374021206CEAC82AD73
:20024000837A007B0079011204927402120640851A82E0F47003A3E0F46051851A82851BE5
:2002600083E0F8A3E0F9E849604274021206CEE0F8A3E0F9851A82851B83E0687003A3E0A2
:20028000697010750900020830C2AF75C9AB75C95B80FE74FF68700374FF69700F851A8282
:2002A000851B83AA82AB83790112012343BE03120094C2AF75C9AB75C95B80FE74F7120574
:2002C0007FE9FEE5C7FF740F5EF50A750B00740B780A120670EA2400F8EB350BF9E82400EE
:2002E000E93480F9A2AFE433F50AC2AFEEC4540FFAE5C754F84AF5C7E9900980F0E8A3F016
:20030000A37470F0A374BDF0EC900985F0EDFC900984E054E04CF09009867420F0A3744256
:20032000F07409F5D575D48075D601000000000000000000000075D701E5D7A2E040FA8F1D
:20034000C7E50AA2E092AF02011EE5096007E508D2AF024033E508D2AF020833E5096007CB
:20036000E508D2AF02403BE508D2AF02083BE5096007E508D2AF024043E508D2AF020843DC
:20038000E5096007E508D2AF02404BE508D2AF02084BE5096007E508D2AF024053E508D233
:2003A000AF020853E5096007E508D2AF02405BE508D2AF02085BE5096007E508D2AF0240F9
:2003C00063E508D2AF020863E5096007E508D2AF02406BE508D2AF02086BE5096007E5084A
:2003E000D2AF024073E508D2AF020873E5096007E508D2AF02407BE508D2AF02087BE5097B
:200400006007E508D2AF024083E508D2AF020883E5096007E508D2AF02408BE508D2AF0247
:20042000088BE5096007E508D2AF024093E508D2AF020893E5096007E508D2AF02409BE501
:2004400008D2AF02089BE5096007E508D2AF0240A3E508D2AF0208A3E5096007E508D2AFE8
:200460000240ABE508D2AF0208ABE5096007E508D2AF0240B3E508D2AF0208B3E509600734
:20048000E508D2AF0240BBE508D2AF0208BB0002048E74F512057F890A740F550AF50C7540
:2004A0000D00740B780C120670EA2400F8EB3480F9E82400E9350DF9E5C7F50BA2AFE433C2
:2004C000F50CC2AFE50AC4540FFAE5C754F84AF5C7740B1206CEE0FEA3E0FFEE4F602CEE20
:2004E000FAEFFB88828983E08C828D83F088828983A3A882A9838C828D83A3AC82AD83EAFC
:2005000024FF1AEB34FFFBEA4B70D8850BC7E50CA2E092AF7F040205E574F712057FED9010
:200520000980F0ECA3F0A37462F0A37473F0A3E0541FF074091206CEE0F50AA3E0F50BE550
:200540000A333354FC900985F07406780A120694E50A900984F09009867412F0A37442F04B
:2005600053D1FE75D601EA906271F0EBA3F0906270E0D2E1F0E0A2E740FB7F020205E52537
:200580001AC582C0E0E51B34FFC583C0E0E51AC3958224F910AF0885831B85821A80088531
:2005A000831B85821AD2AFCEF0A3E520F0A3780AE608F0A3DEFAEFF0A3E58124FBF8E6083A
:2005C000F0A3E608F0A30808E608F0A3E608F0A315811581D0E0FED0E0F815811581E8C09F
:2005E000E0EEC0E022851B83851A82E0A3FEE0A3F520780AE0A3F608DFFAE0A3FFE0A3C06D
:20060000E0E0A3C0E0E0A3C0E0E0A3C0E010AF0885821A85831B800885821A85831BD2AF39
:20062000D083D08222251AF58210AF08F51A4002151B8008F51A4002151BD2AF851B832226
:20064000C0D0251A10AF08F51A5002051B8008F51A5002051BD2AFD0D022251A10AF08F53C
:200660001A4002151B8008F51A4002151BD2AF22700422600D18C6C333C608C633C6D5E029
:20068000F4182274028000C0E0F404120625D0E01206C122600C08C6C313C618C613C6D554
:2006A000E0F4221206DDB900030206AC1201C41206D875D00075813F751A80751B010206F6
:2006C000A3CAC0E0E6F0A308DAFAD0E0FA22251AF582E4351BF5832200000080FB79012251
:2006E000FFFFFFFFFFFFFFFFFFFFFFFFFFFFFFFFFFFFFFFFFFFFFFFFFFFFFFFFFFFFFFFF1A
:20070000FFFFFFFFFFFFFFFFFFFFFFFFFFFFFFFFFFFFFFFFFFFFFFFFFFFFFFFFFFFFFFFFF9
:20072000FFFFFFFFFFFFFFFFFFFFFFFFFFFFFFFFFFFFFFFFFFFFFFFFFFFFFFFFFFFFFFFFD9
:20074000FFFFFFFFFFFFFFFFFFFFFFFFFFFFFFFFFFFFFFFFFFFFFFFFFFFFFFFFFFFFFFFFB9
:20076000FFFFFFFFFFFFFFFFFFFFFFFFFFFFFFFFFFFFFFFFFFFFFFFFFFFFFFFFFFFFFFFF99
:20078000FFFFFFFFFFFFFFFFFFFFFFFFFFFFFFFFFFFFFFFFFFFFFFFFFFFFFFFFFFFFFFFF79
:2007A000FFFFFFFFFFFFFFFFFFFFFFFFFFFFFFFFFFFFFFFFFFFFFFFFFFFFFFFFFFFFFFFF59
:2007C000FFFFFFFFFFFFFFFFFFFFFFFFFFFFFFFFFFFFFFFFFFFFFFFFFFFFFFFFFFFFFFFF39
:2007E000FFFFFFFFFFFFFFFFFFFFFFFFFFFFFFFFFFFFFFFFFFFFFFFFFFFFFFFFFFFFFFFF19
:20080000CE1DFFFF0000005C41414141FFFFFFFFFFFFFFFFFFFFFFFFFFFFFFFFFFFFFFFFA3
:20082000000102030405060708090A0BFFFFFFFF020B5E021890FFFFFFFFFFFFFFFFFFFF6F
:20084000FFFFFFFFFFFFFFFFFFFFFFFFFFFFFFFFFFFFFFFFFFFFFFFFFFFFFF02130AFFFF96
:20086000FFFFFFFFFFFFFFFFFFFFFFFFFFFFFFFFFFFFFFFFFFFFFFFFFFFFFFFFFFFFFFFF98
:20088000FFFFFF021906FFFFFFFFFFFFFFFFFFFFFFFFFFFFFFFFFFFFFFFFFFFFFFFFFFFF54
:2008A000FFFFFFFFFFFFFFFFFFFFFFFFFFFFFFFFFFFFFF02173FFF020202020202020202E2
:2008C000010D0000001001023BC00100006DBF0229C001000045080233C00100009C020200
:2008E00029C00100004608022DC001000039C00229C001000047080249C001000037C00297
:2009000029C001000048080247C0010000C5BE0229C001000049080245C001000035C002D4
:2009200029C00100004A080243C0010000FFBE0229C00100004B080241C00100006EBE0247
:2009400029C00100004C08023FC00100003FBF0229C00100004D08023DC00100004E081CA6
:20096000023BC00100000EC00229C0010000ED08104EBE020000CD020225C0030000CF0222
:200980000227C00100004DBF0229C0010000ED08105EBE020000CE020225C0030000D502C1
:2009A0000227C00100005ABFFFFFFF00080101000302010600000000000000000000000021
:2009C00000000000000000000000000000000000FFFF0110002000E803FF0000B400002822
:2009E000002800283075A000A000A000A00000080008E001F0001000100010001000100051
:200A0000100050005000500010001000D0070000000000000F00010005003075070010000E
:200A2000010081FF00000000FF5B2079206120FF02020208025000A0000000E803023BC0BA
:200A400001000011C00229C0010000BE090223C0010000B9030229C0010000BF090221C0D8
:200A6000010000CF030229C0010000C009021BC0010000D1030229C0010000C1090219C0AB
:200A8000080000D2030229C0010000C209021DC0010000C309FF0100FF20023BC0010000F9
:200AA00014C00229C0010000270A021FC000000000000225C00300001F0431263126312652
:200AC0003126312631263126312631263126312631263126D128E928CB28E5C754F8440572
:200AE000F5C779012200000080FB120ADAB90003020B48E479217808B800028004F709D808
:200B0000FCE479297802B800028004F709D8FCE490028078C579068002F0A3D8FCD9FA90C9
:200B20000844AA82AB839008B6782579038015E493A3AC82AD838A828B83F0A3AA82AB8394
:200B40008C828D83D8E9D9E77582F47583D67407120B707582E575830A7400120B7075D011
:200B60000075813F751A80751B02759F00020AEAC09FF59FE473D09F22D083D082C09FE4D2
:200B800093C0E0740193C0E0740293F59F22E066701008A3E066700A08A3E066700408A37A
:200BA000E06622E4936670130874019366700C08740293667005087403936622C3E79608AD
:200BC00009E7960809E7960809E79622C3E09608A3E09608A3E09608A3E09622C00AC3E026
:200BE00096F50A08A3E096420A08A3E096420A08A3E096450A7001D3D00A22C3E4939608FE
:200C0000740193960874029396087403939622080808EAC0E0EBC0E086F0E7A4FA180986F6
:200C2000F0E7A42AFA180986F0E7A42AFA180986F0E7A42AFA1986F0E7A4FBE5F02AFA1962
:200C40000886F0E7A42BFBE5F03AFA190886F0E7A42BFBE5F03AFA18180986F0E7A4C5F01C
:200C60002BFBE43AFA1908E7C5F0C6A426F6E5F03BFBE43AFA1886F0E7A4F6E5F00826F6C8
:200C8000E43B08F6E43A08F6D0E0FBD0E0FA226016080808C6C313C618C613C618C613C646
:200CA00018C613C6D5E0EA227009080808226016181818C6C333C608C633C608C633C60833
:200CC000C633C6D5E0EA22E627F60809E637F60809E637F60809E637F622E026F608A3E07C
:200CE00036F608A3E036F608A3E036F622E026F008A3E036F008A3E036F008A3E036F0220D
:200D0000C3E697F60809E697F60809E697F60809E697F622C3E096F008A3E096F008A3E02A
:200D200096F008A3E096F022E056F608A3E056F608A3E056F608A3E056F622E056F008A356
:200D4000E056F008A3E056F008A3E056F022E0F608A3E0F608A3E0F608A3E0F622E6F00850
:200D6000A3E6F008A3E6F008A3E6F022E0FAA3E0FBA3E0FCA3E0FD22EAF0A3EBF0A3ECF086
:200D8000A3EDF022CAC0E0E6F0A308DAFAD0E0FA22CAC0E0E0A3C582CCC582C583CDC58382
:200DA000F0A3C582CCC582C583CDC583DAE6D0E0CA22C3E498F8E499F9120DF38026C3E481
:200DC0009AFAE49BFBE920E7E9120DF3E498F8E499F922C3E498F8E499F9120DF3E498F8DB
:200DE000E499F9C3E49AFAE49BFB22EB20E7CFE920E7E0B90010BB0008E88AF084F8AAF011
:200E000022E4FBC8FA22EB70227B10C833C8C933C9335007C39AC3DBF280069A50012ADB70
:200E2000EAC833F4C8C933F4C9FA2275F008E4C833C8C933C933C99AC99B5004C92AC93B1E
:200E4000D5F0ECFBC833F4C8E4C9FA22600D08C6A2E713C618C613C6D5E0F322600C08C60E
:200E6000C313C618C613C6D5E0F422700422600D18C6C333C608C633C6D5E0F41822251ACE
:200E800010AF08F51A4002151B8008F51A4002151BD2AF22C0D0251A10AF08F51A50020562
:200EA0001B8008F51A5002051BD2AFD0D022251AF58210AF08F51A4002151B8008F51A40F6
:200EC00002151BD2AF851B8322251AF582E4351BF58322E473251AC582C0E0E51B34FFC521
:200EE00083C0E0E51AC3958224F810AF0885831B85821A800885831B85821AD2AFCEF0A321
:200F0000E520F0A3780AE608F0A3DEFAEFF0A3E58124FAF8E608F0A3E608F0A3E608F0A3DD
:200F20000808E608F0A3E608F0A315811581D0E0FED0E0F8158115811581E8C0E0EEC0E045
:200F400022251AC582C0E0E51B34FFC583C0E0E51AC3958224F910AF0885831B85821A80AD
:200F60000885831B85821AD2AFCEF0A3E520F0A3780AE608F0A3DEFAEFF0A3E58124FBF8D1
:200F8000E608F0A3E608F0A30808E608F0A3E608F0A315811581D0E0FED0E0F8158115818F
:200FA000E8C0E0EEC0E022851B83851A82E0A3FEE0A3F520780AE0A3F608DFFAE0A3FFE05E
:200FC000A3C0E0E0A3C0E0E0A3C0E0E0A3C0E0E0A3C0E010AF0885821A85831B80088582A8
:200FE0001A85831BD2AFD083D082020B76851B83851A82E0A3FEE0A3F520780AE0A3F608AB
:20100000DFFAE0A3FFE0A3C0E0E0A3C0E0E0A3C0E0E0A3C0E010AF0885821A85831B800856
:2010200085821A85831BD2AFD083D08222C0D0251AC582C0E0E51B34FFC583C0E0E51AC391
:20104000958224F310AF0885831B85821A800885831B85821AD2AFC8F0A3E9F0A3EAF0A3B6
:20106000EBF0A3790AE709F0A3D8FAECF0A3EDF0A3EEF0A3EFF0A3D0E0F0A3D0E0F0A3D0C2
:20108000E0F0A3E520F0A3E5F0F0A322851B83851A82E0C0E0A3E0F9A3E0FAA3E0FBA37865
:2010A0000AE0F608A3DFFAE0FCA3E0FDA3E0FEA3E0FFA3E0C0E0A3E0C0E0A3E0F5D0A3E05C
:2010C000F520A3E0A3F5F010AF0885831B85821A800885831B85821AD2AFD082D083D0E043
:2010E000F8D0E03274048006740280027401C0E0F404120EAED0E0120D8422740480047460
:20110000028000CCC0E0EDC0E0E51AC39CCCAD1B50011D10AF068C1A8D1B80068C1A8D1B0D
:20112000D2AF120D91D0E0FDD0E0FC22D083D082E9C0E0E493A3C386F0C5F095F0F908E463
:2011400093A386F0C5F095F0700BE493A3C3994005E9048002A3E475F002A42582F582E56F
:20116000F03583F583D0E0F9E493A3C0E0E493C0E022D083D082ECC0E0EDC0E0E493A3FCDF
:20118000E493A3FDED4C600D1211BEEC24FFFCED34FFFD80EFE493A3FCE493A3FDED4C6054
:2011A0000D1211FDEC24FFFCED34FFFD80EFD0E0FDD0E0FCE493A3C0E0E493C0E022C0E07F
:2011C000C3E49396087401939618400FE49366700808740193661870007019A3A3C3E493D6
:2011E00096087401939618A3A3400DD0E0D0E0D0E00211AEA3A3A3A3A3A3D0E022C0E0C033
:20120000F088F0E4936670080874019366187000A8F0A3A3700BD0F0D0E0D0E0D0E00211D7
:20122000AEA3A3D0F0D0E022D083D082ECC0E0EDC0E0EEC0E0EFC0E0E493A3FCE493A3FD20
:20124000E493A3FEE493A3FFEF4E4D4C60151212A4EC24FFFCED34FFFDEE34FFFEEF34FFE1
:20126000FF80E5E493A3FCE493A3FDE493A3FEE493A3FFEF4E4D4C60151212E1EC24FFFC51
:20128000ED34FFFDEE34FFFEEF34FFFF80E5D0E0FFD0E0FED0E0FDD0E0FCE493A3C0E0E438
:2012A00093C0E022C0E0C0F088F0120BFBA8F04007120BA3A8F0701AA3A3A3A3120BFBA8EC
:2012C000F0A3A3A3A34013D0F0D0E0D0E0D0E002128EA3A3A3A3A3A3A3A3A3A3D0F0D0E0FF
:2012E00022C0E0C0F088F0120BA3A8F0A3A3A3A3700BD0F0D0E0D0E0D0E002128EA3A3D01D
:20130000F0D0E022C2AF02000022C0E0C0D0E8C0E0E9C0E0E5A8D2AFC2C7A2E7A2E792AF4B
:20132000D0E0F9D0E0F8D0D0D0E03274F5120F41EAFEEBFFEE2434F8EF3400F9880A890BBD
:20134000EE2435121457F8EE2437121457F50CEC850CF0A4FCAAF0850CF0EDA42AFDE82C16
:20136000F8E43DF97A257B00120DF3EA850A82850B83F074075AF87401B800028004C333BB
:20138000D8FCFBEA131313541FF8EE28F8EF3400F9E8245DF582E912145A5B6003EA801C39
:2013A000EE2436121457F5F0EA84A8F0EE28F8EF3400F9E82438F582E912145AF97F0402B1
:2013C0000FED74F5120F41EAFEEBFFEE2434121457C0E0EE2435F582EF3400F583D0E0F018
:2013E0008E828F83A3A3A3A3A3E0FAA3E0FB8E828F83A3A3A3A3A3A3A3E0FCA3E0FDECC3A2
:201400009AF50CED9BF50DEE247FF50AEF3400F50B850A82F583E06401702BEE2480F58282
:20142000EF3400F5831210FF1214607402120E94E960137CE27D05EEFAEFFB122559850A13
:2014400082850B83E4F0AC0CAD0DEEFAEFFB12132B121C870213BDF582EF3400F583E022F4
:20146000C082C083851A82851B83E0F8A3E0F9C3EA9CEB9D5010C3EC98ED99401BC3EA98B1
:20148000EB995014800EC3EA98EB994007C3EC98ED994004790180027900D083D08222EA8F
:2014A000C39CFAEB9DFB2274ED120F419004A8E064086005E06407702C9061C8E0602690E8
:2014C00004D6E0F874FF68601CE875F003A4C8AAF02AF974D828FE740439FF8E828F83A3A3
:2014E000A3A3E070057900021647EE2468F512EF3400F513906060E0851282851383F07504
:201500000C4B750D06750A00750B00E5D914F510E5D95403F511601CEE2482F50EEF3400C5
:20152000F50F740365116058E5106013EE2467121457700B793DEEFAEFFB12257D80A69037
:201540000646E064016026850E82850F83E0600478048002780085100AE50AC398FA95E036
:20156000FB1224098A0A8B0BEA450B70061227C30214E5850E82850F83E070048A0C8B0DB2
:2015800078008016E5D9C0E08814E50C2514F582E50D3400F583D0E0F008E8C3951040E4E8
:2015A000850E82850F83E0602874FC2510F510780C1210E8AC10A911EEFAEFFB12262B7440
:2015C00002120E94E9700AAA0AAB0B121E2702153474036511605885100E750F00780E1282
:2015E00010E8AC0CAD0DAA0AAB0B1225EF7402120E94851282851383E0F874806870057575
:201600000E7F8002880EE50EF50C780C1210ECE511F50C780C1210ECA910AC0AAD0B90045B
:20162000D6E0FA7B001222AD7402120E9480139004A8E06408600BAC0CAD0DEEFAEFFB1298
:2016400026C11227CF79017F0C020FED74F3120F4174FC120E7EEAFEEBFF890AA2AFE433F4
:20166000F50BC2AFEE2463F50CEF3400F50D8010AA0CAB0D1225A7121E279005E9E004F0D9
:20168000850C82850D83E0F8A3E0F9E849602FE82402FAE93400FBEA2402F50EEB3400F5C7
:2016A0000F780E1210E88A828B83E0FCA3E0F9EEFAEFFB12259B7402120E94E960B29005BB
:2016C000E9E060579005EAE0F89005E9E0C398500C7402650A70449005EBE0603E8E828FE8
:2016E00083A3A3A3A3E0851A82851B8312172B7402120EC9E812172B9005E8E028F07402DD
:20170000120EC9AC82AD83851A82851B83AA82AB8379011222B39005E9E4F0E50BA2E0922D
:20172000AF7404120E947F06020FEDF0A3E4F09005E9E0F822FFFFFF8521878522C622C0F3
:20174000E074EF12102DA2AFE433FEC2AF759B00906182E0A2E05012E591A2E0500C75917F
:20176000FE7401652170031214A7E0A2E55051E591A2E5504B7591DF9004A8E064076005BF
:20178000E06408702374016521703579019004D6E0FA75F003A4CAA8F028FB74D82AFA7497
:2017A000043BFB12164C8018E0640D70139004CAE004F064287002E4F07A00E0F91227D5AA
:2017C000906182E0A2E64003021866E591A2E640030218667591BF9004A8E06405700812D6
:2017E000270312270F8003122709752100122775E99004A9F079001227691224C97A017B48
:20180000009004A7E0F9121D07907803E06442705590064AE014F0704DC2AF12181E007876
:201820002AD0E0F618D0E0F6E59F54077005750BFF8003750B7FC4C0E07829E6F50A08E6ED
:20184000550BF50B740B780A120E5CD0E0250AF8906270E0A2E740F8E8C333906272F0900F
:201860006270E0D2E0F0906181E0A2E35009E5E9A2E3500375E9F7A3E0A2E75009E591A26C
:20188000E7500375917FEEA2E092AF7F0402108CC0E0C0D0C082C083906183E0A2E05009D3
:2018A000E5BFA2E0500375BFFEE0A2E15009E5BFA2E1500375BFFDE0A2E25009E5BFA2E231
:2018C000500375BFFBE0A2E35009E5BFA2E3500375BFF7E0A2E45009E5BFA2E4500375BFB1
:2018E000EFE0A2E55009E5BFA2E5500375BFDFE0A2E65009E5BFA2E6500375BFBFD083D052
:2019000082D0D0D0E032C0E074F212102DE5A7A2E4500FE5A1A2E4500953A7EF75A1EF1298
:20192000195AE5A7A2E5500CE5A1A2E5500653A7DF75A1DFE5A7A2E15009E5A1A2E15003D0
:2019400075A1FDE5A7A2E2500CE5A1A2E2500653A7FB75A1FB7F0102108C74F8120F417541
:2019600021019004A8E0640670077A007B001226EBA2AFE433FED2AF9004AEE0640170183A
:201980007A207B009004A7E0F9121D797A207B009004A7E0F9121D0D906182E0D2E6F09086
:2019A0000647E0602185C62280169004ADE064017008E5C654F84405F5C653BEFC1217380F
:2019C0007401652160E4EEA2E092AF7F01020FED8E238F24858228858327851A82851B8393
:2019E000E0CEA3E0CF852882852783EBC9EAC8EDCBECCA75F010C3E833C8E933C9EA33CACE
:201A0000EB33CBC3EA9EF526EB9FF525B35004AB25AA26EC33CCED33CDD5F0DAAE23AF2411
:201A20002274F1120F418A0A8B0B8C0C8D0D90C00A780A120D28740F120EC9780E120D4EDF
:201A400090C00A780E120D28780A790E120BBC90BFE25010780A790E120D00780A120BDC49
:201A60004014800E780E790A120D00780E120BDC50047901800279007F08020FED74ED121C
:201A80000F418A0A8B0B8C0C8D0D90C00A780A120D287413120EC9780E120D4E90C00A7842
:201AA0000E120D28780E790A120BBC4011780A790E120D00AA0AAB0BAC0CAD0D8022751271
:201AC000007513007514007515017812790E120D007812790A120CC7AA12AB13AC14AD154C
:201AE0007F0C020FED90C00A780A120D4E8A828B83780A120D3B7F04020FED74F5120F41D2
:201B00008C828D83780A120D4E8A828B83780A120D14121B4FC3E098F0A3E099121B414078
:201B20001E90BFBA780A120D4E8A828B83780A120CED8E828F83E02420F0A3E0344EF0803D
:201B4000A4F08E828F83C3E09420A3E0944E22EA2404F8EB3400F9E8FEE9FF8C828D83A340
:201B6000A3A3A3E0F8A3E0F98E828F832274F5120F41E9FE9005FDE0FAA3E0FBEEC333F86C
:201B8000E433F9741F28F58274BF39F583E02AF50AA3E03BF50B780A1210E890BFC6120D98
:201BA0006C1219D07402120E948A0A8B0B8C0C8D0D7410780A120C8FAA0AAB0B7F04020F87
:201BC000ED74F1120F418A0E8B0F8C108D11740F120EC9E0FAA3E0FB7411120EC9E0F50AD4
:201BE000A3E0F50B780A1210E8EA2401F50AEB3400F50BE4F50CF50D780E790A120C0F90FC
:201C0000BFCE780A120D4E780E790A120C0FAA0EAB0FAC10AD111219D07402120E948B0B6B
:201C2000EA450B60047A0180027A00EC2AFCED3400FD7413120EC9E0F8A3E0F9E8FEE9FFCD
:201C4000ECF8EDF97A717B02120DF3880A890BE4F50CF50D8E828F83780A120D5DECF8ED42
:201C6000F97A717B02120DF38A0A8B0B7405780A120E6B8E828F83A3A3A3A3E50AF0A3E52C
:201C80000BF07F08020FEDC082C083E9906000F0D083D08222120B79DDD507120B7954D6A0
:201CA00007120B7944D707120B7949D707120B79EB9F07120B79F59F07120B7933A00712CE
:201CC0000B797CA007120B79B6A007120B7910A107120B7931A107120B793AA107120B799F
:201CE00087A107120B79B0A107120B79BAA107120B7926A207120B79B8A207120B7902A338
:201D000007120B7938A307120B79C4A307120B7905A407120B793CA407120B794EA40712DC
:201D20000B796AA407120B7973A407120B793BA507120B794CD707120B7916D407120B79FC
:201D4000BEC907120B79F4C907120B792ACA07120B7975CB07120B7939B407120B794EB40B
:201D600007120B7901B507120B7941B507120B795AB507120B7995B507120B79E2B507129D
:201D80000B7914B607120B7956B607120B79F9D707120B790BD807120B7917C507120B7949
:201DA0003CC507120B79A3D707120B7966D807120B7971D807120B797DD807120B7994D651
:201DC00007120B79A4D607120B79ADD607120B79F1D607120B7912D307120B7997D30712C6
:201DE0000B79FDD307120B792E9907120B796B9907120B79869907120B79579A07120B79A3
:201E0000459B07120B79AD9C07120B791F9D07120B79079E07120B798E9E07120B79A79FB5
:201E200007120B79FCCE07120B794ECF07120B79D8CF07120B793FD007120B7979C707129B
:201E40000B79A3C707120B7971C807120B794CC907120B79BEB506120B796AB906120B79A1
:201E6000C4B906120B79E3B906120B7940BA06120B79ACBB06120B7998BC06120B79CCC0FC
:201E800006120B799CC106120B79AFCB07120B79C6CB07120B79F7CB07120B7932CC0712F2
:201EA0000B795CCC07120B7986CC07120B799DCC07120B79B4CC07120B79CBCC07120B7993
:201EC000F4CC07120B7907CD07120B791DCD07120B7930CD07120B79B6E406120B79BAE53E
:201EE00006120B79F2E506120B7915E606120B7920E606120B7943E606120B7952E7061284
:201F00000B7927E806120B79A2E806120B792AE906120B7965E906120B799CE906120B79B2
:201F20002AEA06120B7903EB06120B7963EB06120B796EEB06120B79EDEB06120B79F0EB39
:201F400006120B79F3EB06120B7982EC06120B7985EC06120B79B5EC06120B79DFEC061234
:201F60000B79CDED06120B797FEE06120B797CAF07120B79A4AF07120B79D2AF07120B79A8
:201F800009B007120B7967B007120B79B2B007120B79FDB007120B793DB107120B7983B12F
:201FA00007120B79B1B107120B796EB207120B7978B207120B7985B207120B79B8B20712AA
:201FC0000B7984B307120B7990B307120B79A8B307120B79B2B307120B7914D507120B7949
:201FE0002CD507120B7944D507120B7958C206120B7934C306120B7998C406120B79EFC499
:2020000006120B7970C506120B7960C606120B79ADC606120B7933C706120B7965C70612A8
:202020000B7979C906120B79BBC906120B79D9C906120B795CCA06120B7930CB06120B7987
:20204000F8CB06120B79BAF806120B798DF906120B7936FA06120B7989FA06120B7939FB92
:2020600006120B79C5FB06120B79B1FC06120B79E0FC06120B79F3FD06120B793BFE0612CA
:202080000B7910FF06120B794CFF06120B7968FF06120B796DB807120B7993B807120B797D
:2020A000AFB907120B79B9B907120B79EEBA07120B79E6BB07120B7969A507120B7999A69F
:2020C00007120B79CCA607120B7916A707120B79DDA807120B79008006120B796A800612BA
:2020E0000B79C98106120B79D98106120B79068206120B79628206120B79698306120B7954
:20210000338406120B79938506120B79DC8506120B79298606120B794F8606120B795D881A
:2021200006120B79628806120B79678A06120B79B48A06120B79278B06120B795A8B0612CB
:202140000B79FC8B06120B79A58C06120B79DD8C06120B79E08C06120B79288D06120B79AD
:20216000688D06120B798FC207120B79A7C207120B79EFC207120B7905C307120B794CC318
:2021800007120B7960C407120B79EDC407120B794CC005120B7987C005120B79CCC0051267
:2021A0000B798CC105120B7912C205120B7977C205120B79A3C205120B79DCC205120B7937
:2021C0001AC505120B79FEC605120B79E4C805120B7927CA05120B7975CC05120B7987CD23
:2021E00005120B79D2CE05120B79E2CF05120B79FFCF05120B793AD005120B795CD005126C
:202200000B79BFD005120B7980D505120B7915D605120B7967D605120B7985D605120B79CC
:20222000DFD605120B79DED705120B7962D805120B7990AA07120B799AAA07120B79DDAAEA
:2022400007120B79F8AA07120B7988AB07120B79B0AB07120B79EDAB07120B7924AC0712BC
:202260000B794DAC07120B79C2AC07120B79D7AC07120B79ECAC07120B792DAD07120B796D
:2022800067AD07120B7993AD07120B79C1AD07120B790CAE07120B79B6AE07120B79FFAEA0
:2022A00007120B7929AF07120B7954AF07120B79F9D107120B7919A906120B7967AA06127E
:2022C0000B7947AB06120B7966AB06120B79E3AB06120B7926AC06120B797CAD06120B79E2
:2022E0003DAE06120B79C4B006120B7965B106120B795BB206120B7958B306120B79B2B4DF
:2023000006120B793DB506120B799ED007120B7907D107120B795BD107120B7982D10712DE
:202320000B79B3D107120B7969FB05120B79D6FB05120B791DFC05120B7935FD05120B790C
:2023400031FE05120B7914FF05120B79798907120B79BB8907120B798D8A07120B79668BE0
:2023600007120B79608C07120B79428D07120B79AB8D07120B79618E07120B79D58E0712EE
:202380000B79418F07120B796A8F07120B79E48F07120B797D9007120B79E29007120B79ED
:2023A000F79007120B793D9107120B79569107120B79BB9107120B79BE9107120B792B3DCD
:2023C00000120B79533D00120B79913D00120B794F3E00120B79B63E00120B79D23E00120E
:2023E0000B79FA3E00120B792A3F00120B79393F00120B79B63F00120B7956EA05120B7918
:20240000F4EB05120B790FEE05120B794BEE05120B7978EE05120B795DEF05120B79A4EF5B
:2024200005120B79E8EF05120B7915F005120B7960F005120B79A0F005120B79CEF0051204
:202440000B7920F105120B79B0F105120B794EF405120B7964F605120B79A2F605120B790B
:2024600033F805120B7978F805120B79EFF805120B7939F905120B795AF905120B79FEF957
:2024800005120B79008007120B797F8007120B79418607120B79508707120B79B8880712B7
:2024A0000B794F8907120B79AC2900120B79F52900120B79222A00120B79552A00120B790D
:2024C000622A00120B796E2A00120B79802A00120B79672B00120B79C52B00120B79FA2B99
:2024E00000120B793D2D00120B79942D00120B79012E00120B79BF2E00120B79782F0012EE
:202500000B79E52F00120B79973000120B79A73000120B792E3100120B79ED3100120B791A
:202520001A3200120B79933200120B79F03200120B793A3300120B79D03300120B799B343B
:2025400000120B79503500120B79C53500120B79263600120B79903600120B79C9360012DB
:202560000B796B3700120B797B3800120B79BB3800120B79D83800120B79F73800120B7962
:202580003E3900120B79633900120B79903900120B790A3A00120B794B3A00120B796F3BFE
:2025A00000120B791F3C00120B79763C00120B79E03C00120B79F93C00120B79F0EE0612D9
:2025C0000B7943EF06120B794FEF06120B7924F006120B794BF006120B7986F006120B7936
:2025E000F2F006120B792EF106120B7967F106120B797FF106120B79D4F106120B79EDF163
:2026000006120B7936F206120B7949F206120B7963F206120B7979F206120B79ACF30612D4
:202620000B79F3F406120B79F5F506120B79EFF606120B79FAFF05120B79DD9B06120B79E4
:202640000D9C06120B79D59F06120B792CA106120B79F5A106120B7975A306120B7946A4EC
:2026600006120B7983A406120B79A6A406120B79E4A406120B79EDA406120B7937A50612D0
:202680000B7941A506120B79EBA506120B79C4A606120B7918A706120B797AA706120B79EA
:2026A000CDA706120B79FCA706120B7939A806120B79C9D805120B7930DC05120B7936DC59
:2026C00005120B79B8E105120B7931E605120B7907EA05120B79F0BB07120B7966BC07126A
:2026E0000B797CBC07120B79BDBC07120B79F7BC07120B7970BD07120B79ABBD07120B794C
:202700001EBE07120B795CBE07120B7965BE07120B7971BE07120B798DBE07120B79B8BE9F
:2027200007120B79CEBE07120B7912BF07120B7942BF07120B7955BF07120B796FBF0712CF
:202740000B7998BF07120B79DBBF07120B791AC007120B7958C007120B79BDC007120B7984
:20276000D2C007120B79DDC007120B79EAC007120B7901C107120B790FC107120B791AC102
:2027800007120B7926C107120B7939C107120B7944C107120B7961C107120B7971C10712D5
:2027A0000B7987C107120B79A3C107120B79AEC107120B79C3C107120B79D7C107120B794D
:2027C00038C207120B793EC207120B7944C207120B794AC207120B795CC207120B795A8ED6
:2027E00006120B79E68E06120B79459006120B79669206120B79529306120B798793061275
:202800000B79A99306120B79589406120B79509606120B79799606120B790B9706120B7969
:202820003D9706120B794A9706120B79A19706120B79C79706120B79349A06120B79379BA1
:2028400006120B798F9B06120B793ACE06120B7944CE06120B7966CE06120B7972CE06129C
:202860000B790BD006120B793AD006120B7956D106120B79AFD106120B7923D306120B7946
:2028800090D306120B79CBD306120B790AD406120B79C3D606120B79DDD606120B7969D7C1
:2028A00006120B7977D706120B79D0D706120B79DED706120B7951D806120B79B5D8061294
:2028C0000B79FFD806120B7988D906120B79AAD906120B79D0DB06120B79E5DE06120B793F
:2028E000FDDF06120B79B0E006120B7992E106120B7957CD07120B797CCD07120B79EECDC3
:2029000007120B79E29107120B79EB9107120B79F49107120B79CB9207120B797C940712AC
:202920000B79B29407120B79EC9407120B79229507120B795C9507120B79909507120B796F
:20294000BC9507120B79059607120B793F9607120B79889607120B79E09607120B79159765
:2029600007120B79709707120B79AA9707120B79FB9707120B79319807120B796B98071287
:202980000B798E9807120B79D6FF05120B79E0FF05120B79F0FF05120B793AD807120B79CD
:2029A000DDFF06FFFFFFFFFFFFFFFFFFC082C0839061907404F0A37448F0A3E4F090618099
:2029C0007440F09061BC7407F09061877469F09061B67416F079001224CF79021224D59041
:2029E00029A8E493F46006E493F91224AB79051227B7022D8DC082C083E9540FF99061857A
:202A0000E0696012E5C654804449F5C6E59E547F644970F8E9F053C680E59E547F70FA0295
:202A20002D8D74F7120ED5E5A8FE53A87E1224B7C2BA539AFEC289759B00C2C21224BD75DD
:202A4000A91175B9051224C3D2BA439A0174805E42A8023324C082C083906181E4F0A30221
:202A60002D8A75E90075910075BF00020B76C082C083906181E4F0A374C0F0A3E4022D8CB0
:202A8000C082C08374F8120E7E9004AA123CBD7003022B5F9004AAE0544060237908851A0A
:202AA00082851B83AA82AB831225C5851A82851B83AA82AB831222959004AAE054BFF0E0B3
:202AC00054806010790C7A6B7B061225C59004AAE0547FF0E0A2E0500F79001224CF122277
:202AE0009B9004AAE054FEF0E05402600F79011224CF12229B9004AAE054FDF0E0540460F1
:202B00000F79001224D51222A19004AAE054FBF0E05408600F79011224D51222A19004AAAD
:202B2000E054F7F0E05410600F79021224D51222A19004AAE054EFF0E05420600F790312CA
:202B400024D51222A19004AAE054DFF0A3E05401600D1224E11222A79004ABE054FEF0745A
:202B600008120E94022D8DC082C083E9600514602A804F90619A7433F0A37455F09061A08E
:202B8000743AF0900645E064017009C2919004AC7467802D9004AC7461802690619A743FEA
:202BA000F0A3745AF09061A0747FF0900645E064017009D2919004AC747180059004AC74F6
:202BC0006AF0022D8DC082C083E9600B14600D14601714600C80209029A480159029A5800A
:202BE00010900645E0640170059029A680039029A7E493906186F0022D8D74EE120ED57489
:202C0000F4120E7E851A82851B83AC82AD837583BF7582A27404120D919029A493F46003C1
:202C2000022D24907808E0C394025003022D047404120EC9AC82AD837583BF758276740813
:202C4000120D91FC7EFF7FFF8E0E7D008C82858210800F74086D606D74096D6068740A6DAD
:202C600060638D0A750B007402780A120E6B122D2E120D4EA90BE50CC9F888127418780A0F
:202C8000120C8FE512450AFAE9FBE510C333F8E433F97404120EC9E58228F582E583391256
:202CA0003214C3E89AE99B4008E8C39AF8E99B8006EAC398F8EB99F9C3E89EE99F5006E8AD
:202CC000FEE9FF8D0E0DEDC39413408774FF6E700374FF6F6024850E0A7402780A120E6B6E
:202CE000122D2E120D4E851A82851B83E5822510F582E5831236B3E50AF00CECC3940450BE
:202D000003022C44750A01750B00780A1210E87402120EC9AC82AD837A697B0A121DD97411
:202D200002120E94740C120E947F0A020FA77448250AF5827478350BF583780A22C082C0BC
:202D400083906186E0F89029A7E4936870099029A6E493906186F09061AE7468F0A3746AC0
:202D6000F090624574FBF0A304F053F4FD43FE029006457401F09061A0E0643A7004790073
:202D8000800279011224CF022D8DF0A3F0D083D082020B76C082C08375E1F19005FAE06030
:202DA0004D1460091460511460491470501224ED9005F0E0F97AF17B0512274B90BF9A1208
:202DC0000D6C12278190BFB2120D6C1227579005FBE0F912276379011227AB122EB0241617
:202DE0001236B07405F0A37425F07900809F1224F380BD1224F980B81224FF80B37912806E
:202E0000EB74F4120ED575D90D9005DBE0A2E0E4331313F8122EA6484401F5D97800122F0E
:202E20001340FB7800880A74DC123C137405122F1D40F275E1959005DBE0F97ADC7B051264
:202E40002751900A487481F0A37424122F23122F67122F5E12307B9005FAE064019005EE39
:202E6000700B122EB9120D4E90BF968009122EB9120D4E90BFF2780A120CDA90C00A780A06
:202E8000120D28122EB0240E1236B0780A120D5D122EB024141236B07413F09004A874028A
:202EA000F07F04020FA79005F0E0C4333354C0229005EEE0F8A3E0C822123B4B780A2274AA
:202EC000F6120ED512304C8AD97800122F1340FB78008006122FC4123101E8C39940F5123D
:202EE000303E122F1340FB78008008123C0F7406123101E8C39940F375E195900A48748D75
:202F0000F0A37424122F23122F2D7412F09004A80232E8880A74F1250AF582740512327E0E
:202F20009406221230647487F0A3742422122F67122F5E12307F9005EEE0F8A3E0C8240E07
:202F4000122F5674FF1239889005EEE0F8A3E0C82414122F5622F582E83400F58322F0A33D
:202F6000749FF0A3742422122F6B22122F6F22F0A37431F0A374262274F6120ED5122FB971
:202F8000122EA64402F5D97800122F1340FB78008006122FC4123101E8C39940F575E19585
:202FA000900A48122FCFF0A3122FCF122F307414F09004A874040232EA900600E0F97407D7
:202FC00029F5D922880A7401250AF5827406227499122FDC122FDCF0A3742422F0A37424D0
:202FE000F0A374992274F6120ED512304C74064AF5D97800122F1340FB78008006122FC486
:20300000123101E8C39940F512303E122F1340FB78008008123C0F7406123101E8C3994045
:20302000F375E195900A487493F0A3742412305A122F2D7415F09004A874030232EA9006B4
:2030400020122FBC74044AF5D9780022122FB99005F0E0C4333354C0FA221230647431F035
:20306000A3742622123068221230757431F0A3742612307522122F6FF0A32212307F22F08B
:20308000900A567431F0A374261230687431F0A37426122F6BF022C082C083122EB0240695
:2030A0001236B0E4022D8A74F7120ED59004D6E0F875F003A4C8AAF02AF974D828F8740464
:2030C00039F9E82405FAE9123B5EA3A3A3A3A3A3A3A3A3123C5FA3A3A3A3A3A3A3E024FF3F
:2030E000F8A3E034FFF98A828B83E8F0A3E9F00233247F06020FA7880A744B250AF58274BA
:203100000612368AF5D90822EAFEEBFF9061D0E0F87480C398FAEE24822212312094042258
:20312000F582E93400F583E0F5D90AEAC32274F6120ED5EAFEEBFF9061D0E060030231C2D2
:2031400075D90E75D90375D9047A008A0AEE250A123C18248B1231C740F17A008A0AEE25D4
:203160000A123C18248312311A40F175E1957908EE248BFAEF3400FB1225B97904EE248387
:20318000FAEF3400FB1225B97C008C82AA82C3E49AF895E0F9EE28F8EF39F9E8248AF5828E
:2031A000E9123686C0E0EE2A123C1824AAF582E91236B3D0E0F00CECC3940840CD1231D0FA
:2031C000800279000232EB12312094082275E195EE246FF582EF122F59123CDAEE2471F5A8
:2031E00082EF122F59E8F0A3E9F0790122C082C08375D90275D90375D90575E195EA246FF3
:20320000F582EB123212EA2471F582EB1231E2022D8D3400F583123CDA2274F6120ED5EAF5
:20322000FEEBFF90064B74061232891210E87C0179031226257402120E9475D90675D9034F
:20324000780012326E40FB75E1959004A8E064087017EE246FF582EF123212EE2471F582D8
:20326000EF1236B3E8F0A3E9F079010232EB880A744B250AF582740612327E940522340055
:20328000F583E0F5D908E8C322F0750A4B750B06780A2274F6120ED5EAFEEBFF9061D0E07D
:2032A0007042790190064B740BF09004A8E064077019750A4B750B06780A1210E87C010920
:2032C000091226257402120E947905740129F5D975D903780080031230F7E8C39940F81261
:2032E00031CD8002790080037401F07F02020FA774F7120ED5EAFEEBFF75D90375D903756B
:20330000D90DEE24DD12331575E19579041227871231D0800FF582EF12368AF5D922A2E00A
:2033200092AF79007F01020FA77F03020FA77401250CF5D975D90378002274F5120ED51292
:2033400033BA6004780480027800E8240BF8EAC3984055750C0990064B7409F0790812331F
:20336000AD1225B3850A82850B83E0601E750A4B750B06780A1210E87C097903EEFAEFFB85
:203380001226257402120E94750C0D12332E80031230F7E8C3950C40F775E19579041227C5
:2033A0008712352D790180027900023329EE24E2FCEF3400FD7A4C7B0622123108F8EF1282
:2033C00033C3223400F9880A890B8882F583E02274F3120ED58A0A8B0B123539FAE50A24EB
:2033E00082F50CEB1234906004780480027800E82408F8EAC3985003023489750E0690062D
:203400004B740CF09004C5E090064CF07402C0E0F97CC67D047A4D7B061225B3D0E0F97CBD
:20342000C87D041225B3850C82850D83E0601E750C4B750D06780C1210E87C067903AA0A3F
:20344000AB0B1226257402120E94750E0A7401250EF5D975D90378008009880C744B250C56
:203460001230FDE8C3950E40F175E1957904122787E50A246FF582E50B123212E50A2471A3
:20348000F582E50B1231E2800279007F05020FA73400F50D850C82F583E02274F6120ED547
:2034A000EAFEEBFF123539FCEE2482F8EF1235BC60047A0480027A00EA2404FAECC39A40CD
:2034C000607A0290064BEAF0EE24F4F582EF123543601B750A4B750B06780A1210E87C028A
:2034E0007903EEFA1226257402120E947A0674012AF5D975D903780080031230F7E8C39A2A
:2035000040F875E195EE2473123526EE247F12352612352D7904122787EE240D1231D38032
:203520000279000232EBF582EF1236C222EE241DF582EF1236C2A3F0229061D0E0F874807E
:20354000C3982212368A90064CF088828983E02274F6120ED5123539FEEA2482F8EB12359B
:20356000BC60047C0480027C00EC2404FCEEC39C40457C0290064B7407F0EA24F5F582EB9C
:203580001235436017750A4B750B06780A1210E879031226257402120E947C0674012CF533
:2035A000D975D903780080031230F7E8C39C40F875E1957901800279000232EB3400F988FA
:2035C000828983E02274F5120ED5E9FEA2AFE433F50CC2AF7F00EA246EF8EB3400F98001B0
:2035E0000F88828983E0F50AEFC3950A50188F0AEA250AFCEB3400FDEC246AF582ED12361E
:20360000866E70DC8017EA250AFAEB3400FBEA246AF582EB1236B3EE12354904F0E50CA2CC
:20362000E092AF02332974F6120ED5A2AFE433FFC2AFEA246EF8EB1239F0E014F07E008058
:20364000218E0AEA250AF8EB123C1A246BF582E9123686C0E0E8246AF582E91236B3D0E06F
:20366000F00E8C828D83E0F8EEC39840D4EA246DF582EB1236B374FF1236B7EFA2E092AFFD
:203680000232EBF582EB12368A223400F583E022C082C083E5A8F8C2AFEA246AF582EB12A0
:2036A00036B3E91236B7E8A2E7A2E792AF022D8DF582E8122F5922F0EA2469F582EB123616
:2036C000C2223400F583E4F02274F2120ED58C828D83A3A3A3A3E0541FF0EA24361239E6A7
:2036E0008E828F83E4F0F50E850E8285820CEC250CF8ED1233C3C0E0EA250CF8EB12375E5A
:20370000D0E0F0750F00850A82850B83E0F50C750D00E50F780C120E4CE50CA2E0502AE548
:203720000E33333354F8250FC0E08E828F83E0F8EA28F8EB123C1A2438F582E91236B3D0E4
:20374000E0F08E828F83E004F0050FE50FC3940840B4050EE50EC39405408D0230F23400C1
:20376000F9E8245DF582E9122F592274F6120ED59004D4E06401700302386C7A009004DABE
:20378000E0600302386C7401F0A3E4F0A3F090053A04F090053FF09004DD1239839004E790
:2037A00004F090050DE4F09004F0123984A3F0A3F0A3F0900557F090054BF090054074801E
:2037C000F0A3E4F0900546F09005C21238739005CBF090055AF09005AA123873A3F0A3F052
:2037E0009005B6F09005B8F09005B4F09005CE1238738A0A7442123C1374051236B374FF66
:20380000F00AEAC3940440EA7A008A82A88274E228F5827405123686C0E0743528F58274F7
:20382000051236B3D0E0F00AEAC3940540DC7A008A82A88274BC28F5827404123686C0E017
:2038400074BA28F58274051236B3D0E0F00AEAC3940840DC9004D4E004F06401700890046B
:20386000DCE09004D6F07AD87B0480047A007B000232EB123988A312398822C082C083EAEF
:2038800024031236836008E4F09004D5E014F09004D4E014F070069004D674FFF08A828B87
:2038A00083A3A3E4F09005E7E0700D9004D5E0640170057900122769022D8DC082C0839083
:2038C00004DBE4F09004DAF09004D4F0A3F0A374FFF075E1F1022D8DC082C083780079006D
:2038E0009004DBE0600478D8790488828983A3A3A3A3E0F9022D8D74F6120ED5EAFEEBFFE0
:20390000EE2463F50AEF3400F50B8016AA0AAB0B1225A7121E279005E8E004F09005E9E02C
:2039200004F0850A82850B83123CBD70DFEEFAEFFB122565EEFAEFFB12265B0232EB74F7B8
:20394000120ED5EAFEEBFF8E828F83A3A3A3A3E0FA7B001222E3EEFAEFFB12257712263D91
:2039600002332474F6120ED57800880A74BC123C13740412352908E8C3940840ED9004BC40
:203980000232E8E412398822F0A3F0A3F0A3F02274F6120ED5EA240D1239E6EC2403F8EDC4
:2039A0003400F9880A890BEC2407F8ED1239F0123216850A82850B83E0FAA3E0FB120DF395
:2039C0008E828F83E8F0A3E9123CD1850A82850B83E0FAA3E0FB120DF38B0BEA450B600381
:2039E0001239FC0232EBF8EB3400F9E8FEE9FF223400F9E8FCE9FD8C828D83228E828F8308
:203A0000E02401F0A3E03400F02274F6120ED5EA242E123683FCA3E0FDEA246F1239E678E0
:203A20000079FAECFAEDFB120DF38E828F83E8F0A3E9F0780079FAECFAEDFB120DF38B0B5C
:203A4000EA450B60031239FC0232EB74F0120ED5EAFEEBFF7410120EC9780A120D4E1227A3
:203A60001B8A0E8B0F8C108D1190BFAE780E120CDA90C00A780E120D28780E1210E48E8281
:203A80008F83123B47120D6C121A217404120E94E96003023B378E828F83E02402F8A3E019
:203AA000123C1AFAE9FB8A828B83780A120CED90C00A780A120D4E8A828B83780A120D3BDA
:203AC000EE240BF582EF1236B3C082C0838E828F83A3A3A3A3A3E02401F8A3E03400F9D015
:203AE00083D082E0687003A3E069700479018049EE2407F8EF3400F988828983123A00EE16
:203B00002473123B3E7014EE2474123B567003A3E06D70078A828B83123A00EE247F123BB8
:203B20003E7014EE2480123B567003A3E06D70078A828B83123A0079007F08020FA7F5821F
:203B4000EF12368A640122123B4B22E0F8A3E0F5838882A3A322FAEF123B5EE06C223400E8
:203B6000FB8A828B83E0FCA3E0FD888289832274F3120ED5E9FEECFFEA2462F582EB123B4F
:203B8000416003023C0A9061D0E0F50AEA2482123683F50E60047804800278007480C39515
:203BA0000AFC95E0FDEF28F8E4123C1A2402F8E93400F9EC98ED99A2D265D0334048740D0F
:203BC000120EC9E0F50CA3E0F50DE50E6015780C1210E8EFFCEEF91226257402120E9474D3
:203BE000042FFF74012FF5D98ED97800800C880AE50C123C13E50D123101E8C39F40EF75AE
:203C0000E195790080067907800279FF02348B880A7421250AF58222F8EF3400F9E8227473
:203C2000F7120ED5A2AFE433F50AC2AFEA2402F8EB3400F98A828B83E0FEA3E0FFEE4F6089
:203C40000E88828983E0FAA3E0F5838A8280048A828B83123C5F123C69F0E50A02331EEC3F
:203C6000F0A3EDF08882898322ECF0A3EDF08C828D83E4F0A32274F7120ED5EAFCEBFD7AE1
:203C8000007B00A2AFE433FEC2AF8C828D83123CBD6022E8FAE9FB8A828B83123216123C9F
:203CA000C3E4F0A3123CD1E849700A8C828D83A3A3E4F0A3F0EEA2E092AF023324123CDA03
:203CC000E849228C828D83E8F0A3E9F08A828B8322F08C828D83123CDA22E0F8A3E0F92215
:203CE000C082C0838003123D0EE9F874FF28190470F4ECFAEDFB022D8DC082C083800312BE
:203D00003D0EE9F874FF28190470F4022D8D8C828D83E08A828B83F08C828D83A3AC82ADFB
:203D2000838A828B83A3AA82AB8322C082C08390045B74FFF0A3F0A3E4F090047BF0A3F054
:203D4000FAEA123FEDE4F0A3F00AEAC3940C40F1023EF374F7120ED57E00EEC333F8E4334E
:203D6000F9747D28F8740439F988828983E0FCA3E0FDEC4D700D88828983EAF0A3EBF07980
:203D80000080090EEEC3940C40D079137F01020FA774EC120ED5890EEAFEEBFF8C0F8D1071
:203DA0007414120EC9E0F512A3E0F5137416120EC9E0F50CA3E0F50D1223D38B0BEA450B6F
:203DC00060057911023E4A7AFF7BFF1223D38A0A8B0BEA450B60718A828B83A3A3A3A3E5AF
:203DE00010F075140675150078141210E8AC12AD13EA2405FAEB3400FB121CB37402120EF8
:203E000094850A82850B83A3EEF0A3EFF0850A82850B83A3A3A3E50FF0850A82850B83E5ED
:203E20000EF0E50A2421123FADE4F0A3F0E50A240B123FADE50CF0A3E50DF07900EEFAEF19
:203E4000FB1223F17900800279157F0C020FA774F6120ED51223D38A0A8B0BAE0AAF0BEE84
:203E60004F604E8E828F83A385820A85830B7901E0FAA3E0FB1223F1EE2421F582EF123F7A
:203E8000B1E0FAA3E0FBEA4B6003121D4F7C237D007900EEFAEFFB121CCB850A82850B837F
:203EA00074FFF0A3F08E828F83A3A3A3E4F0F980027902023F25C082C08390045BE06A70A3
:203EC00003A3E06B70067A5A7B0480047A007B008021C082C08390045BE0F47003A3E0F4DC
:203EE000600D90045AE06970067A5A7B0480047A007B00D083D082020B7674F6120ED5E96C
:203F0000FE74FE6A700374FF6B60141223D38A828B83E5824583600BA3A3A3E05E60047942
:203F200001800279007F02020FA7C082C083790090045DE060010980BA74F4120ED5EAFE94
:203F4000EBFF890A8C0B1223D3EA4B700E74FE6E700374FF6F604F7914804DEA2421F582AE
:203F6000EB123FB1E0F8A3E0F9EA2403F582EB123FB1E849700EE0A2E45014E0A2E4401359
:203F8000790F8024E05412641070F0E50B60EC79058015E8241AF582E9123FB1E0C3950AC2
:203FA0005004790C800279007F04020FA7F582E50B3400F5832274F6120ED5EAFEEBFF8903
:203FC0000A750B00E50B123FEDE0F8A3E0F988828983E58245836009A90AEEFAEFFB120E82
:203FE000D3050BE50BC3940C40DA023F25C333F8E433F9747D28F582740439F58322FFFF34
:204000003A84FFFF0500009442424242FFFFFFFFFFFFFFFFFFFFFFFFFFFFFFFFFFFFFFFF57
:20402000000102030405060708090A0BFFFFFFFF0243D4025594FFFFFFFFFFFFFFFFFFFF48
:20404000FFFFFFFFFFFFFFFFFFFFFFFFFFFFFFFFFFFFFFFFFFFFFFFFFFFFFF024FA1FFFF8B
:20406000FFFFFF024EF9FFFFFFFFFF024FC5FFFFFFFFFF024F78FFFFFFFFFFFFFFFFFFFF2F
:20408000FFFFFF02560AFFFFFFFFFFFFFFFFFFFFFFFFFFFFFFFFFFFFFFFFFF024DFCFFFF8D
:2040A000FFFFFFFFFFFFFFFFFFFFFF024E81FFFFFFFFFF02544301027487010000558702C9
:2040C000708701000099871094850300008802026C8703000081020270870100009A87106C
:2040E000648503000000000274870100006187027087010000978710B48502000000000289
:204100006C870300009086026E870100000000027087010000978710848502000096870249
:204120006C870300009086026E87010000968700001F5C135C009001000000D5818A82324F
:2041400082D4830B81DA820080348669832B844986768125830000560000020000000030D3
:20416000FF020202020202020202010D00000010010274870100005B87027087010000EC49
:204180000B0282870100009F03027087010000ED0B0286870100008087027087010000EE75
:2041A0000B0292870100007E87027087010000EF0B029087010000E584027087010000F072
:2041C0000B028E870100007C87027087010000F10B028C87010000D385027087010000F269
:2041E0000B028A87010000AD84027087010000F30B0288870100000D86027087010000F4E4
:204200000B028487010000F50BFF0008010100030201060000000000000000000000000070
:20422000000000000000000000000000000000FFFF0110002000E80311611D61FF0000B4C1
:20424000000028002800283075A000A000A000A00000080008E001F00010001000100010A0
:20426000001000100050005000500010001000D0070000000000000F000100050030750776
:20428000001000010081FF00000000FF31624F623762FF02020208025000A0000000E803C7
:2042A0000274870100005E870270870100001E0D02948701000063060270870100001F0D49
:2042C000026A870100007906027087010000200D0268870100007B06027087010000210DA9
:2042E0000266870800007C06027087010000220D026487010000230DFF0100FF20027487E2
:204300000100005287027087010000870D0252860000000000026C87030000C90685688522
:204320006885688568856885688568856885688568856885688568916BA96B8B6BE5C754E0
:20434000F84405F5C779012200000080FB12433DB900030243BEE479217815B800028004AF
:20436000F709D8FCE479367802B800028004F709D8FCE490028078C379098002F0A3D8FCAE
:20438000D9FA781C9040B67A01BA00028007E493A3F608DAF9900B42AA82AB839040B77851
:2043A0008779038015E493A3AC82AD838A828B83F0A3AA82AB838C828D83D8E9D9E7758250
:2043C0008F7583FF74021243E675824875834374001243E675D00075813F751A80751B0262
:2043E000759F0002434DC09FF59FE473D09F22D083D082C09FE493C0E0740193C0E0740203
:2044000093F59F22E066701008A3E066700A08A3E066700408A3E06622E4936670130874CE
:20442000019366700C08740293667005087403936622C3E7960809E7960809E7960809E72C
:2044400096A2D265D03322C3E09608A3E09608A3E09608A3E096A2D265D03322C00AC3E0C1
:2044600096F50A08A3E096420A08A3E096420A08A3E096420AA2D265D033E50A7001D3D081
:204480000A22C3E7960809E7960809E7960809E79622C3E09608A3E09608A3E09608A3E0DE
:2044A0009622C00AC3E096F50A08A3E096420A08A3E096420A08A3E096450A7001D3D00ADA
:2044C00022C3E4939608740193960874029396087403939622080808EAC0E0EBC0E086F030
:2044E000E7A4FA180986F0E7A42AFA180986F0E7A42AFA180986F0E7A42AFA1986F0E7A44B
:20450000FBE5F02AFA190886F0E7A42BFBE5F03AFA190886F0E7A42BFBE5F03AFA181809CC
:2045200086F0E7A4C5F02BFBE43AFA1908E7C5F0C6A426F6E5F03BFBE43AFA1886F0E7A408
:20454000F6E5F00826F6E43B08F6E43A08F6D0E0FBD0E0FA22E4CFC0E0E4CEC0E0E4CDC0A6
:20456000E0E4CCC0E075F020C3E633F608E633F608E633F608E633F6181818EC33FCED33EC
:20458000FDEE33FEEF33FFC3EC9709ED9709EE9709EF97191919400FFFEC97FC09ED97FD4C
:2045A00009EE97FE191906D5F0BEECF709EDF709EEF709EFF7191919D0E0FCD0E0FDD0E0B3
:2045C000FED0E0FF2212462D18181812455512461C1919192212461C191919080808E618DD
:2045E000181820E7E012455512462D18181822090909E719191920E7DC080808E618181893
:2046000020E70302455512462D18181812455512462D18181812461C19191922E4C397F798
:2046200009E497F709E497F709E497F722E4C396F608E496F608E496F608E496F6226017B3
:20464000080808C6A2E713C618C613C618C613C618C613C6D5E0E9226016080808C6C3130B
:20466000C618C613C618C613C618C613C6D5E0EA227009080808226016181818C6C333C69B
:2046800008C633C608C633C608C633C6D5E0EA22E627F60809E637F60809E637F60809E6C2
:2046A00037F622E026F608A3E036F608A3E036F608A3E036F622E026F008A3E036F008A316
:2046C000E036F008A3E036F022C3E697F60809E697F60809E697F60809E697F622C3E096E4
:2046E000F008A3E096F008A3E096F008A3E096F022E056F608A3E056F608A3E056F608A3F0
:20470000E056F622E056F008A3E056F008A3E056F008A3E056F022E647F60809E647F60831
:2047200009E647F60809E647F622E046F008A3E046F008A3E046F008A3E046F022E066F046
:2047400008A3E066F008A3E066F008A3E066F022E0F608A3E0F608A3E0F608A3E0F622E633
:20476000F008A3E6F008A3E6F008A3E6F022E0FAA3E0FBA3E0FCA3E0FD22EAF0A3EBF0A330
:20478000ECF0A3EDF022CAC0E0E6F0A308DAFAD0E0FA22CAC0E0E0A3C582CCC582C583CDB4
:2047A000C583F0A3C582CCC582C583CDC583DAE6D0E0CA22C3E498F8E499F91247F580266A
:2047C000C3E49AFAE49BFBE920E7E91247F5E498F8E499F922C3E498F8E499F91247F5E412
:2047E00098F8E499F9C3E49AFAE49BFB22EB20E7CFE920E7E0B90010BB0008E88AF084F8E1
:20480000AAF022E4FBC8FA22EB70227B10C833C8C933C9335007C39AC3DBF280069A5001A1
:204820002ADBEAC833F4C8C933F4C9FA2275F008E4C833C8C933C933C99AC99B5004C92AE3
:20484000C93BD5F0ECFBC833F4C8E4C9FA22600D08C6A2E713C618C613C6D5E0F322600C9E
:2048600008C6C313C618C613C6D5E0F422700422600D18C6C333C608C633C6D5E0F4182205
:20488000251A10AF08F51A4002151B8008F51A4002151BD2AF22C0D0251A10AF08F51A50F0
:2048A00002051B8008F51A5002051BD2AFD0D022251AF58210AF08F51A4002151B8008F50F
:2048C0001A4002151BD2AF851B8322251AF582E4351BF58322E473251AC582C0E0E51B3451
:2048E000FFC583C0E0E51AC3958224F810AF0885831B85821A800885831B85821AD2AFCEB6
:20490000F0A3E520F0A3780AE608F0A3DEFAEFF0A3E58124FAF8E608F0A3E608F0A3E608A3
:20492000F0A30808E608F0A3E608F0A315811581D0E0FED0E0F8158115811581E8C0E0EE18
:20494000C0E022251AC582C0E0E51B34FFC583C0E0E51AC3958224F910AF0885831B85826D
:204960001A800885831B85821AD2AFCEF0A3E520F0A3780AE608F0A3DEFAEFF0A3E58124F0
:20498000FBF8E608F0A3E608F0A30808E608F0A3E608F0A315811581D0E0FED0E0F81581F8
:2049A0001581E8C0E0EEC0E022851B83851A82E0A3FEE0A3F520780AE0A3F608DFFAE0A36D
:2049C000FFE0A3C0E0E0A3C0E0E0A3C0E0E0A3C0E0E0A3C0E010AF0885821A85831B800896
:2049E00085821A85831BD2AFD083D0820243EC851B83851A82E0A3FEE0A3F520780AE0A3BA
:204A0000F608DFFAE0A3FFE0A3C0E0E0A3C0E0E0A3C0E0E0A3C0E010AF0885821A85831BA6
:204A2000800885821A85831BD2AFD083D08222C0D0251AC582C0E0E51B34FFC583C0E0E5AC
:204A40001AC3958224F310AF0885831B85821A800885831B85821AD2AFC8F0A3E9F0A3EA32
:204A6000F0A3EBF0A3790AE709F0A3D8FAECF0A3EDF0A3EEF0A3EFF0A3D0E0F0A3D0E0F068
:204A8000A3D0E0F0A3E520F0A3E5F0F0A322851B83851A82E0C0E0A3E0F9A3E0FAA3E0FBD3
:204AA000A3780AE0F608A3DFFAE0FCA3E0FDA3E0FEA3E0FFA3E0C0E0A3E0C0E0A3E0F5D08A
:204AC000A3E0F520A3E0A3F5F010AF0885831B85821A800885831B85821AD2AFD082D08336
:204AE000D0E0F8D0E03274048006740280027401C0E0F4041248B0D0E01247862274048076
:204B00000474028000CCC0E0EDC0E0E51AC39CCCAD1B50011D10AF068C1A8D1B80068C1A03
:204B20008D1BD2AF124793D0E0FDD0E0FC22D083D082C5F0E493A3C5F0C395F0F5F0E49318
:204B4000A3C395F04005E5F0048001E475F002A42582F582E5F03583F583E493A3C0E0E41B
:204B600093C0E022D083D082E9C0E0E493A3C386F0C5F095F0F908E493A386F0C5F095F05A
:204B8000700BE493A3C3994005E9048002A3E475F002A42582F582E5F03583F583D0E0F912
:204BA000E493A3C0E0E493C0E022D083D082E9C0E0E493A3C386F0C5F095F0F908E493A32C
:204BC00086F0C5F095F0702408E493A386F0C5F095F0701908E493A386F0C5F095F0700EE6
:204BE00008E493A3C3994007E9048004A3A3A3E475F002A42582F582E5F03583F583D0E0D4
:204C0000F9E493A3C0E0E493C0E022D083D082CCC0E0E493A36006124C351470FAE493A3EC
:204C20006006124C541470FAD0E0FCE493A3C0E0E493C0E022C0E0E493A3D39C5010E4933F
:204C4000A3C39C400AD0E0D0E0D0E0024C28A3A3A3D0E022C0E0E493A36C7009D0E0D0E0C8
:204C6000D0E0024C28A3A3D0E022D083D082ECC0E0EDC0E0E493A3FCE493A3FDED4C600D65
:204C8000124CB6EC24FFFCED34FFFD80EFE493A3FCE493A3FDED4C600D124CF5EC24FFFC38
:204CA000ED34FFFD80EFD0E0FDD0E0FCE493A3C0E0E493C0E022C0E0C3E49396087401939C
:204CC0009618400FE49366700808740193661870007019A3A3C3E49396087401939618A384
:204CE000A3400DD0E0D0E0D0E0024CA6A3A3A3A3A3A3D0E022C0E0C0F088F0E493667008FF
:204D00000874019366187000A8F0A3A3700BD0F0D0E0D0E0D0E0024CA6A3A3D0F0D0E022A0
:204D2000D083D082ECC0E0EDC0E0EEC0E0EFC0E0E493A3FCE493A3FDE493A3FEE493A3FF3A
:204D4000EF4E4D4C6015124D9CEC24FFFCED34FFFDEE34FFFEEF34FFFF80E5E493A3FCE446
:204D600093A3FDE493A3FEE493A3FFEF4E4D4C6015124DD9EC24FFFCED34FFFDEE34FFFE05
:204D8000EF34FFFF80E5D0E0FFD0E0FED0E0FDD0E0FCE493A3C0E0E493C0E022C0E0C0F094
:204DA00088F01244C1A8F04007124419A8F0701AA3A3A3A31244C1A8F0A3A3A3A34013D00A
:204DC000F0D0E0D0E0D0E0024D86A3A3A3A3A3A3A3A3A3A3D0F0D0E022C0E0C0F088F01234
:204DE0004419A8F0A3A3A3A3700BD0F0D0E0D0E0D0E0024D86A3A3D0F0D0E022C0E074F036
:204E0000124A2FA2AFE433FFD2AFE589F8E5AB58F50C6063F4F589C2C59003D27401F075D5
:204E20001C00FA9003CFE0F9125E117E008E0A750B007402780A12486D124EF4C3E89408B0
:204E4000E99400502BE85407F87401B800028004C333D8FC550C6018750A00750B01EE7863
:204E60000A12486DAA0AAB0B900280E0F9125DA50EEEC3940440B6EFA2E092AF7F03024A2B
:204E80008EC0E074F0124A2FA2AFE433FFD2AFE58AF8E58D58F50C6059F4F58AC2EB7E0084
:204EA0008E0A750B007402780A12486D124EF4E82400FAE934FFFBC3EA9408EB9400502B67
:204EC000E85407F87401B800028004C333D8FC550C6018750A00750B01EE780A12486DAA60
:204EE0000AAB0B900280E0F9125DA50EEEC3940440AE8083124F61F922C0E074F0124A2F3F
:204F0000A2AFE433FFD2AFE58BF8E5AC58F50C604DF4F58BC2E87E008E0A750B0074027808
:204F20000A12486D124F61C39402402BE85407F87401B800028004C333D8FC550C60187514
:204F40000A00750B01EE780A12486DAA0AAB0B900280E0F9125DA50EEEC3940440BA024E85
:204F600077745C250AF5827405350BF583E0F8A3E022C2AF02000022C0E074F2124A2FA2CE
:204F8000AFE433FED2AFC2C0E5D1A2E4500653D1EF125F19751C00EEA2E092AF7F01024A0D
:204FA0008EC0E0C0D0E8C0E0E9C0E0E5A8D2AFC2C7751C00A2E7A2E792AFD0E0F9D0E0F856
:204FC000D0D0D0E032C0E0C0D0E8C0E0E9C0E0C00AC00BC082C083A2AFE433F9D2AF90057D
:204FE00056E0F8A3E0687008539AFBA374018026C2E9900556E0F50A7401250AF074D62502
:205000000AF58274043400F583E0F5C1900556E0C394804002E4F0E9A2E092AFD083D0824C
:20502000D00BD00AD0E0F9D0E0F8D0D0D0E03274F5124943EAFEEBFFEE2434F8EF3400F9B5
:20504000880A890BEE243512515BF8EE243712515BF50CEC850CF0A4FCAAF0850CF0EDA46C
:205060002AFDE82CF8E43DF97A257B001247F5EA850A82850B83F074075AF87401B8000281
:205080008004C333D8FCFBEA131313541FF8EE28F8EF3400F9E8245DF582E912515E5B60CA
:2050A00003EA801CEE243612515BF5F0EA84A8F0EE28F8EF3400F9E82438F582E912515EE7
:2050C000F97F040249EF74F5124943EAFEEBFFEE243412515BC0E0EE2435F582EF3400F5C7
:2050E00083D0E0F08E828F83A3A3A3A3A3E0FAA3E0FB8E828F83A3A3A3A3A3A3A3E0FCA3CE
:20510000E0FDECC39AF50CED9BF50DEE247FF50AEF3400F50B850A82F583E06401702BEED4
:205120002480F582EF3400F583124B011251647402124896E960137C8C7D08EEFAEFFB1261
:2051400067AD850A82850B83E4F0AC0CAD0DEEFAEFFB12502F125BF90250C1F582EF34005B
:20516000F583E022C082C083851A82851B83E0F8A3E0F9C3EA9CEB9D5010C3EC98ED99405A
:205180001BC3EA98EB995014800EC3EA98EB994007C3EC98ED994004790180027900D08350
:2051A000D08222EAC39CFAEB9DFB2274ED124943900752E064086005E06407702C9061C85A
:2051C000E06026900780E0F874FF68601CE875F003A4C8AAF02AF9748228FE740739FF8E4D
:2051E000828F83A3A3A3E07005790002534BEE2468F512EF3400F513906060E0851282854A
:205200001383F0750C0C750D09750A00750B00E5D914F510E5D95403F511601CEE2482F5FA
:205220000EEF3400F50F740365116058E5106013EE246712515B700B793DEEFAEFFB126779
:20524000D180A6900907E064016026850E82850F83E0600478048002780085100AE50AC3B5
:2052600098FA95E0FB12662D8A0A8B0BEA450B7006126A7D0251E9850E82850F83E07004F8
:205280008A0C8B0D78008016E5D9C0E08814E50C2514F582E50D3400F583D0E0F008E8C346
:2052A000951040E4850E82850F83E0602874FC2510F510780C124AEAAC10A911EEFAEFFBD5
:2052C00012687F7402124896E9700AAA0AAB0B125FA302523874036511605885100E750F36
:2052E00000780E124AEAAC0CAD0DAA0AAB0B1268437402124896851282851383E0F87480E3
:20530000687005750E7F8002880EE50EF50C780C124AEEE511F50C780C124AEEA910AC0AA0
:20532000AD0B900780E0FA7B001264CB74021248968013900752E06408600BAC0CAD0DEE0F
:20534000FAEFFB126939126A8979017F0C0249EF74F312494374FC124880EAFEEBFF890ABD
:20536000A2AFE433F50BC2AFEE2463F50CEF3400F50D8010AA0CAB0D1267FB125FA390089B
:2053800093E004F0850C82850D83E0F8A3E0F9E849602FE82402FAE93400FBEA2402F50E37
:2053A000EB3400F50F780E124AEA8A828B83E0FCA3E0F9EEFAEFFB1267EF7402124896E903
:2053C00060B2900893E06057900894E0F8900893E0C398500C7402650A7044900895E0602D
:2053E0003E8E828F83A3A3A3A3E0851A82851B8312542F74021248CBE812542F900892E0E6
:2054000028F074021248CBAC82AD83851A82851B83AA82AB8379011264D1900893E4F0E538
:205420000BA2E092AF74041248967F060249EFF0A3E4F0900893E0F822FFFFFF852E87852F
:205440002FC622C0E074EF124A2FA2AFE433FEC2AF759B00906182E0A2E05012E591A2E091
:20546000500C7591FE7401652E70031251ABE0A2E55051E591A2E5504B7591DF900752E0F5
:2054800064076005E0640870237401652E70357901900780E0FA75F003A4CAA8F028FB7440
:2054A000822AFA74073BFB1253508018E0640D7013900774E004F064287002E4F07A00E069
:2054C000F9126A8F906182E0A2E6400302556AE591A2E6400302556A7591BF900752E064F5
:2054E00005700812697B1269878003126981752E00126A05E9900753F079001269E712677D
:205500000B7A017B00900751E0F9125DA5907803E06442705590090BE014F0704DC2AF1297
:205520005522007837D0E0F618D0E0F6E59F54077005750BFF8003750B7FC4C0E07836E694
:20554000F50A08E6550BF50B740B780A12485ED0E0250AF8906270E0A2E740F8E8C33390FD
:205560006272F0906270E0D2E0F0906181E0A2E35009E5E9A2E3500375E9F7A3E0A2E750FC
:2055800009E591A2E7500375917FEEA2E092AF7F04024A8EC0E0C0D0C082C083906183E014
:2055A000A2E05009E5BFA2E0500375BFFEE0A2E15009E5BFA2E1500375BFFDE0A2E2500941
:2055C000E5BFA2E2500375BFFBE0A2E35009E5BFA2E3500375BFF7E0A2E45009E5BFA2E4D3
:2055E000500375BFEFE0A2E55009E5BFA2E5500375BFDFE0A2E65009E5BFA2E6500375BF70
:20560000BFD083D082D0D0D0E032C0E074F2124A2FE5A7A2E4500FE5A1A2E4500953A7EF54
:2056200075A1EF12565EE5A7A2E5500CE5A1A2E5500653A7DF75A1DFE5A7A2E15009E5A111
:20564000A2E1500375A1FDE5A7A2E2500CE5A1A2E2500653A7FB75A1FB7F01024A8E74F8C9
:20566000124943752E01900752E0640670077A007B00126963A2AFE433FED2AF900758E0B5
:20568000640170187A207B00900751E0F9125E417A207B00900751E0F9125DAB906182E053
:2056A000D2E6F0900908E0602185C62F8016900757E064017008E5C654F84405F5C653BE79
:2056C000FC12543C7401652E60E4EEA2E092AF7F010249EF8E308F31858235858334851AE0
:2056E00082851B83E0CEA3E0CF853582853483EBC9EAC8EDCBECCA75F010C3E833C8E93382
:20570000C9EA33CAEB33CBC3EA9EF533EB9FF532B35004AB32AA33EC33CCED33CDD5F0DA94
:20572000AE30AF312274E912494374FA124880EAFEEBFF8C0A8D0B900752E024F7C3940506
:2057400050067512010258501268D98A0C8B0DEA450D700302584D1269998A0E8B0F126929
:2057600099EA650E7003EB650F60ECEEFCEFFD851A82851B83AA82AB8312699F850C8285EF
:205780000D83A3A3780E124750908706780E1246F1851A82851B8378161247509087067808
:2057A000161246F1780E7916124482501F780E79161246C99086BE780E1244A24047850E8C
:2057C00012850F1385101485111580459086BE8516128517138518148519157812790E1240
:2057E00046C978121244A2501C751200751300751400751501781279161246C97812790E3E
:20580000124690800C751201751300751400751500740978121246719086B2780E1247502A
:205820007812790E124555900752E06408600AE064066005E0640570209086BA78121244D4
:20584000A250169086B678121246A3800C751200751300751400751500850A82850B8378A5
:205860001212475F74061248967F100249EF74F71249431269B1900906E0640170109062A0
:2058800045E4F0A3F053F4F343FE0C5390F3126951E5C654804449F5C6E59E547F644970F9
:2058A000F8906185740FF0900904E0F47002A3E0602C750A01750B00900904E0780A1248BC
:2058C0006DE50AF4FAA3E0600814600A14600C800DEA52808008EA52908003EA52A0790020
:2058E0007F020249EF74F7124943E9FEEAFF74016E700C7A807B00900751E0F9125DA590DB
:205900006C68E493F46008E493F91266ED800953C680E59E547F70FA126957900906E06474
:20592000017003126723900904E0F47002A3E0602A750A01750B00900904E0780A12486DA1
:20594000AA0AA3E0600814600A14600C800DEA42808008EA42908003EA42A01268D98A0AF7
:205960008B0BA80AA90BE8496017E5E170FCE82414F582E93400F583E0F874FF6860028888
:20598000E174016F700A7A01900751E0F9125E110258E074F11249438A0A8B0B8C0C8D0D72
:2059A000908706780A1246F1740F1248CB780E124750908706780E1246F1780A790E1244DD
:2059C000829086BE5010780A790E1246C9780A1244A24014800E780E790A1246C9780E12C9
:2059E00044A250047901800279007F080249EF74ED1249438A0A8B0B8C0C8D0D9087067847
:205A00000A1246F174131248CB780E124750908706780E1246F1780E790A124482401178C2
:205A20000A790E1246C9AA0AAB0BAC0CAD0D80227512007513007514007515017812790E02
:205A40001246C97812790A124690AA12AB13AC14AD157F0C0249EF908706780A1247508A9D
:205A6000828B83780A1247047F040249EF74F51249438C828D83780A1247508A828B837818
:205A80000A1246DD125AC1C3E098F0A3E099125AB3401E9086CA780A1247508A828B837839
:205AA0000A1246B68E828F83E02420F0A3E0344EF080A4F08E828F83C3E09420A3E0944EB1
:205AC00022EA2404F8EB3400F9E8FEE9FF8C828D83A3A3A3A3E0F8A3E0F98E828F832274FE
:205AE000F5124943E9FE9008A7E0FAA3E0FBEEC333F8E433F9747428F582748539F583E098
:205B00002AF50AA3E03BF50B780A124AEA90872612476E1256D474021248968A0A8B0B8C7A
:205B20000C8D0D7410780A124658AA0AAB0B7F040249EF74F11249438A0E8B0F8C108D1173
:205B4000740F1248CBE0FAA3E0FB74111248CBE0F50AA3E0F50B780A124AEAEA2401F50A63
:205B6000EB3400F50BE4F50CF50D780E790A1244D59086AE780A124750780E790A1244D5C8
:205B8000AA0EAB0FAC10AD111256D474021248968B0BEA450B60047A0180027A00EC2AFCBA
:205BA000ED3400FD74131248CBE0F8A3E0F9E8FEE9FFECF8EDF97A717B021247F5880A895E
:205BC0000BE4F50CF50D8E828F83780A12475FECF8EDF97A717B021247F58A0A8B0B740554
:205BE000780A12486D8E828F83A3A3A3A3E50AF0A3E50BF07F080249EFC082C083E990602D
:205C000000F0D083D082221243EF8CEB031243EF24EC031243EFF6ED031243EF52EE0312F5
:205C200043EFA8EE031243EFBAEE031243EF4EEF031243EFD9EF031243EF34E2021243EF77
:205C400020E3021243EFDCE3021243EF59E5021243EF00E6021243EF84E6021243EF17E897
:205C6000021243EFE3E8021243EFFBE8021243EF84E9021243EF16EA021243EFF5EA0212B8
:205C800043EF2BEB021243EF77ED021243EF0080011243EF2080011243EFF781011243EF65
:205CA000B282011243EF1483011243EF5A83011243EF8383011243EFD684011243EF5885A6
:205CC000011243EF7A86011243EFF486011243EFCE87011243EF6388011243EF8A8A01128A
:205CE00043EFBC91011243EF0792011243EF3792011243EF8D92011243EFBB92011243EFFE
:205D00003AB8011243EF9FB8011243EF2DB9011243EFEDBC011243EF97C2011243EFC7C270
:205D2000011243EFE1C9011243EFD6CA011243EF45CB011243EF5BCC011243EFBBCD0112EE
:205D400043EFFFCD011243EF8FCF011243EFDFE0031243EFE9E0031243EF27E1031243EFF8
:205D600070E1031243EFAAE1031243EF04E2031243EF25E2031243EF2EE2031243EF7BE28A
:205D8000031243EFA4E2031243EFAEE2031243EF1AE3031243EFACE3031243EFF6E3031210
:205DA00043EF2CE4031243EFB8E4031243EFF9E4031243EF30E5031243EF42E5031243EF89
:205DC00061E5031243EF6AE5031243EF37E6031243EF89A8041243EFAEFE031243EFA5FF2C
:205DE000031243EFBFFF031243EFD0FF031243EFCD9C041243EF039D041243EF399D0412BC
:205E000043EF849E041243EFF1A7041243EF07A8041243EF11A8041243EF5BA8041243EFC3
:205E200021FA031243EF36FA031243EFE6FA031243EF26FB031243EF3FFB031243EF7AFB04
:205E4000031243EFC7FB031243EFF9FB031243EF3BFC031243EF3CFE031243EFE0A804121A
:205E600043EFF2A8041243EF5F95041243EF8495041243EFAE95041243EF72FF011243EF30
:205E8000E9FF011243EF37A7041243EF47A7041243EF53A7041243EFE4A7041243EF33A68B
:205EA000041243EFB8A6041243EF1EA7041243EFF87F001243EF2298041243EFDE9904129D
:205EC00043EF3F9A041243EF859A041243EF6D84041243EF0885041243EF8C85041243EFA1
:205EE0002586041243EFE786041243EF5C87041243EF8487041243EF8D87041243EFFD879C
:205F0000041243EF1088041243EF2688041243EF2F88041243EF4288041243EF8388041231
:205F200043EF46DB031243EF12DC031243EF3CDC031243EF53DC031243EF5DDC031243EF3D
:205F4000A9DC031243EFACDC031243EFDDDC031243EF5ADD031243EFB0DD031243EF03DE73
:205F6000031243EF45DE031243EF6EDE031243EFAEDE031243EFCBDE031243EFE8DE03123F
:205F800043EF11DF031243EF42E0031243EF56E0031243EF91E0031243EFC4E0031243EF0F
:205FA0001DA2041243EF6FA2041243EFF9A2041243EF60A3041243EF889A041243EFB29A9D
:205FC000041243EF809B041243EF5B9C041243EF1DB6021243EFC1B9021243EF31BC0212FD
:205FE00043EF8BBC021243EFAABC021243EF07BD021243EF73BE021243EF5FBF021243EF51
:2060000018C4021243EFE6C4021243EF8DC5021243EFCBC5021243EFBE9E041243EFD59EE9
:20602000041243EF069F041243EF419F041243EF6B9F041243EF959F041243EFAC9F0412D4
:2060400043EFC39F041243EFDA9F041243EF03A0041243EF16A0041243EF2CA0041243EFA6
:206060003FA0041243EF66A0041243EFA596031243EFA997031243EFE197031243EF049847
:20608000031243EF0F98031243EF3298031243EF4199031243EF169A031243EF919A031262
:2060A00043EF199B031243EF549B031243EF8B9B031243EF199C031243EFF29C031243EF3F
:2060C000529D031243EF5D9D031243EFDC9D031243EFDF9D031243EFE29D031243EF719EF1
:2060E000031243EF749E031243EFA49E031243EFCE9E031243EFBC9F031243EF6EA00312FF
:2061000043EFA9AA031243EFA1AB031243EFD5AB031243EF57AC031243EF9FAC031243EF7D
:2061200003AD031243EF90AD031243EF4AAE031243EF59B1031243EFE4B2031243EF07B3BD
:20614000031243EF64F5031243EF8CF5031243EFBAF5031243EFF1F5031243EF4FF6031213
:2061600043EF9AF6031243EFE5F6031243EF25F7031243EF6BF7031243EF99F7031243EF11
:2061800056F8031243EF60F8031243EF6DF8031243EFA0F8031243EF6CF9031243EF78F923
:2061A000031243EF90F9031243EF9AF9031243EF0F7F001243EF277F001243EF3F7F001262
:2061C00043EF31EE021243EF0DEF021243EF71F0021243EFC8F0021243EF49F1021243EFC1
:2061E00039F2021243EF86F2021243EF0CF3021243EF3EF3021243EF52F5021243EF94F59E
:20620000021243EFB2F5021243EF35F6021243EF09F7021243EFD1F7021243EF60CD031244
:2062200043EF33CE031243EFDCCE031243EF2FCF031243EFDFCF031243EF6BD0031243EF37
:2062400057D1031243EF86D1031243EF99D2031243EFE1D2031243EFB6D3031243EFF2D3F0
:20626000031243EF0ED4031243EF2C8C041243EF528C041243EF6E8D041243EF788D04122A
:2062800043EFAD8E041243EFA58F041243EFAF8F041243EF65E6031243EF95E7031243EFF2
:2062A000C8E7031243EF12E8031243EFD9E9031243EF48A6021243EFB2A6021243EF11A813
:2062C000021243EF9BA8021243EFABA8021243EFD8A8021243EF34A9021243EF3BAA021274
:2062E00043EF05AB021243EF65AC021243EFA8AC021243EF4DAD021243EF9AAD021243EFB8
:20630000C0AD021243EFCEAF021243EFD3AF021243EFD8B1021243EF25B2021243EF98B209
:20632000021243EFCBB2021243EF6DB3021243EF16B4021243EF4EB4021243EF51B402127D
:2063400043EF99B4021243EFD9B4021243EF30B5021243EF8C92041243EFA492041243EF96
:20636000EC92041243EF0293041243EF4993041243EF5D94041243EFEA94041243EF35958D
:20638000041243EF2AD0011243EF65D0011243EFAAD0011243EF6AD1011243EFF9D10112E0
:2063A00043EF7FD2011243EFE4D2011243EF10D3011243EF49D3011243EF87D5011243EFF0
:2063C0006BD7011243EF51D9011243EF94DA011243EFE2DC011243EFF4DD011243EF3FDFDD
:2063E000011243EF4FE0011243EF6CE0011243EFA7E0011243EFC9E0011243EF2CE1011279
:2064000043EFEDE5011243EF82E6011243EFD4E6011243EFF2E6011243EF4CE7011243EFF2
:2064200035E8011243EFABE9011243EF2FEA011243EFEAF9021243EFF4F9021243EF37FA36
:20644000021243EF52FA021243EFE2FA021243EF0AFB021243EF47FB021243EF7EFB0212E2
:2064600043EFA7FB021243EF1CFC021243EF31FC021243EF46FC021243EF68FC021243EFFF
:20648000B1FC021243EFD6FC021243EF10FD021243EF3CFD021243EF6AFD021243EFB5FDC0
:2064A000021243EF25FE021243EF93FE021243EF9EFE021243EFC9FE021243EF12FF021242
:2064C00043EF3CFF021243EF67FF021243EF1AA5041243EFDFC5021243EF2DC7021243EF32
:2064E0000DC8021243EF2CC8021243EFA9C8021243EFECC8021243EF42CA021243EFF2CA88
:20650000021243EF2BCD021243EFB2CF021243EF53D0021243EF49D1021243EF46D202123B
:2065200043EFA0D3021243EF2BD4021243EFBFA3041243EF28A4041243EF7CA4041243EF05
:20654000A3A4041243EFD4A4041243EF0080041243EF6D80041243EFB480041243EFCC8126
:20656000041243EFC882041243EFAB83041243EFABBD031243EFEDBD031243EFBFBE031299
:2065800043EF98BF031243EF92C0031243EF74C1031243EFDDC1031243EF93C2031243EF95
:2065A00007C3031243EF73C3031243EF9CC3031243EF16C4031243EFAFC4031243EF14C5F3
:2065C000031243EF29C5031243EF6FC5031243EF88C5031243EFEDC5031243EFF0C503126D
:2065E00043EFB98F041243EFE18F041243EF1F90041243EFDD90041243EF4491041243EF58
:206600006091041243EF8891041243EFB891041243EFC791041243EF4492041243EF008011
:20662000021243EFD181021243EFE283021243EF1E84021243EF4B84021243EF3485021207
:2066400043EF7B85021243EFBC85021243EFE985021243EF3486021243EF7B86021243EF40
:20666000A986021243EFFB86021243EF8B87021243EF288A021243EF438C021243EF818C6C
:20668000021243EFF68D021243EF3B8E021243EF1F8F021243EF2691021243EF9D910212A9
:2066A00043EFE791021243EF0892021243EFAA92021243EF9493021243EF3094021243EF11
:2066C0009994021243EF32B4031243EFB1B4031243EF73BA031243EF82BB031243EFEABCD0
:2066E000031243EF81BD031243EF96EA011243EFDFEA011243EF0CEB011243EF3FEB011282
:2067000043EF4CEB011243EF58EB011243EF6AEB011243EF51EC011243EFAFEC011243EF47
:20672000E4EC011243EF27EE011243EF74EE011243EFE0EE011243EF89EF011243EF37F04C
:20674000011243EF95F0011243EF05F1011243EF65F1011243EFD0F2011243EFDDF201126B
:2067600043EF28F3011243EF85F3011243EF44F4011243EF71F4011243EFE9F4011243EF81
:2067800045F5011243EF8FF5011243EF25F6011243EFF0F6011243EFA5F7011243EF1AF833
:2067A000011243EF75F8011243EFE5F8011243EF10F9011243EFB2F9011243EFC2FA0112B3
:2067C00043EF02FB011243EF1FFB011243EF3EFB011243EF85FB011243EFAAFB011243EFB9
:2067E000E0FB011243EF5AFC011243EF9BFC011243EFBFFD011243EF66FE011243EFBDFE9D
:20680000011243EF27FF011243EF40FF011243EFDFA0031243EF32A1031243EF3EA1031270
:2068200043EF13A2031243EF3AA2031243EF75A2031243EFE1A2031243EF1DA3031243EFD8
:2068400056A3031243EF6EA3031243EFC3A3031243EFDCA3031243EF25A4031243EF38A441
:20686000031243EF52A4031243EF68A4031243EF9BA5031243EFE2A6031243EFE4A703124B
:2068800043EFDEA8031243EFFCFF011243EF9BF0031243EF31F1031243EFE8F1031243EF5E
:2068A00012F2031243EF05F4031243EF2DF5031243EF6C6C001243EFA06C001243EF8A7579
:2068C000001243EFDE76001243EFD777001243EF5779001243EF397A001243EF737A001240
:2068E00043EF967A001243EFD87A001243EFE17A001243EF2B7B001243EF357B001243EFFF
:20690000DF7B001243EFB87C001243EF0C7D001243EF6E7D001243EFC17D001243EFF07D76
