:020000040000FA
:0600000002011D02257B38
:03002B00021E3E74
:03003300021DBFEC
:030053000225EE95
:03006B00021CD4A0
:03007B00021D471C
:100083000223E7E5C754F84401F5C77901220000CC
:100093000080FB120086B90003020107E47921788E
:1000A30011B800028004F709D8FCE479327802B869
:1000B30000028004F709D8FCE490028178CD790727
:1000C3008002F0A3D8FCD9FA781A90014D7A01BACC
:1000D30000028007E493A3F608DAF990094DAA8297
:1000E300AB8390014E783D79038015E493A3AC82F2
:1000F300AD838A828B83F0A3AA82AB838C828D83A8
:10010300D8E9D9E77582167583F7740312012F7541
:100113008291758300740012012F75D00075813FA1
:10012300751881751902759F00020096C09FF59F8F
:10013300E473D09F22D083D082C09FE493C0E07445
:100143000193C0E0740293F59F220102928601009D
:10015300005F86027886010000988610D084030031
:10016300008C02027486030000820202788601007A
:1001730000978610F08403000000000000A203969D
:10018300038480F2818682128352813D8200808FB4
:10019300855583B583A485FE80CD8200005600007B
:1001A300020000000030FF02020202020202020209
:1001B300010D000000100102928601000062860218
:1001C3007886010000A909028E860100003403022B
:1001D3007886010000AA09028C860100008285024C
:1001E3007886010000AB09028A8601000059850266
:1001F3007886010000AC090288860100008E840223
:100203007886010000AD090286860100006A840237
:100213007886010000AE090284860100005884023A
:100223007886010000AF090282860100007C840207
:100233007886010000B0090280860100003D850236
:100243007886010000B109029486010000B209FF1B
:10025300000000FF00080101000302010600000086
:10026300000000000000000000000000000000008B
:10027300000000000000000000FFFF015000200309
:10028300E8031C082808FF0000B400002800280029
:10029300283075A000A000A000A00000080008E01E
:1002A30001F00010001000100010001000100050AA
:1002B300005000500010001000D0070000000000A4
:1002C300000F0001000500307507001000010081D8
:1002D300FF00000000FF480966094E09FF02020201
:1002E30008025000A0000000E8030292860100000B
:1002F300BD85027886010000DF0A027286010000D4
:100303006E04027886010000E00A02708601000094
:100313008404027886010000E10A026E860100006F
:100323008604027886010000E20A026C8608000057
:100333008704027886010000E30A026A860100004E
:10034300E40AFF0100FF200292860100005C86029E
:100353007886010000480B02688600000000000256
:100363007486030000D404360F360F360F360F366B
:100373000F360F360F360F360F360F360F360F3652
:100383000FF4110C12EE111201383CCF0312013895
:10039300CCCF031201384CD103120138A5D103127B
:1003A3000138E9D103120138FBD103120138B6D267
:1003B3000312013861D303120138B42C001201383F
:1003C300D02C00120138AE2E00120138692F001212
:1003D3000138CD2F001201381330001201383C30A0
:1003E30000120138783000120138D431001201387C
:1003F300563200120138433300120138CD33001254
:100403000138C83400120138EF3600120138203D9C
:1004130000120138613D00120138823D001201389B
:10042300E53D00120138133E00120138BF5B001294
:1004330001382D5C00120138BB5C001201385F608B
:10044300001201380A6600120138EC6C0012013800
:10045300D56D00120138466E001201383D6F00124F
:100463000138AE7000120138EE70001201385E726E
:1004730000120138DDB403120138E7B40312013866
:1004830025B5031201386EB503120138A8B503125E
:10049300013802B60312013823B6031201382CB611
:1004A3000312013879B603120138A2B603120138D8
:1004B300ACB60312013818B703120138AAB70312F6
:1004C3000138F4B7031201382AB803120138B6B859
:1004D30003120138F7B8031201382EB90312013899
:1004E30040B9031201385FB90312013868B9031226
:1004F300013835BA031201386EF70312013878F365
:100503000312013827EA031201385DEA03120138A6
:1005130093EA03120138DEEB0312013807F60312E4
:1005230001381DF60312013827F60312013871F65C
:100533000312013830D40312013845D403120138B1
:10054300F5D40312013835D5031201384ED5031201
:10055300013889D503120138D6D50312013808D6DC
:10056300031201384AD6031201384BD8031201385B
:10057300BDD803120138C3F703120138D5F70312AC
:100583000138DDE20312013802E3031201382CE3E0
:10059300031201389FF603120138E3FF02120138F8
:1005A30057F50312013867F50312013870F503128A
:1005B300013801F60312013874F203120138F9F21B
:1005C300031201385FF303120138F87F0012013878
:1005D300EEE7031201387DE903120138DEE9031265
:1005E300013824EA0312013863BA0312013835BB18
:1005F3000312013866BB031201387DBB03120138B5
:1006030087BB03120138D1BB03120138D4BB0312D9
:1006130001383ABC03120138A6BC0312013844BDA9
:1006230003120138C8BD0312013811BE0312013889
:100633003DBE0312013867BE03120138E2BE031246
:10064300013838BF031201388BBF0312013898BF3A
:100653000312013877EF03120138C9EF031201388F
:1006630053F003120138BAF003120138A9E503125B
:100673000138D3E503120138A1E6031201387CE700
:1006830003120138F29103120138B99203120138AF
:10069300F092031201381A93031201387A9303126A
:1006A3000138D09303120138359403120138CD94E5
:1006B30003120138DC9503120138739703120138D2
:1006C3000098031201386798031201387E980312C9
:1006D300013898990312013848EC01120138E2EF0E
:1006E3000112013850F201120138AAF20112013845
:1006F300C9F20112013844F301120138BDF40112A9
:100703000138A9F5011201387FFA011201384FFBB4
:1007130001120138F6FB0112013834FC01120138D1
:1007230018EC031201382FEC0312013860EC0312AA
:1007330001389BEC03120138C5EC03120138EFECCE
:100743000312013806ED031201381DED03120138BF
:1007530034ED031201385DED0312013870ED03121D
:10076300013886ED0312013899ED03120138C0ED0B
:1007730003120138DBF102120138DFF202120138F1
:1007830017F3021201383AF30212013845F3021249
:10079300013868F30212013877F4021201384CF57C
:1007A30002120138C7F5021201384FF6021201385E
:1007B3008AF602120138C1F6021201384FF702120B
:1007C300013828F80212013888F80212013893F828
:1007D3000212013812F90212013815F90212013816
:1007E30018F902120138A7F902120138AAF9021204
:1007F3000138DAF90212013804FA02120138F2FA66
:1008030002120138A4FB02120138008003120138DE
:10081300F880031201382C8103120138AE810312D0
:100823000138F681031201385A8203120138E78234
:1008330003120138A18303120138B0860312013871
:100843003B88031201385E880312013892AE03120B
:100853000138BAAE03120138E8AE031201381FAFF4
:10086300031201387DAF031201380BB103120138B3
:1008730056B103120138A1B103120138E1B10312D9
:10088300013827B20312013855B20312013812B3EB
:10089300031201381CB30312013829B303120138C0
:1008A3005CB30312013828B40312013834B40312C1
:1008B30001384CB40312013856B40312013876F4EC
:1008C300031201388EF403120138A6F4031201381F
:1008D300BEF403120138067300120138E2730012EA
:1008E30001384675001201389D75001201381E76D5
:1008F300001201380E77001201385B7700120138BD
:10090300E17700120138137800120138277A0012B8
:100913000138697A00120138877A001201380A7B9C
:1009230000120138DE7B00120138A67C0012013868
:1009330022A103120138F5A1031201389EA203126A
:100943000138F1A203120138A1A3031201382DA427
:100953000312013819A50312013848A503120138FF
:100963005BA603120138A3A60312013878A703126A
:100973000138B4A703120138D0A7031201384FFC82
:100983000112013875FC0112013891FD0112013881
:100993009BFD01120138D0FE01120138C8FF01127C
:1009A3000138D2FF01120138FBC4031201382BC6F0
:1009B300031201385EC603120138A8C603120138B8
:1009C3006FC8031201381E94021201388894021270
:1009D3000138E795021201387196021201388196A7
:1009E30002120138AE96021201380A970212013838
:1009F300119802120138DB98021201383B9A021255
:100A030001387E9A02120138239B02120138709B2F
:100A130002120138969B02120138A49D021201387A
:100A2300A99D02120138AE9F02120138FB9F0212E8
:100A330001386EA002120138A1A00212013843A1AD
:100A430002120138ECA10212013824A20212013869
:100A530027A2021201386FA202120138AFA20212BA
:100A6300013806A3021201380AE00312013822E01A
:100A7300031201386AE00312013880E003120138DF
:100A8300C7E003120138DBE10312013868E2031205
:100A93000138B3E20312013877A201120138B2A27E
:100AA30001120138F7A201120138B7A3011201386C
:100AB30046A401120138CCA40112013831A5011258
:100AC30001385DA50112013896A501120138D4A79A
:100AD30001120138B8A9011201389EAB0112013885
:100AE300E1AC011201382FAF0112013841B00112FC
:100AF30001388CB1011201389CB201120138B9B22C
:100B030001120138F4B20112013816B3011201388F
:100B130079B3011201383AB801120138CFB8011282
:100B2300013821B9011201383FB90112013899B9CD
:100B33000112013882BA01120138F8BB01120138DF
:100B43007CBC01120138B5BF03120138BFBF0312C9
:100B5300013802C0031201381DC003120138ADC0B1
:100B630003120138D5C00312013812C10312013830
:100B730049C10312013872C103120138E7C10312DC
:100B83000138FCC10312013811C20312013833C208
:100B9300031201387CC203120138A1C203120138C7
:100BA300DBC20312013807C30312013835C3031232
:100BB300013880C3031201382AC40312013835C433
:100BC300031201387EC403120138A8C4031201388A
:100BD300D3C403120138BF7E00120138F8A30212F6
:100BE300013846A50212013826A60212013845A68D
:100BF30002120138C2A60212013805A702120138F7
:100C03005BA8021201380BA90212013844AB02128D
:100C13000138CBAD021201386CAE0212013862AF5B
:100C2300021201385FB002120138B9B10212013861
:100C330044B20212013819F10312013882F103128E
:100C43000138D6F103120138FDF1031201382EF2F7
:100C530003120138CAD80312013837D903120138F5
:100C63007ED90312013896DA0312013892DB03129C
:100C7300013875DC03120138898903120138CB89E5
:100C8300031201389D8A03120138768B031201384F
:100C9300708C03120138528D03120138BB8D03127D
:100CA3000138718E03120138E58E03120138518F1A
:100CB300031201387A8F03120138F48F03120138BB
:100CC3008D9003120138F290031201380791031239
:100CD30001384D9103120138669103120138CB910B
:100CE30003120138CE910312013837DD03120138A4
:100CF3005FDD031201389DDD031201385BDE031251
:100D03000138C2DE03120138DEDE0312013806DFCA
:100D13000312013836DF0312013845DF03120138AD
:100D2300C2DF03120138008002120138218202124D
:100D330001385384021201388F8402120138BC84B3
:100D430002120138AA8502120138F5850212013810
:100D5300408602120138758602120138C3860212D8
:100D63000138F286021201381587021201386287B0
:100D730002120138E78702120138018A0212013890
:100D8300408C02120138818C02120138258E021226
:100D93000138668E021201385F8F021201386C919E
:100DA30002120138DF91021201382B92021201382C
:100DB300D99202120138B4930212013821CE0212E1
:100DC30001381FCF02120138B8D502120138D9D722
:100DD30002120138A4D9021201380CDB02120138C5
:100DE300E3BC0112013892BD01120138BFBD0112EB
:100DF300013805BE011201383BBF0112013899BF0A
:100E030001120138BEBF0112013854C10112013869
:100E1300D8C10112013852C201120138ACC3011208
:100E230001380CC50112013812C60112013873C70B
:100E330001120138C5C70112013836C90112013840
:100E43004FC901120138ADC901120138D1C90112CC
:100E53000138BFCA01120138F2CA0112013862CB4C
:100E630001120138DCCB0112013826CC0112013802
:100E7300F0CC01120138C5CD01120138A4CE011204
:100E830001382FCF011201389DCF0112013811D043
:100E9300011201383CD001120138FBD00112013894
:100EA30060D2011201387DD2011201389CD20112A5
:100EB30001388DD301120138B2D301120138DCD3CA
:100EC3000112013857D401120138B1D4011201388B
:100ED3001AD601120138C8D60112013809D70112F6
:100EE3000138C5B20212013813B3021201381FB31D
:100EF30002120138FDB3021201382EB40212013876
:100F03005FB402120138DFB40212013817B50212BE
:100F1300013869B502120138A6B502120138C3B708
:100F230002120138E9B902120138D4BB02120138A6
:100F3300BEBD02120138A92C0012013822CA0312C5
:100F43000138C6CA0312013898CB03120138C2CB49
:100F53000312013810CE03120138998601120138A9
:100F6300E38601120138D594011201385A96011211
:100F73000138CB9C01120138C69D01120138039E32
:100F830001120138269E01120138689E01120138B0
:100F9300719E011201387B9E01120138699F011273
:100FA30001385FA00112013839D70112013838DB4B
:100FB300011201383EDB0112013879E201120138D6
:100FC30092E70112013815FC02120138ABFC021240
:100FD3000138C1FC0212013837FD02120138ABFDA2
:100FE30002120138E9FD021201385DFE02120138D6
:100FF300D6FE02120138DFFE02120138EBFE0212A6
:10100300013800FF021201383EFF0212013854FF7B
:1010130002120138B3FF0212013845A80312013846
:1010230052A8031201386CA803120138ABA80312AB
:101033000138E9A8031201384EA90312013863A944
:10104300031201386EA9031201387BA90312013878
:1010530092A903120138A0A903120138AFA9031200
:101063000138C4A903120138D9A903120138E4A92C
:1010730003120138F0A903120138FFA90312013842
:101083000AAA031201382DAA03120138D4AA0312A3
:101093000138E4AA03120138F9AA0312013813AB89
:1010A300031201382EAB031201384BAB0312013884
:1010B30056AB0312013812AC03120138FEAC031213
:1010C300013823AD031201382EAD0312013843ADAD
:1010D3000312013857AD03120138B8AD03120138BA
:1010E300BEAD03120138C4AD03120138CAAD0312F9
:1010F3000138E2AD0312013815AE031201389EC068
:10110300021201382AC10212013889C202120138BF
:10111300AAC40212013896C502120138CBC50212C5
:101123000138EDC5021201389CC60212013894C879
:1011330002120138BDC8021201384FC90212013828
:1011430081C9021201388EC902120138E5C902129F
:1011530001380BCA0212013878CC021201387BCD58
:1011630002120138D3CD021201385FDB02120138BB
:1011730069DB021201388BDB0212013897DB0212A2
:10118300013830DD021201385FDD021201387BDEE7
:1011930002120138D4DE0212013848E0021201388B
:1011A300B5E002120138F0E0021201382FE1021219
:1011B3000138E8E30212013802E4021201388EE436
:1011C300021201389CE402120138F5E402120138DC
:1011D30003E50212013876E502120138DAE502125C
:1011E300013824E602120138ADE602120138CFE6D7
:1011F30002120138F5E8021201380AEC0212013832
:1012030022ED02120138D5ED02120138B7EE0212B7
:101213000138D2ED03120138F7ED0312013869EEFC
:1012230003120138D69903120138DF9903120138EA
:10123300E89903120138BF9A03120138709C031214
:101243000138A69C03120138E09C03120138169D55
:1012530003120138509D03120138849D0312013893
:10126300B09D03120138F99D03120138339E031216
:1012730001387C9E03120138D49E03120138099F62
:1012830003120138649F031201389E9F0312013831
:10129300EF9F0312013825A0031201385FA0031248
:1012A300013882A003120138DCFF01120138E6FF86
:1012B30001120138F6FF0112013804F80312013854
:1012C300D87F00E066701008A3E066700A08A3E008
:1012D30066700408A3E06622E49366701308740141
:1012E3009366700C08740293667005087403936622
:1012F30022C3E7960809E7960809E7960809E796DF
:10130300A2D265D03322C3E09608A3E09608A3E0F7
:101313009608A3E096A2D265D03322C008C3E09614
:10132300F50808A3E096420808A3E096420808A33C
:10133300E0964208A2D265D033E5087001D3D00805
:1013430022C3E7960809E7960809E7960809E7968E
:1013530022C3E09608A3E09608A3E09608A3E096CC
:1013630022C008C3E096F50808A3E096420808A344
:10137300E096420808A3E09645087001D3D00822FE
:10138300C3E49396087401939608740293960874C1
:1013930003939622080808EAC0E0EBC0E086F0E772
:1013A300A4FA180986F0E7A42AFA180986F0E7A434
:1013B3002AFA180986F0E7A42AFA1986F0E7A4FBAB
:1013C300E5F02AFA190886F0E7A42BFBE5F03AFAD0
:1013D300190886F0E7A42BFBE5F03AFA18180986FA
:1013E300F0E7A4C5F02BFBE43AFA1908E7C5F0C609
:1013F300A426F6E5F03BFBE43AFA1886F0E7A4F6F8
:10140300E5F00826F6E43B08F6E43A08F6D0E0FBFC
:10141300D0E0FA22E4CFC0E0E4CEC0E0E4CDC0E007
:10142300E4CCC0E075F020C3E633F608E633F608F3
:10143300E633F608E633F6181818EC33FCED33FD03
:10144300EE33FEEF33FFC3EC9709ED9709EE9709EF
:10145300EF97191919400FFFEC97FC09ED97FD0958
:10146300EE97FE191906D5F0BEECF709EDF709EE74
:10147300F709EFF7191919D0E0FCD0E0FDD0E0FE31
:10148300D0E0FF221214EF1818181214171214DEEA
:10149300191919221214DE191919080808E618185F
:1014A3001820E7E01214171214EF1818182209096C
:1014B30009E719191920E7DC080808E618181820A5
:1014C300E7030214171214EF181818121417121442
:1014D300EF1818181214DE19191922E4C397F70923
:1014E300E497F709E497F709E497F722E4C396F63C
:1014F30008E496F608E496F608E496F622601708E0
:101503000808C6A2E713C618C613C618C613C6181A
:10151300C613C6D5E0E9226016080808C6C313C679
:1015230018C613C618C613C618C613C6D5E0EA22D2
:101533007009080808226016181818C6C333C608AD
:10154300C633C608C633C608C633C6D5E0EA22E6A4
:1015530027F60809E637F60809E637F60809E637F5
:10156300F622E026F608A3E036F608A3E036F608EE
:10157300A3E036F622E026F008A3E036F008A3E065
:1015830036F008A3E036F022C3E697F60809E6979B
:10159300F60809E697F60809E697F622C3E096F0FF
:1015A30008A3E096F008A3E096F008A3E096F022E3
:1015B300E657F60809E657F60809E657F60809E676
:1015C30057F622E056F608A3E056F608A3E056F6CF
:1015D30008A3E056F622E056F008A3E056F008A36D
:1015E300E056F008A3E056F022E647F60809E6477E
:1015F300F60809E647F60809E647F622E046F0084A
:10160300A3E046F008A3E046F008A3E046F022E09A
:1016130066F008A3E066F008A3E066F008A3E066BE
:10162300F022E0F608A3E0F608A3E0F608A3E0F64C
:1016330022E6F008A3E6F008A3E6F008A3E6F0220A
:10164300E0FAA3E0FBA3E0FCA3E0FD22EAF0A3EBB6
:10165300F0A3ECF0A3EDF022CAC0E0E6F0A308DAB1
:10166300FAD0E0FA22CAC0E0E0A3C582CCC582C5A5
:1016730083CDC583F0A3C582CCC582C583CDC58385
:10168300DAE6D0E0CA22C3E498F8E499F91216CA5C
:101693008026C3E49AFAE49BFBE920E7E91216CA21
:1016A300E498F8E499F922C3E498F8E499F9121656
:1016B300CAE498F8E499F9C3E49AFAE49BFB22EBB1
:1016C30020E7CFE920E7E0B90010BB0008E88AF083
:1016D30084F8AAF022E4FBC8FA22EB70227B10C83C
:1016E30033C8C933C9335007C39AC3DBF280069AA0
:1016F30050012ADBEAC833F4C8C933F4C9FA2275A6
:10170300F008E4C833C8C933C933C99AC99B500424
:10171300C92AC93BD5F0ECFBC833F4C8E4C9FA22A3
:10172300600D08C6A2E713C618C613C6D5E0F32298
:10173300600C08C6C313C618C613C6D5E0F42270DE
:101743000422600D18C6C333C608C633C6D5E0F4F9
:101753001822251810AF08F518400215198008F54E
:101763001840021519D2AF22C0D0251810AF08F5C2
:1017730018500205198008F51850020519D2AFD088
:10178300D0222518F58210AF08F5184002151980EC
:1017930008F51840021519D2AF851983222518F5CB
:1017A30082E43519F58322E4732518C582C0E0E588
:1017B3001934FFC583C0E0E518C3958224F810AF40
:1017C300088583198582188008858319858218D234
:1017D300AFCEF0A3E520F0A37808E608F0A3DEFA85
:1017E300EFF0A3E58124FAF8E608F0A3E608F0A3F6
:1017F300E608F0A30808E608F0A3E608F0A31581BD
:101803001581D0E0FED0E0F8158115811581E8C07F
:10181300E0EEC0E0222518C582C0E0E51934FFC51B
:1018230083C0E0E518C3958224F910AF08858319B6
:101833008582188008858319858218D2AFCEF0A3DC
:10184300E520F0A37808E608F0A3DEFAEFF0A3E5BD
:101853008124FBF8E608F0A3E608F0A30808E608ED
:10186300F0A3E608F0A315811581D0E0FED0E0F8DF
:1018730015811581E8C0E0EEC0E022851983851843
:1018830082E0A3FEE0A3F5207808E0A3F608DFFAE0
:10189300E0A3FFE0A3C0E0E0A3C0E0E0A3C0E0E07A
:1018A300A3C0E0E0A3C0E010AF08858218858319C8
:1018B3008008858218858319D2AFD083D082020134
:1018C30035851983851882E0A3FEE0A3F520780807
:1018D300E0A3F608DFFAE0A3FFE0A3C0E0E0A3C0C3
:1018E300E0E0A3C0E0E0A3C0E010AF088582188564
:1018F30083198008858218858319D2AFD083D0825B
:1019030022C0D02518C582C0E0E51934FFC583C0C5
:10191300E0E518C3958224F310AF08858319858207
:10192300188008858319858218D2AFC8F0A3E9F01F
:10193300A3EAF0A3EBF0A37908E709F0A3D8FAEC44
:10194300F0A3EDF0A3EEF0A3EFF0A3D0E0F0A3D06B
:10195300E0F0A3D0E0F0A3E520F0A3E5F0F0A322AC
:10196300851983851882E0C0E0A3E0F9A3E0FAA318
:10197300E0FBA37808E0F608A3DFFAE0FCA3E0FDB0
:10198300A3E0FEA3E0FFA3E0C0E0A3E0C0E0A3E088
:10199300F5D0A3E0F520A3E0A3F5F010AF0885830D
:1019A300198582188008858319858218D2AFD08261
:1019B300D083D0E0F8D0E032740480067402800251
:1019C3007401C0E0F404121785D0E012165B227490
:1019D30004800474028000CCC0E0EDC0E0E518C3CD
:1019E3009CCCAD1950011D10AF068C188D198006C3
:1019F3008C188D19D2AF121668D0E0FDD0E0FC220E
:101A0300D083D082C5F0E493A3C5F0C395F0F5F07D
:101A1300E493A3C395F04005E5F0048001E475F079
:101A230002A42582F582E5F03583F583E493A3C010
:101A3300E0E493C0E022D083D082E9C0E0E493A342
:101A4300C386F0C5F095F0F908E493A386F0C5F0DA
:101A530095F0700BE493A3C3994005E9048002A3B6
:101A6300E475F002A42582F582E5F03583F583D091
:101A7300E0F9E493A3C0E0E493C0E022D083D082F2
:101A8300E9C0E0E493A3C386F0C5F095F0F908E458
:101A930093A386F0C5F095F0702408E493A386F031
:101AA300C5F095F0701908E493A386F0C5F095F09E
:101AB300700E08E493A3C3994007E9048004A3A329
:101AC300A3E475F002A42582F582E5F03583F5835E
:101AD300D0E0F9E493A3C0E0E493C0E022D083D044
:101AE30082CCC0E0E493A36006121B0A1470FAE4EC
:101AF30093A36006121B291470FAD0E0FCE493A3AD
:101B0300C0E0E493C0E022C0E0E493A3D39C501070
:101B1300E493A3C39C400AD0E0D0E0D0E0021AFDD6
:101B2300A3A3A3D0E022C0E0E493A36C7009D0E0A8
:101B3300D0E0D0E0021AFDA3A3D0E022D083D0826C
:101B4300ECC0E0EDC0E0E493A3FCE493A3FDED4C13
:101B5300600D121B8BEC24FFFCED34FFFD80EFE4E2
:101B630093A3FCE493A3FDED4C600D121BCAEC247C
:101B7300FFFCED34FFFD80EFD0E0FDD0E0FCE4930B
:101B8300A3C0E0E493C0E022C0E0C3E493960874EA
:101B930001939618400FE4936670080874019366E6
:101BA3001870007019A3A3C3E49396087401939665
:101BB30018A3A3400DD0E0D0E0D0E0021B7BA3A389
:101BC300A3A3A3A3D0E022C0E0C0F088F0E493660F
:101BD30070080874019366187000A8F0A3A3700B33
:101BE300D0F0D0E0D0E0D0E0021B7BA3A3D0F0D0B4
:101BF300E022D083D082ECC0E0EDC0E0EEC0E0EFA5
:101C0300C0E0E493A3FCE493A3FDE493A3FEE49375
:101C1300A3FFEF4E4D4C6015121C71EC24FFFCED3D
:101C230034FFFDEE34FFFEEF34FFFF80E5E493A3C2
:101C3300FCE493A3FDE493A3FEE493A3FFEF4E4DD3
:101C43004C6015121CAEEC24FFFCED34FFFDEE34AA
:101C5300FFFEEF34FFFF80E5D0E0FFD0E0FED0E0F1
:101C6300FDD0E0FCE493A3C0E0E493C0E022C0E035
:101C7300C0F088F0121383A8F040071212DBA8F01B
:101C8300701AA3A3A3A3121383A8F0A3A3A3A3402F
:101C930013D0F0D0E0D0E0D0E0021C5BA3A3A3A359
:101CA300A3A3A3A3A3A3D0F0D0E022C0E0C0F088F5
:101CB300F01212DBA8F0A3A3A3A3700BD0F0D0E023
:0E1CC300D0E0D0E0021C5BA3A3D0F0D0E02262
:101CD400C0E074F0121904A2AFE433FFD2AFE58977
:101CE400F8E5AB58F50A6051F4F589C2C57E008E5B
:101CF4000875090074027808121742121DBAC3E865
:101D04009408E99400502BE85407F87401B80002D1
:101D14008004C333D8FC550A60187508007509019E
:101D2400EE7808121742AA08AB09900281E0F91272
:101D340004CE0EEEC3940440B6EFA2E092AF7F034C
:101D4400021963C0E074F0121904A2AFE433FFD2A5
:101D5400AFE58AF8E58D58F50A6059F4F58AC2EBC7
:101D64007E008E0875090074027808121742121D4D
:101D7400BAE82400FAE934FFFBC3EA9408EB9400C0
:101D8400502BE85407F87401B800028004C333D818
:101D9400FC550A6018750800750901EE78081217D9
:101DA40042AA08AB09900281E0F91204CE0EEEC3F8
:101DB400940440AE8083121E27F922C0E074F0120E
:101DC4001904A2AFE433FFD2AFE58BF8E5AC58F5C4
:101DD4000A604DF4F58BC2E87E008E087509007424
:101DE400027808121742121E27C39402402BE854AB
:101DF40007F87401B800028004C333D8FC550A60A4
:101E040018750800750901EE7808121742AA08AB84
:101E140009900281E0F91204CE0EEEC3940440BA94
:101E2400021D3D74672508F58274033509F583E0C6
:101E3400F8A3E022C2AF02000022C0E0C0D0E8C094
:101E4400E0E9C0E0E5A8D2AFC2C7751A00A2E7A2D4
:101E5400E792AFD0E0F9D0E0F8D0D0D0E03274F51A
:101E6400121818EAFEEBFFEE2434F8EF3400F98878
:101E7400088909EE2435F582EF3400F583E0F8EEA5
:101E84002437F582EF3400F583E0F50AEC850AF097
:101E9400A4FCAAF0850AF0EDA42AFDE82CF8E43DA0
:101EA400F97A257B001216CAEA850882850983F02F
:101EB400F8740758F97401B900028004C333D9FCDB
:101EC400FAE8131313541FF8EE28F8EF3400F9E876
:101ED400245DF582E93400F583E05A6008EE243489
:101EE400F582EF802CEE2434F582EF3400F583E0A4
:101EF400C0E0EE2436F582EF3400F583E0F5F0D04F
:101F0400E084A8F0EE28F8EF3400F9E82438F582EC
:101F1400E93400F583E0F97F040218C474F512185B
:101F240018EAFEEBFFEE2434F582EF3400F583E08B
:101F3400C0E0EE2435F582EF3400F583D0E0F08E76
:101F4400828F83A3A3A3A3A3A3A3C082C0838E82EF
:101F54008F83A3A3A3A3A3E0F8A3E0F9D083D08243
:101F6400E0C398F508A3E099F509EE247FF582EF24
:101F74003400F583E064017069EE2480F582EF3467
:101F840000F583E0F8A3E0F98E828F83A3A3A3A3D3
:101F9400A3A3A3E0FCA3E0FD8E828F83A3A3A3A34A
:101FA400A3E0FAA3E0FBC3EA9CEB9D5010C3EC98BA
:101FB400ED99402EC3EA98EB995027800EC3EA9816
:101FC400EB994007C3EC98ED9940177C977D06EE9A
:101FD400FAEFFB120E94EE247FF582EF3400F583C2
:101FE400E4F0EE2434F8EF3400F9E8FCE9FDEE24E3
:101FF40035F582EF3400F583E0F8EE2437F582EF0F
:102004003400F583E0F50AE508850AF0A4F508AA8A
:10201400F0850AF0E509A42AF509E82508F8E4356D
:1020240009F97A257B001216CAEA8C828D83F0F8AE
:10203400740758F97401B900028004C333D9FCFA57
:10204400E8131313541FF8EE28F8EF3400F9E824CA
:102054005DF582E93400F583E05A6008EE2434F536
:1020640082EF802CEE2434F582EF3400F583E0C057
:10207400E0EE2436F582EF3400F583E0F5F0D0E0AD
:1020840084A8F0EE28F8EF3400F9E82438F582E962
:102094003400F583E0F9122C9B021F1BC082C0831D
:1020A400851882851983E0F8A3E0F9C3EA9CEB9DC7
:1020B4005010C3EC98ED99401BC3EA98EB99501467
:1020C400800EC3EA98EB994007C3EC98ED9940045D
:1020D400790180027900D083D08222EAC39CFAEB92
:1020E4009DFB2274EF12181890055DE064086005EA
:1020F400E06407702A9061C8E0602490058BE0F4E6
:10210400601DE0F875F003A4C8AAF02AF9748D28BC
:10211400FE740539FF8E828F83A3A3A3E0700302AC
:102124002217906060E0C0E0EE2468F582EF34008E
:10213400F583D0E0F0750C17750D07750800750967
:1021440000E5D914F50AE5D95403F50E60177403B4
:10215400650E605CE50A6010EE2467F582EF3400DA
:10216400F583E070030221FC900712E06401602A09
:10217400EE2482F582EF3400F583E0600478048075
:10218400027800850A08E508C398FA95E0FB120D69
:10219400388A088B09EA450970051210E08074EE4C
:1021A4002482F582EF3400F583E070048A0C8B0DF1
:1021B400E50A6012850C82850D83F50BE5D9F0A341
:1021C400150BE50B70F6EE2482F582EF3400F583EF
:1021D400E0604474FC250AF50A780C1219BFAC0AB5
:1021E400A90EEEFAEFFB120F30740212176BE970AE
:1021F40026AA08AB0912065A793D8E828F83A3A3BF
:10220400A3A3E0FA7B00120C12EEFAEFFB120EAC61
:10221400120F60790080747403650E6056850A108D
:1022240075110078101219BFAC0CAD0DAA08AB09DA
:10223400120F0C740212176BEE2468F582EF34004F
:10224400F583E064807004747F8001E0F50C780C01
:102254001219C3E50EF50C780C1219C3A90AAC08BF
:10226400AD0990058BE0FA7B00120BD674021217AD
:102274006B801390055DE06408600BAC0CAD0DEE53
:10228400FAEFFB120FBA1210EC79017F0A0218C49C
:1022940074F512181874FC121755EAFEEBFF89083E
:1022A400A2AFE433F509C2AF806AEE2463F8EF34D9
:1022B40000F97A007B00A2AFE433F50AC2AF88824A
:1022C4008983E0FCA3E0FDEC4D603A88828983E0D9
:1022D400FAA3E0FB8A828B83E0FCA3E0FD88828979
:1022E40083ECF0A3EDF08A828B83E4F0A3F0888280
:1022F4008983E0FCA3E0FDEC4D700A88828983A306
:10230400A3E4F0A3F0E50AA2E092AF12065A900605
:102314009EE004F0EE2463F582EF3400F583E0F8E8
:10232400A3E0F9E849603DEE2463F582EF3400F55B
:1023340083E02402FAA3E03400FBEA2402F50AEB6A
:102344003400F50B780A1219BF8A828B83E0FCA350
:10235400E0F9EEFAEFFB120ED0740212176BE9707B
:10236400030222AE90069EE0606390069FE0F89020
:10237400069EE0C398500C7402650870509006A045
:10238400E0604A8E828F83A3A3A3A3E0851882858D
:102394001983F0A3E4F090069EE0F874021217A0EB
:1023A400E8F0A3E4F090069EE0F890069DE028F0A3
:1023B40074021217A0AC82AD83851882851983AA92
:1023C40082AB837901120BDC90069EE4F0E509A24E
:1023D400E092AF740412176B021F1B00852A8785D5
:1023E4002BC622C0E0C0D0E8C0E0E9C0E0EAC0E00B
:1023F400EBC0E0ECC0E0EDC0E0EEC0E0C008C00916
:10240400C00AC00BC082C083C0F0A2AFE433FEC2D6
:10241400AF759B00906182E0A2E05012E591A2E0CA
:10242400500C7591FE7401652A70031220E7E0A236
:10243400E55051E591A2E5504B7591DF90055DE0C3
:1024440064076005E0640870237401652A703579B7
:102454000190058BE0FA75F003A4CAA8F028FB7478
:102464008D2AFA74053BFB1222948018E0640D70E7
:102474001390057FE004F064287002E4F07A00E031
:10248400F91210F2906182E0A2E6400302252EE5E3
:1024940091A2E6400302252E7591BF90055DE0648C
:1024A400057008120FF0120FFC8003120FF6752A44
:1024B40000121068E990055EF0790012104A120DBE
:1024C400F27A017B0090055CE0F91204CE90780367
:1024D400E064427055900716E014F0704DC2AF12DC
:1024E40024E6007833D0E0F618D0E0F6E59F5407F0
:1024F40070057509FF800375097FC4C0E07832E672
:10250400F50808E65509F509740B7808121733D055
:10251400E02508F8906270E0A2E740F8E8C3339041
:102524006272F0906270E0D2E0F0906181E0A2E328
:102534005009E5E9A2E3500375E9F7A3E0A2E750E7
:1025440009E591A2E7500375917FEEA2E092AFD026
:10255400F0D083D082D00BD00AD009D008D0E0FECE
:10256400D0E0FDD0E0FCD0E0FBD0E0FAD0E0F9D040
:10257400E0F8D0D0D0E032C0E0C0D0C082C08390B8
:102584006183E0A2E05009E5BFA2E0500375BFFEFD
:10259400E0A2E15009E5BFA2E1500375BFFDE0A24E
:1025A400E25009E5BFA2E2500375BFFBE0A2E3508D
:1025B40009E5BFA2E3500375BFF7E0A2E45009E5C3
:1025C400BFA2E4500375BFEFE0A2E55009E5BFA246
:1025D400E5500375BFDFE0A2E65009E5BFA2E6506F
:1025E4000375BFBFD083D0828088C0E0C0D0E8C06C
:1025F400E0E9C0E0EAC0E0EBC0E0ECC0E0EDC0E040
:10260400C0F0E5A7A2E6500FE5A1A2E6500953A742
:10261400BF75A1BF122653E5A7A2E5500CE5A1A200
:10262400E5500653A7DF75A1DFE5A7A2E15009E550
:10263400A1A2E1500375A1FDE5A7A2E2500CE5A11A
:10264400A2E2500653A7FB75A1FBD0F002256474E7
:10265400F8121818752A0190055DE06406701512C9
:102664000F7E8A828B83A3A3A3A3A3A3E0FAA3E090
:10267400FB120FDEA2AFE433FED2AF900563E06439
:102684000170187A207B0090055CE0F91205587AF5
:10269400207B0090055CE0F91204D4906182E0D2C2
:1026A400E6F0900713E0602185C62B801690056242
:1026B400E064017008E5C654F84405F5C653BEFC51
:1026C4001223E07401652A60E4EEA2E092AF7F0178
:1026D4000218C4008E2C8F2D858231858330851895
:1026E40082851983E0CEA3E0CF853182853083EBE8
:1026F400C9EAC8EDCBECCA75F010C3E833C8E933B6
:10270400C9EA33CAEB33CBC3EA9EF52FEB9FF52E10
:10271400B35004AB2EAA2FEC33CCED33CDD5F0DA85
:10272400AE2CAF2D2274E912181874F812175585BF
:102734001882851983ECF0A3EDF08A088B099005C3
:102744005DE024F7C3940550067508010228C01201
:102754000F7E8A0A8B0BAE0AAF0BEE4F7003022872
:10276400BDAC08AD0974021217A0AA82AB83121083
:102774000E8E828F83A3A3750CFF750DFF750EFF5C
:10278400750F00780C1215C674021217A07510FF8D
:102794007511FF7512FF75130078101215C6780CA9
:1027A4007910121344502A780C791012158B75087D
:1027B400017509C8750A00750B007808790C1213A5
:1027C400445052850C08850D09850E0A850F0B802F
:1027D400507514017515C875160075170085100815
:1027E40085110985120A85130B7808790C12158B4B
:1027F40078147908121344401C7508007509007593
:102804000A00750B017808791012158B7808790C79
:10281400121552800C750801750900750A00750BB4
:102824000074097808121533750C19F50DF50EF5B9
:102834000F7808790C1214178E828F83A3A3A3A395
:10284400A3A3E0F8A3E0F97AD07B031216CA880C9C
:10285400890DE4F50EF50F7808790C1215527406FB
:102864001217A0E0F8A3E0F97AD07B031216CAE8A5
:10287400FA8A0CE4F50D7808790C121344500778A1
:1028840008790C12158B90055DE06408600AE06419
:10289400066005E06405702D750C0D780C7908123E
:1028A40013444021750CF4750DFF750EFF750FFF71
:1028B4007808790C121552800C750800750900759A
:1028C4000A00750B00851882851983E0F8A3E0F5EA
:1028D4008388827808121634740812176B7F1002EA
:1028E40018C474F7121818121020900711E064012C
:1028F4007010906245E4F0A3F053F4F343FE0C53DC
:1029040090F3120FCCE5C654804449F5C6E59E54B5
:102914007F644970F8906185740FF090070FE0F4BC
:102924007002A3E0604E900710E0600814601B146E
:10293400602E804075080175090090070FE0780843
:10294400121742E508F45280802A750801750900BF
:1029540090070FE07808121742E508F452908014AB
:1029640075080175090090070FE07808121742E511
:1029740008F452A079007F020218C474F7121818E0
:10298400E9FEEAFF74016E700C7A807B0090055CAE
:10299400E0F91204CE902CACE493F46008E493F9CB
:1029A400120DE6800953C680E59E547F70FA120F1B
:1029B400D2900711E064017003120E0A90070FE031
:1029C400F47002A3E0604B900710E0600814601AF2
:1029D40014602C803D75080175090090070FE0789C
:1029E40008121742E508428080287508017509001D
:1029F40090070FE07808121742E50842908013759B
:102A0400080175090090070FE07808121742E508DD
:102A140042A0121020120F7E8A088B09A808A90967
:102A2400E8496015E5E170FCE82414F582E9340016
:102A3400F583E0F46003E0F5E174016F700A7A0154
:102A440090055CE0F912052802297A74ED12181831
:102A54008A088B098C0A8D0B74131217A0780C1238
:102A640016257808790C1213447510017511C87570
:102A7400120075130050127808790C12158B781017
:102A8400790812134450168010780C790812158BAB
:102A94007810790C12134440047901800279007F84
:102AA4000C0218C474ED1218188A088B098C0A8D4C
:102AB4000B74131217A0780C121625780C790812CF
:102AC400134440117808790C12158BAA08AB09AC91
:102AD4000AAD0B8022751000751100751200751374
:102AE400017810790C12158B78107908121552AAF6
:102AF40010AB11AC12AD1380A68A828B837508FFCC
:102B04007509FF750AFF750B0078081215D97F0443
:102B14000218C474F51218188C828D837808121662
:102B2400258A828B83780812159FEA2404F8EB34F3
:102B340000F98C828D83A3A3A3A3E0FCA3E0FD880A
:102B4400828983C3E09CF0A3E09DF088828983C3DB
:102B5400E09420A3E0944E40268A828B837508FF7C
:102B64007509FF750AFF750BFF78081215788A82BC
:102B74008B83A3A3A3A3E02420F0A3E0344EF002AC
:102B84002AFD74F5121818E9FE9006B2E0FAA3E0E3
:102B9400FBEEC333F8E433F974B028F58274843956
:102BA400F583E02AF508A3E03BF50978081219BF7C
:102BB4007A407B427C0F7D001226D8740212176B78
:102BC4008A088B098C0A8D0B7410780812151AAABE
:102BD40008AB097F040218C474F11218188A0C8B0C
:102BE4000D8C0E8D0F740F1217A0E0FAA3E0FB7486
:102BF400111217A0E0F508A3E0F50978081219BF2F
:102C0400EA2401F508EB3400F509E4F50AF50B783C
:102C14000C7908121397750871750902780C7908F4
:102C2400121397AA0CAB0DAC0EAD0F1226D874027A
:102C340012176B8B09EA450960047A0180027A0055
:102C4400EC2AFCED3400FD74131217A0E0F8A3E0A5
:102C5400F9E8FEE9FFECF8EDF97A717B021216CA85
:102C6400880889098E828F837808121634ECF8ED6F
:102C7400F97A717B021216CA8A088B0974057808DE
:102C84001217428E828F83A3A3A3A3E508F0A3E5C2
:102C940009F07F080218C4C082C083E9906000F084
:102CA400D083D08222020135FFFFFFFFFFFFFFFF29
:102CB400C082C083852182852283E06420700A85D6
:102CC4002283A3858221858322023D5A74F412173C
:102CD400ACA821A922AC21AD22801CA3AA82AB837B
:102CE4008A828B83E0F50A7420650A60EE740965B4
:102CF4000A60E8EAFCEBFDECFAEDFB8A828B83E0E8
:102D040075F00D84E5F033FEE433FF74832EF58211
:102D140074093FF5831265F98004ECFAEDFB8A82AD
:102D24008B83E0F50A7427650A60067422650A70CD
:102D34003A122EA18A828B83A3AA82AB838A828BC6
:102D440083E0FCA3AA82AB8388828983122EA7E541
:102D54000A6C609F740A6C70E4E824FFF8E934FF9D
:102D6400F9EA24FFFAEB34FFFB8088740A650A70E1
:102D74001A88828983740AF002333EAE08AF098A46
:102D8400828B83A3AA82AB83E0F50A8E828F83A30E
:102D94008582088583098E828F83E0650A60DCE082
:102DA400F50AC394804033C3E52198E5229950087D
:102DB400122E9A700318A983122EA18E828F83E09B
:102DC40064806003022CE4850882850983E088829C
:102DD4008983F0A308A983022CE4EEFAEFFB8A822C
:102DE4008B83A3AE82AF838A828B83E0C3948040BB
:102DF400E9EE24FF122E94648070088E828F83A3E0
:102E04000EAF838E828F83E06003022D1E8C828D31
:102E140083125B085016122EA18C828D83A3AC8280
:102E2400AD83125B084003022CFB80EA888289830D
:102E3400A3AA82AB837409650A60067420650A70CC
:102E440036C3E52198E522995010122E9A600B881A
:102E54008289837420F0EAF8EBF98C828D83A3AC29
:102E640082AD83E0F50A7420650A60EE7409650A90
:102E74006003022CFB80E388828983E50AF0EAF888
:102E8400EBF98C828D83A3AC82AD83022CFBF5829B
:102E9400EF126BFEE02212708CE06420228882899B
:102EA40083E50AF0A3A882A9832274E81217ACE987
:102EB400FE8A0C8B0D8C0E8D0F75100A7511007522
:102EC400120075130090862C780C12131E401C7986
:102ED4002D1205FA780C1214EF80109086187808D9
:102EE400121625781079081213971E7810790C128F
:102EF40012F450E7EEFF74FF2F1E04C39401A2D214
:102F040065D033403D79201205FA80E8850C0885A8
:102F14000D09850E0A850F0B851014851115851270
:102F240016851317780879141214B190861878143A
:102F3400121625780879141214B1E5142430F91204
:102F440005FA908618780812162578107908121454
:102F5400B1E51045114512451370B1800312176B8A
:102F64007F1002187E74F61217AC1203BA9002D1C5
:102F7400E4F0A3125A34802B125FABE875F00AA474
:102F8400F8AAF075F00AE9A42AF9E50828F8E43962
:102F9400F9E824D0F8E934FFF99002D1E8F0A3E984
:102FA400125A29E0F50874D02508C3940A501590E4
:102FB40002D1C3E09499A3E094199002D140B9746A
:102FC400FFF0A3F07F0202187EC082C0837A007BE8
:102FD40000852182852283E0F874226860057427C5
:102FE400687025852283A38582218583228003122C
:102FF40065D87921E72AF58209E73BF583E0F9E80A
:10300400696009740A6970E77AFF7BFF023D5A74AC
:10301400F71217ACEAFEEBFF800C1205FA8E828FD2
:1030240083A3AE82AF838E828F83E0F970EC790A3A
:103034001205FA7F0102187EC082C0839002CFE09D
:10304400FAA3E0800E8A828B83A3A3E0F8EA28FA2D
:10305400EB3400FBEA65237003EB652460138A827A
:10306400C082125FA88B83D082C3E098A3E099400A
:10307400D4023D5A74F01217AC89088A09750A20E3
:103084001231CCF50CA3E0F50D9002CDE02403122F
:1030940031BDAA0CAB0DE4FCFDA9081203C68005E2
:1030A40079201205FA85090C74FF250CF5090470C2
:1030B400EF8005890B850B0A1231CCF50B9002CDFC
:1030C400E02401081231BE740A650B70030231B5A5
:1030D400E50BC394805007A90B1205FA80D77C83B3
:1030E4007D0980267480650D7004A80EA90F88825E
:1030F4008983A3A882A983E8FEE9FF88828983E003
:10310400701DEC2402FCED3400FD8C828D8312656D
:10311400F9EE4F60A0EEF8EFF980E0A80EA90F8851
:10312400828983A385820E85830F88828983E0C385
:10313400948040E7E0F50DE50B650D70A77480659C
:103144000B701B850E82850F83E0FB9002CD125F0E
:10315400CCE06B708F9002CDE024011231BD74205D
:10316400650A600979208002A90B1205FA8E828F04
:1031740083E0F50BA3AE82AF83E50BC3948040E8F4
:10318400EE24FE122E92F974286970030230B712ED
:1031940031CC642C70030230B7EE24FF122E9264FB
:1031A400C170030230B779201205FA750B20023082
:1031B400B9790A1205FA0236EAF8A3E03400F99064
:1031C40002CDE8F0A3E9F0229002CD125A91E02258
:1031D40074F01217ACE9FFEAFE7508007509007572
:1031E4000A00750B00802274D02AFAEAC39E50515B
:1031F4008E0CE4F50DF50EF50F7808790C12139783
:103204008A0C7808790C121552EFF974FF291F04FF
:103214006035852182852283E0FAA3858221858316
:103224002274D02AC3940A40BE74BF2AC3940650A1
:103234000474C980B4749F2AC39406500474A9808A
:10324400A8752502125C25AA08AB09AC0AAD0B02CD
:1032540036EA74F41217AC8908EAFCEBFD9002D349
:10326400E06508700D9002D4125FAB8C828D8302EE
:10327400332174BF2508F985080A750B0074027898
:103284000A1217427826E6250AFA08E6350BFBEA05
:1032940024FCFAEB34FEFBE9131313541FFE18E667
:1032A4002EFE08E63400FFEE2468F582EF123CDDC2
:1032B400C0E0740759F8D0E0B800028004C313D802
:1032C400FCA2E05063A828A929800D888289831272
:1032D40065F8E82EF8E93FF9C3E89526E995275003
:1032E4004788828983E0645670E1A3A3A3A3E065C1
:1032F4000870D88C828D83123CF788828983A3A3BB
:10330400A3E06402602DE5089002D3F09002D41289
:103314003CF7E82408F8E93400F99002D6123CF7A7
:103324009002D6126CA0800B8C828D83749FF0A3C4
:103334007409F08005740212176B7F0402187E74FE
:10334400EC1217ACEAFEEBFF123CFD5061A3858240
:10335400218583221203F08A088B098E828F8312BF
:103364006059705C852182852283E06428703FA3C4
:1033740085822185832279011204088A108B118C9D
:10338400128D13E525702790862C781012131E5089
:103394001D8E828F83123D12F50CA3E034FFF50DD0
:1033A400E4F50EF50F780C79101212F440067A0049
:1033B4007B008010E5082510F508E5093511F509AD
:1033C400AA08AB097F0C02187E74F21217ACE9FE4E
:1033D4008A088B09A808A9091234AFEA24F8F8EB83
:1033E40034FFF9C3E89523E99524500675250402B2
:1033F40034AA85080C85090DE50C2408F8E50D347C
:1034040000F91234AF8A288B29AC28FD8C828D8375
:103414007456F0E50C2408A3123CF88C828D83A327
:10342400A3A37404F0EE8C828D83A3A3A3A3F074EE
:10343400BF2EFF1259905FFA88828983E0C0E0EAC8
:10344400FBD0E0BB00028004C313DBFC54018C827C
:103454008D83A3A3A3A3A31259E8A3A3125A07B865
:1034640000028004C333D8FCF974FFC399F8E05810
:1034740049F07828E62408FA08E63400FB740E12B2
:1034840017A0126C97EC4D600F78081219BF120444
:103494007A740212176B8009AC08AD097900120422
:1034A400929002D3E4F07F0602187EC31234B42251
:1034B400E498FAE499FB78281234C022E62AFA0840
:1034C400E63BFB2274F01217ACE9FEEA24FCFCEBA9
:1034D40034FFFD74BB6E701A8C828D8378081216CB
:1034E4002578081214EF8C828D8378081216340222
:1034F40036EAECFAEDFBEA24FCFCEB34FFFDEE12B9
:103504001A03A911DE362E354235563572359B35F0
:10351400D035E535FA350F361E3634364A364A3656
:10352400603676361E369F36BA368A828B837808A2
:103534001216258C828D83780812157880B18A82C0
:103544008B8378081216258C828D83780812159F38
:10355400809D8C828D8378081216258A828B8378CD
:103564000C1216257808790C1213970236D38A8226
:103574008B83780C121625E50C450D450E450F700E
:10358400030236E38C828D83780812162578087935
:103594000C1214B10236D38A828B83780C1216254E
:1035A400E50C450D450E450F70030236E38C828D04
:1035B4008378081216257808790C1214B1850C0842
:1035C400850D09850E0A850F0B0236D38A828B83FB
:1035D40078081216258C828D8378081215D9023644
:1035E400EA8A828B8378081216258C828D83780868
:1035F4001215FF0236EA8A828B8378081216258C0C
:10360400828D8378081216120236EA8A828B8378B6
:10361400081216258C828D83804F8A828B837808CA
:103624001216258C828D8378081212C6605C80562F
:103634008C828D8378081216258A828B83780812EF
:103644001309504680408A828B8378081216258C91
:10365400828D8378081212C67030802A8C828D8302
:1036640078081216258A828B837808121309401A67
:1036740080148A828B8378081216258C828D837835
:10368400081213095004D2F08002C2F0A2F0E4330D
:10369400F508E4F509F50AF50B80348C828D8378FE
:1036A400081216258A828B83780C121625E50C786D
:1036B4000812153380198C828D8378081216258A96
:1036C400828B83780C121625E50C78081215008C71
:1036D400828D837808121634800C75250280037558
:1036E40025037A007B007F0802187E74E81217AC69
:1036F40074D112175574021217A0E9F0750E01E582
:10370400256003023A7B740F1217A0858208858313
:103714000974071217A0AE82AF83740E1217A0A803
:1037240082A98374051217A0123CF774071217A01C
:10373400A882A98374031217A0123CF7740F1217FE
:10374400A08582168583178055742F1217A0E582F1
:1037540065087004E5836509700302386B8521826E
:10376400852283E0F50A750B007402780A12174269
:10377400749E250AF5827481350BF58312164385F0
:10378400088285098312164F852182852283A385A9
:103794008221858322851408851509750E008521EB
:1037A40082852283E0F510125F7BE5082404F5147A
:1037B400E5093400F5158E828F83A385820C8583F9
:1037C4000D8E0A8F0BE510121AE0029A9C203AAB78
:1037D400BA283C0F0A953820A23728FD3929A33A84
:1037E4002C583A804D37A9283CAA1F3CBC203ABD2E
:1037F4009439BE203ABFD738C00F39C1C138E2204E
:103804003A073874D02510C3940A5031742F121714
:10381400A0E58265087004E5836509604A8821890A
:10382400227A0A79FF1203EA85088285098312162F
:103834004F85140885150975250002379F74BF2527
:1038440010C3941A504B851882851983AA82AB83BE
:10385400A9101203F0126053701374051217A0120A
:1038640065FF5003023A0F752504023A7B742F1248
:1038740017A0E58265087004E583650960E98A821A
:103884008B8312164385088285098312164F0237EB
:10389400998821892274031217A0C3E09EA3E09F94
:1038A4004003023CA61259CEAA08AB098E828F832C
:1038B400E0F9120402123CC740DB023A74742F127E
:1038C40017A0E58265087004E583650960997A109C
:1038D4000238271203BAA821A92288828983A385E2
:1038E400822185832288828983E064296003023AE5
:1038F40074742F1217A0E58265087004E5836509C6
:10390400700302386B1206480238891203BAA821E0
:10391400A92288828983A38582218583228882893A
:1039240083E064296003023A74742F1217A0E582BD
:1039340065087004E5836509700302386B75B61F6A
:10394400E5B4A2E750FAE5BAF50AE5BBF9E50AF5EC
:103954000CE9F50D7406780C121723E50D3395E088
:10396400F50EF50F9086147810121625780C791040
:103974001213979086107810121625780C7910126D
:1039840014B1850882850983780C1216340237999C
:10399400123CFD4003023A74A3E064296003023A36
:1039A40074742F1217A0E58265087004E583650915
:1039B400700302386B852182852283A3A38582212B
:1039C400858322851882851983AA82AB831203F02A
:1039D4001260536003023A74851882851983125B5E
:1039E4006D85088285098388088909750A00750B25
:1039F400007808121634023799740F1217A0E58262
:103A04006E7003E5836F700302386B8E828F83E5DB
:103A140010F0AE0CAF0D750E010237A2740512172B
:103A2400A01265FF400302386B8E828F83E510F08D
:103A3400AE0CAF0D8E828F837428F0A30EAF8380FB
:103A4400D5123CE3603EAA08AB09E8F9120402125D
:103A54003CC7501C74071217A0E5826E7003E583FF
:103A64006F70DE74021217A0E064027003023899CA
:103A7400E52570037525027A007B007C007D0074C7
:103A84002F022F61A3AE82AF8302379F123CE36003
:103A94002AAA08AB09E8F9120402123CC750D174EF
:103AA400071217A0E5826E7003E5836F70DE74025F
:103AB4001217A0E0640170B802389974031217A0B9
:103AC400C3E09EA3E09F40030237A2740F1217A025
:103AD400E58265087004E58365096094E50824FCC3
:103AE400F50AE50934FFF50B850A82F583780C1293
:103AF40016251259CE8E828F83E0F51024666068F5
:103B040014606B14606E24E0600B24FE603024DCCF
:103B14006075023BB690862C780C12131E40057813
:103B24000C1214EF850C10850D11850E12850F13E0
:103B3400850A82850B837810121634023A1A12040D
:103B4400988A108B11E4F512F5137810790C12147D
:103B5400B1850A82850B83E50CF0A3E50DF0A3E59E
:103B64000EF0A3E50F023C14AA0C7900800AAA0CFB
:103B740079018004AA0C7902120432850A82850B29
:103B84008312164F023A1A850D11E5115480600311
:103B9400023A74E4F510F51178101219BF7900ACEB
:103BA4000AAD0BAA0CAB0D1206DE740212176B02DF
:103BB4003A1A74BF2510C3941A505885188285196F
:103BC40083AA82AB83A9101203F01260536003022C
:103BD4003A7490862C780C12131E4003023A741225
:103BE4003D0CF510A3E034FFF511E4F512F513785C
:103BF40010790C1212F44003023A74EA250CF5828F
:103C0400EB350DF583E0850A82850B831265E5A308
:103C1400F08005A3AE82AF83023A1AE50EA2E0500B
:103C2400037510BB85100A749C250AF582748312EF
:103C34003CDDF50AEE24FFF8EF34FFF9888289832E
:103C4400E0FC74572CF50C74071217A0E5826E7013
:103C540003E5836F6019E50CC39413501274452572
:103C64000CF5827484123CDDFAE50AC39A501F7481
:103C74000F1217A0E5826E7003E5836F700302389C
:103C84006B8E828F83E510F0A3AE82023A411EE967
:103C9400FFAA08AB09ECF9120402123CC7409502D2
:103CA4003A7474131217A0E58265087004E58365FD
:103CB400096003023A74E50824FC126BFA121643F5
:103CC400023A838A088B098A828B83C3E51695821C
:103CD400E517958322F58208E63400F583E022EEA9
:103CE40024FF1EEF34FFFF8E828F83E0F8642822C6
:103CF400900300E8F0A3E9F022852182852283E085
:103D0400F974BF29C3941A22851882851983E0F8AF
:103D1400123D1822125A97A3E024F822C082C083CD
:103D24007A007B0C1205109002CF125FA27C007DFA
:103D34000C7900120492125A7F9002CF126CBC24A8
:103D440094F582E8340BF5838582268583278526BE
:103D540028F529120414D083D082020135C082C010
:103D6400837A2E7B851203D812594E1203C67A75B4
:103D74007B851203D87A657B861203D880D874F6C3
:103D84001217AC12060612040E123E031205EE12AE
:103D9400062AE960497A72790012060C1259AB407E
:103DA40006125B1312061212061E9002CFC3E09590
:103DB40023A3E0952450219002CF125A8D1219D6D4
:103DC40075080078081219C390860C1216437903FB
:103DD400120636740312176B123E031205EE022FFD
:103DE400C8C082C083800F79007A007B0012042649
:103DF400123E031205EE1205F4E970EB023D5AACD3
:103E040028AD297823E62402FA08E63400FB22745C
:103E1400E81217AC74F112175574021217A0E9F0E6
:103E2400752500EA4B7003023EFE9002D1125FA298
:103E3400AE23AF2474021217A0E06021782812592F
:103E44003AC3EA9EEB9F500302519A8A288B298A2F
:103E5400828B837445F0A37403F0A3E4F01203DEB1
:103E64008A828B83A3A3A3858221858322C3E52130
:103E74009EE5229F40030242C0A821A9228882898C
:103E840083A385822185832288828983E0121A0391
:103E94008028A540B9420F4156416D419341F241FA
:103EA4001C42EA3E7442A842F942F942984A274326
:103EB4004643A74B5B505B50B843E24D56442942FE
:103EC4006044B844EA444145604560456045A845BE
:103ED400B64523464147A5470F48BA48F4486A49BE
:103EE4008549B449C249852182852283E0640A60F8
:103EF400030242B9125A7F0242749002DDE4F0A335
:103F0400F0852382852483A3A385822185832212BD
:103F140003C0750A0074021217A0E50AF004F50A3A
:103F2400E0FA7821E62A123CD9640A70E8A80AC3A8
:103F3400E498FE95E0FF750B00780A1219BFAC21D6
:103F4400AD227828E62EFA08E63FFB12060074023A
:103F540012176B7828E62EFA08E63FFB8A218B229B
:103F64001203CC1203BA9002D1127258701985232D
:103F740082852483A3A3858221858322E0640A6049
:103F840003023E7D0240A19002D1E0F47003A3E05D
:103F9400F470030242B9782112593A8A218B22A87B
:103FA40021AA28EAC398F50A9002D1E088828B837B
:103FB400123CF8E50A88828B83A3A3F01203DE8AFD
:103FC400088B09AE08AF09EE65237003EF65246022
:103FD4004F8E828F83126C90E0687003A3E0697047
:103FE4003F8E828F83A3A3E0F88882AC82C3E49CD3
:103FF400FA95E0FB78231234C08A238B24EAC39514
:1040040008F50CEB9509F50D780C1219BFEE2CFC94
:10401400EF3400FDEEFAEFFB12047A740212176B10
:10402400852182852283A3A3A3E0640A606FAC2365
:10403400AD24850A8285820C750D007821E6C39C27
:10404400FA08E69DFBC3EA950CEB9400500779024D
:10405400740F022F61ECC39508F508ED9509F50975
:1040640078081219BFEEFCEFFDEE250AFAEF3400D2
:10407400FB120600740212176B780C1219BFAC21E4
:10408400AD22EEFAEFFB12047A740212176B782356
:10409400E6250AFA08E63400FB8A238B247901809A
:1040A400AF125C258A82F583E0C394804003024208
:1040B400B9740D1217A0AA82AB831203F68A088B77
:1040C40009AE08AF09EE4F70030242B9852182851B
:1040D4002283E064B560030242B9A385822185830B
:1040E4002279001204088A088B098C0A8D0BE525B5
:1040F40060030242B9740D1217A01260598E828FA8
:10410400836003024D2CEAF0024D317508017509F4
:10411400017E017F001203CC852182852283E06425
:104124000A60030242B99002CFE0F8A3E0F9E8651F
:10413400237003E965247003024D5C88828983122D
:1041440065F988828983A3A3E0FAE82AF8E93400B0
:1041540080DB125A7F7A72790012060C1259AB4036
:1041640022125B13120612801A7A77790012060C57
:1041740078239002CF126CA0E6C39AFC08E69BFD5C
:1041840012061812061E8523218524220242C079B4
:10419400001204088A08AF08E52560030242B9EF5B
:1041A40070030242BD1203BA125ACD5062E0F87491
:1041B40020686005740A6870597A72EFF912060C67
:1041C40012594450030242B974031217A0AA82ABD5
:1041D40083EEF91203F074031217A01260596003FE
:1041E400024E6774031217A0125AD7024E6B79005D
:1041F4001204088A08AF08E52560030242B9EF708B
:10420400030242BD1203BA125ACD5003024E741275
:104214005C2512061E0242B912594E1203C67A7563
:104224007B851203D8852182852283E0640A60039A
:104234000242BD025066A3A3A3A3E024BFFC12590B
:10424400905CFA852882852983A3A3A3A3A3E0C055
:10425400E0EAFBD0E0BB00028004C333DBFCFB7468
:1042640001BA00028004C333DAFC125A59125B8F7C
:10427400C3E5289526E5299527501985288285299F
:1042840083E024AD600624FD60AC80E1125AED1297
:104294000AAA80D99002CF125A8D12596350030290
:1042A4003E7D8018852182852283E024BFC3941A31
:1042B4005003024B93E5257003752501E525C333AF
:1042C400F8E433F974A028F582748439F583126C08
:1042D400A01203D8AC21AD22C3EC9523ED95244064
:1042E40003024A43E5257003024A4D9002CFE0FAE7
:1042F400A3E00249FA79001204088B098C0A8D0B99
:10430400E52570B1852182852283E0640A70AA12B2
:10431400593260030242297900A3858221858322D0
:10432400024A677900120408125A1E708885218295
:10433400852283E0640A70811203DE8A828B830201
:10434400429E7900120408125A1E60030242B98583
:104354002182852283E0640A60030242BDAE23AF5A
:1043640024852882852983A3A3A3A3A3C3E5829ECE
:10437400E5839F500302519A7828E624FB126C2CA3
:10438400A828F9888289837447F0A37405F0A3E40C
:10439400126C51E521F0A3E522F01203DE8A828B30
:1043A40083A3A3A3858221858322C3E5219EE522DD
:1043B4009F0242A1125A3C40030242B98815A385C8
:1043C40082218583221203BA852182852283E064B7
:1043D400B560030242B9A385822185832279001244
:1043E40004088A088B098C0A8D0BE52560030242B8
:1043F400B9A821A92288828983A385822185832261
:1044040088828983E064C260030242BD7900120499
:10441400088A0C8B0D8C0E8D0FE52560030242B9C2
:10442400A821A92288828983A38582218583228861
:10443400828983E064C36003024AFA7900120408A3
:104444008A108B118C128D13E52560030242B90288
:104454004B09C2AF75C9AB75C95B80FE125A3C40AB
:10446400030242B974021217A0E8125A291203BABD
:10447400852182852283E0642860030242B9A385F2
:1044840082218583227901120408E5256003024212
:10449400B9E4F50CF50D780C1219BF74041217A0C9
:1044A400E0F91203FC740212176BE5256003024263
:1044B400B90242297E0079021204088A08AF08E58D
:1044C4002560030242B91203BA852182852283E062
:1044D40064C46003024EBDA3858221858322EFF963
:1044E40012063002422979001204088A088B098CCA
:1044F4000A8D0BE52560030242B990862C780812D8
:10450400131E40030242BDA821A92288828983A3E5
:1045140085822185832288828983E0640A70E88504
:1045240021828522831219D6750C00780C1219C3C6
:104534007903120636740312176B0240A179001234
:1045440004088B098C0A8D0BE52560030242B9121D
:1045540059327003024F347901024F36125C25122E
:10456400042C74021217A0E9F0E52560030242B995
:10457400852182852283E064B560030242BDA38560
:10458400822185832279001204088B098C0A8D0B01
:10459400E52560030242B91259327003024D0A78CC
:1045A40003024D0C12596C50030250067525070284
:1045B40042C09003027401F0127255700A90030015
:1045C40074E1F0A37402F0852182852283E0F50A68
:1045D400750800750903246B70030253C424B87072
:1045E400030251A514601024FE70030251B5147027
:1045F4000302528D025436125B7750030249F112C2
:104604005BA57405F0900300E02401125A6DF08557
:104614002182852283A385822185832202422990D7
:104624000302E4126C75C39480508D7510007F00F2
:1046340079001204088A088B098C0A8D0BE5256021
:10464400030242B91203BA852182852283E024231E
:1046540060091470030251A00242B97E01A385824D
:1046640021858322E064DE70090E0EA385822185F4
:104674008322852182852283E064E3700AA38582F4
:1046840021858322751001852182852283E064E4DB
:104694007008A38582218583220F85218285228348
:1046A400E064D560030242BDA3E0648E600302426D
:1046B400BD852182852283A3A385822185832279D6
:1046C40000120408125A1E60030242B9125FA89035
:1046D400037F123CF778081219BB7C007D00790037
:1046E4007A027B001206D8740412176B7808121928
:1046F400BB7C007D0079007A037B001206D8740429
:1047040012176BEFA2E0B3E433F508E4F509F50AF8
:10471400F50B78081219BB7C007D0079007A237BA5
:10472400001206D8740412176B12071A7B00E510E6
:10473400A2E0E433FAEEF9120714024229790012D6
:1047440004088A088B09A909E52560030242B9AE69
:1047540008E9547FFFE9548070030254F1851882FC
:10476400851983AA82AB83852182852283E0F9128D
:1047740003F08A088B09AC08AD0912605360030288
:1047840042B990862C1219D274041217A0123D1249
:10479400F9EEFAEFFB1206D8740412176BE902441F
:1047A400B074051217A0E4F012042C74061217A0BA
:1047B400E9F0E52560030242B91203BAA821A9224F
:1047C40088828983A385822185832288828983E0E4
:1047D4002438600A24FE7003024F790249EB7407FF
:1047E4001217A07410126C75F8A385822185832298
:1047F400740A686003024F3C74081217A07418F01E
:1048040074091217A0125C25024F84750C0012045F
:104814002CE9FEE52560030242B9EE131313541F7D
:104824005407F50EEE54C0F50D7480650D700AE55D
:104834000EC3940440030250001203BAA821A92213
:1048440088828983A385822185832288828983E063
:10485400243560091460030249EB750C01A821A9F1
:104864002288828983A38582218583228882898301
:10487400E0648E60030249EB7900120408E52560C8
:10488400030242B9EEF912063CE97003025000A893
:104894000E7401B800028004C333D8FCF9E50D603E
:1048A40003024F97E58CA2E0E433450CF58CE94212
:1048B400ABD2BD02422912042CE9F8E525600302BB
:1048C40042B9E8131313541F5407FA7401BA0002CF
:1048D4008004C333DAFCF4FAE854C0FB6003024FEB
:1048E400DCEA52ABE5AB6003024FF7C2BD024FF7FF
:1048F400852182852283E0F874E868600302558C80
:10490400A385822185832279021204088A08AE08CD
:104914007902120408EAF50CE52560030242B9EEB7
:10492400C3940440030242BDEAC394044003024218
:10493400BD852182852283E0FF74E66F600874E7F9
:104944006F60030242BDA385822185832279001210
:104954000408E52560030242B974E66F600302555A
:10496400137820025515852182852283E024336043
:104974000914700302592A0242B99002D9E402468A
:104984001279001204088A0C8B0D8C0E8D0F780C92
:10499400121A7F0800000006B942AC49B942AC497A
:1049A400B942AC49B942AC49EA9009A7F00242299C
:1049B40012596C40030245B01204380244AEA821D7
:1049C400A92288828983A38582218583228882897A
:1049D40083E02428700302569B24FE700302569B36
:1049E40024F27003025665125C250242B97525054E
:1049F4000242C0E8FAE9FB8A828B83A3A3E0F8EAC7
:104A040028F8EB3400F9EA65237003EB6524600EA3
:104A1400C3EC9AED9B40DCC3EC98ED9950D5900221
:104A2400CD125FA2793E1205FA793E1205FA792079
:104A34001205FA7A0179001203E4790A1205FA746C
:104A44000465257004790280027901024054E970FA
:104A540003024AEE19852182852283A3A3E0FA1872
:104A640012598312596C505D7821E62403123CD903
:104A74002476600C14601114600924F760D080D58A
:104A84000980D2E970CF8062E970CA85822185836A
:104A940022023E7D7E001203BA852182852283E0B4
:104AA400640A60030242B9A38582218583228010AF
:104AB4001E852182852283A3A3E0FA7821125983DB
:104AC40012596C400A7A657B861203D80240A1858C
:104AD4002182852283A3A3A3E0F8748A6870030E5D
:104AE40080CF74956870CAEE70C685218285228352
:104AF400A3A3A3024619125C257510017511007554
:104B040012007513001203BA852182852283E064A2
:104B14000A60030242B97828E624F21259C050030D
:104B240002519A8A288B29AC28AD29851516751748
:104B340000740278161217427826E62516FA08E65B
:104B44003517FBEA24FCF582EB34FEF58378081272
:104B540016348C828D837446F0A3740EF0A3E41291
:104B640059EDE5151259E8780C1216348C828D83B0
:104B7400A3A3A3A3A3A3A3A37810121634EC240C19
:104B8400F582ED126C0AE521F0A3E5220249B0A3F7
:104B9400E0640A60030242B98009125AED120AAABB
:104BA400125B8FC3E5289526E52995274003024C1F
:104BB400FF852882852983E024BB603514603D1479
:104BC400600E24F460D424FD7003024CC302519A95
:104BD4001259D770CBA828A92988828983A3A3A3B3
:104BE400E0F521A3E0F52288828983125B950242D5
:104BF400291259D770AA125B8F0240A1127096082D
:104C0400E6122E9564897098AA28AB298A828B8330
:104C1400A3A3A3E0F508852182852283E0650860CB
:104C240003024BA47509007402780812174278260F
:104C3400E62508FC08E63509FDEC24FCFCED34FE11
:104C4400FDEA2408FEEB3400FF8C828D8378081281
:104C540016258E828F8378081215658C828D837851
:104C6400081216348E828F83780C121625EA2404D7
:104C7400F8EB3400F9E8FCE9FD908608780C12138F
:104C84001E50158C828D837808121309501F8A8256
:104C94008B83125B9502461390862C780C12131E9C
:104CA40040EC8C828D83780812131E50E1EA240CA8
:104CB400F582EB123CDDF521A3E0F522024229AC9A
:104CC40028AD29A3A3A3A3E024BFFE1259905EFA42
:104CD4008C828D83A3A3A3A3A3E0C0E0EAFBD0E06E
:104CE400BB00028004C333DBFCFB7401BA00028006
:104CF40004C333DAFC125A59024BA41259D7600385
:104D04000242B90242C0780474021217A0E048F0CB
:104D140074031217A0AC82AD8374021217A0AA8286
:104D2400AB8312043E0242297808121634740D1221
:104D340017A0126CAF126F3770030242291204627B
:104D44000242290509EEF8EFF97A0A7B001216CA25
:104D5400880A890BAE0AAF0BEE4F70E71203DE90A0
:104D640002CD125FA21231CCFEA3E0FFEE4F602908
:104D74001509EEF8EFF97A0A7B001216CA880A8937
:104D84000BAE0AAF0B80E5E508C394024002150898
:104D9400AA08A9091203E405089002CDE06523706E
:104DA40004A3E0652470030242299002CD125AC480
:104DB400247760111460D91460CD1460CA24FA6099
:104DC400CF24FD7009E508C3940240021508AA081F
:104DD400A9091203E480C2A3858221858322852147
:104DE40082852283E0640A7008790A1205FA024275
:104DF400291203D28A088B09AE08AF0974FF6E70BA
:104E04000374FF6F7050852182852283E0F8742239
:104E14006870030242B974276870030242B9742CA3
:104E24006860B474206860AF7902120408E52560F4
:104E3400030242B979001203C680A3A821A92288DB
:104E4400828983A385822185832288828983E0F9EC
:104E54001205FA1259CEEE4F70E185218285228324
:104E6400024DDB7C047D0012061212061E0242294A
:104E7400E0F87420686008740A6860030242167AD5
:104E840077EFF912060C12594450030242B9740B1D
:104E94001217A0AA82AB83EEF91203F0740B121757
:104EA400A0126059700A740B1217A0125AD780040A
:104EB4007C047D0012061880B179001204088A0C63
:104EC4008B0D8C0E8D0FE52560030242B91203BAD7
:104ED400852182852283E064C57008A385822185AB
:104EE40083220E852182852283E0648E6003024240
:104EF400BDA385822185832279001204088A088B48
:104F040009E52560030242B978081219BFEEF508D5
:104F140078081219C3AA0CAB0DAC0EAD0FEFF91241
:104F24000636740312176BE960030242290242B980
:104F3400790012062402422974C6687009740812A2
:104F440017A07420802A74C768700974081217A007
:104F54007428801C74C96860030249EB7409121731
:104F6400A0E054C060030242BD74081217A074305C
:104F7400F07409800874071217A07408F01217A0BF
:104F8400AC82AD8374051217A0AA82AB8312043ECF
:104F94000244AE7440650D7027E50EC39404E50C1D
:104FA4005013C333F8E58C540248F58CE9428D4321
:104FB4009A10024229333354FCF8E58C540480E9F6
:104FC400E50C33333354F8F8E58C540848F58CE990
:104FD40042AC439A0202422974406B700CEA528D2F
:104FE400E58D700F539AEF800AEA52ACE5AC70037A
:104FF400539AFD120642E96003024229752506020E
:1050040042C0A821A92288828983A385822185831D
:105014002288828983E0246B700302518A24BF6052
:105024001814700302517C14605314605014604DC2
:1050340014604A1460470242B97821E624FBF582E1
:1050440008E6126BFE125FAB900303123CF7900369
:10505400057401F0A3E4F0852182852283E0640ACB
:105064007012852182852283A31259634003024270
:10507400C0023E7DA385822185832280DA900305C8
:10508400E02401F0A3E03400F0A821A92288828959
:1050940083A385822185832288828983E0242860F2
:1050A400E81460E51460E21460D31460D0125C2547
:1050B400F583E0FE74BF2EFFC3941A40030242B985
:1050C400851882851983AA82AB83EEF91203F085D1
:1050D4001882851983125AC4644E600302505B78A7
:1050E40028E624F81259C0500302519A8A288B29C1
:1050F400851882851983125FA28518828519831207
:105104005A8D7456125AA5125A8DA37408F0A3E44A
:10511400125A9E7402125A9EA3EEF08F14EF125983
:10512400905514FA88828983E0C0E0EAFBD0E0BBA2
:1051340000028004C313DBFC5401C0E0851882859F
:105144001983E0FBA3E0F5838B82A3A3A3A3A3D0DD
:10515400E01259E3FBA3E0CB2406F582EB126C0AC0
:10516400125A07B800028004C333D8FCF974FFC391
:1051740099F8E0584902505A900305E02402F0A33C
:10518400E0340002505A120444E91470030242B994
:1051940014600302505B7525040242C07E0202467D
:1051A40076125B7750030249F1125BA5740602463E
:1051B40008A3858221858322E0F50A7427650A60A5
:1051C400097422650A60030242B91203D28A0A8B67
:1051D4000BAE0AAF0B74FF6E700374FF6F700302A3
:1051E40042B9125B7750030249F1181818E0F9E547
:1051F40008C398F8E50999F9E824FEF508E934FFAD
:10520400F509C3EE9508EF9509A2D265D033501A7B
:10521400EE04C0E0900300125A8DD0E0125B4B7490
:1052240009125B2E8E088F098015E50804C0E090F2
:105234000300125A8DD0E0125B4B7408125B2E7877
:10524400081219BFAC21AD22126C9D12047A7402AB
:1052540012176B900300E02508F8A3E03509F91252
:105264003CF4C3EE9415EF1259465004EEFA800252
:105274007A15AC21AD2279001209A87821E62EF521
:105284008208E63FF5830246191272557003024202
:10529400B9900300E0240108125B8250030249F133
:1052A4009003001265F9123CF4803E900300125FF3
:1052B400E5C3E5089AE5099B50030249F190030010
:1052C400125A8DE50C125B2E1203BA7A107902126F
:1052D40003EA8A0CE52560D3852182852283E06573
:1052E4000A60030242C0752500852182852283A3BA
:1052F400858221858322E0F50A740A650A7010EE1E
:10530400F8900300E0C398148E828F830249B0742E
:1053140027650A60067422650A7009A385822185BF
:10532400832280A474BF250AC3941A40030253B88D
:10533400A3E0F8740A68600874206860030242B944
:10534400851882851983AA82AB83A90A1203F012F5
:10535400605360030242B9126E32900300E028F8F1
:10536400A3E039F9E824F8F8E934FFF9C3E508982B
:10537400E5099950030249F1750A08850A0C851854
:1053840082851983E0F8126E38C3E50C98E49940DD
:10539400030252ED8A828B83E0C0E0900300125A2C
:1053A4008DD0E0F08A828B83A3AA82AB83125B2F19
:1053B400050A80C77420650A60030242B90252EDEF
:1053C400900300E064E17004A3E06402700A9003B7
:1053D40000E4F0A3F00242B9900302E0A2E0908658
:1053E4002C502B1219D27CE17D02900300E0C3946F
:1053F400E1F97A077B031206D8740412176B9086BE
:10540400081219D27C007D0079007A0580111219E6
:10541400D27CE17D02900300E0C394E1F97A087B39
:10542400031206D8740412176B900300E4F0A3026D
:1054340046127427650A60097422650A60030242F1
:10544400B912044AE970030242B9900317E0F890D4
:105454000300E028FAA3E034008A82F583A3A3C3FF
:10546400E5089582E509958350030249F1900317F5
:10547400E004C0E0900300125A8DD0E0125B422495
:10548400FE600B24FE600E24F460110242B9125F28
:10549400AF7403800C125FAF74058005125FAF74A4
:1054A40007125B42F50875090078081219BF7C07DA
:1054B4007D03126C9D12047A740212176B1203BAE4
:1054C400852182852283E064DF7012900300126CD0
:1054D400BC127099E8122E95C2E0125A2990031753
:1054E400E0F8900300E028125A6D0249B0790012E6
:1054F40004088A088B098C0A8D0BE5256003024297
:10550400B978081219BB7C007D00790002479578B0
:1055140000E50CC4333354C048F50CEA14600A1493
:10552400600C24FE60100242B9430C0F800BE50CA2
:10553400D2E4F50C8003430C11EEA2E19002D840B2
:1055440023E4F0EEA2E0400543F32C800343F42C63
:10555400A2E0E5F192E0F5F175C200850CC575860F
:10556400000242297401F0EEA2E0400543F33880C2
:105574000343F4E0A2E0E5F192E1F5F175FA008568
:105584000CFC75F80002422974E56860030242B914
:10559400A385822185832212042CE985188285192A
:1055A40083F04403C0E074011217A0D0E01259E361
:1055B400D2E2F0E52560030242B91203BA123CFDBF
:1055C40040030242BD74031217A0AA82AB831203E4
:1055D400F08A088B09AE08AF0974031217A0126091
:1055E4005960030242B9852182852283A3858221E1
:1055F40085832274011217A0AC82AD83851882853D
:105604001983AA82AB8312043E9002D8E0702374FB
:10561400031217A0125B6BE84960385386F98E8237
:105624008F83E0F5C1E586A2E150FAE5C1125A0F75
:1056340080E574031217A0125B6B801353F8F98E84
:10564400828F83E0F5F9A2F950FCE5F9125A0FE8CC
:105654004970E974021217A0AC82AD837401024D43
:105664001FAE23AF2412042CE99002DAF012042CAA
:10567400E99002DBF0E525701B9002DA125AE1AEE4
:1056840082AF839002DB125AE1AC82AD83AA23ABD2
:105694002412043E0244AE75100075110075080012
:1056A400750A00AE23AF247821E624FF08E6122E03
:1056B4009564D8700575090180037509008E828F81
:1056C4008374881259F6E4F0A3F0125976E4F0A337
:1056D4000E125B4F80020508852182852283E0F843
:1056E400740A68700302587B74D8687028A3858292
:1056F40021858322E50960030242B9E508700302AB
:1057040042B99002DA125A4BAE82125B4F7509010C
:10571400850A0B80157902120408EAF50BE5256069
:10572400030242B9E50870028A0AE509420B7A804D
:105734008E828F83A3A882A983E50B5A9002DB6033
:1057440005E044028003E044018E828F83F0E8FE8A
:10575400E9FF9002DAE04402F88E828F83F0A374AA
:1057640068F0A30E0EAF839002DAE04401F91259F7
:10577400FDEAC313FA70B99002DB125A4BE8F0A3A6
:105784007468123CF8A3AE82AF83E5097003025635
:10579400DA1203BA852182852283125B0840030250
:1057A40042B9A385822185832274091217A0AA8293
:1057B400AB83A90A1203F08A108B1174091217A083
:1057C400126059701974091217A0A3125FB2A3E0F2
:1057D40024F8F508FC7D007900120492800C8A827A
:1057E4008B831272FFA3F07508018E828F837488F5
:1057F400125A018E128F131259767401125A0190A3
:1058040002DAE04401FA1259FD9002DBE04402FBA3
:105814001259FD85080A8019EB8E828F83F00EE9F8
:10582400FFEC8E828F83F0A3125FA2A30E0E0EAF45
:1058340083850A0974FF2509F50A04603A780890FB
:1058440002DAE04402FC8E828F83F0A3746812595A
:10585400F69002DBE044058E828F83F0A3EAF0A386
:105864000E0EAF8318E870D7A3A983E50A60A99048
:1058740002DBE0440180A29002DBE044018E828FCF
:10588400831259F69002DA125ABD9002DB125ABD05
:10589400E51245136024851282851383EEF0A3EF8D
:1058A400F085080C750D007404780C121742AC0CCA
:1058B400AD0DF9EEFAEFFB120492EEFCEFFDAA2314
:1058C400AB2412043EE52560030244AEE512451301
:1058D40070030242297B00E50833333354F8F5089A
:1058E4007A018E828F83A30EAF8380267800EBC368
:1058F4003348FB74075A7011EB851082851183F0CD
:10590400A38582108583117B000AEE2402FEEF3406
:1059140000FFE508C39A50030242298E828F83E078
:1059240060CA780180C89002D97440024612EA45E0
:1059340009450A450B22E624FDFA08E634FFFB225A
:10594400C3EB9400A2D265D0332279287823E7C32D
:1059540096FA0809E796FB3395E0FCFD790022A34B
:10596400A3A3858221858322C3E5219523E522957E
:105974002422EE2402FEEF3400FF8E828F8322E67F
:105984002AFA08E63400FB8A218B222213131354CB
:105994001FFA7826E62AFA08E63400FBEA2468F8B7
:1059A400EB3400F97407228A088B09AC08AD09C3EB
:1059B400EC9401ED9400A2D265D03322FA08E634C7
:1059C400FFFBC3EA9523EB952422EE24FF1EEF345C
:1059D400FFFF2212709608E6126BFEE0648F22121B
:1059E4005AA5E0221259EDA322F08C828D83A3A341
:1059F400A322F0A3AE82AF83228E828F83F0A30E04
:105A0400AF8322126C58EAF8740122F0E824FF18DC
:105A1400E934FFF9A3AE82AF83229002D1EAF0A366
:105A2400EBF0E52522125A34A385822185832222B4
:105A3400F085218285228322852182852283E0F8D4
:105A440074BF28C3941A22125A4F22E044028E8251
:105A54008F83F0A322FA74FFC39AFA88828983E0C1
:105A64005A4BF09002D3E4F022125A7122F8A3E0C8
:105A74003400F9900300E8F0A3E9229002CFE0F5A6
:105A840023A3E0F524229002DD125A9122E0F812B9
:105A94005A9722A3E0F583888222125AA5125AAD9E
:105AA40022F085188285198322125AB122E0F8A3C4
:105AB400E0F5838882A3A3A322125A4F0EAF832258
:105AC400125AC822125AB1E022125C1574BF2EC3B6
:105AD400941A22123D18FCA3E034FFFD22125A4FFF
:105AE4007420F0A37458F0A322851882851983AC1E
:105AF40082AD83852882852983A3A3A3125AADA3EB
:105B0400125B2822E0F50A74BF250AC3941A229076
:105B140002CFE02CF8A3E03DF9882389249002CF3A
:105B2400125B2822E0FAA3E0FB22F0125B3322127C
