:020000040000FA
:0600000002011D02246450
:03002B00021EDED4
:03003300021E5F4B
:030053000224DAAA
:03006B00021D74FF
:03007B00021DE77C
:10008300022313E5C754F84401F5C77901220000A0
:100093000080FB120086B90003020107E47921788E
:1000A30011B800028004F709D8FCE479327802B869
:1000B30000028004F709D8FCE490028178C979072B
:1000C3008002F0A3D8FCD9FA781A90014D7A01BACC
:1000D30000028007E493A3F608DAF9900949AA829B
:1000E300AB8390014E783C79038015E493A3AC82F3
:1000F300AD838A828B83F0A3AA82AB838C828D83A8
:10010300D8E9D9E775821E7583E3740312012F754D
:100113008291758300740012012F75D00075813FA1
:10012300751881751902759F00020096C09FF59F8F
:10013300E473D09F22D083D082C09FE493C0E07445
:100143000193C0E0740293F59F220102B39401006E
:1001530000999402AF94010000DB9410C592030050
:10016300008C0202D794030000820202AF940100C4
:1001730000DA9410F59203000000000000A103953B
:1001830003828E95902591548FF98F4990FE8D842B
:10019300939691FE91AE93FC8EE090000056000082
:1001A300020000000030FF02020202020202020209
:1001B300010D000000100102B3940100009C9402A1
:1001C300AF94010000A50902D1940100002D0302A0
:1001D300AF94010000A60902CF94010000779302B7
:1001E300AF94010000A70902CD940100005C9302C3
:1001F300AF94010000A80902CB940100005E9202B3
:10020300AF94010000A90902C99401000070920291
:10021300AF94010000AA0902C7940100004C9202A6
:10022300AF94010000AB0902C59401000082920261
:10023300AF94010000AC0902C39401000040930293
:10024300AF94010000AD0902C194010000AE09FFA3
:10025300000000FF000801307503020106000000E2
:10026300000000000000000000000000000000008B
:10027300000000000000000000FFFF0600800CE803
:10028300031B082708FF0000B400002800280028EB
:100293003075A000A000A000A00000080008E00145
:1002A300F0001000100010001000100010005000AB
:1002B3005000500010001000D007000000000000A4
:1002C3000F0001000500307507001000010081FFD9
:1002D30000000000FF470965094D09FF02020208FB
:1002E300025000A0000000E80302B3940100009F45
:1002F3009402AF94010000DA0A02BF94010000687F
:100303000402AF94010000DB0A02D5940100007ED1
:100313000402AF94010000DC0A02AB9401000080E8
:100323000402AF94010000DD0A02A59408000081D5
:100333000402AF94010000DE0A02AD94010000DF65
:100343000AFF0100FF2002B394010000A29402AF50
:1003530094010000430B02BD94000000000002D78B
:1003630094030000CE048F0F8F0F8F0F8F0F8F0F0B
:100373008F0F8F0F8F0F8F0F8F0F8F0F8F0F8F0F8A
:100383009B12B31295121201387D9B03120138B5EB
:100393009C03120138359E031201388E9E0312010D
:1003A30038D29E03120138E49E031201389F9F0343
:1003B3001201384AA003120138E02A00120138FC66
:1003C3002A00120138D82C001201387E2D001201A8
:1003D30038E22D001201382D2E00120138562E005E
:1003E300120138922E00120138DF2F0012013861FA
:1003F30030001201384E310012013851320012011F
:10040300383234001201386A3A00120138AB3A002C
:10041300120138CC3A00120138443B001201387201
:100423003B00120138335500120138A05500120168
:1004330038F555001201388D56001201388E5800D8
:10044300120138495C001201383D6300120138265D
:100453006400120138AB6400120138AD650012016B
:10046300381E67001201385E6700120138E0680029
:1004730012013819A10312013823A10312013861B3
:10048300A103120138AAA103120138E4A103120146
:10049300383EA2031201385FA20312013868A20397
:1004A300120138B5A203120138DEA203120138E8A3
:1004B300A20312013854A303120138E6A303120165
:1004C3003830A40312013866A403120138F2A403DE
:1004D30012013833A5031201386AA5031201387CCF
:1004E300A5031201389BA503120138A4A503120129
:1004F3003871A60312013899FF01120138D5DE03C2
:1005030012013805FE021201383BFE021201387156
:10051300FE02120138BCFF021201380FE20312017E
:100523003825E2031201382FE20312013879E2037E
:1005330012013883BA0312013898BA0312013848FA
:10054300BB0312013888BB03120138A1BB0312019C
:1005530038DCBB0312013829BC031201385BBC032E
:100563001201389DBC031201389EBE0312013810DC
:10057300BF03120138B47F00120138C67F00120195
:10058300386DD00312013892D003120138BCD00366
:10059300120138A7E203120138C0E303120138B491
:1005A300E003120138C4E003120138CDE003120165
:1005B300385EE103120138D1DD0312013856DE0340
:1005C300120138BCDE03120138F87F001201387EB5
:1005D300D5031201380DD7031201386ED703120168
:1005E30038B4D703120138D5B50312013892B603D4
:1005F300120138C3B603120138DAB603120138EE1A
:10060300B60312013837B7031201383AB7031201A0
:10061300389EB703120138E1B70312013812B80349
:1006230012013896B803120138DFB8031201380BF0
:10063300B90312013835B903120138B0B9031201F5
:100643003806BA0312013859BA0312013866BA03DD
:1006530012013816DB0312013868DB03120138F28A
:10066300DB0312013859DC0312013839D3031201B9
:100673003863D30312013831D4031201380CD50384
:10068300120138B5F7011201387CF801120138B3B1
:10069300F801120138DDF8011201383DF9011201A8
:1006A3003893F901120138F8F90112013890FA016F
:1006B3001201389FFB0112013836FD01120138C3C4
:1006C300FD011201382AFE0112013841FE01120117
:1006D300385BFF01120138008002120138A4830243
:1006E3001201381286021201386C86021201388B0D
:1006F3008602120138098702120138828802120128
:10070300386E8902120138F18D02120138C18E024E
:10071300120138688F02120138A68F02120138B70E
:10072300D703120138CED703120138FFD7031201C2
:10073300383AD80312013864D8031201388ED8032B
:10074300120138A5D803120138BCD803120138D3DB
:10075300D803120138FCD8031201380FD903120150
:100763003825D90312013838D9031201385FD90368
:1007730012013896CE021201389ACF02120138D2F2
:10078300CF02120138F5CF0212013800D002120154
:100793003823D00212013832D10212013807D202B3
:1007A30012013882D2021201380AD30212013845EB
:1007B300D3021201387CD3021201380AD402120187
:1007C30038E3D40212013843D5021201384ED50260
:1007D300120138CDD502120138D0D502120138D317
:1007E300D50212013862D60212013865D60212010F
:1007F3003895D602120138BFD602120138ADD7029E
:100803001201385FD8021201389AE20212013892BB
:10081300E302120138C6E30212013848E40212016E
:100823003890E402120138F4E40212013881E5023F
:100833001201383BE6021201384AE902120138D5A7
:10084300EA02120138F8EA02120138329503120162
:10085300385A9503120138889503120138BF95035E
:100863001201381D9603120138AB9703120138F6B3
:10087300970312013841980312013881980312013A
:1008830038C79803120138F59803120138B2990357
:10089300120138BC9903120138C99903120138FCBB
:1008A3009903120138C89A03120138D49A0312012A
:1008B30038EC9A03120138F69A03120138D3DF0396
:1008C300120138EBDF0312013803E0031201381B76
:1008D300E00312013838AC0212013814AD021201E0
:1008E3003878AE02120138CFAE0212013850AF028F
:1008F30012013840B0021201388DB00212013813D0
:10090300B10212013845B10212013859B302120182
:10091300389BB302120138B9B3021201383CB40256
:1009230012013810B502120138D8B5021201384C41
:1009330087031201381F8803120138C88803120184
:10094300381B8903120138CB8903120138578A03F4
:10095300120138438B03120138728B03120138855D
:100963008C03120138CD8C03120138A28D031201BE
:1009730038DE8D03120138FA8D031201388AC3035E
:10098300120138A0C303120138C6C303120138E2AF
:10099300C403120138ECC40312013821C603120147
:1009A3003819C70312013823C703120138E5AB0313
:1009B30012013815AD0312013848AD031201389204
:1009C300AD0312013859AF03120138E0E7011201F8
:1009D300384AE801120138A9E90112013833EA0162
:1009E30012013843EA0112013870EA01120138CCCE
:1009F300EA01120138D3EB011201389DEC01120117
:100A030038FDED0112013840EE01120138E5EE0127
:100A130012013832EF0112013858EF011201386622
:100A2300F1011201386BF10112013870F301120167
:100A330038BDF30112013830F40112013863F401B7
:100A430012013805F501120138AEF501120138E63D
:100A5300F501120138E9F50112013831F6011201ED
:100A63003871F601120138C8F6011201389ACD0324
:100A7300120138B2CD03120138FACD031201381036
:100A8300CE0312013857CE031201386BCF03120184
:100A930038F8CF0312013843D003120138DC940134
:100AA3001201381795011201385C95011201381CA7
:100AB3009601120138AB96011201383197011201E8
:100AC30038969701120138C29701120138FB97013A
:100AD300120138399A011201381D9C0112013803A1
:100AE3009E01120138469F0112013894A10112019F
:100AF30038A6A201120138F1A30112013801A501A0
:100B03001201381EA50112013859A5011201387BC3
:100B1300A501120138DEA5011201389FAA011201B5
:100B23003834AB0112013886AB01120138A4AB0192
:100B3300120138FEAB01120138E7AC011201385D36
:100B4300AE01120138E1AE011201389FA603120172
:100B530038A9A603120138ECA60312013807A7032C
:100B630012013897A703120138BFA703120138FCFB
:100B7300A70312013833A8031201385CA80312013A
:100B830038D1A803120138E6A803120138FBA803E1
:100B93001201381DA90312013866A9031201388B0B
:100BA300A903120138C5A903120138F1A9031201DF
:100BB300381FAA031201386AAA0312013814AB03BF
:100BC3001201381FAB0312013868AB0312013892CC
:100BD300AB03120138BDAB03120138B8DC031201B9
:100BE30038B58F02120138E38F02120138319102B6
:100BF300120138119202120138309202120138ADFB
:100C03009202120138F09202120138469402120144
:100C130038F694021201382F9702120138B699025E
:100C2300120138579A021201384D9B021201384AB9
:100C33009C02120138A49D021201382F9E02120158
:100C430038597E00120138C27E00120138167F0027
:100C53001201383D7F001201386E7F001201381DEA
:100C6300BF031201388ABF03120138D1BF03120137
:100C730038E9C003120138E5C103120138C8C203C1
:100C83001201389CF502120138DEF502120138B068
:100C9300F60212013889F70212013883F8021201B1
:100CA3003865F902120138CEF90212013884FA02CA
:100CB300120138F8FA0212013864FB021201388D6E
:100CC300FB0212013807FC02120138A0FC021201D8
:100CD3003805FD021201381AFD0212013860FD02C7
:100CE30012013879FD02120138DEFD02120138E1EA
:100CF300FD02120138C7CA03120138EFCA031201F9
:100D0300382DCB03120138EBCB0312013852CC033D
:100D13001201386ECC0312013896CC03120138C687
:100D2300CC03120138D5CC0312013852CD03120182
:100D33003848AF0112013819B1011201382AB30141
:100D430012013866B30112013893B3011201387CE2
:100D5300B401120138C3B40112013804B501120100
:100D63003831B5011201387CB501120138C3B50120
:100D7300120138F1B50112013843B601120138D31B
:100D8300B60112013870B9011201388BBB0112018F
:100D930038C9BB011201383EBD0112013883BD01C0
:100DA30012013867BE011201386EC001120138E525
:100DB300C0011201382FC10112013850C1011201C3
:100DC30038F2C1011201384EC30112013823EC027B
:100DD300120138A2EC0212013864F20212013873D4
:100DE300F302120138DBF40212013872F502120128
:100DF300387D6900120138C66900120138F36900B1
:100E0300120138266A00120138336A001201383F92
:100E13006A00120138516A00120138386B0012015E
:100E230038966B00120138CB6B001201380E6D003F
:100E33001201385B6D00120138C76D001201387062
:100E43006E001201381E6F001201387C6F00120110
:100E530038EC6F001201384C7000120138B7710082
:100E6300120138C471001201380F72001201386C7C
:100E730072001201382B73001201385873001201EB
:100E830038D073001201382C7400120138767400C4
:100E93001201380C7500120138D775001201388C15
:100EA30076001201380177001201385C77001201D5
:100EB30038CC7700120138F777001201389978009F
:100EC300120138A97900120138E9790012013806B4
:100ED3007A00120138257A001201386C7A00120167
:100EE30038917A00120138C77A00120138417B0029
:100EF300120138827B00120138A67C001201384DA2
:100F03007D00120138A47D001201380E7E0012010B
:100F130038277E00120138D0D80212013823D902B3
:100F23001201382FD90212013804DA021201382BC8
:100F3300DA0212013866DA02120138D2DA02120139
:100F4300380EDB0212013847DB021201385FDB0285
:100F5300120138B4DB02120138CDDB02120138165C
:100F6300DC0212013829DC0212013843DC021201CF
:100F73003859DC021201388CDD02120138D3DE024B
:100F8300120138D5DF02120138CFE002120138F521
:100F93007F001201380CB103120138A2B103120110
:100FA3003859B20312013883B20312013876B403FD
:100FB3001201389EB503120138B7C301120138EB91
:100FC300C301120138D5CC0112013829CE01120117
:100FD3003822CF01120138A2D00112013884D10185
:100FE300120138BED101120138E1D10112013823B7
:100FF300D2011201382CD20112013876D20112012A
:101003003880D2011201382AD30112013803D401E6
:1010130012013857D401120138B9D4011201380C26
:10102300D5011201383BD50112013878D5011201DF
:101033003853D601120138BAD901120138C0D90187
:1010430012013842DF01120138BBE301120138916A
:10105300E7011201382DC703120138A3C703120198
:1010630038B9C703120138FAC70312013834C80369
:10107300120138ADC803120138E8C8031201385B06
:10108300C90312013899C903120138A2C903120115
:1010930038AEC903120138CAC903120138F5C903AE
:1010A3001201380BCA0312013834CA0312013897EC
:1010B300CA031201386F8E03120138828E031201A4
:1010C300389C8E03120138C58E03120138088F0332
:1010D300120138478F03120138858F03120138EA52
:1010E3008F03120138FF8F031201380A9003120194
:1010F300381790031201382E90031201383C9003E5
:101103001201384B900312013860900312013875B5
:1011130090031201388090031201388C900312015E
:10112300389F9003120138AA9003120138CD90031F
:101133001201387491031201388491031201389912
:101143009103120138B39103120138CE91031201B6
:1011530038EB9103120138F69103120138B292036E
:101163001201389E9303120138C39303120138CE40
:101173009303120138E39303120138F79303120127
:10118300385894031201385E9403120138649403AF
:101193001201386A9403120138829403120138B59C
:1011A3009403120138B59E02120138419F021201C5
:1011B30038A0A002120138C1A202120138ADA30265
:1011C300120138E2A30212013804A402120138B357
:1011D300A402120138ABA602120138D4A6021201EE
:1011E3003866A70212013898A702120138A5A70290
:1011F300120138FCA70212013822A8021201388F0B
:10120300AA0212013892AB02120138EAAB021201B0
:10121300381AB80212013824B80212013846B8024B
:1012230012013852B802120138EBB9021201381A0E
:10123300BA0212013836BB021201388FBB02120107
:101243003803BD0212013870BD02120138ABBD0272
:10125300120138EABD02120138A3C002120138BDDF
:10126300C00212013849C10212013857C1021201EA
:1012730038B0C102120138BEC10212013831C202B4
:1012830012013895C202120138DFC2021201386816
:10129300C3021201388AC302120138B0C502120117
:1012A30038C5C802120138DDC90212013890CA02DA
:1012B30012013872CB0212013871D9031201389628
:1012C300D90312013808DA0312013800800312012E
:1012D30038098003120138128003120138E98003B0
:1012E3001201389A8203120138D082031201380A9C
:1012F30083031201384083031201387A83031201F6
:1013030038AE8303120138DA8303120138238403CE
:101313001201385D8403120138A68403120138FEDA
:1013230084031201383385031201388E85031201B9
:1013330038C885031201381986031201384F860312
:10134300120138898603120138AC8603120138640E
:10135300E10312013890E103120138EBE1031201BA
:1013630038F5E10312013805E20312013876E3038D
:10137300120138A2E303E066701008A3E066700A66
:1013830008A3E066700408A3E06622E49366701382
:101393000874019366700C087402936670050874F0
:1013A30003936622C3E7960809E7960809E79608B8
:1013B30009E796A2D265D03322C3E09608A3E0964C
:1013C30008A3E09608A3E096A2D265D03322C00812
:1013D300C3E096F50808A3E096420808A3E0964206
:1013E3000808A3E0964208A2D265D033E50870014D
:1013F300D3D00822C3E7960809E7960809E79608B9
:1014030009E79622C3E09608A3E09608A3E09608AE
:10141300A3E09622C008C3E096F50808A3E096422D
:101423000808A3E096420808A3E09645087001D394
:10143300D00822C3E4939608740193960874029328
:1014430096087403939622080808EAC0E0EBC0E00C
:1014530086F0E7A4FA180986F0E7A42AFA180986A1
:10146300F0E7A42AFA180986F0E7A42AFA1986F005
:10147300E7A4FBE5F02AFA190886F0E7A42BFBE5BD
:10148300F03AFA190886F0E7A42BFBE5F03AFA18CC
:10149300180986F0E7A4C5F02BFBE43AFA1908E72C
:1014A300C5F0C6A426F6E5F03BFBE43AFA1886F04D
:1014B300E7A4F6E5F00826F6E43B08F6E43A08F676
:1014C300D0E0FBD0E0FA22E4CFC0E0E4CEC0E0E419
:1014D300CDC0E0E4CCC0E075F020C3E633F608E607
:1014E30033F608E633F608E633F6181818EC33FC3F
:1014F300ED33FDEE33FEEF33FFC3EC9709ED9709B0
:10150300EE9709EF97191919400FFFEC97FC09EDB6
:1015130097FD09EE97FE191906D5F0BEECF709ED14
:10152300F709EEF709EFF7191919D0E0FCD0E0FD40
:10153300D0E0FED0E0FF221215A21818181214CA28
:101543001215911919192212159119191908080858
:10155300E618181820E7E01214CA1215A218181872
:1015630022090909E719191920E7DC080808E61810
:10157300181820E7030214CA1215A2181818121417
:10158300CA1215A218181812159119191922E4C3B1
:1015930097F709E497F709E497F709E497F722E443
:1015A300C396F608E496F608E496F608E496F6225F
:1015B3006017080808C6A2E713C618C613C618C6DC
:1015C30013C618C613C6D5E0E9226016080808C674
:1015D300C313C618C613C618C613C618C613C6D572
:1015E300E0EA227009080808226016181818C6C312
:1015F30033C608C633C608C633C608C633C6D5E0E5
:10160300EA22E627F60809E637F60809E637F60878
:1016130009E637F622E026F608A3E036F608A3E04B
:1016230036F608A3E036F622E026F008A3E036F00B
:1016330008A3E036F008A3E036F022C3E697F608E5
:1016430009E697F60809E697F60809E697F622C32E
:10165300E096F008A3E096F008A3E096F008A3E074
:1016630096F022E056F608A3E056F608A3E056F6F5
:1016730008A3E056F622E056F008A3E056F008A3CC
:10168300E056F008A3E056F022E647F60809E647DD
:10169300F60809E647F60809E647F622E046F008A9
:1016A300A3E046F008A3E046F008A3E046F022E0FA
:1016B30066F008A3E066F008A3E066F008A3E0661E
:1016C300F022E0F608A3E0F608A3E0F608A3E0F6AC
:1016D30022E6F008A3E6F008A3E6F008A3E6F0226A
:1016E300E0FAA3E0FBA3E0FCA3E0FD22EAF0A3EB16
:1016F300F0A3ECF0A3EDF022CAC0E0E6F0A308DA11
:10170300FAD0E0FA22CAC0E0E0A3C582CCC582C504
:1017130083CDC583F0A3C582CCC582C583CDC583E4
:10172300DAE6D0E0CA22C3E498F8E499F912176A1A
:101733008026C3E49AFAE49BFBE920E7E912176ADF
:10174300E498F8E499F922C3E498F8E499F91217B4
:101753006AE498F8E499F9C3E49AFAE49BFB22EB70
:1017630020E7CFE920E7E0B90010BB0008E88AF0E2
:1017730084F8AAF022E4FBC8FA22EB70227B10C89B
:1017830033C8C933C9335007C39AC3DBF280069AFF
:1017930050012ADBEAC833F4C8C933F4C9FA227505
:1017A300F008E4C833C8C933C933C99AC99B500484
:1017B300C92AC93BD5F0ECFBC833F4C8E4C9FA2203
:1017C300600D08C6A2E713C618C613C6D5E0F322F8
:1017D300600C08C6C313C618C613C6D5E0F422703E
:1017E3000422600D18C6C333C608C633C6D5E0F459
:1017F3001822251810AF08F518400215198008F5AE
:101803001840021519D2AF22C0D0251810AF08F521
:1018130018500205198008F51850020519D2AFD0E7
:10182300D0222518F58210AF08F51840021519804B
:1018330008F51840021519D2AF851983222518F52A
:1018430082E43519F58322E4732518C582C0E0E5E7
:101853001934FFC583C0E0E518C3958224F810AF9F
:10186300088583198582188008858319858218D293
:10187300AFCEF0A3E520F0A37808E608F0A3DEFAE4
:10188300EFF0A3E58124FAF8E608F0A3E608F0A355
:10189300E608F0A30808E608F0A3E608F0A315811C
:1018A3001581D0E0FED0E0F8158115811581E8C0DF
:1018B300E0EEC0E0222518C582C0E0E51934FFC57B
:1018C30083C0E0E518C3958224F910AF0885831916
:1018D3008582188008858319858218D2AFCEF0A33C
:1018E300E520F0A37808E608F0A3DEFAEFF0A3E51D
:1018F3008124FBF8E608F0A3E608F0A30808E6084D
:10190300F0A3E608F0A315811581D0E0FED0E0F83E
:1019130015811581E8C0E0EEC0E0228519838518A2
:1019230082E0A3FEE0A3F5207808E0A3F608DFFA3F
:10193300E0A3FFE0A3C0E0E0A3C0E0E0A3C0E0E0D9
:10194300A3C0E0E0A3C0E010AF0885821885831927
:101953008008858218858319D2AFD083D082020193
:1019630035851983851882E0A3FEE0A3F520780866
:10197300E0A3F608DFFAE0A3FFE0A3C0E0E0A3C022
:10198300E0E0A3C0E0E0A3C0E010AF0885821885C3
:1019930083198008858218858319D2AFD083D082BA
:1019A30022C0D02518C582C0E0E51934FFC583C025
:1019B300E0E518C3958224F310AF08858319858267
:1019C300188008858319858218D2AFC8F0A3E9F07F
:1019D300A3EAF0A3EBF0A37908E709F0A3D8FAECA4
:1019E300F0A3EDF0A3EEF0A3EFF0A3D0E0F0A3D0CB
:1019F300E0F0A3D0E0F0A3E520F0A3E5F0F0A3220C
:101A0300851983851882E0C0E0A3E0F9A3E0FAA377
:101A1300E0FBA37808E0F608A3DFFAE0FCA3E0FD0F
:101A2300A3E0FEA3E0FFA3E0C0E0A3E0C0E0A3E0E7
:101A3300F5D0A3E0F520A3E0A3F5F010AF0885836C
:101A4300198582188008858319858218D2AFD082C0
:101A5300D083D0E0F8D0E0327404800674028002B0
:101A63007401C0E0F404121825D0E01216FB2274AE
:101A730004800474028000CCC0E0EDC0E0E518C32C
:101A83009CCCAD1950011D10AF068C188D19800622
:101A93008C188D19D2AF121708D0E0FDD0E0FC22CC
:101AA300D083D082C5F0E493A3C5F0C395F0F5F0DD
:101AB300E493A3C395F04005E5F0048001E475F0D9
:101AC30002A42582F582E5F03583F583E493A3C070
:101AD300E0E493C0E022D083D082E9C0E0E493A3A2
:101AE300C386F0C5F095F0F908E493A386F0C5F03A
:101AF30095F0700BE493A3C3994005E9048002A316
:101B0300E475F002A42582F582E5F03583F583D0F0
:101B1300E0F9E493A3C0E0E493C0E022D083D08251
:101B2300E9C0E0E493A3C386F0C5F095F0F908E4B7
:101B330093A386F0C5F095F0702408E493A386F090
:101B4300C5F095F0701908E493A386F0C5F095F0FD
:101B5300700E08E493A3C3994007E9048004A3A388
:101B6300A3E475F002A42582F582E5F03583F583BD
:101B7300D0E0F9E493A3C0E0E493C0E022D083D0A3
:101B830082CCC0E0E493A36006121BAA1470FAE4AB
:101B930093A36006121BC91470FAD0E0FCE493A36C
:101BA300C0E0E493C0E022C0E0E493A3D39C5010D0
:101BB300E493A3C39C400AD0E0D0E0D0E0021B9D95
:101BC300A3A3A3D0E022C0E0E493A36C7009D0E008
:101BD300D0E0D0E0021B9DA3A3D0E022D083D0822B
:101BE300ECC0E0EDC0E0E493A3FCE493A3FDED4C73
:101BF300600D121C2BEC24FFFCED34FFFD80EFE4A1
:101C030093A3FCE493A3FDED4C600D121C6AEC243A
:101C1300FFFCED34FFFD80EFD0E0FDD0E0FCE4936A
:101C2300A3C0E0E493C0E022C0E0C3E49396087449
:101C330001939618400FE493667008087401936645
:101C43001870007019A3A3C3E493960874019396C4
:101C530018A3A3400DD0E0D0E0D0E0021C1BA3A347
:101C6300A3A3A3A3D0E022C0E0C0F088F0E493666E
:101C730070080874019366187000A8F0A3A3700B92
:101C8300D0F0D0E0D0E0D0E0021C1BA3A3D0F0D072
:101C9300E022D083D082ECC0E0EDC0E0EEC0E0EF04
:101CA300C0E0E493A3FCE493A3FDE493A3FEE493D5
:101CB300A3FFEF4E4D4C6015121D11EC24FFFCEDFC
:101CC30034FFFDEE34FFFEEF34FFFF80E5E493A322
:101CD300FCE493A3FDE493A3FEE493A3FFEF4E4D33
:101CE3004C6015121D4EEC24FFFCED34FFFDEE3469
:101CF300FFFEEF34FFFF80E5D0E0FFD0E0FED0E051
:101D0300FDD0E0FCE493A3C0E0E493C0E022C0E094
:101D1300C0F088F0121436A8F0400712138EA8F012
:101D2300701AA3A3A3A3121436A8F0A3A3A3A340DA
:101D330013D0F0D0E0D0E0D0E0021CFBA3A3A3A318
:101D4300A3A3A3A3A3A3D0F0D0E022C0E0C0F08854
:101D5300F012138EA8F0A3A3A3A3700BD0F0D0E0CE
:0E1D6300D0E0D0E0021CFBA3A3D0F0D0E02221
:101D7400C0E074F01219A4A2AFE433FFD2AFE58936
:101D8400F8E5AB58F50A6051F4F589C2C57E008EBA
:101D940008750900740278081217E2121E5AC3E883
:101DA4009408E99400502BE85407F87401B8000231
:101DB4008004C333D8FC550A6018750800750901FE
:101DC400EE78081217E2AA08AB09900281E0F91232
:101DD40004CD0EEEC3940440B6EFA2E092AF7F03AD
:101DE400021A03C0E074F01219A4A2AFE433FFD2C4
:101DF400AFE58AF8E58D58F50A6059F4F58AC2EB27
:101E04007E008E08750900740278081217E2121E0B
:101E14005AE82400FAE934FFFBC3EA9408EB94007F
:101E2400502BE85407F87401B800028004C333D877
:101E3400FC550A6018750800750901EE7808121738
:101E4400E2AA08AB09900281E0F91204CD0EEEC3B8
:101E5400940440AE8083121EC7F922C0E074F012CD
:101E640019A4A2AFE433FFD2AFE58BF8E5AC58F583
:101E74000A604DF4F58BC2E87E008E087509007483
:101E84000278081217E2121EC7C39402402BE854CA
:101E940007F87401B800028004C333D8FC550A6003
:101EA40018750800750901EE78081217E2AA08AB44
:101EB40009900281E0F91204CD0EEEC3940440BAF5
:101EC400021DDD74602508F58274033509F583E08D
:101ED400F8A3E022C2AF02000022C0E0C0D0E8C0F4
:101EE400E0E9C0E0E5A8D2AFC2C7751A00A2E7A234
:101EF400E792AFD0E0F9D0E0F8D0D0D0E03274F57A
:101F04001218B8EAFEEBFFEE2434F8EF3400F98837
:101F1400088909EE243512202EF8EE243712202EDB
:101F2400F50AEC850AF0A4FCAAF0850AF0EDA42ACF
:101F3400FDE82CF8E43DF97A257B0012176AEA855E
:101F44000882850983F074075AF87401B800028086
:101F540004C333D8FCFBEA131313541FF8EE28F818
:101F6400EF3400F9E8245DF582E91220315B600367
:101F7400EA801CEE243612202EF5F0EA84A8F0EE56
:101F840028F8EF3400F9E82438F582E9122031F911
:101F94007F0402196474F51218B8EAFEEBFFEE240C
:101FA4003412202EC0E0EE2435F582EF3400F583A0
:101FB400D0E0F08E828F83A3A3A3A3A3E0FAA3E0CF
:101FC400FB8E828F83A3A3A3A3A3A3A3E0FCA3E01C
:101FD400FDECC39AF50AED9BF50BEE247FF508EFB3
:101FE4003400F509850882F583E06401702BEE2442
:101FF40080F582EF3400F583121A761220377402CA
:1020040012180BE960137C917D06EEFAEFFB120EB9
:10201400B7850882850983E4F0AC0AAD0BEEFAEFCC
:10202400FB121F02122AC9021F94F582EF3400F535
:1020340083E022C082C083851882851983E0F8A3D7
:10204400E0F9C3EA9CEB9D5010C3EC98ED99401B5A
:10205400C3EA98EB995014800EC3EA98EB994007B1
:10206400C3EC98ED994004790180027900D083D0C3
:102074008222EAC39CFAEB9DFB2274ED1218B890FD
:102084000557E064086005E06407702C9061C8E0BF
:102094006026900585E0F874FF68601CE875F0031D
:1020A400A4C8AAF02AF9748728FE740539FF8E8221
:1020B4008F83A3A3A3E07005790002221EEE246897
:1020C400F510EF3400F511906060E0851082851101
:1020D40083F0750A11750B07750800750900E5D9B9
:1020E40014F50EE5D95403F50F601CEE2482F50CAB
:1020F400EF3400F50D7403650F6058E50E6013EEC0
:10210400246712202E700B793DEEFAEFFB120EDBE2
:1021140080A690070CE064016026850C82850D83FF
:10212400E06004780480027800850E08E508C3980E
:10213400FA95E0FB120D438A088B09EA45097006FB
:102144001211870220BC850C82850D83E070048AFD
:102154000A8B0B78008016E5D9C0E08812E50A25C1
:1021640012F582E50B3400F583D0E0F008E8C3955E
:102174000E40E4850C82850D83E0602874FC250EF6
:10218400F50E780A121A5FAC0EA90FEEFAEFFB12E5
:102194000F89740212180BE9700AAA08AB09120617
:1021A4005902210B7403650F6058850E0C750D00E0
:1021B400780C121A5FAC0AAD0BAA08AB09120F4DCA
:1021C400740212180B851082851183E0F8748068FC
:1021D4007005750C7F8002880CE50CF50A780A12EC
:1021E4001A63E50FF50A780A121A63A90EAC08AD52
:1021F40009900585E0FA7B00120BDB740212180BC0
:102204008013900557E06408600BAC0AAD0BEEFA3E
:10221400EFFB12104312119379017F0C02196474BD
:10222400F31218B874FC1217F5EAFEEBFF8908A242
:10223400AFE433F509C2AFEE2463F50AEF3400F5D9
:102244000B8010AA0AAB0B120F05120659900698C0
:10225400E004F0850A82850B83E0F8A3E0F9E849FD
:10226400602FE82402FAE93400FBEA2402F50CEBBF
:102274003400F50D780C121A5F8A828B83E0FCA37C
:10228400E0F9EEFAEFFB120EF9740212180BE96092
:10229400B2900698E06057900699E0F8900698E0AE
:1022A400C398500C74026508704490069AE0603E2E
:1022B4008E828F83A3A3A3A3E0851882851983123A
:1022C40023027402121840E8122302900697E028B1
:1022D400F07402121840AC82AD838518828519838C
:1022E400AA82AB837901120BE7900698E4F0E50922
:1022F400A2E092AF740412180B7F06021964F0A3D3
:10230400E4F0900698E0F822852A87852BC622C03F
:10231400E074EF1219A4A2AFE433FEC2AF759B00C0
:10232400906182E0A2E05012E591A2E0500C759118
:10233400FE7401652A700312207EE0A2E55051E587
:1023440091A2E5504B7591DF900557E06407600555
:10235400E0640870237401652A703579019005855D
:10236400E0FA75F003A4CAA8F028FB74872AFA746B
:10237400053BFB1222238018E0640D70139005794D
:10238400E004F064287002E4F07A00E0F912119994
:10239400906182E0A2E6400302243AE591A2E6407D
:1023A4000302243A7591BF900557E0640570081242
:1023B4001085121091800312108B752A0012110FD0
:1023C400E9900558F079001210F1120E157A017B8C
:1023D40000900556E0F91204CD907803E064427051
:1023E40055900710E014F0704DC2AF1223F200783C
:1023F40033D0E0F618D0E0F6E59F54077005750970
:10240400FF800375097FC4C0E07832E6F50808E66A
:102414005509F509740B78081217D3D0E02508F88C
:10242400906270E0A2E740F8E8C333906272F090E3
:102434006270E0D2E0F0906181E0A2E35009E5E946
:10244400A2E3500375E9F7A3E0A2E75009E591A2DE
:10245400E7500375917FEEA2E092AF7F04021A0366
:10246400C0E0C0D0C082C083906183E0A2E0500984
:10247400E5BFA2E0500375BFFEE0A2E15009E5BF4D
:10248400A2E1500375BFFDE0A2E25009E5BFA2E25C
:10249400500375BFFBE0A2E35009E5BFA2E350037C
:1024A40075BFF7E0A2E45009E5BFA2E4500375BF8D
:1024B400EFE0A2E55009E5BFA2E5500375BFDFE0F8
:1024C400A2E65009E5BFA2E6500375BFBFD083D092
:1024D40082D0D0D0E032C0E074F21219A4E5A7A2F1
:1024E400E4500FE5A1A2E4500953A7EF75A1EF1240
:1024F400252EE5A7A2E5500CE5A1A2E5500653A7B9
:10250400DF75A1DFE5A7A2E15009E5A1A2E150032F
:1025140075A1FDE5A7A2E2500CE5A1A2E250065385
:10252400A7FB75A1FB7F01021A0374F81218B87592
:102534002A01900557E0640670077A007B001210A8
:102544006DA2AFE433FED2AF90055DE06401701874
:102554007A207B00900556E0F91205577A207B001B
:10256400900556E0F91204D3906182E0D2E6F0902F
:10257400070DE0602185C62B801690055CE06401A0
:102584007008E5C654F84405F5C653BEFC12230C86
:102594007401652A60E4EEA2E092AF7F010219643F
:1025A4008E2C8F2D85823185833085188285198301
:1025B400E0CEA3E0CF853182853083EBC9EAC8ED54
:1025C400CBECCA75F010C3E833C8E933C9EA33CA9F
:1025D400EB33CBC3EA9EF52FEB9FF52EB35004AB40
:1025E4002EAA2FEC33CCED33CDD5F0DAAE2CAF2DB3
:1025F4002274E91218B874FA1217F5EAFEEBFF8C8C
:10260400088D09900557E024F7C39405500675100A
:1026140001022720120FE38A0A8B0BEA450B700391
:1026240002271D1210A38A0C8B0D1210A3EA650C4D
:102634007003EB650D60ECEEFCEFFD8518828519E7
:1026440083AA82AB831210A9850A82850B83A3A374
:10265400780C1216C5909446780C1216668518826A
:1026640085198378141216C5909446781412166648
:10267400780C79141213F7501F780C791412163E43
:102684009093F2780C1214174047850C10850D11A5
:10269400850E12850F1380459093F28514108515CD
:1026A400118516128517137810790C12163E7810BE
:1026B400121417501C751000751100751200751353
:1026C400017810791412163E7810790C12160580D0
:1026D4000C751001751100751200751300740978DA
:1026E400101215E69093EE780C1216C57810790C3A
:1026F4001214CA900557E06408600AE06406600595
:10270400E0640570209093EA781012141750169024
:1027140093E67810121618800C7510007511007568
:10272400120075130085088285098378101216D467
:10273400740612180B7F1002196474F71218B81279
:1027440010BB90070BE064017010906245E4F0A3A5
:10275400F053F4F343FE0C5390F312105BE5C654AC
:10276400804449F5C6E59E547F644970F8906185BC
:10277400740FF0900709E0F47002A3E0602C750870
:1027840001750900900709E078081217E2E508F4DA
:10279400FAA3E0600814600A14600C800DEA528009
:1027A4008008EA52908003EA52A079007F0202195D
:1027B4006474F71218B8E9FEEAFF74016E700C7ABB
:1027C400807B00900556E0F91204CD902AD8E4935A
:1027D400F46008E493F9120DF7800953C680E59E6E
:1027E400547F70FA12106190070BE06401700312B9
:1027F4000E2D900709E0F47002A3E0602A75080129
:10280400750900900709E078081217E2AA08A3E006
:10281400600814600A14600C800DEA42808008EAA3
:1028240042908003EA42A0120FE38A088B09A808A9
:10283400A909E8496017E5E170FCE82414F582E988
:102844003400F583E0F874FF68600288E174016F76
:10285400700A7A01900556E0F91205270227B07430
:10286400F11218B88A088B098C0A8D0B909446785B
:1028740008121666740F121840780C1216C590943C
:1028840046780C1216667808790C1213F79093F2B6
:1028940050107808790C12163E7808121417401458
:1028A400800E780C790812163E780C121417500416
:1028B4007901800279007F0802196474ED1218B856
:1028C4008A088B098C0A8D0B909446780812166638
:1028D4007413121840780C1216C5909446780C1292
:1028E4001666780C79081213F740117808790C12DF
:1028F400163EAA08AB09AC0AAD0B80227510007510
:1029040011007512007513017810790C12163E78B7
:10291400107908121605AA10AB11AC12AD137F0C76
:1029240002196490944678081216C58A828B8378BB
:10293400081216797F0402196474F51218B88C828F
:102944008D8378081216C58A828B837808121652F2
:10295400122991C3E098F0A3E099122983401E90B4
:10296400944278081216C58A828B83780812162B33
:102974008E828F83E02420F0A3E0344EF080A4F014
:102984008E828F83C3E09420A3E0944E22EA240431
:10299400F8EB3400F9E8FEE9FF8C828D83A3A3A34E
:1029A400A3E0F8A3E0F98E828F832274F51218B89D
:1029B400E9FE9006ACE0FAA3E0FBEEC333F8E4339F
:1029C400F974B528F582749239F583E02AF508A3E1
:1029D400E03BF5097808121A5F9094561216E31238
:1029E40025A4740212180B8A088B098C0A8D0B74A7
:1029F4001078081215CDAA08AB097F040219647473
:102A0400F11218B88A0C8B0D8C0E8D0F740F1218DE
:102A140040E0FAA3E0FB7411121840E0F508A3E0CB
:102A2400F5097808121A5FEA2401F508EB3400F579
:102A340009E4F50AF50B780C790812144A909452BB
:102A440078081216C5780C790812144AAA0CAB0D32
:102A5400AC0EAD0F1225A4740212180B8B09EA45B3
:102A64000960047A0180027A00EC2AFCED3400FD4E
:102A74007413121840E0F8A3E0F9E8FEE9FFECF85B
:102A8400EDF97A717B0212176A88088909E4F50A5C
:102A9400F50B8E828F8378081216D4ECF8EDF97A50
:102AA400717B0212176A8A088B0974057808121759
:102AB400E28E828F83A3A3A3A3E508F0A3E509F024
:102AC4007F08021964C082C083E9906000F0D0835B
:032AD400D082228B
:102AD800FFFFFFFFFFFFFFFFC082C08385218285C4
:102AE8002283E06420700A852283A385822185835E
:102AF80022023AA474F412184CA821A922AC21ADE0
:102B080022801CA3AA82AB838A828B83E0F50A7495
:102B180020650A60EE7409650A60E8EAFCEBFDECE2
:102B2800FAEDFB8A828B83E075F00D84E5F033FEC5
:102B3800E433FF747F2EF58274093FF58312670F23
:102B48008004ECFAEDFB8A828B83E0F50A74276532
:102B58000A60067422650A703A122CCB8A828B832B
:102B6800A3AA82AB838A828B83E0FCA3AA82AB836D
:102B780088828983122CD1E50A6C609F740A6C7074
:102B8800E4E824FFF8E934FFF9EA24FFFAEB34FF1C
:102B9800FB8088740A650A701A88828983740AF02F
:102BA800026485AE08AF098A828B83A3AA82AB83AD
:102BB800E0F50A8E828F83A38582088583098E8239
:102BC8008F83E0650A60DCE0F50AC394804033C374
:102BD800E52198E522995008122CC4700318A9839E
:102BE800122CCB8E828F83E064806003022B1085C9
:102BF8000882850983E088828983F0A308A9830273
:102C08002B10EEFAEFFB8A828B83A3AE82AF838A06
:102C1800828B83E0C3948040E9EE24FF122CBE64CB
:102C28008070088E828F83A30EAF838E828F83E09D
:102C38006003022B4A8C828D831254865016122C04
:102C4800CB8C828D83A3AC82AD8312548640030261
:102C58002B2780EA88828983A3AA82AB83740965BB
:102C68000A60067420650A7036C3E52198E5229942
:102C78005010122CC4600B888289837420F0EAF803
:102C8800EBF98C828D83A3AC82AD83E0F50A7420C6
:102C9800650A60EE7409650A6003022B2780E388E1
:102CA800828983E50AF0EAF8EBF98C828D83A3AC7C
:102CB80082AD83022B27EF126249E0221266FCE004
:102CC80064202288828983E50AF0A3A882A9832246
:102CD80074E812184C8A108B118C128D13750C0A1B
:102CE800750D00750E00750F009093DE78101213A5
:102CF800D1401B792D1205F978101215A2800F907A
:102D0800944A78081216C5780C790812144A780C77
:102D180079101213A750E88036851014851115858F
:102D28001216851317850C08850D09850E0A850F5F
:102D38000B7814790812156490944A78081216C50D
:102D480078147908121564E5082430F91205F99009
:102D5800944A78081216C5780C7908121564122D51
:102D68006D70B6800CE50C450D450E450F22121806
:102D78000B7F1002191E74F612184C1203B9900238
:102D8800D1E4F0A312533A802B125C45E875F00A9F
:102D9800A4F8AAF075F00AE9A42AF9E50828F8E4E5
:102DA80039F9E824D0F8E934FFF99002D1E8F0A322
:102DB800E91253ECE0F50874D02508C3940A5015BD
:102DC8009002D1C3E09499A3E094199002D140B93C
:102DD80074FFF0A3F07F0202191EC082C0837A003C
:102DE8007B00852182852283E0F87422686005745F
:102DF8002768702A852283A38582218583228008FB
:102E0800EA24010AEB3400FB7921E72AF58209E775
:102E18003BF583E0F9E8696009740A6970E27AFFB2
:102E28007BFF023AA474F712184CEAFEEBFF800C01
:102E38001205F98E828F83A3AE82AF838E828F8331
:102E4800E0F970EC790A1205F97F0102191EC082B7
:102E5800C0839002CFE0FAA3E0800E8A828B83A31E
:102E6800A3E0F8EA28FAEB3400FBEA65237003EBE9
:102E7800652460138A82C082125C428B83D082C32D
:102E8800E098A3E09940D4023AA474F112184C894E
:102E980008750920122FC3A3E0F50B9002CDE0249A
:102EA80003122FD0AA0AAB0BE4FCFD1203C5800560
:102EB80079201205F985080B74FF250BF5080470B5
:102EC800EF8033A90A1205F98E828F83E0F50AA3F1
:102ED800AE82AF83E50AC3948040E8EE24FEF58213
:102EE800122CBEF50A7428650A600879201205F9C3
:102EF800750A20850A09122FC39002CDE024010823
:102F0800122FD1740A650A7003022FB9E50AC39417
:102F1800805007A90A1205F980D9750C7F750D092B
:102F2800802A7480650E7004ECF8EDF98882898334
:102F3800A3A882A983E8FEE9FF88828983E0702339
:102F4800E50C2402F50CE50D3400F50D850C8285A1
:102F58000D8312670FEE4F609AEEF8EFF980DAEC06
:102F6800F8EDF988828983A3AC82AD83888289834E
:102F7800E0C3948040E9E0F50EE50A650E70A3749D
:102F880080650A701E8C828D83E0FB9002CDE0FA8A
:102F9800A3E0F5838A82E06B70889002CDE024017B
:102FA800122FD074206509600579201205F9022EC8
:102FB800D0790A1205F97F0702191E9002CDE0F8B0
:102FC800A3125524E0F50A22F8A3E03400F9900290
:102FD800CDE8F0A3E9F02274F012184CE9FFEAFEFC
:102FE800750800750900750A00750B00802274D0F9
:102FF8002AFAEAC39E50518E0CE4F50DF50EF50F32
:103008007808790C12144A8A0C7808790C1216057B
:10301800EFF974FF291F046035852182852283E03A
:10302800FAA385822185832274D02AC3940A40BEDC
:1030380074BF2AC39406500474C980B4749F2AC309
:103048009406500474A980A8752502125596AA08FA
:10305800AB09AC0AAD0B02568874F412184C8908F7
:10306800EAFCEBFD9002D3E06508700D9002D412E3
:103078005C458C828D8302312C74BF2508F9850844
:103088000A750B007402780A1217E27826E6250AF8
:10309800FA08E6350BFBEA24FCFAEB34FEFBE913ED
:1030A8001313541FFE18E62EFE08E63400FFEE2424
:1030B80068F582EF123A31C0E0740759F8D0E0B8E9
:1030C80000028004C313D8FCA2E05063A828A929F1
:1030D800800D8882898312670EE82EF8E93FF9C3CC
:1030E800E89526E99527504788828983E0645670D9
:1030F800E1A3A3A3A3E0650870D88C828D83123165
:103108004888828983A3A3A3E06402602DE5089020
:1031180002D3F09002D4123148E82408F8E93400C8
:10312800F99002D61231489002D612659E800B8C17
:10313800828D83749BF0A37409F00264859002F970
:10314800E8F0A3E9F02274F212184CE9FE8A088B21
:1031580009A808A909123238EA24F8F8EB34FFF96B
:10316800C3E89523E9952450067525040232338572
:10317800080C85090DE50C2408F8E50D3400F91252
:1031880032388A288B29AC28FD8C828D837456F0BE
:10319800E50C2408A31231498C828D83A3A3A37460
:1031A80004F0EE8C828D83A3A3A3A3F074BF2EFF3B
:1031B80012537F5FFA88828983E0C0E0EAFBD0E09F
:1031C800BB00028004C313DBFC54018C828D83A3F3
:1031D800A3A3A3A3F08C828D83A3A3A3A3A3A31269
:1031E80053CAB800028004C333D8FCF974FFC399EA
:1031F800F8E05849F07828E62408FA08E63400FB95
:10320800740E121840E0FCA3E0FDEC4D600F780846
:10321800121A5F120479740212180B8009AC08ADF7
:103228000979001204919002D3E4F07F0602191E76
:10323800C312323D22E498FAE499FB782812324905
:1032480022E62AFA08E63BFB2274F012184CE9FE43
:10325800EA24FCFCEB34FFFD74BB6E701A8C828D83
:103268008378081216C578081215A28C828D837887
:10327800081216D402342FECFAEDFBEA24FCFCEB1E
:1032880034FFFDEE121AA3AB0F2334B332C732DB7F
:1032980032F7321B334B33603375338A339933AF8C
:1032A80033C533C533DB33F13399338A828B837863
:1032B800081216C58C828D83780812162B80B58A61
:1032C800828B8378081216C58C828D837808121633
:1032D8005280A18C828D8378081216C58A828B83CE
:1032E800780C1216C57808790C12144A0234188A18
:1032F800828B83780C1216C5122D6D700302342848
:103308008C828D8378081216C57808790C1215649A
:103318000234188A828B83780C1216C5122D6D70B0
:10332800030234288C828D8378081216C5780879B0
:103338000C121564850C08850D09850E0A850F0B7E
:103348000234188A828B8378081216C58C828D8382
:10335800780812167902342F8A828B83780812161D
:10336800C58C828D83780812169F02342F8A828B2F
:103378008378081216C58C828D8378081216B202DB
:10338800342F8A828B8378081216C58C828D8380AD
:103398004F8A828B8378081216C58C828D837808B1
:1033A800121379605C80568C828D8378081216C55A
:1033B8008A828B8378081213BC504680408A828B9D
:1033C8008378081216C58C828D8378081213797059
:1033D80030802A8C828D8378081216C58A828B8366
:1033E80078081213BC401A80148A828B83780812DA
:1033F80016C58C828D8378081213BC5004D2F080D5
:1034080002C2F0A2F0E433F508E4F509F50AF50B79
:103418008C828D8378081216D4800C75250280035F
:103428007525037A007B0002568874E812184C74DC
:10343800E51217F57402121840E9F0750E01E5253A
:1034480060030237CC740B12184085820885830903
:103458007403121840AE82AF837406121840A88213
:10346800A9837409121840123148740312184018BD
:103478001818A9837407121840123148740B1218CF
:10348800408582168583178055741B121840E58283
:1034980065087004E583650970030235BC852182DF
:1034A800852283E0F50A750B007402780A1217E288
:1034B80074A5250AF582748F350BF5831216E385FA
:1034C80008828509831216EF852182852283A385C8
:1034D8008221858322851408851509750E008521AA
:1034E80082852283E0F510A38582218583227821B5
:1034F800126295EAF8EBF9E5082404F514E50934B5
:1035080000F5158E828F83A385820C85830D8E0A24
:103518008F0BE510121B80029D9F7137ADBA7C3965
:103528000F0AE63520E634284E3729F4372CA93718
:10353800809134AB7C39AC7339BC7137BDE536BE8C
:103548007137BF2836C06036C11236E0713758353A
:1035580074D02510C3940A5031741B121840E582A8
:1035680065087004E5836509604A882189227A0A1A
:1035780079FF1203E98508828509831216EF8514FD
:10358800088515097525000234E374BF2510C39416
:103598001A504B851882851983AA82AB83A9101209
:1035A80003EF12649F70137409121840123A4850BE
:1035B800030237607525040237CC741B121840E5E6
:1035C8008265087004E583650960E98A828B831245
:1035D80016E38508828509831216EF0234DD8821F7
:1035E80089227407121840C3E09EA3E09F4003029B
:1035F80039FA1253A8AA08AB098E828F83E0F91210
:1036080003FB123A1B40DB0237C5741B121840E556
:103618008265087004E583650960997A1002357837
:103628001203B9A821A92288828983A385822185CA
:10363800832288828983E0642960030237C5741B6A
:10364800121840E58265087004E583650970030275
:1036580035BC1206470235DA1203B9A821A9228817
:10366800828983A385822185832288828983E06475
:103678002960030237C5741B121840E5826508707B
:1036880004E583650970030235BC75B61FE5B4A26D
:10369800E750FAE5BAF50AE5BBF9E50AF50CE9F5EC
:1036A8000D7406780C1217C3E50D3395E0F50EF589
:1036B8000F90942A78101216C5780C791012144AB3
:1036C80090942678101216C5780C79101215648516
:1036D8000882850983780C1216D40234DD1253F758
:1036E80040030237C5A3E0642960030237C5741B91
:1036F800121840E58265087004E5836509700302C5
:1037080035BC852182852283A3A3858221858322D6
:10371800851882851983AA82AB831203EF12649FEE
:1037280060030237C58518828519831254D8850825
:103738008285098388088909750A00750B0078084D
:103748001216D40234DD7407121840E5826E700335
:10375800E5836F70030235BC8E828F83E510F0AE6F
:103768000CAF0D750E010234E67409121840123AB6
:103778004840030235BC8E828F83E510F0AE0CAF53
:103788000D8E828F837428F0A30EAF8380D5123AF2
:1037980037603EAA08AB09E8F91203FB123A1B503E
:1037A8001C7403121840E5826E7003E5836F70DEA7
:1037B8007402121840E0640270030235EAE52570CD
:1037C800037525027A007B007C007D00741B022DA6
:1037D80076A3AE82AF830234E3123A37602AAA088E
:1037E800AB09E8F91203FB123A1B50D17403121803
:1037F80040E5826E7003E5836F70DE740212184034
:10380800E0640170B80235EA7407121840C3E09EFC
:10381800A3E09F40030234E6740B121840E582656A
:10382800087004E58365096094E50824FCF50AE559
:103838000934FFF50B850A82F583780C1216C51238
:1038480053A88E828F83E0F5102463606814606B40
:1038580014606E24E3600B24FE603024DE60750281
:1038680039079093DE780C1213D14005780C1215A5
:10387800A2850C10850D11850E12850F13850A82FD
:10388800850B8378101216D402376B1204978A10AE
:103898008B11E4F512F5137810790C121564850A6A
:1038A80082850B83E50CF0A3E50DF0A3E50EF0A3EC
:1038B800E50F023968AA0C7900800AAA0C79018000
:1038C80004AA0C7902120431850A82850B83121628
:1038D800EF02376B850D11E511548060030237C57F
:1038E800E4F510F5117810121A5F7900AC0AAD0BE7
:1038F800AA0CAB0D1206DD740212180B02376B749A
:10390800BF2510C3941A505B851882851983AA8233
:10391800AB83A9101203EF12649F60030237C590AE
:1039280093DE780C1213D140030237C5123A53F5CF
:1039380010A3E034FFF511E4F512F5137810790CB3
:103948001213A740030237C5EA250CF582EB350DA3
:10395800F583E0850A82850B83F0A3E4F0A3F0A346
:10396800F08005A3AE82AF8302376BE50EA2E0506C
:10397800037510BB85100A74E9250AF58274911243
:103988003A31F50AEE24FFF8EF34FFF9888289838B
:10399800E0FC74552CF50C7403121840E5826E7027
:1039A80003E5836F6019E50CC394115012749425D4
:1039B8000CF5827492123A31FAE50AC39A501F74D0
:1039C80007121840E5826E7003E5836F70030235B5
:1039D800BC8E828F83E510F0A3AE820237921EE977
:1039E800FFAA08AB09ECF91203FB123A1B40950237
:1039F80037C5740F121840E58265087004E58365C1
:103A08000960030237C5E50824FC1262451216E373
:103A18000237D48A088B098A828B83C3E51695827C
:103A2800E517958322F58208E63400F583E022EE57
:103A380024FF1EEF34FFFF8E828F83E0F864282274
:103A4800126499C3E50A98E50B99228518828519AD
:103A580083E0F8123A5F22A3E0F5838882A3E0248A
:103A6800F822C082C0837A007B0C12050F9002CF27
:103A78001262B67C007D0C790012049112542790D2
:103A880002CF12630D2494F582E8340BF583858206
:103A980026858327852628F52912040DD083D08210
:103AA800020135C082C0837A147B931203D7125364
:103AB8004C1203C57A6A7B931203D77A967B9412C9
:103AC80003D780D874F612184C1206051204071290
:103AD8003B621205ED120629E960497A72790012F3
:103AE800060B123B2F400612549112061112061DA6
:103AF8009002CFC3E09523A3E0952450219002CFF4
:103B0800125435121A767508007808121A639094C0
:103B18001A1216E37903120635740312180B123BB6
:103B2800621205ED022DDD8A088B09AC08AD09C3C8
:103B3800EC9401ED9400A2D265D03322C082C083F8
:103B4800800F79007A007B0012041F123B62120575
:103B5800ED1205F3E970EB023AA4AC28AD297823FD
:103B6800E62402FA08E63400FB2274E812184C74C2
:103B7800F41217F57402121840E9F0752500EA4BA3
:103B88007003023C619002D11262B6AE23AF247476
:103B980002121840E060217828125342C3EA9EEBD3
:103BA8009F5003024E9B8A288B298A828B837445F7
:103BB800F0A37403F0A3E4F01203DD8A828B83A3DD
:103BC800A3A3858221858322C3E5219EE5229F4008
:103BD80003023FBEA821A92288828983A385822166
:103BE80085832288828983E0121AA3802A013EB73E
:103BF8003F7F3E9B3EB23ED83E393F5C3F4D3C8BBB
:103C08003FA63F113EF73FF73FC447693F29404B66
:103C180040D0483D433D43BA40294B584162417327
:103C280041CB41FD4154427B429E429E429E42D935
:103C3800426343D043EF445345BC4527465D46D3D2
:103C480046EE461D47852182852283E0640A60038B
:103C5800023FB7125427023F8B852382852483A312
:103C6800A38582218583221203BF750A00850A1560
:103C780074012515F50A8515087821E62508123AF4
:103C88002D640A70E8A80AC3E498FE95E0FF750B56
:103C980000780A121A5FAC21AD227828E62EFA08BD
:103CA800E63FFB1205FF740212180B7828E62EFA7D
:103CB80008E63FFB8A218B221203CB1203B990023C
:103CC800D11268DA7019852382852483A3A385829B
:103CD80021858322E0640A6003023BDC023DFD90FB
:103CE80002D1E0F47003A3E0F47003023FB7782137
:103CF8001253428A218B22A821AA28EAC398F50ADE
:103D08009002D1E088828B83123149E50A88828B40
:103D180083A3A3F01203DD8A088B09AE08AF09EE6E
:103D280065237003EF6524604F8E828F831262EEE5
:103D3800E0687003A3E069703F8E828F83A3A3E0DD
:103D4800F88882AC82C3E49CFA95E0FB78231232AF
:103D5800498A238B24EAC39508F50CEB9509F50DE0
:103D6800780C121A5FEE2CFCEF3400FDEEFAEFFB34
:103D7800120479740212180B852182852283A3A369
:103D8800A3E0640A606FAC23AD24850A8285820CA7
:103D9800750D007821E6C39CFA08E69DFBC3EA95F9
:103DA8000CEB940050077902740C022D76ECC39545
:103DB80008F508ED9509F5097808121A5FEEFCEF89
:103DC800FDEE250AFAEF3400FB1205FF7402121803
:103DD8000B780C121A5FAC21AD22EEFAEFFB12043D
:103DE80079740212180B7823E6250AFA08E63400DB
:103DF800FB8A238B24790180AF1255968A82F5833A
:103E0800E0C394804003023FB71253F74003023FD8
:103E1800B7A38582218583227406121840AA82AB33
:103E2800831203EF8A088B09AE08AF0974061218CB
:103E3800401254CD24FE600A24FE7003024A480250
:103E48003FB7852182852283E064B76003023FB7CC
:103E5800A385822185832279001204018A088B09AF
:103E68008C0A8D0BE5256003023FB78E828F83781D
:103E7800081216D4024ACF7E011203CB852182850F
:103E88002283E0640A6003023FB71203DD1262B3C3
:103E9800024AEC1254277A72790012060B123B2F51
:103EA8004022125491120611801A7A77790012066C
:103EB8000B78239002CF12659EE6C39AFC08E69B16
:103EC800FD12061712061D852321852422023FBEF6
:103ED80079001204018A08AF08E5256003023FB79C
:103EE800EF7003023FBB1203B9125461505EE0F851
:103EF8007420686005740A6870557A72EFF91206C2
:103F08000BC3EB123B3C5003023FB7740A12184034
:103F1800AA82AB83EEF91203EF740A1218401264F6
:103F2800A56003024BAC740A121840125457024B96
:103F3800B079001204018A08AF08E5257071EF60B6
:103F4800721203B91254615003024BB912559612FA
:103F5800061D805B12534C1203C57A6A7B931203C9
:103F6800D7852182852283E0640A70470243488509
:103F78002882852983E06453700612546B120AAFB5
:103F88001254FAC3E5289526E529952740E19002C1
:103F9800CF12543512535F5003023BDC8018852141
:103FA80082852283E024BFC3941A50030248BCE5EB
:103FB800257003752501E525C333F8E433F9743218
:103FC80028F582749339F58312659E1203D7AC21C4
:103FD800AD22C3EC9523ED95244003024770E525F7
:103FE800700302477A9002CFE0FAA3E002472C79E7
:103FF800001204018B098C0A8D0BE52570B185210F
:1040080082852283E0640A70AAEA4509450A450BBD
:104018006003023F697900A38582218583220247D4
:104028009479001204011253E1708485218285225B
:1040380083E0640A6003023FBB1203DD8A828B833C
:10404800023F9C79001204011253E16003023FB75A
:10405800852182852283E0640A6003023FBBAE2388
:10406800AF24852882852983A3A3A3A3A3C3E582BC
:104078009EE5839F5003024E9B7828E624FB12623C
:1040880087888289837447F0A37405F0A3E41262D9
:10409800A3E521F0A3E522F01203DD8A828B83A336
:1040A800A3A3858221858322C3E5219EE5229F0261
:1040B8003F9F1254064003023FB78814A38582210C
:1040C8008583221203B9852182852283E064B76043
:1040D80003023FB7A3858221858322790012040158
:1040E8008A0C8B0D8C0E8D0FE5256003023FB7A857
:1040F80021A92288828983A38582218583228882B7
:104108008983E064C26003023FBB79001204018A1C
:10411800108B118C128D13E5256003023FB7A8217F
:10412800A92288828983A38582218583228882891E
:1041380083E064C3600302482679001204018A08F8
:104148008B098C0A8D0BE5256003023FB7024835C1
:10415800C2AF75C9AB75C95B80FE85218285228394
:10416800E0640A6003023FB7023FBE1254064003F0
:10417800023FB77402121840E81253EC1203B985D3
:104188002182852283E064286003023FB7A38582E9
:10419800218583227901120401E5256003023FB7D6
:1041A800E4F50CF50D780C121A5F7404121840E04F
:1041B800F91203F5740212180BE5256003023FB7E4
:1041C800023F697E0079021204018A08AF08E525DA
:1041D8006003023FB71203B9852182852283E06418
:1041E800C46003024C04A3858221858322EFF9125F
:1041F800062F023F6979001204018A088B098C0A8C
:104208008D0BE5256003023FB79093DE7808121303
:10421800D14003023FBBA821A92288828983A385B4
:10422800822185832288828983E0640A70E8852157
:1042380082852283121A76750C00780C121A63791B
:1042480003120635740312180B023DFD790012049F
:10425800018A088B098C0A8D0BE5256003023FB79C
:104268009093DE78081213D14003023FBB12064D2B
:10427800023F6979001204018B098C0A8D0BE52530
:104288006003023FB7EA4509450A450B7003024C33
:104298007B7901024C7D125596120425E9FEE5252D
:1042A8006003023FB71203B9852182852283E06447
:1042B800B76003023FBBA385822185832279001260
:1042C8000401E5256003023FB7EEF912042B023F13
:1042D80069A821A92288828983A3858221858322CE
:1042E80088828983E024697003024E8B24C3602787
:1042F800147003024E7D147003024D801470030283
:104308004D80147003024D80147003024D801470A8
:1043180003024D80023FB77821E624FBF58208E6C8
:10432800126249125C459002FC1231489002FE74F8
:1043380001F0A3E4F0852182852283E0640A7012EB
:10434800852182852283A312535F4003023FBE0268
:104358003BDCA385822185832280DA9002FB7401ED
:10436800F01268D7700A9002F974DAF0A37402F0B8
:10437800852182852283E0F50A7508F975090224EA
:104388006970030250BF24BC7003024EA61460106B
:1043980024FE7003024EB6147003024F8802513196
:1043A8001254E250030247231255107405F090028C
:1043B800F9E02401125415F0852182852283A38512
:1043C8008221858322023F699002FBE412533AE07E
:1043D800C39480508C7510007F0079001204018A04
:1043E800088B098C0A8D0BE5256003023FB7120381
:1043F800B9852182852283E024256009147003028F
:104408004EA1023FB77E01A3858221858322E06405
:10441800DC70090E0EA38582218583228521828581
:104428002283E064E1700AA38582218583227510C6
:1044380001852182852283E064E27008A3858221B8
:104448008583220F852182852283E064D36003025D
:104458003FBBA3E064906003023FBB8521828522B5
:1044680083A3A38582218583227900120401125334
:10447800E16003023FB7125C42900378123148783A
:1044880008121A5B7C007D0079007A027B00120614
:10449800D7740412180B7808121A5B7C007D007917
:1044A800007A037B001206D7740412180BEFA2E0FF
:1044B800B3E433F508E4F509F50AF50B7808121AA0
:1044C8005B7C007D0079007A237B001206D7740498
:1044D80012180B1207197B00E510A2E0E433FAEE7C
:1044E800F9120713023F6979001204018A088B093F
:1044F800A909E5256003023FB7AE08E9547FFFE943
:10450800548070030251EA851882851983AA82AB08
:1045180083852182852283E0F91203EF8A088B09BB
:10452800AC08AD0912649F6003023FB79093DE1296
:104538001A727404121840123A59F9EEFAEFFB1283
:1045480006D7740412180BE90241C3740312184009
:104558007401F0120425E9FE7404121840E9F0E52C
:10456800256003023FB71203B9A821A922888289CE
:1045780083A385822185832288828983E024386009
:104588000F147003024CA2147003024CB3024621AC
:10459800852182852283E0F8A38582218583227480
:1045A8000A686003024C8312559674051218407409
:1045B80003024CBA750C00120425E9FEE5256003D8
:1045C800023FB7EE540FF50EEE54F0F50D7420656A
:1045D8000D700AE50EC394044003024D7A1203B924
:1045E800A821A92288828983A3858221858322889C
:1045F800828983E02435600614701E750C01A82199
:10460800A92288828983A385822185832288828939
:1046180083E064907003024CD3125596023FBB129C
:104628000425E9FAE5256003023FB7750801750915
:1046380000EA540F78081217E2E508F4F8EA54F093
:10464800F96003024D54E852ABE5AB6003024D6FCD
:10465800C2BD024D6F852182852283E0F874E66829
:104668006003025285A38582218583227902120480
:10467800018A08AE087902120401EAF50CE5256002
:1046880003023FB7EEC394044003023FBBEAC3945E
:10469800044003023FBB852182852283E0FF74E446
:1046A8006F600874E56F6003023FBBA385822185B4
:1046B80083227900120401E5256003023FB774E400
:1046C8006F600302520C782002520E8521828522E7
:1046D80083E024336009147003025332023FB79019
:1046E80002D9E40243BF79001204018A0C8B0D8CB5
:1046F8000E8D0F780C121B1F0800000006B73F151F
:1047080047B73F1547B73F1547B73F1547EA9009E1
:10471800A3F0023F691204370241C1752505023F23
:10472800BEE8FAE9FB8A828B83A3A3E0F8EA28F8BB
:10473800EB3400F9EA65237003EB6524600EC3ECE3
:104748009AED9B40DCC3EC98ED9950D51262B37991
:104758003E1205F9793E1205F979201205F9790119
:104768001203E3790A1205F97404652570047902C5
:1047780080027901023DB0E9700302481A198521C7
:1047880082852283A3A3E0FA181253721253685049
:104798005C7821E62403123A2D2475600B1460100E
:1047A8001460081460D180D60980D3E970D0806283
:1047B800E970CB858221858322023BDC7E001203CF
:1047C800B9852182852283E0640A6003023FB7A38A
:1047D80085822185832280101E852182852283A3DC
:1047E800A3E0FA7821125372125368400A7A967B32
:1047F800941203D7023DFD852182852283A3A3A3BA
:10480800E0F8748B6870030E80CF748E6870CAEEFF
:1048180070C6852182852283A3A3A30243C61255AD
:1048280096750801750900750A00750B001203B921
:10483800852182852283E0640A6003023FB77828D5
:10484800E624F212539A5003024E9B8A288B29853C
:104858001416751700740278161217E27826E625E2
:1048680016FC08E63517FDEC24FCF582ED34FEF560
:1048780083780C1216D48A828B837446F0A3740E44
:10488800F0A3E41253C1E5141253C1A37810121611
:10489800D48A828B83A3A3A3A3A3A3A3A378081278
:1048A80016D4EA240CF582EB126255E521F0A3E553
:1048B80022024719A3E0640A6003023FB780091285
:1048C800546B120AAF1254FAC3E5289526E52995C8
:1048D800274003023FB7852882852983E024BB60EF
:1048E8003514603D14600E24F460D424FD70030276
:1048F80049FC024E9B1253B170CBA828A929888283
:104908008983A3A3A3E0F521A3E0F5228882898304
:10491800125500023F691253B170AA1254FA023DAF
:10492800FD7821E624FFF58208E6122CBF64897021
:1049380094AA28AB298A828B83A3A3A3E0F50885D0
:104948002182852283E0650860030248CD7509004D
:10495800740278081217E27826E62508FC08E6357E
:1049680009FDEC24FCFCED34FEFDEA2408FEEB34E2
:1049780000FF8C828D8378081216C58E828F83780B
:104988000812161885080C85090D850A0E850B0F67
:104998008C828D83780C1216D48E828F83780812BD
:1049A80016C5EA2404F8EB3400F9E8FCE9FD909414
:1049B8001678081213D150158C828D83780C121337
:1049C800BC501F8A828B831255000243C09093DE2D
:1049D80078081213D140EC8C828D83780C1213D195
:1049E80050E1EA240CF582EB123A31F521A3E0F507
:1049F80022023F69AC28AD29A3A3A3A3E024BFFEEC
:104A080012537F5EFA8C828D83A3A3A3A3A3E0C075
:104A1800E0EAFBD0E0BB00028004C333DBFCFB749C
:104A280001BA00028004C333DAFCFA74FFC39AFAAD
:104A380088828983E05A4BF09002D3E4F00248CD93
:104A48001203B9852182852283E064286003023F2E
:104A5800B7A385822185832279011204018A0C8BF0
:104A68000D8C0E8D0FE5256003023FB79093DE781D
:104A78000C1213D14003023FBB7406121840123ABD
:104A880059F508A3E034FFF509E4F50AF50B7808B1
:104A9800790C1213A74003023FBB8521828522832C
:104AA800E064B76003023FBBA38582218583227936
:104AB80000120401E5256003023FB7EE250CF582DC
:104AC800EF350DF583EAF0740612184012630012F0
:104AD80065A77003023F69120461023F691EEEF97F
:104AE8001203E30E9002CDE065237004A3E0652471
:104AF8007003023F699002CD1254CD2477601324CD
:104B0800FE60DB1460D71460D414600624FA60CE0B
:104B180080011EEEF91203E380CAA38582218583F2
:104B280022852182852283E0640A7008790A1205A9
:104B3800F9023F691203D18A088B09AE08AF0974DC
:104B4800FF6E700374FF6F704E852182852283E0AB
:104B5800F87422687003023FB77427687003023F35
:104B6800B7742C6860B474206860AF7902120401CD
:104B7800E5256003023FB71203C580A5A821A92235
:104B880088828983A385822185832288828983E01C
:104B9800F91205F91253A8EE4F70E185218285229A
:104BA80083024B227C047D0012061112061D023F6F
:104BB80069E0F87420686008740A686003023F5767
:104BC8007A77EFF912060BC3EB123B3C5003023F16
:104BD800B77408121840AA82AB83EEF91203EF7477
:104BE800081218401264A5700A740812184012546A
:104BF8005780047C047D0012061780AF79001204E8
:104C0800018A0C8B0D8C0E8D0FE5256003023FB7D2
:104C18001203B9852182852283E064C57008A385C3
:104C280082218583220E852182852283E06490601B
:104C380003023FBBA38582218583227900120401E8
:104C48008A088B09E5256003023FB77808121A5FC6
:104C5800EEF5087808121A63AA0CAB0DAC0EAD0F6E
:104C6800EFF9120635740312180BE96003023F6965
:104C7800023FB77900120623023F6974C6687009BB
:104C880074051218407404802974C76860030246CA
:104C98002174051218407405801874F05E600302D0
:104CA8003FBB74051218407406800774051218403B
:104CB8007402F07406121840AC82AD8374031218A3
:104CC80040AA82AB8312043D0241C179001204015B
:104CD800E5256003023FB7EEF912063BE9700302CF
:104CE8004D7A750801750900E50E78081217E2A9D2
:104CF80008E50D7012E58CA2E0E433450CF58CE96B
:104D080042ABD2BD023F697410650D7027E50EC332
:104D18009404E50C5013C333F8E58C540248F58C21
:104D2800E9428D439A10023F69333354FCF8E58C0D
:104D3800540480E9E50C33333354F8F8E58C54080F
:104D480048F58CE942AC439A02023F6974106970D5
:104D58000CE8528DE58D700F539AEF800AE852AC3B
:104D6800E5AC7003539AFDEAF9120641E9600302C3
:104D78003F69752506023FBE9002FEE02401F0A3BC
:104D8800E03400F0A821A92288828983A3858221A2
:104D980085832288828983E0242A60E81460E514E8
:104DA80060E21460D31460D0125596F583E0F50ADA
:104DB80074BF250AFEC3941A4003023FB7851882C0
:104DC800851983AA82AB83A90A1203EF8518828505
:104DD80019831254CD644E600302433D7828E624BB
:104DE800F812539A5003024E9B8A288B2985188201
:104DF800851983EAF0A3EB1262E612543574561251
:104E080062E6125435A37408F0A3E412543C740209
:104E180012543CA3E50AF08E0DEE12537F550DFA9D
:104E280088828983E0C0E0EAFBD0E0BB000280040E
:104E3800C313DBFC5401C0E0851882851983E0FBAD
:104E4800A3E0F5838B82A3A3A3A3A3D0E01262E619
:104E5800E0FBA3E0CB2406F582EB1262551253CA9D
:104E6800B800028004C333D8FCF974FFC399F8E092
:104E7800584902433C9002FEE02402F0A3E03400CB
:104E880002433C120443E9147003023FB714600361
:104E980002433D752504023FBE7E0202442412549B
:104EA800E2500302472312551074060243B5A38546
:104EB8008221858322E0F50A7427650A6009742235
:104EC800650A6003023FB71203D18A0A8B0BAE0A48
:104ED800AF0B74FF6E700374FF6F7003023FB7125D
:104EE80054E25003024723181818E0F9E508C3985C
:104EF800F8E50999F9E824FEF508E934FFF509C34E
:104F0800EE9508EF9509A2D265D0335017EE04C08C
:104F1800E0125432D0E01254C974091254AC8E080D
:104F28008F098012E50804C0E0125432D0E0125410
:104F3800C974081254AC7808121A5FAC21AD221259
:104F4800659B120479740212180B9002F9E0250887
:104F5800F8A3E03509F9123145C3EE9415EF123B79
:104F68003C5004EEFA80027A15AC21AD2279001289
:104F780009AD7821E62EF58208E63FF5830243C69F
:104F88001268D77003023FB79002F9E024010812B3
:104F980054ED50030247239002F912670F1231456E
:104FA80080419002F9E02401FAA3E03400FBC3E554
:104FB800089AE5099B5003024723125432E5101260
:104FC80054AC1203B97A1079021203E98A10E52564
:104FD80060D0852182852283E0650A6003023FBE96
:104FE800752500852182852283A3858221858322D8
:104FF800E0F50A740A650A7010EEF89002F9E0C349
:1050080098148E828F830247197427650A60067484
:1050180022650A7009A385822185832280A474BF32
:10502800250AC3941A40030250B3A3E0F8740A682F
:1050380060087420686003023FB785188285198369
:10504800AA82AB83A90A1203EF12649F6003023F8E
:10505800B712648A9002F9E028F8A3E039F9E82445
:10506800F8F8E934FFF9C3E50898E509995003020F
:105078004723750A08850A0E851882851983E0F882
:10508800126490C3E50E98E4994003024FEB8A82BC
:105098008B83E0C0E0125432D0E0F08A828B83A385
:1050A800AA82AB831254AD050A80CA7420650A60CF
:1050B80003023FB7024FEB9002F9E064DA7004A3F1
:1050C800E06402700A9002F9E4F0A3F0023FB7909E
:1050D80002FBE0A2E09093DE502B121A727CDA7D7C
:1050E800029002F9E0C394DAF97A077B031206D733
:1050F800740412180B909416121A727C007D0079B1
:10510800007A058011121A727CDA7D029002F9E0A9
:10511800C394DAF97A087B031206D7740412180BC1
:105128009002F9E4F0A30243BF7427650A6009748A
:1051380022650A6003023FB7120449E97003023F7F
:10514800B7900310E0F89002F9E028FAA3E03400E1
:105158008A82F583A3A3C3E5089582E50995835060
:1051680003024723900310E004C0E0125432D0E059
:105178001254C024FE600B24FE600E24F460110259
:105188003FB71255217403800C1255217405800510
:1051980012552174071254C0F508750900780812D1
:1051A8001A5F7C007D0312659B1204797402121841
:1051B8000B1203B9852182852283E064DD70139088
:1051C80002F912630D24FFF582E8122CBFC2E01227
:1051D80053EC900310E0F89002F9E02812541502FD
:1051E800471979001204018A088B098C0A8D0BE58E
:1051F800256003023FB77808121A5B7C007D0079AE
:10520800000245437800E50CC4333354C048F50C1C
:10521800EA14600A14600C24FE6010023FB7430CC5
:105228000F800BE50CD2E4F50C8003430C11EEA2C1
:10523800E19002D84023E4F0EEA2E0400543F32CCD
:10524800800343F42CA2E0E5F192E0F5F175C20089
:10525800850CC5758600023F697401F0EEA2E04036
:105268000543F338800343F4E0A2E0E5F192E1F569
:10527800F175FA00850CFC75F800023F6974E36863
:105288006003023FB7A3858221858322120425E9A2
:10529800F508E5256003023FB71203B98521828529
:1052A80022831254864003023FBB851882851983E6
:1052B800AA82AB83A90A1203EF8A0A8B0BAE0AAF44
:1052C8000B12649F6003023FB7852182852283A366
:1052D8008582218583227A00A90812042B9002D89E
:1052E800E0851882851983701E1254D6E849603308
:1052F8005386F98E828F83E0F5C1E586A2E150FAE4
:10530800E5C11253D280E51254D6801353F8F98EB2
:10531800828F83E0F5F9A2F950FCE5F91253D2E83F
:105328004970E97A01A9080242D39002D97440026F
:1053380043BFF085218285228322E624FDFA08E610
:1053480034FFFB2279287823E7C396FA0809E79601
:10535800FB3395E0FCFD22A3A3A38582218583224C
:10536800C3E5219523E522952422E62AFA08E634A6
:1053780000FB8A218B2222131313541FFA7826E686
:105388002AFA08E63400FBEA2468F8EB3400F974DA
:105398000722FA08E634FFFBC3EA9523EB9524229B
:1053A800EE24FF1EEF34FFFF227821E624FFF5826A
:1053B80008E6126249E0649122F08A828B83A3A3F3
:1053C800A3221262AAEAF8740122F0E824FF18E97D
:1053D80034FFF9A3AE82AF83229002D1EAF0A3EBA7
:1053E800F0E5252212533AA385822185832222855E
:1053F8002182852283E0F974BF29C3941A2285216A
:1054080082852283E0F874BF28C3941A22125419A3
:1054180022F8A3E03400F99002F9E8F0A3E9229019
:1054280002CFE0F523A3E0F524229002F9E0F8A3E7
:1054380012552422F08518828519831254472212A6
:10544800544B22E0F8A3E0F5838882A3A3A3221299
:105458003A5FFCA3E034FFFD2212558674BF2EC3C9
:10546800941A22851882851983AC82AD8385288297
:10547800852983A3A3A3125447A31254A622E0F5B7
:105488000A74BF250AC3941A229002CFE02CF8A30D
:10549800E03DF9882389249002CF1254A622E0FA2D
:1054A800A3E0FB22F01254B1221254B5229002F963
:1054B800E02401125419F022F01254B1900310E0C4
:1054C8002212552A221254D12212544BE022E0F81B
:1054D800123A5FF8A3E034FFF9229002F9E02403BE
:1054E800F81254ED22A3E03400F9C3E50898E50961
:1054F8009922852882852983A37828E026FAA3089B
:10550800E036FB8A288B29221818181255247402B1
:1055180012552A740112552A229002FAE0F583885E
:105528008222F01254B5F58388822274F412184C42
:1055380012558674632EFFC39403400B125596755B
:105548002506790002648579011204018A08A808F1
:10555800E52570EBE8C3940850E5749F6E700C74F1
:10556800016860DB740268700D80D4749E6E7006EA
:10557800E8C3940450C9EFC454F048F980C68521A3
:1055880082852283E0FEA3858221858322227821D9
:105598001262998A218B222274F612184CE9FCEACD
:1055A800FD750801750900740F5C78081217E2A8E8
:1055B80008E8F4FEECC4540F6005146011801EE581
:1055C80080FFED70027800EF5E48F580801CE59062
:1055D800FFED70027800EF5E48F590800DE5A0FFC2
:1055E800ED70027800EF5E48F5A0022DDD74F01230
:1055F800184CE9FFEAFEEF600514606780697508DA
:1056080001750900EE78081217E2E50855F2604FB7
:105618009002D9E0F89009A3E04E48F5B6E5B4A2A7
:10562800E750FAE5BAF50CE4F50DF50EF50FE5BB14
:10563800F508E4C508F5093395E0F50AF50B780C8B
:10564800790812168CE0131313541FF87408C398C2
:10565800780C1215B3AA0CAB0DAC0EAD0F8021E57A
:10566800808006E5908002E5A0F508750900EE78CF
:10567800081217C3E5085401FAE4FB3395E0FCFD72
:105688007F0802191E74EC12184C74FE1217F5AE3E
:1056980023AF2480098E828F837402125888750A7A
:1056A80000852182852283E0F9A3858221858322D2
:1056B800EE24FFF512EF34FFF5138E108F118E8252
:1056C8008F83A3858208858309E924F6602724EA65
:1056D80060CF24F460CB248F602B146028146025DD
:1056E80024D9606114605E14604C24FE60A724FB1A
:1056F80060780257B5125596EEFCEFFDAA23AB244D
:1057080012043D80271255968E828F837401125899
:1057180088120425E98E828F83F0A30EAF83E525D6
:1057280070030256A9E52570037525017402121845
:105738000B7F0C02191E8E828F8374031258887592
:105748000A010256A9C3E5239510E524951150D501
:10575800851282851383E0640370CA74C669700475
:10576800740480027405F00256A98E828F8374092E
:1057780012588879021204018A0C8B0D8C0E8D0F39
:105788007408780C1215E690941278101216C578E1
:105798000C79101215648E828F83E50CF0A3E50D49
:1057A80012587EE525600302572D0256A974BF29B9
:1057B800C3941A5070851882851983AA82AB831204
:1057C80003EF8A0C8B0D12649F703D8E828F83AE1F
:1057D80008AF09E50A6004740C8002740AF0123AF2
:1057E800538E828F83F0A30EAF83123A53FCA3E04B
:1057F80034FFFD79001204918E828F83E50CF0A3AB
:10580800E50D12587E0256A9E50A60198A828B8333
:10581800E4F08E828F83740D1258888E828F83EA0B
:10582800F0A3EB80DD12559679021204018B0D8CE2
:105838000E8D0FE525600302572DC3E5239510E56E
:105848002495115022851282851383E06402701713
:105858008E828F83AE08AF09EA122D6F6004740739
:105868008002740802576EE50A60030257318E827F
:105878008F83740B80A2F0EE2402FEEF3400FF2227
:10588800F0AE08AF092274EB12184CEAFEEBFF7574
:105898000900750801750A00750C00750D018C105A
:1058A8008D118004E50842F2C3EE9510EF95114082
:1058B80003025C1AEEFAEFFB8A828B83A3AE82AFF7
:1058C80083A3A983EE2402EF3400F513E508F4F569
:1058D800148A828B83E014604814700302596B1495
:1058E800700302599C1470030259CE147003025AB3
:1058F800011460B0147003025AA0147003025A52C3
:10590800147003025A34147003025AB2147003025A
:105918005A74147003025B22147003025BAB025CBE
:10592800138E828F83E0FA0EE9FFEAC4540FF5095B
:10593800750E01750F00740F5A780E1217E2E50EF6
:10594800F508F4F8E509600914600C14600F0258B2
:10595800B0E852F30258B0E852F40258B0E852F5F1
:105968000258B0E50960091460121460170258B0B3
:10597800E50842FDE51452F2E580800EE50842FE96
:10598800E5908006E50842FFE5A055086003025A45
:105998004C025A6EE509600914601514601D02581E
:1059A800B0E51452FDE508428FE51452F20258B0F2
:1059B800E51452FEE50842F60258B0E51452FFE538
:1059C8000842F70258B0E509600914601414601D14
:1059D8000258B0E51452FD528F52F253F7DF0258C5
:1059E800B0E51452FE52F653F7BF0258B0E5145210
:1059F800FF52F753F77F0258B0E5096009146014A5
:105A080014601D0258B0E51452FD528F52F243F74C
:105A1800200258B0E51452FE52F643F7400258B03F
:105A2800E51452FF52F743F7800258B08E828F83F5
:105A38001265930E0EAF130258B0E5084290800429
:105A4800E50842A0750A010258B0E509600814602B
:105A58000B14600E8010E5145280800AE5145290F1
:105A68008004E51452A0750A000258B08E828F8314
:105A780012659E12064D0E0EAF13C3EE9510EF95EC
:105A88001140030258B08E828F83E0640B600302DA
:105A980058B0E50AA2E040B2E509600814609B141A
:105AA800609E80A0E5084280809A8E828F83E0F510
:105AB800120EE9FF8E828F83E0F50EA3E0F50F8EBC
:105AC800828F83A30EAF838004E514528085120B66
:105AD80074FF250BF512046041850E82850F83E063
:105AE800FA7B0012064D850E82850F83A385820EF0
:105AF80085830FE51260D6E50AA2E0B3E433F50A20
:105B0800A2E0E50960C314600514600880BFE514CD
:105B1800529080B9E51452A080B38E828F83E0FB47
:105B2800A3AE82AF83125C4588828983EE2402FE8D
