:020000040000FA
:0600000002011D02258F24
:03002B00021E5260
:03003300021DD3D8
:0300530002260280
:03006B00021CE88C
:03007B00021D5B08
:100083000223FBE5C754F84401F5C77901220000B8
:100093000080FB120086B90003020107E47921788E
:1000A30011B800028004F709D8FCE479327802B869
:1000B30000028004F709D8FCE490028178D0790724
:1000C3008002F0A3D8FCD9FA781A90014D7A01BACC
:1000D30000028007E493A3F608DAF9900950AA8294
:1000E300AB8390014E783C79038015E493A3AC82F3
:1000F300AD838A828B83F0A3AA82AB838C828D83A8
:10010300D8E9D9E77582E37583F7740312012F7574
:100113008291758300740012012F75D00075813FA1
:10012300751881751902759F00020096C09FF59F8F
:10013300E473D09F22D083D082C09FE493C0E07445
:100143000193C0E0740293F59F22010279860100B6
:100153000065860275860100009F8610D284030025
:10016300008C02027386030000820202758601007E
:10017300009D8610B28403000000000000A10395D7
:10018300038480F28186821283A2813D8200809162
:10019300858583B5839D85FE80CD82000056000052
:1001A300020000000030FF02020202020202020209
:1001B300010D00000010010279860100006886022B
:1001C3007586010000AC09028D860100003403022C
:1001D3007586010000AD09028B860100008485024B
:1001E3007586010000AE090289860100004D850273
:1001F3007586010000AF09026B860100006C840262
:100203007586010000B0090287860100007E840222
:100213007586010000B10902858601000090840201
:100223007586010000B2090283860100005A840228
:100233007586010000B3090281860100005B850217
:100243007586010000B409027F86010000B509FF2D
:10025300000000FF000801307503020106000000E2
:10026300000000000000000000000000000000008B
:10027300000000000000000000FFFF0600800CE803
:10028300031B082708FF0000B400002800280028EB
:100293003075A000A000A000A00000080008E00145
:1002A300F0001000100010001000100010005000AB
:1002B3005000500010001000D007000000000000A4
:1002C3000F0001000500307507001000010081FFD9
:1002D30000000000FF470965094D09FF02020208FB
:1002E300025000A0000000E8030279860100005CD0
:1002F30086027586010000E10A0271860100006F23
:1003030004027586010000E20A029386010000855B
:1003130004027586010000E30A026F86010000876C
:1003230004027586010000E40A026D860800008855
:1003330004027586010000E50A029986010000E6C1
:100343000AFF0100FF200279860100006286027520
:10035300860100004A0B02A685000000000002731C
:1003630086030000D504410F410F410F410F410F98
:10037300410F410F410F410F410F410F410F410FFA
:10038300FF111712F9111201384FFA0212013887BF
:10039300FB0212013807FD0212013860FD0212014F
:1003A30038A4FD02120138B6FD0212013871FE02B3
:1003B3001201381CFF02120138C82C00120138E464
:1003C3002C00120138C02E001201387B2F001201BD
:1003D30038DF2F001201382530001201384E30006B
:1003E3001201388A3000120138D631001201385810
:1003F3003200120138453300120138CF33001201A5
:1004030038CA3400120138F13600120138223D0097
:10041300120138633D00120138843D00120138E7B0
:100423003D00120138153E00120138D85A0012015E
:1004330038505B00120138DE5B00120138705F0038
:100443001201383C6500120138306C001201381972
:100453006D001201388A6D00120138816E0012019D
:1004630038F26F00120138327000120138A27100A5
:10047300120138DDB403120138E7B4031201382541
:10048300B5031201386EB503120138A8B503120182
:100493003802B60312013823B6031201382CB6030F
:1004A30012013879B603120138A2B603120138AC2F
:1004B300B60312013818B703120138AAB7031201A1
:1004C30038F4B7031201382AB803120138B6B80357
:1004D300120138F7B8031201382EB903120138405C
:1004E300B9031201385FB90312013868B903120165
:1004F3003835BA0312013889F70312013840F30380
:10050300120138D6E8031201380CE903120138420C
:10051300E9031201388DEA031201387AF603120156
:100523003890F6031201389AF603120138E4F60301
:100533001201383CCF0312013851CF0312013801A5
:10054300D00312013841D0031201385AD0031201EB
:100553003895D003120138E2D00312013814D103C5
:1005630012013856D10312013857D303120138C987
:10057300D3031201383BF8031201384DF80312017B
:10058300388CE103120138B1E103120138DBE103D6
:1005930012013812F703120138EBFF021201381F60
:1005A300F5031201382FF50312013838F503120150
:1005B30038C9F5031201383CF203120138C1F203C2
:1005C30012013827F303120138F87F001201389D16
:1005D300E6031201382CE8031201388DE8031201F7
:1005E30038D3E80312013863BA0312013835BB0369
:1005F30012013866BB031201387DBB031201388731
:10060300BB03120138D1BB03120138D4BB0312015F
:10061300383ABC03120138A6BC0312013844BD03A7
:10062300120138C8BD0312013811BE031201383D4F
:10063300BE0312013867BE03120138E2BE03120182
:100643003838BF031201388BBF0312013898BF0338
:1006530012013826EE0312013878EE031201380234
:10066300EF0312013869EF0312013858E403120152
:100673003882E40312013850E5031201382BE603F4
:10068300120138F29103120138B99203120138F0C2
:1006930092031201381A93031201387A9303120159
:1006A30038D09303120138359403120138CD9403E3
:1006B300120138DC950312013873970312013800D5
:1006C30098031201386798031201387E98031201C8
:1006D300389899031201381E9402120138C2970206
:1006E300120138309A021201388A9A02120138A98B
:1006F3009A02120138279B02120138A09C021201B0
:10070300388C9D021201380FA202120138DFA202B7
:1007130012013886A302120138C4A302120138C79A
:10072300EA03120138DEEA031201380FEB03120168
:10073300384AEB0312013874EB031201389EEB03C2
:10074300120138B5EB03120138CCEB03120138E385
:10075300EB031201380CEC031201381FEC031201F6
:100763003835EC0312013848EC031201386FEC03FF
:1007730012013815F00212013819F1021201385131
:10078300F10212013874F1021201387FF1021201F1
:1007930038A2F102120138B1F20212013886F302D3
:1007A30012013801F40212013889F402120138C42B
:1007B300F402120138FBF40212013889F502120126
:1007C3003862F602120138C2F602120138CDF6027F
:1007D3001201384CF7021201384FF7021201385256
:1007E300F702120138E1F702120138E4F7021201AD
:1007F3003814F8021201383EF8021201382CF902BB
:10080300120138DEF902120138008003120138F8B0
:1008130080031201382C8103120138AE81031201C7
:1008230038F681031201385A8203120138E7820332
:10083300120138A18303120138B086031201383B39
:1008430088031201385E880312013892AE03120145
:1008530038BAAE03120138E8AE031201381FAF03F2
:100863001201387DAF031201380BB1031201385660
:10087300B103120138A1B103120138E1B10312012E
:100883003827B20312013855B20312013812B303E9
:100893001201381CB30312013829B3031201385C67
:1008A300B30312013828B40312013834B40312011C
:1008B300384CB40312013856B4031201383EF40322
:1008C30012013856F4031201386EF403120138860C
:1008D300F403120138B7CD0212013893CE0212018C
:1008E30038F7CF021201384ED002120138CFD002AE
:1008F300120138BFD1021201380CD2021201389210
:10090300D202120138C4D202120138D8D402120121
:10091300381AD50212013838D502120138BBD50274
:100923001201388FD60212013857D702120138222A
:10093300A103120138F5A1031201389EA20312018B
:1009430038F1A203120138A1A3031201382DA40325
:1009530012013819A50312013848A5031201385BA7
:10096300A603120138A3A60312013878A7031201C4
:1009730038B4A703120138D0A70312013843D803B0
:1009830012013859D8031201387FD8031201389B5A
:10099300D903120138A5D903120138DADA03120197
:1009A30038D2DB03120138DCDB03120138FBC4034A
:1009B3001201382BC6031201385EC603120138A890
:1009C300C6031201386FC8031201384FEC0112013C
:1009D30038B9EC0112013818EE01120138A2EE0108
:1009E300120138B2EE01120138DFEE011201383B79
:1009F300EF0112013842F0011201380CF10112012A
:100A0300386CF201120138AFF20112013854F301CC
:100A1300120138A1F301120138C7F301120138D5CD
:100A2300F501120138DAF501120138DFF70112017D
:100A3300382CF8011201389FF801120138D2F8015D
:100A430012013874F9011201381DFA0112013855E7
:100A5300FA0112013858FA01120138A0FA01120101
:100A630038E0FA0112013837FB01120138B9DE030D
:100A7300120138D1DE0312013819DF031201382FB6
:100A8300DF0312013876DF031201388AE003120113
:100A93003817E10312013862E1031201387EA20123
:100AA300120138B9A201120138FEA201120138BEA7
:100AB300A3011201384DA401120138D3A40112017C
:100AC3003838A50112013864A5011201389DA5012A
:100AD300120138DBA701120138BFA901120138A5A1
:100AE300AB01120138E8AC0112013836AF01120133
:100AF3003848B00112013893B101120138A3B20191
:100B0300120138C0B201120138FBB2011201381DC3
:100B1300B30112013880B30112013841B801120147
:100B230038D6B80112013828B90112013846B90183
:100B3300120138A0B90112013889BA01120138FF34
:100B4300BB0112013883BC01120138B5BF03120186
:100B530038BFBF0312013802C0031201381DC0039E
:100B6300120138ADC003120138D5C0031201381287
:100B7300C10312013849C10312013872C1031201C2
:100B830038E7C103120138FCC10312013811C20353
:100B930012013833C2031201387CC203120138A197
:100BA300C203120138DBC20312013807C303120167
:100BB3003835C30312013880C3031201382AC40332
:100BC30012013835C4031201387EC403120138A858
:100BD300C403120138D3C40312013823F1031201F1
:100BE30038D3A30212013801A4021201384FA5021F
:100BF3001201382FA6021201384EA602120138CB79
:100C0300A6021201380EA70212013864A8021201CB
:100C13003814A9021201384DAB02120138D4AD02C7
:100C230012013875AE021201386BAF021201386837
:100C3300B002120138C2B1021201384DB2021201E0
:100C430038C8EF0312013831F00312013885F0037D
:100C5300120138ACF003120138DDF003120138D66B
:100C6300D30312013843D4031201388AD403120187
:100C730038A2D5031201389ED60312013881D70357
:100C8300120138898903120138CB89031201389D77
:100C93008A03120138768B03120138708C03120118
:100CA30038528D03120138BB8D03120138718E0344
:100CB300120138E58E03120138518F031201387A7D
:100CC3008F03120138F48F031201388D9003120140
:100CD30038F290031201380791031201384D910342
:100CE300120138669103120138CB9103120138CEF9
:100CF3009103120138E6DB031201380EDC03120103
:100D0300384CDC031201380ADD0312013871DD03AC
:100D13001201388DDD03120138B5DD03120138E508
:100D2300DD03120138F4DD0312013871DE03120111
:100D330038008002120138218202120138538402E2
:100D43001201388F8402120138BC8402120138AABE
:100D53008502120138F5850212013840860212011C
:100D630038758602120138C38602120138F28602F0
:100D7300120138158702120138628702120138E71F
:100D83008702120138018A02120138408C021201D3
:100D930038818C02120138258E02120138668E02C8
:100DA3001201385F8F021201386C9102120138DF91
:100DB30091021201382B9202120138D992021201C8
:100DC30038B49302120138A2C002120138A0C10242
:100DD30012013839C8021201385ACA0212013825E1
:100DE300CC021201388DCD02120138EABC01120186
:100DF3003899BD01120138C6BD011201380CBE017C
:100E030012013842BF01120138A0BF01120138C5D7
:100E1300BF011201385BC101120138DFC1011201A8
:100E23003859C201120138B3C30112013813C50185
:100E330012013819C6011201387AC701120138CCE0
:100E4300C7011201383DC90112013856C901120107
:100E530038B4C901120138D8C901120138C6CA0110
:100E6300120138F9CA0112013869CB01120138E3C2
:100E7300CB011201382DCC01120138F7CC0112013C
:100E830038CCCD01120138ABCE0112013836CF0177
:100E9300120138A4CF0112013818D00112013843CE
:100EA300D00112013802D10112013867D2011201B7
:100EB3003884D201120138A3D20112013894D3012C
:100EC300120138B9D301120138E3D3011201385E9C
:100ED300D401120138B8D40112013821D60112010C
:100EE30038CFD60112013810D701120138CEB20221
:100EF3001201381CB30212013828B302120138065A
:100F0300B40212013837B40212013868B402120174
:100F130038E8B40212013820B50212013872B50262
:100F2300120138AFB502120138CCB702120138F200
:100F3300B902120138DDBB02120138C7BD0212012A
:100F430038BD2C0012013822CA03120138C6CA0365
:100F530012013898CB03120138C2CB0312013810A7
:100F6300CE03120138A08601120138EA860112016C
:100F730038DC9401120138619601120138D29C01C8
:100F8300120138CD9D011201380A9E011201382D3C
:100F93009E011201386F9E01120138789E011201E1
:100FA30038829E01120138709F0112013866A00138
:100FB30012013840D7011201383FDB0112013845D5
:100FC300DB0112013880E20112013899E7011201B5
:100FD3003824FC01120138BAFC01120138D0FC019B
:100FE30012013846FD01120138BAFD01120138F829
:100FF300FD011201386CFE01120138E5FE011201F8
:1010030038EEFE01120138FAFE011201380FFF011A
:101013001201384DFF0112013863FF01120138C27A
:10102300FF0112013845A80312013852A803120127
:10103300386CA803120138ABA803120138E9A803DE
:101043001201384EA90312013863A9031201386E45
:10105300A9031201387BA90312013892A9031201D3
:1010630038A0A903120138AFA903120138C4A90398
:10107300120138D9A903120138E4A903120138F087
:10108300A903120138FFA9031201380AAA031201A6
:10109300382DAA03120138D4AA03120138E4AA0393
:1010A300120138F9AA0312013813AB031201382EC7
:1010B300AB031201384BAB0312013856AB031201D9
:1010C3003812AC03120138FEAC0312013823AD030E
:1010D3001201382EAD0312013843AD031201385704
:1010E300AD03120138B8AD03120138BEAD031201CE
:1010F30038C4AD03120138CAAD03120138E2AD039F
:1011030012013815AE031201384F7200120138DB99
:1011130072001201383A74001201385B7600120132
:10112300384777001201387C77001201389E770028
:101133001201384D7800120138457A001201386ED9
:101143007A00120138007B00120138327B00120151
:10115300383F7B00120138967B00120138BC7B00BC
:10116300120138297E001201382C7F0012013884C5
:101173007F0012013899D902120138A3D902120152
:1011830038C5D902120138D1D9021201386ADB02FB
:1011930012013899DB02120138B5DC021201380E54
:1011A300DD0212013882DE02120138EFDE02120183
:1011B300382ADF0212013869DF0212013822E20203
:1011C3001201383CE202120138C8E202120138D699
:1011D300E2021201382FE3021201383DE302120149
:1011E30038B0E30212013814E4021201385EE4025B
:1011F300120138E7E40212013809E5021201382F1F
:10120300E70212013844EA021201385CEB021201D0
:10121300380FEC02120138F1EC0212013881EC03B1
:10122300120138A6EC0312013818ED03120138D667
:101233009903120138DF9903120138E89903120167
:1012430038BF9A03120138709C03120138A69C031D
:10125300120138E09C03120138169D031201385025
:101263009D03120138849D03120138B09D031201BE
:1012730038F99D03120138339E031201387C9E0313
:10128300120138D49E03120138099F0312013864F6
:101293009F031201389E9F03120138EF9F0312012F
:1012A3003825A0031201385FA00312013882A0037E
:1012B300120138CFF503120138FBF503120138563A
:1012C300F60312013860F60312013870F6031201B7
:1012D300387CF803120138D27F00E066701008A34F
:1012E300E066700A08A3E066700408A3E06622E4DF
:1012F300936670130874019366700C087402936606
:101303007005087403936622C3E7960809E79608F5
:1013130009E7960809E796A2D265D03322C3E0967F
:1013230008A3E09608A3E09608A3E096A2D265D0AE
:101333003322C008C3E096F50808A3E096420808E4
:10134300A3E096420808A3E0964208A2D265D033F0
:10135300E5087001D3D00822C3E7960809E7960889
:1013630009E7960809E79622C3E09608A3E09608E2
:10137300A3E09608A3E09622C008C3E096F5080808
:10138300A3E096420808A3E096420808A3E0964526
:10139300087001D3D00822C3E4939608740193968E
:1013A3000874029396087403939622080808EAC007
:1013B300E0EBC0E086F0E7A4FA180986F0E7A42A78
:1013C300FA180986F0E7A42AFA180986F0E7A42A8E
:1013D300FA1986F0E7A4FBE5F02AFA190886F0E784
:1013E300A42BFBE5F03AFA190886F0E7A42BFBE5FA
:1013F300F03AFA18180986F0E7A4C5F02BFBE43A93
:10140300FA1908E7C5F0C6A426F6E5F03BFBE43A73
:10141300FA1886F0E7A4F6E5F00826F6E43B08F6AA
:10142300E43A08F6D0E0FBD0E0FA22E4CFC0E0E4EF
:10143300CEC0E0E4CDC0E0E4CCC0E075F020C3E66C
:1014430033F608E633F608E633F608E633F61818FB
:1014530018EC33FCED33FDEE33FEEF33FFC3EC97B3
:1014630009ED9709EE9709EF97191919400FFFEC4A
:1014730097FC09ED97FD09EE97FE191906D5F0BE05
:10148300ECF709EDF709EEF709EFF7191919D0E0B1
:10149300FCD0E0FDD0E0FED0E0FF221215061818C4
:1014A3001812142E1214F5191919221214F51919F8
:1014B30019080808E618181820E7E012142E121568
:1014C3000618181822090909E719191920E7DC0871
:1014D3000808E618181820E70302142E1215061838
:1014E300181812142E1215061818181214F51919B3
:1014F3001922E4C397F709E497F709E497F709E496
:1015030097F722E4C396F608E496F608E496F608FD
:10151300E496F6226017080808C6A2E713C618C6A1
:1015230013C618C613C618C613C6D5E0E92260163B
:10153300080808C6C313C618C613C618C613C618A8
:10154300C613C6D5E0EA22700908080822601618F7
:101553001818C6C333C608C633C608C633C608C67A
:1015630033C6D5E0EA22E627F60809E637F6080986
:10157300E637F60809E637F622E026F608A3E03652
:10158300F608A3E036F608A3E036F622E026F008D4
:10159300A3E036F008A3E036F008A3E036F022C358
:1015A300E697F60809E697F60809E697F60809E6C6
:1015B30097F622C3E096F008A3E096F008A3E0961E
:1015C300F008A3E096F022E657F60809E657F60876
:1015D30009E657F60809E657F622E056F608A3E0AF
:1015E30056F608A3E056F608A3E056F622E056F0B6
:1015F30008A3E056F008A3E056F008A3E056F02253
:10160300E647F60809E647F60809E647F60809E655
:1016130047F622E046F008A3E046F008A3E046F0D0
:1016230008A3E046F022E066F008A3E066F008A312
:10163300E066F008A3E066F022E0F608A3E0F6080F
:10164300A3E0F608A3E0F622E6F008A3E6F008A379
:10165300E6F008A3E6F022E0FAA3E0FBA3E0FCA394
:10166300E0FD22EAF0A3EBF0A3ECF0A3EDF022CA35
:10167300C0E0E6F0A308DAFAD0E0FA22CAC0E0E05C
:10168300A3C582CCC582C583CDC583F0A3C582CC57
:10169300C582C583CDC583DAE6D0E0CA22C3E49808
:1016A300F8E499F91216E18026C3E49AFAE49BFB65
:1016B300E920E7E91216E1E498F8E499F922C3E492
:1016C30098F8E499F91216E1E498F8E499F9C3E477
:1016D3009AFAE49BFB22EB20E7CFE920E7E0B9008D
:1016E30010BB0008E88AF084F8AAF022E4FBC8FAE9
:1016F30022EB70227B10C833C8C933C9335007C3E8
:101703009AC3DBF280069A50012ADBEAC833F4C895
:10171300C933F4C9FA2275F008E4C833C8C933C918
:1017230033C99AC99B5004C92AC93BD5F0ECFBC8FD
:1017330033F4C8E4C9FA22600D08C6A2E713C61839
:10174300C613C6D5E0F322600C08C6C313C618C679
:1017530013C6D5E0F422700422600D18C6C333C645
:1017630008C633C6D5E0F41822251810AF08F518BB
:10177300400215198008F51840021519D2AF22C08E
:10178300D0251810AF08F518500205198008F51870
:1017930050020519D2AFD0D0222518F58210AF0818
:1017A300F518400215198008F51840021519D2AF33
:1017B300851983222518F582E43519F58322E4730C
:1017C3002518C582C0E0E51934FFC583C0E0E518DC
:1017D300C3958224F810AF08858319858218800881
:1017E300858319858218D2AFCEF0A3E520F0A378C4
:1017F30008E608F0A3DEFAEFF0A3E58124FAF8E6A1
:1018030008F0A3E608F0A3E608F0A30808E608F04A
:10181300A3E608F0A315811581D0E0FED0E0F8150A
:101823008115811581E8C0E0EEC0E0222518C5824C
:10183300C0E0E51934FFC583C0E0E518C3958224F1
:10184300F910AF0885831985821880088583198567
:101853008218D2AFCEF0A3E520F0A37808E608F013
:10186300A3DEFAEFF0A3E58124FBF8E608F0A3E694
:1018730008F0A30808E608F0A3E608F0A31581150D
:1018830081D0E0FED0E0F815811581E8C0E0EEC01C
:10189300E022851983851882E0A3FEE0A3F5207872
:1018A30008E0A3F608DFFAE0A3FFE0A3C0E0E0A3AB
:1018B300C0E0E0A3C0E0E0A3C0E0E0A3C0E010AF5D
:1018C300088582188583198008858218858319D233
:1018D300AFD083D082020135851983851882E0A3B6
:1018E300FEE0A3F5207808E0A3F608DFFAE0A3FF03
:1018F300E0A3C0E0E0A3C0E0E0A3C0E0E0A3C0E059
:1019030010AF08858218858319800885821885831E
:1019130019D2AFD083D08222C0D02518C582C0E0AF
:10192300E51934FFC583C0E0E518C3958224F3109D
:10193300AF088583198582188008858319858218E5
:10194300D2AFC8F0A3E9F0A3EAF0A3EBF0A37908C0
:10195300E709F0A3D8FAECF0A3EDF0A3EEF0A3EFC0
:10196300F0A3D0E0F0A3D0E0F0A3D0E0F0A3E52013
:10197300F0A3E5F0F0A322851983851882E0C0E087
:10198300A3E0F9A3E0FAA3E0FBA37808E0F608A339
:10199300DFFAE0FCA3E0FDA3E0FEA3E0FFA3E0C0C9
:1019A300E0A3E0C0E0A3E0F5D0A3E0F520A3E0A32B
:1019B300F5F010AF0885831985821880088583198F
:1019C300858218D2AFD082D083D0E0F8D0E03274D1
:1019D300048006740280027401C0E0F40412179CB0
:1019E300D0E0121672227404800474028000CCC00A
:1019F300E0EDC0E0E518C39CCCAD1950011D10AF5C
:101A0300068C188D1980068C188D19D2AF12167F8B
:101A1300D0E0FDD0E0FC22D083D082C5F0E493A3D4
:101A2300C5F0C395F0F5F0E493A3C395F04005E545
:101A3300F0048001E475F002A42582F582E5F03517
:101A430083F583E493A3C0E0E493C0E022D083D082
:101A530082E9C0E0E493A3C386F0C5F095F0F908EA
:101A6300E493A386F0C5F095F0700BE493A3C399B8
:101A73004005E9048002A3E475F002A42582F582FF
:101A8300E5F03583F583D0E0F9E493A3C0E0E49374
:101A9300C0E022D083D082E9C0E0E493A3C386F000
:101AA300C5F095F0F908E493A386F0C5F095F070BE
:101AB3002408E493A386F0C5F095F0701908E49325
:101AC300A386F0C5F095F0700E08E493A3C3994084
:101AD30007E9048004A3A3A3E475F002A42582F517
:101AE30082E5F03583F583D0E0F9E493A3C0E0E425
:101AF30093C0E022D083D082CCC0E0E493A36006FD
:101B0300121B211470FAE493A36006121B40147095
:101B1300FAD0E0FCE493A3C0E0E493C0E022C0E089
:101B2300E493A3D39C5010E493A3C39C400AD0E056
:101B3300D0E0D0E0021B14A3A3A3D0E022C0E0E4D2
:101B430093A36C7009D0E0D0E0D0E0021B14A3A3F0
:101B5300D0E022D083D082ECC0E0EDC0E0E493A3D8
:101B6300FCE493A3FDED4C600D121BA2EC24FFFCDF
:101B7300ED34FFFD80EFE493A3FCE493A3FDED4C70
:101B8300600D121BE1EC24FFFCED34FFFD80EFD070
:101B9300E0FDD0E0FCE493A3C0E0E493C0E022C006
:101BA300E0C3E49396087401939618400FE4936698
:101BB300700808740193661870007019A3A3C3E436
:101BC3009396087401939618A3A3400DD0E0D0E038
:101BD300D0E0021B92A3A3A3A3A3A3D0E022C0E05F
:101BE300C0F088F0E4936670080874019366187077
:101BF30000A8F0A3A3700BD0F0D0E0D0E0D0E002B7
:101C03001B92A3A3D0F0D0E022D083D082ECC0E01B
:101C1300EDC0E0EEC0E0EFC0E0E493A3FCE493A3E7
:101C2300FDE493A3FEE493A3FFEF4E4D4C60151226
:101C33001C88EC24FFFCED34FFFDEE34FFFEEF3493
:101C4300FFFF80E5E493A3FCE493A3FDE493A3FEE9
:101C5300E493A3FFEF4E4D4C6015121CC5EC24FF1B
:101C6300FCED34FFFDEE34FFFEEF34FFFF80E5D0E3
:101C7300E0FFD0E0FED0E0FDD0E0FCE493A3C0E0C1
:101C8300E493C0E022C0E0C0F088F012139AA8F0F9
:101C930040071212F2A8F0701AA3A3A3A312139A77
:101CA300A8F0A3A3A3A34013D0F0D0E0D0E0D0E0EA
:101CB300021C72A3A3A3A3A3A3A3A3A3A3D0F0D0A3
:101CC300E022C0E0C0F088F01212F2A8F0A3A3A3B0
:101CD300A3700BD0F0D0E0D0E0D0E0021C72A3A33D
:101CE300D0F0D0E022C0E074F012191BA2AFE433AD
:101CF300FFD2AFE589F8E5AB58F50A6051F4F589F1
:101D0300C2C57E008E08750900740278081217593F
:101D1300121DCEC3E89408E99400502BE85407F849
:101D23007401B800028004C333D8FC550A601875E7
:101D33000800750901EE7808121759AA08AB099033
:101D43000281E0F91204CD0EEEC3940440B6EFA273
:101D5300E092AF7F0302197AC0E074F012191BA25C
:101D6300AFE433FFD2AFE58AF8E58D58F50A605941
:101D7300F4F58AC2EB7E008E0875090074027808B8
:101D8300121759121DCEE82400FAE934FFFBC3EA07
:101D93009408EB9400502BE85407F87401B8000240
:101DA3008004C333D8FC550A60187508007509010F
:101DB300EE7808121759AA08AB09900281E0F912CC
:101DC30004CD0EEEC3940440AE8083121E3BF92271
:101DD300C0E074F012191BA2AFE433FFD2AFE58B5E
:101DE300F8E5AC58F50A604DF4F58BC2E87E008E39
:101DF3000875090074027808121759121E3BC39420
:101E030002402BE85407F87401B800028004C3337E
:101E1300D8FC550A6018750800750901EE78081298
:101E23001759AA08AB09900281E0F91204CD0EEE0E
:101E3300C3940440BA021D5174672508F5827403E4
:101E43003509F583E0F8A3E022C2AF02000022C007
:101E5300E0C0D0E8C0E0E9C0E0E5A8D2AFC2C775F2
:101E63001A00A2E7A2E792AFD0E0F9D0E0F8D0D011
:101E7300D0E03274F512182FEAFEEBFFEE2434F8AB
:101E8300EF3400F988088909EE2435F582EF340030
:101E9300F583E0F8EE2437F582EF3400F583E0F5BF
:101EA3000AEC850AF0A4FCAAF0850AF0EDA42AFD49
:101EB300E82CF8E43DF97A257B001216E1EA85085F
:101EC30082850983F0F8740758F97401B900028018
:101ED30004C333D9FCFAE8131313541FF8EE28F89C
:101EE300EF3400F9E8245DF582E93400F583E05A24
:101EF3006008EE2434F582EF802CEE2434F582EF73
:101F03003400F583E0C0E0EE2436F582EF3400F5CB
:101F130083E0F5F0D0E084A8F0EE28F8EF3400F980
:101F2300E82438F582E93400F583E0F97F040218E8
:101F3300DB74F512182FEAFEEBFFEE2434F582EF83
:101F43003400F583E0C0E0EE2435F582EF3400F58C
:101F530083D0E0F08E828F83A3A3A3A3A3A3A3C004
:101F630082C0838E828F83A3A3A3A3A3E0F8A3E0FD
:101F7300F9D083D082E0C398F508A3E099F509EE80
:101F8300247FF582EF3400F583E064017069EE2469
:101F930080F582EF3400F583E0F8A3E0F98E828FB9
:101FA30083A3A3A3A3A3A3A3E0FCA3E0FD8E828F3B
:101FB30083A3A3A3A3A3E0FAA3E0FBC3EA9CEB9D43
:101FC3005010C3EC98ED99402EC3EA98EB99502733
:101FD300800EC3EA98EB994007C3EC98ED9940173C
:101FE3007C987D06EEFAEFFB120E9FEE247FF582BE
:101FF300EF3400F583E4F0EE2434F8EF3400F9E82D
:10200300FCE9FDEE2435F582EF3400F583E0F8EECC
:102013002437F582EF3400F583E0F50AE508850AF5
:10202300F0A4F508AAF0850AF0E509A42AF509E861
:102033002508F8E43509F97A257B001216E1EA8CC4
:10204300828D83F0F8740758F97401B90002800493
:10205300C333D9FCFAE8131313541FF8EE28F8EF2F
:102063003400F9E8245DF582E93400F583E05A6031
:1020730008EE2434F582EF802CEE2434F582EF341D
:1020830000F583E0C0E0EE2436F582EF3400F583FB
:10209300E0F5F0D0E084A8F0EE28F8EF3400F9E89A
:1020A3002438F582E93400F583E0F9122CAF021FDE
:1020B3002FC082C083851882851983E0F8A3E0F9D5
:1020C300C3EA9CEB9D5010C3EC98ED99401BC3EA07
:1020D30098EB995014800EC3EA98EB994007C3EC30
:1020E30098ED994004790180027900D083D082224F
:1020F300EAC39CFAEB9DFB2274EF12182F90055E46
:10210300E064086005E06407702A9061C8E0602419
:1021130090058CE0F4601DE0F875F003A4C8AAF004
:102123002AF9748E28FE740539FF8E828F83A3A348
:10213300A3E0700302222B906060E0C0E0EE24680D
:10214300F582EF3400F583D0E0F0750C18750D07B8
:10215300750800750900E5D914F50AE5D95403F5A6
:102163000E60177403650E605CE50A6010EE246769
:10217300F582EF3400F583E0700302221090071319
:10218300E06401602AEE2482F582EF3400F583E0F7
:102193006004780480027800850A08E508C398FA89
:1021A30095E0FB120D438A088B09EA450970051275
:1021B30010EB8074EE2482F582EF3400F583E07037
:1021C300048A0C8B0DE50A6012850C82850D83F55C
:1021D3000BE5D9F0A3150BE50B70F6EE2482F5821F
:1021E300EF3400F583E0604474FC250AF50A780CAB
:1021F3001219D6AC0AA90EEEFAEFFB120F3B7402CA
:10220300121782E97026AA08AB09120659793D8E86
:10221300828F83A3A3A3A3E0FA7B00120C1DEEFA23
:10222300EFFB120EB7120F6B790080747403650E07
:102233006056850A1075110078101219D6AC0CADD2
:102243000DAA08AB09120F177402121782EE246845
:10225300F582EF3400F583E064807004747F8001BD
:10226300E0F50C780C1219DAE50EF50C780C12195E
:10227300DAA90AAC08AD0990058CE0FA7B00120BD1
:10228300DB7402121782801390055EE06408600B12
:10229300AC0CAD0DEEFAEFFB120FC51210F779017E
:1022A3007F0A0218DB74F512182F74FC12176CEAFC
:1022B300FEEBFF8908A2AFE433F509C2AF806AEEF3
:1022C3002463F8EF3400F97A007B00A2AFE433F51E
:1022D3000AC2AF88828983E0FCA3E0FDEC4D603A3B
:1022E30088828983E0FAA3E0FB8A828B83E0FCA3E4
:1022F300E0FD88828983ECF0A3EDF08A828B83E48E
:10230300F0A3F088828983E0FCA3E0FDEC4D700A22
:1023130088828983A3A3E4F0A3F0E50AA2E092AF45
:1023230012065990069FE004F0EE2463F582EF3421
:1023330000F583E0F8A3E0F9E849603DEE2463F596
:1023430082EF3400F583E02402FAA3E03400FBEAD1
:102353002402F50AEB3400F50B780A1219D68A82A7
:102363008B83E0FCA3E0F9EEFAEFFB120EDB7402C1
:10237300121782E970030222C290069FE060639005
:1023830006A0E0F890069FE0C398500C740265081D
:1023930070509006A1E0604A8E828F83A3A3A3A30B
:1023A300E0851882851983F0A3E4F090069FE0F896
:1023B30074021217B7E8F0A3E4F090069FE0F890D8
:1023C300069EE028F074021217B7AC82AD8385181D
:1023D30082851983AA82AB837901120BE790069F4A
:1023E300E4F0E509A2E092AF7404121782021F2FF2
:1023F30000852A87852BC622C0E0C0D0E8C0E0E96B
:10240300C0E0EAC0E0EBC0E0ECC0E0EDC0E0EEC04D
:10241300E0C008C009C00AC00BC082C083C0F0A2DC
:10242300AFE433FEC2AF759B00906182E0A2E0503F
:1024330012E591A2E0500C7591FE7401652A7003B8
:102443001220FBE0A2E55051E591A2E5504B7591B6
:10245300DF90055EE064076005E0640870237401A3
:10246300652A7035790190058CE0FA75F003A4CAEA
:10247300A8F028FB748E2AFA74053BFB1222A8806D
:1024830018E0640D7013900580E004F06428700276
:10249300E4F07A00E0F91210FD906182E0A2E640D8
:1024A30003022542E591A2E640030225427591BF4E
:1024B30090055EE064057008120FFB12100780039D
:1024C300121001752A00121073E990055FF079006C
:1024D300121055120DFD7A017B0090055DE0F91293
:1024E30004CD907803E064427055900717E014F030
:1024F300704DC2AF1224FA007833D0E0F618D0E062
:10250300F6E59F540770057509FF800375097FC4BD
:10251300C0E07832E6F50808E65509F509740B784A
:102523000812174AD0E02508F8906270E0A2E7404D
:10253300F8E8C333906272F0906270E0D2E0F090FA
:102543006181E0A2E35009E5E9A2E3500375E9F7ED
:10255300A3E0A2E75009E591A2E7500375917FEE4E
:10256300A2E092AFD0F0D083D082D00BD00AD009B2
:10257300D008D0E0FED0E0FDD0E0FCD0E0FBD0E01E
:10258300FAD0E0F9D0E0F8D0D0D0E032C0E0C0D04B
:10259300C082C083906183E0A2E05009E5BFA2E05E
:1025A300500375BFFEE0A2E15009E5BFA2E150036D
:1025B30075BFFDE0A2E25009E5BFA2E2500375BF7B
:1025C300FBE0A2E35009E5BFA2E3500375BFF7E0C8
:1025D300A2E45009E5BFA2E4500375BFEFE0A2E512
:1025E3005009E5BFA2E5500375BFDFE0A2E650093D
:1025F300E5BFA2E6500375BFBFD083D0828088C0F9
:10260300E0C0D0E8C0E0E9C0E0EAC0E0EBC0E0EC45
:10261300C0E0EDC0E0C0F0E5A7A2E6500FE5A1A23F
:10262300E6500953A7BF75A1BF122667E5A7A2E528
:10263300500CE5A1A2E5500653A7DF75A1DFE5A77E
:10264300A2E15009E5A1A2E1500375A1FDE5A7A20E
:10265300E2500CE5A1A2E2500653A7FB75A1FBD003
:10266300F002257874F812182F752A0190055EE0A0
:1026730064067015120F898A828B83A3A3A3A3A375
:10268300A3E0FAA3E0FB120FE9A2AFE433FED2AF5B
:10269300900564E0640170187A207B0090055DE08A
:1026A300F91205577A207B0090055DE0F91204D3F7
:1026B300906182E0D2E6F0900714E0602185C62B9A
:1026C3008016900563E064017008E5C654F844057C
:1026D300F5C653BEFC1223F47401652A60E4EEA22E
:1026E300E092AF7F010218DB008E2C8F2D858231A3
:1026F300858330851882851983E0CEA3E0CF8531A9
:1027030082853083EBC9EAC8EDCBECCA75F010C300
:10271300E833C8E933C9EA33CAEB33CBC3EA9EF5DE
:102723002FEB9FF52EB35004AB2EAA2FEC33CCED39
:1027330033CDD5F0DAAE2CAF2D2274E912182F74F5
:10274300F812176C851882851983ECF0A3EDF08AD3
:10275300088B0990055EE024F7C3940550067508BD
:10276300010228D4120F898A0A8B0BAE0AAF0BEE33
:102773004F70030228D1AC08AD0974021217B7AA2F
:1027830082AB831210198E828F83A3A3750CFF75FE
:102793000DFF750EFF750F00780C1215DD74021214
:1027A30017B77510FF7511FF7512FF7513007810B9
:1027B3001215DD780C791012135B502A780C7910FE
:1027C3001215A27508017509C8750A00750B007802
:1027D30008790C12135B5052850C08850D09850E80
:1027E3000A850F0B80507514017515C87516007591
:1027F300170085100885110985120A85130B7808BF
:10280300790C1215A27814790812135B401C750811
:1028130000750900750A00750B0178087910121507
:10282300A27808790C121569800C750801750900E6
:10283300750A00750B007409780812154A750C198E
:10284300F50DF50EF50F7808790C12142E8E828F84
:1028530083A3A3A3A3A3A3E0F8A3E0F97AD07B0304
:102863001216E1880C890DE4F50EF50F7808790C42
:1028730012156974061217B7E0F8A3E0F97AD07B52
:10288300031216E1E8FA8A0CE4F50D7808790C12C4
:10289300135B50077808790C1215A290055EE0646B
:1028A30008600AE064066005E06405702D750C0D90
:1028B300780C790812135B4021750CF4750DFF75C4
:1028C3000EFF750FFF7808790C121569800C7508D7
:1028D30000750900750A00750B0085188285198338
:1028E300E0F8A3E0F5838882780812164B74081287
:1028F30017827F100218DB74F712182F12102B9017
:102903000712E064017010906245E4F0A3F053F401
:10291300F343FE0C5390F3120FD7E5C6548044499A
:10292300F5C6E59E547F644970F8906185740FF095
:10293300900710E0F47002A3E0604E900711E0608E
:102943000814601B14602E804075080175090090FF
:102953000710E07808121759E508F45280802A75A9
:102963000801750900900710E07808121759E50867
:10297300F452908014750801750900900710E078EF
:1029830008121759E508F452A079007F020218DBF8
:1029930074F712182FE9FEEAFF74016E700C7A8047
:1029A3007B0090055DE0F91204CD902CC0E493F414
:1029B3006008E493F9120DF1800953C680E59E5433
:1029C3007F70FA120FDD900712E064017003120E9C
:1029D30015900710E0F47002A3E0604B900711E03C
:1029E300600814601A14602C803D75080175090095
:1029F300900710E07808121759E50842808028757F
:102A03000801750900900710E07808121759E508C6
:102A130042908013750801750900900710E078084B
:102A2300121759E50842A012102B120F898A088B3E
:102A330009A808A909E8496015E5E170FCE8241430
:102A4300F582E93400F583E0F46003E0F5E1740115
:102A53006F700A7A0190055DE0F912052702298E4D
:102A630074ED12182F8A088B098C0A8D0B741312BC
:102A730017B7780C12163C7808790C12135B751093
:102A8300017511C875120075130050127808790C7E
:102A93001215A27810790812135B50168010780C67
:102AA30079081215A27810790C12135B400479018E
:102AB300800279007F0C0218DB74ED12182F8A084C
:102AC3008B098C0A8D0B74131217B7780C12163CF2
:102AD300780C790812135B40117808790C1215A24F
:102AE300AA08AB09AC0AAD0B802275100075110062
:102AF3007512007513017810790C1215A2781079EC
:102B030008121569AA10AB11AC12AD1380A68A8204
:102B13008B837508FF7509FF750AFF750B0078082D
:102B23001215F07F040218DB74F512182F8C828DB6
:102B330083780812163C8A828B8378081215B6EACA
:102B43002404F8EB3400F98C828D83A3A3A3A3E0C0
:102B5300FCA3E0FD88828983C3E09CF0A3E09DF0A1
:102B630088828983C3E09420A3E0944E40268A821E
:102B73008B837508FF7509FF750AFF750BFF7808CE
:102B830012158F8A828B83A3A3A3A3E02420F0A32F
:102B9300E0344EF0022B1174F512182FE9FE900663
:102BA300B3E0FAA3E0FBEEC333F8E433F974C228CD
:102BB300F582748439F583E02AF508A3E03BF5092F
:102BC30078081219D67A407B427C0F7D001226ECDE
:102BD30074021217828A088B098C0A8D0B74107881
:102BE30008121531AA08AB097F040218DB74F1122D
:102BF300182F8A0C8B0D8C0E8D0F740F1217B7E0E4
:102C0300FAA3E0FB74111217B7E0F508A3E0F50986
:102C130078081219D6EA2401F508EB3400F509E423
:102C2300F50AF50B780C79081213AE75087175095E
:102C330002780C79081213AEAA0CAB0DAC0EAD0FD3
:102C43001226EC74021217828B09EA450960047A92
:102C53000180027A00EC2AFCED3400FD7413121794
:102C6300B7E0F8A3E0F9E8FEE9FFECF8EDF97A71D3
:102C73007B021216E1880889098E828F83780812F5
:102C8300164BECF8EDF97A717B021216E18A088B88
:102C930009740578081217598E828F83A3A3A3A3FF
:102CA300E508F0A3E509F07F080218DBC082C083C2
:102CB300E9906000F0D083D08222020135FFFFFF4C
:102CC300FFFFFFFFFFC082C083852182852283E04F
:102CD3006420700A852283A3858221858322023D95
:102CE3005C74F41217C3A821A922AC21AD22801C65
:102CF300A3AA82AB838A828B83E0F50A7420650AD8
:102D030060EE7409650A60E8EAFCEBFDECFAEDFBA2
:102D13008A828B83E075F00D84E5F033FEE433FFA4
:102D230074862EF58274093FF58312652B8004ECBB
:102D3300FAEDFB8A828B83E0F50A7427650A600645
:102D43007422650A703A122EB38A828B83A3AA82F5
:102D5300AB838A828B83E0FCA3AA82AB83888289BC
:102D630083122EB9E50A6C609F740A6C70E4E82440
:102D7300FFF8E934FFF9EA24FFFAEB34FFFB80881C
:102D8300740A650A701A88828983740AF0023340D0
:102D9300AE08AF098A828B83A3AA82AB83E0F50ACC
:102DA3008E828F83A38582088583098E828F83E039
:102DB300650A60DCE0F50AC394804033C3E52198DB
:102DC300E522995008122EAC700318A983122EB372
:102DD3008E828F83E064806003022CF885088285ED
:102DE3000983E088828983F0A308A983022CF8EE83
:102DF300FAEFFB8A828B83A3AE82AF838A828B83B3
:102E0300E0C3948040E9EE24FF122EA6648070088C
:102E13008E828F83A30EAF838E828F83E060030243
:102E23002D328C828D83125A3D5016122EB38C8212
:102E33008D83A3AC82AD83125A3D4003022D0F80D4
:102E4300EA88828983A3AA82AB837409650A600630
:102E53007420650A7036C3E52198E5229950101253
:102E63002EAC600B888289837420F0EAF8EBF98C2E
:102E7300828D83A3AC82AD83E0F50A7420650A607A
:102E8300EE7409650A6003022D0F80E3888289834B
:102E9300E50AF0EAF8EBF98C828D83A3AC82AD836B
:102EA300022D0FEF126B30E022126FD0E06420226C
:102EB30088828983E50AF0A3A882A9832274E81291
:102EC30017C3E9FE8A0C8B0D8C0E8D0F75100A75D6
:102ED3001100751200751300908634780C121335A7
:102EE300401C792D1205F9780C1215068010908577
:102EF300FC780812163C781079081213AE1E78106D
:102F0300790C12130B50E7EEFF74FF2F1E04C394CA
:102F130001A2D265D033403D79201205F980E885BE
:102F23000C08850D09850E0A850F0B851014851174
:102F330015851216851317780879141214C890850D
:102F4300FC781412163C780879141214C8E514247A
:102F530030F91205F99085FC780812163C7810793F
:102F6300081214C8E51045114512451370B18003CA
:102F73001217827F1002189574F61217C31203B941
:102F83009002D1E4F0A312597D802B125EBCE87548
:102F9300F00AA4F8AAF075F00AE9A42AF9E50828CA
:102FA300F8E439F9E824D0F8E934FFF99002D1E8DC
:102FB300F0A3E9125972E0F50874D02508C3940A06
:102FC30050159002D1C3E09499A3E094199002D1D3
:102FD30040B974FFF0A3F07F02021895C082C0834A
:102FE3007A007B00852182852283E0F87422686061
:102FF300057427687025852283A385822185832212
:1030030080031264ED7921E72AF58209E73BF58312
:10301300E0F9E8696009740A6970E77AFF7BFF02E7
:103023003D5C74F71217C3EAFEEBFF800C1205F93F
:103033008E828F83A3AE82AF838E828F83E0F970FB
:10304300EC790A1205F97F01021895C082C08390BA
:1030530002CFE0FAA3E0800E8A828B83A3A3E0F879
:10306300EA28FAEB3400FBEA65237003EB6524607E
:10307300138A82C082125EB98B83D082C3E098A385
:10308300E09940D4023D5C74F01217C389088A09A1
:10309300750A201231CEF50CA3E0F50D9002CDE0B8
:1030A30024031231BFAA0CAB0DE4FCFDA9081203E3
:1030B300C5800579201205F985090C74FF250CF5E7
:1030C300090470EF803AA90B1205F98E828F83E011
:1030D300F50BA3AE82AF83E50BC3948040E8EE24E7
:1030E300FEF582122EA6F50B7428650B600F1231C4
:1030F300CE642C600879201205F9750B20850B0A24
:103103001231CEF50B9002CDE02401081231C074C8
:103113000A650B70030231B7E50BC394805007A90E
:103123000B1205F980D77C867D0980267480650D96
:103133007004A80EA90F88828983A3A882A983E8B3
:10314300FEE9FF88828983E0701DEC2402FCED34E4
:1031530000FD8C828D8312652BEE4F60A0EEF8EF9D
:10316300F980E0A80EA90F88828983A385820E8542
:10317300830F88828983E0C3948040E7E0F50DE5FF
:103183000B650D70A77480650B701B850E82850F10
:1031930083E0FB9002CD125EDDE06B708F9002CD79
:1031A300E024011231BF7420650A600579201205FD
:1031B300F90230CE790A1205F90236ECF8A3E034AD
:1031C30000F99002CDE8F0A3E9F0229002CD126558
:1031D30014E02274F01217C3E9FFEAFE75080075C4
:1031E3000900750A00750B00802274D02AFAEAC31D
:1031F3009E50518E0CE4F50DF50EF50F7808790C01
:103203001213AE8A0C7808790C121569EFF974FF62
:10321300291F046035852182852283E0FAA38582F4
:103223002185832274D02AC3940A40BE74BF2AC363
:103233009406500474C980B4749F2AC3940650043E
:1032430074A980A8752502125B48AA08AB09AC0AC9
:10325300AD0B0236EC74F41217C38908EAFCEBFDDC
:103263009002D3E06508700D9002D4125EBC8C828C
:103273008D8302332374BF2508F985080A750B0073
:103283007402780A1217597826E6250AFA08E635F1
:103293000BFBEA24FCFAEB34FEFBE9131313541F74
:1032A300FE18E62EFE08E63400FFEE2468F582EFF2
:1032B300123CDFC0E0740759F8D0E0B80002800484
:1032C300C313D8FCA2E05063A828A929800D8882E3
:1032D300898312652AE82EF8E93FF9C3E89526E9C0
:1032E3009527504788828983E0645670E1A3A3A39E
:1032F300A3E0650870D88C828D83123CF98882899B
:1033030083A3A3A3E06402602DE5089002D3F090A9
:1033130002D4123CF9E82408F8E93400F99002D603
:10332300123CF99002D6126BE4800B8C828D83746D
:10333300A2F0A37409F0800574021217827F0402BD
:10334300189574EC1217C3EAFEEBFF123CFF5061B1
:10335300A38582218583221203EF8A088B098E823B
:103363008F83125F6A705C852182852283E06428E3
:10337300703FA385822185832279011204078A1075
:103383008B118C128D13E5257027908634781012DB
:103393001335501D8E828F83123D14F50CA3E03438
:1033A300FFF50DE4F50EF50F780C791012130B40B1
:1033B300067A007B008010E5082510F508E509353D
:1033C30011F509AA08AB097F0C02189574F21217BC
:1033D300C3E9FE8A088B09A808A9091234B1EA24B3
:1033E300F8F8EB34FFF9C3E89523E9952450067503
:1033F30025040234AC85080C85090DE50C2408F876
:10340300E50D3400F91234B18A288B29AC28FD8CE0
:10341300828D837456F0E50C2408A3123CFA8C8247
:103423008D83A3A3A37404F0EE8C828D83A3A3A343
:10343300A3F074BF2EFF1258DA5FFA88828983E003
:10344300C0E0EAFBD0E0BB00028004C313DBFC5402
:10345300018C828D83A3A3A3A3A312593BA3A3121D
:103463005950B800028004C333D8FCF974FFC399E0
:10347300F8E05849F07828E62408FA08E63400FB17
:10348300740E1217B7126BDBEC4D600F780812192C
:10349300D612047974021217828009AC08AD097937
:1034A300001204919002D3E4F07F06021895C31230
:1034B30034B622E498FAE499FB78281234C222E65F
:1034C3002AFA08E63BFB2274F01217C3E9FEEA244A
:1034D300FCFCEB34FFFD74BB6E701A8C828D837819
:1034E3000812163C78081215068C828D8378081210
:1034F300164B0236ECECFAEDFBEA24FCFCEB34FF52
:10350300FDEE121A1AA911E03630354435583574D8
:10351300359D35D235E735FC351136203636364CF8
:10352300364C36623678362036A136BC368A828BE4
:1035330083780812163C8C828D83780812158F804D
:10354300B18A828B83780812163C8C828D8378082B
:103553001215B6809D8C828D83780812163C8A8260
:103563008B83780C12163C7808790C1213AE023652
:10357300D58A828B83780C12163CE50C450D450EDB
:10358300450F70030236E58C828D83780812163C52
:103593007808790C1214C80236D58A828B83780C8A
:1035A30012163CE50C450D450E450F70030236E53A
:1035B3008C828D83780812163C7808790C1214C813
:1035C300850C08850D09850E0A850F0B0236D58AF1
:1035D300828B83780812163C8C828D8378081215AF
:1035E300F00236EC8A828B83780812163C8C828D2B
:1035F3008378081216160236EC8A828B83780812B7
:10360300163C8C828D8378081216290236EC8A8246
:103613008B83780812163C8C828D83804F8A828B31
:1036230083780812163C8C828D8378081212DD6031
:103633005C80568C828D83780812163C8A828B8339
:103643007808121320504680408A828B83780812B0
:10365300163C8C828D8378081212DD7030802A8CA0
:10366300828D83780812163C8A828B837808121322
:1036730020401A80148A828B83780812163C8C822D
:103683008D8378081213205004D2F08002C2F0A276
:10369300F0E433F508E4F509F50AF50B80348C8280
:1036A3008D83780812163C8A828B83780C12163C21
:1036B300E50C780812154A80198C828D83780812DC
:1036C300163C8A828B83780C12163CE50C78081220
:1036D30015178C828D83780812164B800C75250282
:1036E30080037525037A007B007F0802189574E830
:1036F3001217C374D112176C74021217B7E9F0755D
:103703000E01E5256003023A7D740F1217B7858217
:103713000885830974071217B7AE82AF83740E123C
:1037230017B7A882A98374051217B7123CF9740757
:103733001217B7A882A98374031217B7123CF9743E
:103743000F1217B78582168583178055742F1217AA
:10375300B7E58265087004E5836509700302386D77
:10376300852182852283E0F50A750B007402780AAD
:10377300121759744E250AF5827481350BF583129D
:10378300165A850882850983121666852182852249
:1037930083A3858221858322851408851509750EE7
:1037A30000852182852283E0F510125E9EE50824C0
:1037B30004F514E5093400F5158E828F83A3858201
:1037C3000C85830D8E0A8F0BE510121AF7029A9C53
:1037D300223AABBA2A3C0F0A973820A43728FF397C
:1037E30029A53A2C5A3A804F37A92A3CAA213CBC36
:1037F300223ABD9639BE223ABFD938C01139C1C366
:1038030038E2223A093874D02510C3940A5031742F
:103813002F1217B7E58265087004E5836509604ACE
:10382300882189227A0A79FF1203E98508828509AA
:10383300831216668514088515097525000237A1BC
:1038430074BF2510C3941A504B851882851983AA17
:1038530082AB83A9101203EF125F64701374051215
:1038630017B71265315003023A11752504023A7DE8
:10387300742F1217B7E58265087004E58365096044
:10388300E98A828B8312165A850882850983121668
:103893006602379B8821892274031217B7C3E09EFF
:1038A300A3E09F4003023CA8125918AA08AB098E53
:1038B300828F83E0F9120401123CC940DB023A769D
:1038C300742F1217B7E58265087004E583650960F4
:1038D300997A100238291203B9A821A9228882896A
:1038E30083A385822185832288828983E06429607A
:1038F30003023A76742F1217B7E58265087004E560
:10390300836509700302386D12064702388B120370
:10391300B9A821A92288828983A38582218583224C
:1039230088828983E064296003023A76742F121730
:10393300B7E58265087004E5836509700302386D95
:1039430075B61FE5B4A2E750FAE5BAF50AE5BBF987
:10395300E50AF50CE9F50D7406780C12173AE50D36
:103963003395E0F50EF50F90863C781012163C78EF
:103973000C79101213AE908638781012163C780C1E
:1039830079101214C8850882850983780C12164BA6
:1039930002379B123CFF4003023A76A3E06429609E
:1039A30003023A76742F1217B7E58265087004E5AF
:1039B300836509700302386D852182852283A3A361
:1039C300858221858322851882851983AA82AB8308
:1039D3001203EF125F646003023A76851882851939
:1039E30083125A8685088285098388088909750A9E
:1039F30000750B00780812164B02379B740F1217D1
:103A0300B7E5826E7003E5836F700302386D8E82B3
:103A13008F83E510F0AE0CAF0D750E010237A47461
:103A2300051217B7126531400302386D8E828F83FA
:103A3300E510F0AE0CAF0D8E828F837428F0A30EC9
:103A4300AF8380D5123CE5603EAA08AB09E8F912C2
:103A53000401123CC9501C74071217B7E5826E703B
:103A630003E5836F70DE74021217B7E0640270031C
:103A730002389BE52570037525027A007B007C00E4
:103A83007D00742F022F73A3AE82AF830237A1127E
:103A93003CE5602AAA08AB09E8F9120401123CC903
:103AA30050D174071217B7E5826E7003E5836F7008
:103AB300DE74021217B7E0640170B802389B740316
:103AC3001217B7C3E09EA3E09F40030237A4740F0D
:103AD3001217B7E58265087004E58365096094E50C
:103AE3000824FCF50AE50934FFF50B850A82F58302
:103AF300780C12163C1259188E828F83E0F510242D
:103B030066606814606B14606E24E0600B24FE60D2
:103B13003024DC6075023BB8908634780C12133580
:103B23004005780C121506850C10850D11850E12B3
:103B3300850F13850A82850B83781012164B023A80
:103B43001C1204978A108B11E4F512F5137810797F
:103B53000C1214C8850A82850B83E50CF0A3E50DCE
:103B6300F0A3E50EF0A3E50F023C16AA0C79008042
:103B73000AAA0C79018004AA0C7902120431850A7D
:103B830082850B83121666023A1C850D11E51154CA
:103B9300806003023A76E4F510F51178101219D615
:103BA3007900AC0AAD0BAA0CAB0D1206DD74021240
:103BB3001782023A1C74BF2510C3941A50588518F3
:103BC30082851983AA82AB83A9101203EF125F6463
:103BD3006003023A76908634780C12133540030260
:103BE3003A76123D0EF510A3E034FFF511E4F51219
:103BF300F5137810790C12130B4003023A76EA2579
:103C03000CF582EB350DF583E0850A82850B831273
:103C130064FAA3F08005A3AE82AF83023A1CE50EDB
:103C2300A2E050037510BB85100A749E250AF58225
:103C33007483123CDFF50AEE24FFF8EF34FFF988B2
:103C4300828983E0FC74572CF50C74071217B7E5CF
:103C5300826E7003E5836F6019E50CC394135012F1
:103C63007447250CF5827484123CDFFAE50AC39A83
:103C7300501F740F1217B7E5826E7003E5836F70E0
:103C83000302386D8E828F83E510F0A3AE82023A71
:103C9300431EE9FFAA08AB09ECF9120401123CC95F
:103CA3004095023A7674131217B7E58265087004DB
:103CB300E58365096003023A76E50824FC126B2C60
:103CC30012165A023A858A088B098A828B83C3E5C6
:103CD300169582E517958322F58208E63400F5836D
:103CE300E022EE24FF1EEF34FFFF8E828F83E0F885
:103CF300642822900300E8F0A3E9F022852182855D
:103D03002283E0F974BF29C3941A22851882851986
:103D130083E0F8123D1A2212651AA3E024F822C0A8
:103D230082C0837A007B0C12050F9002CF126B9F27
:103D33007C007D0C79001204911259A69002CF12D7
:103D43006C002494F582E8340BF583858226858301
:103D530027852628F529120413D083D08202013542
:103D6300C082C0837A217B851203D71258A5120320
:103D7300C57A777B851203D77A5F7B861203D78058
:103D8300D874F61217C312060512040D123E05125B
:103D930005ED120629E960497A72790012060B12C1
:103DA30058F54006125A4812061112061D9002CF0A
:103DB300C3E09523A3E0952450219002CF12651010
:103DC3001219ED75080078081219DA908624121674
:103DD3005A79031206357403121782123E0512052F
:103DE300ED022FDAC082C083800F79007A007B0056
:103DF300120425123E051205ED1205F3E970EB02DC
:103E03003D5CAC28AD297823E62402FA08E63400A9
:103E1300FB2274E81217C374F112176C74021217A1
:103E2300B7E9F0752500EA4B7003023F009002D119
:103E3300126B9FAE23AF2474021217B7E060217890
:103E430028125891C3EA9EEB9F500302515C8A28C3
:103E53008B298A828B837445F0A37403F0A3E4F067
:103E63001203DD8A828B83A3A3A385822185832208
:103E7300C3E5219EE5229F4003024279A821A9229E
:103E830088828983A385822185832288828983E02E
:103E9300121A1A8028A7407242114158416F419566
:103EA30041F4411742EC3E46426142B242B2424AB9
:103EB3004AE042FF42594B1D501D507143A44D0F20
:103EC30044244219447144A344FA44194519451939
:103ED3004561456F45DC45FA465E47C8477348ADC3
:103EE3004823493E496D497B49852182852283E0E8
:103EF300640A60030242721259A60242469002DD2E
:103F0300E4F0A3F0852382852483A3A385822185FE
:103F130083221203BF750A0074021217B7E50AF071
:103F230004F50AE0FA7821E62A123CDB640A70E819
:103F3300A80AC3E498FE95E0FF750B00780A1219EE
:103F4300D6AC21AD227828E62EFA08E63FFB12050F
:103F5300FF74021217827828E62EFA08E63FFB8ADE
:103F6300218B221203CB1203B99002D112719C70E0
:103F730019852382852483A3A3858221858322E057
:103F8300640A6003023E7F0240A39002D1E0F47012
:103F930003A3E0F4700302427278211258918A213C
:103FA3008B22A821AA28EAC398F50A9002D1E088B7
:103FB300828B83123CFAE50A88828B83A3A3F012D7
:103FC30003DD8A088B09AE08AF09EE65237003EFA2
:103FD3006524604F8E828F83126BD4E0687003A3D5
:103FE300E069703F8E828F83A3A3E0F88882AC825E
:103FF300C3E49CFA95E0FB78231234C28A238B2412
:10400300EAC39508F50CEB9509F50D780C1219D652
:10401300EE2CFCEF3400FDEEFAEFFB120479740290
:10402300121782852182852283A3A3A3E0640A60F9
:104033006FAC23AD24850A8285820C750D0078212F
:10404300E6C39CFA08E69DFBC3EA950CEB9400508B
:10405300077902740F022F73ECC39508F508ED95E9
:1040630009F50978081219D6EEFCEFFDEE250AFAD8
:10407300EF3400FB1205FF7402121782780C121939
:10408300D6AC21AD22EEFAEFFB12047974021217BB
:10409300827823E6250AFA08E63400FB8A238B2478
:1040A300790180AF125B488A82F583E0C394804034
:1040B30003024272740D1217B7AA82AB831203F57F
:1040C3008A088B09AE08AF09EE4F7003024272856E
:1040D3002182852283E064B56003024272A3858254
:1040E3002185832279001204078A088B098C0A8DA3
:1040F3000BE5256003024272740D1217B7125F6A53
:104103008E828F836003024CEEEAF0024CF3750853
:10411300017509017E017F001203CB85218285226F
:1041230083E0640A60030242729002CFE0F8A3E0E6
:10413300F9E865237003E965247003024D1E888244
:10414300898312652B88828983A3A3E0FAE82AF87E
:10415300E9340080DB1259A67A72790012060B1239
:1041630058F54022125A48120611801A7A777900BC
:1041730012060B78239002CF126BE4E6C39AFC0875
:10418300E69BFD12061712061D85232185242202B4
:10419300427979001204078A08AF08E52560030213
:1041A3004272EF70030242761203B9125A02505C54
:1041B300E0F87420686005740A6870537A72EFF946
:1041C30012060B12589B500302427274031217B764
:1041D300AA82AB83EEF91203EF74031217B7125FCF
:1041E3006A6003024E2974031217B7125A0C024E67
:1041F3002D79001204078A08AF08E5257071EF6076
:10420300721203B9125A025003024E36125B48125D
:10421300061D805B1258A51203C57A777B851203AE
:10422300D7852182852283E0640A7047025028855E
:104233002882852983E064537006125A22120AAF3A
:10424300125AA8C3E5289526E529952740E190024F
:10425300CF1265101258BA5003023E7F8018852191
:1042630082852283E024BFC3941A5003024B45E5A1
:10427300257003752501E525C333F8E433F974F29A
:1042830028F582748439F583126BE41203D7AC21C9
:10429300AD22C3EC9523ED952440030249F5E525B2
:1042A30070030249FF9002CFE0FAA3E00249AC7920
:1042B300001204078B098C0A8D0BE52570B185214B
:1042C30082852283E0640A70AA125889600302423D
:1042D300247900A3858221858322024A1979001259
:1042E30004071259677088852182852283E0640A56
:1042F30070811203DD8A828B830242577900120494
:10430300071259676003024272852182852283E086
:10431300640A6003024276AE23AF2485288285298E
:1043230083A3A3A3A3A3C3E5829EE5839F500302B4
:10433300515C7828E624FB126B5EA828F9888289F1
:10434300837447F0A37405F0A3E4126B83E521F0B3
:10435300A3E522F01203DD8A828B83A3A3A38582C4
:1043630021858322C3E5219EE5229F02425A1259E9
:104373008540030242728813A3858221858322121A
:1043830003B9852182852283E064B560030242720A
:10439300A385822185832279001204078A088B0969
:1043A3008C0A8D0BE5256003024272A821A922889D
:1043B300828983A385822185832288828983E0641D
:1043C300C2600302427679001204078A0C8B0D8CBB
:1043D3000E8D0FE5256003024272A821A92288826F
:1043E3008983A385822185832288828983E064C3AC
:1043F3006003024AAC79001204078A148B158C16E9
:104403008D17E5256003024272024ABBC2AF75C92C
:10441300AB75C95B80FE1259854003024272740278
:104423001217B7E81259721203B9852182852283C4
:10443300E064286003024272A38582218583227986
:1044430001120407E5256003024272E4F50CF50D41
:10445300780C1219D674041217B7E0F91203FB741F
:1044630002121782E52560030242720242247E0093
:1044730079021204078A08AF08E525600302427235
:104483001203B9852182852283E064C46003024E4E
:104493007FA3858221858322EFF912062F0242240E
:1044A30079001204078A088B098C0A8D0BE52560B5
:1044B3000302427290863478081213354003024295
:1044C30076A821A92288828983A3858221858322D4
:1044D30088828983E0640A70E885218285228312B9
:1044E30019ED750C00780C1219DA7903120635747C
:1044F300031217820240A379001204078B098C0A66
:104503008D0BE52560030242721258897003024E37
:10451300F67901024EF8125B4812042B740212174B
:10452300B7E9F0E525600302427285218285228383
:10453300E064B56003024276A385822185832279F4
:10454300001204078B098C0A8D0BE52560030242D8
:10455300721258897003024CCC7803024CCE125865
:10456300C35003024FC875250702427990030274B2
:1045730001F0127199700A90030074E1F0A37402C0
:10458300F0852182852283E0F50A75080075090309
:10459300246B700302538624B870030251671460BE
:1045A3001024FE700302517714700302524F02531A
:1045B300F8125A9050030249A3125ABE7405F090A0
:1045C3000300E02401125994F0852182852283A3FC
:1045D300858221858322024224900302E4126BB96F
:1045E300C39480508D7510007F0079001204078AF0
:1045F300088B098C0A8D0BE52560030242721203B6
:10460300B9852182852283E0242360091470030283
:1046130051620242727E01A3858221858322E06476
:10462300DE70090E0EA38582218583228521828572
:104633002283E064E3700AA38582218583227510B7
:1046430001852182852283E064E47008A3858221A9
:104653008583220F852182852283E064D56003024E
:104663004276A3E0648E600302427685218285222E
:1046730083A3A3858221858322790012040712591B
:10468300676003024272125EB990037F123CF978AD
:10469300081219D27C007D0079007A027B00120691
:1046A300D7740412178278081219D27C007D00791E
:1046B300007A037B001206D77404121782EFA2E07C
:1046C300B3E433F508E4F509F50AF50B7808121994
:1046D300D27C007D0079007A237B001206D7740414
:1046E3001217821207197B00E510A2E0E433FAEEF9
:1046F300F912071302422479001204078A088B096E
:10470300A909E5256003024272AE08E9547FFFE977
:10471300548070030254B3851882851983AA82AB2F
:1047230083852182852283E0F91203EF8A088B09AE
:10473300AC08AD09125F64600302427290863412C2
:1047430019E974041217B7123D14F9EEFAEFFB12CC
:1047530006D77404121782E902446974051217B765
:10476300E4F012042B74061217B7E9F0E525600391
:104773000242721203B9A821A92288828983A385E0
:10478300822185832288828983E02438600A24FE7B
:104793007003024F3B02499D74071217B77410123E
:1047A3006BB9F8A3858221858322740A68600302AA
:1047B3004EFE74081217B77418F074091217B71263
:1047C3005B48024F46750C0012042BE9FEE5256099
:1047D30003024272EE131313541F5407F50EEE54E3
:1047E300C0F50D7480650D700AE50EC39404400393
:1047F300024FC21203B9A821A92288828983A38503
:10480300822185832288828983E0243560091460AC
:104813000302499D750C01A821A92288828983A3DB
:1048230085822185832288828983E0648E600302E6
:10483300499D7900120407E5256003024272EEF9EF
:1048430012063BE97003024FC2A80E7401B80002BE
:104853008004C333D8FCF9E50D6003024F59E58C9E
:10486300A2E0E433450CF58CE942ABD2BD0242240D
:1048730012042BE9F8E5256003024272E8131313CF
:10488300541F5407FA7401BA00028004C333DAFCDC
:10489300F4FAE854C0FB6003024F9EEA52ABE5AB67
:1048A3006003024FB9C2BD024FB9852182852283BD
:1048B300E0F874E868600302554EA385822185837E
:1048C3002279021204078A08AE087902120407EA61
:1048D300F50CE5256003024272EEC3940440030223
:1048E3004276EAC3940440030242768521828522FC
:1048F30083E0FF74E66F600874E76F60030242763B
:10490300A38582218583227900120407E5256003AC
:1049130002427274E66F60030254D578200254D7C2
:10492300852182852283E0243360091470030258B1
:10493300810242729002D9E40245CB790012040746
:104943008A0C8B0D8C0E8D0F780C121A96080000B2
:104953000006724265497242654972426549724274
:104963006549EA9009AAF00242241258C34003029F
:104973004569120437024467A821A92288828983E2
:10498300A385822185832288828983E0241B700387
:1049930002565D24FD7003025627125B48024272E1
:1049A300752505024279E8FAE9FB8A828B83A3A382
:1049B300E0F8EA28F8EB3400F9EA65237003EB65C5
:1049C30024600EC3EC9AED9B40DCC3EC98ED995048
:1049D300D59002CD126B9F793E1205F9793E1205EF
:1049E300F979201205F97A0179001203E3790A12A1
:1049F30005F9740465257004790280027901024087
:104A030056E97003024AA019852182852283A3A354
:104A1300E0FA181258CD1258C3505D7821E62403EA
:104A2300123CDB2476600C14601114600924F760D7
:104A3300D080D50980D2E970CF8062E970CA8582BF
:104A430021858322023E7F7E001203B98521828560
:104A53002283E0640A6003024272A3858221858374
:104A63002280101E852182852283A3A3E0FA782168
:104A73001258CD1258C3400A7A5F7B861203D702BD
:104A830040A3852182852283A3A3A3E0F8748A68C7
:104A930070030E80CF74956870CAEE70C68521824C
:104AA300852283A3A3A30245D2125B487514017523
:104AB30015007516007517001203B985218285222A
:104AC30083E0640A60030242727828E624F21259F2
:104AD3000A500302515C8A288B29AC28AD2985131F
:104AE30010751100740278101217597826E62510F4
:104AF300FA08E63511FBEA24FCF582EB34FEF58374
:104B0300780812164B8C828D837446F0A3740EF0D2
:104B1300A3E4125940E51312593B780C12164B8C3F
:104B2300828D83A3A3A3A3A3A3A3A3781412164BD9
:104B3300EC240CF582ED126B3CE521F0A3E5220297
:104B43004969A3E0640A60030242728009125A228F
:104B5300120AAF125AA8C3E5289526E529952740DE
:104B630003024CC1852882852983E024BB60351468
:104B7300603D14600E24F460D424FD7003024C7570
:104B830002515C12592170CBA828A92988828983F4
:104B9300A3A3A3E0F521A3E0F52288828983125A17
:104BA300AE02422412592170AA125AA80240A3123B
:104BB3006FDA08E6122EA764897098AA28AB298AAF
:104BC300828B83A3A3A3E0F508852182852283E05A
:104BD30065086003024B56750900740278081217C2
:104BE300597826E62508FC08E63509FDEC24FCFC8B
:104BF300ED34FEFDEA2408FEEB3400FF8C828D8346
:104C0300780812163C8E828F83780812157C8C826A
:104C13008D83780812164B8E828F83780C12163C84
:104C2300EA2404F8EB3400F9E8FCE9FD90860C78FB
:104C33000C12133550158C828D8378081213205073
:104C43001F8A828B83125AAE0245CC908634780C2D
:104C530012133540EC8C828D83780812133550E1A2
:104C6300EA240CF582EB123CDFF521A3E0F52202E6
:104C73004224AC28AD29A3A3A3A3E024BFFE12586A
:104C8300DA5EFA8C828D83A3A3A3A3A3E0C0E0EA38
:104C9300FBD0E0BB00028004C333DBFCFB7401BA2E
:104CA30000028004C333DAFCFA74FFC39AFA8882E1
:104CB3008983E05A4BF09002D3E4F0024B56125929
:104CC300216003024272024279780474021217B718
:104CD300E048F074031217B7AC82AD837402121765
:104CE300B7AA82AB8312043D024224780812164B02
:104CF300740D1217B7126BF3126E7B70030242240A
:104D03001204610242240509EEF8EFF97A0A7B00E6
:104D13001216E1880A890BAE0AAF0BEE4F70E71249
:104D230003DD9002CD126B9F1231CEFEA3E0FFEEA6
:104D33004F60291509EEF8EFF97A0A7B001216E1A4
:104D4300880A890BAE0AAF0B80E5E508C3940240DD
:104D5300021508AA08A9091203E305089002CDE089
:104D630065237004A3E0652470030242249002CDFE
:104D73001259F9247760111460D91460CD1460CAF4
:104D830024FA60CF24FD7009E508C394024002159C
:104D930008AA08A9091203E380C2A3858221858397
:104DA30022852182852283E0640A7008790A12052C
:104DB300F90242241203D18A088B09AE08AF0974A1
:104DC300FF6E700374FF6F7050852182852283E02C
:104DD300F8742268700302427274276870030242F7
:104DE30072742C6860B474206860AF79021204078F
:104DF300E525600302427279001203C580A3A8214E
:104E0300A92288828983A385822185832288828936
:104E130083E0F91205F9125918EE4F70E1852182EA
:104E2300852283024D9D7C047D0012061112061D0E
:104E3300024224E0F87420686008740A6860030280
:104E430042127A77EFF912060B12589B5003024273
:104E530072740B1217B7AA82AB83EEF91203EF74C5
:104E63000B1217B7125F6A700A740B1217B7125A34
:104E73000C80047C047D0012061780B179001204B3
:104E8300078A0C8B0D8C0E8D0FE525600302427291
:104E93001203B9852182852283E064C57008A38546
:104EA30082218583220E852182852283E0648E60A0
:104EB30003024276A38582218583227900120407A7
:104EC3008A088B09E525600302427278081219D615
:104ED300EEF50878081219DAAA0CAB0DAC0EAD0F7B
:104EE300EFF91206357403121782E96003024224B4
:104EF300024272790012062302422474C6687009C2
:104F030074081217B77420802A74C768700974086C
:104F13001217B77428801C74C968600302499D7412
:104F2300091217B7E054C0600302427674081217DF
:104F3300B77430F07409800874071217B77408F057
:104F43001217B7AC82AD8374051217B7AA82AB836D
:104F530012043D0244677440650D7027E50EC39447
:104F630004E50C5013C333F8E58C540248F58CE97F
:104F7300428D439A10024224333354FCF8E58C5497
:104F83000480E9E50C33333354F8F8E58C540848CE
:104F9300F58CE942AC439A0202422474406B700CD4
:104FA300EA528DE58D700F539AEF800AEA52ACE511
:104FB300AC7003539AFD120641E960030242247563
:104FC3002506024279A821A92288828983A38582A2
:104FD3002185832288828983E0246B700302514CEC
:104FE30024BF601814700302513E146053146050C0
:104FF30014604D14604A1460470242727821E6241B
:10500300FBF58208E6126B30125EBC900303123C80
:10501300F99003057401F0A3E4F0852182852283CE
:10502300E0640A7012852182852283A31258BA4054
:1050330003024279023E7FA385822185832280DA9F
:10504300900305E02401F0A3E03400F0A821A92295
:1050530088828983A385822185832288828983E04C
:10506300242860E81460E51460E21460D31460D06F
:10507300125B48F583E0FE74BF2EFFC3941A40030E
:10508300024272851882851983AA82AB83EEF912D4
:1050930003EF8518828519831259F9644E60030260
:1050A300501D7828E624F812590A500302515C8AED
:1050B300288B29851882851983126B9F8518828511
:1050C300198312651074561259B8126510A3740827
:1050D300F0A3E41259B174021259B1A3EEF08F1286
:1050E300EF1258DA5512FA88828983E0C0E0EAFBAE
:1050F300D0E0BB00028004C313DBFC5401C0E08595
:105103001882851983E0FBA3E0F5838B82A3A3A315
:10511300A3A3D0E012592DFBA3E0CB2406F582EB29
:10512300126B3C125950B800028004C333D8FCF907
:1051330074FFC399F8E0584902501C900305E0241A
:1051430002F0A3E0340002501C120443E91470037C
:1051530002427214600302501D7525040242797ED7
:105163000202462F125A9050030249A3125ABE74E8
:10517300060245C1A3858221858322E0F50A7427AF
:10518300650A60097422650A60030242721203D140
:105193008A0A8B0BAE0AAF0B74FF6E700374FF6F3A
:1051A3007003024272125A9050030249A31818184E
:1051B300E0F9E508C398F8E50999F9E824FEF5084C
:1051C300E934FFF509C3EE9508EF9509A2D265D03E
:1051D30033501AEE04C0E0900300126510D0E012C1
:1051E3005A807409125A638E088F098015E50804E2
:1051F300C0E0900300126510D0E0125A80740812C8
:105203005A6378081219D6AC21AD22126BE112044D
:10521300797402121782900300E02508F8A3E035A1
:1052230009F9123CF6C3EE9415EF12589D5004EEA3
:10523300FA80027A15AC21AD2279001209AD7821EA
:10524300E62EF58208E63FF5830245D21271997086
:1052530003024272900300E0240108125A9B500398
:105263000249A390030012652B123CF6803E900383
:1052730000125EF6C3E5089AE5099B50030249A3B1
:10528300900300126510E50C125A631203B97A10E9
:1052930079021203E98A0CE52560D38521828522F0
:1052A30083E0650A600302427975250085218285C2
:1052B3002283A3858221858322E0F50A740A650A85
:1052C3007010EEF8900300E0C398148E828F83026F
:1052D30049697427650A60067422650A7009A38503
:1052E300822185832280A474BF250AC3941A4003B4
:1052F30002537AA3E0F8740A6860087420686003B4
:10530300024272851882851983AA82AB83A90A1285
:1053130003EF125F646003024272126D7690030022
:10532300E028F8A3E039F9E824F8F8E934FFF9C3F1
:10533300E50898E5099950030249A3750A08850A07
:105343000C851882851983E0F8126D7CC3E50C98EF
:10535300E49940030252AF8A828B83E0C0E090035A
:1053630000126510D0E0F08A828B83A3AA82AB83FC
:10537300125A64050A80C77420650A6003024272E8
:105383000252AF900300E064E17004A3E064027092
:105393000A900300E4F0A3F0024272900302E0A239
:1053A300E0908634502B1219E97CE17D02900300D2
:1053B300E0C394E1F97A077B031206D7740412174A
:1053C3008290860C1219E97C007D0079007A0580B1
:1053D300111219E97CE17D02900300E0C394E1F925
:1053E3007A087B031206D77404121782900300E431
:1053F300F0A30245CB7427650A60097422650A602D
:1054030003024272120449E97003024272900317C5
:10541300E0F8900300E028FAA3E034008A82F583E1
:10542300A3A3C3E5089582E509958350030249A325
:10543300900317E004C0E0900300126510D0E0125F
:105443005A7724FE600B24FE600E24F4601102429E
:1054530072125EC07403800C125EC0740580051264
:105463005EC07407125A77F5087509007808121997
:10547300D67C077D03126BE1120479740212178242
:105483001203B9852182852283E064DF70129003C1
:1054930000126C00126FDDE8122EA7C2E0125972DF
:1054A300900317E0F8900300E02812599402496929
:1054B30079001204078A088B098C0A8D0BE5256095
:1054C3000302427278081219D27C007D007900022F
:1054D300474E7800E50CC4333354C048F50CEA1446
:1054E300600A14600C24FE6010024272430C0F80A9
:1054F3000BE50CD2E4F50C8003430C11EEA2E19012
:1055030002D84023E4F0EEA2E0400543F32C8003ED
:1055130043F42CA2E0E5F192E0F5F175C200850CAD
:10552300C57586000242247401F0EEA2E0400543F3
:10553300F338800343F4E0A2E0E5F192E1F5F1757D
:10554300FA00850CFC75F80002422474E5686003D8
:10555300024272A385822185832212042BE98518D6
:1055630082851983F04403C0E074011217B7D0E0B9
:1055730012592DD2E2F0E52560030242721203B9FB
:10558300123CFF400302427674031217B7AA82ABA0
:10559300831203EF8A088B09AE08AF09740312174D
:1055A300B7125F6A6003024272852182852283A358
:1055B30085822185832274011217B7AC82AD83855E
:1055C3001882851983AA82AB8312043D9002D8E026
:1055D300702374031217B7125A84E849603853864C
:1055E300F98E828F83E0F5C1E586A2E150FAE5C129
:1055F30012595880E574031217B7125A8480135353
:10560300F8F98E828F83E0F5F9A2F950FCE5F912DF
:105613005958E84970E974021217B7AC82AD837424
:1056230001024CE1AE23AF2412042BE99002DAF01D
:1056330012042BE99002DBF0E525701B9002DA12CD
:105643005A16AE82AF839002DB125A16AC82AD8338
:10565300AA23AB2412043D024467750800750900B0
:10566300751000751100750B00852182852283E07A
:1056730064DA6003024272A3858221858322AE230A
:10568300AF248E828F837488125949E4F0A3F0EE1D
:105693002402FEEF3400FF8E828F83E4125932120C
:1056A30059F29002DA1259E48037E044018E828F76
:1056B30083F0E8FEE9FF9002DAE04402F88E828F7D
:1056C30083F0A37468F0A30E0EAF839002DA12592D
:1056D300F2EAC313FA707D9002DB1259D7E8F0A304
:1056E3000E0EAF83852182852283E0F8740A6870E9
:1056F3000302580074D868704BA3858221858322E6
:10570300125A3D4003024272A3858221858322748B
:10571300091217B7AA82AB83A90A1203EF8A088B6F
:105723000974091217B7125F6A704374091217B725
:10573300A3125EC3A3E024F8F50BFC7D00790012ED
:105743000491803679021204078A0CE5256003026E
:1057530042727A808E828F83A3A882A983E50C5A32
:105763009002DB70030256ADE044020256B08A8217
:105773008B83127243A3F0750B018E828F8374881F
:10578300F0A3E5822402FEE5833400FF8E828F833B
:105793007401F0A30EAF839002DAE04401F98E8224
:1057A3008F83125932E04402FA8E828F83F0A30E64
:1057B300AF838E108F11850B0A803678089002DA3A
:1057C300E04402FB8E828F83F0A3746812594990E0
:1057D30002DBE044058E828F83123CFAA30E0EAFE8
:1057E3008318E870D81259E1EB123CFAA3EA125974
:1057F30049850A0C74FF250CF50A0470BE1259E1A1
:10580300AE82AF839002DA1259D09002DB1259D0E4
:10581300851082851183EEF0A3EFF0EEFCEFFDAA75
:1058230023AB2412043DE5256003024467E50845E4
:105833000970030242247B007A00E50BC454F0F59F
:105843000B80277800EBC33348FB740F5A7011EBBE
:10585300850882850983F0A38582088583097B00F7
:105863000A0AEE2402FEEF3400FFEAC3950B40035D
:105873000242248E828F83E060C9780180C7900240
:10588300D974400245CBEA4509450A450B22E62473
:10589300FDFA08E634FFFB22C3EB9400A2D265D0E5
:1058A300332279287823E7C396FA0809E796FB336E
:1058B30095E0FCFD790022A3A3A3858221858322A1
:1058C300C3E5219523E522952422E62AFA08E63446
:1058D30000FB8A218B2222131313541FFA7826E626
:1058E3002AFA08E63400FBEA2468F8EB3400F9747A
:1058F30007228A088B09AC08AD09C3EC9401ED9427
:1059030000A2D265D03322FA08E634FFFBC3EA953E
:1059130023EB952422EE24FF1EEF34FFFF22126FA8
:10592300DA08E6126B30E0648F221259B8E022F0F5
:10593300A30EAF839002DB22125940A322F08C8284
:105943008D83A3A3A322F0A3AE82AF8322126B8A1B
:10595300EAF8740122F0E824FF18E934FFF9A3AE52
:1059630082AF83229002D1EAF0A3EBF0E525221265
:10597300597DA385822185832222F0852182852278
:105983008322852182852283E0F874BF28C3941A79
:105993002212599822F8A3E03400F9900300E8F0AA
:1059A300A3E9229002CFE0F523A3E0F524221259C4
:1059B300B81259C022F0851882851983221259C45E
:1059C30022E0F8A3E0F5838882A3A3A3221259D788
:1059D3000EAF8322E044028E828F83F0A3229002D3
:1059E300DB1259E822E044018E828F83F0A3221256
:1059F30059E80EAF83221259FD221259C4E0221234
:105A03005B3874BF2EC3941A22123D1AFCA3E034F0
:105A1300FFFD221259D77420F0A37458F0A32285F6
:105A23001882851983AC82AD83852882852983A357
:105A3300A3A31259C0A3125A5D22E0F50A74BF252D
:105A43000AC3941A229002CFE02CF8A3E03DF98810
:105A53002389249002CF125A5D22E0FAA3E0FB22AD
:105A6300F0125A6822125A6C22900300E0240112A9
:105A73005998F022F0125A68900317E022125ACF75
:105A830022E0F8123D1AF8A3E034FFF92290030054
:105A9300E02403F8125A9B22A3E03400F9C3E5087B
:105AA30098E5099922852882852983A37828E02609
:105AB300FAA308E036FB8A288B29221818181265E6
:105AC3001B7402125ACF7401125ACF22F0125A6C6D
:105AD300F58388822274F41217C3E5257012125BD2
:105AE3003874662EFFC39403400B125B487525067A
:105AF300790002334079011204078A08A808E525D2
:105B030070EBE8C3940850E5749C6E700C740168E4
:105B130060DB740268700D80D4749B6E7006E8C3FA
:105B2300940450C9E833333354F8F8EFC43333548F
