:020000040000FA
:200000000206B2C2AFF508614AFFFFC2AFF508615CFFFFC2AFF508616EFFFFC2AFF50861DC
:2000200080FFFFC2AFF5086192FFFFC2AFF50861A4FFFFC2AFF50861B6FFFFC2AFF5086120
:20004000C8FFFFC2AFF50861DAFFFFC2AFF50861ECFFFFC2AFF50861FEFFFFC2AFF50881C0
:2000600010FFFFC2AFF5088122FFFFC2AFF5088134FFFFC2AFF5088146FFFFC2AFF5088120
:2000800058FFFFC2AFF508816AFFFFC2AFF508817CFFFFFF758701002274F712057FE9FE44
:2000A000750A00750B08780A1206837C807D017A007B001204927402120640900186E0F54B
:2000C0000AA3E0F50B7409780A120694E50A2EF50A74016E7006744E250AF50A53B4F37514
:2000E000BC0075BC007CFC7D077A047B00EEF91202BC74012EFFC3950A501B74086F70029B
:200100007F567C007D087A007B00EFF91202BC0FEFC3950A40E5E5BDF9E5BCFAE9FB7F023C
:200120000205E574F612057F890CEAFEEBFF53BEFBE59DA2E650FAE5C654804449F5C6E560
:200140009E547F644970F853C67FE59EA2E740FA53C680E59E547F70FA43BE049062707407
:2001600008F01200998E828F83E0F8A3E0F9EA687002EB6970498E828F83A3A3E8F0A3E9C9
:20018000F08E828F8374FFF0A3F07409F5D575D480750A01750B00780A120683EEFCEFFD54
:2001A000850C0A7409780A120670FAAB0B1205197402120640C2AF75C9AB75C95B80FE7F7F
:2001C000030205E574FC12065A750A04750B00780A12068374021206CEAC82AD837A007B7F
:2001E0000079081204927402120640851A82E0F47003A3E0F4603C851A82851B83E0F8A3CE
:20020000E0F9E849602D74021206CEE0687003A3E0697010750901024030C2AF75C9AB7504
:20022000C95B80FE851A82851B83AA82AB837908120123780A12068374021206CEAC82AD73
:20024000837A007B0079011204927402120640851A82E0F47003A3E0F46051851A82851BE5
:2002600083E0F8A3E0F9E849604274021206CEE0F8A3E0F9851A82851B83E0687003A3E0A2
:20028000697010750900020830C2AF75C9AB75C95B80FE74FF68700374FF69700F851A8282
:2002A000851B83AA82AB83790112012343BE03120094C2AF75C9AB75C95B80FE74F7120574
:2002C0007FE9FEE5C7FF740F5EF50A750B00740B780A120670EA2400F8EB350BF9E82400EE
:2002E000E93480F9A2AFE433F50AC2AFEEC4540FFAE5C754F84AF5C7E9900980F0E8A3F016
:20030000A37470F0A374BDF0EC900985F0EDFC900984E054E04CF09009867420F0A3744256
:20032000F07409F5D575D48075D601000000000000000000000075D701E5D7A2E040FA8F1D
:20034000C7E50AA2E092AF02011EE5096007E508D2AF024033E508D2AF020833E5096007CB
:20036000E508D2AF02403BE508D2AF02083BE5096007E508D2AF024043E508D2AF020843DC
:20038000E5096007E508D2AF02404BE508D2AF02084BE5096007E508D2AF024053E508D233
:2003A000AF020853E5096007E508D2AF02405BE508D2AF02085BE5096007E508D2AF0240F9
:2003C00063E508D2AF020863E5096007E508D2AF02406BE508D2AF02086BE5096007E5084A
:2003E000D2AF024073E508D2AF020873E5096007E508D2AF02407BE508D2AF02087BE5097B
:200400006007E508D2AF024083E508D2AF020883E5096007E508D2AF02408BE508D2AF0247
:20042000088BE5096007E508D2AF024093E508D2AF020893E5096007E508D2AF02409BE501
:2004400008D2AF02089BE5096007E508D2AF0240A3E508D2AF0208A3E5096007E508D2AFE8
:200460000240ABE508D2AF0208ABE5096007E508D2AF0240B3E508D2AF0208B3E509600734
:20048000E508D2AF0240BBE508D2AF0208BB0002048E74F512057F890A740F550AF50C7540
:2004A0000D00740B780C120670EA2400F8EB3480F9E82400E9350DF9E5C7F50BA2AFE433C2
:2004C000F50CC2AFE50AC4540FFAE5C754F84AF5C7740B1206CEE0FEA3E0FFEE4F602CEE20
:2004E000FAEFFB88828983E08C828D83F088828983A3A882A9838C828D83A3AC82AD83EAFC
:2005000024FF1AEB34FFFBEA4B70D8850BC7E50CA2E092AF7F040205E574F712057FED9010
:200520000980F0ECA3F0A37462F0A37473F0A3E0541FF074091206CEE0F50AA3E0F50BE550
:200540000A333354FC900985F07406780A120694E50A900984F09009867412F0A37442F04B
:2005600053D1FE75D601EA906271F0EBA3F0906270E0D2E1F0E0A2E740FB7F020205E52537
:200580001AC582C0E0E51B34FFC583C0E0E51AC3958224F910AF0885831B85821A80088531
:2005A000831B85821AD2AFCEF0A3E520F0A3780AE608F0A3DEFAEFF0A3E58124FBF8E6083A
:2005C000F0A3E608F0A30808E608F0A3E608F0A315811581D0E0FED0E0F815811581E8C09F
:2005E000E0EEC0E022851B83851A82E0A3FEE0A3F520780AE0A3F608DFFAE0A3FFE0A3C06D
:20060000E0E0A3C0E0E0A3C0E0E0A3C0E010AF0885821A85831B800885821A85831BD2AF39
:20062000D083D08222251AF58210AF08F51A4002151B8008F51A4002151BD2AF851B832226
:20064000C0D0251A10AF08F51A5002051B8008F51A5002051BD2AFD0D022251A10AF08F53C
:200660001A4002151B8008F51A4002151BD2AF22700422600D18C6C333C608C633C6D5E029
:20068000F4182274028000C0E0F404120625D0E01206C122600C08C6C313C618C613C6D554
:2006A000E0F4221206DDB900030206AC1201C41206D875D00075813F751A80751B010206F6
:2006C000A3CAC0E0E6F0A308DAFAD0E0FA22251AF582E4351BF5832200000080FB79012251
:2006E000FFFFFFFFFFFFFFFFFFFFFFFFFFFFFFFFFFFFFFFFFFFFFFFFFFFFFFFFFFFFFFFF1A
:20070000FFFFFFFFFFFFFFFFFFFFFFFFFFFFFFFFFFFFFFFFFFFFFFFFFFFFFFFFFFFFFFFFF9
:20072000FFFFFFFFFFFFFFFFFFFFFFFFFFFFFFFFFFFFFFFFFFFFFFFFFFFFFFFFFFFFFFFFD9
:20074000FFFFFFFFFFFFFFFFFFFFFFFFFFFFFFFFFFFFFFFFFFFFFFFFFFFFFFFFFFFFFFFFB9
:20076000FFFFFFFFFFFFFFFFFFFFFFFFFFFFFFFFFFFFFFFFFFFFFFFFFFFFFFFFFFFFFFFF99
:20078000FFFFFFFFFFFFFFFFFFFFFFFFFFFFFFFFFFFFFFFFFFFFFFFFFFFFFFFFFFFFFFFF79
:2007A000FFFFFFFFFFFFFFFFFFFFFFFFFFFFFFFFFFFFFFFFFFFFFFFFFFFFFFFFFFFFFFFF59
:2007C000FFFFFFFFFFFFFFFFFFFFFFFFFFFFFFFFFFFFFFFFFFFFFFFFFFFFFFFFFFFFFFFF39
:2007E000FFFFFFFFFFFFFFFFFFFFFFFFFFFFFFFFFFFFFFFFFFFFFFFFFFFFFFFFFFFFFFFF19
:200800009BBCFFFF0000005C41414141FFFFFFFFFFFFFFFFFFFFFFFFFFFFFFFFFFFFFFFF37
:20082000000102030405060708090A0BFFFFFFFF020B5E02199FFFFFFFFFFFFFFFFFFFFF5F
:20084000FFFFFFFFFFFFFFFFFFFFFFFFFFFFFFFFFFFFFFFFFFFFFFFFFFFFFF021266FFFF3B
:20086000FFFFFFFFFFFFFFFFFFFFFFFFFFFFFFFFFFFFFFFFFFFFFFFFFFFFFFFFFFFFFFFF98
:20088000FFFFFF021A12FFFFFFFFFFFFFFFFFFFFFFFFFFFFFFFFFFFFFFFFFFFFFFFFFFFF47
:2008A000FFFFFFFFFFFFFFFFFFFFFFFFFFFFFFFFFFFFFF02180BFF02020202020202020215
:2008C000010D000000100102F4B1010000D7B102EEB1010000450802FEB10100009C020288
:2008E000EEB101000046080208B2010000FCB102EEB101000047080204B201000002B20240
:20090000EEB1010000480802F0B1010000C7B002EEB1010000490802DEB1010000DCB102B8
:20092000EEB10100004A080206B201000011B102EEB10100004B0802E2B101000070B0029B
:20094000EEB10100004C0802E6B101000041B102EEB10100004D0802DAB10100004E081C20
:2009600002F4B1010000D4B102EEB1010000ED081050B0020000CD0202EAB1030000CF0261
:2009800002ECB10100004FB102EEB1010000ED081060B0020000CE0202EAB1030000D502B7
:2009A00002ECB10100005CB1FFFFFF00080101000302010600000000000000000000000077
:2009C00000000000000000000000000000000000FFFF0110002000E803FF0000B400002822
:2009E000002800283075A000A000A000A00000080008E001F0001000100010001000100051
:200A0000100050005000500010001000D0070000000000000F00010005003075070010000E
:200A2000010081FF00000000FF6D218B217321FF02020208025000A0000000E80302F4B1D7
:200A4000010000D1B102EEB1010000BE0902E8B1010000B90302EEB1010000BF0902F8B13D
:200A6000010000CF0302EEB1010000C00902E4B1010000D10302EEB1010000C109020CB2A0
:200A8000080000D20302EEB1010000C20902E0B1010000C309FF0100FF2002F4B1010000E5
:200AA000CEB102EEB1010000270A020AB2000000000002EAB10300001F04EF26EF26EF2624
:200AC000EF26EF26EF26EF26EF26EF26EF26EF26EF26EF263B2953293529E5C754F84405C5
:200AE000F5C779012200000080FB120ADAB90003020B48E479217808B800028004F709D808
:200B0000FCE479297802B800028004F709D8FCE490028078C579068002F0A3D8FCD9FA90C9
:200B20000844AA82AB839008B6782579038015E493A3AC82AD838A828B83F0A3AA82AB8394
:200B40008C828D83D8E9D9E77582707583DE7407120B707582E575830A7400120B7075D08D
:200B60000075813F751A80751B02759F00020AEAC09FF59FE473D09F22D083D082C09FE4D2
:200B800093C0E0740193C0E0740293F59F22E066701008A3E066700A08A3E066700408A37A
:200BA000E06622E4936670130874019366700C08740293667005087403936622C3E79608AD
:200BC00009E7960809E7960809E79622C3E09608A3E09608A3E09608A3E09622C00AC3E026
:200BE00096F50A08A3E096420A08A3E096420A08A3E096450A7001D3D00A22C3E4939608FE
:200C0000740193960874029396087403939622080808EAC0E0EBC0E086F0E7A4FA180986F6
:200C2000F0E7A42AFA180986F0E7A42AFA180986F0E7A42AFA1986F0E7A4FBE5F02AFA1962
:200C40000886F0E7A42BFBE5F03AFA190886F0E7A42BFBE5F03AFA18180986F0E7A4C5F01C
:200C60002BFBE43AFA1908E7C5F0C6A426F6E5F03BFBE43AFA1886F0E7A4F6E5F00826F6C8
:200C8000E43B08F6E43A08F6D0E0FBD0E0FA226016080808C6C313C618C613C618C613C646
:200CA00018C613C6D5E0EA227009080808226016181818C6C333C608C633C608C633C60833
:200CC000C633C6D5E0EA22E627F60809E637F60809E637F60809E637F622E026F608A3E07C
:200CE00036F608A3E036F608A3E036F622E026F008A3E036F008A3E036F008A3E036F0220D
:200D0000C3E697F60809E697F60809E697F60809E697F622C3E096F008A3E096F008A3E02A
:200D200096F008A3E096F022E657F60809E657F60809E657F60809E657F622E056F608A302
:200D4000E056F608A3E056F608A3E056F622E056F008A3E056F008A3E056F008A3E056F0FE
:200D600022E0F608A3E0F608A3E0F608A3E0F622E6F008A3E6F008A3E6F008A3E6F022E07B
:200D8000FAA3E0FBA3E0FCA3E0FD22EAF0A3EBF0A3ECF0A3EDF022CAC0E0E6F0A308DAFA82
:200DA000D0E0FA22CAC0E0E0A3C582CCC582C583CDC583F0A3C582CCC582C583CDC583DA9F
:200DC000E6D0E0CA22C3E498F8E499F9120E068026C3E49AFAE49BFBE920E7E9120E06E480
:200DE00098F8E499F922C3E498F8E499F9120E06E498F8E499F9C3E49AFAE49BFB22EB202C
:200E0000E7CFE920E7E0B90010BB0008E88AF084F8AAF022E4FBC8FA22EB70227B10C83360
:200E2000C8C933C9335007C39AC3DBF280069A50012ADBEAC833F4C8C933F4C9FA2275F05D
:200E400008E4C833C8C933C933C99AC99B5004C92AC93BD5F0ECFBC833F4C8E4C9FA22604D
:200E60000D08C6A2E713C618C613C6D5E0F322600C08C6C313C618C613C6D5E0F4227004E8
:200E800022600D18C6C333C608C633C6D5E0F41822251A10AF08F51A4002151B8008F51A61
:200EA0004002151BD2AF22C0D0251A10AF08F51A5002051B8008F51A5002051BD2AFD0D0DC
:200EC00022251AF58210AF08F51A4002151B8008F51A4002151BD2AF851B8322251AF5826D
:200EE000E4351BF58322E473251AC582C0E0E51B34FFC583C0E0E51AC3958224F810AF08D0
:200F000085831B85821A800885831B85821AD2AFCEF0A3E520F0A3780AE608F0A3DEFAEF7D
:200F2000F0A3E58124FAF8E608F0A3E608F0A3E608F0A30808E608F0A3E608F0A315811562
:200F400081D0E0FED0E0F8158115811581E8C0E0EEC0E022251AC582C0E0E51B34FFC5831F
:200F6000C0E0E51AC3958224F910AF0885831B85821A800885831B85821AD2AFCEF0A3E53D
:200F800020F0A3780AE608F0A3DEFAEFF0A3E58124FBF8E608F0A3E608F0A30808E608F0D4
:200FA000A3E608F0A315811581D0E0FED0E0F815811581E8C0E0EEC0E022851B83851A82E3
:200FC000E0A3FEE0A3F520780AE0A3F608DFFAE0A3FFE0A3C0E0E0A3C0E0E0A3C0E0E0A3AE
:200FE000C0E0E0A3C0E010AF0885821A85831B800885821A85831BD2AFD083D082020B76AE
:20100000851B83851A82E0A3FEE0A3F520780AE0A3F608DFFAE0A3FFE0A3C0E0E0A3C0E0CF
:20102000E0A3C0E0E0A3C0E010AF0885821A85831B800885821A85831BD2AFD083D082224B
:2010400074048006740280027401C0E0F404120EC1D0E0120D97227404800474028000CC66
:20106000C0E0EDC0E0E51AC39CCCAD1B50011D10AF068C1A8D1B80068C1A8D1BD2AF120D5C
:20108000A4D0E0FDD0E0FC22D083D082E9C0E0E493A3C386F0C5F095F0F908E493A386F0E5
:2010A000C5F095F0700BE493A3C3994005E9048002A3E475F002A42582F582E5F03583F51F
:2010C00083D0E0F9E493A3C0E0E493C0E022D083D082ECC0E0EDC0E0E493A3FCE493A3FD06
:2010E000ED4C600D12111AEC24FFFCED34FFFD80EFE493A3FCE493A3FDED4C600D12115927
:20110000EC24FFFCED34FFFD80EFD0E0FDD0E0FCE493A3C0E0E493C0E022C0E0C3E493967C
:20112000087401939618400FE49366700808740193661870007019A3A3C3E4939608740133
:20114000939618A3A3400DD0E0D0E0D0E002110AA3A3A3A3A3A3D0E022C0E0C0F088F0E43E
:20116000936670080874019366187000A8F0A3A3700BD0F0D0E0D0E0D0E002110AA3A3D0A4
:20118000F0D0E022D083D082ECC0E0EDC0E0EEC0E0EFC0E0E493A3FCE493A3FDE493A3FE6D
:2011A000E493A3FFEF4E4D4C6015121200EC24FFFCED34FFFDEE34FFFEEF34FFFF80E5E4F6
:2011C00093A3FCE493A3FDE493A3FEE493A3FFEF4E4D4C601512123DEC24FFFCED34FFFDC1
:2011E000EE34FFFEEF34FFFF80E5D0E0FFD0E0FED0E0FDD0E0FCE493A3C0E0E493C0E022A1
:20120000C0E0C0F088F0120BFBA8F04007120BA3A8F0701AA3A3A3A3120BFBA8F0A3A3A308
:20122000A34013D0F0D0E0D0E0D0E00211EAA3A3A3A3A3A3A3A3A3A3D0F0D0E022C0E0C09B
:20124000F088F0120BA3A8F0A3A3A3A3700BD0F0D0E0D0E0D0E00211EAA3A3D0F0D0E02222
:20126000C2AF02000022C0E0C0D0E8C0E0E9C0E0E5A8D2AFC2C7A2E7A2E792AFD0E0F9D035
:20128000E0F8D0D0D0E03274F5120F54EAFEEBFFEE2434F8EF3400F9880A890BEE2435F588
:2012A00082EF3400F583E0F8EE2437F582EF3400F583E0F50CEC850CF0A4FCAAF0850CF0D5
:2012C000EDA42AFDE82CF8E43DF97A257B00120E06EA850A82850B83F0F8740758F97401B9
:2012E000B900028004C333D9FCFAE8131313541FF8EE28F8EF3400F9E8245DF582E9340037
:20130000F583E05A6008EE2434F582EF802CEE2434F582EF3400F583E0C0E0EE2436F582C4
:20132000EF3400F583E0F5F0D0E084A8F0EE28F8EF3400F9E82438F582E93400F583E0F92E
:201340007F0402100074F5120F54EAFEEBFFEE2434F582EF3400F583E0C0E0EE2435F582B2
:20136000EF3400F583D0E0F08E828F83A3A3A3A3A3A3A3C082C0838E828F83A3A3A3A3A3C5
:20138000E0F8A3E0F9D083D082E0C398F50AA3E099F50BEE247FF582EF3400F583E0640116
:2013A0007069EE2480F582EF3400F583E0F8A3E0F98E828F83A3A3A3A3A3A3A3E0FCA3E066
:2013C000FD8E828F83A3A3A3A3A3E0FAA3E0FBC3EA9CEB9D5010C3EC98ED99402EC3EA98B6
:2013E000EB995027800EC3EA98EB994007C3EC98ED9940177CE27D05EEFAEFFB12264DEE0B
:20140000247FF582EF3400F583E4F0EE2434F8EF3400F9E8FCE9FDEE2435F582EF3400F549
:2014200083E0F8EE2437F582EF3400F583E0F50CE50A850CF0A4F50AAAF0850CF0E50BA453
:201440002AF50BE8250AF8E4350BF97A257B00120E06EA8C828D83F0F8740758F97401B90C
:2014600000028004C333D9FCFAE8131313541FF8EE28F8EF3400F9E8245DF582E93400F579
:2014800083E05A6008EE2434F582EF802CEE2434F582EF3400F583E0C0E0EE2436F582EF49
:2014A0003400F583E0F5F0D0E084A8F0EE28F8EF3400F9E82438F582E93400F583E0F9128A
:2014C0001D99021340C082C083851A82851B83E0F8A3E0F9C3EA9CEB9D5010C3EC98ED99E6
:2014E000401BC3EA98EB995014800EC3EA98EB994007C3EC98ED994004790180027900D070
:2015000083D08222EAC39CFAEB9DFB2274EF120F549004A8E064086005E06407702A906151
:20152000C8E060249004D6E0F4601DE0F875F003A4C8AAF02AF974D828FE740439FF8E8229
:201540008F83A3A3A3E0700302163C906060E0C0E0EE2468F582EF3400F583D0E0F0750E6A
:201560004B750F06750A00750B00E5D914F50CE5D95403F510601774036510605CE50C603A
:2015800010EE2467F582EF3400F583E07003021621900646E06401602AEE2482F582EF344B
:2015A00000F583E06004780480027800850C0AE50AC398FA95E0FB12251B8A0A8B0BEA45FF
:2015C0000B700512282D8074EE2482F582EF3400F583E070048A0E8B0FE50C6012850E828C
:2015E000850F83F50DE5D9F0A3150DE50D70F6EE2482F582EF3400F583E0604474FC250C3C
:20160000F50C780E121044AC0CA910EEFAEFFB1226E97402120EA7E97026AA0AAB0B121F22
:2016200039793D8E828F83A3A3A3A3E0FA7B001223F5EEFAEFFB1226651226FB790080747F
:20164000740365106056850C127513007812121044AC0EAD0FAA0AAB0B1226C57402120E5A
:20166000A7EE2468F582EF3400F583E064807004747F8001E0F50E780E121048E510F50EC0
:20168000780E121048A90CAC0AAD0B9004D6E0FA7B001223BF7402120EA780139004A8E098
:2016A0006408600BAC0EAD0FEEFAEFFB12275512283979017F0A02100074F5120F5474FCA7
:2016C000120E91EAFEEBFF890AA2AFE433F50BC2AF806AEE2463F8EF3400F97A007B00A211
:2016E000AFE433F50CC2AF88828983E0FCA3E0FDEC4D603A88828983E0FAA3E0FB8A828B68
:2017000083E0FCA3E0FD88828983ECF0A3EDF08A828B83E4F0A3F088828983E0FCA3E0FD85
:20172000EC4D700A88828983A3A3E4F0A3F0E50CA2E092AF121F399005E9E004F0EE24634E
:20174000F582EF3400F583E0F8A3E0F9E849603DEE2463F582EF3400F583E02402FAA3E04B
:201760003400FBEA2402F50CEB3400F50D780C1210448A828B83E0FCA3E0F9EEFAEFFB12C8
:2017800026897402120EA7E970030216D39005E9E060639005EAE0F89005E9E0C398500C89
:2017A0007402650A70509005EBE0604A8E828F83A3A3A3A3E0851A82851B83F0A3E4F090B1
:2017C00005E9E0F87402120EDCE8F0A3E4F09005E9E0F89005E8E028F07402120EDCAC8217
:2017E000AD83851A82851B83AA82AB8379011223C59005E9E4F0E50BA2E092AF7404120E0A
:20180000A70213408521878522C622C0E0C0D0E8C0E0E9C0E0EAC0E0EBC0E0ECC0E0EDC081
:20182000E0EEC0E0C00AC00BC00CC00DC082C083C0F0A2AFE433FEC2AF759B00906182E09D
:20184000A2E05012E591A2E0500C7591FE74016521700312150CE0A2E55051E591A2E55056
:201860004B7591DF9004A8E064076005E06408702374016521703579019004D6E0FA75F0AA
:2018800003A4CAA8F028FB74D82AFA74043BFB1216B98018E0640D70139004CAE004F0641B
:2018A000287002E4F07A00E0F912283F906182E0A2E64003021952E591A2E64003021952B5
:2018C0007591BF9004A8E06405700812277F12278B80031227857521001227DFE99004A9B5
:2018E000F079001227D31225BD7A017B009004A7E0F9121E19907803E06442705590064AF6
:20190000E014F0704DC2AF12190A00782AD0E0F618D0E0F6E59F54077005750BFF800375AF
:201920000B7FC4C0E07829E6F50A08E6550BF50B740B780A120E6FD0E0250AF8906270E03C
:20194000A2E740F8E8C333906272F0906270E0D2E0F0906181E0A2E35009E5E9A2E35003DA
:2019600075E9F7A3E0A2E75009E591A2E7500375917FEEA2E092AFD0F0D083D082D00DD013
:201980000CD00BD00AD0E0FED0E0FDD0E0FCD0E0FBD0E0FAD0E0F9D0E0F8D0D0D0E032C097
:2019A000E0C0D0C082C083906183E0A2E05009E5BFA2E0500375BFFEE0A2E15009E5BFA256
:2019C000E1500375BFFDE0A2E25009E5BFA2E2500375BFFBE0A2E35009E5BFA2E35003758C
:2019E000BFF7E0A2E45009E5BFA2E4500375BFEFE0A2E55009E5BFA2E5500375BFDFE0A2FF
:201A0000E65009E5BFA2E6500375BFBFD083D0828088C0E0C0D0E8C0E0E9C0E0EAC0E0EBB2
:201A2000C0E0ECC0E0EDC0E0C0F0E5A7A2E6500FE5A1A2E6500953A7BF75A1BF121A77E54D
:201A4000A7A2E5500CE5A1A2E5500653A7DF75A1DFE5A7A2E15009E5A1A2E1500375A1FDF4
:201A6000E5A7A2E2500CE5A1A2E2500653A7FB75A1FBD0F002198874F8120F547521019029
:201A800004A8E0640670151227198A828B83A3A3A3A3A3A3E0FAA3E0FB12276DA2AFE43327
:201AA000FED2AF9004AEE0640170187A207B009004A7E0F9121E8B7A207B009004A7E0F98B
:201AC000121E1F906182E0D2E6F0900647E0602185C62280169004ADE064017008E5C6547E
:201AE000F84405F5C653BEFC1218047401652160E4EEA2E092AF7F01021000FF8E238F24CA
:201B0000858228858327851A82851B83E0CEA3E0CF852882852783EBC9EAC8EDCBECCA757C
:201B2000F010C3E833C8E933C9EA33CAEB33CBC3EA9EF526EB9FF525B35004AB25AA26ECAD
:201B400033CCED33CDD5F0DAAE23AF242274ED120F548A0A8B0B8C0C8D0D7413120EDC7807
:201B60000E120D61780A790E120BBC7512017513C87514007515005012780A790E120D0080
:201B80007812790A120BBC50168010780E790A120D007812790E120BBC400479018002799E
:201BA000007F0C02100074ED120F548A0A8B0B8C0C8D0D7413120EDC780E120D61780E79CE
:201BC0000A120BBC4011780A790E120D00AA0AAB0BAC0CAD0D802275120075130075140093
:201BE0007515017812790E120D007812790A120CC7AA12AB13AC14AD1580A68A828B837587
:201C00000AFF750BFF750CFF750D00780A120D4E7F0402100074F5120F548C828D83780A38
:201C2000120D618A828B83780A120D14EA2404F8EB3400F98C828D83A3A3A3A3E0FCA3E02A
:201C4000FD88828983C3E09CF0A3E09DF088828983C3E09420A3E0944E40268A828B83756B
:201C60000AFF750BFF750CFF750DFF780A120CED8A828B83A3A3A3A3E02420F0A3E0344E8F
:201C8000F0021BFB74F5120F54E9FE9005FDE0FAA3E0FBEEC333F8E433F9742128F58274F9
:201CA000B139F583E02AF50AA3E03BF50B780A1210447A407B427C0F7D00121AFC740212E4
:201CC0000EA78A0A8B0B8C0C8D0D7410780A120C8FAA0AAB0B7F0402100074F1120F548ADD
:201CE0000E8B0F8C108D11740F120EDCE0FAA3E0FB7411120EDCE0F50AA3E0F50B780A12B4
:201D00001044EA2401F50AEB3400F50BE4F50CF50D780E790A120C0F750A71750B02780E2D
:201D2000790A120C0FAA0EAB0FAC10AD11121AFC7402120EA78B0BEA450B60047A01800271
:201D40007A00EC2AFCED3400FD7413120EDCE0F8A3E0F9E8FEE9FFECF8EDF97A717B0212F0
:201D60000E06880A890B8E828F83780A120D70ECF8EDF97A717B02120E068A0A8B0B7405FB
:201D8000780A120E7E8E828F83A3A3A3A3E50AF0A3E50BF07F08021000C082C083E990601C
:201DA00000F0D083D08222120B7948FF05120B79BFFF05120B79C0DE07120B79C5DE0712A4
:201DC0000B7948A307120B7952A307120B7990A307120B79D9A307120B7913A407120B7928
:201DE0006DA407120B798EA407120B7997A407120B79E4A407120B790DA507120B7917A55E
:201E000007120B7983A507120B7915A607120B795FA607120B7995A607120B7921A70712AD
:201E20000B7962A707120B7999A707120B79ABA707120B79C7A707120B79D0A707120B798D
:201E400098A807120B79C8DE07120B7919DD07120B79DAD307120B7910D407120B7946D4EA
:201E600007120B7991D507120B7903BC07120B7918BC07120B79CBBC07120B790BBD0712F0
:201E80000B7924BD07120B795FBD07120B79ACBD07120B79DEBD07120B7920BE07120B79CE
:201EA00075DF07120B7987DF07120B7933CF07120B7958CF07120B791FDF07120B7924E02C
:201EC00007120B792FE007120B793BE007120B7910DE07120B7920DE07120B7929DE0712BB
:201EE0000B796DDE07120B7915DC07120B799ADC07120B7900DD07120B798B9C07120B7997
:201F0000C89C07120B79E39C07120B79B49D07120B79A29E07120B790AA007120B797CA076
:201F200007120B7964A107120B79EBA107120B7904A307120B7918D907120B796AD907120B
:201F40000B79F4D907120B795BDA07120B7995D107120B79BFD107120B798DD207120B7995
:201F600068D307120B79D5D306120B7977D706120B79D1D706120B79F0D706120B794DD88F
:201F800006120B79B9D906120B79A5DA06120B79D9DE06120B79A9DF06120B79CBD507122C
:201FA0000B79E2D507120B7913D607120B794ED607120B7978D607120B79A2D607120B7902
:201FC000B9D607120B79D0D607120B79E7D607120B7910D707120B7923D707120B7939D70D
:201FE00007120B794CD707120B792E8B07120B79328C07120B796A8C07120B798D8C07120E
:202000000B79988C07120B79BB8C07120B79CA8D07120B799F8E07120B791A8F07120B7993
:20202000A28F07120B79DD8F07120B79149007120B79A29007120B797B9107120B79DB91A4
:2020400007120B79E69107120B79659207120B79689207120B796B9207120B79FA92071265
:202060000B79FD9207120B792D9307120B79579307120B79459407120B79F79407120B792E
:20208000D9B207120B7901B307120B792FB307120B7966B307120B79C4B307120B790FB4BB
:2020A00007120B795AB407120B799AB407120B79E0B407120B790EB507120B79CBB50712C3
:2020C0000B79D5B507120B79E2B507120B7915B607120B79E1B607120B79EDB607120B7945
:2020E00005B707120B790FB707120B792E3F00120B79463F00120B795E3F00120B7965E08E
:2021000006120B7941E106120B79A5E206120B79FCE206120B797DE306120B796DE4061263
:202120000B79BAE406120B7940E506120B7972E506120B7986E706120B79C8E706120B79D9
:20214000E6E706120B7969E806120B793DE906120B7905EA06120B79689507120B793B9671
:2021600007120B79E49607120B79379707120B79E79707120B79739807120B795F9907126C
:202180000B798E9907120B79A19A07120B79E99A07120B79BE9B07120B79FA9B07120B79D7
:2021A000169C07120B7937C007120B795DC007120B7979C107120B7983C107120B79B8C250
:2021C00007120B79B0C307120B79C6A807120B79F6A907120B7929AA07120B7973AA071265
:2021E0000B793AAC07120B79659006120B79CF9006120B792E9206120B793E9206120B7984
:202200006B9206120B79C79206120B79CE9306120B79989406120B79F89506120B7941966B
:2022200006120B798E9606120B79B49606120B79C29806120B79C79806120B79CC9A0612ED
:202240000B79199B06120B798C9B06120B79BF9B06120B79619C06120B790A9D06120B7915
:20226000429D06120B79459D06120B798D9D06120B79CD9D06120B79ABCC07120B79C3CCF6
:2022800007120B790BCD07120B7921CD07120B7968CD07120B797CCE07120B7909CF0712F7
:2022A0000B790EB205120B7949B205120B798EB205120B794EB305120B79D4B305120B7910
:2022C00039B405120B7965B405120B799EB405120B79DCB605120B79C0B805120B79A6BA35
:2022E00005120B79E9BB05120B7937BE05120B7949BF05120B7994C005120B79A4C1051266
:202300000B79C1C105120B79FCC105120B791EC205120B7981C205120B7942C705120B79C7
:20232000D7C705120B7929C805120B7947C805120B79A1C805120B79A0C905120B7924CA38
:2023400005120B79EDAD07120B79F7AD07120B793AAE07120B7955AE07120B79E5AE071299
:202360000B790DAF07120B794AAF07120B7981AF07120B79AAAF07120B791FB007120B79BB
:2023800034B007120B7949B007120B798AB007120B79C4B007120B79F0B007120B791EB132
:2023A00007120B7969B107120B7913B207120B795CB207120B7986B207120B79B1B207126B
:2023C0000B79E1FE06120B7930C706120B797EC806120B795EC906120B797DC906120B79E4
:2023E000FAC906120B793DCA06120B7993CB06120B7954CC06120B79DBCE06120B797CCF95
:2024000006120B7972D006120B796FD106120B79C9D206120B7954D306120B79BADA0712BF
:202420000B7923DB07120B7977DB07120B799EDB07120B79CFDB07120B7996B707120B7947
:2024400003B807120B794AB807120B7962B907120B795EBA07120B7941BB07120B79DFF6AA
:2024600005120B7921F705120B79F3F705120B79CCF805120B79C6F905120B79A8FA051217
:202480000B7911FB05120B79C7FB05120B793BFC05120B79A7FC05120B79D0FC05120B793D
:2024A0004AFD05120B79E3FD05120B7948FE05120B795DFE05120B79A3FE05120B79BCFEF2
:2024C00005120B7921FF05120B7924FF05120B79D8C907120B7900CA07120B793ECA071222
:2024E0000B79FCCA07120B7963CB07120B797FCB07120B79A7CB07120B79D7CB07120B79F5
:20250000E6CB07120B7963CC07120B79008006120B79DE8106120B79108406120B794C848A
:2025200006120B79798406120B79638506120B79AE8506120B79F98506120B792E8606122D
:202540000B797C8606120B79AB8606120B79CE8606120B791B8706120B79A08706120B799B
:20256000BA8906120B79F98B06120B793A8C06120B79DC8D06120B791D8E06120B79908E90
:2025800006120B79DC8E06120B798A8F06120B7916BA06120B7914BB06120B79ADC1061287
:2025A0000B79CEC306120B7999C506120B7901C706120B798BCA05120B793ACB05120B797C
:2025C00080CB05120B79B6CC05120B7913CD05120B7941CD05120B79D7CE05120B7951CF74
:2025E00005120B79CCCF05120B7926D105120B7986D205120B798CD305120B79EDD40512B3
:202600000B7906D505120B7964D505120B7952D605120B7985D605120B79F5D605120B79CD
:202620006FD705120B79B9D705120B7983D805120B7958D905120B7937DA05120B79C2DA84
:2026400005120B7930DB05120B79A4DB05120B79CFDB05120B798EDC05120B79F3DD0512EE
:202660000B7910DE05120B792FDE05120B7920DF05120B7945DF05120B796FDF05120B7963
:20268000EADF05120B7944E005120B79ADE105120B795BE205120B799CE205120B79BA9EA5
:2026A00006120B79089F06120B79149F06120B79F29F06120B7923A006120B7954A0061254
:2026C0000B79D4A006120B790CA106120B795EA106120B799BA106120B79B8A306120B79B3
:2026E000DEA506120B79C9A706120B79B3A906120B79F73F00120B79CCE205120B79FCE2C4
:2027000005120B79D5E905120B795AEB05120B7957F105120B793FF205120B797CF20512B1
:202720000B799FF205120B79D0F205120B79D9F205120B79E3F205120B79D1F305120B7957
:20274000C7F405120B79182A00120B79172E00120B791D2E00120B79583500120B79713AC1
:2027600000120B79BAC307120B79B4C407120B7928C507120B7966C507120B79DAC507128A
:202780000B7953C607120B795CC607120B7968C607120B797DC607120B79BBC607120B7977
:2027A000D1C607120B7901C707120B790EC707120B7928C707120B7967C707120B79A5C74B
:2027C00007120B790AC807120B791FC807120B792AC807120B7937C807120B794EC807120F
:2027E0000B795CC807120B7967C807120B7973C807120B7982C807120B798DC807120B7917
:20280000AAC807120B79BAC807120B79D0C807120B79ECC807120B79F7C807120B790CC9D3
:2028200007120B7920C907120B7981C907120B7987C907120B798DC907120B7993C9071239
:202840000B79A5C907120B7993AC06120B791FAD06120B797EAE06120B799FB006120B79F3
:202860008BB106120B79C0B106120B79E2B106120B7991B206120B7989B406120B79B2B426
:2028800006120B7944B506120B7976B506120B7983B506120B79DAB506120B7900B6061273
:2028A0000B796DB806120B7970B906120B79C8B906120B7947EC06120B7951EC06120B7949
:2028C00073EC06120B797FEC06120B7918EE06120B7947EE06120B7963EF06120B79BCEFEA
:2028E00006120B7930F106120B799DF106120B79D8F106120B7917F206120B79D0F406126F
:202900000B79EAF406120B7976F506120B7984F506120B79DDF506120B79EBF506120B79B3
:202920005EF606120B79C2F606120B790CF706120B79008007120B79228007120B7948828E
:2029400007120B795D8507120B79758607120B79288707120B790A8807120B7973D70712E5
:202960000B7998D707120B790AD807120B7995F706120B799EF706120B79A7F706120B79B5
:202980007EF806120B792FFA06120B7965FA06120B799FFA06120B79D5FA06120B790FFBBB
:2029A00006120B7943FB06120B796FFB06120B79B8FB06120B79F2FB06120B793BFC061274
:2029C0000B7993FC06120B79C8FC06120B7923FD06120B795DFD06120B79AEFD06120B79EF
:2029E000E4FD06120B791EFE06120B7941FE06120B79E2DF07120B79ECDF07120B79FCDF26
:202A000007120B79B6DF07120B7906E007FFFFFFFFFFFFFFFFFFFFFF74F4120EE89078038A
:202A2000E06442705590064AE014F0704DC2AF122A3200782AD0E0F618D0E0F6E59F540706
:202A40007005750BFF8003750B7FC4C0E07829E6F50A08E6550BF50B740B780A120E6FD068
:202A6000E0250AF8906270E0A2E740F8E8C333906272F0906270E0D2E0F09004D6E0F47088
:202A800003022E12E0F875F003A4C8AAF02AF974D828FE740439FFEE2401F582EF3401F5C3
:202AA00083E0F8A3E0F9E849601EEE2401F582EF3401F583E0FAA3E0FBEE2400F582EF3466
:202AC00001F583E0F9121E198E828F83A3A3A3A3A3A3A3E0F8A3E0F98E828F83A3A3A3A3C2
:202AE000A3E8F0A3E9F0906054E09004AFF0906055E09004B0F0906056E09004B1F09060E4
:202B000057E09004B2F0906058E09004B3F0906059E09004B4F090605AE09004B5F0906035
:202B20005BE09004B6F090605CE0FC9004B7F090605DE0FB9004B8F090605EE0FD9004B9E1
:202B4000F090605FE0FA9004BAF09004B5E08C0A250AF8E43400F98D0AE8250AF8E9340064
:202B6000F98B0AE8250AF8E93400F98A0AE8250AFAE93400FBEE24F6F582EF3400F583E0EB
:202B80002AF0A3E03BF08C0AEE24F8F582EF3400F583E0250AF0A3E03400F0EE24FAF58292
:202BA000EF3400F583E02401F0A3E03400F0EE24FEF582EF3400F583E0F8A3E0F9E84960D7
:202BC00042906000E0C333FCE433FDE82CF582E93DF583E02AF0A3E03BF0906000E0FA90B2
:202BE00004B7E0FCEAC333FAE433FBE82AF8E93BF9E8244AF582E93400F583E02CF0A3E04A
:202C00003400F09004B5E070119004B8E0700BA3E07007A3E07003022D0F8E828F83A3A3A9
:202C2000A3A3A3E0F8A3E0F9EE240DF582EF3400F583E028F8A3E039F9EE240BF582EF34BA
:202C400000F583E8F0A3E9F0EE240FF582EF3400F583E4F0EE241CF582EF3400F583E0641D
:202C600001701EEE2420F582EF3400F583E0F8A3E0F9EE241DF582EF3400F583E8F0A3E988
:202C8000F09004B0E06052EE241CF582EF3400F5837401F0EE2469F582EF3400F583E070EC
:202CA00038EE2473F582EF3400F583E0702BEE247FF582EF3400F583E0701EEE2420F58210
:202CC000EF3400F583E0F8A3E0F9EE241DF582EF3400F583E8F0A3E9F0906062E0700302C9
:202CE0002DC28E828F83E0F8A3E0F9E82406FCE93400FDE82402FAE93400FB1227918E824D
:202D00008F83E0F8A3E0C82412F582E8022DC89004B7E0603AEE240FF582EF3400F583E416
:202D2000F0EE241CF582EF3400F583E064017040EE2420F582EF3400F583E0F8A3E0F9EEE8
:202D4000241DF582EF3400F583E8F0A3E98020EE24FCF582EF3400F583E02401F0A3E03450
:202D600000F0EE241DF582EF3400F583E4F0A3F0EE240BF582EF3400F583E0F8A3E0F98EAA
:202D8000828F83A3A3A3A3A3E0687003A3E0696003022C81EE240FF582EF3400F583E06044
:202DA000128E828F83A3A3A3A3A3E064057002A3E0600479088002793EEEFAEFFB12266BDF
:202DC0008050EE241DF582EF3400F583E4F0A3F09061C8E0600612150CE970F48E828F83DA
:202DE000A3A3A3E0602C9061C8E070069060607480F0EEFAEFFB12275BE964016014790298
:202E0000EEFAEFFB1216B912274FE9640160031226FB7F04020FBA53BFEF020B7674EC124F
:202E20000EE89004D6E0F875F003A4C8AAF02AF974D828FE740439FF9061D0E07013EE2471
:202E400063F582EF3400F583E0F8A3E0F9E849600FEE241DF582EF3400F583E4F0A380537E
:202E6000EE2469F582EF3400F583E07047EE2473F582EF3400F583E0703AEE247FF582EF16
:202E80003400F583E0702DEE241CF582EF3400F583E06401701EEE2420F582EF3400F583B2
:202EA000E0F8A3E0F9EE241DF582EF3400F583E8F0A3E9F08E828F83A3A3A3A3A3E0F8A35D
:202EC000E0F9EE241DF582EF3400F583E028F8A3E039F9E8240108E93400F9EE2407F50CDE
:202EE000EF3400F50D850C82F583E8F0A3E9F0EE240BF582EF3400F583C3E098A3E09950F8
:202F0000358E828F83A3A3A3A3A3A3A3C082C083EE240BF582EF3400F583E0F8A3E0F9D00D
:202F200083D082E0C398F8A3E099F9C3E894AAE994105035803BEE240BF582EF3400F5838F
:202F4000C082C0838E828F83A3A3A3A3A3A3A3E0F8A3E0F9D083D082E0C398F8A3E099F914
:202F6000C3E894ABE9941050089005EDE064017030EE241DF582EF3400F583E4F0A3F08EE5
:202F8000828F83A3A3A3A3A3E02401F8A3E03400F98E828F83A3A3A3A3A3A3A3E8F0A3E9C6
:202FA000F0EE2473F582EF3400F583E064016003023218EE2474F582EF3400F58312105B81
:202FC0008E828F83A3A3A3A3A3A3A3E0FCA3E0FD8E828F83A3A3A3A3A3E0FAA3E0FB12142F
:202FE000C57402120EA7E97003023218EE2474F8EF3400F9880A890B8882F583E0F8A3E08A
:20300000F9850C82850D83E8F0A3E9F0EE2476FCEF3400FDEEFAEFFB122677EE247BF58212
:20302000EF3400F583E0F8A3E0F9EE2420F582EF3400F583E8F0A3E9F0EE241CF582EF3441
:2030400000F583E4F0EE241DF582EF3400F583E4F0A3F0EE240FF582EF3400F5837401F0E4
:20306000850C82850D83E0F8A3E0F9EE240DF582EF3400F583E028F8A3E039F9EE240BF5DC
:2030800082EF3400F583E8F0A3E9F08E828F83A3A3A3A3A3E0FCA3E0FD850A82850B83E00E
:2030A000FAA3E0FB1215048A0A8B0BEE242EF582EF3400F583E0FAA3E0FBE4F50CF50D8A28
:2030C0000E8B0FF510F511780A790E120C0FEE2477F582EF3400F583E0F50EA3E0F50F788A
:2030E0000A790E120CC7EE2479F582EF3400F583E06A7003A3E06B7044EE247DF582EF3435
:2031000000F583E0F8A3E0F9EE2432F582EF3400F583E0687003A3E0697022EE247BF58250
:20312000EF3400F583E0F8A3E0F9EE2430F582EF3400F583E0687003A3E0696052EE247D64
:20314000F582EF3400F583E0F50EA3E0F50F7404780E120E6F780E121044EE247BF582EF87
:203160003400F58312105BEE2479F582EF3400F583E0FCA3E0C313FDEC13FC8E828F83A397
:20318000A3A3A3E0FA7B001223FB7404120EA7EE2476F582EF3400F583E0C0E0EE242BF536
:2031A00082EF3400F583D0E0F0EE2479F582EF3400F583E0F8A3E0F9EE242EF582EF340087
:2031C000F583E8F0A3E9F0EE247BF582EF3400F583E0F8A3E0F9EE2430F582EF3400F583DC
:2031E000E8F0A3E9F0EE247DF582EF3400F583E0F8A3E0F9EE2432F582EF3400F583E8F058
:20320000A3E9F0EEFAEFFB12267DEE2473F582EF3400F583E4F08016EE242EF582EF3400D0
:20322000F583E0F50AA3E0F50BE4F50CF50DEE2418F582EF3400F583780A120B8E701EEEE8
:20324000241FF582EF3400F583E0F8EE241DF582EF3400F583E0687002A3E06039EE241206
:20326000F50EEF3400F50F780E121044EE2410F582EF3400F58312105BEE241DF582EF34BE
:2032800000F58312105BAA0AAB0BAC0CAD0D121CDA7406120EA7EE2418F582EF3400F583D8
:2032A000780A120D70EE241DF582EF3400F583E0C0E0EE241FF582EF3400F583D0E0F0EE6B
:2032C0002412FCEF3400FD8E828F83E02402FAA3E03400FB121C15906062E060147C787D6E
:2032E000B18E828F83E02402FAA3E03400FB121C158E828F83E0F8A3E0F988828983A3A334
:20330000E82408FCE93400FD7406120DA48E828F83E02402F8A3E03400F9E8FAE9FBEE249E
:203320001DF582EF3400F583E0F512A3E0F513E4F514F515750E01F50FF510F5117812795F
:203340000E120CC77812790A120C0F8A828B837812120CED8A828B83750EFF750FFF7510ED
:20336000FF780E120D4E9005E7E0640160030234A579011227D38E828F83E0FAA3E0FB75E7
:203380000AFF750BFF750CFF750DFFEA240EF582EB3400F583780A120D70EA2412F8EB3432
:2033A00000F9E8FAE9FBEE2412F582EF3400F583780A120D61E50A75F0E2A4C50AA8F07560
:2033C000F004A428F875F0E2E50BA428F50B8A828B83E0250AF0A3E0350BF0EE2416F582C7
:2033E000EF3400F583E0F50AA3E0F50B7404780A120E6FE50A2401F8E50B3400F98A828B87
:2034000083E028F0A3E039F0906062E08E828F837003023519E0F8A3E0C82412F582E83482
:2034200000F583E02410F0A3E03401F0EE240FF582EF3400F583E06032EE242BF582EF34EC
:2034400000F583E0F875F071A4C8AAF075F002A42AF98E828F83E0FAA3E0CA2412F582EA32
:203460003400F583E028F0A3E039F08E828F83E0F8A3E0C82414F582E83400F5837410F000
:203480008E828F83E0F8A3E0C82416F582E83400F58374FFF0A37425F0EEFAEFFB121345D7
:2034A0007900023A6C750E50750F00751000780E790A120BBC4003023376EE241DF582EFAA
:2034C0003400F583E0F8A3E0F9E8496003023376780A121040EEFAEFFB1226837404120EA4
:2034E000A7E964016003023376EE240FF582EF3400F583E060128E828F83A3A3A3A3A3E013
:2035000064057002A3E0600479088002793EEEFAEFFB12266B79018089E0F8A3E0C82412DE
:20352000F582E83400F583E02410F8A3E034FFF97A717B02120E06880A890BEE242EF5825A
:20354000EF3400F583E0F8A3E0F9C3E50A98E50B99500302342C80B074EC120EE8EAFEEB89
:20356000FF8C828D83E0F8A385820A85830B603B147003023740147003023A351470030273
:2035800037BC24FD70030238D5147003023A6C14700302392C24FE70030238DA1470030246
:2035A000391C1470030239B8023A5BEE2476F512EF3400F513E0851282851383F0850A82D6
:2035C000850B83A385820A85830BEE2477F510EF3400F5117902AC0AAD0BAA10FB122695EF
:2035E0008A0A8B0BEE2479F50EEF3400F50F7902AC0AAD0BAA0EFB1226958A0A8B0B7902DE
:20360000AC0AAD0BEE247BFAEF3400FB1226958A0A8B0BEE247DF50CEF3400F50D7902ACC4
:203620000AAD0BAA0CFB1226958A0A8B0B851282851383E0C333F0851082851183E0F8A37B
:20364000E0F9E8C333F8E933F9851082851183E8F0A3E9F0850E82850F83E0F8A3E0F9E8BA
:20366000C333F8E933F9850E82850F83E8F0A3E9F0850C82850D83E0F50EA3E0F50F7404BD
:20368000780E120E7E850C82850D83E50EF0A3E50FF0EE2474F50CEF3400F50D7902AC0A97
:2036A000AD0BAA0CFB122695850C82850D83C082C0838E828F83A3A3A3A3A3E0F8A3E0F982
:2036C000D083D082E0C398F8A3E099F9C3E894FFE9947F4003023796EE247DF582EF340088
:2036E000F583E0F50AA3E0F50BE4F50CF50DEE247BF582EF3400F583E02401F50EA3E034AB
:2037000000F50FE4F510F511EE2479F582EF3400F583E0F8A3E0F9E8C333F8E933F9881240
:203720008913E4F514F515780E7912120C0F780A790E120BBC4004793B805DEE247380629A
:20374000EE2480F50CEF3400F50D7402C0E07905AC0AAD0B7AE27B05122695EAFCEBFDD068
:20376000E0F9AA0CAB0D122695850C82850D83C082C0838E828F83A3A3A3A3A3E0F8A3E0DC
:20378000F9D083D082E0C398F8A3E099F9C3E894FFE9947F40097928EEFAEFFB023A56EECD
:2037A000247FF582EF3400F5837401F0EE241DF582EF3400F583E4F0A3023928EE24E1F5EC
:2037C00082EF3400F583E07039EEF8EFF97ABB7B048A828B83A3E0C0E0E824E2F582E93402
:2037E00000F583D0E0F08A828B83A3AA82AB8388828983A3A882A983EA64C37003EB6404B4
:2038000070CFEE24E2F582EF3400F583E0A2E0EE401124DDF582EF3400F583741AF0790DAB
:20382000023A2F2462F582EF3400F583E4F0EE2467F582EF3400F583E4F0EE24E0F582EFFA
:203840003400F5837401F07908AC0AAD0BEE249BFAEF3400FB1226958A0A8B0B7902AC0A7B
:20386000AD0BEE24A3FAEF3400FB1226958A0A8B0BEE2493F50CEF3400F50D7908AC0AAD1D
:203880000BAA0CFB1226958A0A8B0B7908AA0CAB0D12269BEE2487F50CEF3400F50D790477
:2038A000AC0AAD0BAA0CFB1226957904AA0CAB0D12269BEE248BFAEF3400FB1226ADEE24B2
:2038C00083FAEF3400FB1226B39004AAE04480F07904023A2FEE24DE8045EE2462F582EF19
:2038E0003400F583E4F0EE2467F582EF3400F583E4F0EE24D2F582EF3400F583E4F0EE240D
:20390000DCF582EF3400F5837401F0EE24D3F582EF3400F583E4F0790B023A69EE24DFF57A
:2039200082EF3400F5837401F0023A6CEEF8EFF97ABB7B048A828B83A3E0C0E0E824E2F5BB
:2039400082E93400F583D0E0F08A828B83A3AA82AB8388828983A3A882A983EA64C3700306
:20396000EB640470CFEEF8EFF97ABB7B048A828B83A3E0FC850A82850B83E05CC0E0E8248E
:20398000E2F582E93400F583D0E0F0850A82850B83A385820A85830B8A828B83A3AA82AB1A
:2039A0008388828983A3A882A983EA64C37003EB640470B979098077EE24EAF582EF340066
:2039C000F583E064017003023A5B850A82850B83E0C0E0EE24EDF582EF3400F583D0E0F0CB
:2039E000850A82850B83A385820A85830B7402C0E0F9AC0AAD0BEE24EEFAEF3400FB12260F
:203A000095EAFCEBFDD0E0F9EE24F0FAEF3400FB122695EE24EAF582EF3400F5837401F040
:203A2000EE24ECF582EF3400F583E0703F790CEEFAEFFB8034EE24F4F8EF3400F9E08882D8
:203A40008983F0EE24F3F582EF3400F5837401F088828983E0F912266B8011EE24F5F5824D
:203A6000EF3400F583E8F0790712263B7F0C020FBA74F6120EE8EAFEEBFF023CB7EEFAEF7A
:203A8000FB12262F023F03EE2469F582EF3400F583E06401703E9004B2E07003023D93EEA7
:203AA000FAEFFB122641EE24A3F50AEF3400F50B780A121044EE249BFCEF3400FD8E828F82
:203AC00083A3A3A3A3E0FA7B001224077402120EA7023CB7EEFAEFFB122605023F03EE24AE
:203AE00069F582EF3400F583E0640170559004B2E06031EE2482F582EF3400F5837401F07F
:203B0000EE24D4F582EF3400F583E4F0A3F0A3F0A3F0EE24D8F582EF3400F583E4F0A3F0BD
:203B2000A3F0A3F0EE24DEF582EF3400F583E064016003023D937906EEFAEFFB1226470211
:203B40003CB7EE24D2F582EF3400F583E06401702AEEFAEFFB12260BE964016003023F2076
:203B6000EE24DEF582EF3400F583E4F0EE2469F582EF3400F5837401023F0EEE24D3F582C2
:203B8000EF3400F583E07003023F20EE24B2F50AEF3400F50B780A121044EE248BFCEF344C
:203BA00000FDEE24C2FAEF3400FB1226B97402120EA7EE24D2F582EF3400F5837401023C45
:203BC0007FEE2469F582EF3400F583E064016003023C829004B2E07003023D93EE2420F5DF
:203BE00082EF3400F583E0F8A3E0F9EE241DF582EF3400F583E8F0A3E9F0EEFAEFFB1226B5
:203C000041EE2462F582EF3400F5837401F0EE2467F582EF3400F5837401F0EE24DCF58223
:203C2000EF3400F583E06401701379008E828F83A3A3A3A3E0FA7B0012241380137C0179D3
:203C4000008E828F83A3A3A3A3E0FA7B0012240DEE24DCF582EF3400F583E4F0EE24E0F563
:203C600082EF3400F583E4F0EE24DFF582EF3400F583E4F0EE24DEF582EF3400F583E4F0A6
:203C80008035EEFAEFFB122611023F03EE2469F582EF3400F583E064016003023D22EE2468
:203CA000DFF582EF3400F583E064016003023D93EEFAEFFB122641EE246EF582EF3400F53F
:203CC00083E07003023F20EE246AF582EF3400F583E024FE602F24FE7003023A87147003AF
:203CE000023ADE147003023BC1147003023F1124FE7003023DC524FE6092147003023E12C6
:203D000014604C80B2EE2469F582EF3400F583E064016003023A7D9004B1E0607679160237
:203D20003EE4EEFAEFFB122617E964016003023F20EE24DFF582EF3400F583E4F0EE2482C3
:203D4000F582EF3400F583E4F0EE2469023BB5EE2469F582EF3400F583E06401705D9004DD
:203D6000B2E06026EE2482F582EF3400F583E4F0EE2462F582EF3400F5837401F0EE24674D
:203D8000F582EF3400F5837401F09004B1E06003023CB0EE2471F8EF3400F988828983E0A9
:203DA00024FFF0A3E034FFF088828983E0F8A3E0F9E8496003023F20023EE2EEFAEFFB12E5
:203DC000261D023F03EE2469F582EF3400F583E0640170349004B2E060B9EE24E1F582EF4E
:203DE0003400F5837401F0EE2420F582EF3400F583E0F8A3E0F9EE241DF582EF3400F583D9
:203E0000E8F0A3E9F0023CB0EEFAEFFB122623023F03EE2469F582EF3400F583E0640160BD
:203E200003023EEFEE24EAF582EF3400F583E064017051EE24EBF582EF3400F583E06401E8
:203E40006003023CB0EE24F0F582EF3400F58312105BEE24EEF582EF3400F58312105BEE03
:203E600024EDF582EF3400F583E0FC8E828F83A3A3A3A3E0FA7B0079001224017404120EF8
:203E8000A7023CB0EE2471F8EF3400F988828983E024FFF0A3E034FFF088828983E0F8A3B6
:203EA000E0F9E849707AEE24F0F582EF3400F58312105BEE24EEF582EF3400F58312105BEE
:203EC000EE24EDF582EF3400F583E0FC8E828F83A3A3A3A3E0FA7B00792212240174041296
:203EE0000EA77922EEFAEFFB12266B79018033EE24ECF582EF3400F5837401F0EEFAEFFB89
:203F0000122629EE2469F582EF3400F583E9F0800FEEFAEFFB122635E964017003023CB05D
:203F200079007F02020FBAD083D082020B76C082C0839003A2E0F8A3E0F9E8496004790177
:203F40008002790080E1E9F874FF28C39416400574FF687004790180027900020B7674EE2E
:203F6000120EE8890E8A0A8B0B8C0F7512008A828B83E4F07412120EDCE0FEA3E0FF800501
:203F8000E82512F512E512C3950F506285120CEE250CF582EF3400F583E0F5130512604E6A
:203FA000851282A882850F10F50CE8250CFAE43400FBE5109AE49BC365D0334031EE28F53E
:203FC00082EF3400F583E0F50C0512F91220EFE9601C74FF2513F8850A82850B83F0E50EA3
:203FE000650C709CEE2512FAEF3400FB80047A007B007F0A020FBA020B76FFFFFFFFFFFFBD
:20400000264DFFFF0500009442424242FFFFFFFFFFFFFFFFFFFFFFFFFFFFFFFFFFFFFFFFA2
:20402000000102030405060708090A0BFFFFFFFF0243D802575FFFFFFFFFFFFFFFFFFFFF77
:20404000FFFFFFFFFFFFFFFFFFFFFFFFFFFFFFFFFFFFFFFFFFFFFFFFFFFFFF024FB9FFFF73
:20406000FFFFFF024F11FFFFFFFFFF024FDDFFFFFFFFFF024F90FFFFFFFFFFFFFFFFFFFFE6
:20408000FFFFFF0257D2FFFFFFFFFFFFFFFFFFFFFFFFFFFFFFFFFFFFFFFFFF024E14FFFFAB
:2040A000FFFFFFFFFFFFFFFFFFFFFF024E99FFFFFFFFFF0255CB01022487010000148702B9
:2040C000488701000052871094850300008802024C87030000810202488701000055871068
:2040E000648503000000000224870100001A87024887010000568710B48502000000000289
:204100004C870300009686024A870100000000024887010000568710848502000053870233
:204120004C870300009686024A8701000053870000A55E995E009001000000D5818A8232C0
:2041400082D4830B81DA820080348669832B84408676812583000003000001000000000060
:2041600000000030FF020202020202020202010D00000010010224870100000E87024887CB
:20418000010000EB0B0250870100009A03024887010000EC0B0240870100002C870248879A
:2041A000010000ED0B023C870100002A87024887010000EE0B023A87010000E584024887C6
:2041C000010000EF0B0238870100002887024887010000F00B023687010000D385024887BD
:2041E000010000F10B023487010000AD84024887010000F20B023287010000FF85024887F3
:20420000010000F30B023087010000F40BFF000801010003020106000000000000000000D1
:2042200000000000000000000000000000000000000000FFFF0110002000E8039763A36364
:20424000FF0000B4000028002800283075A000A000A000A00000080008E001F0001000100D
:2042600000100010001000100050005000500010001000D0070000000000000F0001000502
:2042800000307507001000010081FF00000000FFB764D564BD64FF02020208025000A0006E
:2042A0000000E80302248701000017870248870100001D0D0246870100005E0602488701C5
:2042C00000001E0D02428701000074060248870100001F0D023E8701000076060248870159
:2042E0000000200D022E870800007706024887010000210D026A86010000220DFF0100FF34
:20430000200224870100001187024887010000860D0220870000000000024C87030000C48D
:2043200006BD6ABD6ABD6ABD6ABD6ABD6ABD6ABD6ABD6ABD6ABD6ABD6ABD6A7B6D936D751F
:204340006DE5C754F84405F5C779012200000080FB124341B900030243C2E479217815B8C0
:2043600000028004F709D8FCE479367802B800028004F709D8FCE490028078BE7909800294
:20438000F0A3D8FCD9FA781C9040B67A01BA00028007E493A3F608DAF9900B3DAA82AB83EE
:2043A0009040B7788B79038015E493A3AC82AD838A828B83F0A3AA82AB838C828D83D8E904
:2043C000D9E77582897583C374041243EA75824C75834374001243EA75D00075813F751AF1
:2043E00080751B02759F00024351C09FF59FE473D09F22D083D082C09FE493C0E074019303
:20440000C0E0740293F59F22E066701008A3E066700A08A3E066700408A3E06622E49366B7
:2044200070130874019366700C08740293667005087403936622C3E7960809E7960809E7BB
:20444000960809E796A2D265D03322C3E09608A3E09608A3E09608A3E096A2D265D03322A0
:20446000C00AC3E096F50A08A3E096420A08A3E096420A08A3E096420AA2D265D033E50A28
:204480007001D3D00A22C3E7960809E7960809E7960809E79622C3E09608A3E09608A3E0EB
:2044A0009608A3E09622C00AC3E096F50A08A3E096420A08A3E096420A08A3E096450A7067
:2044C00001D3D00A22C3E4939608740193960874029396087403939622080808EAC0E0EB98
:2044E000C0E086F0E7A4FA180986F0E7A42AFA180986F0E7A42AFA180986F0E7A42AFA1936
:2045000086F0E7A4FBE5F02AFA190886F0E7A42BFBE5F03AFA190886F0E7A42BFBE5F03AFE
:20452000FA18180986F0E7A4C5F02BFBE43AFA1908E7C5F0C6A426F6E5F03BFBE43AFA18D6
:2045400086F0E7A4F6E5F00826F6E43B08F6E43A08F6D0E0FBD0E0FA22E4CFC0E0E4CEC0F6
:20456000E0E4CDC0E0E4CCC0E075F020C3E633F608E633F608E633F608E633F6181818ECEA
:2045800033FCED33FDEE33FEEF33FFC3EC9709ED9709EE9709EF97191919400FFFEC97FC87
:2045A00009ED97FD09EE97FE191906D5F0BEECF709EDF709EEF709EFF7191919D0E0FCD0B6
:2045C000E0FDD0E0FED0E0FF2212463118181812455912462019191922124620191919084E
:2045E0000808E618181820E7E012455912463118181822090909E719191920E7DC080808AB
:20460000E618181820E703024559124631181818124559124631181818124620191919228B
:20462000E4C397F709E497F709E497F709E497F722E4C396F608E496F608E496F608E4960D
:20464000F6226017080808C6A2E713C618C613C618C613C618C613C6D5E0E9226016080820
:2046600008C6C313C618C613C618C613C618C613C6D5E0EA22700908080822601618181879
:20468000C6C333C608C633C608C633C608C633C6D5E0EA22E627F60809E637F60809E6372D
:2046A000F60809E637F622E026F608A3E036F608A3E036F608A3E036F622E026F008A3E0FA
:2046C00036F008A3E036F008A3E036F022C3E697F60809E697F60809E697F60809E697F66E
:2046E00022C3E096F008A3E096F008A3E096F008A3E096F022E657F60809E657F60809E6AC
:2047000057F60809E657F622E056F608A3E056F608A3E056F608A3E056F622E056F008A342
:20472000E056F008A3E056F008A3E056F022E647F60809E647F60809E647F60809E647F6D0
:2047400022E046F008A3E046F008A3E046F008A3E046F022E066F008A3E066F008A3E066B4
:20476000F008A3E066F022E0F608A3E0F608A3E0F608A3E0F622E6F008A3E6F008A3E6F0F3
:2047800008A3E6F022E0FAA3E0FBA3E0FCA3E0FD22EAF0A3EBF0A3ECF0A3EDF022CAC0E01A
:2047A000E6F0A308DAFAD0E0FA22CAC0E0E0A3C582CCC582C583CDC583F0A3C582CCC58247
:2047C000C583CDC583DAE6D0E0CA22C3E498F8E499F912480C8026C3E49AFAE49BFBE920A9
:2047E000E7E912480CE498F8E499F922C3E498F8E499F912480CE498F8E499F9C3E49AFA3F
:20480000E49BFB22EB20E7CFE920E7E0B90010BB0008E88AF084F8AAF022E4FBC8FA22EB97
:2048200070227B10C833C8C933C9335007C39AC3DBF280069A50012ADBEAC833F4C8C93349
:20484000F4C9FA2275F008E4C833C8C933C933C99AC99B5004C92AC93BD5F0ECFBC833F4C6
:20486000C8E4C9FA22600D08C6A2E713C618C613C6D5E0F322600C08C6C313C618C613C6FC
:20488000D5E0F422700422600D18C6C333C608C633C6D5E0F41822251A10AF08F51A4002AF
:2048A000151B8008F51A4002151BD2AF22C0D0251A10AF08F51A5002051B8008F51A50021C
:2048C000051BD2AFD0D022251AF58210AF08F51A4002151B8008F51A4002151BD2AF851B4D
:2048E0008322251AF582E4351BF58322E473251AC582C0E0E51B34FFC583C0E0E51AC395A0
:204900008224F810AF0885831B85821A800885831B85821AD2AFCEF0A3E520F0A3780AE640
:2049200008F0A3DEFAEFF0A3E58124FAF8E608F0A3E608F0A3E608F0A30808E608F0A3E60C
:2049400008F0A315811581D0E0FED0E0F8158115811581E8C0E0EEC0E022251AC582C0E01A
:20496000E51B34FFC583C0E0E51AC3958224F910AF0885831B85821A800885831B85821A4F
:20498000D2AFCEF0A3E520F0A3780AE608F0A3DEFAEFF0A3E58124FBF8E608F0A3E608F064
:2049A000A30808E608F0A3E608F0A315811581D0E0FED0E0F815811581E8C0E0EEC0E0225C
:2049C000851B83851A82E0A3FEE0A3F520780AE0A3F608DFFAE0A3FFE0A3C0E0E0A3C0E0D6
:2049E000E0A3C0E0E0A3C0E0E0A3C0E010AF0885821A85831B800885821A85831BD2AFD026
:204A000083D0820243F0851B83851A82E0A3FEE0A3F520780AE0A3F608DFFAE0A3FFE0A34E
:204A2000C0E0E0A3C0E0E0A3C0E0E0A3C0E010AF0885821A85831B800885821A85831BD2C4
:204A4000AFD083D08222C0D0251AC582C0E0E51B34FFC583C0E0E51AC3958224F310AF0858
:204A600085831B85821A800885831B85821AD2AFC8F0A3E9F0A3EAF0A3EBF0A3790AE70960
:204A8000F0A3D8FAECF0A3EDF0A3EEF0A3EFF0A3D0E0F0A3D0E0F0A3D0E0F0A3E520F0A34E
:204AA000E5F0F0A322851B83851A82E0C0E0A3E0F9A3E0FAA3E0FBA3780AE0F608A3DFFAB2
:204AC000E0FCA3E0FDA3E0FEA3E0FFA3E0C0E0A3E0C0E0A3E0F5D0A3E0F520A3E0A3F5F046
:204AE00010AF0885831B85821A800885831B85821AD2AFD082D083D0E0F8D0E03274048037
:204B000006740280027401C0E0F4041248C7D0E012479D227404800474028000CCC0E0ED56
:204B2000C0E0E51AC39CCCAD1B50011D10AF068C1A8D1B80068C1A8D1BD2AF1247AAD0E05A
:204B4000FDD0E0FC22D083D082C5F0E493A3C5F0C395F0F5F0E493A3C395F04005E5F004B4
:204B60008001E475F002A42582F582E5F03583F583E493A3C0E0E493C0E022D083D082E921
:204B8000C0E0E493A3C386F0C5F095F0F908E493A386F0C5F095F0700BE493A3C3994005E7
:204BA000E9048002A3E475F002A42582F582E5F03583F583D0E0F9E493A3C0E0E493C0E057
:204BC00022D083D082E9C0E0E493A3C386F0C5F095F0F908E493A386F0C5F095F070240891
:204BE000E493A386F0C5F095F0701908E493A386F0C5F095F0700E08E493A3C3994007E964
:204C0000048004A3A3A3E475F002A42582F582E5F03583F583D0E0F9E493A3C0E0E493C077
:204C2000E022D083D082CCC0E0E493A36006124C4C1470FAE493A36006124C6B1470FAD022
:204C4000E0FCE493A3C0E0E493C0E022C0E0E493A3D39C5010E493A3C39C400AD0E0D0E0D9
:204C6000D0E0024C3FA3A3A3D0E022C0E0E493A36C7009D0E0D0E0D0E0024C3FA3A3D0E00A
:204C800022D083D082ECC0E0EDC0E0E493A3FCE493A3FDED4C600D124CCDEC24FFFCED340A
:204CA000FFFD80EFE493A3FCE493A3FDED4C600D124D0CEC24FFFCED34FFFD80EFD0E0FD07
:204CC000D0E0FCE493A3C0E0E493C0E022C0E0C3E49396087401939618400FE49366700863
:204CE00008740193661870007019A3A3C3E49396087401939618A3A3400DD0E0D0E0D0E0B6
:204D0000024CBDA3A3A3A3A3A3D0E022C0E0C0F088F0E4936670080874019366187000A821
:204D2000F0A3A3700BD0F0D0E0D0E0D0E0024CBDA3A3D0F0D0E022D083D082ECC0E0EDC031
:204D4000E0EEC0E0EFC0E0E493A3FCE493A3FDE493A3FEE493A3FFEF4E4D4C6015124DB39B
:204D6000EC24FFFCED34FFFDEE34FFFEEF34FFFF80E5E493A3FCE493A3FDE493A3FEE493AA
:204D8000A3FFEF4E4D4C6015124DF0EC24FFFCED34FFFDEE34FFFEEF34FFFF80E5D0E0FF5B
:204DA000D0E0FED0E0FDD0E0FCE493A3C0E0E493C0E022C0E0C0F088F01244C5A8F0400737
:204DC00012441DA8F0701AA3A3A3A31244C5A8F0A3A3A3A34013D0F0D0E0D0E0D0E0024D01
:204DE0009DA3A3A3A3A3A3A3A3A3A3D0F0D0E022C0E0C0F088F012441DA8F0A3A3A3A37057
:204E00000BD0F0D0E0D0E0D0E0024D9DA3A3D0F0D0E022FFC0E074F0124A46A2AFE433FFE7
:204E2000D2AFE589F8E5AB58F50C6063F4F589C2C59003CD7401F0751C00FA9003CAE0F960
:204E40001260977E008E0A750B007402780A124884124F0CC3E89408E99400502BE85407EE
:204E6000F87401B800028004C333D8FC550C6018750A00750B01EE780A124884AA0AAB0B2C
:204E8000900280E0F912602B0EEEC3940440B6EFA2E092AF7F03024AA5C0E074F0124A4672
:204EA000A2AFE433FFD2AFE58AF8E58D58F50C6059F4F58AC2EB7E008E0A750B007402787B
:204EC0000A124884124F0CE82400FAE934FFFBC3EA9408EB9400502BE85407F87401B800B5
:204EE000028004C333D8FC550C6018750A00750B01EE780A124884AA0AAB0B900280E0F9E6
:204F000012602B0EEEC3940440AE8083124F79F922C0E074F0124A46A2AFE433FFD2AFE544
:204F20008BF8E5AC58F50C604DF4F58BC2E87E008E0A750B007402780A124884124F79C330
:204F40009402402BE85407F87401B800028004C333D8FC550C6018750A00750B01EE780A4F
:204F6000124884AA0AAB0B900280E0F912602B0EEEC3940440BA024E8F7457250AF582744C
:204F800005350BF583E0F8A3E022C2AF02000022C0E074F2124A46A2AFE433FED2AFC2C031
:204FA000E5D1A2E4500653D1EF12619F751C00EEA2E092AF7F01024AA5C0E0C0D0E8C0E0CF
:204FC000E9C0E0E5A8D2AFC2C7751C00A2E7A2E792AFD0E0F9D0E0F8D0D0D0E032C0E0C09A
:204FE000D0E8C0E0E9C0E0C00AC00BC082C083A2AFE433F9D2AF900551E0F8A3E0687008B3
:20500000539AFBA374018026C2E9900551E0F50A7401250AF074D1250AF58274043400F55A
:2050200083E0F5C1900551E0C394804002E4F0E9A2E092AFD083D082D00BD00AD0E0F9D025
:20504000E0F8D0D0D0E03274F512495AEAFEEBFFEE2434F8EF3400F9880A890BEE2435F54A
:2050600082EF3400F583E0F8EE2437F582EF3400F583E0F50CEC850CF0A4FCAAF0850CF0D7
:20508000EDA42AFDE82CF8E43DF97A257B0012480CEA850A82850B83F0F8740758F974017B
:2050A000B900028004C333D9FCFAE8131313541FF8EE28F8EF3400F9E8245DF582E9340039
:2050C000F583E05A6008EE2434F582EF802CEE2434F582EF3400F583E0C0E0EE2436F582C7
:2050E000EF3400F583E0F5F0D0E084A8F0EE28F8EF3400F9E82438F582E93400F583E0F931
:205100007F04024A0674F512495AEAFEEBFFEE2434F582EF3400F583E0C0E0EE2435F58234
:20512000EF3400F583D0E0F08E828F83A3A3A3A3A3A3A3C082C0838E828F83A3A3A3A3A3C7
:20514000E0F8A3E0F9D083D082E0C398F50AA3E099F50BEE247FF582EF3400F583E0640118
:205160007069EE2480F582EF3400F583E0F8A3E0F98E828F83A3A3A3A3A3A3A3E0FCA3E068
:20518000FD8E828F83A3A3A3A3A3E0FAA3E0FBC3EA9CEB9D5010C3EC98ED99402EC3EA98B8
:2051A000EB995027800EC3EA98EB994007C3EC98ED9940177C877D08EEFAEFFB126A1BEE53
:2051C000247FF582EF3400F583E4F0EE2434F8EF3400F9E8FCE9FDEE2435F582EF3400F54C
:2051E00083E0F8EE2437F582EF3400F583E0F50CE50A850CF0A4F50AAAF0850CF0E50BA456
:205200002AF50BE8250AF8E4350BF97A257B0012480CEA8C828D83F0F8740758F97401B9CE
:2052200000028004C333D9FCFAE8131313541FF8EE28F8EF3400F9E8245DF582E93400F57B
:2052400083E05A6008EE2434F582EF802CEE2434F582EF3400F583E0C0E0EE2436F582EF4B
:205260003400F583E0F5F0D0E084A8F0EE28F8EF3400F9E82438F582E93400F583E0F9128C
:205280005E7F025100C082C083851A82851B83E0F8A3E0F9C3EA9CEB9D5010C3EC98ED99C3
:2052A000401BC3EA98EB995014800EC3EA98EB994007C3EC98ED994004790180027900D072
:2052C00083D08222EAC39CFAEB9DFB2274EF12495A90074DE064086005E06407702A90616C
:2052E000C8E0602490077BE0F4601DE0F875F003A4C8AAF02AF9747D28FE740739FF8E82DC
:205300008F83A3A3A3E070030253FC906060E0C0E0EE2468F582EF3400F583D0E0F0750E6F
:2053200007750F09750A00750B00E5D914F50CE5D95403F510601774036510605CE50C607D
:2053400010EE2467F582EF3400F583E070030253E1900902E06401602AEE2482F582EF3491
:2053600000F583E06004780480027800850C0AE50AC398FA95E0FB1268B38A0A8B0BEA4526
:205380000B7005126C678074EE2482F582EF3400F583E070048A0E8B0FE50C6012850E8210
:2053A000850F83F50DE5D9F0A3150DE50D70F6EE2482F582EF3400F583E0604474FC250C3E
:2053C000F50C780E124B01AC0CA910EEFAEFFB126AB774021248ADE97026AA0AAB0B126298
:2053E00029793D8E828F83A3A3A3A3E0FA7B0012678DEEFAEFFB126A33126AE77900807474
:20540000740365106056850C127513007812124B01AC0EAD0FAA0AAB0B126A937402124818
:20542000ADEE2468F582EF3400F583E064807004747F8001E0F50E780E124B05E510F50EC4
:20544000780E124B05A90CAC0AAD0B90077BE0FA7B0012675174021248AD801390074DE03C
:205460006408600BAC0EAD0FEEFAEFFB126B41126C7379017F0A024A0674F512495A74FC7B
:20548000124897EAFEEBFF890AA2AFE433F50BC2AF806AEE2463F8EF3400F97A007B00A2D3
:2054A000AFE433F50CC2AF88828983E0FCA3E0FDEC4D603A88828983E0FAA3E0FB8A828B6A
:2054C00083E0FCA3E0FD88828983ECF0A3EDF08A828B83E4F0A3F088828983E0FCA3E0FD88
:2054E000EC4D700A88828983A3A3E4F0A3F0E50CA2E092AF12622990088EE004F0EE246376
:20550000F582EF3400F583E0F8A3E0F9E849603DEE2463F582EF3400F583E02402FAA3E04D
:205520003400FBEA2402F50CEB3400F50D780C124B018A828B83E0FCA3E0F9EEFAEFFB12D2
:205540006A5774021248ADE9700302549390088EE0606390088FE0F890088EE0C398500C43
:205560007402650A7050900890E0604A8E828F83A3A3A3A3E0851A82851B83F0A3E4F0900B
:20558000088EE0F874021248E2E8F0A3E4F090088EE0F890088DE028F074021248E2AC82A1
:2055A000AD83851A82851B83AA82AB83790112675790088EE4F0E50BA2E092AF7404124854
:2055C000AD025100852E87852FC622C0E0C0D0E8C0E0E9C0E0EAC0E0EBC0E0ECC0E0EDC066
:2055E000E0EEC0E0C00AC00BC00CC00DC082C083C0F0A2AFE433FEC2AF759B00906182E0A0
:20560000A2E05012E591A2E0500C7591FE7401652E70031252CCE0A2E55051E591A2E5504E
:205620004B7591DF90074DE064076005E0640870237401652E7035790190077BE0FA75F04F
:2056400003A4CAA8F028FB747D2AFA74073BFB1254798018E0640D701390076FE004F064CF
:20566000287002E4F07A00E0F9126C79906182E0A2E64003025712E591A2E640030257123D
:205680007591BF90074DE064057008126B77126B838003126B7D752E00126BEFE990074E52
:2056A000F07900126BD11269797A017B0090074CE0F912602B907803E064427055900906FB
:2056C000E014F0704DC2AF1256CA007837D0E0F618D0E0F6E59F54077005750BFF800375A8
:2056E0000B7FC4C0E07836E6F50A08E6550BF50B740B780A124875D0E0250AF8906270E0F2
:20570000A2E740F8E8C333906272F0906270E0D2E0F0906181E0A2E35009E5E9A2E35003DC
:2057200075E9F7A3E0A2E75009E591A2E7500375917FEEA2E092AFD0F0D083D082D00DD015
:205740000CD00BD00AD0E0FED0E0FDD0E0FCD0E0FBD0E0FAD0E0F9D0E0F8D0D0D0E032C099
:20576000E0C0D0C082C083906183E0A2E05009E5BFA2E0500375BFFEE0A2E15009E5BFA258
:20578000E1500375BFFDE0A2E25009E5BFA2E2500375BFFBE0A2E35009E5BFA2E35003758E
:2057A000BFF7E0A2E45009E5BFA2E4500375BFEFE0A2E55009E5BFA2E5500375BFDFE0A201
:2057C000E65009E5BFA2E6500375BFBFD083D0828088C0E0C0D0E8C0E0E9C0E0EAC0E0EBB5
:2057E000C0E0ECC0E0EDC0E0C0F0E5A7A2E6500FE5A1A2E6500953A7BF75A1BF125837E552
:20580000A7A2E5500CE5A1A2E5500653A7DF75A1DFE5A7A2E15009E5A1A2E1500375A1FDF6
:20582000E5A7A2E2500CE5A1A2E2500653A7FB75A1FBD0F002574874F812495A752E0190E0
:20584000074DE064067015126B058A828B83A3A3A3A3A3A3E0FAA3E0FB126B65A2AFE43315
:20586000FED2AF900753E0640170187A207B0090074CE0F91260C77A207B0090074CE0F917
:20588000126031906182E0D2E6F0900903E0602185C62F8016900752E064017008E5C654B8
:2058A000F84405F5C653BEFC1255C47401652E60E4EEA2E092AF7F01024A06FF8E308F3168
:2058C000858235858334851A82851B83E0CEA3E0CF853582853483EBC9EAC8EDCBECCA754B
:2058E000F010C3E833C8E933C9EA33CAEB33CBC3EA9EF533EB9FF532B35004AB32AA33EC7C
:2059000033CCED33CDD5F0DAAE30AF312274E912495A74F8124897851A82851B83ECF0A3EA
:20592000EDF08A0A8B0B90074DE024F7C394055006750A01025AA4126B058A0C8B0DAE0CE5
:20594000AF0DEE4F7003025AA1AC0AAD0B74021248E2AA82AB83126B958E828F83A3A37575
:205960000EFF750FFF7510FF751100780E12470874021248E27512FF7513FF7514FF7515D5
:20598000007812124708780E7912124486502A780E79121246CD750A01750BC8750C0075C1
:2059A0000D00780A790E1244865052850E0A850F0B85100C85110D80507516017517C875AE
:2059C000180075190085120A85130B85140C85150D780A790E1246CD7816790A1244864036
:2059E0001C750A00750B00750C00750D01780A79121246CD780A790E124694800C750A0155
:205A0000750B00750C00750D007409780A124675750E19F50FF510F511780A790E124559D3
:205A20008E828F83A3A3A3A3A3A3E0F8A3E0F97AD07B0312480C880E890FE4F510F511785B
:205A40000A790E12469474061248E2E0F8A3E0F97AD07B0312480CE8FA8A0EE4F50F780AAD
:205A6000790E1244865007780A790E1246CD90074DE06408600AE064066005E06405702D0F
:205A8000750E0D780E790A1244864021750EF4750FFF7510FF7511FF780A790E12469480B8
:205AA0000C750A00750B00750C00750D00851A82851B83E0F8A3E0F5838882780A12477666
:205AC00074081248AD7F10024A0674F712495A126BA7900901E064017010906245E4F0A311
:205AE000F053F4F343FE0C5390F3126B53E5C654804449F5C6E59E547F644970F8906185E1
:205B0000740FF09008FFE0F47002A3E0604E900900E0600814601B14602E8040750A01753D
:205B20000B009008FFE0780A124884E50AF45280802A750A01750B009008FFE0780A1248D1
:205B400084E50AF452908014750A01750B009008FFE0780A124884E50AF452A079007F02C2
:205B6000024A0674F712495AE9FEEAFF74016E700C7A807B0090074CE0F912602B906E5464
:205B8000E493F46008E493F912696D800953C680E59E547F70FA126B59900901E0640170D3
:205BA000031269919008FFE0F47002A3E0604B900900E0600814601A14602C803D750A017F
:205BC000750B009008FFE0780A124884E50A42808028750A01750B009008FFE0780A1248C2
:205BE00084E50A42908013750A01750B009008FFE0780A124884E50A42A0126BA7126B057F
:205C00008A0A8B0BA80AA90BE8496015E5E170FCE82414F582E93400F583E0F46003E0F5E4
:205C2000E174016F700A7A0190074CE0F9126097025B5E74ED12495A8A0A8B0B8C0C8D0DB8
:205C400074131248E2780E124767780A790E1244867512017513C875140075150050127891
:205C60000A790E1246CD7812790A12448650168010780E790A1246CD7812790E1244864034
:205C8000047901800279007F0C024A0674ED12495A8A0A8B0B8C0C8D0D74131248E2780EF3
:205CA000124767780E790A1244864011780A790E1246CDAA0AAB0BAC0CAD0D8022751200BB
:205CC0007513007514007515017812790E1246CD7812790A124694AA12AB13AC14AD15807D
:205CE000A68A828B83750AFF750BFF750CFF750D00780A12471B7F04024A0674F512495AFC
:205D00008C828D83780A1247678A828B83780A1246E1EA2404F8EB3400F98C828D83A3A3C8
:205D2000A3A3E0FCA3E0FD88828983C3E09CF0A3E09DF088828983C3E09420A3E0944E405A
:205D4000268A828B83750AFF750BFF750CFF750DFF780A1246BA8A828B83A3A3A3A3E024C7
:205D600020F0A3E0344EF0025CE174F512495AE9FE9008A2E0FAA3E0FBEEC333F8E433F95C
:205D8000747428F582748539F583E02AF50AA3E03BF50B780A124B017A407B427C0F7D00AC
:205DA0001258BC74021248AD8A0A8B0B8C0C8D0D7410780A12465CAA0AAB0B7F04024A06EB
:205DC00074F112495A8A0E8B0F8C108D11740F1248E2E0FAA3E0FB74111248E2E0F50AA3E3
:205DE000E0F50B780A124B01EA2401F50AEB3400F50BE4F50CF50D780E790A1244D9750A18
:205E000071750B02780E790A1244D9AA0EAB0FAC10AD111258BC74021248AD8B0BEA450BF8
:205E200060047A0180027A00EC2AFCED3400FD74131248E2E0F8A3E0F9E8FEE9FFECF8EDA1
:205E4000F97A717B0212480C880A890B8E828F83780A124776ECF8EDF97A717B0212480C4A
:205E60008A0A8B0B7405780A1248848E828F83A3A3A3A3E50AF0A3E50BF07F08024A06C076
:205E800082C083E9906000F0D083D082221243F34690041243F3DE90041243F3B092041231
:205EA00043F30C93041243F36293041243F37493041243F30894041243F39394041243F3D2
:205EC0009D9A031243F3899B031243F3459C031243F3C29D031243F3699E031243F3ED9E1E
:205EE000031243F380A0031243F34CA1031243F364A1031243F3EDA1031243F37FA2031255
:205F000043F35EA3031243F394A3031243F3E0A5031243F30080011243F32080011243F3FB
:205F2000F781011243F3B282011243F31483011243F35A83011243F38383011243F3D68474
:205F4000011243F35885011243F3E285011243F35C86011243F36587011243F3F887011230
:205F600043F31F8A011243F34391011243F38E91011243F3BE91011243F31492011243F3ED
:205F80004292011243F315B8011243F37AB8011243F308B9011243F3B8BC011243F35EC26C
:205FA000011243F38EC2011243F3ACC9011243F3A8CA011243F317CB011243F32DCC01124F
:205FC00043F387CD011243F3CBCD011243F370CF011243F39985041243F3A385041243F3A7
:205FE000E185041243F32A86041243F36486041243F3BE86041243F3DF86041243F3E8860E
:20600000041243F33587041243F35E87041243F36887041243F3D487041243F36688041215
:2060200043F3B088041243F3E688041243F37289041243F3B389041243F3EA89041243F35E
:20604000FC89041243F31B8A041243F3248A041243F3F18A041243F3E8C3041243F31ABEEE
:20606000041243F311BF041243F32BBF041243F33CBF041243F387B7041243F3BDB7041227
:2060800043F3F3B7041243F33EB9041243F3F1C2041243F307C3041243F311C3041243F35C
:2060A0005BC3041243F3129A041243F3279A041243F3D79A041243F3179B041243F3309BEB
:2060C000041243F36B9B041243F3B89B041243F3EA9B041243F32C9C041243F32D9E0412BD
:2060E00043F33FC4041243F351C4041243F319B0041243F33EB0041243F368B0041243F307
:2061000085FF031243F3E9FF011243F337C2041243F347C2041243F353C2041243F3E4C2DE
:20612000041243F363C0041243F3E8C0041243F34EC1041243F3F87F001243F3DCB20412F2
:2061400043F398B4041243F3F9B4041243F33FB5041243F3D0FB011243F36BFC011243F374
:20616000EFFC011243F388FD011243F34AFE011243F3BFFE011243F3E7FE011243F3F0FE6A
:20618000011243F360FF011243F373FF011243F389FF011243F392FF011243F3A5FF0112F1
:2061A00043F3E6FF011243F30080041243F3CC80041243F3F680041243F30D81041243F37B
:2061C0001781041243F36381041243F36681041243F39781041243F31482041243F36A8246
:2061E000041243F3BD82041243F3FF82041243F32883041243F36883041243F385830412AF
:2062000043F3A283041243F3CB83041243F3FC84041243F31085041243F34B85041243F374
:206220007E85041243F31DBB041243F36FBB041243F3F9BB041243F360BC041243F342B516
:20624000041243F36CB5041243F33AB6041243F315B7041243F31DEC011243F3B7EF011226
:2062600043F327F2011243F381F2011243F3A0F2011243F3FDF2011243F369F4011243F311
:2062800055F5011243F30EFA011243F3DCFA011243F383FB011243F3C1FB011243F32D7E84
:2062A000001243F3447E001243F3757E001243F3B07E001243F3DA7E001243F3047F0012A6
:2062C00043F31B7F001243F3327F001243F3497F001243F3727F001243F3857F001243F318
:2062E0009B7F001243F3AE7F001243F3D57F001243F3F8C8031243F3FCC9031243F334CA12
:20630000031243F357CA031243F362CA031243F385CA031243F394CB031243F369CC0312C1
:2063200043F3E4CC031243F36CCD031243F3A7CD031243F3DECD031243F36CCE031243F36E
:2063400045CF031243F3A5CF031243F3B0CF031243F32FD0031243F332D0031243F335D0B9
:20636000031243F3C4D0031243F3C7D0031243F3F7D0031243F321D1031243F30FD20312CC
:2063800043F3C1D2031243F332D3031243F32AD4031243F35ED4031243F3E0D4031243F3D4
:2063A00028D5031243F38CD5031243F319D6031243F3D3D6031243F3E2D9031243F36DDB6D
:2063C000031243F390DB031243F35595041243F37D95041243F3AB95041243F3E29504120F
:2063E00043F34096041243F38B96041243F3D696041243F31697041243F35C97041243F3E8
:206400008A97041243F34798041243F35198041243F35E98041243F39198041243F35D9902
:20642000041243F36999041243F38199041243F38B99041243F36EC1041243F386C1041214
:2064400043F39EC1041243F39AA6031243F376A7031243F3DAA8031243F331A9031243F376
:20646000B2A9031243F3A2AA031243F3EFAA031243F375AB031243F3A7AB031243F3BBAD8B
:20648000031243F3FDAD031243F31BAE031243F39EAE031243F372AF031243F33AB00312A6
:2064A00043F370EC031243F343ED031243F3ECED031243F33FEE031243F3EFEE031243F3C0
:2064C0007BEF031243F367F0031243F396F0031243F3A9F1031243F3F1F1031243F3C6F2CA
:2064E000031243F302F3031243F31EF3031243F3E6A6041243F30CA7041243F328A80412F8
:2065000043F332A8041243F367A9041243F35FAA041243F369AA041243F31F8B041243F319
:206520004F8C041243F3828C041243F3CC8C041243F3938E041243F3586E001243F3C26E8B
:20654000001243F32170001243F3AB70001243F3BB70001243F3E870001243F344710012DD
:2065600043F34B72001243F31573001243F37574001243F3B874001243F35D75001243F351
:20658000AA75001243F3D075001243F3DE77001243F3E377001243F3E879001243F3357A70
:2065A000001243F3A87A001243F3DB7A001243F37D7B001243F3267C001243F35E7C001276
:2065C00043F3617C001243F3A97C001243F3E97C001243F3407D001243F346AD041243F302
:2065E0005EAD041243F3A6AD041243F3BCAD041243F303AE041243F317AF041243F3A4AF8E
:20660000041243F3EFAF041243F30080021243F33B80021243F38080021243F34081021256
:2066200043F3CF81021243F35582021243F3BA82021243F3E682021243F31F83021243F345
:206640005D85021243F34187021243F32789021243F36A8A021243F3B88C021243F3CA8DDF
:20666000021243F3158F021243F32590021243F34290021243F37D90021243F39F9002122D
:2066800043F30291021243F3C395021243F35896021243F3AA96021243F3C896021243F3DB
:2066A0002297021243F30B98021243F38199021243F3059A021243F3E0F9031243F3EAF996
:2066C000031243F32DFA031243F348FA031243F3D8FA031243F300FB031243F33DFB0312C0
:2066E00043F374FB031243F39DFB031243F312FC031243F327FC031243F33CFC031243F37D
:206700005EFC031243F3A7FC031243F3CCFC031243F306FD031243F332FD031243F360FDAE
:20672000031243F3ABFD031243F31BFE031243F389FE031243F394FE031243F3BFFE031236
:2067400043F308FF031243F332FF031243F35DFF031243F34ABF041243F340DE021243F3D1
:206760008EDF021243F36EE0021243F38DE0021243F30AE1021243F34DE1021243F3A3E2E1
:20678000021243F353E3021243F38CE5021243F313E8021243F3B4E8021243F3AAE90212A2
:2067A00043F3A7EA021243F301EC021243F38CEC021243F3BFBC041243F328BD041243F3D7
:2067C0007CBD041243F3A3BD041243F3D4BD041243F39F9E041243F30C9F041243F3539F39
:2067E000041243F36BA0041243F367A1041243F34AA2041243F3BBDC031243F3FDDC03129A
:2068000043F3CFDD031243F3A8DE031243F3A2DF031243F384E0031243F3EDE0031243F3E7
:20682000A3E1031243F317E2031243F383E2031243F3ACE2031243F326E3031243F3BFE3C6
:20684000031243F324E4031243F339E4031243F37FE4031243F398E4031243F3FDE40312C7
:2068600043F300E5031243F373AA041243F39BAA041243F3D9AA041243F397AB041243F35B
:20688000FEAB041243F31AAC041243F342AC041243F372AC041243F381AC041243F3FEAC2A
:2068A000041243F3D1C9021243F3F2CB021243F324CE021243F360CE021243F38DCE02127E
:2068C00043F37BCF021243F3C6CF021243F311D0021243F346D0021243F394D0021243F3D6
:2068E000C3D0021243F3E6D0021243F333D1021243F3B8D1021243F3D2D3021243F311D6C4
:20690000021243F352D6021243F3F6D7021243F337D8021243F330D9021243F33DDB0212CC
