:020000040000FA
:2000000002075CC2AFF5088111FFFFC2AFF5088123FFFFC2AFF5088135FFFFC2AFF508815C
:2000200047FFFFC2AFF5088159FFFFC2AFF508816BFFFFC2AFF508817DFFFFC2AFF5088184
:200040008FFFFFC2AFF50881A1FFFFC2AFF50881B3FFFFC2AFF50881C5FFFFC2AFF5088144
:20006000D7FFFFC2AFF50881E9FFFFC2AFF50881FBFFFFC2AFF508A10DFFFFC2AFF508A1C4
:200080001FFFFFC2AFF508A131FFFFC2AFF508A143FFFFFF758701002274FC120722750A6D
:2000A00004750B00780A12074B74021207917A007B0079081205597402120707851E828590
:2000C0001F83E0F47003A3E0F470030201FD851E82851F83E0F8A3E0F9E84970030201FD09
:2000E0007402120787E0687003A3E0697010750901024030C2AF75C9AB75C95B80FE53BE50
:20010000FBE59DA2E650FAE5C654804449F5C6E59E547F644970F853C67FE59EA2E740FA80
:2001200053C680E59E547F70FA43BE049062707408F0750A00F50B780A12074B7C807D01B4
:200140007A007B0079081205597402120707900186E0F50AA3E0F50B7409780A12076BE542
:200160000A2408FF53B4F375BC0075BC007CFC7D077A047B0079081203817E09EFC3940A0B
:20018000401C800774086E70027E567C007D087A007B00EEF91203810EEEC39F40E6851EB2
:2001A00082851F83E5BDF9E5BCF8E0687003A3E069704A851E82851F83E0F8A3E0F97402EB
:2001C000120787E8F0A3E9F0851E82851F8374FFF0A3F07409F5D575D480750A01780A12C5
:2001E000074B74021207917A007B101205E07402120707C2AF75C9AB75C95B80FE750A0407
:20020000780A12074B74021207917A007B0079011205597402120707851E82851F83E0F443
:200220007003A3E0F47003020371851E82851F83E0F8A3E0F9E849700302037174021207A2
:2002400087E0F8A3E0F9851E82851F83E0687003A3E0697010750900020830C2AF75C9AB3E
:2002600075C95B80FE74FF68700374FF69600302037153BEFBE59DA2E650FAE5C654804441
:2002800049F5C6E59E547F644970F853C67FE59EA2E740FA53C680E59E547F70FA43BE04B3
:2002A0009062707408F0750A00F50B780A12074B7C807D017A007B0079011205597402122A
:2002C0000707900186E0F50AA3E0F50B7409780A12076BE50A244FFF53B4F375BC0075BC57
:2002E000007CFC7D077A047B0079011203817E02EFC39403401C800774086E70027E567CA1
:20030000007D087A007B00EEF91203810EEEC39F40E6851E82851F83E5BDF9E5BCF8E0689A
:200320007003A3E069704A851E82851F83E0F8A3E0F97402120787E8F0A3E9F0851E8285F0
:200340001F8374FFF0A3F07409F5D575D480750A01780A12074B74021207917A007B021266
:2003600005E07402120707C2AF75C9AB75C95B80FE43BE03120094C2AF75C9AB75C95B8074
:20038000FE74F7120646E9FEE5C7FF740F5EF50A750B00740B780A120738EA2400F8EB352C
:2003A0000BF9E82400E93480F9A2AFE433F50AC2AFEEC4540FFAE5C754F84AF5C7E9900930
:2003C00080F0E8A3F0A37470F0A374BDF0EC900985F0EDFC900984E054E04CF09009867414
:2003E00020F0A37442F07409F5D575D48075D601000000000000000000000075D701E5D73F
:20040000A2E040FA8FC7E50AA2E092AF7F020206ACE5096007E508D2AF024033E508D2AF3D
:20042000020833E5096007E508D2AF02403BE508D2AF02083BE5096007E508D2AF02404344
:20044000E508D2AF020843E5096007E508D2AF02404BE508D2AF02084BE5096007E508D2BA
:20046000AF024053E508D2AF020853E5096007E508D2AF02405BE508D2AF02085BE50960EC
:2004800007E508D2AF024063E508D2AF020863E5096007E508D2AF02406BE508D2AF02087F
:2004A0006BE5096007E508D2AF024073E508D2AF020873E5096007E508D2AF02407BE50801
:2004C000D2AF02087BE5096007E508D2AF024083E508D2AF020883E5096007E508D2AF02CE
:2004E000408BE508D2AF02088BE5096007E508D2AF024093E508D2AF020893E5096007E551
:2005000008D2AF02409BE508D2AF02089BE5096007E508D2AF0240A3E508D2AF0208A3E5BA
:20052000096007E508D2AF0240ABE508D2AF0208ABE5096007E508D2AF0240B3E508D2AFA7
:200540000208B3E5096007E508D2AF0240BBE508D2AF0208BB0002055574F5120646890A35
:20056000740F550AF50C750D00740B780C120738EA2400F8EB3480F9E82400E9350DF9E50F
:20058000C7F50BA2AFE433F50CC2AFE50AC4540FFAE5C754F84AF5C7740B120787E0FEA30C
:2005A000E0FFEE4F602CEEFAEFFB88828983E08C828D83F088828983A3A882A9838C828D13
:2005C00083A3AC82AD83EA24FF1AEB34FFFBEA4B70D8850BC7E50CA2E092AF7F040206AC98
:2005E00074F7120646ED900980F0ECA3F0A37462F0A37473F0A3E0541FF07409120787E0F7
:20060000F50AA3E0F50BE50A333354FC900985F07406780A12076BE50A900984F09009860A
:200620007412F0A37442F053D1FE75D601EA906271F0EBA3F0906270E0D2E1F0E0A2E74044
:20064000FB7F020206AC251EC582C0E0E51F34FFC583C0E0E51EC3958224F910AF08858358
:200660001F85821E800885831F85821ED2AFCEF0A3E520F0A3780AE608F0A3DEFAEFF0A38B
:20068000E58124FBF8E608F0A3E608F0A30808E608F0A3E608F0A315811581D0E0FED0E03F
:2006A000F815811581E8C0E0EEC0E022851F83851E82E0A3FEE0A3F520780AE0A3F608DF97
:2006C000FAE0A3FFE0A3C0E0E0A3C0E0E0A3C0E0E0A3C0E010AF0885821E85831F800885F2
:2006E000821E85831FD2AFD083D08222251EF58210AF08F51E400C151F8008F51E400215E5
:200700001FD2AF851F832200C0D0251E10AF08F51E500C051F8008F51E5002051FD2AFD061
:20072000D022251E10AF08F51E400C151F8008F51E4002151FD2AF22700422600D18C6C3D2
:2007400033C608C633C6D5E0F4182274028000C0E0F4041206ECD0E012077A2275D0007545
:20076000813F751E80751F01020799600C08C6C313C618C613C6D5E0F422CAC0E0E6F0A334
:2007800008DAFAD0E0FA22251EF582E4351FF58322251EFCE4351FFD2212009912079F002C
:2007A000000080FBFFFFFFFFFFFFFFFFFFFFFFFFFFFFFFFFFFFFFFFFFFFFFFFFFFFFFFFFDA
:2007C000FFFFFFFFFFFFFFFFFFFFFFFFFFFFFFFFFFFFFFFFFFFFFFFFFFFFFFFFFFFFFFFF39
:2007E000FFFFFFFFFFFFFFFFFFFFFFFFFFFFFFFFFFFFFFFFFFFFFFFFFFFFFFFFFFFFFFFF19
:200800004E16FFFF0000005C41414141FFFFFFFFFFFFFFFFFFFFFFFFFFFFFFFFFFFFFFFF2A
:20082000000102030405060708090A0BFFFFFFFF020B5B02199BFFFFFFFFFFFFFFFFFFFF66
:20084000FFFFFFFFFFFFFFFFFFFFFFFFFFFFFFFFFFFFFFFFFFFFFFFFFFFFFF021DA9FFFFED
:20086000FFFFFFFFFFFFFFFFFFFFFFFFFFFFFFFFFFFFFFFFFFFFFFFFFFFFFFFFFFFFFFFF98
:20088000FFFFFF021A0EFFFFFFFFFFFFFFFFFFFFFFFFFFFFFFFFFFFFFFFFFFFFFFFFFFFF4B
:2008A000FFFFFFFFFFFFFFFFFFFFFFFFFFFFFFFFFFFFFF021807FF0000B400002800280027
:2008C000283075A000A000A000A00000080008E001F000100010001000100010001000503A
:2008E000005000500010001000D0070000000000000F00010005003075070010000100810E
:20090000FF00000000FFB61FD41FBC1FFF02020208025000A0000000E80302DCB1010000BC
:20092000CEB102E0B10100009B0802E6B1010000B90202E0B10100009C0802E8B1010000D8
:20094000CF0202E0B10100009D0802EAB1010000D10202E0B10100009E0802ECB10800003B
:20096000D20202E0B10100009F08020AB2010000A008FF0100FF2002DCB1010000D7B102C8
:20098000E0B1010000040902F0B1000000000002E4B10300001F03382538253825382538AD
:2009A000253825382538253825382538253825382584279C277E27FF020202020202020208
:2009C00002010D000000100102DCB1010000D4B102E0B101000046090206B20100005907E3
:2009E00002E0B101000047090204B2010000F2B102E0B101000048090202B2010000F6B174
:200A000002E0B101000049090200B2010000C7B002E0B10100004A0902FEB10100000CB26D
:200A200002E0B10100004B0902FCB101000011B102E0B10100004C0902FAB101000070B0A5
:200A400002E0B10100004D0902F8B101000041B102E0B10100004E0902F4B10100004F0923
:200A60001C02DCB1010000D1B102E0B1010000EE091030B00200008A0702E4B10300008C14
:200A80000702E2B10100004FB102E0B1010000EE091040B00200008B0702E4B1030000926E
:200AA0000702E2B10100005CB1FFFFFF000801010003020106000000000000000000000079
:200AC0000000000000000000000000000000000000FFFF0110002000E803E5C754F84405BB
:200AE000F5C779012200000080FB120ADAB90003020B45E479427808B800028004F709D8EA
:200B0000FCE4794A7802B800028004F709D8FCE490028078C579068002F0A3D8FCD9FA7ABE
:200B2000447B089008B6782579038015E493A3AD82AE838A828B83F0A3AA82AB838D828ED4
:200B400083D8E9D9E77582A87583FF7405120B6D7582E575830A7400120B6D75D0007581E1
:200B60007F754080754102759F00020AEAC09FF59FE473D09F22D083D082C09FE493C0E009
:200B8000740193C0E0740293F59F22E066701008A3E066700A08A3E066700408A3E0662245
:200BA000E4936670130874019366700C08740293667005087403936622C3E7960809E7968F
:200BC0000809E7960809E79622C3E09608A3E09608A3E09608A3E09622C021C3E096F521E9
:200BE00008A3E096422108A3E096422108A3E09645217001D3D02122C3E49396087401932F
:200C0000960874029396087403939622080808EAC0E0EBC0E086F0E7A4FA180986F0E7A483
:200C20002AFA180986F0E7A42AFA180986F0E7A42AFA1986F0E7A4FBE5F02AFA190886F05F
:200C4000E7A42BFBE5F03AFA190886F0E7A42BFBE5F03AFA18180986F0E7A4C5F02BFBE490
:200C60003AFA1908E7C5F0C6A426F6E5F03BFBE43AFA1886F0E7A4F6E5F00826F6E43B08AB
:200C8000F6E43A08F6D0E0FBD0E0FA226016080808C6C313C618C613C618C613C618C6137C
:200CA000C6D5E0EA227009080808226016181818C6C333C608C633C608C633C608C633C665
:200CC000D5E0EA22E627F60809E637F60809E637F60809E637F622E026F608A3E036F60807
:200CE000A3E036F608A3E036F622E026F008A3E036F008A3E036F008A3E036F022C3E69701
:200D0000F60809E697F60809E697F60809E697F622C3E096F008A3E096F008A3E096F008DC
:200D2000A3E096F022E657F60809E657F60809E657F60809E657F622E056F608A3E056F664
:200D400008A3E056F608A3E056F622E056F008A3E056F008A3E056F008A3E056F022E0F632
:200D600008A3E0F608A3E0F608A3E0F622E6F008A3E6F008A3E6F008A3E6F022E0FAA3E0F6
:200D8000FBA3E0FCA3E0FD22EAF0A3EBF0A3ECF0A3EDF022E0F8A3E0F9A3E0FAA3E0FB224D
:200DA000E8F0A3E9F0A3EAF0A3EBF022CAC0E0E6F0A308DAFAD0E0FA22CAC0E0E0A3C58203
:200DC000CCC582C583CDC583F0A3C582CCC582C583CDC583DAE6D0E0CA22C3E498F8E49949
:200DE000F9120E1B8026C3E49AFAE49BFBE920E7E9120E1BE498F8E499F922C3E498F8E429
:200E000099F9120E1BE498F8E499F9C3E49AFAE49BFB22EB20E7CFE920E7E0B90010BB002F
:200E200008E88AF084F8AAF022E4FBC8FA22EB70227B10C833C8C933C9335007C39AC3DB38
:200E4000F280069A50012ADBEAC833F4C8C933F4C9FA2275F008E4C833C8C933C933C99A45
:200E6000C99B5004C92AC93BD5F0ECFBC833F4C8E4C9FA22600D08C6A2E713C618C613C643
:200E8000D5E0F322600C08C6C313C618C613C6D5E0F422700422600D18C6C333C608C63392
:200EA000C6D5E0F41822254010AF08F540400C15418008F54040021541D2AF2200C0D025D9
:200EC0004010AF08F540500C05418008F54050020541D2AFD0D0222540F58210AF08F540C4
:200EE000400C15418008F54040021541D2AF854183222540F582E43541F583222540FCE4FA
:200F00003541FD22E4732540C582C0E0E54134FFC583C0E0E540C3958224F810AF0885836E
:200F2000418582408008858341858240D2AFCEF0A3E520F0A37821E608F0A3DEFAEFF0A323
:200F4000E58124FAF8E608F0A3E608F0A3E608F0A30808E608F0A3E608F0A315811581D084
:200F6000E0FED0E0F8158115811581E8C0E0EEC0E0222540C582C0E0E54134FFC583C0E064
:200F8000E540C3958224F910AF088583418582408008858341858240D2AFCEF0A3E520F0EF
:200FA000A37821E608F0A3DEFAEFF0A3E58124FBF8E608F0A3E608F0A30808E608F0A3E624
:200FC00008F0A315811581D0E0FED0E0F815811581E8C0E0EEC0E022854183854082E0A37D
:200FE000FEE0A3F5207821E0A3F608DFFAE0A3FFE0A3C0E0E0A3C0E0E0A3C0E0E0A3C0E05A
:20100000E0A3C0E010AF088582408583418008858240858341D2AFD083D082020B738541D2
:2010200083854082E0A3FEE0A3F5207821E0A3F608DFFAE0A3FFE0A3C0E0E0A3C0E0E0A38F
:20104000C0E0E0A3C0E010AF088582408583418008858240858341D2AFD083D0822274049E
:201060008006740280027401C0E0F404120ED7D0E0120DAC227404800474028000CCC0E0F3
:20108000EDC0E0E540C39CCCAD4150011D10AF068C408D4180068C408D41D2AF120DB9D06F
:2010A000E0FDD0E0FC22D083D082E9C0E0E493A3C386F0C5F095F0F908E493A386F0C5F084
:2010C00095F0700BE493A3C3994005E9048002A3E475F002A42582F582E5F03583F583D061
:2010E000E0F9E493A3C0E0E493C0E022D083D082ECC0E0EDC0E0E493A3FCE493A3FDED4C00
:20110000600D121138EC24FFFCED34FFFD80EFE493A3FCE493A3FDED4C600D121177EC24F3
:20112000FFFCED34FFFD80EFD0E0FDD0E0FCE493A3C0E0E493C0E022C0E0C3E493960874F0
:2011400001939618400FE49366700808740193661870007019A3A3C3E49396087401939666
:2011600018A3A3400DD0E0D0E0D0E0021128A3A3A3A3A3A3D0E022C0E0C0F088F0E4936630
:2011800070080874019366187000A8F0A3A3700BD0F0D0E0D0E0D0E0021128A3A3D0F0D09F
:2011A000E022D083D082ECC0E0EDC0E0EEC0E0EFC0E0E493A3FCE493A3FDE493A3FEE49396
:2011C000A3FFEF4E4D4C601512121EEC24FFFCED34FFFDEE34FFFEEF34FFFF80E5E493A3F9
:2011E000FCE493A3FDE493A3FEE493A3FFEF4E4D4C601512125BEC24FFFCED34FFFDEE3497
:20120000FFFEEF34FFFF80E5D0E0FFD0E0FED0E0FDD0E0FCE493A3C0E0E493C0E022C0E002
:20122000C0F088F0120BF8A8F04007120BA0A8F0701AA3A3A3A3120BF8A8F0A3A3A3A340AE
:2012400013D0F0D0E0D0E0D0E0021208A3A3A3A3A3A3A3A3A3A3D0F0D0E022C0E0C0F088C7
:20126000F0120BA0A8F0A3A3A3A3700BD0F0D0E0D0E0D0E0021208A3A3D0F0D0E022FFFF60
:2012800074F5120F72EAFEEBFFEE2434F8EF3400F988218922EE2435F582EF3400F583E099
:2012A000F8EE2437F582EF3400F583E0F523EC8523F0A4FCAAF08523F0EDA42AFDE82CF8C9
:2012C000E43DF97A257B00120E1BEA852182852283F0F8740758F97401B900028004C33305
:2012E000D9FCFAE8131313541FF8EE28F8EF3400F9E8245DF582E93400F583E05A6008EE64
:201300002434F582EF802CEE2434F582EF3400F583E0C0E0EE2436F582EF3400F583E0F55C
:20132000F0D0E084A8F0EE28F8EF3400F9E82438F582E93400F583E0F97F0402101E74F582
:20134000120F72EAFEEBFFEE2434F582EF3400F583E0C0E0EE2435F582EF3400F583D0E047
:20136000F08E828F83A3A3A3A3A3A3A3C082C0838E828F83A3A3A3A3A3E0F8A3E0F9D08369
:20138000D082E0C398F521A3E099F522EE247FF582EF3400F583E064017069EE2480F582AD
:2013A000EF3400F583E0F8A3E0F98E828F83A3A3A3A3A3A3A3E0FCA3E0FD8E828F83A3A3E3
:2013C000A3A3A3E0FAA3E0FBC3EA9CEB9D5010C3EC98ED99402EC3EA98EB995027800EC3CF
:2013E000EA98EB994007C3EC98ED9940177CE27D04EEFAEFFB122496EE247FF582EF3400D4
:20140000F583E4F0EE2434F8EF3400F9E8FCE9FDEE2435F582EF3400F583E0F8EE2437F5ED
:2014200082EF3400F583E0F523E5218523F0A4F521AAF08523F0E522A42AF522E82521F8FB
:20144000E43522F97A257B00120E1BEA8C828D83F0F8740758F97401B900028004C333D9C4
:20146000FCFAE8131313541FF8EE28F8EF3400F9E8245DF582E93400F583E05A6008EE2497
:2014800034F582EF802CEE2434F582EF3400F583E0C0E0EE2436F582EF3400F583E0F5F00F
:2014A000D0E084A8F0EE28F8EF3400F9E82438F582E93400F583E0F9121D95021339C082B9
:2014C000C083854082854183E0F8A3E0F9C3EA9CEB9D5010C3EC98ED99401BC3EA98EB99C3
:2014E0005014800EC3EA98EB994007C3EC98ED994004790180027900D083D08222EAC39C54
:20150000FAEB9DFB2274EF120F729003A8E064086005E06407702A9061C8E060249003D6DF
:20152000E0F4601DE0F875F003A4C8AAF02AF974D828FE740339FF8E828F83A3A3A3E07075
:2015400003021635906060E0C0E0EE2468F582EF3400F583D0E0F075254B75260575210024
:20156000752200E5D914F523E5D95403F527601774036527605CE5236010EE2467F582EF2C
:201580003400F583E0700302161A900546E06401602AEE2482F582EF3400F583E06004780E
:2015A0000480027800852321E521C398FA95E0FB1223648A218B22EA4522700512267680B4
:2015C00074EE2482F582EF3400F583E070048A258B26E5236012852582852683F524E5D992
:2015E000F0A31524E52470F6EE2482F582EF3400F583E0604474FC2523F523782512106295
:20160000AC23A927EEFAEFFB1225327402120EBCE97026AA21AB221229C4793D8E828F83B0
:20162000A3A3A3A3E0FA7B0012223EEEFAEFFB1224AE12254479008074740365276056857B
:201640002329752A007829121062AC25AD26AA21AB2212250E7402120EBCEE2468F582EFC7
:201660003400F583E064807004747F8001E0F5257825121066E527F5257825121066A923DC
:20168000AC21AD229003D6E0FA7B001222087402120EBC80139003A8E06408600BAC25AD5F
:2016A00026EEFAEFFB12259E12268279017F0A02101E74F5120F7274FC120EA6EAFEEBFF6C
:2016C0008921A2AFE433F522C2AF806AEE2463F8EF3400F97A007B00A2AFE433F523C2AF17
:2016E00088828983E0FCA3E0FDEC4D603A88828983E0FAA3E0FB8A828B83E0FCA3E0FD8839
:20170000828983ECF0A3EDF08A828B83E4F0A3F088828983E0FCA3E0FDEC4D700A888289A6
:2017200083A3A3E4F0A3F0E523A2E092AF1229C49004E9E004F0EE2463F582EF3400F583D7
:20174000E0F8A3E0F9E849603DEE2463F582EF3400F583E02402FAA3E03400FBEA2402F529
:2017600023EB3400F52478231210628A828B83E0FCA3E0F9EEFAEFFB1224D27402120EBC51
:20178000E970030216CC9004E9E060639004EAE0F89004E9E0C398500C7402652170509033
:2017A00004EBE0604A8E828F83A3A3A3A3E0854082854183F0A3E4F09004E9E0F87402124E
:2017C0000EF2E8F0A3E4F09004E9E0F89004E8E028F07402120EF2AC82AD838540828541FE
:2017E00083AA82AB83790112220E9004E9E4F0E522A2E092AF7404120EBC021339FFFFFF96
:201800008542878543C622C0E0C0D0E8C0E0E9C0E0EAC0E0EBC0E0ECC0E0EDC0E0EEC0E0CD
:20182000C021C022C023C024C082C083C0F0A2AFE433FEC2AF759B00906182E0A2E05012CB
:20184000E591A2E0500C7591FE740165427003121505E0A2E55051E591A2E5504B7591DFF0
:201860009003A8E064076005E06408702374016542703579019003D6E0FA75F003A4CAA8A2
:20188000F028FB74D82AFA74033BFB1216B28018E0640D70139003CAE004F064287002E4BF
:2018A000F07A00E0F9122688906182E0A2E6400302194EE591A2E6400302194E7591BF909F
:2018C00003A8E0640570081225C81225D480031225CE754200122628E99003A9F079001253
:2018E000261C1224067A017B009003A7E0F91228A4907803E06442705590054AE014F070FA
:201900004DC2AF12190600784BD0E0F618D0E0F6E59F540770057522FF800375227FC4C0AA
:20192000E0784AE6F52108E65522F522740B7821120E84D0E02521F8906270E0A2E740F8E0
:20194000E8C333906272F0906270E0D2E0F0906181E0A2E35009E5E9A2E3500375E9F7A3A3
:20196000E0A2E75009E591A2E7500375917FEEA2E092AFD0F0D083D082D024D023D022D00F
:2019800021D0E0FED0E0FDD0E0FCD0E0FBD0E0FAD0E0F9D0E0F8D0D0D0E032C0E0C0D0C007
:2019A00082C083906183E0A2E05009E5BFA2E0500375BFFEE0A2E15009E5BFA2E1500375DD
:2019C000BFFDE0A2E25009E5BFA2E2500375BFFBE0A2E35009E5BFA2E3500375BFF7E0A2FD
:2019E000E45009E5BFA2E4500375BFEFE0A2E55009E5BFA2E5500375BFDFE0A2E65009E513
:201A0000BFA2E6500375BFBFD083D0828088C0E0C0D0E8C0E0E9C0E0EAC0E0EBC0E0ECC08A
:201A2000E0EDC0E0C0F0E5A7A2E6500FE5A1A2E6500953A7BF75A1BF121A73E5A7A2E5501F
:201A40000CE5A1A2E5500653A7DF75A1DFE5A7A2E15009E5A1A2E1500375A1FDE5A7A2E262
:201A6000500CE5A1A2E2500653A7FB75A1FBD0F002198474F8120F727542019003A8E0640F
:201A80000670151225628A828B83A3A3A3A3A3A3E0FAA3E0FB1225B6A2AFE433FED2AF907A
:201AA00003AEE0640170187A207B009003A7E0F91229167A207B009003A7E0F91228AA9093
:201AC0006182E0D2E6F0900547E0602185C64380169003ADE064017008E5C654F84405F508
:201AE000C653BEFC1218007401654260E4EEA2E092AF7F0102101EFF8E448F4585824985AE
:201B00008348854082854183E0CEA3E0CF854982854883EBC9EAC8EDCBECCA75F010C3E8D6
:201B200033C8E933C9EA33CAEB33CBC3EA9EF547EB9FF546B35004AB46AA47EC33CCED33B5
:201B4000CDD5F0DAAE44AF452274ED120F728A218B228C238D247413120EF27825120D5EB2
:201B600078217925120BB9752901752AC8752B00752C00501278217925120CFD7829792122
:201B8000120BB95016801078257921120CFD78297925120BB940047901800279007F0C02CC
:201BA000101E74ED120F728A218B228C238D247413120EF27825120D5E78257921120BB98B
:201BC000401178217925120CFDAA21AB22AC23AD248022752900752A00752B00752C017891
:201BE000297925120CFD78297921120CC4AA29AB2AAC2BAD2C80A68A828B837521FF752222
:201C0000FF7523FF7524007821120D4B7F0402101E74F5120F728C828D837821120D5E8A25
:201C2000828B837821120D11EA2404F8EB3400F98C828D83A3A3A3A3E0FCA3E0FD88828990
:201C400083C3E09CF0A3E09DF088828983C3E09420A3E0944E40268A828B837521FF752244
:201C6000FF7523FF7524FF7821120CEA8A828B83A3A3A3A3E02420F0A3E0344EF0021BF7D2
:201C800074F5120F72E9FE9004FDE0FAA3E0FBEEC333F8E433F9743128F58274B139F58372
:201CA000E02AF521A3E03BF52278211210627A407B427C0F7D00121AF87402120EBC8A2172
:201CC0008B228C238D2474107821120C8CAA21AB227F0402101E74F1120F728A258B268C01
:201CE000278D28740F120EF2E0FAA3E0FB7411120EF2E0F521A3E0F5227821121062EA24C9
:201D000001F521EB3400F522E4F523F52478257921120C0C75217175220278257921120C0B
:201D20000CAA25AB26AC27AD28121AF87402120EBC8B22EA452260047A0180027A00EC2AEA
:201D4000FCED3400FD7413120EF2E0F8A3E0F9E8FEE9FFECF8EDF97A717B02120E1B882198
:201D600089228E828F837821120D6DECF8EDF97A717B02120E1B8A218B2274057821120E7A
:201D8000938E828F83A3A3A3A3E521F0A3E522F07F0802101EC082C083E9906000F0D0831A
:201DA000D08222C2AF02000022C0E0C0D0E8C0E0E9C0E0E5A8D2AFC2C7A2E7A2E792AFD01F
:201DC000E0F9D0E0F8D0D0D0E032120B76473F00120B76BE3F00120B76F8FF05120B76FD38
:201DE000FF05120B7670D507120B7687D507120B76B8D507120B76F3D507120B761DD607F4
:201E0000120B7647D607120B765ED607120B7675D607120B768CD607120B76B5D607120B1A
:201E200076C8D607120B76DED607120B76F1D607120B762E8B07120B76328C07120B766A30
:201E40008C07120B768D8C07120B76988C07120B76BB8C07120B76CA8D07120B769F8E07E5
:201E6000120B761A8F07120B76A28F07120B76DD8F07120B76149007120B76A29007120B27
:201E8000767B9107120B76DB9107120B76E69107120B76659207120B76689207120B766B7F
:201EA0009207120B76FA9207120B76FD9207120B762D9307120B76579307120B76459407E9
:201EC000120B76F79407120B769AB207120B76C2B207120B76F0B207120B7627B307120B1C
:201EE0007685B307120B76D0B307120B761BB407120B765BB407120B76A1B407120B76CFAD
:201F0000B407120B768CB507120B7696B507120B76A3B507120B76D6B507120B76A2B6073D
:201F2000120B76AEB607120B76C6B607120B76D0B607120B76B7DD07120B76CFDD07120BDC
:201F400076E7DD07120B764EE006120B762AE106120B768EE206120B76E5E206120B766673
:201F6000E306120B7656E406120B76A3E406120B7629E506120B765BE506120B766FE70616
:201F8000120B76B1E706120B76CFE706120B7652E806120B7626E906120B76EEE906120BB9
:201FA00076689507120B763B9607120B76E49607120B76379707120B76E79707120B7673A2
:201FC0009807120B765F9907120B768E9907120B76A19A07120B76E99A07120B76BE9B072A
:201FE000120B76FA9B07120B76169C07120B76E4BF07120B760AC007120B7626C107120B27
:202000007630C107120B7665C207120B765DC307120B7687A807120B76B7A907120B76EA97
:20202000A907120B7634AA07120B76FBAB07120B76659006120B76CF9006120B762E920659
:20204000120B763E9206120B766B9206120B76C79206120B76CE9306120B76989406120BB3
:2020600076F89506120B76419606120B768E9606120B76B49606120B76C29806120B76C7FA
:202080009806120B76CC9A06120B76199B06120B768C9B06120B76BF9B06120B76619C060D
:2020A000120B760A9D06120B76429D06120B76459D06120B768D9D06120B76CD9D06120B0A
:2020C0007658CC07120B7670CC07120B76B8CC07120B76CECC07120B7615CD07120B7629FF
:2020E000CE07120B76B6CE07120B760EB205120B7649B205120B768EB205120B764EB30591
:20210000120B76D4B305120B7639B405120B7665B405120B769EB405120B76DCB605120B39
:2021200076C0B805120B76A6BA05120B76E9BB05120B7637BE05120B7649BF05120B769424
:20214000C005120B76A4C105120B76C1C105120B76FCC105120B761EC205120B7681C205FB
:20216000120B7642C705120B76D7C705120B7629C805120B7647C805120B76A1C805120B3A
:2021800076A0C905120B7624CA05120B76AEAD07120B76B8AD07120B76FBAD07120B7616F6
:2021A000AE07120B76A6AE07120B76CEAE07120B760BAF07120B7642AF07120B766BAF07D3
:2021C000120B76E0AF07120B76F5AF07120B760AB007120B764BB007120B7685B007120BC3
:2021E00076B1B007120B76DFB007120B762AB107120B76D4B107120B761DB207120B764701
:20220000B207120B7672B207120B76CAFE06120B7630C706120B767EC806120B765EC906B7
:20222000120B767DC906120B76FAC906120B763DCA06120B7693CB06120B7654CC06120BF6
:2022400076DBCE06120B767CCF06120B7672D006120B766FD106120B76C9D206120B7654A6
:20226000D306120B765ADA07120B76C3DA07120B7617DB07120B763EDB07120B766FDB075D
:20228000120B7657B707120B76C4B707120B760BB807120B7623B907120B761FBA07120B1E
:2022A0007602BB07120B76DFF605120B7621F705120B76F3F705120B76CCF805120B76C690
:2022C000F905120B76A8FA05120B7611FB05120B76C7FB05120B763BFC05120B76A7FC05BE
:2022E000120B76D0FC05120B764AFD05120B76E3FD05120B7648FE05120B765DFE05120B35
:2023000076A3FE05120B76BCFE05120B7621FF05120B7624FF05120B7685C907120B76ADB4
:20232000C907120B76EBC907120B76A9CA07120B7610CB07120B762CCB07120B7654CB07B3
:20234000120B7684CB07120B7693CB07120B7610CC07120B76008006120B76DE8106120BF8
:2023600076108406120B764C8406120B76798406120B76638506120B76AE8506120B76F975
:202380008506120B762E8606120B767C8606120B76AB8606120B76CE8606120B761B8706D8
:2023A000120B76A08706120B76BA8906120B76F98B06120B763A8C06120B76DC8D06120BE6
:2023C000761D8E06120B76908E06120B76DC8E06120B768A8F06120B7616BA06120B76145A
:2023E000BB06120B76ADC106120B76CEC306120B7699C506120B7601C706120B768BCA05A6
:20240000120B763ACB05120B7680CB05120B76B6CC05120B7613CD05120B7641CD05120BE7
:2024200076D7CE05120B7651CF05120B76CCCF05120B7626D105120B7686D205120B768CF3
:20244000D305120B76EDD405120B7606D505120B7664D505120B7652D605120B7685D60554
:20246000120B76F5D605120B766FD705120B76B9D705120B7683D805120B7658D905120B1A
:202480007637DA05120B76C2DA05120B7630DB05120B76A4DB05120B76CFDB05120B768E5F
:2024A000DC05120B76F3DD05120B7610DE05120B762FDE05120B7620DF05120B7645DF0555
:2024C000120B766FDF05120B76EADF05120B7644E005120B76ADE105120B765BE205120BE1
:2024E000769CE205120B76BA9E06120B76089F06120B76149F06120B76F29F06120B762386
:20250000A006120B7654A006120B76D4A006120B760CA106120B765EA106120B769BA106C8
:20252000120B76B8A306120B76DEA506120B76C9A706120B76B3A906120B76FAFF06120BDE
:2025400076CCE205120B76FCE205120B76D5E905120B765AEB05120B7657F105120B763FF7
:20256000F205120B767CF205120B769FF205120B76D0F205120B76D9F205120B76E3F2050B
:20258000120B76D1F305120B76C7F405120B76382A00120B76372E00120B763D2E00120B84
:2025A00076783500120B76913A00120B7667C307120B7661C407120B76D5C407120B76133E
:2025C000C507120B7687C507120B7600C607120B7609C607120B7615C607120B762AC60781
:2025E000120B7668C607120B767EC607120B76AEC607120B76BBC607120B76D5C607120BBA
:202600007614C707120B7652C707120B76B7C707120B76CCC707120B76D7C707120B76E4BB
:20262000C707120B76FBC707120B7609C807120B7614C807120B7620C807120B762FC8077C
:20264000120B763AC807120B7657C807120B7667C807120B767DC807120B7699C807120B65
:2026600076A4C807120B76B9C807120B76CDC807120B762EC907120B7634C907120B763A32
:20268000C907120B7640C907120B7652C907120B7693AC06120B761FAD06120B767EAE0610
:2026A000120B769FB006120B768BB106120B76C0B106120B76E2B106120B7691B206120B2E
:2026C0007689B406120B76B2B406120B7644B506120B7676B506120B7683B506120B76DAAE
:2026E000B506120B7600B606120B766DB806120B7670B906120B76C8B906120B7630EC0681
:20270000120B763AEC06120B765CEC06120B7668EC06120B7601EE06120B7630EE06120BD0
:20272000764CEF06120B76A5EF06120B7619F106120B7686F106120B76C1F106120B760024
:20274000F206120B76B9F406120B76D3F406120B765FF506120B766DF506120B76C6F5069F
:20276000120B76D4F506120B7647F606120B76ABF606120B76F5F606120B76008007120B2C
:2027800076228007120B76488207120B765D8507120B76758607120B76288707120B760ABF
:2027A0008807120B7618D707120B763DD707120B76AFD707120B767EF706120B7687F7060E
:2027C000120B7690F706120B7667F806120B7618FA06120B764EFA06120B7688FA06120B1D
:2027E00076BEFA06120B76F8FA06120B762CFB06120B7658FB06120B76A1FB06120B76DBCB
:20280000FB06120B7624FC06120B767CFC06120B76B1FC06120B760CFD06120B7646FD0629
:20282000120B7697FD06120B76CDFD06120B7607FE06120B762AFE06120B7685DF07120B8E
:20284000768FDF07120B769FDF07120B761AA307120B7624A307120B7662A307120B76ABE0
:20286000A307120B76E5A307120B763BA407120B765CA407120B7665A407120B76B0A407E8
:20288000120B76D9A407120B76E3A407120B764FA507120B76E5A507120B762FA607120BC2
:2028A000765FA607120B76E8A607120B7628A707120B7660A707120B7672A707120B768E90
:2028C000A707120B7697A707120B765DA807120B7680DE07120B76B9DC07120B7681D307BE
:2028E000120B76B7D307120B76EDD307120B7636D507120B76C4BB07120B76D9BB07120B51
:20290000768CBC07120B76CCBC07120B76E5BC07120B7619BD07120B7666BD07120B769A3B
:20292000BD07120B76DCBD07120B761EDF07120B7630DF07120B76E0CE07120B7605CF07AA
:20294000120B76D7DE07120B76E3FF06120B76EEFF06120B76C7DF07120B7648FF05120BEB
:202960007658FF05120B7661FF05120B76A5FF05120B76B5DB07120B763ADC07120B76A044
:20298000DC07120B768B9C07120B76C89C07120B76E49C07120B76AC9D07120B76919E07CF
:2029A000120B76F09F07120B765CA007120B7642A107120B76C9A107120B76D6A207120BA8
:2029C00076BDD807120B760DD907120B7696D907120B76FCD907120B7644D107120B766E3D
:2029E000D107120B7634D207120B760FD307120B76D5D306120B7677D706120B76D1D7067A
:202A0000120B76F0D706120B764DD806120B76BBD906120B76A6DA06120B76D4DE06120BEA
:202A2000769EDF06120B7659DF07120B76A9DF07FFFFFFFFFFFFFFFF74F4120F0690780317
:202A4000E06442705590054AE014F0704DC2AF122A5200784BD0E0F618D0E0F6E59F5407A6
:202A600070057522FF800375227FC4C0E0784AE6F52108E65522F522740B7821120E84D088
:202A8000E02521F8906270E0A2E740F8E8C333906272F0906270E0D2E0F09003D6E0F47052
:202AA00003022E32E0F875F003A4C8AAF02AF974D828FE740339FFEE2401F582EF3401F584
:202AC00083E0F8A3E0F9E849601EEE2401F582EF3401F583E0FAA3E0FBEE2400F582EF3446
:202AE00001F583E0F91228A48E828F83A3A3A3A3A3A3A3E0F8A3E0F98E828F83A3A3A3A30D
:202B0000A3E8F0A3E9F0906054E09003AFF0906055E09003B0F0906056E09003B1F09060C6
:202B200057E09003B2F0906058E09003B3F0906059E09003B4F090605AE09003B5F0906019
:202B40005BE09003B6F090605CE0FC9003B7F090605DE0FB9003B8F090605EE0FD9003B9C5
:202B6000F090605FE0FA9003BAF09003B5E08C212521F8E43400F98D21E82521F8E93400EA
:202B8000F98B21E82521F8E93400F98A21E82521FAE93400FBEE24F6F582EF3400F583E06F
:202BA0002AF0A3E03BF08C21EE24F8F582EF3400F583E02521F0A3E03400F0EE24FAF58244
:202BC000EF3400F583E02401F0A3E03400F0EE24FEF582EF3400F583E0F8A3E0F9E84960B7
:202BE00042906000E0C333FCE433FDE82CF582E93DF583E02AF0A3E03BF0906000E0FA9092
:202C000003B7E0FCEAC333FAE433FBE82AF8E93BF9E8244AF582E93400F583E02CF0A3E02A
:202C20003400F09003B5E070119003B8E0700BA3E07007A3E07003022D2F8E828F83A3A36B
:202C4000A3A3A3E0F8A3E0F9EE240DF582EF3400F583E028F8A3E039F9EE240BF582EF349A
:202C600000F583E8F0A3E9F0EE240FF582EF3400F583E4F0EE241CF582EF3400F583E064FD
:202C800001701EEE2420F582EF3400F583E0F8A3E0F9EE241DF582EF3400F583E8F0A3E968
:202CA000F09003B0E06052EE241CF582EF3400F5837401F0EE2469F582EF3400F583E070CD
:202CC00038EE2473F582EF3400F583E0702BEE247FF582EF3400F583E0701EEE2420F582F0
:202CE000EF3400F583E0F8A3E0F9EE241DF582EF3400F583E8F0A3E9F0906062E0700302A9
:202D00002DE28E828F83E0F8A3E0F9E82406FCE93400FDE82402FAE93400FB1225DA8E82C5
:202D20008F83E0F8A3E0C82412F582E8022DE89003B7E0603AEE240FF582EF3400F583E4D7
:202D4000F0EE241CF582EF3400F583E064017040EE2420F582EF3400F583E0F8A3E0F9EEC8
:202D6000241DF582EF3400F583E8F0A3E98020EE24FCF582EF3400F583E02401F0A3E03430
:202D800000F0EE241DF582EF3400F583E4F0A3F0EE240BF582EF3400F583E0F8A3E0F98E8A
:202DA000828F83A3A3A3A3A3E0687003A3E0696003022CA1EE240FF582EF3400F583E06004
:202DC000128E828F83A3A3A3A3A3E064057002A3E0600479088002793EEEFAEFFB1224B478
:202DE0008050EE241DF582EF3400F583E4F0A3F09061C8E06006121505E970F48E828F83C1
:202E0000A3A3A3E0602C9061C8E070069060607480F0EEFAEFFB1225A4E964016014790230
:202E2000EEFAEFFB1216B2122598E9640160031225447F04020FD853BFEF020B7374EC128C
:202E40000F069003D6E0F875F003A4C8AAF02AF974D828FE740339FF9061D0E07013EE2434
:202E600063F582EF3400F583E0F8A3E0F9E849600FEE241DF582EF3400F583E4F0A380535E
:202E8000EE2469F582EF3400F583E07047EE2473F582EF3400F583E0703AEE247FF582EFF6
:202EA0003400F583E0702DEE241CF582EF3400F583E06401701EEE2420F582EF3400F58392
:202EC000E0F8A3E0F9EE241DF582EF3400F583E8F0A3E9F08E828F83A3A3A3A3A3E0F8A33D
:202EE000E0F9EE241DF582EF3400F583E028F8A3E039F9E8240108E93400F9EE2407F523A7
:202F0000EF3400F524852382F583E8F0A3E9F0EE240BF582EF3400F583C3E098A3E09950A9
:202F2000358E828F83A3A3A3A3A3A3A3C082C083EE240BF582EF3400F583E0F8A3E0F9D0ED
:202F400083D082E0C398F8A3E099F9C3E894AAE994105035803BEE240BF582EF3400F5836F
:202F6000C082C0838E828F83A3A3A3A3A3A3A3E0F8A3E0F9D083D082E0C398F8A3E099F9F4
:202F8000C3E894ABE9941050089004EDE064017030EE241DF582EF3400F583E4F0A3F08EC6
:202FA000828F83A3A3A3A3A3E02401F8A3E03400F98E828F83A3A3A3A3A3A3A3E8F0A3E9A6
:202FC000F0EE2473F582EF3400F583E064016003023238EE2474F582EF3400F58312107923
:202FE0008E828F83A3A3A3A3A3A3A3E0FCA3E0FD8E828F83A3A3A3A3A3E0FAA3E0FB12140F
:20300000BE7402120EBCE97003023238EE2474F8EF3400F9882189228882F583E0F8A3E00D
:20302000F9852382852483E8F0A3E9F0EE2476FCEF3400FDEEFAEFFB1224C0EE247BF5827D
:20304000EF3400F583E0F8A3E0F9EE2420F582EF3400F583E8F0A3E9F0EE241CF582EF3421
:2030600000F583E4F0EE241DF582EF3400F583E4F0A3F0EE240FF582EF3400F5837401F0C4
:20308000852382852483E0F8A3E0F9EE240DF582EF3400F583E028F8A3E039F9EE240BF58E
:2030A00082EF3400F583E8F0A3E9F08E828F83A3A3A3A3A3E0FCA3E0FD852182852283E0C0
:2030C000FAA3E0FB1214FD8A218B22EE242EF582EF3400F583E0FAA3E0FBE4F523F5248AB4
:2030E000258B26F527F52878217925120C0CEE2477F582EF3400F583E0F525A3E0F52678B5
:20310000217925120CC4EE2479F582EF3400F583E06A7003A3E06B7044EE247DF582EF34E9
:2031200000F583E0F8A3E0F9EE2432F582EF3400F583E0687003A3E0697022EE247BF58230
:20314000EF3400F583E0F8A3E0F9EE2430F582EF3400F583E0687003A3E0696052EE247D44
:20316000F582EF3400F583E0F525A3E0F52674047825120E847825121062EE247BF582EFD8
:203180003400F583121079EE2479F582EF3400F583E0FCA3E0C313FDEC13FC8E828F83A359
:2031A000A3A3A3E0FA7B001222447404120EBCEE2476F582EF3400F583E0C0E0EE242BF5B9
:2031C00082EF3400F583D0E0F0EE2479F582EF3400F583E0F8A3E0F9EE242EF582EF340067
:2031E000F583E8F0A3E9F0EE247BF582EF3400F583E0F8A3E0F9EE2430F582EF3400F583BC
:20320000E8F0A3E9F0EE247DF582EF3400F583E0F8A3E0F9EE2432F582EF3400F583E8F037
:20322000A3E9F0EEFAEFFB1224C6EE2473F582EF3400F583E4F08016EE242EF582EF340069
:20324000F583E0F521A3E0F522E4F523F524EE2418F582EF3400F5837821120B8B701EEE58
:20326000241FF582EF3400F583E0F8EE241DF582EF3400F583E0687002A3E06039EE2412E6
:20328000F525EF3400F5267825121062EE2410F582EF3400F583121079EE241DF582EF341D
:2032A00000F583121079AA21AB22AC23AD24121CD67406120EBCEE2418F582EF3400F5832D
:2032C0007821120D6DEE241DF582EF3400F583E0C0E0EE241FF582EF3400F583D0E0F0EE37
:2032E0002412FCEF3400FD8E828F83E02402FAA3E03400FB121C11906062E060147C707D5A
:20330000B18E828F83E02402FAA3E03400FB121C118E828F83E0F8A3E0F988828983A3A317
:20332000E82408FCE93400FD7406120DB98E828F83E02402F8A3E03400F9E8FAE9FBEE2469
:203340001DF582EF3400F583E0F529A3E0F52AE4F52BF52C752501F526F527F52878297970
:2033600025120CC478297921120C0C8A828B837829120CEA8A828B837525FF7526FF752735
:20338000FF7825120D4B9004E7E0640160030234C5790112261C8E828F83E0FAA3E0FB754C
:2033A00021FF7522FF7523FF7524FFEA240EF582EB3400F5837821120D6DEA2412F8EB34A2
:2033C00000F9E8FAE9FBEE2412F582EF3400F5837821120D5EE52175F0E2A4C521A8F075FE
:2033E000F004A428F875F0E2E522A428F5228A828B83E02521F0A3E03522F0EE2416F5824B
:20340000EF3400F583E0F521A3E0F52274047821120E84E5212401F8E5223400F98A828BDE
:2034200083E028F0A3E039F0906062E08E828F837003023539E0F8A3E0C82412F582E83442
:2034400000F583E02410F0A3E03401F0EE240FF582EF3400F583E06032EE242BF582EF34CC
:2034600000F583E0F875F071A4C8AAF075F002A42AF98E828F83E0FAA3E0CA2412F582EA12
:203480003400F583E028F0A3E039F08E828F83E0F8A3E0C82414F582E83400F5837410F0E0
:2034A0008E828F83E0F8A3E0C82416F582E83400F5837448F0A37424F0EEFAEFFB12133E76
:2034C0007900023A8C75255075260075270078257921120BB94003023396EE241DF582EFDA
:2034E0003400F583E0F8A3E0F9E8496003023396782112105EEEFAEFFB1224CC7404120EE8
:20350000BCE964016003023396EE240FF582EF3400F583E060128E828F83A3A3A3A3A3E0BD
:2035200064057002A3E0600479088002793EEEFAEFFB1224B479018089E0F8A3E0C8241277
:20354000F582E83400F583E02410F8A3E034FFF97A717B02120E1B88218922EE242EF582F7
:20356000EF3400F583E0F8A3E0F9C3E52198E52299500302344C80B074EC120F06EAFEEBFC
:20358000FF8C828D83E0F8A3858221858322603B147003023760147003023A5514700302E5
:2035A00037DC24FD70030238F5147003023A8C14700302394C24FE70030238FA1470030286
:2035C000393C1470030239D8023A7BEE2476F529EF3400F52AE0852982852A83F0852182E3
:2035E000852283A3858221858322EE2477F527EF3400F5287902AC21AD22AA27FB1224DED0
:203600008A218B22EE2479F525EF3400F5267902AC21AD22AA25FB1224DE8A218B227902A7
:20362000AC21AD22EE247BFAEF3400FB1224DE8A218B22EE247DF523EF3400F5247902ACD3
:2036400021AD22AA23FB1224DE8A218B22852982852A83E0C333F0852782852883E0F8A345
:20366000E0F9E8C333F8E933F9852782852883E8F0A3E9F0852582852683E0F8A3E0F9E83E
:20368000C333F8E933F9852582852683E8F0A3E9F0852382852483E0F525A3E0F526740413
:2036A0007825120E93852382852483E525F0A3E526F0EE2474F523EF3400F5247902AC21AA
:2036C000AD22AA23FB1224DE852382852483C082C0838E828F83A3A3A3A3A3E0F8A3E0F9BF
:2036E000D083D082E0C398F8A3E099F9C3E894FFE9947F40030237B6EE247DF582EF340048
:20370000F583E0F521A3E0F522E4F523F524EE247BF582EF3400F583E02401F525A3E03417
:2037200000F526E4F527F528EE2479F582EF3400F583E0F8A3E0F9E8C333F8E933F98829C4
:20374000892AE4F52BF52C78257929120C0C78217925120BB94004793B805DEE24738062DF
:20376000EE2480F523EF3400F5247402C0E07905AC21AD227AE27B041224DEEAFCEBFDD0A6
:20378000E0F9AA23AB241224DE852382852483C082C0838E828F83A3A3A3A3A3E0F8A3E019
:2037A000F9D083D082E0C398F8A3E099F9C3E894FFE9947F40097928EEFAEFFB023A76EE8D
:2037C000247FF582EF3400F5837401F0EE241DF582EF3400F583E4F0A3023948EE24E1F5AC
:2037E00082EF3400F583E07039EEF8EFF97ABB7B038A828B83A3E0C0E0E824E2F582E934E3
:2038000000F583D0E0F08A828B83A3AA82AB8388828983A3A882A983EA64C37003EB640394
:2038200070CFEE24E2F582EF3400F583E0A2E0EE401124DDF582EF3400F583741AF0790D8B
:20384000023A4F2462F582EF3400F583E4F0EE2467F582EF3400F583E4F0EE24E0F582EFBA
:203860003400F5837401F07908AC21AD22EE249BFAEF3400FB1224DE8A218B227902AC21A1
:20388000AD22EE24A3FAEF3400FB1224DE8A218B22EE2493F523EF3400F5247908AC21AD2C
:2038A00022AA23FB1224DE8A218B227908AA23AB241224E4EE2487F523EF3400F524790411
:2038C000AC21AD22AA23FB1224DE7904AA23AB241224E4EE248BFAEF3400FB1224F6EE244A
:2038E00083FAEF3400FB1224FC9003AAE04480F07904023A4FEE24DE8045EE2462F582EF93
:203900003400F583E4F0EE2467F582EF3400F583E4F0EE24D2F582EF3400F583E4F0EE24EC
:20392000DCF582EF3400F5837401F0EE24D3F582EF3400F583E4F0790B023A89EE24DFF53A
:2039400082EF3400F5837401F0023A8CEEF8EFF97ABB7B038A828B83A3E0C0E0E824E2F57C
:2039600082E93400F583D0E0F08A828B83A3AA82AB8388828983A3A882A983EA64C37003E6
:20398000EB640370CFEEF8EFF97ABB7B038A828B83A3E0FC852182852283E05CC0E0E82442
:2039A000E2F582E93400F583D0E0F0852182852283A38582218583228A828B83A3AA82AB9E
:2039C0008388828983A3A882A983EA64C37003EB640370B979098077EE24EAF582EF340047
:2039E000F583E064017003023A7B852182852283E0C0E0EE24EDF582EF3400F583D0E0F05D
:203A0000852182852283A38582218583227402C0E0F9AC21AD22EE24EEFAEF3400FB122466
:203A2000DEEAFCEBFDD0E0F9EE24F0FAEF3400FB1224DEEE24EAF582EF3400F5837401F090
:203A4000EE24ECF582EF3400F583E0703F790CEEFAEFFB8034EE24F4F8EF3400F9E08882B8
:203A60008983F0EE24F3F582EF3400F5837401F088828983E0F91224B48011EE24F5F582E6
:203A8000EF3400F583E8F079071224847F0C020FD874F6120F06EAFEEBFF023CD7EEFAEFB6
:203AA000FB122478023F23EE2469F582EF3400F583E06401703E9003B2E07003023DB3EE01
:203AC000FAEFFB12248AEE24A3F521EF3400F5227821121062EE249BFCEF3400FD8E828FB8
:203AE00083A3A3A3A3E0FA7B001222507402120EBC023CD7EEFAEFFB12244E023F23EE24AB
:203B000069F582EF3400F583E0640170559003B2E06031EE2482F582EF3400F5837401F05F
:203B2000EE24D4F582EF3400F583E4F0A3F0A3F0A3F0EE24D8F582EF3400F583E4F0A3F09D
:203B4000A3F0A3F0EE24DEF582EF3400F583E064016003023DB37906EEFAEFFB122490028A
:203B60003CD7EE24D2F582EF3400F583E06401702AEEFAEFFB122454E964016003023F40CF
:203B8000EE24DEF582EF3400F583E4F0EE2469F582EF3400F5837401023F2EEE24D3F58282
:203BA000EF3400F583E07003023F40EE24B2F521EF3400F5227821121062EE248BFCEF34A9
:203BC00000FDEE24C2FAEF3400FB1225027402120EBCEE24D2F582EF3400F5837401023CC8
:203BE0009FEE2469F582EF3400F583E064016003023CA29003B2E07003023DB3EE2420F560
:203C000082EF3400F583E0F8A3E0F9EE241DF582EF3400F583E8F0A3E9F0EEFAEFFB122496
:203C20008AEE2462F582EF3400F5837401F0EE2467F582EF3400F5837401F0EE24DCF582BA
:203C4000EF3400F583E06401701379008E828F83A3A3A3A3E0FA7B0012225C80137C01796C
:203C6000008E828F83A3A3A3A3E0FA7B00122256EE24DCF582EF3400F583E4F0EE24E0F5FC
:203C800082EF3400F583E4F0EE24DFF582EF3400F583E4F0EE24DEF582EF3400F583E4F086
:203CA0008035EEFAEFFB12245A023F23EE2469F582EF3400F583E064016003023D42EE24C1
:203CC000DFF582EF3400F583E064016003023DB3EEFAEFFB12248AEE246EF582EF3400F5B8
:203CE00083E07003023F40EE246AF582EF3400F583E024FE602F24FE7003023AA71470034F
:203D0000023AFE147003023BE1147003023F3124FE7003023DE524FE6092147003023E3205
:203D200014604C80B2EE2469F582EF3400F583E064016003023A9D9003B1E06076791602F8
:203D40003F04EEFAEFFB122460E964016003023F40EE24DFF582EF3400F583E4F0EE24821B
:203D6000F582EF3400F583E4F0EE2469023BD5EE2469F582EF3400F583E06401705D90039E
:203D8000B2E06026EE2482F582EF3400F583E4F0EE2462F582EF3400F5837401F0EE24672D
:203DA000F582EF3400F5837401F09003B1E06003023CD0EE2471F8EF3400F988828983E06A
:203DC00024FFF0A3E034FFF088828983E0F8A3E0F9E8496003023F40023F02EEFAEFFB1284
:203DE0002466023F23EE2469F582EF3400F583E0640170349003B2E060B9EE24E1F582EFC8
:203E00003400F5837401F0EE2420F582EF3400F583E0F8A3E0F9EE241DF582EF3400F583B8
:203E2000E8F0A3E9F0023CD0EEFAEFFB12246C023F23EE2469F582EF3400F583E064016016
:203E400003023F0FEE24EAF582EF3400F583E064017051EE24EBF582EF3400F583E06401A7
:203E60006003023CD0EE24F0F582EF3400F583121079EE24EEF582EF3400F583121079EE87
:203E800024EDF582EF3400F583E0FC8E828F83A3A3A3A3E0FA7B00790012224A7404120E91
:203EA000BC023CD0EE2471F8EF3400F988828983E024FFF0A3E034FFF088828983E0F8A361
:203EC000E0F9E849707AEE24F0F582EF3400F583121079EE24EEF582EF3400F58312107992
:203EE000EE24EDF582EF3400F583E0FC8E828F83A3A3A3A3E0FA7B00792212224A7404122F
:203F00000EBC7922EEFAEFFB1224B479018033EE24ECF582EF3400F5837401F0EEFAEFFB0C
:203F2000122472EE2469F582EF3400F583E9F0800FEEFAEFFB12247EE964017003023CD08F
:203F400079007F02020FD874F7120F06E9900280F090B1B21210757C8F7DB0791F7A077BAB
:203F6000031229EE7404120EBC7CA07D007A067B00121EC67CA07D007A077B00121EC67C30
:203F8000A07D007A087B00121EC67CA07D007A097B00121EC690B1CA120D7C12201690B155
:203FA000CA120D7C1221061229821229347A017B00900280E0F91228A47F01020FD874F6A5
:203FC000120F06EAFEEBFF54806016900280E0F912288CEA4B600312287AEEFAEF64808066
:203FE00011EEA2E0500F7A817B021229F4EE6401FAEFFB80047A007B007F02020FD8FFFF22
:204000003037FFFF0500009442424242FFFFFFFFFFFFFFFFFFFFFFFFFFFFFFFFFFFFFFFFAE
:20402000000102030405060708090A0BFFFFFFFF0243DC0256EFFFFFFFFFFFFFFFFFFFFFE4
:20404000FFFFFFFFFFFFFFFFFFFFFFFFFFFFFFFFFFFFFFFFFFFFFFFFFFFFFF025E4CFFFFD1
:20406000FFFFFF024F5DFFFFFFFFFF025E70FFFFFFFFFF025E23FFFFFFFFFFFFFFFFFFFF56
:20408000FFFFFF025762FFFFFFFFFFFFFFFFFFFFFFFFFFFFFFFFFFFFFFFFFF024E60FFFFCF
:2040A000FFFFFFFFFFFFFFFFFFFFFF024EE5FFFFFFFFFF02555B01026E870100005987024E
:2040C0007287010000988710A985030000880202768703000081020272870100009687104E
:2040E00089850300000000026E870100005C87027287010000998710D98502000000000246
:204100007687030000A2860292870100000000027287010000998710C9850200007F8602D8
:204120007687030000A2860292870100007F860000F15EE55E009001000000A082E0817E12
:2041400081F7831381FD82008059868C834E846E864182488300000300000100000000008B
:204160000000003025613161FF0000B4000028002800283075A000A000A000A0000008009F
:2041800008E001F00010001000100010001000100050005000500010001000D007000000FF
:2041A0000000000F0001000500307507001000010081FF00000000FF696287626F62FF0228
:2041C000020208025000A0000000E803026E870100005387027287010000030D0278870116
:2041E0000000B903027287010000040D029487010000CF03027287010000050D027C8701F2
:204200000000D103027287010000060D027E87080000D203027287010000070D02808701BD
:204220000000080DFF0100FF20026E8701000050870272870100006C0D02828700000000FB
:20424000000276870300001F04B168B168B168B168B168B168B168B168B168B168B168B175
:2042600068B1688D6BA56B876BFF020202020202020202010D0000001001026E870100009B
:204280005F87027287010000AE0D028A87010000B408027287010000AF0D028887010000E7
:2042A0007487027287010000B00D027A870100008E87027287010000B10D02868701000067
:2042C0000885027287010000B20D0284870100009087027287010000B30D026887010000C3
:2042E0000786027287010000B40D0266870100009284027287010000B50D026487010000C2
:204300003286027287010000B60D026287010000B70D01E803053F100AFF00080101000320
:2043200002010600000000000000000000000000000000000000000000000000000000FF75
:20434000FF0110002000E803E5C754F84405F5C779012200000080FB124348B90003024390
:20436000C6E479447815B800028004F709D8FCE479597802B800028004F709D8FCE490027F
:2043800080787C790A8002F0A3D8FCD9FA78439040B67A01BA00028007E493A3F608DAF980
:2043A0007AFB7B0B9040B7789279038015E493A3AD82AE838A828B83F0A3AA82AB838D82D0
:2043C0008E83D8E9D9E775826E7583E474041243EE75825375834374001243EE75D0007559
:2043E000817F754180754202759F00024358C09FF59FE473D09F22D083D082C09FE493C007
:20440000E0740193C0E0740293F59F22E066701008A3E066700A08A3E066700408A3E066CE
:2044200022E4936670130874019366700C08740293667005087403936622C3E7960809E74A
:20444000960809E7960809E796A2D265D03322C3E09608A3E09608A3E09608A3E096A2D29C
:2044600065D03322C021C3E096F52108A3E096422108A3E096422108A3E0964221A2D2651D
:20448000D033E5217001D3D02122C3E7960809E7960809E7960809E79622C3E09608A3E0EC
:2044A0009608A3E09608A3E09622C021C3E096F52108A3E096422108A3E096422108A3E03F
:2044C0009645217001D3D02122C3E49396087401939608740293960874039396220808088A
:2044E000EAC0E0EBC0E086F0E7A4FA180986F0E7A42AFA180986F0E7A42AFA180986F0E7A2
:20450000A42AFA1986F0E7A4FBE5F02AFA190886F0E7A42BFBE5F03AFA190886F0E7A42B27
:20452000FBE5F03AFA18180986F0E7A4C5F02BFBE43AFA1908E7C5F0C6A426F6E5F03BFBFC
:20454000E43AFA1886F0E7A4F6E5F00826F6E43B08F6E43A08F6D0E0FBD0E0FA22E4CFC018
:20456000E0E4CEC0E0E4CDC0E0E4CCC0E075F020E626F608E633F608E633F608E633F61884
:204580001818EC33FCED33FDEE33FEEF33FFC3EC9709ED9709EE9709EF97191919400FFFEA
:2045A000EC97FC09ED97FD09EE97FE191906D5F0BFECF709EDF709EEF709EFF7191919D0E2
:2045C000E0FCD0E0FDD0E0FED0E0FF2212463418181812455D1246231919192212462319CF
:2045E0001919080808E618181820E7E012455D12463418181822090909E719191920E7DC82
:20460000080808E618181820E70302455D12463418181812455D12463418181812462319B6
:20462000191922E4C397F709E497F709E497F709E497F722E4C396F608E496F608E496F63B
:2046400008E496F6226017080808C6A2E713C618C613C618C613C618C613C6D5E0E92260C4
:2046600016080808C6C313C618C613C618C613C618C613C6D5E0EA2270090808082260169B
:20468000181818C6C333C608C633C608C633C608C633C6D5E0EA22E627F60809E637F6080B
:2046A00009E637F60809E637F622E026F608A3E036F608A3E036F608A3E036F622E026F05F
:2046C00008A3E036F008A3E036F008A3E036F022C3E697F60809E697F60809E697F6080956
:2046E000E697F622C3E096F008A3E096F008A3E096F008A3E096F022E657F60809E657F630
:204700000809E657F60809E657F622E056F608A3E056F608A3E056F608A3E056F622E056E6
:20472000F008A3E056F008A3E056F008A3E056F022E647F60809E647F60809E647F6080958
:20474000E647F622E046F008A3E046F008A3E046F008A3E046F022E066F008A3E066F0087A
:20476000A3E066F008A3E066F022E0F608A3E0F608A3E0F608A3E0F622E6F008A3E6F00883
:20478000A3E6F008A3E6F022E0FAA3E0FBA3E0FCA3E0FD22EAF0A3EBF0A3ECF0A3EDF0220B
:2047A000E0FCA3E0FDA3E0FEA3E0FF22ECF0A3EDF0A3EEF0A3EFF022E0F8A3E0F9A3E0FA26
:2047C000A3E0FB22E8F0A3E9F0A3EAF0A3EBF022CAC0E0E6F0A308DAFAD0E0FA22CAC0E0D3
:2047E000E0A3C582CCC582C583CDC583F0A3C582CCC582C583CDC583DAE6D0E0CA22C3E432
:2048000098F8E499F912483F8026C3E49AFAE49BFBE920E7E912483FE498F8E499F922C35D
:20482000E498F8E499F912483FE498F8E499F9C3E49AFAE49BFB22EB20E7CFE920E7E0B9EA
:204840000010BB0008E88AF084F8AAF022E4FBC8FA22EB70227B10C833C8C933C93350070E
:20486000C39AC3DBF280069A50012ADBEAC833F4C8C933F4C9FA2275F008E4C833C8C9334F
:20488000C933C99AC99B5004C92AC93BD5F0ECFBC833F4C8E4C9FA22600D08C6A2E713C641
:2048A00018C613C6D5E0F322600C08C6C313C618C613C6D5E0F422700422600D18C6C33348
:2048C000C608C633C6D5E0F41822254110AF08F541400C15428008F54140021542D2AF2268
:2048E00000C0D0254110AF08F541500C05428008F54150020542D2AFD0D0222541F582109B
:20490000AF08F541400C15428008F54140021542D2AF854283222541F582E43542F58322F1
:204920002541F8E43542F9222541FAE43542FB222541FCE43542FD22E4732541C582C0E04B
:20494000E54234FFC583C0E0E541C3958224F810AF08858342858241800885834285824186
:20496000D2AFCEF0A3E520F0A37821E608F0A3DEFAEFF0A3E58124FAF8E608F0A3E608F06E
:20498000A3E608F0A30808E608F0A3E608F0A315811581D0E0FED0E0F8158115811581E8B5
:2049A000C0E0EEC0E0222541C582C0E0E54234FFC583C0E0E541C3958224F910AF0885832C
:2049C000428582418008858342858241D2AFCEF0A3E520F0A37821E608F0A3DEFAEFF0A345
:2049E000E58124FBF8E608F0A3E608F0A30808E608F0A3E608F0A315811581D0E0FED0E09C
:204A0000F815811581E8C0E0EEC0E022854283854182E0A3FEE0A3F5207821E0A3F608DF96
:204A2000FAE0A3FFE0A3C0E0E0A3C0E0E0A3C0E0E0A3C0E0E0A3C0E010AF08858241858334
:204A4000428008858241858342D2AFD083D0820243F4854283854182E0A3FEE0A3F5207878
:204A600021E0A3F608DFFAE0A3FFE0A3C0E0E0A3C0E0E0A3C0E0E0A3C0E010AF088582419E
:204A80008583428008858241858342D2AFD083D08222C0D02541C582C0E0E54234FFC583EB
:204AA000C0E0E541C3958224F310AF088583428582418008858342858241D2AFC8F0A3E907
:204AC000F0A3EAF0A3EBF0A37921E709F0A3D8FAECF0A3EDF0A3EEF0A3EFF0A3D0E0F0A314
:204AE000D0E0F0A3D0E0F0A3E520F0A3E5F0F0A322854283854182E0C0E0A3E0F9A3E0FA03
:204B0000A3E0FBA37821E0F608A3DFFAE0FCA3E0FDA3E0FEA3E0FFA3E0C0E0A3E0C0E0A339
:204B2000E0F5D0A3E0F520A3E0A3F5F010AF088583428582418008858342858241D2AFD069
:204B400082D083D0E0F8D0E03274048006740280027401C0E0F4041248FBD0E01247D022A3
:204B60007404800474028000CCC0E0EDC0E0E541C39CCCAD4250011D10AF068C418D4280BB
:204B8000068C418D42D2AF1247DDD0E0FDD0E0FC22D083D082C5F0E493A3C5F0C395F0F5DB
:204BA000F0E493A3C395F04005E5F0048001E475F002A42582F582E5F03583F583E493A3D8
:204BC000C0E0E493C0E022D083D082E9C0E0E493A3C386F0C5F095F0F908E493A386F0C5EB
:204BE000F095F0700BE493A3C3994005E9048002A3E475F002A42582F582E5F03583F583E6
:204C0000D0E0F9E493A3C0E0E493C0E022D083D082E9C0E0E493A3C386F0C5F095F0F9083C
:204C2000E493A386F0C5F095F0702408E493A386F0C5F095F0701908E493A386F0C5F095D9
:204C4000F0700E08E493A3C3994007E9048004A3A3A3E475F002A42582F582E5F03583F538
:204C600083D0E0F9E493A3C0E0E493C0E022D083D082CCC0E0E493A36006124C981470FA10
:204C8000E493A36006124CB71470FAD0E0FCE493A3C0E0E493C0E022C0E0E493A3D39C50E9
:204CA00010E493A3C39C400AD0E0D0E0D0E0024C8BA3A3A3D0E022C0E0E493A36C7009D00E
:204CC000E0D0E0D0E0024C8BA3A3D0E022D083D082ECC0E0EDC0E0E493A3FCE493A3FDEDCB
:204CE0004C600D124D19EC24FFFCED34FFFD80EFE493A3FCE493A3FDED4C600D124D58EC76
:204D000024FFFCED34FFFD80EFD0E0FDD0E0FCE493A3C0E0E493C0E022C0E0C3E493960824
:204D20007401939618400FE49366700808740193661870007019A3A3C3E49396087401936C
:204D40009618A3A3400DD0E0D0E0D0E0024D09A3A3A3A3A3A3D0E022C0E0C0F088F0E493C7
:204D60006670080874019366187000A8F0A3A3700BD0F0D0E0D0E0D0E0024D09A3A3D0F0D0
:204D8000D0E022D083D082ECC0E0EDC0E0EEC0E0EFC0E0E493A3FCE493A3FDE493A3FEE43D
:204DA00093A3FFEF4E4D4C6015124DFFEC24FFFCED34FFFDEE34FFFEEF34FFFF80E5E493D1
:204DC000A3FCE493A3FDE493A3FEE493A3FFEF4E4D4C6015124E3CEC24FFFCED34FFFDEEEF
:204DE00034FFFEEF34FFFF80E5D0E0FFD0E0FED0E0FDD0E0FCE493A3C0E0E493C0E022C093
:204E0000E0C0F088F01244C9A8F04007124421A8F0701AA3A3A3A31244C9A8F0A3A3A3A324
:204E20004013D0F0D0E0D0E0D0E0024DE9A3A3A3A3A3A3A3A3A3A3D0F0D0E022C0E0C0F0D7
:204E400088F0124421A8F0A3A3A3A3700BD0F0D0E0D0E0D0E0024DE9A3A3D0F0D0E022FFE5
:204E6000C0E074F0124A92A2AFE433FFD2AFE589F8E5AB58F5236063F4F589C2C59009A1FC
:204E80007401F0754300FA90099EE0F9126D1F7E008E21752200740278211248B7124F58B0
:204EA000C3E89408E99400502BE85407F8E523B800028004C313D8FCA2E050187521007593
:204EC0002201EE78211248B7AA21AB22900280E0F9126CB30EEEC3940440B6EFA2E092AF64
:204EE0007F03024AF1C0E074F0124A92A2AFE433FFD2AFE58AF8E58D58F5236059F4F58AA4
:204F0000C2EB7E008E21752200740278211248B7124F58E82400FAE934FFFBC3EA9408EBF6
:204F20009400502BE85407F8E523B800028004C313D8FCA2E05018752100752201EE782198
:204F40001248B7AA21AB22900280E0F9126CB30EEEC3940440AE8083124FC5F922C0E074EF
:204F6000F0124A92A2AFE433FFD2AFE58BF8E5AC58F523604DF4F58BC2E87E008E21752273
:204F800000740278211248B7124FC5C39402402BE85407F8E523B800028004C313D8FCA23A
:204FA000E05018752100752201EE78211248B7AA21AB22900280E0F9126CB30EEEC39404D8
:204FC00040BA024EDB742B2521F582740B3522F583E0F8A3E02274F51249A6EAFEEBFFEE5B
:204FE0002434F8EF3400F988218922EE2435F582EF3400F583E0F8EE2437F582EF3400F5E8
:2050000083E0F523EC8523F0A4FCAAF08523F0EDA42AFDE82CF8E43DF97A257B0012483F2E
:20502000EA852182852283F0F8740758F97401B900028004C333D9FCFAE8131313541FF87B
:20504000EE28F8EF3400F9E8245DF582E93400F583E05A6008EE2434F582EF802CEE243471
:20506000F582EF3400F583E0C0E0EE2436F582EF3400F583E0F5F0D0E084A8F0EE28F8EFB6
:205080003400F9E82438F582E93400F583E0F97F04024A5274F51249A6EAFEEBFFEE243417
:2050A000F582EF3400F583E0C0E0EE2435F582EF3400F583D0E0F08E828F83A3A3A3A3A314
:2050C000A3A3C082C0838E828F83A3A3A3A3A3E0F8A3E0F9D083D082E0C398F521A3E0994E
:2050E000F522EE247FF582EF3400F583E064017069EE2480F582EF3400F583E0F8A3E0F9E0
:205100008E828F83A3A3A3A3A3A3A3E0FCA3E0FD8E828F83A3A3A3A3A3E0FAA3E0FBC3EA46
:205120009CEB9D5010C3EC98ED99402EC3EA98EB995027800EC3EA98EB994007C3EC98ED9E
:205140009940177CE27D05EEFAEFFB12680FEE247FF582EF3400F583E4F0EE2434F8EF344C
:2051600000F9E8FCE9FDEE2435F582EF3400F583E0F8EE2437F582EF3400F583E0F523E503
:20518000218523F0A4F521AAF08523F0E522A42AF522E82521F8E43522F97A257B001248B0
:2051A0003FEA8C828D83F0F8740758F97401B900028004C333D9FCFAE8131313541FF8EE01
:2051C00028F8EF3400F9E8245DF582E93400F583E05A6008EE2434F582EF802CEE2434F5E9
:2051E00082EF3400F583E0C0E0EE2436F582EF3400F583E0F5F0D0E084A8F0EE28F8EF34F6
:2052000000F9E82438F582E93400F583E0F9125E0F02508FC082C083854182854283E0F81D
:20522000A3E0F9C3EA9CEB9D5010C3EC98ED99401BC3EA98EB995014800EC3EA98EB9940D5
:2052400007C3EC98ED994004790180027900D083D08222EAC39CFAEB9DFB2274EF1249A6AE
:205260009004A8E064086005E06407702A9061C8E060249004D6E0F4601DE0F875F003A4A0
:20528000C8AAF02AF974D828FE740439FF8E828F83A3A3A3E0700302538B906060E0C0E059
:2052A000EE2468F582EF3400F583D0E0F0752562752606752100752200E5D914F523E5D950
:2052C0005403F527601774036527605CE5236010EE2467F582EF3400F583E070030253700A
:2052E00090065DE06401602AEE2482F582EF3400F583E06004780480027800852321E521BD
:20530000C398FA95E0FB1266958A218B22EA45227005126A5B8074EE2482F582EF3400F5AF
:2053200083E070048A258B26E5236012852582852683F524E5D9F0A31524E52470F6EE243E
:2053400082F582EF3400F583E0604474FC2523F5237825124B4DAC23A927EEFAEFFB126833
:20536000AB74021248E0E97026AA21AB22126F4D793D8E828F83A3A3A3A3E0FA7B001265BD
:2053800069EEFAEFFB1268271268DB79008074740365276056852329752A007829124B4DFB
:2053A000AC25AD26AA21AB2212688774021248E0EE2468F582EF3400F583E06480700474C8
:2053C0007F8001E0F5257825124B51E527F5257825124B51A923AC21AD229004D6E0FA7BF0
:2053E0000012652D74021248E080139004A8E06408600BAC25AD26EEFAEFFB126935126A31
:205400006779017F0A024A5274F51249A674FC1248CAEAFEEBFF8921A2AFE433F522C2AF1A
:20542000806AEE2463F8EF3400F97A007B00A2AFE433F523C2AF88828983E0FCA3E0FDECB5
:205440004D603A88828983E0FAA3E0FB8A828B83E0FCA3E0FD88828983ECF0A3EDF08A8203
:205460008B83E4F0A3F088828983E0FCA3E0FDEC4D700A88828983A3A3E4F0A3F0E523A225
:20548000E092AF126F4D9005E9E004F0EE2463F582EF3400F583E0F8A3E0F9E849603DEE34
:2054A0002463F582EF3400F583E02402FAA3E03400FBEA2402F523EB3400F5247823124B49
:2054C0004D8A828B83E0FCA3E0F9EEFAEFFB12684B74021248E0E970030254229005E9E094
:2054E00060639005EAE0F89005E9E0C398500C7402652170509005EBE0604A8E828F83A3F2
:20550000A3A3A3E0854182854283F0A3E4F09005E9E0F87402124916E8F0A3E4F09005E9BF
:20552000E0F89005E8E028F07402124916AC82AD83854182854283AA82AB837901126533C9
:205540009005E9E4F0E522A2E092AF74041248E002508FFF8551878552C622C0E0C0D0E869
:20556000C0E0E9C0E0EAC0E0EBC0E0ECC0E0EDC0E0EEC0E0C021C022C023C024C082C08337
:20558000C0F0A2AFE433FEC2AF759B00906182E0A2E05012E591A2E0500C7591FE7401650B
:2055A00051700312525BE0A2E55051E591A2E5504B7591DF9004A8E064076005E06408703B
:2055C0002374016551703579019004D6E0FA75F003A4CAA8F028FB74D82AFA74043BFB1259
:2055E00054088018E0640D70139004CAE004F064287002E4F07A00E0F9126A6D906182E050
:20560000A2E640030256A2E591A2E640030256A27591BF9004A8E06405700812696B126967
:205620007780031269717551001269E3E99004A9F079001269C51267677A017B009004A780
:20564000E0F9126CB3907803E064427055900661E014F0704DC2AF12565A00785AD0E0F6A7
:2056600018D0E0F6E59F540770057522FF800375227FC4C0E07859E6F52108E65522F5223C
:20568000740B78211248A8D0E02521F8906270E0A2E740F8E8C333906272F0906270E0D2B9
:2056A000E0F0906181E0A2E35009E5E9A2E3500375E9F7A3E0A2E75009E591A2E7500375C3
:2056C000917FEEA2E092AFD0F0D083D082D024D023D022D021D0E0FED0E0FDD0E0FCD0E023
:2056E000FBD0E0FAD0E0F9D0E0F8D0D0D0E032C0E0C0D0C082C083906183E0A2E05009E569
:20570000BFA2E0500375BFFEE0A2E15009E5BFA2E1500375BFFDE0A2E25009E5BFA2E25027
:205720000375BFFBE0A2E35009E5BFA2E3500375BFF7E0A2E45009E5BFA2E4500375BFEF73
:20574000E0A2E55009E5BFA2E5500375BFDFE0A2E65009E5BFA2E6500375BFBFD083D08220
:205760008088C0E0C0D0E8C0E0E9C0E0EAC0E0EBC0E0ECC0E0EDC0E0C0F0E5A7A2E6500F8F
:20578000E5A1A2E6500953A7BF75A1BF1257C7E5A7A2E5500CE5A1A2E5500653A7DF75A123
:2057A000DFE5A7A2E15009E5A1A2E1500375A1FDE5A7A2E2500CE5A1A2E2500653A7FB75FD
:2057C000A1FBD0F00256D874F81249A67551019004A8E0640670151268F98A828B83A3A32B
:2057E000A3A3A3A3E0FAA3E0FB126959A2AFE433FED2AF9004AEE0640170187A207B009056
:2058000004A7E0F9126D4F7A207B009004A7E0F9126CB9906182E0D2E6F090065EE0602186
:2058200085C65280169004ADE064017008E5C654F84405F5C653BEFC1255547401655160E9
:20584000E4EEA2E092AF7F01024A52FF8E538F54858258858357854182854283E0CEA3E051
:20586000CF855882855783EBC9EAC8EDCBECCA75F010C3E833C8E933C9EA33CAEB33CBC334
:20588000EA9EF556EB9FF555B35004AB55AA56EC33CCED33CDD5F0DAAE53AF542274E9124E
:2058A00049A674F81248CA854182854283ECF0A3EDF08A218B229004A8E024F7C394055040
:2058C00006752101025A341268F98A238B24AE23AF24EE4F7003025A31AC21AD22740212C7
:2058E0004916AA82AB831269898E828F83A3A37525FF7526FF7527FF752800782512470B17
:2059000074021249167529FF752AFF752BFF752C00782912470B7825792912448A502A780F
:205920002579291246D07521017522C87523007524007821792512448A5052852521852622
:20594000228527238528248050752D01752EC8752F00753000852921852A22852B23852C3A
:2059600024782179251246D0782D792112448A401C752100752200752300752401782179B8
:20598000291246D078217925124697800C75210175220075230075240074097821124678BF
:2059A000752519F526F527F5287821792512455D8E828F83A3A3A3A3A3A3E0F8A3E0F97A33
:2059C000D07B0312483F88258926E4F527F528782179251246977406124916E0F8A3E0F902
:2059E0007AD07B0312483FE8FA8A25E4F5267821792512448A5007782179251246D0900455
:205A0000A8E06408600AE064066005E06405702D75250D7825792112448A40217525F47571
:205A200026FF7527FF7528FF78217925124697800C752100752200752300752400854182B2
:205A4000854283E0F8A3E0F5838882782112477974081248E07F10024A5274F71249A61253
:205A6000699B90065CE064017010906245E4F0A3F053F4F343FE0C5390F3126947E5C654AF
:205A8000804449F5C6E59E547F644970F8906185740FF090065AE0F47002A3E0604E9006ED
:205AA0005BE0600814601B14602E804075210175220090065AE078211248B7E521F45280DE
:205AC000802A75210175220090065AE078211248B7E521F452908014752101752200900640
:205AE0005AE078211248B7E521F452A079007F02024A5274F71249A6E9FEEAFF74016E70AF
:205B00000C7A807B009004A7E0F9126CB3906FD0E493F46008E493F912675B800953C680B7
:205B2000E59E547F70FA12694D90065CE06401700312677F90065AE0F47002A3E0604B9047
:205B4000065BE0600814601A14602C803D75210175220090065AE078211248B7E521428041
:205B6000802875210175220090065AE078211248B7E5214290801375210175220090065A4C
:205B8000E078211248B7E52142A012699B1268F98A218B22A821A922E8496015E5E170FC46
:205BA000E82414F582E93400F583E0F46003E0F5E174016F700A7A019004A7E0F9126D1F41
:205BC000025AEE74ED1249A68A218B228C238D247413124916782512476A7821792512447C
:205BE0008A752901752AC8752B00752C005012782179251246D07829792112448A50168012
:205C000010782579211246D07829792512448A40047901800279007F0C024A5274ED124958
:205C2000A68A218B228C238D247413124916782512476A7825792112448A4011782179250F
:205C40001246D0AA21AB22AC23AD248022752900752A00752B00752C01782979251246D05C
:205C600078297921124697AA29AB2AAC2BAD2C80A68A828B837521FF7522FF7523FF752407
:205C800000782112471E7F04024A5274F51249A68C828D83782112476A8A828B837821122A
:205CA00046E4EA2404F8EB3400F98C828D83A3A3A3A3E0FCA3E0FD88828983C3E09CF0A3AA
:205CC000E09DF088828983C3E09420A3E0944E40268A828B837521FF7522FF7523FF7524AA
:205CE000FF78211246BD8A828B83A3A3A3A3E02420F0A3E0344EF0025C7174F51249A6E926
:205D0000FE9005FDE0FAA3E0FBEEC333F8E433F9749928F582748539F583E02AF521A3E0B6
:205D20003BF5227821124B4D7A407B427C0F7D0012584C74021248E08A218B228C238D2431
:205D40007410782112465FAA21AB227F04024A5274F11249A68A258B268C278D28740F12F3
:205D60004916E0FAA3E0FB7411124916E0F521A3E0F5227821124B4DEA2401F521EB34005F
:205D8000F522E4F523F524782579211244DD752171752202782579211244DDAA25AB26AC17
:205DA00027AD2812584C74021248E08B22EA452260047A0180027A00EC2AFCED3400FD7404
:205DC00013124916E0F8A3E0F9E8FEE9FFECF8EDF97A717B0212483F882189228E828F83DC
:205DE0007821124779ECF8EDF97A717B0212483F8A218B22740578211248B78E828F83A32D
:205E0000A3A3A3E521F0A3E522F07F08024A52C082C083E9906000F0D083D08222C2AF025C
:205E2000000022C0E074F2124A92A2AFE433FED2AFC2C0E5D1A2E4500653D1EF126EC37586
:205E40004300EEA2E092AF7F01024AF1C0E0C0D0E8C0E0E9C0E0E5A8D2AFC2C7754300A25F
:205E6000E7A2E792AFD0E0F9D0E0F8D0D0D0E032C0E0C0D0E8C0E0E9C0E0C021C022C08258
:205E8000C083A2AFE433F9D2AF900B25E0F8A3E0687008539AFBA374018025C2E9900B25D2
:205EA000E0F52174012521F074A52521F582E4340AF583E0F5C1900B25E0C394804002E49E
:205EC000F0E9A2E092AFD083D082D022D021D0E0F9D0E0F8D0D0D0E0321243F7DDAF0412DD
:205EE00043F775B0041243F74EB2041243F7A3B2041243F7F9B2041243F70EB3041243F7F2
:205F000099B3041243F721B4041243F747D5031243F72FD6031243F755D8031243F7FBD8B2
:205F2000031243F77FD9031243F707DB031243F7DBDB031243F7F5DB031243F77ADC0312AB
:205F400043F715DD031243F7F4DD031243F72ADE031243F772E0031243F726E1031243F758
:205F600082E1031243F708E2031243F70080011243F72080011243F7F881011243F7B38281
:205F8000011243F71583011243F75D83011243F78683011243F7D884011243F75A850112B1
:205FA00043F7DB85011243F75486011243F76487011243F7ED87011243F7128A011243F7F1
:205FC0009F91011243F7EA91011243F71A92011243F77B92011243F7A492011243F7B1B83D
:205FE000011243F726B9011243F7B6B9011243F75BBD011243F706C3011243F736C30112E5
:2060000043F742CA011243F72CCB011243F78DCB011243F7A9CC011243F7FCCD011243F72C
:2060200040CE011243F7F2CF011243F739FE031243F750FE031243F781FE031243F7BCFE4C
:20604000031243F7E6FE031243F710FF031243F727FF031243F73EFF031243F755FF0312F6
:2060600043F77EFF031243F791FF031243F7A7FF031243F7BAFF031243F7E1FF031243F70F
:206080000DE2031243F711E3031243F749E3031243F76CE3031243F777E3031243F79AE340
:2060A000031243F7A9E4031243F77EE5031243F7F9E5031243F781E6031243F7BCE6031269
:2060C00043F7F3E6031243F781E7031243F75AE8031243F7BAE8031243F7C5E8031243F729
:2060E00044E9031243F747E9031243F74AE9031243F7D9E9031243F7DCE9031243F70CEA08
:20610000031243F736EA031243F724EB031243F7D6EB031243F747EC031243F73FED031290
:2061200043F773ED031243F7F5ED031243F73DEE031243F7A1EE031243F72EEF031243F781
:20614000E8EF031243F7F7F2031243F782F4031243F7A5F4031243F7D8B4041243F700B5A3
:20616000041243F72EB5041243F765B5041243F7C3B5041243F70EB6041243F759B6041231
:2061800043F799B6041243F7DFB6041243F70DB7041243F7CAB7041243F7D4B7041243F781
:2061A000E1B7041243F714B8041243F7E0B8041243F7ECB8041243F704B9041243F70EB92B
:2061C000041243F713E2041243F721E2041243F739E2041243F751E2041243F70080031254
:2061E00043F7AC80031243F72781031243F74882031243F78482031243F72D83031243F786
:206200001484031243F77885031243F7CF85031243F75086031243F74087031243F78D8759
:20622000031243F71388031243F74588031243F7598A031243F79B8A031243F7B98A03120B
:2062400043F73C8B031243F7108C031243F7D88C031243F77A87041243F74D88041243F7DA
:20626000F688041243F74989041243F7F989041243F7858A041243F7718B041243F7A08B86
:20628000041243F7B38C041243F7FB8C041243F7D08D041243F70C8E041243F7288E0412E5
:2062A00043F782E3041243F75ECA041243F784CA041243F7A0CB041243F7AACB041243F759
:2062C000DFCC041243F7D7CD041243F7E1CD041243F79CA5041243F7CCA6041243F7FFA6D9
:2062E000041243F749A7041243F710A9041243F7AAEC011243F714ED011243F773EE011260
:2063000043F7FDEE011243F70DEF011243F73AEF011243F791EF011243F73AF0011243F708
:2063200041F1011243F70BF2011243F76BF3011243F7AEF3011243F753F4011243F7A0F4D3
:20634000011243F7C6F4011243F7D4F6011243F7D9F6011243F7DEF8011243F72BF901125C
:2063600043F79EF9011243F7D1F9011243F773FA011243F71CFB011243F754FB011243F72E
:2063800057FB011243F79FFB011243F7DFFB011243F736FC011243F723FD011243F73BFD2C
:2063A000011243F783FD011243F799FD011243F7E0FD011243F7F4FE011243F781FF0112E4
:2063C00043F7CCFF011243F70080021243F70C80021243F74780021243F78C80021243F754
:2063E0004C81021243F7DB81021243F76182021243F7C682021243F7F282021243F72B83A1
:20640000021243F76985021243F74D87021243F73389021243F7768A021243F7C48C021214
:2064200043F7D68D021243F7218F021243F73190021243F74E90021243F78990021243F7D1
:20644000AB90021243F70E91021243F7CF95021243F76496021243F7B596021243F7DC96C1
:20646000021243F72E97021243F74C97021243F7A697021243F78F98021243F7059A0212D7
:2064800043F7899A021243F7EA94041243F7F494041243F73795041243F75295041243F758
:2064A000E295041243F70A96041243F74796041243F77E96041243F7A796041243F71C9754
:2064C000041243F73197041243F74697041243F76897041243F7B197041243F7C6970412CD
:2064E00043F7DA97041243F7FF97041243F73998041243F76598041243F79398041243F7D2
:20650000DE98041243F74E99041243F7BC99041243F7C799041243F7F299041243F73B9A79
:20652000041243F7659A041243F7909A041243F7F6DF041243F7F68E031243F74490031261
:2065400043F72491031243F74391031243F7C091031243F70392031243F75993031243F71B
:206560000994031243F74296031243F7C998031243F76A99031243F7609A031243F75D9BC5
:20658000031243F7B79C031243F7429D031243F76BDD041243F7D4DD041243F728DE041227
:2065A00043F74FDE041243F780DE041243F714BE041243F781BE041243F7C8BE041243F7EF
:2065C000E0BF041243F7DCC0041243F7BFC1041243F7D0F5031243F712F6031243F7E4F6CB
:2065E000031243F7BDF7031243F7B7F8031243F799F9031243F702FA031243F7B8FA031258
:2066000043F72CFB031243F798FB031243F7C1FB031243F73BFC031243F7D4FC031243F738
:2066200039FD031243F74EFD031243F794FD031243F7ADFD031243F712FE031243F715FEF0
:20664000031243F7EBCD041243F713CE041243F751CE041243F70FCF041243F776CF0412BA
:2066600043F792CF041243F7BACF041243F7EACF041243F7F9CF041243F776D0041243F79F
:206680009CD0041243F749DF021243F76AE1021243F79CE3021243F7D8E3021243F705E470
:2066A000021243F7F3E4021243F73EE5021243F789E5021243F79BE5021243F7DBE5021298
:2066C00043F710E6021243F75EE6021243F78DE6021243F7B0E6021243F7FDE6021243F7D4
:2066E00082E7021243F79CE9021243F7DBEB021243F71CEC021243F7C0ED021243F701EEBC
:20670000021243F7FAEE021243F707F1021243F77AF1021243F7C6F1021243F774F2021277
:2067200043F745F3021243F779F3021243F7E3F3021243F732C8031243F730C9031243F72A
:20674000C9CF031243F7EAD1031243F7B5D3031243F71DD5031243F7F09A021243F79F9B1E
:20676000021243F7CC9B021243F7129C021243F7489D021243F7A69D021243F7CB9D0212DA
:2067800043F7619F021243F7DB9F021243F718A0021243F792A0021243F7ECA1021243F748
:2067A0004CA3021243F752A4021243F7B3A5021243F705A6021243F776A7021243F78FA718
:2067C000021243F7EDA7021243F711A8021243F7FFA8021243F732A9021243F7A2A9021205
:2067E00043F71CAA021243F766AA021243F730AB021243F705AC021243F7E4AC021243F7E7
:206800006FAD021243F7DDAD021243F751AE021243F77CAE021243F73BAF021243F7A0B0E9
:20682000021243F7BDB0021243F7DCB0021243F7CDB1021243F7F2B1021243F71CB20212D6
:2068400043F797B2021243F7F1B2021243F75AB4021243F708B5021243F749B5021243F7C3
:206860005EBA031243F7ACBA031243F7B8BA031243F796BB031243F7C7BB031243F7F8BB17
:20688000031243F778BC031243F7B0BC031243F702BD031243F73FBD031243F75CBF0312E2
:2068A00043F782C1031243F76DC3031243F757C5031243F7F37F001243F7C3AA041243F7A7
:2068C00067AB041243F739AC041243F763AC041243F7B1AE041243F7CCD0011243F716D143
:2068E000011243F708DF011243F78DE0011243F7FEE6011243F7F9E7011243F736E80112CE
:2069000043F759E8011243F79BE8011243F7A4E8011243F7AEE8011243F79CE9011243F751
