:020000040000FA
:0600000002011D0225872C
:03002B00021E4A68
:03003300021DCBE0
:030053000225FA89
:03006B00021CE094
:03007B00021D5310
:100083000223F3E5C754F84401F5C77901220000C0
:100093000080FB120086B90003020107E47921788E
:1000A30011B800028004F709D8FCE479327802B869
:1000B30000028004F709D8FCE4900281780D7908E6
:1000C3008002F0A3D8FCD9FA781A90014D7A01BACC
:1000D30000028007E493A3F608DAF990098DAA8257
:1000E300AB8390014E783D79038015E493A3AC82F2
:1000F300AD838A828B83F0A3AA82AB838C828D83A8
:10010300D8E9D9E775821A7583F7740312012F753D
:100113008291758300740012012F75D00075813FA1
:10012300751881751902759F00020096C09FF59F8F
:10013300E473D09F22D083D082C09FE493C0E07445
:100143000193C0E0740293F59F220102928601009D
:10015300005F86027886010000988610D084030031
:10016300008902027486030000820202788601007D
:1001730000978610F08403000000000000A203969D
:10018300038480F2818682128352813D8200808FB4
:10019300855583B583A485FE80CD8200005600007B
:1001A300020000000030FF02020202020202020209
:1001B300010D000000100102928601000062860218
:1001C3007886010000E909028E86010000740302AB
:1001D3007886010000EA09028C860100008285020C
:1001E3007886010000EB09028A8601000059850226
:1001F3007886010000EC090288860100008E8402E3
:100203007886010000ED090286860100006A8402F7
:100213007886010000EE09028486010000588402FA
:100223007886010000EF090282860100007C8402C7
:100233007886010000F0090280860100003D8502F6
:100243007886010000F109029486010000F209FF9B
:10025300000000FF00080101000302010600000086
:10026300000000000000000000000000000000008B
:10027300000000000000000000FFFF015000200309
:10028300E8031C082808FF0000B400002800280029
:10029300283075A000A000A000A00000080008E01E
:1002A30001F00010001000100010001000100050AA
:1002B300005000500010001000D0070000000000A4
:1002C300000F0001000500307507001000010081D8
:1002D300FF00000000FF480966094E09FF02020201
:1002E30008025000A0000000E8030292860100000B
:1002F300BD850278860100001F0B02728601000093
:10030300AE04027886010000200B02708601000013
:10031300C404027886010000210B026E86010000EE
:10032300C604027886010000220B026C86080000D6
:10033300C704027886010000230B026A86010000CD
:10034300240BFF0100FF200292860100005C86025D
:100353007886010000880B02688600000000000216
:1003630074860300001405420F420F420F420F42EE
:100373000F420F420F420F420F420F420F420F42F2
:100383000F00121812FA1112013870CF031201383C
:10039300FBCF0312013882D103120138DBD10312E0
:1003A30001381FD20312013831D203120138C1D2EE
:1003B3000312013851D303120138C02C0012013843
:1003C300DC2C00120138BA2E00120138752F0012EE
:1003D3000138D92F001201381F300012013848307C
:1003E30000120138843000120138E0310012013864
:1003F3006232001201384F3300120138D933001230
:100403000138D43400120138FB36001201382C3D78
:10041300001201386D3D001201388E3D0012013883
:10042300F13D001201381F3E00120138CB5B001270
:100433000138395C00120138C75C001201386B6067
:1004430000120138166600120138F86C00120138E8
:10045300E16D00120138526E00120138496F00122B
:100463000138BA7000120138FA70001201386A724A
:1004730000120138DDB403120138E7B40312013866
:1004830025B5031201386EB503120138A8B503125E
:10049300013802B60312013823B6031201382CB611
:1004A3000312013879B603120138A2B603120138D8
:1004B300ACB60312013818B703120138AAB70312F6
:1004C3000138F4B7031201382AB803120138B6B859
:1004D30003120138F7B8031201382EB90312013899
:1004E30040B9031201385FB90312013868B9031226
:1004F300013835BA0312013872F70312013864F474
:100503000312013813EB0312013849EB03120138CC
:100513007FEB03120138CAEC031201380BF6031206
:10052300013821F6031201382BF60312013875F650
:100533000312013821D40312013836D403120138CF
:10054300E6D40312013826D5031201383FD503122E
:1005530001387AD503120138C7D503120138F9D50A
:10056300031201383BD6031201383CD80312013879
:10057300AED803120138C7F703120138D9F70312B3
:100583000138C9E303120138EEE30312013818E41A
:1005930003120138A3F603120138E47F0012013875
:1005A3005BF5031201386BF50312013874F503127E
:1005B300013805F60312013860F303120138E5F33D
:1005C300031201384BF403120138F87F001201388B
:1005D300DAE80312013869EA03120138CAEA03129E
:1005E300013810EB03120138DDBF03120138AFC02D
:1005F30003120138E0C003120138F7C003120138B7
:1006030001C1031201384BC1031201384EC1031259
:100613000138B4C10312013820C203120138BEC22B
:100623000312013842C3031201388BC3031201388A
:10063300B7C303120138E1C3031201385CC40312C8
:100643000138B2C40312013805C50312013812C5BB
:100653000312013863F003120138B5F003120138B5
:100663003FF103120138A6F10312013895E6031294
:100673000138BFE6031201388DE70312013868E839
:1006830003120138F29103120138B99203120138AF
:10069300F092031201381A93031201387A9303126A
:1006A3000138D09303120138359403120138CD94E5
:1006B30003120138DC9503120138739703120138D2
:1006C3000098031201386798031201387E980312C9
:1006D300013898990312013848EC01120138E2EF0E
:1006E3000112013850F201120138AAF20112013845
:1006F300C9F20112013844F301120138BDF40112A9
:100703000138A9F5011201387FFA011201384FFBB4
:1007130001120138F6FB0112013834FC01120138D1
:1007230004ED031201381BED031201384CED0312E3
:10073300013887ED03120138B1ED03120138DBED07
:1007430003120138F2ED0312013809EE03120138E6
:1007530020EE0312013849EE031201385CEE031256
:10076300013872EE0312013885EE03120138ACEE44
:1007730003120138FDF10212013801F302120138AC
:1007830039F3021201385CF30212013867F30212E3
:1007930001388AF30212013899F4021201386EF516
:1007A30002120138E9F50212013871F6021201381A
:1007B300ACF602120138E3F60212013871F70212A5
:1007C30001384AF802120138AAF802120138B5F8C2
:1007D3000212013834F90212013837F902120138D2
:1007E3003AF902120138C9F902120138CCF902129E
:1007F3000138FCF90212013826FA0212013814FBFF
:1008030002120138C6FB02120138008003120138BC
:10081300F880031201382C8103120138AE810312D0
:100823000138F681031201385A8203120138E78234
:1008330003120138A18303120138B0860312013871
:100843003B88031201385E880312013892AE03120B
:100853000138BAAE03120138E8AE031201381FAFF4
:10086300031201387DAF031201380BB103120138B3
:1008730056B103120138A1B103120138E1B10312D9
:10088300013827B20312013855B20312013812B3EB
:10089300031201381CB30312013829B303120138C0
:1008A3005CB30312013828B40312013834B40312C1
:1008B30001384CB40312013856B40312013811FF46
:1008C3000212013829FF0212013841FF02120138D6
:1008D30059FF02120138127300120138EE7300122D
:1008E3000138527500120138A975001201382A76B1
:1008F300001201381A7700120138677700120138A5
:10090300ED77001201381F7800120138337A001294
:100913000138757A00120138937A00120138167B78
:1009230000120138EA7B00120138B27C0012013850
:1009330022A103120138F5A1031201389EA203126A
:100943000138F1A203120138A1A3031201382DA427
:100953000312013819A50312013848A503120138FF
:100963005BA603120138A3A60312013878A703126A
:100973000138B4A703120138D0A7031201384FFC82
:100983000112013875FC0112013891FD0112013881
:100993009BFD01120138D0FE01120138C8FF01127C
:1009A3000138D2FF011201382FC5031201385FC687
:1009B3000312013892C603120138DCC60312013850
:1009C300A3C803120138409402120138AA940212F8
:1009D3000138099602120138939602120138A39640
:1009E30002120138D096021201382C9702120138F4
:1009F300339802120138FD98021201385D9A0212EF
:100A03000138A09A02120138459B02120138929BC9
:100A130002120138B89B02120138C69D0212013836
:100A2300CB9D02120138D09F021201381DA0021281
:100A3300013890A002120138C3A00212013865A147
:100A4300021201380EA20212013846A20212013824
:100A530049A20212013891A202120138D1A2021254
:100A6300013828A302120138F6E0031201380EE11F
:100A73000312013856E1031201386CE10312013805
:100A8300B3E103120138C7E20312013854E303123E
:100A930001389FE30312013877A201120138B2A291
:100AA30001120138F7A201120138B7A3011201386C
:100AB30046A401120138CCA40112013831A5011258
:100AC30001385DA50112013896A501120138D4A79A
:100AD30001120138B8A9011201389EAB0112013885
:100AE300E1AC011201382FAF0112013841B00112FC
:100AF30001388CB1011201389CB201120138B9B22C
:100B030001120138F4B20112013816B3011201388F
:100B130079B3011201383AB801120138CFB8011282
:100B2300013821B9011201383FB90112013899B9CD
:100B33000112013882BA01120138F8BB01120138DF
:100B43007CBC0112013863BA031201386DBA031277
:100B53000138B0BA03120138CBBA031201385BBBB8
:100B63000312013883BB03120138C0BB03120138DF
:100B7300F7BB0312013820BC0312013895BC0312E2
:100B83000138AABC03120138BFBC03120138E1BC0F
:100B9300031201382ABD031201384FBD0312013875
:100BA30089BD03120138B5BD03120138E3BD031239
:100BB30001382EBE03120138E1BE03120138ECBE28
:100BC3000312013817BF0312013860BF0312013843
:100BD3008ABF03120138B5BF03120138CB7E00125E
:100BE30001381AA40212013868A50212013848A676
:100BF3000212013867A602120138E4A60212013874
:100C030027A7021201387DA8021201382DA902126A
:100C1300013866AB02120138EDAD021201388EAE17
:100C23000212013884AF0212013881B00212013876
:100C3300DBB10212013866B20212013805F2031267
:100C430001386EF203120138C2F203120138E9F2DD
:100C5300031201381AF303120138BBD80312013807
:100C630028D9031201386FD90312013887DA031226
:100C7300013883DB0312013866DC031201388989EA
:100C830003120138CB89031201389D8A03120138FC
:100C9300768B03120138708C03120138528D0312C4
:100CA3000138BB8D03120138718E03120138E58EB2
:100CB30003120138518F031201387A8F031201385E
:100CC300F48F031201388D9003120138F29003124E
:100CD30001380791031201384D91031201386691CF
:100CE30003120138CB9103120138CE91031201385C
:100CF30037FC021201385FFC021201389DFC02121C
:100D030001385BFD02120138C2FD02120138DEFD1B
:100D13000212013806FE0212013836FE02120138B1
:100D230045FE02120138C2FE02120138008002128F
:100D330001382182021201385384021201388F8450
:100D430002120138BC8402120138AA85021201384A
:100D5300F5850212013840860212013875860212A7
:100D63000138C38602120138F28602120138158750
:100D730002120138628702120138E7870212013832
:100D8300018A02120138408C02120138818C02124E
:100D93000138258E02120138668E021201385F8FE8
:100DA300021201386C9102120138DF9102120138EC
:100DB3002B9202120138D99202120138B493021213
:100DC30001381E940212013843CE0212013841CF7A
:100DD30002120138DAD502120138FBD702120138A8
:100DE300C6D9021201382EDB02120138E3BC01120C
:100DF300013892BD01120138BFBD0112013805BE91
:100E0300011201383BBF0112013899BF01120138A9
:100E1300BEBF0112013854C101120138D8C10112F9
:100E2300013852C201120138ACC3011201380CC59A
:100E33000112013812C60112013873C701120138B9
:100E4300C5C70112013836C9011201384FC9011251
:100E53000138ADC901120138D1C901120138BFCA25
:100E630001120138F2CA0112013862CB01120138B2
:100E7300DCCB0112013826CC01120138F0CC01126F
:100E83000138C5CD01120138A4CE011201382FCF8C
:100E9300011201389DCF0112013811D0011201381E
:100EA3003CD001120138FBD00112013860D201128B
:100EB30001387DD2011201389CD2011201388DD341
:100EC30001120138B2D301120138DCD30112013807
:100ED30057D401120138B1D4011201381AD60112C4
:100EE3000138C8D60112013809D701120138E7B217
:100EF3000212013835B30212013841B3021201382C
:100F03001FB40212013850B40212013881B4021224
:100F1300013801B50212013839B5021201388BB517
:100F230002120138C8B502120138E5B702120138BE
:100F33000BBA02120138F6BB02120138E0BD0212ED
:100F43000138B52C0012013856CA03120138FACA07
:100F530003120138CCCB03120138F6CB031201384C
:100F630044CE03120138998601120138E386011237
:100F73000138D594011201385A9601120138CB9CDD
:100F830001120138C69D01120138039E0112013876
:100F9300269E01120138689E01120138719E0112CA
:100FA30001387B9E01120138699F011201385FA04D
:100FB3000112013839D70112013838DB0112013827
:100FC3003EDB0112013879E20112013892E7011286
:100FD300013828DD03120138BEDD03120138D4DDE8
:100FE300031201384ADE03120138BEDE0312013850
:100FF300FCDE0312013870DF03120138E9DF03124C
:101003000138F2DF03120138FEDF0312013813E067
:101013000312013851E00312013867E0031201386B
:10102300C6E00312013845A80312013852A803127F
:1010330001386CA803120138ABA803120138E9A8E0
:10104300031201384EA90312013863A903120138B0
:101053006EA9031201387BA90312013892A9031266
:101063000138A0A903120138AFA903120138C4A99A
:1010730003120138D9A903120138E4A90312013874
:10108300F0A903120138FFA9031201380AAA0312B7
:1010930001382DAA03120138D4AA03120138E4AA95
:1010A30003120138F9AA0312013813AB03120138F2
:1010B3002EAB031201384BAB0312013856AB0312AC
:1010C300013812AC03120138FEAC0312013823AD10
:1010D300031201382EAD0312013843AD0312013858
:1010E30057AD03120138B8AD03120138BEAD031278
:1010F3000138C4AD03120138CAAD03120138E2ADA1
:101103000312013815AE03120138C0C002120138B0
:101113004CC102120138ABC202120138CCC4021214
:101123000138B8C502120138EDC5021201380FC6E5
:1011330002120138BEC602120138B6C802120138C3
:10114300DFC80212013871C902120138A3C90212A1
:101153000138B0C90212013807CA021201382DCA78
:10116300021201389ACC021201389DCD02120138C5
:10117300F5CD0212013881DB021201388BDB02123A
:101183000138ADDB02120138B9DB0212013852DD3E
:101193000212013881DD021201389DDE021201388C
:1011A300F6DE021201386AE002120138D7E00212B9
:1011B300013812E10212013851E1021201380AE446
:1011C3000212013824E402120138B0E40212013899
:1011D300BEE40212013817E50212013825E50212B6
:1011E300013898E502120138FCE50212013846E69F
:1011F30002120138CFE602120138F1E60212013879
:1012030017E9021201382CEC0212013844ED0212E4
:101213000138F7ED02120138D9EE02120138BEEEA1
:1012230003120138E3EE0312013855EF03120138BC
:10123300D69903120138DF9903120138E899031292
:101243000138BF9A03120138709C03120138A69C1F
:1012530003120138E09C03120138169D0312013872
:10126300509D03120138849D03120138B09D03126F
:101273000138F99D03120138339E031201387C9E15
:1012830003120138D49E03120138099F0312013857
:10129300649F031201389E9F03120138EF9F0312CC
:1012A300013825A0031201385FA00312013882A080
:1012B30003120138DCFF01120138E6FF0112013885
:1012C300F6FF0112013808F80312013834F803E07D
:1012D30066701008A3E066700A08A3E0667004084D
:1012E300A3E06622E4936670130874019366700C9E
:1012F30008740293667005087403936622C3E79625
:101303000809E7960809E7960809E796A2D265D087
:101313003322C3E09608A3E09608A3E09608A3E06F
:1013230096A2D265D03322C008C3E096F50808A37D
:10133300E096420808A3E096420808A3E096420814
:10134300A2D265D033E5087001D3D00822C3E79653
:101353000809E7960809E7960809E79622C3E09685
:1013630008A3E09608A3E09608A3E09622C008C36A
:10137300E096F50808A3E096420808A3E096420821
:1013830008A3E09645087001D3D00822C3E49396DE
:101393000874019396087402939608740393962233
:1013A300080808EAC0E0EBC0E086F0E7A4FA1809F1
:1013B30086F0E7A42AFA180986F0E7A42AFA18099E
:1013C30086F0E7A42AFA1986F0E7A4FBE5F02AFAE7
:1013D300190886F0E7A42BFBE5F03AFA190886F022
:1013E300E7A42BFBE5F03AFA18180986F0E7A4C541
:1013F300F02BFBE43AFA1908E7C5F0C6A426F6E594
:10140300F03BFBE43AFA1886F0E7A4F6E5F0082689
:10141300F6E43B08F6E43A08F6D0E0FBD0E0FA2223
:10142300E4CFC0E0E4CEC0E0E4CDC0E0E4CCC0E073
:1014330075F020C3E633F608E633F608E633F6081C
:10144300E633F6181818EC33FCED33FDEE33FEEFFC
:1014530033FFC3EC9709ED9709EE9709EF97191935
:1014630019400FFFEC97FC09ED97FD09EE97FE1964
:101473001906D5F0BEECF709EDF709EEF709EFF71A
:10148300191919D0E0FCD0E0FDD0E0FED0E0FF2236
:101493001214FB1818181214231214EA191919221A
:1014A3001214EA191919080808E618181820E7E0B1
:1014B3001214231214FB18181822090909E7191921
:1014C3001920E7DC080808E618181820E7030214B7
:1014D300231214FB1818181214231214FB181818CB
:1014E3001214EA19191922E4C397F709E497F709C3
:1014F300E497F709E497F722E4C396F608E496F62F
:1015030008E496F608E496F6226017080808C6A2CF
:10151300E713C618C613C618C613C618C613C6D50E
:10152300E0E9226016080808C6C313C618C613C626
:1015330018C613C618C613C6D5E0EA2270090808F0
:1015430008226016181818C6C333C608C633C6085F
:10155300C633C608C633C6D5E0EA22E627F608092D
:10156300E637F60809E637F60809E637F622E026F5
:10157300F608A3E036F608A3E036F608A3E036F64D
:1015830022E026F008A3E036F008A3E036F008A333
:10159300E036F022C3E697F60809E697F60809E66F
:1015A30097F60809E697F622C3E096F008A3E096BB
:1015B300F008A3E096F008A3E096F022E657F608B9
:1015C30009E657F60809E657F60809E657F622E052
:1015D30056F608A3E056F608A3E056F608A3E0562D
:1015E300F622E056F008A3E056F008A3E056F00810
:1015F300A3E056F022E647F60809E647F60809E6AF
:1016030047F60809E647F622E046F008A3E046F06D
:1016130008A3E046F008A3E046F022E066F008A342
:10162300E066F008A3E066F008A3E066F022E0F6C7
:1016330008A3E0F608A3E0F608A3E0F622E6F00824
:10164300A3E6F008A3E6F008A3E6F022E0FAA3E09D
:10165300FBA3E0FCA3E0FD22EAF0A3EBF0A3ECF094
:10166300A3EDF022CAC0E0E6F0A308DAFAD0E0FA6C
:1016730022CAC0E0E0A3C582CCC582C583CDC583A1
:10168300F0A3C582CCC582C583CDC583DAE6D0E09D
:10169300CA22C3E498F8E499F91216D68026C3E463
:1016A3009AFAE49BFBE920E7E91216D6E498F8E4FA
:1016B30099F922C3E498F8E499F91216D6E498F854
:1016C300E499F9C3E49AFAE49BFB22EB20E7CFE920
:1016D30020E7E0B90010BB0008E88AF084F8AAF01C
:1016E30022E4FBC8FA22EB70227B10C833C8C9334B
:1016F300C9335007C39AC3DBF280069A50012ADB31
:10170300EAC833F4C8C933F4C9FA2275F008E4C847
:1017130033C8C933C933C99AC99B5004C92AC93BC1
:10172300D5F0ECFBC833F4C8E4C9FA22600D08C64F
:10173300A2E713C618C613C6D5E0F322600C08C689
:10174300C313C618C613C6D5E0F422700422600D75
:1017530018C6C333C608C633C6D5E0F41822251805
:1017630010AF08F518400215198008F51840021546
:1017730019D2AF22C0D0251810AF08F518500205B2
:10178300198008F51850020519D2AFD0D0222518B8
:10179300F58210AF08F518400215198008F51840B6
:1017A300021519D2AF851983222518F582E435195C
:1017B300F58322E4732518C582C0E0E51934FFC51B
:1017C30083C0E0E518C3958224F810AF0885831918
:1017D3008582188008858319858218D2AFCEF0A33D
:1017E300E520F0A37808E608F0A3DEFAEFF0A3E51E
:1017F3008124FAF8E608F0A3E608F0A3E608F0A3CC
:101803000808E608F0A3E608F0A315811581D0E0E7
:10181300FED0E0F8158115811581E8C0E0EEC0E047
:10182300222518C582C0E0E51934FFC583C0E0E571
:1018330018C3958224F910AF08858319858218800F
:1018430008858319858218D2AFCEF0A3E520F0A3D3
:101853007808E608F0A3DEFAEFF0A3E58124FBF8AD
:10186300E608F0A3E608F0A30808E608F0A3E608F4
:10187300F0A315811581D0E0FED0E0F81581158124
:10188300E8C0E0EEC0E022851983851882E0A3FE5C
:10189300E0A3F5207808E0A3F608DFFAE0A3FFE071
:1018A300A3C0E0E0A3C0E0E0A3C0E0E0A3C0E0E0A9
:1018B300A3C0E010AF08858218858319800885824C
:1018C30018858319D2AFD083D0820201358519835D
:1018D300851882E0A3FEE0A3F5207808E0A3F608CC
:1018E300DFFAE0A3FFE0A3C0E0E0A3C0E0E0A3C011
:1018F300E0E0A3C0E010AF08858218858319800853
:10190300858218858319D2AFD083D08222C0D02597
:1019130018C582C0E0E51934FFC583C0E0E518C3EC
:10192300958224F310AF0885831985821880088572
:101933008319858218D2AFC8F0A3E9F0A3EAF0A314
:10194300EBF0A37908E709F0A3D8FAECF0A3EDF0E4
:10195300A3EEF0A3EFF0A3D0E0F0A3D0E0F0A3D088
:10196300E0F0A3E520F0A3E5F0F0A3228519838539
:101973001882E0C0E0A3E0F9A3E0FAA3E0FBA378B8
:1019830008E0F608A3DFFAE0FCA3E0FDA3E0FEA372
:10199300E0FFA3E0C0E0A3E0C0E0A3E0F5D0A3E054
:1019A300F520A3E0A3F5F010AF088583198582180D
:1019B3008008858319858218D2AFD082D083D0E086
:1019C300F8D0E03274048006740280027401C0E02F
:1019D300F404121791D0E012166722740480047481
:1019E300028000CCC0E0EDC0E0E518C39CCCAD198B
:1019F30050011D10AF068C188D1980068C188D1997
:101A0300D2AF121674D0E0FDD0E0FC22D083D08296
:101A1300C5F0E493A3C5F0C395F0F5F0E493A3C335
:101A230095F04005E5F0048001E475F002A42582F9
:101A3300F582E5F03583F583E493A3C0E0E493C036
:101A4300E022D083D082E9C0E0E493A3C386F0C54B
:101A5300F095F0F908E493A386F0C5F095F0700BC8
:101A6300E493A3C3994005E9048002A3E475F0025B
:101A7300A42582F582E5F03583F583D0E0F9E4937C
:101A8300A3C0E0E493C0E022D083D082E9C0E0E4C5
:101A930093A3C386F0C5F095F0F908E493A386F009
:101AA300C5F095F0702408E493A386F0C5F095F093
:101AB300701908E493A386F0C5F095F0700E08E45E
:101AC30093A3C3994007E9048004A3A3A3E475F097
:101AD30002A42582F582E5F03583F583D0E0F9E4AD
:101AE30093A3C0E0E493C0E022D083D082CCC0E0D3
:101AF300E493A36006121B161470FAE493A3600622
:101B0300121B351470FAD0E0FCE493A3C0E0E49315
:101B1300C0E022C0E0E493A3D39C5010E493A3C39A
:101B23009C400AD0E0D0E0D0E0021B09A3A3A3D0DD
:101B3300E022C0E0E493A36C7009D0E0D0E0D0E0F1
:101B4300021B09A3A3D0E022D083D082ECC0E0ED36
:101B5300C0E0E493A3FCE493A3FDED4C600D121BE2
:101B630097EC24FFFCED34FFFD80EFE493A3FCE44A
:101B730093A3FDED4C600D121BD6EC24FFFCED345A
:101B8300FFFD80EFD0E0FDD0E0FCE493A3C0E0E4F0
:101B930093C0E022C0E0C3E49396087401939618BF
:101BA300400FE49366700808740193661870007020
:101BB30019A3A3C3E49396087401939618A3A340AF
:101BC3000DD0E0D0E0D0E0021B87A3A3A3A3A3A37F
:101BD300D0E022C0E0C0F088F0E493667008087497
:101BE300019366187000A8F0A3A3700BD0F0D0E0A7
:101BF300D0E0D0E0021B87A3A3D0F0D0E022D083B3
:101C0300D082ECC0E0EDC0E0EEC0E0EFC0E0E493D2
:101C1300A3FCE493A3FDE493A3FEE493A3FFEF4E9D
:101C23004D4C6015121C7DEC24FFFCED34FFFDEEE2
:101C330034FFFEEF34FFFF80E5E493A3FCE493A3BA
:101C4300FDE493A3FEE493A3FFEF4E4D4C60151206
:101C53001CBAEC24FFFCED34FFFDEE34FFFEEF3441
:101C6300FFFF80E5D0E0FFD0E0FED0E0FDD0E0FC58
:101C7300E493A3C0E0E493C0E022C0E0C0F088F0A6
:101C830012138FA8F040071212E7A8F0701AA3A34B
:101C9300A3A312138FA8F0A3A3A3A34013D0F0D040
:101CA300E0D0E0D0E0021C67A3A3A3A3A3A3A3A354
:101CB300A3A3D0F0D0E022C0E0C0F088F01212E776
:101CC300A8F0A3A3A3A3700BD0F0D0E0D0E0D0E0A2
:0A1CD300021C67A3A3D0F0D0E022AA
:101CE000C0E074F0121910A2AFE433FFD2AFE5895F
:101CF000F8E5AB58F50A6051F4F589C2C57E008E4F
:101D0000087509007402780812174E121DC6C3E840
:101D10009408E99400502BE85407F87401B80002C5
:101D20008004C333D8FC550A601875080075090192
:101D3000EE780812174EAA08AB09900281E0F9125A
:101D400004CE0EEEC3940440B6EFA2E092AF7F0340
:101D500002196FC0E074F0121910A2AFE433FFD281
:101D6000AFE58AF8E58D58F50A6059F4F58AC2EBBB
:101D70007E008E087509007402780812174E121D35
:101D8000C6E82400FAE934FFFBC3EA9408EB9400A8
:101D9000502BE85407F87401B800028004C333D80C
:101DA000FC550A6018750800750901EE78081217CD
:101DB0004EAA08AB09900281E0F91204CE0EEEC3E0
:101DC000940440AE8083121E33F922C0E074F012F6
:101DD0001910A2AFE433FFD2AFE58BF8E5AC58F5AC
:101DE0000A604DF4F58BC2E87E008E087509007418
:101DF00002780812174E121E33C39402402BE85487
:101E000007F87401B800028004C333D8FC550A6097
:101E100018750800750901EE780812174EAA08AB6C
:101E200009900281E0F91204CE0EEEC3940440BA88
:101E3000021D4974A72508F58274033509F583E06E
:101E4000F8A3E022C2AF02000022C0E0C0D0E8C088
:101E5000E0E9C0E0E5A8D2AFC2C7751A00A2E7A2C8
:101E6000E792AFD0E0F9D0E0F8D0D0D0E03274F50E
:101E7000121824EAFEEBFFEE2434F8EF3400F98860
:101E8000088909EE2435F582EF3400F583E0F8EE99
:101E90002437F582EF3400F583E0F50AEC850AF08B
:101EA000A4FCAAF0850AF0EDA42AFDE82CF8E43D94
:101EB000F97A257B001216D6EA850882850983F017
:101EC000F8740758F97401B900028004C333D9FCCF
:101ED000FAE8131313541FF8EE28F8EF3400F9E86A
:101EE000245DF582E93400F583E05A6008EE24347D
:101EF000F582EF802CEE2434F582EF3400F583E098
:101F0000C0E0EE2436F582EF3400F583E0F5F0D042
:101F1000E084A8F0EE28F8EF3400F9E82438F582E0
:101F2000E93400F583E0F97F040218D074F5121843
:101F300024EAFEEBFFEE2434F582EF3400F583E073
:101F4000C0E0EE2435F582EF3400F583D0E0F08E6A
:101F5000828F83A3A3A3A3A3A3A3C082C0838E82E3
:101F60008F83A3A3A3A3A3E0F8A3E0F9D083D08237
:101F7000E0C398F508A3E099F509EE247FF582EF18
:101F80003400F583E064017069EE2480F582EF345B
:101F900000F583E0F8A3E0F98E828F83A3A3A3A3C7
:101FA000A3A3A3E0FCA3E0FD8E828F83A3A3A3A33E
:101FB000A3E0FAA3E0FBC3EA9CEB9D5010C3EC98AE
:101FC000ED99402EC3EA98EB995027800EC3EA980A
:101FD000EB994007C3EC98ED9940177CD77D06EE4E
:101FE000FAEFFB120EA0EE247FF582EF3400F583AA
:101FF000E4F0EE2434F8EF3400F9E8FCE9FDEE24D7
:1020000035F582EF3400F583E0F8EE2437F582EF02
:102010003400F583E0F50AE508850AF0A4F508AA7E
:10202000F0850AF0E509A42AF509E82508F8E43561
:1020300009F97A257B001216D6EA8C828D83F0F896
:10204000740758F97401B900028004C333D9FCFA4B
:10205000E8131313541FF8EE28F8EF3400F9E824BE
:102060005DF582E93400F583E05A6008EE2434F52A
:1020700082EF802CEE2434F582EF3400F583E0C04B
:10208000E0EE2436F582EF3400F583E0F5F0D0E0A1
:1020900084A8F0EE28F8EF3400F9E82438F582E956
:1020A0003400F583E0F9122CA7021F27C082C083F9
:1020B000851882851983E0F8A3E0F9C3EA9CEB9DBB
:1020C0005010C3EC98ED99401BC3EA98EB9950145B
:1020D000800EC3EA98EB994007C3EC98ED99400451
:1020E000790180027900D083D08222EAC39CFAEB86
:1020F0009DFB2274EF12182490059DE06408600592
:10210000E06407702A9061C8E060249005CBE0F499
:10211000601DE0F875F003A4C8AAF02AF974CD2870
:10212000FE740539FF8E828F83A3A3A3E0700302A0
:102130002223906060E0C0E0EE2468F582EF340076
:10214000F583D0E0F0750C57750D0775080075091B
:1021500000E5D914F50AE5D95403F50E60177403A8
:10216000650E605CE50A6010EE2467F582EF3400CE
:10217000F583E07003022208900752E06401602AB0
:10218000EE2482F582EF3400F583E0600478048069
:10219000027800850A08E508C398FA95E0FB120D5D
:1021A0003E8A088B09EA450970051210EC8074EE2E
:1021B0002482F582EF3400F583E070048A0C8B0DE5
:1021C000E50A6012850C82850D83F50BE5D9F0A335
:1021D000150BE50B70F6EE2482F582EF3400F583E3
:1021E000E0604474FC250AF50A780C1219CBAC0A9D
:1021F000A90EEEFAEFFB120F3C7402121777E9708A
:1022000026AA08AB0912065A793D8E828F83A3A3B2
:10221000A3A3E0FA7B00120C18EEFAEFFB120EB843
:10222000120F6C790080747403650E6056850A1075
:1022300075110078101219CBAC0CAD0DAA08AB09C2
:10224000120F187402121777EE2468F582EF34002B
:10225000F583E064807004747F8001E0F50C780CF5
:102260001219CFE50EF50C780C1219CFA90AAC089B
:10227000AD099005CBE0FA7B00120BDC740212175B
:1022800077801390059DE06408600BAC0CAD0DEEFB
:10229000FAEFFB120FC61210F879017F0A0218D06C
:1022A00074F512182474FC121761EAFEEBFF89081A
:1022B000A2AFE433F509C2AF806AEE2463F8EF34CD
:1022C00000F97A007B00A2AFE433F50AC2AF88823E
:1022D0008983E0FCA3E0FDEC4D603A88828983E0CD
:1022E000FAA3E0FB8A828B83E0FCA3E0FD8882896D
:1022F00083ECF0A3EDF08A828B83E4F0A3F0888274
:102300008983E0FCA3E0FDEC4D700A88828983A3F9
:10231000A3E4F0A3F0E50AA2E092AF12065A9006F9
:10232000DEE004F0EE2463F582EF3400F583E0F89C
:10233000A3E0F9E849603DEE2463F582EF3400F54F
:1023400083E02402FAA3E03400FBEA2402F50AEB5E
:102350003400F50B780A1219CB8A828B83E0FCA338
:10236000E0F9EEFAEFFB120EDC7402121777E97057
:10237000030222BA9006DEE060639006DFE0F89088
:1023800006DEE0C398500C7402650870509006E0B9
:10239000E0604A8E828F83A3A3A3A3E08518828581
:1023A0001983F0A3E4F09006DEE0F874021217AC93
:1023B000E8F0A3E4F09006DEE0F89006DDE028F017
:1023C00074021217ACAC82AD83851882851983AA7A
:1023D00082AB837901120BE29006DEE4F0E509A2FC
:1023E000E092AF7404121777021F2700852A8785B1
:1023F0002BC622C0E0C0D0E8C0E0E9C0E0EAC0E0FF
:10240000EBC0E0ECC0E0EDC0E0EEC0E0C008C00909
:10241000C00AC00BC082C083C0F0A2AFE433FEC2CA
:10242000AF759B00906182E0A2E05012E591A2E0BE
:10243000500C7591FE7401652A70031220F3E0A21E
:10244000E55051E591A2E5504B7591DF90059DE077
:1024500064076005E0640870237401652A703579AB
:10246000019005CBE0FA75F003A4CAA8F028FB742C
:10247000CD2AFA74053BFB1222A08018E0640D708F
:10248000139005BFE004F064287002E4F07A00E0E5
:10249000F91210FE906182E0A2E6400302253AE5BF
:1024A00091A2E6400302253A7591BF90059DE06434
:1024B000057008120FFC1210088003121002752A12
:1024C00000121074E990059EF07900121056120D5A
:1024D000FE7A017B0090059CE0F91204CE9078030F
:1024E000E064427055900756E014F0704DC2AF1290
:1024F00024F2007833D0E0F618D0E0F6E59F5407D8
:1025000070057509FF800375097FC4C0E07832E665
:10251000F50808E65509F509740B780812173FD03D
:10252000E02508F8906270E0A2E740F8E8C3339035
:102530006272F0906270E0D2E0F0906181E0A2E31C
:102540005009E5E9A2E3500375E9F7A3E0A2E750DB
:1025500009E591A2E7500375917FEEA2E092AFD01A
:10256000F0D083D082D00BD00AD009D008D0E0FEC2
:10257000D0E0FDD0E0FCD0E0FBD0E0FAD0E0F9D034
:10258000E0F8D0D0D0E032C0E0C0D0C082C08390AC
:102590006183E0A2E05009E5BFA2E0500375BFFEF1
:1025A000E0A2E15009E5BFA2E1500375BFFDE0A242
:1025B000E25009E5BFA2E2500375BFFBE0A2E35081
:1025C00009E5BFA2E3500375BFF7E0A2E45009E5B7
:1025D000BFA2E4500375BFEFE0A2E55009E5BFA23A
:1025E000E5500375BFDFE0A2E65009E5BFA2E65063
:1025F0000375BFBFD083D0828088C0E0C0D0E8C060
:10260000E0E9C0E0EAC0E0EBC0E0ECC0E0EDC0E033
:10261000C0F0E5A7A2E6500FE5A1A2E6500953A736
:10262000BF75A1BF12265FE5A7A2E5500CE5A1A2E8
:10263000E5500653A7DF75A1DFE5A7A2E15009E544
:10264000A1A2E1500375A1FDE5A7A2E2500CE5A10E
:10265000A2E2500653A7FB75A1FBD0F002257074CF
:10266000F8121824752A0190059DE0640670151271
:102670000F8A8A828B83A3A3A3A3A3A3E0FAA3E078
:10268000FB120FEAA2AFE433FED2AF9005A3E064E1
:102690000170187A207B0090059CE0F91205587AA9
:1026A000207B0090059CE0F91204D4906182E0D276
:1026B000E6F0900753E0602185C62B80169005A2B6
:1026C000E064017008E5C654F84405F5C653BEFC45
:1026D0001223EC7401652A60E4EEA2E092AF7F0160
:1026E0000218D0008E2C8F2D85823185833085187D
:1026F00082851983E0CEA3E0CF853182853083EBDC
:10270000C9EAC8EDCBECCA75F010C3E833C8E933A9
:10271000C9EA33CAEB33CBC3EA9EF52FEB9FF52E04
:10272000B35004AB2EAA2FEC33CCED33CDD5F0DA79
:10273000AE2CAF2D2274E912182474F8121761859B
:102740001882851983ECF0A3EDF08A088B099005B7
:102750009DE024F7C3940550067508010228CC12A9
:102760000F8A8A0A8B0BAE0AAF0BEE4F700302285A
:10277000C9AC08AD0974021217ACAA82AB8312105F
:102780001A8E828F83A3A3750CFF750DFF750EFF44
:10279000750F00780C1215D274021217AC7510FF69
:1027A0007511FF7512FF75130078101215D2780C91
:1027B0007910121350502A780C7910121597750859
:1027C000017509C8750A00750B007808790C121399
:1027D000505052850C08850D09850E0A850F0B8017
:1027E000507514017515C875160075170085100809
:1027F00085110985120A85130B7808790C12159733
:1028000078147908121350401C750800750900757A
:102810000A00750B01780879101215977808790C61
:1028200012155E800C750801750900750A00750B9C
:10283000007409780812153F750C19F50DF50EF5A1
:102840000F7808790C1214238E828F83A3A3A3A37D
:10285000A3A3E0F8A3E0F97AD07B031216D6880C84
:10286000890DE4F50EF50F7808790C12155E7406E3
:102870001217ACE0F8A3E0F97AD07B031216D6E881
:10288000FA8A0CE4F50D7808790C12135050077889
:1028900008790C12159790059DE06408600AE064C1
:1028A000066005E06405702D750C0D780C79081232
:1028B00013504021750CF4750DFF750EFF750FFF59
:1028C0007808790C12155E800C7508007509007582
:1028D0000A00750B00851882851983E0F8A3E0F5DE
:1028E000838882780812164074081217777F1002C6
:1028F00018D074F712182412102C900751E06401BC
:102900007010906245E4F0A3F053F4F343FE0C53CF
:1029100090F3120FD8E5C654804449F5C6E59E549D
:102920007F644970F8906185740FF090074FE0F470
:102930007002A3E0604E900750E0600814601B1422
:10294000602E804075080175090090074FE07808F7
:1029500012174EE508F45280802A750801750900A7
:1029600090074FE0780812174EE508F45290801453
:1029700075080175090090074FE0780812174EE5B9
:1029800008F452A079007F020218D074F7121824BC
:10299000E9FEEAFF74016E700C7A807B0090059C62
:1029A000E0F91204CE902CB8E493F46008E493F9B3
:1029B000120DF2800953C680E59E547F70FA120F03
:1029C000DE900751E064017003120E1690074FE08D
:1029D000F47002A3E0604B900750E0600814601AA6
:1029E00014602C803D75080175090090074FE07850
:1029F0000812174EE5084280802875080175090005
:102A000090074FE0780812174EE508429080137542
:102A1000080175090090074FE0780812174EE50885
:102A200042A012102C120F8A8A088B09A808A90943
:102A3000E8496015E5E170FCE82414F582E934000A
:102A4000F583E0F46003E0F5E174016F700A7A0148
:102A500090059CE0F912052802298674ED121824CD
:102A60008A088B098C0A8D0B74131217AC780C1220
:102A700016317808790C1213507510017511C8754C
:102A8000120075130050127808790C1215977810FF
:102A9000790812135050168010780C790812159787
:102AA0007810790C12135040047901800279007F6C
:102AB0000C0218D074ED1218248A088B098C0A8D28
:102AC0000B74131217AC780C121631780C790812AB
:102AD000135040117808790C121597AA08AB09AC6D
:102AE0000AAD0B8022751000751100751200751368
:102AF000017810790C1215977810790812155EAAD2
:102B000010AB11AC12AD1380A68A828B837508FFBF
:102B10007509FF750AFF750B0078081215E57F042B
:102B20000218D074F51218248C828D83780812163E
:102B3000318A828B8378081215ABEA2404F8EB34CF
:102B400000F98C828D83A3A3A3A3E0FCA3E0FD88FE
:102B5000828983C3E09CF0A3E09DF088828983C3CF
:102B6000E09420A3E0944E40268A828B837508FF70
:102B70007509FF750AFF750BFF78081215848A82A4
:102B80008B83A3A3A3A3E02420F0A3E0344EF002A0
:102B90002B0974F5121824E9FE9006F2E0FAA3E07E
:102BA000FBEEC333F8E433F974B028F5827484394A
:102BB000F583E02AF508A3E03BF50978081219CB64
:102BC0007A407B427C0F7D001226E4740212177754
:102BD0008A088B098C0A8D0B74107808121526AAA6
:102BE00008AB097F040218D074F11218248A0C8BE8
:102BF0000D8C0E8D0F740F1217ACE0FAA3E0FB746E
:102C0000111217ACE0F508A3E0F50978081219CB0A
:102C1000EA2401F508EB3400F509E4F50AF50B7830
:102C20000C79081213A3750871750902780C7908DC
:102C30001213A3AA0CAB0DAC0EAD0F1226E4740256
:102C40001217778B09EA450960047A0180027A003D
:102C5000EC2AFCED3400FD74131217ACE0F8A3E08D
:102C6000F9E8FEE9FFECF8EDF97A717B021216D66D
:102C7000880889098E828F837808121640ECF8ED57
:102C8000F97A717B021216D68A088B0974057808C6
:102C900012174E8E828F83A3A3A3A3E508F0A3E5AA
:102CA00009F07F080218D0C082C083E9906000F06C
:102CB000D083D08222020135FFFFFFFFFFFFFFFF1D
:102CC000C082C083852182852283E06420700A85CA
:102CD0002283A3858221858322023D6674F4121724
:102CE000B8A821A922AC21AD22801CA3AA82AB8363
:102CF0008A828B83E0F50A7420650A60EE740965A8
:102D00000A60E8EAFCEBFDECFAEDFB8A828B83E0DB
:102D100075F00D84E5F033FEE433FF74C32EF582C5
:102D200074093FF5831266058004ECFAEDFB8A8294
:102D30008B83E0F50A7427650A60067422650A70C1
:102D40003A122EAD8A828B83A3AA82AB838A828BAE
:102D500083E0FCA3AA82AB8388828983122EB3E529
:102D60000A6C609F740A6C70E4E824FFF8E934FF91
:102D7000F9EA24FFFAEB34FFFB8088740A650A70D5
:102D80001A88828983740AF002334AAE08AF098A2E
:102D9000828B83A3AA82AB83E0F50A8E828F83A302
:102DA0008582088583098E828F83E0650A60DCE076
:102DB000F50AC394804033C3E52198E52299500871
:102DC000122EA6700318A983122EAD8E828F83E077
:102DD00064806003022CF0850882850983E0888284
:102DE0008983F0A308A983022CF0EEFAEFFB8A8214
:102DF0008B83A3AE82AF838A828B83E0C3948040AF
:102E0000E9EE24FF122EA0648070088E828F83A3C7
:102E10000EAF838E828F83E06003022D2A8C828D19
:102E200083125B145016122EAD8C828D83A3AC825C
:102E3000AD83125B144003022D0780EA88828983E8
:102E4000A3AA82AB837409650A60067420650A70C0
:102E500036C3E52198E522995010122EA6600B8802
:102E60008289837420F0EAF8EBF98C828D83A3AC1D
:102E700082AD83E0F50A7420650A60EE7409650A84
:102E80006003022D0780E388828983E50AF0EAF86F
:102E9000EBF98C828D83A3AC82AD83022D07F58282
:102EA000EF126C0AE022127098E064202288828976
:102EB00083E50AF0A3A882A9832274E81217B8E96F
:102EC000FE8A0C8B0D8C0E8D0F75100A7511007516
:102ED000120075130090862C780C12132A401C796E
:102EE0002D1205FA780C1214FB80109086187808C1
:102EF000121631781079081213A31E7810790C126B
:102F0000130050E7EEFF74FF2F1E04C39401A2D2FA
:102F100065D033403D79201205FA80E8850C08859C
:102F20000D09850E0A850F0B851014851115851264
:102F300016851317780879141214BD908618781422
:102F4000121631780879141214BDE5142430F912E0
:102F500005FA90861878081216317810790812143C
:102F6000BDE51045114512451370B1800312177766
:102F70007F1002188A74F61217B81203BA90031160
:102F8000E4F0A3125A40802B125FB7E875F00AA450
:102F9000F8AAF075F00AE9A42AF9E50828F8E43956
:102FA000F9E824D0F8E934FFF9900311E8F0A3E937
:102FB000125A35E0F50874D02508C3940A501590CC
:102FC0000311C3E09499A3E0941990031140B974DC
:102FD000FFF0A3F07F0202188AC082C0837A007BD0
:102FE00000852182852283E0F874226860057427B9
:102FF000687025852283A385822185832280031220
:1030000065E47921E72AF58209E73BF583E0F9E8F1
:10301000696009740A6970E77AFF7BFF023D667494
:10302000F71217B8EAFEEBFF800C1205FA8E828FBA
:1030300083A3AE82AF838E828F83E0F970EC790A2E
:103040001205FA7F0102188AC082C08390030FE044
:10305000FAA3E0800E8A828B83A3A3E0F8EA28FA21
:10306000EB3400FBEA65237003EB652460138A826E
:10307000C082125FB48B83D082C3E098A3E09940F2
:10308000D4023D6674F01217B889088A09750A20BF
:103090001231D8F50CA3E0F50D90030DE0240312D6
:1030A00031C9AA0CAB0DE4FCFDA9081203C68005CA
:1030B00079201205FA85090C74FF250CF5090470B6
:1030C000EF8005890B850B0A1231D8F50B90030DA3
:1030D000E02401081231CA740A650B70030231C181
:1030E000E50BC394805007A90B1205FA80D77CC367
:1030F0007D0980267480650D7004A80EA90F888252
:103100008983A3A882A983E8FEE9FF88828983E0F6
:10311000701DEC2402FCED3400FD8C828D83126660
:1031200005EE4F60A0EEF8EFF980E0A80EA90F8839
:10313000828983A385820E85830F88828983E0C379
:10314000948040E7E0F50DE50B650D70A774806590
:103150000B701B850E82850F83E0FB90030D125FC1
:10316000D8E06B708F90030DE024011231C97420F8
:10317000650A600979208002A90B1205FA8E828FF8
:1031800083E0F50BA3AE82AF83E50BC3948040E8E8
:10319000EE24FE122E9EF974286970030230C312C9
:1031A00031D8642C70030230C3EE24FF122E9E64CB
:1031B000C170030230C379201205FA750B2002306A
:1031C000C5790A1205FA0236F6F8A3E03400F99040
:1031D000030DE8F0A3E9F02290030D125A9DE022BE
:1031E00074F01217B8E9FFEAFE750800750900755A
:1031F0000A00750B00802274D02AFAEAC39E50514F
:103200008E0CE4F50DF50EF50F7808790C1213A36A
:103210008A0C7808790C12155EEFF974FF291F04E7
:103220006035852182852283E0FAA385822185830A
:103230002274D02AC3940A40BE74BF2AC394065095
:103240000474C980B4749F2AC39406500474A9807E
:10325000A8752502125C31AA08AB09AC0AAD0B02B5
:1032600036F674F41217B88908EAFCEBFD900313E4
:10327000E06508700D900314125FB78C828D830295
:10328000332D74BF2508F985080A750B0074027880
:103290000A12174E7826E6250AFA08E6350BFBEAED
:1032A00024FCFAEB34FEFBE9131313541FFE18E65B
:1032B0002EFE08E63400FFEE2468F582EF123CE9AA
:1032C000C0E0740759F8D0E0B800028004C313D8F6
:1032D000FCA2E05063A828A929800D888289831266
:1032E0006604E82EF8E93FF9C3E89526E9952750EA
:1032F0004788828983E0645670E1A3A3A3A3E065B5
:103300000870D88C828D83123D0388828983A3A3A1
:10331000A3E06402602DE508900313F090031412FB
:103320003D03E82408F8E93400F9900316123D0340
:10333000900316126CAC800B8C828D8374DFF0A32B
:103340007409F0800574021217777F0402188A74DA
:10335000EC1217B8EAFEEBFF123D095061A385821B
:10336000218583221203F08A088B098E828F8312B3
:103370006065705C852182852283E06428703FA3AC
:1033800085822185832279011204088A108B118C91
:10339000128D13E525702790862C781012132A5071
:1033A0001D8E828F83123D1EF50CA3E034FFF50DB8
:1033B000E4F50EF50F780C791012130040067A0030
:1033C0007B008010E5082510F508E5093511F509A1
:1033D000AA08AB097F0C02188A74F21217B8E9FE2A
:1033E0008A088B09A808A9091234BBEA24F8F8EB6B
:1033F00034FFF9C3E89523E99524500675250402A6
:1034000034B685080C85090DE50C2408F8E50D3463
:1034100000F91234BB8A288B29AC28FD8C828D835D
:103420007456F0E50C2408A3123D048C828D83A30E
:10343000A3A37404F0EE8C828D83A3A3A3A3F074E2
:10344000BF2EFF12599C5FFA88828983E0C0E0EAB0
:10345000FBD0E0BB00028004C313DBFC54018C8270
:103460008D83A3A3A3A3A31259F4A3A3125A13B841
:1034700000028004C333D8FCF974FFC399F8E05804
:1034800049F07828E62408FA08E63400FB740E12A6
:1034900017AC126CA3EC4D600F78081219CB120414
:1034A0007A74021217778009AC08AD09790012040A
:1034B00092900313E4F07F0602188AC31234C022EC
:1034C000E498FAE499FB78281234CC22E62AFA0828
:1034D000E63BFB2274F01217B8E9FEEA24FCFCEB91
:1034E00034FFFD74BB6E701A8C828D8378081216BF
:1034F0003178081214FB8C828D83780812164002F2
:1035000036F6ECFAEDFBEA24FCFCEB34FFFDEE12A0
:103510001A0FA911EA363A354E3562357E35A73590
:10352000DC35F13506361B362A36403656365636E9
:103530006C3682362A36AB36C6368A828B8378085A
:103540001216318C828D83780812158480B18A829C
:103550008B8378081216318C828D8378081215AB14
:10356000809D8C828D8378081216318A828B8378B5
:103570000C1216317808790C1213A30236DF8A82F6
:103580008B83780C121631E50C450D450E450F70F6
:10359000030236EF8C828D83780812163178087911
:1035A0000C1214BD0236DF8A828B83780C1216311E
:1035B000E50C450D450E450F70030236EF8C828DEC
:1035C0008378081216317808790C1214BD850C081E
:1035D000850D09850E0A850F0B0236DF8A828B83E3
:1035E00078081216318C828D8378081215E5023620
:1035F000F68A828B8378081216318C828D83780844
:1036000012160B0236F68A828B8378081216318CDA
:10361000828D83780812161E0236F68A828B837892
:10362000081216318C828D83804F8A828B837808B2
:103630001216318C828D8378081212D2605C80560B
:103640008C828D8378081216318A828B83780812D7
:103650001315504680408A828B8378081216318C6D
:10366000828D8378081212D27030802A8C828D83EA
:1036700078081216318A828B837808121315401A43
:1036800080148A828B8378081216318C828D83781D
:10369000081213155004D2F08002C2F0A2F0E433F5
:1036A000F508E4F509F50AF50B80348C828D8378F2
:1036B000081216318A828B83780C121631E50C7849
:1036C0000812153F80198C828D8378081216318A72
:1036D000828B83780C121631E50C780812150C8C4D
:1036E000828D837808121640800C75250280037540
:1036F00025037A007B007F0802188A74E81217B845
:1037000074D112176174021217ACE9F0750E01E55D
:10371000256003023A87740F1217AC8582088583EF
:103720000974071217ACAE82AF83740E1217ACA8DF
:1037300082A98374051217AC123D0374071217ACEB
:10374000A882A98374031217AC123D03740F1217D9
:10375000AC8582168583178055742F1217ACE582CD
:1037600065087004E5836509700302387785218256
:10377000852283E0F50A750B007402780A12174E51
:10378000749E250AF5827481350BF58312164F85D8
:10379000088285098312165B852182852283A38591
:1037A0008221858322851408851509750E008521DF
:1037B00082852283E0F510125F87E5082404F51462
:1037C000E5093400F5158E828F83A385820C8583ED
:1037D0000D8E0A8F0BE510121AEC029A9C2C3AAB54
:1037E000BA343C0F0AA13820AE3728093A29AF3A3B
:1037F0002C643A805937A9343CAA2B3CBC2C3ABDE6
:10380000A039BE2C3ABFE338C01B39C1CD38E22CF9
:103810003A133874D02510C3940A5031742F1217FC
:10382000ACE58265087004E5836509604A882189F2
:10383000227A0A79FF1203EA850882850983121623
:103840005B8514088515097525000237AB74BF2503
:1038500010C3941A504B851882851983AA82AB83B2
:10386000A9101203F012605F701374051217AC12E6
:10387000660B5003023A1B752504023A87742F1217
:1038800017ACE58265087004E583650960E98A8202
:103890008B8312164F85088285098312165B0237C7
:1038A000A58821892274031217ACC3E09EA3E09F70
:1038B0004003023CB21259DAAA08AB098E828F8308
:1038C000E0F9120402123CD340DB023A80742F125A
:1038D00017ACE58265087004E583650960997A1084
:1038E0000238331203BAA821A92288828983A385CA
:1038F000822185832288828983E064296003023AD9
:1039000080742F1217ACE58265087004E5836509A1
:1039100070030238771206480238951203BAA821BC
:10392000A92288828983A38582218583228882892E
:1039300083E064296003023A80742F1217ACE58299
:1039400065087004E5836509700302387775B61F52
:10395000E5B4A2E750FAE5BAF50AE5BBF9E50AF5E0
:103960000CE9F50D7406780C12172FE50D3395E070
:10397000F50EF50F9086147810121631780C791028
:103980001213A39086107810121631780C79101249
:1039900014BD850882850983780C1216400237A56C
:1039A000123D094003023A80A3E064296003023A11
:1039B00080742F1217ACE58265087004E5836509F1
:1039C0007003023877852182852283A3A385822113
:1039D000858322851882851983AA82AB831203F01E
:1039E00012605F6003023A80851882851983125B3A
:1039F0007985088285098388088909750A00750B0D
:103A00000078081216400237A5740F1217ACE58231
:103A10006E7003E5836F70030238778E828F83E5C3
:103A200010F0AE0CAF0D750E010237AE7405121713
:103A3000AC12660B40030238778E828F83E510F05C
:103A4000AE0CAF0D8E828F837428F0A30EAF8380EF
:103A5000D5123CEF603EAA08AB09E8F91204021245
:103A60003CD3501C74071217ACE5826E7003E583DB
:103A70006F70DE74021217ACE0640270030238A5A6
:103A8000E52570037525027A007B007C007D0074BB
:103A90002F022F6DA3AE82AF830237AB123CEF60D3
:103AA0002AAA08AB09E8F9120402123CD350D174D7
:103AB000071217ACE5826E7003E5836F70DE740247
:103AC0001217ACE0640170B80238A574031217AC89
:103AD000C3E09EA3E09F40030237AE740F1217AC01
:103AE000E58265087004E58365096094E50824FCB7
:103AF000F50AE50934FFF50B850A82F583780C1287
:103B000016311259DA8E828F83E0F51024666068D0
:103B100014606B14606E24E0600B24FE603024DCC3
:103B20006075023BC290862C780C12132A400578EF
:103B30000C1214FB850C10850D11850E12850F13C8
:103B4000850A82850B837810121640023A261204E9
:103B5000988A108B11E4F512F5137810790C121471
:103B6000BD850A82850B83E50CF0A3E50DF0A3E586
:103B70000EF0A3E50F023C20AA0C7900800AAA0CE3
:103B800079018004AA0C7902120432850A82850B1D
:103B90008312165B023A26850D11E51154806003ED
:103BA000023A80E4F510F51178101219CB7900ACC7
:103BB0000AAD0BAA0CAB0D1206DE740212177702C7
:103BC0003A2674BF2510C3941A5058851882851957
:103BD00083AA82AB83A9101203F012605F60030214
:103BE0003A8090862C780C12132A4003023A8012F5
:103BF0003D18F510A3E034FFF511E4F512F5137844
:103C000010790C1213004003023A80EA250CF58269
:103C1000EB350DF583E0850A82850B831265F1A3F0
:103C2000F08005A3AE82AF83023A26E50EA2E050F3
:103C3000037510BB85100A749C250AF582748312E3
:103C40003CE9F50AEE24FFF8EF34FFF98882898316
:103C5000E0FC74572CF50C74071217ACE5826E70FB
:103C600003E5836F6019E50CC39413501274452566
:103C70000CF5827484123CE9FAE50AC39A501F7469
:103C80000F1217ACE5826E7003E5836F7003023884
:103C9000778E828F83E510F0A3AE82023A4D1EE943
:103CA000FFAA08AB09ECF9120402123CD3409502BA
:103CB0003A8074131217ACE58265087004E58365D9
:103CC000096003023A80E50824FC126C0612164FC4
:103CD000023A8F8A088B098A828B83C3E516958204
:103CE000E517958322F58208E63400F583E022EE9D
:103CF00024FF1EEF34FFFF8E828F83E0F8642822BA
:103D0000900340E8F0A3E9F022852182852283E038
:103D1000F974BF29C3941A22851882851983E0F8A3
:103D2000123D2422125AA3A3E024F822C082C083A9
:103D30007A007B0C12051090030F125FAE7C007DA1
:103D40000C7900120492125A8B90030F126CC82443
:103D500094F582E8340BF5838582268583278526B2
:103D600028F529120414D083D082020135C082C004
:103D7000837A2E7B851203D812595A1203C67A759C
:103D80007B851203D87A657B861203D880D874F6B7
:103D90001217B812060612040E123E0F1205EE128A
:103DA000062AE960497A72790012060C1259B74066
:103DB00006125B1F12061212061E90030FC3E09537
:103DC00023A3E09524502190030F125A991219E26F
:103DD00075080078081219CF90860C12164F7903D7
:103DE0001206367403121777123E0F1205EE022FD9
:103DF000D4C082C083800F79007A007B0012042631
:103E0000123E0F1205EE1205F4E970EB023D66ACAE
:103E100028AD297823E62402FA08E63400FB227450
:103E2000E81217B874F112176174021217ACE9F0B6
:103E3000752500EA4B7003023F0A900311125FAE32
:103E4000AE23AF2474021217ACE060217828125917
:103E500046C3EA9EEB9F50030251A68A288B298A0B
:103E6000828B837445F0A37403F0A3E4F01203DEA5
:103E70008A828B83A3A3A3858221858322C3E52124
:103E80009EE5229F40030242CCA821A92288828974
:103E900083A385822185832288828983E0121A0F79
:103EA0008028B140C5421B41624179419F41FE419A
:103EB0002842F63E8042B44205430543A44A3343B8
:103EC0005243B34B67506750C443EE4D6244354292
:103ED0006C44C444F6444D456C456C456C45B44552
:103EE000C2452F464D47B1471B48C6480049764951
:103EF0009149C049CE49852182852283E0640A60C8
:103F0000030242C5125A8B02428090031DE4F0A3C3
:103F1000F0852382852483A3A385822185832212B1
:103F200003C0750A0074021217ACE50AF004F50A22
:103F3000E0FA7821E62A123CE5640A70E8A80AC390
:103F4000E498FE95E0FF750B00780A1219CBAC21BE
:103F5000AD227828E62EFA08E63FFB12060074022E
:103F60001217777828E62EFA08E63FFB8A218B2283
:103F70001203CC1203BA90031112726470198523D4
:103F800082852483A3A3858221858322E0640A603D
:103F900003023E890240AD900311E0F47003A3E0F8
:103FA000F470030242C578211259468A218B22A857
:103FB00021AA28EAC398F50A900311E088828B832E
:103FC000123D04E50A88828B83A3A3F01203DE8AE4
:103FD000088B09AE08AF09EE65237003EF65246016
:103FE0004F8E828F83126C9CE0687003A3E069702F
:103FF0003F8E828F83A3A3E0F88882AC82C3E49CC7
:10400000FA95E0FB78231234CC8A238B24EAC395FB
:1040100008F50CEB9509F50D780C1219CBEE2CFC7C
:10402000EF3400FDEEFAEFFB12047A7402121777F8
:10403000852182852283A3A3A3E0640A606FAC2359
:10404000AD24850A8285820C750D007821E6C39C1B
:10405000FA08E69DFBC3EA950CEB94005007790241
:10406000740F022F6DECC39508F508ED9509F5095D
:1040700078081219CBEEFCEFFDEE250AFAEF3400BA
:10408000FB1206007402121777780C1219CBAC21C0
:10409000AD22EEFAEFFB12047A740212177778233E
:1040A000E6250AFA08E63400FB8A238B247901808E
:1040B000AF125C318A82F583E0C3948040030242F0
:1040C000C5740D1217ACAA82AB831203F68A088B53
:1040D00009AE08AF09EE4F70030242C58521828503
:1040E0002283E064B560030242C5A38582218583F3
:1040F0002279001204088A088B098C0A8D0BE525A9
:1041000060030242C5740D1217AC1260658E828F77
:10411000836003024D38EAF0024D3D7508017509D0
:10412000017E017F001203CC852182852283E06419
:104130000A60030242C590030FE0F8A3E0F9E865C6
:10414000237003E965247003024D68888289831215
:10415000660588828983A3A3E0FAE82AF8E9340097
:1041600080DB125A8B7A72790012060C1259B74012
:1041700022125B1F120612801A7A77790012060C3F
:10418000782390030F126CACE6C39AFC08E69BFD03
:1041900012061812061E8523218524220242CC799C
:1041A000001204088A08AF08E52560030242C5EF43
:1041B00070030242C91203BA125AD95062E0F8746D
:1041C00020686005740A6870597A72EFF912060C5B
:1041D00012595050030242C574031217ACAA82ABA5
:1041E00083EEF91203F074031217AC1260656003DA
:1041F000024E7374031217AC125AE3024E77790021
:104200001204088A08AF08E52560030242C5EF7072
:10421000030242C91203BA125AD95003024E801245
:104220005C3112061E0242C512595A1203C67A7533
:104230007B851203D8852182852283E0640A60038E
:104240000242C9025072A3A3A3A3E024BFFC1259E7
:104250009C5CFA852882852983A3A3A3A3A3E0C03D
:10426000E0EAFBD0E0BB00028004C333DBFCFB745C
:1042700001BA00028004C333DAFC125A65125B9B58
:10428000C3E5289526E52995275019852882852993
:1042900083E024AD600624FD60AC80E1125AF9127F
:1042A0000AAA80D990030F125A9912596F5003022B
:1042B0003E898018852182852283E024BFC3941A19
:1042C0005003024B9FE5257003752501E525C33397
:1042D000F8E433F974A028F582748439F583126CFC
:1042E000AC1203D8AC21AD22C3EC9523ED9524404C
:1042F00003024A4FE5257003024A5990030FE0FA82
:10430000A3E0024A0679001204088B098C0A8D0B7F
:10431000E52570B1852182852283E0640A70AA12A6
:10432000593E60030242357900A3858221858322AC
:10433000024A737900120408125A2A708885218271
:10434000852283E0640A70811203DE8A828B8302F5
:1043500042AA7900120408125A2A60030242C58553
:104360002182852283E0640A60030242C9AE23AF42
:1043700024852882852983A3A3A3A3A3C3E5829EC2
:10438000E5839F50030251A67828E624FB126C387F
:10439000A828F9888289837447F0A37405F0A3E400
:1043A000126C5DE521F0A3E522F01203DE8A828B18
:1043B00083A3A3A3858221858322C3E5219EE522D1
:1043C0009F0242AD125A4840030242C58815A38598
:1043D00082218583221203BA852182852283E064AB
:1043E000B560030242C5A38582218583227900122C
:1043F00004088A088B098C0A8D0BE52560030242AC
:10440000C5A821A92288828983A385822185832248
:1044100088828983E064C260030242C97900120481
:10442000088A0C8B0D8C0E8D0FE52560030242C5AA
:10443000A821A92288828983A38582218583228855
:10444000828983E064C36003024B0679001204088A
:104450008A108B118C128D13E52560030242C50270
:104460004B15C2AF75C9AB75C95B80FE125A484087
:10447000030242C574021217ACE8125A351203BA8D
:10448000852182852283E0642860030242C5A385DA
:1044900082218583227901120408E5256003024206
:1044A000C5E4F50CF50D780C1219CB74041217AC99
:1044B000E0F91203FC7402121777E525600302424B
:1044C000C50242357E0079021204088A08AF08E569
:1044D0002560030242C51203BA852182852283E04A
:1044E00064C46003024EC9A3858221858322EFF94B
:1044F00012063002423579001204088A088B098CB2
:104500000A8D0BE52560030242C590862C780812BF
:10451000132A40030242C9A821A92288828983A3C1
:1045200085822185832288828983E0640A70E885F8
:1045300021828522831219E2750C00780C1219CFA2
:10454000790312063674031217770240AD79001210
:1045500004088B098C0A8D0BE52560030242C51205
:10456000593E7003024F407901024F42125C3112F2
:10457000042C74021217ACE9F0E52560030242C571
:10458000852182852283E064B560030242C9A38548
:10459000822185832279001204088B098C0A8D0BF5
:1045A000E52560030242C512593E7003024D16789C
:1045B00003024D1812597850030250127525070254
:1045C00042CC9003427401F0127261700A90034071
:1045D0007421F0A37403F0852182852283E0F50A1B
:1045E000750840750903246B70030253D024B8701A
:1045F000030251B114601024FE70030251C1147003
:1046000003025299025442125B8350030249FD1285
:104610005BB17405F0900340E02401125A79F085F3
:104620002182852283A385822185832202423590BF
:104630000342E4126C81C39480508D7510007F009A
:1046400079001204088A088B098C0A8D0BE5256015
:10465000030242C51203BA852182852283E0242306
:1046600060091470030251AC0242C57E01A3858229
:1046700021858322E064DE70090E0EA385822185E8
:104680008322852182852283E064E3700AA38582E8
:1046900021858322751001852182852283E064E4CF
:1046A0007008A38582218583220F8521828522833C
:1046B000E064D560030242C9A3E0648E6003024255
:1046C000C9852182852283A3A385822185832279BE
:1046D00000120408125A2A60030242C5125FB49005
:1046E00003BF123D0378081219C77C007D007900D2
:1046F0007A027B001206D874041217777808121910
:10470000C77C007D0079007A037B001206D8740410
:10471000121777EFA2E0B3E433F508E4F509F50AE0
:10472000F50B78081219C77C007D0079007A237B8D
:10473000001206D8740412177712071A7B00E510CE
:10474000A2E0E433FAEEF9120714024235790012BE
:1047500004088A088B09A909E52560030242C5AE51
:1047600008E9547FFFE9548070030254FD851882E4
:10477000851983AA82AB83852182852283E0F91281
:1047800003F08A088B09AC08AD0912605F60030270
:1047900042C590862C1219DE74041217AC123D1E0D
:1047A000F9EEFAEFFB1206D87404121777E9024407
:1047B000BC74051217ACE4F012042C74061217AC8A
:1047C000E9F0E52560030242C51203BAA821A92237
:1047D00088828983A385822185832288828983E0D8
:1047E0002438600A24FE7003024F850249F77407DB
:1047F0001217AC7410126C81F8A385822185832274
:10480000740A686003024F4874081217AC7418F0F9
:1048100074091217AC125C31024F90750C0012042F
:104820002CE9FEE52560030242C5EE131313541F65
:104830005407F50EEE54C0F50D7480650D700AE551
:104840000EC39404400302500C1203BAA821A922FB
:1048500088828983A385822185832288828983E057
:10486000243560091460030249F7750C01A821A9D9
:104870002288828983A385822185832288828983F5
:10488000E0648E60030249F77900120408E52560B0
:10489000030242C5EEF912063CE9700302500CA86F
:1048A0000E7401B800028004C333D8FCF9E50D6032
:1048B00003024FA3E58CA2E0E433450CF58CE942FA
:1048C000ABD2BD02423512042CE9F8E525600302A3
:1048D00042C5E8131313541F5407FA7401BA0002B7
:1048E0008004C333DAFCF4FAE854C0FB6003024FDF
:1048F000E8EA52ABE5AB6003025003C2BD025003CD
:10490000852182852283E0F874E868600302559867
:10491000A385822185832279021204088A08AE08C1
:104920007902120408EAF50CE52560030242C5EE9F
:10493000C3940440030242C9EAC394044003024200
:10494000C9852182852283E0FF74E66F600874E7E1
:104950006F60030242C9A3858221858322790012F8
:104960000408E52560030242C574E66F6003025542
:104970001F7820025521852182852283E02433601F
:10498000091470030259360242C5900319E4024625
:104990001E79001204088A0C8B0D8C0E8D0F780C7A
:1049A000121A8B0800000006C542B849C542B84932
:1049B000C542B849C542B849EA9009E7F002423514
:1049C00012597840030245BC1204380244BAA821A7
:1049D000A92288828983A38582218583228882896E
:1049E00083E0242870030256A724FE70030256A712
:1049F00024F27003025671125C310242C57525051E
:104A00000242CCE8FAE9FB8A828B83A3A3E0F8EAAE
:104A100028F8EB3400F9EA65237003EB6524600E97
:104A2000C3EC9AED9B40DCC3EC98ED9950D5900314
:104A30000D125FAE793E1205FA793E1205FA792021
:104A40001205FA7A0179001203E4790A1205FA7460
:104A50000465257004790280027901024060E970E2
:104A600003024AFA19852182852283A3A3E0FA185A
:104A700012598F125978505D7821E62403123CE5D3
:104A80002476600C14601114600924F760D080D57E
:104A90000980D2E970CF8062E970CA85822185835E
:104AA00022023E897E001203BA852182852283E09C
:104AB000640A60030242C5A3858221858322801097
:104AC0001E852182852283A3A3E0FA782112598FC3
:104AD000125978400A7A657B861203D80240AD8568
:104AE0002182852283A3A3A3E0F8748A6870030E51
:104AF00080CF74956870CAEE70C685218285228346
:104B0000A3A3A3024625125C31751001751100752F
:104B100012007513001203BA852182852283E06496
:104B20000A60030242C57828E624F21259CC5003E9
:104B30000251A68A288B29AC28AD29851516751730
:104B4000007402781612174E7826E62516FA08E643
:104B50003517FBEA24FCF582EB34FEF58378081266
:104B600016408C828D837446F0A3740EF0A3E41279
:104B700059F9E5151259F4780C1216408C828D8380
:104B8000A3A3A3A3A3A3A3A37810121640EC240C01
:104B9000F582ED126C16E521F0A3E5220249BCA3D3
:104BA000E0640A60030242C58009125AF9120AAA97
:104BB000125B9BC3E5289526E52995274003024D06
:104BC0000B852882852983E024BB603514603D1461
:104BD000600E24F460D424FD7003024CCF0251A671
:104BE0001259E370CBA828A92988828983A3A3A39B
:104BF000E0F521A3E0F52288828983125BA10242BD
:104C0000351259E370AA125B9B0240AD1270A208E4
:104C1000E6122EA164897098AA28AB298A828B8318
:104C2000A3A3A3E0F508852182852283E0650860BF
:104C300003024BB07509007402780812174E7826EB
:104C4000E62508FC08E63509FDEC24FCFCED34FE05
:104C5000FDEA2408FEEB3400FF8C828D8378081275
:104C600016318E828F8378081215718C828D83782D
:104C7000081216408E828F83780C121631EA2404B3
:104C8000F8EB3400F9E8FCE9FD908608780C121383
:104C90002A50158C828D837808121315501F8A8232
:104CA0008B83125BA102461F90862C780C12132A6C
:104CB00040EC8C828D83780812132A50E1EA240C90
:104CC000F582EB123CE9F521A3E0F522024235AC76
:104CD00028AD29A3A3A3A3E024BFFE12599C5EFA2A
:104CE0008C828D83A3A3A3A3A3E0C0E0EAFBD0E062
:104CF000BB00028004C333DBFCFB7401BA000280FA
:104D000004C333DAFC125A65024BB01259E3600354
:104D10000242C50242CC780474021217ACE048F09B
:104D200074031217ACAC82AD8374021217ACAA8262
:104D3000AB8312043E0242357808121640740D12FD
:104D400017AC126CBB126F4370030242351204623F
:104D50000242350509EEF8EFF97A0A7B001216D601
:104D6000880A890BAE0AAF0BEE4F70E71203DE9094
:104D7000030D125FAE1231D8FEA3E0FFEE4F6029A3
:104D80001509EEF8EFF97A0A7B001216D6880A891F
:104D90000BAE0AAF0B80E5E508C39402400215088C
:104DA000AA08A9091203E4050890030DE065237021
:104DB00004A3E06524700302423590030D125AD01B
:104DC000247760111460D91460CD1460CA24FA608D
:104DD000CF24FD7009E508C3940240021508AA0813
:104DE000A9091203E480C2A385822185832285213B
:104DF00082852283E0640A7008790A1205FA024269
:104E0000351203D28A088B09AE08AF0974FF6E70A1
:104E10000374FF6F7050852182852283E0F874222D
:104E20006870030242C574276870030242C5742C7F
:104E30006860B474206860AF7902120408E52560E8
:104E4000030242C579001203C680A3A821A92288C3
:104E5000828983A385822185832288828983E0F9E0
:104E60001205FA1259DAEE4F70E18521828522830C
:104E7000024DE77C047D0012061212061E02423526
:104E8000E0F87420686008740A6860030242227ABD
:104E900077EFF912060C12595050030242C5740BF9
:104EA0001217ACAA82AB83EEF91203F0740B12173F
:104EB000AC126065700A740B1217AC125AE38004CE
:104EC0007C047D0012061880B179001204088A0C57
:104ED0008B0D8C0E8D0FE52560030242C51203BABF
:104EE000852182852283E064C57008A3858221859F
:104EF00083220E852182852283E0648E6003024234
:104F0000C9A385822185832279001204088A088B2F
:104F100009E52560030242C578081219CBEEF508B1
:104F200078081219CFAA0CAB0DAC0EAD0FEFF91229
:104F300006367403121777E960030242350242C550
:104F4000790012062402423574C66870097408128A
:104F500017AC7420802A74C768700974081217ACE3
:104F60007428801C74C96860030249F77409121719
:104F7000ACE054C060030242C974081217AC74302C
:104F8000F07409800874071217AC7408F01217AC9B
:104F9000AC82AD8374051217ACAA82AB8312043EB7
:104FA0000244BA7440650D7027E50EC39404E50C05
:104FB0005013C333F8E58C540248F58CE9428D4315
:104FC0009A10024235333354FCF8E58C540480E9DE
:104FD000E50C33333354F8F8E58C540848F58CE984
:104FE00042AC439A0202423574406B700CEA528D17
:104FF000E58D700F539AEF800AEA52ACE5AC70036E
:10500000539AFD120642E9600302423575250602F5
:1050100042CCA821A92288828983A3858221858305
:105020002288828983E0246B700302519624BF603A
:105030001814700302518814605314605014604DAA
:1050400014604A1460470242C57821E624FBF582C9
:1050500008E6126C0A125FB7900343123D039003F7
:10506000457401F0A3E4F0852182852283E0640A7F
:105070007012852182852283A312596F4003024258
:10508000CC023E89A385822185832280DA90034564
:10509000E02401F0A3E03400F0A821A9228882894D
:1050A00083A385822185832288828983E0242860E6
:1050B000E81460E51460E21460D31460D0125C312F
:1050C000F583E0FE74BF2EFFC3941A40030242C56D
:1050D000851882851983AA82AB83EEF91203F085C5
:1050E0001882851983125AD0644E60030250677883
:1050F00028E624F81259CC50030251A68A288B299D
:10510000851882851983125FAE85188285198312EE
:105110005A997456125AB1125A99A37408F0A3E41A
:10512000125AAA7402125AAAA3EEF08F14EF12595F
:105130009C5514FA88828983E0C0E0EAFBD0E0BB8A
:1051400000028004C313DBFC5401C0E08518828593
:105150001983E0FBA3E0F5838B82A3A3A3A3A3D0D1
:10516000E01259EFFBA3E0CB2406F582EB126C169C
:10517000125A13B800028004C333D8FCF974FFC379
:1051800099F8E05849025066900345E02402F0A3E4
:10519000E03400025066120444E91470030242C570
:1051A0001460030250677525040242CC7E02024659
:1051B00082125B8350030249FD125BB17406024602
:1051C00014A3858221858322E0F50A7427650A608D
:1051D000097422650A60030242C51203D28A0A8B4F
:1051E0000BAE0AAF0B74FF6E700374FF6F70030297
:1051F00042C5125B8350030249FD181818E0F9E517
:1052000008C398F8E50999F9E824FEF508E934FFA0
:10521000F509C3EE9508EF9509A2D265D033501A6F
:10522000EE04C0E0900340125A99D0E0125B57742C
:1052300009125B3A8E088F098015E50804C0E090DA
:105240000340125A99D0E0125B577408125B3A7807
:10525000081219CBAC21AD22126CA912047A740287
:10526000121777900340E02508F8A3E03509F912FA
:105270003D00C3EE9415EF1259525004EEFA80022D
:105280007A15AC21AD2279001209A87821E62EF515
:105290008208E63FF58302462512726170030242DE
:1052A000C5900340E0240108125B8E50030249FDC3
:1052B000900340126605123D00803E900340125F4D
:1052C000F1C3E5089AE5099B50030249FD900340AC
:1052D000125A99E50C125B3A1203BA7A107902124B
:1052E00003EA8A0CE52560D3852182852283E06567
:1052F0000A60030242CC752500852182852283A3A2
:10530000858221858322E0F50A740A650A7010EE11
:10531000F8900340E0C398148E828F830249BC74D6
:1053200027650A60067422650A7009A385822185B3
:10533000832280A474BF250AC3941A40030253C475
:10534000A3E0F8740A68600874206860030242C52C
:10535000851882851983AA82AB83A90A1203F012E9
:10536000605F60030242C5126E3E900340E028F881
:10537000A3E039F9E824F8F8E934FFF9C3E508981F
:10538000E5099950030249FD750A08850A0C85183C
:1053900082851983E0F8126E44C3E50C98E49940C5
:1053A000030252F98A828B83E0C0E0900340125AD4
:1053B00099D0E0F08A828B83A3AA82AB83125B3BF5
:1053C000050A80C77420650A60030242C50252F9CB
:1053D000900340E064217004A3E06403700A90032A
:1053E00040E4F0A3F00242C5900342E0A2E09086C0
:1053F0002C502B1219DE7C217D03900340E0C394D6
:1054000021F97A077B031206D87404121777908665
:10541000081219DE7C007D0079007A0580111219CE
:10542000DE7C217D03900340E0C39421F97A087B60
:10543000031206D87404121777900340E4F0A30215
:10544000461E7427650A60097422650A60030242D9
:10545000C512044AE970030242C5900357E0F89070
:105460000340E028FAA3E034008A82F583A3A3C3B3
:10547000E5089582E509958350030249FD9003579D
:10548000E004C0E0900340125A99D0E0125B4E2431
:10549000FE600B24FE600E24F460110242C5125F10
:1054A000BB7403800C125FBB74058005125FBB7474
:1054B00007125B4EF50875090078081219CB7C4776
:1054C0007D03126CA912047A74021217771203BAC0
:1054D000852182852283E064DF7012900340126C84
:1054E000C81270A5E8122EA1C2E0125A35900357D7
:1054F000E0F8900340E028125A790249BC79001282
:1055000004088A088B098C0A8D0BE525600302428A
:10551000C578081219C77C007D0079000247A17880
:1055200000E50CC4333354C048F50CEA14600A1487
:10553000600C24FE60100242C5430C0F800BE50C8A
:10554000D2E4F50C8003430C11EEA2E19003184065
:1055500023E4F0EEA2E0400543F32C800343F42C57
:10556000A2E0E5F192E0F5F175C200850CC5758603
:10557000000242357401F0EEA2E0400543F33880AA
:105580000343F4E0A2E0E5F192E1F5F175FA00855C
:105590000CFC75F80002423574E56860030242C5F0
:1055A000A385822185832212042CE985188285191E
:1055B00083F04403C0E074011217ACD0E01259EF3D
:1055C000D2E2F0E52560030242C51203BA123D099A
:1055D00040030242C974031217ACAA82AB831203C0
:1055E000F08A088B09AE08AF0974031217AC126079
:1055F0006560030242C5852182852283A3858221BD
:1056000085832274011217ACAC82AD838518828524
:105610001983AA82AB8312043E900318E0702374AE
:10562000031217AC125B77E84960385386F98E8213
:105630008F83E0F5C1E586A2E150FAE5C1125A1B5D
:1056400080E574031217AC125B77801353F8F98E60
:10565000828F83E0F5F9A2F950FCE5F9125A1BE8B4
:105660004970E974021217ACAC82AD837401024D2B
:105670002BAE23AF2412042CE990031AF012042C51
:10568000E990031BF0E525701B90031A125AEDAE4A
:1056900082AF8390031B125AEDAC82AD83AA23AB79
:1056A0002412043E0244BA751000751100750800FA
:1056B000750A00AE23AF247821E624FF08E6122EF7
:1056C000A164D8700575090180037509008E828F69
:1056D000837488125A02E4F0A3F0125982E4F0A312
:1056E0000E125B5B80020508852182852283E0F82B
:1056F000740A68700302588774D8687028A385827A
:1057000021858322E50960030242C5E50870030292
:1057100042C590031A125A57AE82125B5B7509019B
:10572000850A0B80157902120408EAF50BE525605D
:10573000030242C5E50870028A0AE509420B7A8035
:105740008E828F83A3A882A983E50B5A90031B60E6
:1057500005E044028003E044018E828F83F0E8FE7E
:10576000E9FF90031AE04402F88E828F83F0A3745D
:1057700068F0A30E0EAF8390031AE04401F9125AA9
:1057800009EAC313FA70B990031B125A57E8F0A341
:105790007468123D04A3AE82AF83E509700302561C
:1057A000E61203BA852182852283125B144003022C
:1057B00042C5A385822185832274091217ACAA826F
:1057C000AB83A90A1203F08A108B1174091217AC6B
:1057D000126065701974091217ACA3125FBEA3E0C2
:1057E00024F8F508FC7D007900120492800C8A826E
:1057F0008B8312730BA3F07508018E828F837488DC
:10580000125A0D8E128F131259827401125A0D9072
:10581000031AE04401FA125A0990031BE04402FB08
:10582000125A0985080A8019EB8E828F83F00EE9DF
:10583000FFEC8E828F83F0A3125FAEA30E0E0EAF2D
:1058400083850A0974FF2509F50A04603A780890EF
:10585000031AE04402FC8E828F83F0A37468125A0C
:105860000290031BE044058E828F83F0A3EAF0A32D
:105870000E0EAF8318E870D7A3A983E50A60A9903C
:10588000031BE0440180A290031BE044018E828F41
:1058900083125A0290031A125AC990031B125AC952
:1058A000E51245136024851282851383EEF0A3EF81
:1058B000F085080C750D007404780C12174EAC0CB2
:1058C000AD0DF9EEFAEFFB120492EEFCEFFDAA2308
:1058D000AB2412043EE52560030244BAE5124513E9
:1058E00070030242357B00E50833333354F8F50882
:1058F0007A018E828F83A30EAF8380267800EBC35C
:105900003348FB74075A7011EB851082851183F0C0
:10591000A38582108583117B000AEE2402FEEF34FA
:1059200000FFE508C39A50030242358E828F83E060
:1059300060CA780180C8900319744002461EEA4587
:1059400009450A450B22E624FDFA08E634FFFB224E
:10595000C3EB9400A2D265D0332279287823E7C321
:1059600096FA0809E796FB3395E0FCFD790022A33F
:10597000A3A3858221858322C3E5219523E5229572
:105980002422EE2402FEEF3400FF8E828F8322E673
:105990002AFA08E63400FB8A218B222213131354BF
:1059A0001FFA7826E62AFA08E63400FBEA2468F8AB
:1059B000EB3400F97407228A088B09AC08AD09C3DF
:1059C000EC9401ED9400A2D265D03322FA08E634BB
:1059D000FFFBC3EA9523EB952422EE24FF1EEF3450
:1059E000FFFF221270A208E6126C0AE0648F2212F6
:1059F0005AB1E0221259F9A322F08C828D83A3A31D
:105A0000A322F0A3AE82AF83228E828F83F0A30EF7
:105A1000AF8322126C64EAF8740122F0E824FF18C4
:105A2000E934FFF9A3AE82AF8322900311EAF0A319
:105A3000EBF0E52522125A40A3858221858322229C
:105A4000F085218285228322852182852283E0F8C8
:105A500074BF28C3941A22125A5B22E044028E8239
:105A60008F83F0A322FA74FFC39AFA88828983E0B5
:105A70005A4BF0900313E4F022125A7D22F8A3E06F
:105A80003400F9900340E8F0A3E92290030FE0F519
:105A900023A3E0F5242290031D125A9D22E0F81260
:105AA0005AA322A3E0F583888222125AB1125AB96E
:105AB00022F085188285198322125ABD22E0F8A3AC
:105AC000E0F5838882A3A3A322125A5B0EAF832240
:105AD000125AD422125ABDE022125C2174BF2EC386
:105AE000941A22123D24FCA3E034FFFD22125A5BDB
:105AF0007420F0A37458F0A322851882851983AC12
:105B000082AD83852882852983A3A3A3125AB9A3D2
:105B1000125B3422E0F50A74BF250AC3941A22905E
:105B2000030FE02CF8A3E03DF98823892490030FAC
