:020000040000FA
:0600000002011D0223D0E5
:03002B00021E4A68
:03003300021DCBE0
:030053000224463E
:03006B00021CE094
:03007B00021D5310
:1000830002227FE5C754F84401F5C7790122000035
:100093000080FB120086B90003020107E47921788E
:1000A30008B800028004F709D8FCE479297802B87B
:1000B30000028004F709D8FCE490028178B979073B
:1000C3008002F0A3D8FCD9FA781A90014D7A01BACC
:1000D30000028007E493A3F608DAF9900939AA82AB
:1000E300AB8390014E783479038015E493A3AC82FB
:1000F300AD838A828B83F0A3AA82AB838C828D83A8
:10010300D8E9D9E77582847583DA740312012F75F0
:100113008291758300740012012F75D00075813FA1
:10012300751881751902759F00020096C09FF59F8F
:10013300E473D09F22D083D082C09FE493C0E07445
:100143000193C0E0740293F59F22010230940100F1
:10015300001894022C940100005894104E9203004E
:10016300008C020238940300008202022C940100E6
:10017300005994107E920300000000000099038D43
:10018300037A8E908FDB8FD090408F1C90FE8D2E44
:100193009338919D915893ED8E5A90000030FF0251
:1001A3000202020202020202010D0000001001021B
:1001B30030940100000D93022C940100008D09027C
:1001C30050940100001D03022C940100008E0902CB
:1001D3004E940100000093022C940100008F090249
:1001E3004C94010000BB92022C9401000090090280
:1001F3004A94010000F891022C9401000091090235
:1002030048940100000A92022C9401000092090212
:100213004694010000E691022C9401000093090228
:1002230044940100001C92022C94010000940902E2
:100233004294010000E592022C940100009509020A
:1002430040940100009609FF000000FF0008013000
:10025300750302010600000000000000000000001A
:10026300000000000000000000000000000000008B
:1002730000FFFF0600800CE80307081308FF0000D7
:10028300B4000028002800283075A000A000A000BA
:10029300A00000080008E001F000100010001000AA
:1002A300100010001000500050005000100010000B
:1002B300D0070000000000000F00010005003075AA
:1002C30007001000010081FF00000000FF33095107
:1002D300093909FF02020208025000A0000000E8E9
:1002E300030230940100001E94022C94010000C20A
:1002F3000A0256940100005804022C94010000C322
:100303000A0228940100006E04022C94010000C428
:100313000A0224940100007004022C94010000C519
:100323000A0226940800007104022C94010000C6FE
:100333000A022A94010000C70AFF0100FF200230CD
:10034300940100001B94022C940100002B0B023E2D
:10035300940000000000023894030000BE047B0FE9
:100363007B0F7B0F7B0F7B0F7B0F7B0F7B0F7B0F3A
:100373007B0F7B0F7B0F7B0F87129F128112120162
:1003830038319403120138699503120138E9960351
:1003930012013842970312013886970312013898E5
:1003A3009703120138539803120138FE9803120180
:1003B300384C2A001201385F2A00120138112C0030
:1003C300120138B32C001201380A2D001201384CE7
:1003D3002D00120138752D00120138B02D001201C5
:1003E30038F42E00120138812F00120138433000F7
:1003F300120138413100120138AC34001201384780
:100403003500120138C93500120138973600120140
:10041300382F37001201386E3700120138A3370026
:10042300120138253800120138583800120138EB10
:100433005200120138655300120138BA53001201F9
:1004430038A75A00120138B85B00120138375C0034
:100453001201382F5D001201389A5E00120138E54F
:100463005E00120138A86000120138CD9903120111
:1004730038D79903120138159A031201385E9A038B
:10048300120138989A03120138F29A0312013813B1
:100493009B031201381C9B03120138699B03120151
:1004A30038929B031201389C9B03120138089C036A
:1004B3001201389A9C03120138E49C031201381A82
:1004C3009D03120138A69D03120138E79D03120113
:1004D300381E9E03120138309E031201384F9E03CB
:1004E300120138589E03120138259F031201382A3E
:1004F300DA0312013808D7031201389ECC03120124
:1005030038D4CC031201380ACD0312013855CE0377
:1005130012013892D903120138A8D903120138B253
:10052300D903120138FCD90312013889AE03120131
:10053300389EAE031201384EAF031201388EAF035B
:10054300120138A7AF03120138E2AF031201382FAB
:10055300B00312013861B003120138A3B0031201D2
:1005630038A4B20312013816B303120138ADFF02E7
:10057300120138BFFF0212013854C5031201387942
:10058300C503120138A3C5031201387F7F0012018E
:1005930038EEFF021201382CFF011201383CFF0133
:1005A30012013845FF01120138D6FF011201380448
:1005B300D60312013889D603120138EFD60312018C
:1005C30038F87F0012013865CA03120138F4CB03EF
:1005D30012013855CC031201389BCC031201382386
:1005E300B303120138E0B30312013811B40312014B
:1005F3003828B4031201383CB40312013885B4031C
:1006030012013888B403120138ECB4031201382FF5
:10061300B50312013860B503120138E4B5031201C2
:10062300382DB60312013859B60312013883B603C5
:10063300120138FEB60312013854B703120138EE23
:10064300D10312013840D203120138CAD203120176
:100653003831D30312013820C8031201384AC803C2
:1006630012013818C903120138F3C9031201387D86
:10067300F00212013844F1021201387BF102120137
:1006830038A5F10212013805F2021201385BF202B9
:10069300120138C0F20212013858F302120138670E
:1006A300F402120138FEF5021201388BF602120130
:1006B30038F2F60212013809F70212013823F80260
:1006C300120138008002120138A483021201381289
:1006D30086021201386C86021201388B86021201DF
:1006E300380987021201388288021201386E8902A2
:1006F300120138F18D02120138C18E0212013868DD
:100703008F02120138A68F021201388FCE03120115
:1007130038A6CE03120138D7CE0312013812CF0305
:100723001201383CCF0312013866CF031201387D22
:10073300CF0312013894CF03120138ABCF03120158
:1007430038D4CF03120138E7CF03120138FDCF03AA
:1007530012013810D00312013837D0031201380EBA
:10076300C10212013812C2021201384AC202120136
:10077300386DC20212013878C2021201389BC202DC
:10078300120138AAC3021201387FC402120138FAD7
:10079300C40212013882C502120138BDC50212011A
:1007A30038F4C50212013882C6021201385BC7024F
:1007B300120138BBC702120138C6C70212013845FD
:1007C300C80212013848C8021201384BC80212018C
:1007D30038DAC802120138DDC8021201380DC90225
:1007E30012013837C90212013825CA02120138D75B
:1007F300CA0212013812D5021201380AD6021201B6
:10080300383ED602120138C0D60212013808D70288
:100813001201386CD702120138F9D702120138B32A
:10082300D802120138C2DB021201384DDD02120177
:100833003870DD02120138E68D031201380E8E0383
:100843001201383C8E03120138738E03120138D122
:100853008E031201385F9003120138AA900312012C
:1008630038F590031201383591031201387B910357
:10087300120138A9910312013866920312013870EC
:1008830092031201387D9203120138B092031201D0
:10089300387C9303120138889303120138A0930321
:1008A300120138AA930312013806D8031201381E25
:1008B300D80312013836D8031201384ED803120177
:1008C30038B09E021201388C9F02120138F0A00248
:1008D30012013847A102120138C8A102120138B827
:1008E300A20212013805A3021201388BA3021201DE
:1008F30038BDA302120138D1A50212013813A60292
:1009030012013831A602120138B4A6021201388846
:10091300A70212013850A802120138008003120105
:1009230038D380031201387C8103120138CF81034D
:100933001201387F82031201380B8303120138F747
:100943008303120138268403120138398503120107
:1009530038818503120138568603120138928603C3
:10096300120138AE8603120138DC7B00120138F223
:100973007B00120138187C00120138347D0012010B
:10098300383E7D00120138737E001201386B7F0000
:10099300120138757F0012013899A403120138C976
:1009A300A503120138FCA50312013846A603120160
:1009B300380DA803120138CFE10112013839E201E1
:1009C30012013898E30112013822E401120138328E
:1009D300E4011201385FE401120138BBE4011201A2
:1009E30038C2E5011201388CE601120138ECE70147
:1009F3001201382FE801120138D4E801120138211D
:100A0300E90112013847E90112013855EB011201DE
:100A1300385AEB011201385FED01120138ACED01D8
:100A23001201381FEE0112013852EE01120138F49F
:100A3300EE011201389DEF01120138D5EF011201C9
:100A430038D8EF0112013820F00112013860F001AB
:100A5300120138B7F00112013881C203120138992B
:100A6300C203120138E1C203120138F7C2031201B3
:100A7300383EC30312013852C403120138DFC403E2
:100A83001201382AC503120138706100120138AB14
:100A93006100120138F06100120138B062001201E6
:100AA300383F6300120138C563001201382A64001D
:100AB3001201385664001201388F6400120138CDD8
:100AC3006600120138B16800120138976A001201FA
:100AD30038DA6B00120138286E001201383A6F00C1
:100AE300120138857000120138957100120138B275
:100AF3007100120138ED71001201380F72001201FA
:100B030038727200120138337700120138C8770047
:100B13001201381A7800120138387800120138921D
:100B230078001201387B7900120138F17A00120142
:100B330038757B00120138539F031201385D9F0300
:100B4300120138A09F03120138BB9F031201384BD7
:100B5300A00312013873A003120138B0A0031201DD
:100B630038E7A00312013810A10312013885A1034D
:100B73001201389AA103120138AFA103120138D12F
:100B8300A1031201381AA2031201383FA203120172
:100B93003879A203120138A5A203120138D3A203A4
:100BA3001201381EA303120138C8A303120138D35C
:100BB300A3031201381CA40312013846A403120133
:100BC3003871A403120138EBD403120138B58F0234
:100BD300120138E38F0212013831910212013811E8
:100BE3009202120138309202120138AD92021201C0
:100BF30038F09202120138469402120138F6940238
:100C03001201382F9702120138B699021201385790
:100C13009A021201384D9B021201384A9C021201BA
:100C230038A49D021201382F9E0212013890D3037B
:100C3300120138F9D3031201384DD4031201387469
:100C4300D403120138A5D403120138A7B703120144
:100C53003814B8031201385BB80312013873B903AF
:100C63001201386FBA0312013852BB031201381450
:100C7300E80212013856E80212013828E90212018B
:100C83003801EA02120138FBEA02120138DDEB02F5
:100C930012013846EC02120138FCEC0212013870E2
:100CA300ED02120138DCED0212013805EE021201E9
:100CB300387FEE0212013818EF021201387DEF027D
:100CC30012013892EF02120138D8EF02120138F103
:100CD300EF0212013856F00212013859F0021201E4
:100CE30038AEBF03120138D6BF0312013814C00354
:100CF300120138D2C00312013839C1031201385529
:100D0300C1031201387DC103120138ADC1031201C1
:100D130038BCC10312013839C20312013837A901A3
:100D230012013808AB0112013819AD01120138550F
:100D3300AD0112013882AD011201386BAE0112010F
:100D430038B2AE01120138F3AE0112013820AF01FF
:100D53001201386BAF01120138B2AF01120138E052
:100D6300AF0112013832B001120138C2B0011201D1
:100D7300385FB3011201387AB501120138B8B501F1
:100D83001201382DB70112013872B701120138561A
:100D9300B8011201385DBA01120138D4BA01120147
:100DA300381EBB011201383FBB01120138E1BB0100
:100DB3001201383DBD011201389BDE021201381ABF
:100DC300DF02120138DCE402120138EBE502120102
:100DD3003853E702120138EAE7021201385B940143
:100DE300120138A49401120138D19401120138047C
:100DF30095011201381195011201381D9501120157
:100E0300382F950112013816960112013874960194
:100E1300120138A99601120138EC970112013839F1
:100E23009801120138A598011201384E9901120157
:100E330038FC99011201385A9A01120138CA9A01F1
:100E43001201382A9B01120138959C01120138A224
:100E53009C01120138ED9C011201384A9D011201D7
:100E630038099E01120138369E01120138AE9E01E7
:100E73001201380A9F01120138549F01120138EA06
:100E83009F01120138B5A0011201386AA1011201B4
:100E930038DFA1011201383AA201120138AAA201D6
:100EA300120138D5A20112013877A3011201388744
:100EB300A401120138C7A401120138E4A4011201EC
:100EC3003803A5011201384AA5011201386FA501A3
:100ED300120138A5A5011201381FA60112013860BD
:100EE300A60112013884A7011201382BA8011201AF
:100EF3003882A801120138ECA80112013805A901B2
:100F030012013848CB021201389BCB02120138A7D9
:100F1300CB021201387CCC02120138A3CC0212019D
:100F230038DECC021201384ACD0212013886CD02D6
:100F3300120138BFCD02120138D7CD021201382C6D
:100F4300CE0212013845CE021201388ECE021201B2
:100F530038A1CE02120138BBCE02120138D1CE0223
:100F630012013804D0021201384BD1021201384D5C
:100F7300D20212013847D302120138FAFF011201DB
:100F830038C0A90312013856AA031201380DAB0366
:100F930012013837AB031201382AAD03120138525C
:100FA300AE03120138A6BD01120138DABD011201E8
:100FB30038C4C60112013818C80112013811C90119
:100FC30012013891CA0112013873CB01120138ADF5
:100FD300CB01120138D0CB0112013812CC0112011E
:100FE300381BCC0112013865CC011201386FCC01DA
:100FF30012013819CD01120138F2CD011201384620
:10100300CE01120138A8CE01120138FBCE01120124
:10101300382ACF0112013867CF0112013842D001BB
:10102300120138A9D301120138AFD30112013831AB
:10103300D901120138AADD0112013880E101120140
:101043003814BC031201388ABC03120138A0BC0354
:10105300120138E1BC031201381BBD03120138949D
:10106300BD03120138CFBD0312013842BE03120182
:101073003880BE0312013889BE0312013895BE03BE
:10108300120138B1BE03120138DCBE03120138F27B
:10109300BE031201381BBF031201387EBF031201C6
:1010A3003823870312013836870312013850870328
:1010B300120138798703120138BC8703120138FB08
:1010C30087031201383988031201389E88031201FD
:1010D30038B38803120138BE8803120138CB880362
:1010E300120138E28803120138F08803120138FF35
:1010F3008803120138148903120138298903120164
:1011030038348903120138408903120138538903A3
:101113001201385E890312013881890312013828CC
:101123008A03120138388A031201384D8A031201E7
:1011330038678A03120138828A031201389F8A03AF
:10114300120138AA8A03120138668B03120138523E
:101153008C03120138778C03120138828C0312013D
:1011630038978C03120138AB8C031201380C8D03B2
:10117300120138128D03120138188D031201381E23
:101183008D03120138368D03120138698D03120164
:1011930038A9F10112013835F20112013894F30133
:1011A300120138B5F501120138A1F601120138D642
:1011B300F601120138F8F601120138A7F7011201FE
:1011C300389FF901120138C8F9011201385AFA019E
:1011D3001201388CFA0112013899FA01120138F020
:1011E300FA0112013816FB0112013883FD011201C5
:1011F3003886FE01120138DEFE0112013892AA027E
:101203001201389CAA02120138BEAA02120138CA7E
:10121300AA0212013863AC0212013892AC02120125
:1012230038AEAD0212013807AE021201387BAF02AD
:10123300120138E8AF0212013823B00212013862FA
:10124300B0021201381BB30212013835B302120186
:1012530038C1B302120138CFB30212013828B402E5
:1012630012013836B402120138A9B4021201380D42
:10127300B50212013857B502120138E0B502120166
:101283003802B60212013828B8021201383DBB02F7
:1012930012013855BC0212013808BD02120138EAA6
:1012A300BD0212013849D0031201386ED003120176
:1012B30038E0D00312013861F8021201386AF802EB
:1012C30012013873F8021201384AF902120138FB8D
:1012D300FA0212013831FB021201386BFB021201D0
:1012E30038A1FB02120138DBFB021201380FFC02AA
:1012F3001201383BFC0212013884FC02120138BE91
:10130300FC0212013807FD021201385FFD021201CF
:101313003894FD02120138EFFD0212013829FE0252
:101323001201387AFE02120138B0FE02120138EAC5
:10133300FE021201380DFF02120138E7D803120131
:101343003813D9031201386ED90312013878D9033F
:1013530012013888D903120138DCDA03120138DCB0
:10136300FF01E76670100809E766700A0809E76677
:1013730070040809E76622E066701008A3E066704F
:101383000A08A3E066700408A3E06622E49366708B
:10139300130874019366700C087402936670050851
:1013A3007403936622C3E7960809E7960809E7964C
:1013B3000809E796A2D265D03322C3E09608A3E0DA
:1013C3009608A3E09608A3E096A2D265D03322C084
:1013D30008C3E096F50808A3E096420808A3E09640
:1013E300420808A3E0964208A2D265D033E508700C
:1013F30001D3D00822C3E7960809E7960809E796C0
:101403000809E79622C3E09608A3E09608A3E096AE
:1014130008A3E09622C008C3E096F50808A3E09667
:10142300420808A3E096420808A3E0964508700125
:10143300D3D00822C3E493960874019396087402E8
:101443009396087403939622080808EAC0E0EBC059
:10145300E086F0E7A4FA180986F0E7A42AFA180947
:1014630086F0E7A42AFA180986F0E7A42AFA19866F
:10147300F0E7A4FBE5F02AFA190886F0E7A42BFBB2
:10148300E5F03AFA190886F0E7A42BFBE5F03AFAFF
:1014930018180986F0E7A4C5F02BFBE43AFA1908FB
:1014A300E7C5F0C6A426F6E5F03BFBE43AFA188656
:1014B300F0E7A4F6E5F00826F6E43B08F6E43A087C
:1014C300F6D0E0FBD0E0FA22E4CFC0E0E4CEC0E007
:1014D300E4CDC0E0E4CCC0E075F020C3E633F60809
:1014E300E633F608E633F608E633F6181818EC3355
:1014F300FCED33FDEE33FEEF33FFC3EC9709ED97BD
:1015030009EE9709EF97191919400FFFEC97FC099A
:10151300ED97FD09EE97FE191906D5F0BEECF70914
:10152300EDF709EEF709EFF7191919D0E0FCD0E050
:10153300FDD0E0FED0E0FF221215A31818181214F4
:10154300CB12159219191922121592191919080893
:1015530008E618181820E7E01214CB1215A3181880
:101563001822090909E719191920E7DC080808E610
:1015730018181820E7030214CB1215A31818181211
:1015830014CB1215A318181812159219191922E45D
:10159300C397F709E497F709E497F709E497F72264
:1015A300E4C396F608E496F608E496F608E496F69D
:1015B300226017080808C6A2E713C618C613C61880
:1015C300C613C618C613C6D5E0E922601608080874
:1015D300C6C313C618C613C618C613C618C613C681
:1015E300D5E0EA227009080808226016181818C600
:1015F300C333C608C633C608C633C608C633C6D502
:10160300E0EA22E627F60809E637F60809E637F6A0
:101613000809E637F622E026F608A3E036F608A323
:10162300E036F608A3E036F622E026F008A3E0361B
:10163300F008A3E036F008A3E036F022C3E697F6FD
:101643000809E697F60809E697F60809E697F622E9
:10165300C3E096F008A3E096F008A3E096F008A391
:10166300E096F022E657F60809E657F60809E6572A
:10167300F60809E657F622E056F608A3E056F60800
:10168300A3E056F608A3E056F622E056F008A3E0DE
:1016930056F008A3E056F008A3E056F022E647F61A
:1016A3000809E647F60809E647F60809E647F62279
:1016B300E667F60809E667F60809E667F60809E645
:1016C30067F622E0F608A3E0F608A3E0F608A3E035
:1016D300F622E6F008A3E6F008A3E6F008A3E6F096
:1016E30022E0FAA3E0FBA3E0FCA3E0FD22EAF0A3DF
:1016F300EBF0A3ECF0A3EDF022CAC0E0E6F0A30800
:10170300DAFAD0E0FA22CAC0E0E0A3C582CCC582EF
:10171300C583CDC583F0A3C582CCC582C583CDC5A2
:1017230083DAE6D0E0CA22C3E498F8E499F9121701
:101733006B8026C3E49AFAE49BFBE920E7E91217DE
:101743006BE498F8E499F922C3E498F8E499F91260
:10175300176BE498F8E499F9C3E49AFAE49BFB2243
:10176300EB20E7CFE920E7E0B90010BB0008E88AE7
:10177300F084F8AAF022E4FBC8FA22EB70227B1073
:10178300C833C8C933C9335007C39AC3DBF28006D1
:101793009A50012ADBEAC833F4C8C933F4C9FA22E0
:1017A30075F008E4C833C8C933C933C99AC99B5013
:1017B30004C92AC93BD5F0ECFBC833F4C8E4C9FA21
:1017C30022600D08C6A2E713C618C613C6D5E0F3F8
:1017D30022600C08C6C313C618C613C6D5E0F4228C
:1017E300700422600D18C6C333C608C633C6D5E0DD
:1017F300F41822251810AF08F518400215198008AF
:10180300F51840021519D2AF22C0D0251810AF0821
:10181300F518500205198008F51850020519D2AFC2
:10182300D0D0222518F58210AF08F51840021519FB
:101833008008F51840021519D2AF8519832225189F
:10184300F582E43519F58322E4732518C582C0E0D7
:10185300E51934FFC583C0E0E518C3958224F81069
:10186300AF088583198582188008858319858218B6
:10187300D2AFCEF0A3E520F0A37808E608F0A3DE0C
:10188300FAEFF0A3E58124FAF8E608F0A3E608F0FE
:10189300A3E608F0A30808E608F0A3E608F0A315FA
:1018A300811581D0E0FED0E0F8158115811581E81E
:1018B300C0E0EEC0E0222518C582C0E0E51934FF80
:1018C300C583C0E0E518C3958224F910AF0885836A
:1018D300198582188008858319858218D2AFCEF0C6
:1018E300A3E520F0A37808E608F0A3DEFAEFF0A35F
:1018F300E58124FBF8E608F0A3E608F0A30808E670
:1019030008F0A3E608F0A315811581D0E0FED0E02E
:10191300F815811581E8C0E0EEC0E02285198385C2
:101923001882E0A3FEE0A3F5207808E0A3F608DF21
:10193300FAE0A3FFE0A3C0E0E0A3C0E0E0A3C0E0BF
:10194300E0A3C0E0E0A3C0E010AF08858218858360
:10195300198008858218858319D2AFD083D082027B
:101963000135851983851882E0A3FEE0A3F520786D
:1019730008E0A3F608DFFAE0A3FFE0A3C0E0E0A3DA
:10198300C0E0E0A3C0E0E0A3C0E010AF0885821888
:101993008583198008858218858319D2AFD083D0B7
:1019A3008222C0D02518C582C0E0E51934FFC58363
:1019B300C0E0E518C3958224F310AF088583198529
:1019C30082188008858319858218D2AFC8F0A3E9ED
:1019D300F0A3EAF0A3EBF0A37908E709F0A3D8FAA0
:1019E300ECF0A3EDF0A3EEF0A3EFF0A3D0E0F0A3AF
:1019F300D0E0F0A3D0E0F0A3E520F0A3E5F0F0A35E
:101A030022851983851882E0C0E0A3E0F9A3E0FAF8
:101A1300A3E0FBA37808E0F608A3DFFAE0FCA3E069
:101A2300FDA3E0FEA3E0FFA3E0C0E0A3E0C0E0A3CA
:101A3300E0F5D0A3E0F520A3E0A3F5F010AF08850F
:101A430083198582188008858319858218D2AFD0BF
:101A530082D083D0E0F8D0E0327404800674028030
:101A6300027401C0E0F404121826D0E01216FC221E
:101A73007404800474028000CCC0E0EDC0E0E5187B
:101A8300C39CCCAD1950011D10AF068C188D198065
:101A9300068C188D19D2AF121709D0E0FDD0E0FCE7
:101AA30022D083D082E9C0E0E493A3C386F0C5F0DB
:101AB30095F0F908E493A386F0C5F095F0700BE474
:101AC30093A3C3994005E9048002A3E475F002A43B
:101AD3002582F582E5F03583F583D0E0F9E493A31D
:101AE300C0E0E493C0E022D083D082E9C0E0E49375
:101AF300A3C386F0C5F095F0F908E493A386F0C577
:101B0300F095F0702408E493A386F0C5F095F07087
:101B13001908E493A386F0C5F095F0700E08E493DA
:101B2300A3C3994007E9048004A3A3A3E475F002C7
:101B3300A42582F582E5F03583F583D0E0F9E493BB
:101B4300A3C0E0E493C0E022D083D082ECC0E0EDF8
:101B5300C0E0E493A3FCE493A3FDED4C600D121BE2
:101B630097EC24FFFCED34FFFD80EFE493A3FCE44A
:101B730093A3FDED4C600D121BD6EC24FFFCED345A
:101B8300FFFD80EFD0E0FDD0E0FCE493A3C0E0E4F0
:101B930093C0E022C0E0C3E49396087401939618BF
:101BA300400FE49366700808740193661870007020
:101BB30019A3A3C3E49396087401939618A3A340AF
:101BC3000DD0E0D0E0D0E0021B87A3A3A3A3A3A37F
:101BD300D0E022C0E0C0F088F0E493667008087497
:101BE300019366187000A8F0A3A3700BD0F0D0E0A7
:101BF300D0E0D0E0021B87A3A3D0F0D0E022D083B3
:101C0300D082ECC0E0EDC0E0EEC0E0EFC0E0E493D2
:101C1300A3FCE493A3FDE493A3FEE493A3FFEF4E9D
:101C23004D4C6015121C7DEC24FFFCED34FFFDEEE2
:101C330034FFFEEF34FFFF80E5E493A3FCE493A3BA
:101C4300FDE493A3FEE493A3FFEF4E4D4C60151206
:101C53001CBAEC24FFFCED34FFFDEE34FFFEEF3441
:101C6300FFFF80E5D0E0FFD0E0FED0E0FDD0E0FC58
:101C7300E493A3C0E0E493C0E022C0E0C0F088F0A6
:101C8300121437A8F0400712138FA8F0701AA3A3F9
:101C9300A3A3121437A8F0A3A3A3A34013D0F0D097
:101CA300E0D0E0D0E0021C67A3A3A3A3A3A3A3A354
:101CB300A3A3D0F0D0E022C0E0C0F088F012138FCD
:101CC300A8F0A3A3A3A3700BD0F0D0E0D0E0D0E0A2
:0A1CD300021C67A3A3D0F0D0E022AA
:101CE000C0E074F01219A5A2AFE433FFD2AFE589CA
:101CF000F8E5AB58F50A6051F4F589C2C57E008E4F
:101D000008750900740278081217E3121DC6C3E8AB
:101D10009408E99400502BE85407F87401B80002C5
:101D20008004C333D8FC550A601875080075090192
:101D3000EE78081217E3AA08AB09900281E0F912C5
:101D400004C50EEEC3940440B6EFA2E092AF7F0349
:101D5000021A04C0E074F01219A5A2AFE433FFD256
:101D6000AFE58AF8E58D58F50A6059F4F58AC2EBBB
:101D70007E008E08750900740278081217E3121DA0
:101D8000C6E82400FAE934FFFBC3EA9408EB9400A8
:101D9000502BE85407F87401B800028004C333D80C
:101DA000FC550A6018750800750901EE78081217CD
:101DB000E3AA08AB09900281E0F91204C50EEEC354
:101DC000940440AE8083121E33F922C0E074F012F6
:101DD00019A5A2AFE433FFD2AFE58BF8E5AC58F517
:101DE0000A604DF4F58BC2E87E008E087509007418
:101DF0000278081217E3121E33C39402402BE854F2
:101E000007F87401B800028004C333D8FC550A6097
:101E100018750800750901EE78081217E3AA08ABD7
:101E200009900281E0F91204C50EEEC3940440BA91
:101E3000021D4974502508F58274033509F583E0C5
:101E4000F8A3E022C2AF02000022C0E0C0D0E8C088
:101E5000E0E9C0E0E5A8D2AFC2C7751A00A2E7A2C8
:101E6000E792AFD0E0F9D0E0F8D0D0D0E03274F50E
:101E70001218B9EAFEEBFFEE2434F8EF3400F988CB
:101E8000088909EE2435121F9AF8EE2437121F9A9A
:101E9000F50AEC850AF0A4FCAAF0850AF0EDA42A64
:101EA000FDE82CF8E43DF97A257B0012176BEA85F2
:101EB0000882850983F074075AF87401B80002801B
:101EC00004C333D8FCFBEA131313541FF8EE28F8AD
:101ED000EF3400F9E8245DF582E9121F9D5B600391
:101EE000EA801CEE2436121F9AF5F0EA84A8F0EE80
:101EF00028F8EF3400F9E82438F582E9121F9DF93B
:101F00007F0402196574F51218B9EAFEEBFFEE249E
:101F100034121F9AC0E0EE2435F582EF3400F583C9
:101F2000D0E0F08E828F83A3A3A3A3A3E0FAA3E063
:101F3000FB8E828F83A3A3A3A3A3A3A3E0FCA3E0B0
:101F4000FDECC39AF50AED9BF50BEE247FF508EF47
:101F50003400F509850882F583E06401702BEE24D6
:101F600080F582EF3400F583121A77121FA37402F2
:101F700012180CE960137C817D06EEFAEFFB120E5D
:101F8000A3850882850983E4F0AC0AAD0BEEFAEF75
:101F9000FB121E6E122A35021F00F582EF3400F587
:101FA00083E022C082C083851882851983E0F8A36C
:101FB000E0F9C3EA9CEB9D5010C3EC98ED99401BEF
:101FC000C3EA98EB995014800EC3EA98EB99400746
:101FD000C3EC98ED994004790180027900D083D058
:101FE0008222EAC39CFAEB9DFB2274ED1218B99091
:101FF0000547E064086005E06407702C9061C8E064
:102000006026900575E0F874FF68601CE875F003C1
:10201000A4C8AAF02AF9747728FE740539FF8E82C5
:102020008F83A3A3A3E07005790002218AEE2468C0
:10203000F510EF3400F511906060E0851082851195
:1020400083F0750A01750B07750800750900E5D95D
:1020500014F50EE5D95403F50F601CEE2482F50C3F
:10206000EF3400F50D7403650F6058E50E6013EE54
:102070002467121F9A700B793DEEFAEFFB120EC720
:1020800080A69006FCE064016026850C82850D83A5
:10209000E06004780480027800850E08E508C398A3
:1020A000FA95E0FB120D2F8A088B09EA45097006A4
:1020B000121173022028850C82850D83E070048A3A
:1020C0000A8B0B78008016E5D9C0E08812E50A2556
:1020D00012F582E50B3400F583D0E0F008E8C395F3
:1020E0000E40E4850C82850D83E0602874FC250E8B
:1020F000F50E780A121A60AC0EA90FEEFAEFFB1279
:102100000F75740212180CE9700AAA08AB091206BE
:10211000450220777403650F6058850E0C750D001D
:10212000780C121A60AC0AAD0BAA08AB09120F3971
:10213000740212180C851082851183E0F87480688F
:102140007005750C7F8002880CE50CF50A780A1280
:102150001A64E50FF50A780A121A64A90EAC08ADE4
:1021600009900575E0FA7B00120BC7740212180C77
:102170008013900547E06408600BAC0AAD0BEEFAE3
:10218000EFFB12102F12117F79017F0C0219657479
:10219000F31218B974FC1217F6EAFEEBFF8908A2D5
:1021A000AFE433F509C2AFEE2463F50AEF3400F56E
:1021B0000B8010AA0AAB0B120EF11206459006888E
:1021C000E004F0850A82850B83E0F8A3E0F9E84992
:1021D000602FE82402FAE93400FBEA2402F50CEB54
:1021E0003400F50D780C121A608A828B83E0FCA310
:1021F000E0F9EEFAEFFB120EE5740212180CE9603A
:10220000B2900688E06057900689E0F8900688E072
:10221000C398500C74026508704490068AE0603ED2
:102220008E828F83A3A3A3A3E085188285198312CE
:10223000226E7402121841E812226E900687E0287E
:10224000F07402121841AC82AD838518828519831F
:10225000AA82AB837901120BD3900688E4F0E509DA
:10226000A2E092AF740412180C7F06021965F0A365
:10227000E4F0900688E0F8228521878522C622C0F6
:10228000E074EF1219A5A2AFE433FEC2AF759B0054
:10229000906182E0A2E05012E591A2E0500C7591AD
:1022A000FE740165217003121FEAE0A2E55051E5BA
:1022B00091A2E5504B7591DF900547E064076005FA
:1022C000E06408702374016521703579019005750B
:1022D000E0FA75F003A4CAA8F028FB74772AFA7410
:1022E000053BFB12218F8018E0640D701390056987
:1022F000E004F064287002E4F07A00E0F91211853D
:10230000906182E0A2E640030223A6E591A2E640A6
:10231000030223A67591BF900547E064057008127B
:10232000107112107D80031210777521001210FBBE
:10233000E9900548F079001210DD120E017A017B58
:1023400000900546E0F91204C5907803E0644270FD
:1023500055900700E014F0704DC2AF12235E007874
:102360002AD0E0F618D0E0F6E59F5407700575090D
:10237000FF800375097FC4C0E07829E6F50808E608
:102380005509F509740B78081217D4D0E02508F820
:10239000906270E0A2E740F8E8C333906272F09078
:1023A0006270E0D2E0F0906181E0A2E35009E5E9DB
:1023B000A2E3500375E9F7A3E0A2E75009E591A273
:1023C000E7500375917FEEA2E092AF7F04021A04FA
:1023D000C0E0C0D0C082C083906183E0A2E0500919
:1023E000E5BFA2E0500375BFFEE0A2E15009E5BFE2
:1023F000A2E1500375BFFDE0A2E25009E5BFA2E2F1
:10240000500375BFFBE0A2E35009E5BFA2E3500310
:1024100075BFF7E0A2E45009E5BFA2E4500375BF21
:10242000EFE0A2E55009E5BFA2E5500375BFDFE08C
:10243000A2E65009E5BFA2E6500375BFBFD083D026
:1024400082D0D0D0E032C0E074F21219A5E5A7A284
:10245000E4500FE5A1A2E4500953A7EF75A1EF12D4
:10246000249AE5A7A2E5500CE5A1A2E5500653A7E2
:10247000DF75A1DFE5A7A2E15009E5A1A2E15003C4
:1024800075A1FDE5A7A2E2500CE5A1A2E25006531A
:10249000A7FB75A1FB7F01021A0474F81218B97525
:1024A0002101900547E0640670077A007B00121056
:1024B00059A2AFE433FED2AF90054DE0640170182D
:1024C0007A207B00900546E0F912054F7A207B00C8
:1024D000900546E0F91204CB906182E0D2E6F090DC
:1024E00006FDE0602185C622801690054CE064015F
:1024F0007008E5C654F84405F5C653BEFC122278B0
:102500007401652160E4EEA2E092AF7F01021965DB
:102510008E238F24858228858327851882851983B9
:10252000E0CEA3E0CF852882852783EBC9EAC8EDFA
:10253000CBECCA75F010C3E833C8E933C9EA33CA33
:10254000EB33CBC3EA9EF526EB9FF525B35004ABE6
:1025500025AA26EC33CCED33CDD5F0DAAE23AF246B
:102560002274E91218B974FA1217F6EAFEEBFF8C1E
:10257000088D09900547E024F7C3940550067510AF
:102580000102268C120FCF8A0A8B0BEA450B7003CF
:1025900002268912108F8A0C8B0D12108FEA650C9F
:1025A0007003EB650D60ECEEFCEFFD85188285197C
:1025B00083AA82AB83121095850A82850B83A3A31D
:1025C000780C1216C69093C0780C12167A85188271
:1025D00085198378141216C69093C0781412167A4F
:1025E000780C79141213F8501F780C791412163FD6
:1025F000909374780C1214184047850C10850D11B7
:10260000850E12850F1380459093748514108515DF
:10261000118516128517137810790C12163F781051
:10262000121418501C7510007511007512007513E6
:10263000017810791412163F7810790C1216068062
:102640000C7510017511007512007513007409786E
:10265000101215E7909370780C1216C67810790C4A
:102660001214CB900547E06408600AE06406600538
:10267000E06405702090936C781012141850169036
:1026800093687810121619800C751000751100757A
:10269000120075130085088285098378101216D5FB
:1026A000740612180C7F1002196574F71218B9120B
:1026B00010A79006FBE064017010906245E4F0A35F
:1026C000F053F4F343FE0C5390F3121047E5C65455
:1026D000804449F5C6E59E547F644970F890618551
:1026E000740FF09006F9E0F47002A3E0602C750816
:1026F000017509009006F9E078081217E3E508F47F
:10270000FAA3E0600814600A14600C800DEA52809D
:102710008008EA52908003EA52A079007F020219F1
:102720006574F71218B9E9FEEAFF74016E700C7A4D
:10273000807B00900546E0F91204C5902A44E4939A
:10274000F46008E493F9120DE3800953C680E59E16
:10275000547F70FA12104D9006FBE0640170031272
:102760000E199006F9E0F47002A3E0602A750801E2
:102770007509009006F9E078081217E3AA08A3E0AB
:10278000600814600A14600C800DEA42808008EA38
:1027900042908003EA42A0120FCF8A088B09A80852
:1027A000A909E8496017E5E170FCE82414F582E91D
:1027B0003400F583E0F874FF68600288E174016F0B
:1027C000700A7A01900546E0F912051F02271C7471
:1027D000F11218B98A088B098C0A8D0B9093C07876
:1027E0000812167A740F121841780C1216C69093BC
:1027F000C0780C12167A7808790C1213F89093743A
:1028000050107808790C12163F78081214184014EA
:10281000800E780C790812163F780C1214185004A8
:102820007901800279007F0802196574ED1218B9E8
:102830008A088B098C0A8D0B9093C0780812167A3F
:102840007413121841780C1216C69093C0780C12AB
:10285000167A780C79081213F840117808790C125E
:10286000163FAA08AB09AC0AAD0B802275100075A3
:1028700011007512007513017810790C12163F784B
:10288000107908121606AA10AB11AC12AD137F0C0A
:102890000219659093C078081216C68A828B8378D5
:1028A0000812168D7F0402196574F51218B98C820E
:1028B0008D8378081216C68A828B83780812165385
:1028C0001228FDC3E098F0A3E0991228EF401E9073
:1028D000936478081216C68A828B83780812162CA5
:1028E0008E828F83E02420F0A3E0344EF080A4F0A9
:1028F0008E828F83C3E09420A3E0944E22EA2404C6
:10290000F8EB3400F9E8FEE9FF8C828D83A3A3A3E2
:10291000A3E0F8A3E0F98E828F832274F51218B930
:10292000E9FE90069CE0FAA3E0FBEEC333F8E43343
:10293000F9746E28F582749239F583E02AF508A3BC
:10294000E03BF5097808121A609093D41216E4124D
:102950002510740212180C8A088B098C0A8D0B74CE
:102960001078081215CEAA08AB097F040219657405
:10297000F11218B98A0C8B0D8C0E8D0F740F121872
:1029800041E0FAA3E0FB7411121841E0F508A3E05E
:10299000F5097808121A60EA2401F508EB3400F50D
:1029A00009E4F50AF50B780C790812144B9093D0D2
:1029B00078081216C6780C790812144BAA0CAB0DC5
:1029C000AC0EAD0F122510740212180C8B09EA45DB
:1029D0000960047A0180027A00EC2AFCED3400FDE3
:1029E0007413121841E0F8A3E0F9E8FEE9FFECF8EF
:1029F000EDF97A717B0212176B88088909E4F50AF0
:102A0000F50B8E828F8378081216D5ECF8EDF97AE3
:102A1000717B0212176B8A088B09740578081217EC
:102A2000E38E828F83A3A3A3A3E508F0A3E509F0B7
:102A30007F08021965C082C083E9906000F0D083EE
:032A4000D082221F
:102A4400FFFFFFFFFFFFFFFFC082C083800312511F
:102A54007A122D03642060F602376774F412184D5D
:102A64009002AD125082FCA3E0801BA3AA82AB8328
:102A74008A828B83E0F50A7420650A60EE74096526
:102A84000A60E8EAFCEBFDECFAEDFB8A828B83E05A
:102A940075F00D84E5F033FEE433FF746F2EF58298
:102AA40074093FF5831250BC8004ECFAEDFB8A8272
:102AB4008B83E0F50A7427650A60067422650A7040
:102AC4003B88828983E50A122C0A8A828B83A3AA13
:102AD40082AB838A828B83E0FCA3AA82AB83888245
:102AE4008983122C0AE50A6C609980E7AE08AF0965
:102AF4008A828B83A3AA82AB83E0F50A8E828F83BA
:102B0400A38582088583098E828F83E0650A60DC51
:102B1400E0F50BC3948040351251365008122C0353
:102B2400700318A98388828983E50B122C0A8E828C
:102B34008F83E064806003022A7485088285098398
:102B4400E088828983F0A308A983022A74E50AC372
:102B5400950B50127420650A600C7409650A6006AE
:102B6400740A650A7042EEFAEFFB8A828B83A3AE85
:102B740082AF838A828B83E0C3948040E9EE24FF92
:102B8400EF125917E0648070088E828F83A30EAF12
:102B9400838E828F83E06003022AAE800B88828951
:102BA40083E50AF0EAF8EBF98C828D83E0F50A8C70
:102BB400828D83A3AC82AD8388828983A3AA82ABEE
:102BC4008374BF250AC3941A40D37409650A600646
:102BD4007420650A70121251365018122C036013B7
:102BE400888289837420800688828983E50AF0EAD2
:102BF400F8EBF9740A650A7003025C17022A8B1257
:102C04005E7EE0642022F0A3A882A9832274E812E5
:102C1400184D8A108B118C128D13750C0A750D00CA
:102C2400750E00750F0090938878101213D2401B14
:102C3400792D1205F178101215A3800F9093CC789A
:102C4400081216C6780C790812144B780C791012F5
:102C540013A850E880368510148511158512168541
:102C64001317850C08850D09850E0A850F0B78143A
:102C740079081215659093CC78081216C6781479E1
:102C840008121565E5082430F91205F19093CC7803
:102C9400081216C6780C7908121565E50C450D4521
:102CA4000E450F70B1800312180C7F1002191F74A7
:102CB400F612184D7E007F001203B18021EE75F0EC
:102CC4000AA4FEA8F075F00AEFA428FFE5082EF880
:102CD400E43FF9E824D0FEE934FFFF1234A1122DB9
:102CE40003F50874D02508C3940A500DC3EE9499D3
:102CF400EF941940C87EFF7FFFEEFAEF02381F9071
:102D040002AD12524322C082C0837A007B00122D8E
:102D140003FC74226C600574276C702512517A8050
:102D240008EA24010AEB3400FB9002ADE02AF8A380
:102D3400E03B8882F583E0F8EC686009740A687007
:102D4400E07AFF7BFF02376774F712184DEAFEEB57
:102D5400FF800C1205F18E828F83A3AE82AF838E27
:102D6400828F83E0F970EC790A1205F17F01021970
:102D74001FC082C0839002B2E0FAA3E0800E8A8270
:102D84008B83A3A3E0F8EA28FAEB3400FB9002B4A7
:102D940012507D687002EB69600F9002BD125045BD
:102DA4008B838A8212513940D502376774F1121825
:102DB4004D89087509209002AF125272A3E0F50BF9
:102DC4009002AFE02403122EE9AA0AAB0BE4FCFD47
:102DD4001203BD800579201205F185080B74FF25C7
:102DE4000BF5080470EF8035A90A1205F18E828F65
:102DF40083E0F50AA3AE82AF83E50AC3948040E87A
:102E0400EE24FEF582EF125917E0F50A7428650ADC
:102E1400600879201205F1750A20850A099002AF2D
:102E24001252729002AFE0240108122EEA740A656D
:102E34000A7003022EDFE50AC394805007A90A1220
:102E440005F180D6750C6F750D09802A7480650EA6
:102E54007004ECF8EDF988828983A3A882A983E839
:102E6400FEE9FF88828983E07023E50C2402F50CD7
:102E7400E50D3400F50D850C82850D831250BCEEF2
:102E84004F6097EEF8EFF980DAECF8EDF988828973
:102E940083A3AC82AD8388828983E0C3948040E9B4
:102EA400E0F50EE50A650E70A37480650A701E8C49
:102EB400828D83E0FB9002AFE0FAA3E0F5838A827F
:102EC400E06B70889002AFE02401122EE974206553
:102ED40009600579201205F1022DF1790A1205F134
:102EE4007F0702191FF81250189002AF12381922E6
:102EF40074F012184DE9FFEAFE75080075090075B3
:102F04000A00750B00802274D02AFAEAC39E504648
:102F14008E0CE4F50DF50EF50F7808790C12144BB0
:102F24008A0C7808790C1216068F0C74FF250C1F76
:102F340004602C1252C374D02AC3940A40C974BFCB
:102F44002AC39406500474C980BF749F2AC394068C
:102F5400500474A980B39002B17402F0122F70AAC5
:102F640008AB09AC0AAD0B7F0802191F9002ADE053
:102F740024FF181251609002AD1238192274F6120F
:102F8400184DE9FE74BF2E1251E4125011E8246862
:102F9400F582E9126069E0C0E09002BFE05407F8EE
:102FA400D0E0B800028004C313D8FCA2E0505590CE
:102FB40002BAE0F8A3E0800D88828983A3125986BF
:102FC400E82CF8E93DF99002B6125986C3E89CE969
:102FD4009D503188828983E0645670DCA3A3A3A347
:102FE400E06E70D4EA4B60078A828B8312381588AE
:102FF400828983A3A3A3E06402602EE82408FAE98B
:1030040034008038EA4B60219002F9744EF090024B
:10301400FC7402F0EEA3F09002FFE4F0A3F08A82C5
:103024008B8374F9F0A37402F08E0875090074029E
:1030340078081217E31250DCFAE934FE02381F74E0
:10304400F212184DE9FE8A088B09A808A909123161
:1030540036125096FAE934FFFB9002B4125045C37D
:10306400EA98EB9950099002B17404F00231268574
:10307400080C85090D12312B12313612508A900238
:10308400BA123815E8FAE9FB8A828B837456F01277
:10309400312BA31238158A828B83A3A3A37404F063
:1030A400EE8A828B83A3A3A3A3F074BF2E1251CF05
:1030B400FC88828983E0C0E0ECFDD0E0BD000280A2
:1030C40004C313DDFC54018A828B83A3A3A3A3A3AB
:1030D400124FDBA3A3E4F0A3124FD5ECF87401B8AC
:1030E40000028004C333D8FCF974FFC399F8E05894
:1030F40049F09002BAE02408FAA3E03400FB740E0D
:10310400121841125986EC4D600F7808121A601299
:103114000471740212180C8009AC08AD097900120C
:1031240004897F0602191FE50C2408F8E50D340014
:10313400F922C3E498F8E499F99002BA2274EC12E3
:10314400184D74FA1217F612534574AB6E701312BD
:1031540003F38A088B098C0A8D0B78081215A302D5
:10316400337D9002ADE024FF1812516074D02EC359
:10317400940A500A1238127A0A79FF023245EEC3D1
:10318400948050030233D374422EC3940340030249
:10319400323C12381212042FE9F89002B1E06003B5
:1031A40002347CE8540FF50CE8C4540F6007147023
:1031B40066E5908064750A01750B00850C08E508C6
:1031C400780A1217E3E50A55F260489002C1E0F864
:1031D40090098BE0450C48F5B6E5B4A2E750FAE552
:1031E400BAF508E4F509F50AF50BE5BBF50CE4C5F9
:1031F4000CF50D3395E0F50EF50F7808790C1216E1
:10320400A0E0131313541FF87408C3987808121518
:10321400B48022E5808002E5A0F508750900E50C7C
:1032240078081217C4E5085401F508E4F509339544
:10323400E0F50AF50B02337D74A96E700E7A1079ED
:10324400081203E19002B1E402347974806E0870CC
:103254001E1235B8F508750900740278081217E3D0
:1032640074942508F58274903509F58302345A1252
:10327400502FFA9002AD1250688882898374296AAB
:103284007056123812EE2462600614600902347C0F
:1032940012056702349075B61FE5B4A2E750FAE54B
:1032A400BAF508E5BBF509740678081217C4E509F0
:1032B4003395E0F50AF50B9093AC780C1216C678AA
:1032C40008790C12144B9093A4780C1216C6780843
:1032D400790C12156502337D749C6E7051EAFE748C
:1032E400BF2EC3941A400302347CE06429600302B5
:1032F400347C9002ADE02402081251768518828550
:103304001983AA82AB83EEF91203E7125C2B6003E4
:1033140002347C851882851983A3125021A3E024EA
:10332400F8F508A3E034FFAA08FBE402344D1204C4
:103334000B125298600302347C9002B1E0600302E5
:10334400347C12517E2465600B24FE603724C560F2
:103354005102347C90938878101213D24013781061
:103364001215A385100885110985120A85130B808F
:10337400088A088B098C0A8D0BAA08AB09AC0AAD24
:103384000B02349012048F8A088B09E4F50AF50BBA
:1033940078087910121565AA10AB11AC12AD13029E
:1033A4003490EB54806003023482E4F508F5097824
:1033B40008121A6079007404121841AC82AD8312A9
:1033C40006C9740212180C740212184102345A7499
:1033D400BF2EC3941A400302345F85188285198373
:1033E400AA82AB83EEF91203E78A088B0912349898
:1033F400851882851983E0F9A3E0F5838982A3A364
:10340400A3E064047047742868706D1234A1120438
:103414000B12529870629002B1E0705C12517A9073
:10342400938878101213D250558518828519831207
:10343400522779101213A85045E5082510F582E5A6
:10344400093511F583E0FAE4FBFCFD803F7428683C
:1034540060268A828B831216E4803174286E701879
:1034640012040B1252A070109002B1E0700A1250B4
:10347400FEE8F0A3E9F080149002B1E07006900237
:10348400B17402F07A007B007C007D00740612188F
:103494000C025B969002AD125243F822F09002ADFA
:1034A400E02401F81253572274EC12184D1203F35E
:1034B4008A0C8B0D8C0E8D0F80121203F38A088BED
:1034C400098C0A8D0B780C790812144B9002B1E028
:1034D400600BAA0CAB0DAC0EAD0F025B961235B2AD
:1034E400245460D614600914602312371EF080E25D
:1034F4001203F38A108B118C128D13EA45114512B5
:103504004513601B780C791012156580BF1203F304
:103514008B118C128D13EA451145124513700790D7
:1035240002B1740380C7850C08850D09850E0A85D0
:103534000F0B8A0C8B0D8C0E8D0F7808790C1215DD
:1035440065808974F012184D12349874AB68600564
:1035540074AA68700E750800750900750A00750B69
:1035640000801F1203F98A088B098C0A8D0B8012C4
:103574001203F98A0C8B0D8C0E8D0F7808790C12BE
:10358400163F9002B1E06003022F631235B2245655
:1035940060081460DB12371980EE1203F98A0C8B71
:1035A4000D8C0E8D0F7808790C12160680D49002BB
:1035B400ADE0F8A31235BC22E0F988828983A3AA7E
:1035C400821259502274F012184D1203FF8A088B8C
:1035D400098C0A8D0B800C750801750900750A00A9
:1035E400750B009002B1E06003022F631235B22420
:1035F4005F601A14603014604314605614605314EE
:10360400606914607A14601E12371980DC1203FF9B
:103614008A0C8B0D8C0E8D0F780C79081213A85020
:10362400B675080080B41203FF8A0C8B0D8C0E8DC6
:103634000F7808790C121365709D80E51203FF8AD8
:103644000C8B0D8C0E8D0F7808790C1213A8408703
:1036540080CF1203FF8A0C8B0D8C0E8D0F780879A6
:103664000C12136570030235DB80B61203FF8A0C5B
:103674008B0D8C0E8D0F7808790C1213A880A01274
:1036840003FF8A0C8B0D8C0E8D0F780C79081213A6
:10369400A880BB74F012184D9002B1E0600B7A0060
:1036A4007B007C007D00022F6B1203B11204058A9B
:1036B400088B098C0A8D0B80121204058A0C8B0D61
:1036C4008C0E8D0F7808790C1216679002B1E060A9
:1036D4000AAA08AB09AC0AAD0B80CB1235B224514F
:1036E40060D714600814601912371980E4120405B5
:1036F4008A0C8B0D8C0E8D0F7808790C1216A08015
:10370400CA1204058A0C8B0D8C0E8D0F7808790C67
:103714001216B380B612371EF0229002ADE024FFD9
:103724001251609002ADE8F0A3E922C082C0837A0E
:10373400007B0C1205079002B2124FC87C007D0C6E
:1037440079001204891251259002B2E02494F8A35E
:10375400E0340BF99002B61238159002BA123815FB
:10376400120417D083D082020135C082C0837A9DAF
:103774007B921203CF1237957582BA12510C120341
:10378400BD7AF37B921203CF7A217B941203CF800C
:10379400D29002B412379C2212504D7583022274C7
:1037A400F612184D1205FD1204111238431205E5E4
:1037B400120621E960567A727900120603124FB09C
:1037C40040061251F21206091206159002B4125064
:1037D400457583027582B212513950219002B2129A
:1037E400598F121A777508007808121A649093A0FA
:1037F4001216E4790312062D740312180C9002B405
:103804001250531238151238431205E5800E9002F7
:10381400AD12381922E8F0A3E9F022FB7F02021965
:103824001FC082C083800F79007A007B00120429B4
:103834001238431205E51205EBE970EB0237679085
:1038440002BAE0FCA3E0FD9002B4E02402FAA3E093
:103854003400FB2274E812184D74F51217F6740242
:10386400121841E9F09002B1E4F0EA4B6029124FDA
:10387400C57402121841E0601B9002BAE024FD12E4
:1038840052605003024B05124FCE7445F0A37403EB
:10389400F0A3E4F0023DCC9002B4125A1E1203B716
:1038A4007508007402121841E508F004F508E0F800
:1038B4009002AD1250B0E0640A70E808C3E498FEC8
:1038C40095E0FF7509007808121A60125983900276
:1038D400BAE02EFAA3E03FFB1205F7740212180CAB
:1038E4009002BAE02EF8A3E03FF91238121203C393
:1038F400124FC51203B19002BD1260A270779002FC
:10390400B8E4F0A3F09002B4E02402F8125A9E64E2
:103914000A7003023D52122D039002BCF012517A38
:103924009002BCE0C39480400BE02442C394034063
:1039340003023A9E122F701250AB744229C39403AF
:1039440040030245DF12042FE9FE9002B1E0600358
:103954000242BE1203B112523A60030242C712512C
:103964007A12040B9002B1E060030242BEEEF91237
:103974000435023C849002BDE0F47003A3E0F470CB
:10398400030242BE9002ADE024FDF8122F779002AC
:10399400BAE0C398F5089002BD125082FAA3E0F58C
:1039A400838A821238159002AD1259AEA3E508F04D
:1039B4001203D58A0A8B0BAE0AAF0B9002B41250D5
:1039C40045EE687002EF6960518E828F83125969E7
:1039D400E0687003A3E06970418E828F83A3A3E043
:1039E400F8880CC3E498F895E0F99002B412508A70
:1039F4009002B41238159002B4E0C3950AF510A3EE
:103A0400E0950BF5117810121A60EE250CFCEF34DA
:103A140000FD120471740212180C9002AD12519838
:103A2400640A7003023D529002B4125EE18508827A
:103A340085820C750D009002ADE0C39AF8A3E09B5B
:103A4400F9C3E8950CE9940050077902740B022C31
:103A5400ABEAC3950AF50AEB950BF50B780A121A33
:103A640060EEFCEFFDEE2508FAEF3400FB1205F7DB
:103A7400740212180C780C121A609002AD1260785D
:103A8400120471740212180C9002B4E0250812504A
:103A9400179002B4123815023D52E0247F700302DD
:103AA4003B7E147003023B9A147003023CE11470D1
:103AB40003023D0A147003023BB1147003023D2259
:103AC40014700302393B147003023D401470030266
:103AD4004360147003023D4A147003023D5714708E
:103AE40003023D6C147003024459147003023C8FAA
:103AF400147003023DD924FD700302476024FE7054
:103B040003023E47147003023C6D147003023E63CB
:103B1400147003023E51147003023ED124FE70035C
:103B2400023EFA24FA7003023F3224EE7003023C90
:103B34003C147003023BDF14700302411814700339
:103B44000241661470030241C424F57003024283E7
:103B540014700302429924F97003023F5524F8704B
:103B640003023FA5147003023FF724F970030240D7
:103B7400B61470030241FC0242BE7E011203C3125A
:103B84004FC51252E560030242BE1203D59002AF44
:103B9400124FC80246E01251257A727900120603C8
:103BA400124FB040301251F212060980287A777908
:103BB400001206039002B4C0829002B212504575FE
:103BC4008302D082E0C398FCA3E099FD9002B21274
:103BD4005EE112060F120615023E5912040B8A0802
:103BE400AF089002B1E060030242BEEF70030242EC
:103BF400C71203B112528E506012509D6005740AB0
:103C04006870607A72EFF912060312605050030272
:103C140042BE7409121841AA82AB83EEF91203E77B
:103C24007409121841125C3160030247947409123A
:103C3400184112514002479812040B8A08AF0890A9
:103C440002B1E060030242BEEF70030242C71203F6
:103C5400B112528E50030247A19002ADE024FFF846
:103C6400122F771206150242BE9002BAC082123792
:103C740095D08212510C1203BD7AF37B921203CFBA
:103C84001203B11252E560030242BE9002B1E07029
:103C9400030242D79002B1E0C333F8E433F974C9A4
:103CA40028F582749239F583125EE11203CF126013
:103CB4009F601F9002AF123815793E1205F1793ECC
:103CC4001205F179201205F179011203DB790A1248
:103CD40005F19002B1E064047074023A4E1250335C
:103CE40060030242BE9002B21250459002B48013A7
:103CF4009002BA122D0664537006125209120A9BDE
:103D04001252A61238159002BAC0829002B6123727
:103D140098D08212513940D89002B2023E5C1250BF
:103D24002C24BFC3941A40030242BE12517A1203D8
:103D3400B11252E560030242BE02445912502C648F
:103D4400977003024FA012609F600302430479013D
:103D5400023A5012040B12500460030242BE125283
:103D6400E560030242C7806012040B125004600332
:103D74000242BE1252E560030242C79002BA1260C8
:103D8400852407F582E8126069C082C0839002B47A
:103D9400125045D083D082C3E58298E583995003BD
:103DA400024B059002BAE024F912515F124FCE740F
:103DB40047F0A37407F0A3E4F09002AD1259E49025
:103DC40002B81259B3124FC81203D59002B8EAF0E0
:103DD400A3EB0242EA12511A40030242BE881112B6
:103DE40034A11203B112523A60030242BE12517A54
:103DF40012040B8A088B098C0A8D0B9002B1E060C7
:103E0400030242BE1235B2649060030242C7120438
:103E14000B8A0C8B0D8C0E8D0F9002B1E0600302A7
:103E240042BE1235B2649160030243A612040B8AA7
:103E3400148B158C168D179002B1E060030242BEFC
:103E44000243B5C2AF75C9AB75C95B80FE1250336E
:103E540060030242BE9002B4E0F8A3E00242E21220
:103E6400511A40030242BE7402121841E81234A0EF
:103E74001203B11250D660030242BE12517A1204E8
:103E84000B8A088B098C0A8D0B9002B1E060030247
:103E940042BE1203B11252A060030242C712517A09
:103EA400E4F50CF50D780C121A60AA08AB09AC0AFB
:103EB400AD0B7404121841E0F91203ED74021218E8
:103EC4000C9002B1E060030242BE023C847F001207
:103ED400040B8A08AE089002B1E060030242BE12ED
:103EE40003B1122D03649360030247E812517EF973
:103EF400120627023C8412040B9002B1E060030214
:103F040042BE9002B8E0F8A3125183F99002B812AD
:103F14003815F5838882121A77750C00780C121AFA
:103F240064790312062D740312180C023D52120414
:103F34000B8B098C0A8D0B9002B1E060030242BE28
:103F4400EA4509450A450B700302484F79010248C6
:103F54005112594524697003024AF524CD6027148F
:103F64007003024AE7147003024A03147003024AFE
:103F740003147003024A03147003024A0314700307
:103F8400024A030242BE9002B812349BA3E0F990A5
:103F940002E41238159002E67401F0A3E4F0023C46
:103FA4008F9002E37401F09002E11260A2700A9013
:103FB40002E174C2F0A37402F012526F7508E17545
:103FC400090224697003024D6B24C47003024B4F31
:103FD40014601024FE7003024B66147003024C3804
:103FE400024DDD12524F50030242D01252CB7405DF
:103FF400024B5C9002E3E4F012502CC3948050A76F
:1040040012040B8A0C8B0D8C0E8D0F9002B1E060A4
:10401400030242BE1203B1122D03242D6009147051
:1040240003024B0D0242BE7E01125A9764D47005FE
:104034000E0E12517A12040BEAF51012040B8A08C0
:104044009002B1E060030242BE1203B1122D036478
:10405400C860030242C712597060030242C7125A71
:104064001B12040B12500460030242BE9002BD12E4
:104074005045900368123815780C121A5C7C007D48
:104084000079007A027B001206C3740412180C78BB
:104094000C121A5C7C007D0079007A037B00120606
:1040A400C3740412180CE5086003024B12D2F00228
:1040B4004B1412040B8A088B09A9099002B1E06021
:1040C400030242BEAE08E9547FFFE9548070030244
:1040D4004E86851882851983AA82AB831250AB124F
:1040E40003E78A088B09AC08AD09125C2B60030254
:1040F40042BE909388121A7374041218411259AE76
:10410400E024F8F9EEFAEFFB1206C3740412180C5B
:10411400E9023EC912042FE9FE9002B1E0600302F5
:1041240042BE750801750900740F5E78081217E322
:104134001203B11252C374F05EF50A850882AE828E
:10414400EEF4F50974B96A60030248661203B11209
:1041540052C3740A6A6003024857122F707AB90274
:10416400487C750E0012042FE9FE9002B1E0600352
:104174000242BEEE540FF50CEE54F0F50D742065BA
:104184000D700AE50CC3940440030249FB1203B109
:104194001235B224446006147019750E019002ADF4
:1041A40012504588828983A30A12594C648C700387
:1041B4000249549002ADE024FFF8122F770242C75F
:1041C40012042FE9FA9002B1E060030242BE7508BE
:1041D40001750900EA540F78081217E3E508F4F8AA
:1041E400EA54F0F960030249D5E852ABE5AB600349
:1041F4000249F0C2BD0249F012502C64DB60030294
:104204004EA812517A12042FE9F5089002B1E06029
:10421400030242BE1203B112526F74BF250AC39443
:104224001A40030242C77403121841AA82AB83A93D
:104234000A1203E78A0A8B0BAE0AAF0B7403121837
:1042440041125C3170741234A17A00A90812043549
:104254009002C0E06003024F7274031218411251BD
:1042640058E8497003024F935386F98E828F83E096
:10427400F5C1E586A2E150FAE5C1124FE980E212E8
:10428400502C243D6008147003024F9A802C900235
:10429400C1E4024F9F12040B8A088B098C0A8D0B10
:1042A4007808121AEA0800000006BE42A94FBE426E
:1042B400A94FBE42A94FBE42A94F9002B1E060038C
:1042C400023C8F9002B17401F0023C989002B174E8
:1042D4000580F512609F700302436F125183F990B9
:1042E40002B8E8F0A3E9F09002B81250A57003A355
:1042F400E06960779002B8E0240312517502391A1C
:1043040012040B8B0D8C0E8D0F9002B1E070AB126A
:1043140052E570AFEA450D450E450F6003023C843B
:104324007A008004EA60641A1252787003A3E06988
:1043340060399002B8E02403F8125A9E2478600889
:1043440014600D14601080E012505A60D70A80D8AF
:10435400EA70D5024FA0EA70CF02391A7A008001C0
:104364001A1252787003A3E069700A7A217B9412BE
:1043740003CF023D529002B8E02403F8125A9E641F
:104384008870DE12505A7017EA70D59002ADE0249E
:10439400021250179002ADE8F0A3E9F0023C840A3F
:1043A40080BF12371975140175150075160075173D
:1043B400001203B11252E560030242BE9002B1E062
:1043C40060030242BE9002BAE024F012526050032D
:1043D400024B059002BA123815125EDE8511127571
:1043E4001300740278121217E39002B6E02512F853
:1043F400A3E03513F9E824FCF582E934FEF583786B
:10440400081216D58A828B837446F0A37410F0A325
:10441400E4124FE0E511124FDB780C1216D58A82B4
:104424008B83A3A3A3A3A3A3A3A378141216D59049
:1044340002AD12507D1260641238159002B8125009
:104444007D240C12606602439B125209120A9B12CD
:1044540052A61238159002BAC0829002B61237984A
:10446400D08212513940030242BE9002BA122D0684
:1044740024BB604014604E14600E24F460CB24FD11
:10448400700302457C024B059002BCE0648D70BF52
:10449400125070125EE19002B8EAF0A3EB12591CBC
:1044A400A3125EE19002ADEAF0A3EB124FD51252D3
:1044B400AF02439B9002BCE0648D70939002BB12E8
:1044C40052AC023A989002BCE064867082125EDEBE
:1044D4008A828B83A3A3A3E0F5089002AD12514A0C
:1044E40065086003024453750900740278081217C2
:1044F400E31250DCFCE934FEFDEA2408FEEB340050
:10450400FF8C828D8378081216C68E828F8378087A
:104514001216198C828D8378081216D58E828F8399
:10452400780C1216C6EA2404F8EB3400F9E8FCE926
:10453400FD909398780C1213D250128C828D83784C
:10454400081213BD501C8A828B830244B290938854
:10455400780C1213D240EF8C828D8378081213D218
:1045640050E4EA126064125045123812EA240C1224
:10457400606612505302439B125070A3E024BF9014
:1045840002BFF0131313541FFA9002B6E02AFAA3E1
:10459400E03400FBEA2468FAEB3400FB9002BFE04D
:1045A4005407FC88828983A3A3A3A3A3E0C0E0ECFF
:1045B400F8D0E0B800028004C333D8FCF9ECF874F6
:1045C40001B800028004C333D8FCF874FFC398F820
:1045D4008A828B83E05849F002445374BF29C39400
:1045E4001A40030242BE7405121841AA82AB831218
:1045F40003E78A088B09AE08AF091234A11203B18C
:10460400740512184112519824FE600724FE603587
:104614000242BE12523A60030242BE12517A12049E
:104624000B8A0C8B0D8C0E8D0F9002B1E06003028F
:1046340042BE1252E560030242C78E828F83780C19
:104644001216D5807A1250D660030242BE12517AF5
:1046540012040B8A088B098C0A8D0B9002B1E0605E
:10466400030242BE1203B11252A060030242C712F7
:10467400517A1203B190938878081213D24003023E
:1046840042C7740512184112522779081213A84020
:10469400030242C712523A60030242C712517A120D
:1046A400040B9002B1E060030242BE1252E56003C3
:1046B4000242C7EE2508F582EF3509F583EAF07466
:1046C400051218411259C4125D297003023C841268
:1046D4000459023C841EEEF91203DB0E9002AF1261
:1046E40050A57003A3E0697003023C84125025E0D6
:1046F400247A601924FE600C1460DA1460D724FB59
:1047040060D4800A125025A3E0649770C91EEEF9A4
:104714001203DB80C71203C98A088B09AE08AF09EC
:1047240074FF6E700374FF6F7051123498742268B2
:1047340070030242BE74276870030242BE12040B67
:104744009002B1E060030242BE123498740A6860B9
:104754000874206860030242C71203BD1203B11239
:1047640052E570B1790A1205F1023C841235B6F9AA
:104774001205F1EE24FF1EEF34FFFFC3EE9401EFA8
:104784001260529002ADE050E3240112517580CCC6
:104794007C047D00120609120615023C8412509D09
:1047A4006008740A686003023C677A77EFF91206BE
:1047B4000312605050030242BE7407121841AA82C9
:1047C400AB83EEF91203E77407121841125C3170DF
:1047D4000A740712184112514080047C047D0012AF
:1047E400060F80B312040B8A088B098C0A8D0B9078
:1047F40002B1E060030242BE1203B1122D036499B8
:10480400700412517A0F122D03648C60030242C7A4
:1048140012517A12040B8A0E8B0F9002B1E06003DE
:104824000242BE780E121A60EFF50C780C121A646C
:10483400AA08AB09AC0AAD0BEEF912062D740312EB
:10484400180CE96003023C840242BE790012061B84
:10485400023C8474B76A602074B86A60030241B78A
:10486400801674BA6A7009E50A60030242C7800CB4
:1048740074BB6A60030241B7E50A704BE50952F361
:1048840052F2E5FDFB74BB6A7004EEF88002780016
:10489400EB550948F5FDEA244960121460191460C7
:1048A4000614601D023C84EE428F023C84E50952EA
:1048B4008F53F7DF023C84E509528F43F720023C13
:1048C40084EE42F2023C847410650A7046E5095293
:1048D400F4E5FEFB74BB6A7004EEF880027800EB2A
:1048E400550948F5FEEA2449601514601C14600952
:1048F4001470030242BE023C84EE42F6023C84E59C
:104904000952F653F7BF023C84E50952F643F740D7
:10491400023C84E50952F5E5FFFB74BB6A7004EEC2
:10492400F880027800EB550948F5FFEA2449600C49
:104934001460131470BAEE42F7023C84E50952F78E
:1049440053F77F023C84E50952F743F780023C8425
:1049540012040B9002B1E060030242BEEEF91206AB
:1049640033E970030249FB750801750900E50C7809
:10497400081217E3A908E50D7012E58CA2E0E433F0
:10498400450EF58CE942ABD2BD023C847410650D32
:104994007027E50CC39404E50E5013C333F8E58C7B
:1049A400540248F58CE9428D439A10023C84333317
:1049B40054FCF8E58C540480E9E50E33333354F8A1
:1049C400F8E58C540848F58CE942AC439A02023C61
:1049D40084741069700CE8528DE58D700F539AEF52
:1049E400800AE852ACE5AC7003539AFDEAF912066A
:1049F40039E96003023C849002B174060242CC900F
:104A040002E6E02401F0A3E03400F0125A0F60FB48
:104A14001460F81460F51460E61460E3123719F5B5
:104A2400838882E0F50A74BF250AFEC3941A400302
:104A34000242BE851882851983AA82AB83A90A1211
:104A440003E7851882851983125198644E60030226
:104A54003C8F9002BAE024F81252605003024B05D6
:104A64009002BA124FF8124FF812598F7456124F1F
:104A7400FC1259AE7408F0A3E41250C2740212502E
:104A8400C2A3E50AF0EE1251CFFA88828983E0C00E
:104A9400E0EAFBD0E0BB00028004C313DBFC54015A
:104AA400C0E0851882851983E0FBA3E0F5838B823F
:104AB400A3A3A3A3A3D0E0124FFCE0FBA3E0CB2469
:104AC40006126066E4F0A3124FD5EAF87401B80048
:104AD400028004C333D8FCF974FFC399F8E0584941
:104AE400023FA19002E6E02402F0A3E03400023F7A
:104AF400A112043BE91470030242BE146003023C99
:104B04008F9002B174040242CC7E02024039C2F09A
:104B1400A2F0E433F508E4F509F50AF50B78081278
:104B24001A5C7C007D0079007A237B001206C37432
:104B34000412180C120705E51060047A0180027A49
:104B4400007B00EEF91206FF023C8F12524F500315
:104B54000242D01252CB74061250F0E8F0A3E902DC
:104B64004F9F125A97F50A7427650A6009742265E3
:104B74000A60030242BE1203C98A0A8B0BAE0AAF53
:104B84000B74FF6E700374FF6F70030242BE125207
:104B94004F50030242D0181818E0F9E508C398F8FA
:104BA400E50999F9E824FEF508E934FFF509C3EEAF
:104BB4009508EF9509A2D265D0335017EE04C0E0F2
:104BC40012598CD0E01251CB74091251A48E088F63
:104BD400098012E50804C0E012598CD0E01251CBD0
:104BE40074081251A47808121A601259839002E1D1
:104BF400125EE1120471740212180C9002E1125058
:104C0400E69002E1123815C3EE9415EF126052508B
:104C140004EEFA80027A15125983790012099990E8
:104C240002ADE02EF8A3E03F8882F583A3A882A911
:104C3400830243989002E11260A270030242BE9084
:104C440002E1125068C3E50898E50999500302424D
:104C5400D09002E11250BC9002E1E8F0A3E9803D5B
:104C64009002E1125BA5C3E5089AE5099B50030293
:104C740042D012598CE50C1250F01238151203B1BF
:104C84007A1079021203E18A0C9002B1E060D11229
:104C94002D03650A6003023C989002B1E4F01234DB
:104CA400A1F5838882E0F50A740A650A7010EEF8AB
:104CB4009002E1E0C398148E828F8302439F74278D
:104CC400650A60067422650A70051250FE80AB7492
:104CD400BF250AC3941A4003024D5F9002AE1250DE
:104CE40021A3E0F8740A6860087420686003024233
:104CF400BE851882851983AA82AB83A90A1203E7A9
:104D0400125C2B60030242BE125C1C9002E1125042
:104D140096F8E934FFF9C3E50898E50999500302C8
:104D240042D0750A08850A0C851882851983E0F833
:104D3400125C22C3E50C98E4994003024CA28A82D7
:104D44008B83E0C0E012598CD0E0F08A828B83A37D
:104D5400AA82AB831251A5050A80CA7420650A6031
:104D6400030242BE024CA29002E1E064C27004A3BA
:104D7400E06402700A9002E1E4F0A3F00242BE9003
:104D840002E3E0A2E0909388502B121A737CC27D58
:104D9400029002E1E0C394C2F97A077B031206C3CE
:104DA400740412180C909398121A737C007D007985
:104DB400007A058011121A737CC27D029002E1E030
:104DC400C394C2F97A087B031206C3740412180C44
:104DD4009002E1E4F0A3024F9F7427650A6009740E
:104DE40022650A60030242BE120441E970030242D2
:104DF400BE9002F8E0F89002E11250B0A3A3C3E51C
:104E0400089582E509958350030242D09002F8E0A8
:104E140004C0E012598CD0E01251C224FE600B246D
:104E2400FE600E24F460110242BE12501E74038010
:104E34000C12501E7405800512501E74071251C2C4
:104E4400F5087509007808121A607CE87D02900262
:104E5400E1125EE1120471740212180C1203B11211
:104E64002D0364D5700B9002E112514AC2E0123452
:104E7400A09002F8E0F89002E11250119002E102D1
:104E8400439B12040B8A0C8B0D8C0E8D0F9002B178
:104E9400E060030242BE780C121A5C7C007D00794B
:104EA4000002410812040B8A08AE0812040BEAF54A
:104EB4000C9002B1E060030242BEEEC394044003CE
:104EC4000242C7EAC3940440030242C7122D03FFFF
:104ED40074DC6F600874DD6F60030242C712517A9C
:104EE40012040B9002B1E060030242BE74DC6F70E6
:104EF40004782080027800E50CC4333354C048F5AC
:104F04000CEA14600A14600C24FE60100242BE43D2
:104F14000C0F800BE50CD2E4F50C8003430C11EE6E
:104F2400A2E19002C04023E4F0EEA2E0400543F386
:104F34002C800343F42CA2E0E5F192E0F5F175C274
:104F440000850CC5758600023C847401F0EEA2E075
:104F5400400543F338800343F4E0A2E0E5F192E135
:104F6400F5F175FA00850CFC75F800023C847403B5
:104F7400121841125158801353F8F98E828F83E02E
:104F8400F5F9A2F950FCE5F9124FE9E84970E97A1C
:104F940001A9080239739002C17440F09002ADE097
:104FA4002401024395EA90098B02439F8A088B09E6
:104FB400AC08AD09C3EC9401ED9400A2D265D033E2
:104FC400229002BDEAF0A3EBF0229002BAE8F0A32B
:104FD400E9F08882898322124FE0A322F08A828B2F
:104FE40083A3A3A322F0E824FF18E934FFF9A3AEB6
:104FF40082AF8322E8F0A3E9F08518828519832221
:105004009002BDEAF0A3EBF09002B1E02212501539
:1050140022E028F8A3E03400F9229002E212599623
:10502400229002B01250CB229002AE12503C2212B7
:105034005039640A229002AE12599AE022F090028A
:10504400BA1250492212504D22E0F8A3E0F922127C
:1050540050499002B8221250606497229002AE1216
:105064005170E022E0240108125018229002BBE0A3
:10507400F988828983A3A3A322125049EA221250F9
:10508400499002ADE02212508E22E028F8A3E039C4
:10509400F92212508EE824F82212503CF874206849
:1050A4002212512FE06822125240F922E028FAA37A
:1050B400E034008A82F58322E0FEA3E0FF22125A44
:1050C400471250C922F8A31250CF2212599AA3A30F
:1050D400A3221252406428229002B61250E6E82419
:1050E400FC22E02508F8A3E03509F922F09002E15A
:1050F400E024011250179002E1229002ADE0240155
:10510400081250189002AD22E0C398FAA3E099FB6C
:105114003395E0FCFD22125039F874BF28C3941A69
:10512400229002B212512F1238192212504D9002BD
:10513400B4229002ADC3E098A3E09922125168FC16
:10514400A3E034FFFD2212608924FFF582E834FFD6
:10515400F583E02212516612515F22F8A3E034FF76
:10516400F922E0F8A3125170E024F82212599AA30C
:1051740022F81253572212535022125350EE221285
:10518400518722125170A3E0F89002B8E028F8A3E6
:10519400E034002212519C22E0F8A31250CFE02206
:1051A400F01251A9221251AD229002E1E02401F83B
:1051B400A3E03400F99002E1E8F0A3E9F022F01250
:1051C40051A99002F8E0221252DC221251E412504A
:1051D40015E82468F8E93400F99002BFE054072286
:1051E4009002BFF0131313541FF89002B6229002DA
:1051F400B2E02CF8A3E03DF99002B4123819900201
:10520400B212522122851882851983AC82AD839013
:1052140002BB12519F1250C9A312522122E0FAA3D9
:10522400E0FB22125166F50CA3E034FFF50DE4F522
:105234000EF50F780C2212524064A5229002AD1292
:10524400524722E0F8A312599AE0229002E1E024A6
:1052540003125017C3E50898E509992212515F908B
:1052640002B4125221C3E89AE99B229002AD125271
:1052740043F50A229002B8E0F8A3125187F990028C
:10528400B81238199002B4E0682212534974BF2E40
:10529400C3941A228A108B118C128D1312524064FB
:1052A40029229002BAE0F8A3125996A3E0F8A3E0E9
:1052B4001252B822F99002BA12508E9002BA2212F7
:1052C4005240FA12535022181818125996740212A6
:1052D40052DC74011252DC22F01251ADF583888243
:1052E40022125240640A2274F412184D1253457467
:1052F400422EFFC39403400E122F709002B1740625
:10530400F07900025C1712040B9002B1E070ECEA31
:10531400C3940850E61252A070E112517A74C06E20
:10532400700C74016A60D474026A700D80CD74BF0D
:105334006E7006EAC3940450C2EFC454F04AF98074
:10534400C2125349229002AD125247FE9002ADE0C0
:10535400240108A3E03400F99002ADE8F0A3E9F0D9
:105364002274F612184DE9FCEAFD7508017509006E
:10537400740F5C78081217E3A808E8F4FEECC45430
:105384000F6005146011801EE580FFED7002780047
:10539400EF5E48F580801CE590FFED70027800EF29
:1053A4005E48F590800DE5A0FFED70027800EF5E99
:1053B40048F5A002382074E812184D74F81217F654
:1053C4007E007F007402121841E4F0A3F0F5087423
:1053D40006121841E4F0A3F09002E412596912385D
:1053E400151203D58A148B1512504285188285191B
:1053F400831238159002E6E0F50AA3E0F50B740376
:10540400780A1217E3E50A2402F8E50B3400F9C31D
:10541400125A7C50030259059002BAE02402F51294
:10542400A3E03400F51302558E740A650960030283
:1054340056BC12590F122D06543070030254EF90CB
:1054440002BAE024FA1259DCF8A3E0F97583027574
:1054540082BA12513950030259059002BA12598680
:105464007AFF7BFF120B0D1259608E0C8F0D7403A3
:10547400780C1217E3E512250CF8E513350DF988BD
:10548400828983A37454F0A37494124FD57402F0E8
:10549400A3A3A30412591CE4F0A3F09002BA125976
:1054A400B3A3A3A3EAF0A3EB1259D1123815125AED
:1054B400505003025905125A267404121841AA8244
:1054C400AB83850A82850B83E0F91203E774041227
:1054D40018411259C4E50AF0A3E50BF09002BAE0B2
:1054E40024071250179002BA123815E50870030207
:1054F40055761259608E0A8F0B7403780A1217E3DB
:10550400E512250AF50AE513350BF50B850A82F534
:1055140083A3743CF0A374941259317402F0A3A3CE
:10552400A314125939E4F0A3F085088285820CE5AE
:105534000C2401125A7750030259057509007808A2
:10554400121A607404121841125986125EDE120493
:1055540071740212180C9002BAE0250CF8A3E0341E
:10556400008882F583E41259D1A3A3A312381575D8
:105574000800851482851583A3A3E0F8E51428F5B3
:1055840014E5153400F5151259609002E6125BAF6C
:1055940040030258B2E5142403F8E5153400F91267
:1055A400594564C970E112526F12517A7497650AB1
:1055B40070030258B28E0C8F0D7403780C1217E32B
:1055C400E512250CF510E513350DF511851082F55E
:1055D40083A385820C85830DE4F0A3F08510828576
:1055E40011837402F0A3A3A314125926A3E4F0A315
:1055F400F0E5102406F516E5113400F5178516823A
:10560400F583E4F0A3F074CA650A600974CB650AF3
:1056140060030257261259EF742265096009742742
:10562400650960030256BC120441E970030256BCCA
:1056340074CA650A60030256C4850C82850D83749E
:1056440036F0A37494125B9FF50A750B00240312C1
:105654005A775003025905780A121A607CE87D02D1
:10566400125976120471740212180C9002F8E0C0F8
:10567400E09002BA12598FD0E0F01259769002BA33
:105684001259AEEAF0A3EB125041851682851783B6
:105694001238151203B1122D0364C7600302557644
:1056A4001259707013125A1B12040B74061218410B
:1056B40012500770030255761259F5790102590AFE
:1056C40074CB650A6003025576850C82850D83745C
:1056D4003AF0A37494F01203B11203C98A088B0937
:1056E400A808A90974FF68700374FF696026900212
:1056F400AD125EE17402121841124FC89002ADE07F
:1057040028FAA3E0398A82F583A3A882A9831238F0
:10571400120255767402121841E4F0A3F0F508025F
:1057240055767434250AC39405508D9002ADE02457
:10573400FFF8122F777509008006E509D2E1F50913
:10574400125A0F60F514601D14600814600B146085
:105754000E8018E509D2E380E5E509D2E480DFE5AF
:1057640009D2E580D9E509D2E280D3123719900233
:10577400BAE024FF1259DCFAA3E0FB9002BAC3E0BA
:105784009AA3E09B5003025905125021E5091250D7
:105794004112590F1238151259EF74BF2509C394D9
:1057A4001A40030256BC125A97F8742068600E74AB
:1057B4000A686009E8C3948050030256BC9002F85A
:1057C400E0F82409FCE43400FDE49CFCE49DFD9035
:1057D40002BAE02CFCA3E03DFD9002BAECF0A3ED8C
:1057E400F09002BAC3E09AA3E09B500302590590DB
:1057F40002F8E0FA9002BAE02AF50AA3E012605A2D
:10580400A3A3A3A3A3E4F0A3125939A3A3A3F0A3CE
:10581400125931E509F0A3E512F0A3E51312593149
:10582400A3A3A3E4F0A3F0880EF50F780E121A6078
:105834007CE87D02125EDE120471740212180C857B
:105844001682851783E50AF0A3E50B125926740323
:10585400125041850C82850D83125B9B85108285D5
:105864001183800C1259A0A3A3A3A3A3E8F0A3E976
:10587400F01203B11259EF74C56509600974C66565
:1058840009600302542D125A97648C60030256BCBB
:1058940012517A12040B12500460030256BC74C5F0
:1058A40065099002BD60BD1259A0A3A380B9125A24
:1058B40050404E125A2688828983A3A3A3E512F08E
:1058C400A3E513F074061218411259E4E51224FEFC
:1058D400F582E513125917EEF0A3EFF07508407541
:1058E40009937808121A60EEFCEFFDAA12AB1312AA
:1058F4000A95740212180CE960030256BC79008000
:10590400051259F579027408022CABE51024FEF552
:1059140082E51134FFF58322F088828983A3A3A34F
:10592400A322F0851082851183A3A3A322F0850A04
:1059340082850B8322F0850A82850B83A3A3A3A30C
:105944002288828983A3AA8212595022AB839002AF
:10595400ADEAF0A3EBF088828983E022EE24010E05
:10596400EF3400FF221250499002BD2212506064AD
:105974008C229002BAE02403FAA3E03400FB2290C4
:1059840002ADE0FCA3E0FD229002E112599322E073
:10599400F8A312599A22E0F5838882221259A4228C
:1059A40012504D850A82850B8322125993A3221229
:1059B40059B722E0FAA3E0FB88828983A3A3A32238
:1059C4001260892406F582E83400F58322F09002FF
:1059D400BA1259A4A3A3A322125A6B9002B4E022D0
:1059E4001259B7A3A3EAF0A3EBF022125240F5092F
:1059F400228518828519831250499002BA123819E7
:105A04009002B8E514F0A3E515F0229002ADE0F899
:105A1400A31235BC2434229002ADE02402F81253C0
:105A240057229002BA125049888289837453125AB9
:105A340047C39AFAA3E09BFB88828983A3EAF0A375
:105A4400EBF022F0851882851983E0229002BAE0F7
:105A540024F9125A6B9002BA1252219002B41250D5
:105A640049C3EA98EB992212515F9002BAE8F0A375
:105A7400E9F022F8E43400F9E498F8E4991252B811
:105A84001238199002B412379C7582BAC3E098A3F5
:105A9400E099229002ADE0240108125357F583885F
:105AA40082E02274EC12184D1203C98A088B09A8EB
:105AB40008A9099002AD12508AE8FEE9FF9002ADF0
:105AC400125BAF40409002F8E480079002ADEAF028
:105AD400A3EB125B9FF5089002AD125BA59002AD9B
:105AE400C3E09EA3E09F50329002F8E0C3941050AC
:105AF40014122D03642D60D37A1079021203E190FD
:105B040002B1E06003025B9474E82508F582740234
:105B14001260719002F8E00480B8750C00750D00F5
:105B2400750E00750F008040850C0A850D0B74E816
