:020000040000FA
:0600000002011D0224684C
:03002B00021EE2D0
:03003300021E6347
:030053000224DEA6
:03006B00021D78FB
:03007B00021DEB78
:10008300022317E5C754F84401F5C779012200009C
:100093000080FB120086B90003020107E47921788E
:1000A30011B800028004F709D8FCE479327802B869
:1000B30000028004F709D8FCE490028178CB790729
:1000C3008002F0A3D8FCD9FA781A90014D7A01BACC
:1000D30000028007E493A3F608DAF990094BAA8299
:1000E300AB8390014E783C79038015E493A3AC82F3
:1000F300AD838A828B83F0A3AA82AB838C828D83A8
:10010300D8E9D9E77582067583EB740312012F755D
:100113008291758300740012012F75D00075813FA1
:10012300751881751902759F00020096C09FF59F8F
:10013300E473D09F22D083D082C09FE493C0E07445
:100143000193C0E0740293F59F220102D49401004D
:1001530000BC9402D094010000FC941009930300A6
:10016300008C0202DC94030000820202D09401009E
:1001730000FD9410199303000000000000A10395F3
:1001830003828E9590E090548FF98F4990FE8DA84D
:10019300936C91CC91B493FC8E2791000056000090
:1001A300020000000030FF02020202020202020209
:1001B300010D000000100102D494010000D5930248
:1001C300D094010000A70902F4940100002F030258
:1001D300D094010000A80902F2940100009B93024D
:1001E300D094010000A90902F09401000080930259
:1001F300D094010000AA0902EE940100007192025A
:10020300D094010000AB0902EC9401000083920238
:10021300D094010000AC0902EA9401000095920217
:10022300D094010000AD0902E894010000A79202F6
:10023300D094010000AE0902E69401000056930237
:10024300D094010000AF0902E494010000B009FF5B
:10025300000000FF000801307503020106000000E2
:10026300000000000000000000000000000000008B
:10027300000000000000000000FFFF0600800CE803
:100283000321082D08FF0000B400002800280028DF
:100293003075A000A000A000A00000080008E00145
:1002A300F0001000100010001000100010005000AB
:1002B3005000500010001000D007000000000000A4
:1002C3000F0001000500307507001000010081FFD9
:1002D30000000000FF4D096B095309FF02020208E9
:1002E300025000A0000000E80302D494010000C201
:1002F3009402D094010000DC0A02FA940100006A1F
:100303000402D094010000DD0A02CC9401000080B5
:100313000402D094010000DE0A02C89401000082A6
:100323000402D094010000DF0A02CA94080000838B
:100333000402D094010000E00A02CE94010000E11F
:100343000AFF0100FF2002D494010000BF9402D0F1
:1003530094010000450B02E294000000000002DC5F
:1003630094030000D004950F950F950F950F950FEB
:10037300950F950F950F950F950F950F950F950F5A
:10038300A112B9129B1212013861A3031201389909
:10039300A40312013819A60312013872A60312012D
:1003A30038B6A603120138C8A60312013883A7037F
:1003B3001201382EA803120138E42A001201380072
:1003C3002B00120138EA2C00120138902D00120183
:1003D30038F42D001201383F2E00120138682E0028
:1003E300120138A42E0012013800300012013882A5
:1003F3003000120138663100120138F03100120169
:1004030038F332001201380E35001201385A3B001E
:100413001201389B3B00120138BC3B001201383EED
:100423003C001201386C3C00120138235A001201BF
:1004330038935A00120138EE5A00120138865B00D5
:10044300120138925E001201389C63001201387861
:100453006A00120138616B00120138D96B00120176
:1004630038D06C001201383A6E001201387E6E00EB
:10047300120138FF6F00120138FDA803120138077B
:10048300A90312013845A9031201388EA9031201E9
:1004930038C8A90312013822AA0312013843AA0358
:1004A3001201384CAA0312013899AA03120138C267
:1004B300AA03120138CCAA0312013838AB03120184
:1004C30038CAAB0312013814AC031201384AAC0327
:1004D300120138D6AC0312013817AD031201384E9E
:1004E300AD0312013860AD031201387FAD03120171
:1004F3003888AD0312013855AE03120138997F00D5
:10050300120138BDE6031201386CDD03120138A273
:10051300DD03120138D8DD0312013823DF03120192
:1005230038F7E9031201380DEA0312013817EA0319
:1005330012013861EA031201380BC3031201382098
:10054300C303120138D0C30312013810C4031201CC
:100553003829C40312013864C403120138B1C40337
:10056300120138E3C40312013825C50312013826EA
:10057300C70312013898C703120138B2FF011201F1
:1005830038C4FF0112013822D60312013847D603BB
:1005930012013871D6031201388FEA03120138A809
:1005A300EB031201389CE803120138ACE803120193
:1005B30038B5E80312013846E903120138B9E503F7
:1005C3001201383EE603120138A4E603120138F89B
:1005D3007F0012013833DB03120138C2DC0312013E
:1005E3003823DD0312013869DD0312013883AE03BA
:1005F30012013855AF0312013886AF031201389D3B
:10060300AF03120138A7AF03120138F1AF03120190
:1006130038F4AF031201385AB003120138C6B003DD
:1006230012013864B103120138E8B1031201383101
:10063300B2031201385DB20312013887B20312010B
:100643003802B30312013858B303120138ABB303B2
:10065300120138B8B303120138BCE2031201380E99
:10066300E30312013898E303120138FFE303120195
:1006730038EED80312013818D903120138E6D9032A
:10068300120138C1DA03120138008003120138C79E
:100693008003120138FE80031201382881031201FE
:1006A30038888103120138DE810312013843820343
:1006B300120138DB8203120138EA83031201388105
:1006C30085031201380E8603120138758603120161
:1006D300388C8603120138A68703120138D58F029E
:1006E300120138799302120138E795021201384159
:1006F3009602120138609602120138DE9602120148
:1007030038579802120138439902120138C69D02E4
:10071300120138969E021201383D9F021201387B66
:100723009F021201385DDF0312013874DF031201E7
:1007330038A5DF03120138E0DF031201380AE003B2
:1007430012013834E0031201384BE003120138621E
:10075300E00312013879E003120138A2E003120129
:1007630038B5E003120138CBE003120138DEE003B1
:1007730012013805E10312013870CF0212013874F7
:10078300D002120138ACD002120138CFD0021201CC
:1007930038DAD002120138FDD0021201380CD2022D
:1007A300120138E1D2021201385CD302120138E49B
:1007B300D3021201381FD40212013856D402120197
:1007C30038E4D402120138BDD5021201381DD60215
:1007D30012013828D602120138A7D602120138AA0C
:1007E300D602120138ADD6021201383CD7021201EB
:1007F300383FD7021201386FD70212013899D70256
:1008030012013887D80212013839D902120138741B
:10081300E3021201386CE402120138A0E40212016F
:100823003822E5021201386AE502120138CEE502E8
:100833001201385BE60212013815E702120138246F
:10084300EA02120138AFEB02120138D2EB021201B5
:1008530038169D031201383E9D031201386C9D0327
:10086300120138A39D03120138019E031201388F30
:100873009F03120138DA9F0312013825A0031201E6
:100883003865A003120138ABA003120138D9A003C5
:1008930012013896A103120138A0A103120138AD49
:1008A300A103120138E0A103120138ACA203120123
:1008B30038B8A203120138D0A203120138DAA20316
:1008C300120138BBE703120138D3E703120138EBF7
:1008D300E70312013803E80312013812AD021201D3
:1008E30038EEAD0212013852AF02120138A9AF023D
:1008F3001201382AB0021201381AB1021201386704
:10090300B102120138EDB1021201381FB202120115
:100913003833B40212013875B40212013893B402A9
:1009230012013816B502120138EAB502120138B2C3
:10093300B602120138308F031201380390031201FB
:1009430038AC9003120138FF9003120138AF9103C2
:100953001201383B920312013827930312013856D0
:100963009303120138699403120138B194031201FD
:1009730038869503120138C29503120138DE9503B8
:1009830012013812CC0312013828CC031201384E5D
:10099300CC031201386ACD0312013874CD0312015E
:1009A30038A9CE03120138A1CF03120138ABCF030C
:1009B3001201381BB9031201384BBA031201387EF6
:1009C300BA03120138C8BA031201388FBC031201EB
:1009D300380080021201386A8002120138C981028C
:1009E30012013853820212013863820212013890D5
:1009F3008202120138EC8202120138F383021201DF
:100A030038BD84021201381D860212013860860245
:100A13001201380587021201385287021201387811
:100A230087021201388689021201388B890212016A
:100A330038908B02120138DD8B02120138508C0280
:100A4300120138838C02120138258D02120138CE2F
:100A53008D02120138068E02120138098E0212012C
:100A630038518E02120138918E02120138E88E023B
:100A73001201384FD30312013867D303120138AF81
:100A8300D303120138C5D3031201380CD403120166
:100A93003820D503120138ADD503120138F8D50338
:100AA300120138FF94011201383A95011201387F7F
:100AB30095011201383F9601120138CE96011201B9
:100AC30038549701120138B99701120138E597019B
:100AD3001201381E98011201385C9A011201384044
:100AE3009C01120138269E01120138699F011201EF
:100AF30038B7A101120138C9A20112013814A401A7
:100B030012013824A50112013841A5011201387CD4
:100B1300A5011201389EA50112013801A601120197
:100B230038C2AA0112013857AB01120138A9AB012F
:100B3300120138C7AB0112013821AC011201380A86
:100B4300AD0112013880AE0112013804AF01120168
:100B530038D5B303120138DFB30312013822B403CB
:100B63001201383DB403120138CDB403120138F534
:100B7300B40312013832B50312013869B503120107
:100B83003892B50312013807B6031201381CB603B5
:100B930012013831B60312013853B6031201389CDF
:100BA300B603120138C1B603120138FBB6031201B2
:100BB3003827B70312013855B703120138A0B7031A
:100BC3001201384AB80312013855B8031201389E8E
:100BD300B803120138C8B803120138F3B80312017D
:100BE30038DFFE021201389E7000120138CC70000B
:100BF3001201381A7200120138FA72001201381900
:100C03007300120138967300120138D97300120170
:100C1300382F7500120138DF75001201381878007B
:100C23001201389F7A00120138407B0012013836D6
:100C33007C00120138337D001201388D7E001201D1
:100C430038187F001201385EE403120138C7E40349
:100C53001201381BE50312013842E5031201387310
:100C6300E503120138A5C70312013812C8031201A4
:100C73003859C80312013871C9031201386DCA0308
:100C830012013850CB0312013876F602120138B83C
:100C9300F6021201388AF70212013863F8021201D0
:100CA300385DF9021201383FFA02120138A8FA023C
:100CB3001201385EFB02120138D2FB021201383EE8
:100CC300FC0212013867FC02120138E1FC02120136
:100CD300387AFD02120138DFFD02120138F4FD02F9
:100CE3001201383AFE0212013853FE02120138B8DB
:100CF300FE02120138BBFE02120138DFFC011201B1
:100D03003807FD0112013845FD0112013803FE01C8
:100D13001201386AFE0112013886FE01120138AE53
:100D2300FE01120138DEFE01120138EDFE0112014F
:100D3300386AFF0112013847C40112013818C6018D
:100D430012013829C80112013865C801120138920D
:100D5300C8011201387BC901120138C2C90112014D
:100D63003803CA0112013830CA011201387BCA01A3
:100D7300120138C2CA01120138F0CA011201384205
:100D8300CB01120138D2CB011201386FCE0112010F
:100D9300388AD001120138C8D0011201383DD2017E
:100DA30012013882D20112013866D3011201386D63
:100DB300D501120138E4D5011201382ED6011201F2
:100DC300384FD601120138F1D6011201384DD8013E
:100DD300120138FDEC021201387CED021201383E9B
:100DE300F3021201384DF402120138B5F502120173
:100DF300384CF6021201386BAF01120138B4AF015F
:100E0300120138E1AF0112013814B0011201382187
:100E1300B0011201382DB0011201383FB0011201A7
:100E23003826B10112013884B101120138B9B10178
:100E3300120138FCB20112013849B301120138B56D
:100E4300B3011201385EB4011201380CB50112016D
:100E5300386AB501120138DAB5011201383AB60120
:100E6300120138A5B701120138B2B701120138FDDA
:100E7300B7011201385AB80112013819B901120128
:100E83003846B901120138BEB9011201381ABA0144
:100E930012013864BA01120138FABA01120138C5D5
:100EA300BB011201387ABC01120138EFBC011201F7
:100EB300384ABD01120138BABD01120138E5BD013E
:100EC30012013887BE0112013897BF01120138D7CA
:100ED300BF01120138F4BF0112013813C00112011E
:100EE300385AC0011201387FC001120138B5C00160
:100EF3001201382FC10112013870C1011201389457
:100F0300C2011201383BC30112013892C30112011D
:100F130038FCC30112013815C401120138AAD902E1
:100F2300120138FDD90212013809DA02120138DE42
:100F3300DA0212013805DB0212013840DB0212012A
:100F430038ACDB02120138E8DB0212013821DC0283
:100F530012013839DC021201388EDC02120138A783
:100F6300DC02120138F0DC0212013803DD02120147
:100F7300381DDD0212013833DD0212013866DE024C
:100F8300120138ADDF02120138AFE002120138A9B5
:100F9300E102120138F37F0012013842BE0312014D
:100FA30038D8BE031201388FBF03120138B9BF030B
:100FB300120138ACC103120138D4C203120138B68E
:100FC300D801120138EAD801120138D4E101120123
:100FD3003828E30112013821E401120138A1E501A7
:100FE30012013883E601120138BDE601120138E02F
:100FF300E60112013822E7011201382BE701120141
:101003003875E7011201387FE70112013829E80139
:1010130012013802E90112013856E901120138B808
:10102300E9011201380BEA011201383AEA0112010F
:101033003877EA0112013852EB01120138B9EE0197
:10104300120138BFEE0112013841F401120138BA1E
:10105300F80112013890FC01120138B5CF031201D7
:10106300382BD00312013841D00312013882D00348
:10107300120138BCD00312013835D1031201387084
:10108300D103120138E3D10312013821D203120133
:10109300382AD20312013836D20312013852D2034E
:1010A3001201387DD20312013893D203120138BCE6
:1010B300D2031201381FD3031201385396031201CE
:1010C30038669603120138809603120138A99603F5
:1010D300120138EC96031201382B97031201386979
:1010E3009703120138CE9703120138E397031201D5
:1010F30038EE9703120138FB970312013812980355
:101103001201382098031201382F98031201384432
:101113009803120138599803120138649803120195
:10112300387098031201388398031201388E98039C
:10113300120138B198031201385899031201386823
:1011430099031201387D990312013897990312010B
:1011530038B29903120138CF9903120138DA99038F
:10116300120138969A03120138829B03120138A7A1
:101173009B03120138B29B03120138C79B03120170
:1011830038DB9B031201383C9C03120138429C0359
:10119300120138489C031201384E9C031201386631
:1011A3009C03120138999C031201388F9F0212018C
:1011B300381BA0021201387AA1021201389BA30244
:1011C30012013887A402120138BCA402120138DECE
:1011D300A4021201388DA50212013885A70212015B
:1011E30038AEA70212013840A80212013872A802D1
:1011F3001201387FA802120138D6A802120138FC66
:10120300A80212013869AB021201386CAC02120158
:1012130038C4AC02120138F4B802120138FEB80225
:1012230012013820B9021201382CB902120138C553
:10123300BA02120138F4BA0212013810BC021201C8
:101243003869BC02120138DDBD021201384ABE0200
:1012530012013885BE02120138C4BE021201387D64
:10126300C10212013897C10212013823C2021201CE
:101273003831C2021201388AC20212013898C202FE
:101283001201380BC3021201386FC302120138B9BD
:10129300C30212013842C40212013864C4021201AB
:1012A300388AC6021201389FC902120138B7CA022E
:1012B3001201386ACB021201384CCC0212013817E2
:1012C300E1031201383CE103120138AEE1031201DC
:1012D30038E48703120138ED8703120138F68703D8
:1012E300120138CD88031201387E8A03120138B403
:1012F3008A03120138EE8A03120138248B03120188
:10130300385E8B03120138928B03120138BE8B03B4
:10131300120138078C03120138418C031201388AF9
:101323008C03120138E28C03120138178D0312016A
:1013330038728D03120138AC8D03120138FD8D0311
:10134300120138338E031201386D8E031201389067
:101353008E031201384CE90312013878E9031201B4
:1013630038D3E903120138DDE903120138EDE9034B
:101373001201385EEB031201388AEB03E06670104A
:1013830008A3E066700A08A3E066700408A3E06699
:1013930022E4936670130874019366700C08740258
:1013A30093667005087403936622C3E7960809E7FA
:1013B300960809E7960809E796A2D265D03322C3B7
:1013C300E09608A3E09608A3E09608A3E096A2D2CD
:1013D30065D03322C008C3E096F50808A3E096421F
:1013E3000808A3E096420808A3E0964208A2D26543
:1013F300D033E5087001D3D00822C3E7960809E784
:10140300960809E7960809E79622C3E09608A3E041
:101413009608A3E09608A3E09622C008C3E096F5D9
:101423000808A3E096420808A3E096420808A3E050
:101433009645087001D3D00822C3E493960874013B
:1014430093960874029396087403939622080808E7
:10145300EAC0E0EBC0E086F0E7A4FA180986F0E7FB
:10146300A42AFA180986F0E7A42AFA180986F0E7ED
:10147300A42AFA1986F0E7A4FBE5F02AFA190886EC
:10148300F0E7A42BFBE5F03AFA190886F0E7A42B62
:10149300FBE5F03AFA18180986F0E7A4C5F02BFB30
:1014A300E43AFA1908E7C5F0C6A426F6E5F03BFBD3
:1014B300E43AFA1886F0E7A4F6E5F00826F6E43BEA
:1014C30008F6E43A08F6D0E0FBD0E0FA22E4CFC015
:1014D300E0E4CEC0E0E4CDC0E0E4CCC0E075F020B1
:1014E300C3E633F608E633F608E633F608E633F6E2
:1014F300181818EC33FCED33FDEE33FEEF33FFC366
:10150300EC9709ED9709EE9709EF97191919400F11
:10151300FFEC97FC09ED97FD09EE97FE191906D527
:10152300F0BEECF709EDF709EEF709EFF719191912
:10153300D0E0FCD0E0FDD0E0FED0E0FF221215A801
:101543001818181214D01215971919192212159771
:10155300191919080808E618181820E7E01214D01A
:101563001215A818181822090909E719191920E7EB
:10157300DC080808E618181820E7030214D012152F
:10158300A81818181214D01215A81818181215979D
:1015930019191922E4C397F709E497F709E497F7B0
:1015A30009E497F722E4C396F608E496F608E4966E
:1015B300F608E496F6226017080808C6A2E713C6E1
:1015C30018C613C618C613C618C613C6D5E0E92233
:1015D3006016080808C6C313C618C613C618C61370
:1015E300C618C613C6D5E0EA2270090808082260A7
:1015F30016181818C6C333C608C633C608C633C67A
:1016030008C633C6D5E0EA22E627F60809E637F628
:101613000809E637F60809E637F622E026F608A3B6
:10162300E036F608A3E036F608A3E036F622E02615
:10163300F008A3E036F008A3E036F008A3E036F0A4
:1016430022C3E697F60809E697F60809E697F6082F
:1016530009E697F622C3E096F008A3E096F008A304
:10166300E096F008A3E096F022E056F608A3E056D1
:10167300F608A3E056F608A3E056F622E056F00873
:10168300A3E056F008A3E056F008A3E056F022E6E4
:1016930047F60809E647F60809E647F60809E64764
:1016A300F622E046F008A3E046F008A3E046F0087F
:1016B300A3E046F022E066F008A3E066F008A3E0AA
:1016C30066F008A3E066F022E0F608A3E0F608A3BC
:1016D300E0F608A3E0F622E6F008A3E6F008A3E6A6
:1016E300F008A3E6F022E0FAA3E0FBA3E0FCA3E00A
:1016F300FD22EAF0A3EBF0A3ECF0A3EDF022CAC0C5
:10170300E0E6F0A308DAFAD0E0FA22CAC0E0E0A3E8
:10171300C582CCC582C583CDC583F0A3C582CCC5A4
:1017230082C583CDC583DAE6D0E0CA22C3E498F844
:10173300E499F91217708026C3E49AFAE49BFBE953
:1017430020E7E9121770E498F8E499F922C3E498C2
:10175300F8E499F9121770E498F8E499F9C3E49A54
:10176300FAE49BFB22EB20E7CFE920E7E0B9001086
:10177300BB0008E88AF084F8AAF022E4FBC8FA2246
:10178300EB70227B10C833C8C933C9335007C39ADF
:10179300C3DBF280069A50012ADBEAC833F4C8C9D6
:1017A30033F4C9FA2275F008E4C833C8C933C9331E
:1017B300C99AC99B5004C92AC93BD5F0ECFBC8336D
:1017C300F4C8E4C9FA22600D08C6A2E713C618C616
:1017D30013C6D5E0F322600C08C6C313C618C6139C
:1017E300C6D5E0F422700422600D18C6C333C608C0
:1017F300C633C6D5E0F41822251810AF08F51840F3
:101803000215198008F51840021519D2AF22C0D06D
:10181300251810AF08F518500205198008F518505F
:10182300020519D2AFD0D0222518F58210AF08F5E2
:1018330018400215198008F51840021519D2AF8512
:101843001983222518F582E43519F58322E47325DB
:1018530018C582C0E0E51934FFC583C0E0E518C3AD
:10186300958224F810AF088583198582188008852E
:101873008319858218D2AFCEF0A3E520F0A37808B0
:10188300E608F0A3DEFAEFF0A3E58124FAF8E60810
:10189300F0A3E608F0A3E608F0A30808E608F0A31F
:1018A300E608F0A315811581D0E0FED0E0F815819C
:1018B30015811581E8C0E0EEC0E0222518C582C07D
:1018C300E0E51934FFC583C0E0E518C3958224F928
:1018D30010AF08858319858218800885831985824E
:1018E30018D2AFCEF0A3E520F0A37808E608F0A362
:1018F300DEFAEFF0A3E58124FBF8E608F0A3E6089F
:10190300F0A30808E608F0A3E608F0A31581158103
:10191300D0E0FED0E0F815811581E8C0E0EEC0E02C
:1019230022851983851882E0A3FEE0A3F5207808B9
:10193300E0A3F608DFFAE0A3FFE0A3C0E0E0A3C062
:10194300E0E0A3C0E0E0A3C0E0E0A3C0E010AF0884
:101953008582188583198008858218858319D2AFFB
:10196300D083D082020135851983851882E0A3FED6
:10197300E0A3F5207808E0A3F608DFFAE0A3FFE090
:10198300A3C0E0E0A3C0E0E0A3C0E0E0A3C0E01098
:10199300AF08858218858319800885821885831985
:1019A300D2AFD083D08222C0D02518C582C0E0E553
:1019B3001934FFC583C0E0E518C3958224F310AF43
:1019C300088583198582188008858319858218D232
:1019D300AFC8F0A3E9F0A3EAF0A3EBF0A37908E71B
:1019E30009F0A3D8FAECF0A3EDF0A3EEF0A3EFF027
:1019F300A3D0E0F0A3D0E0F0A3D0E0F0A3E520F083
:101A0300A3E5F0F0A322851983851882E0C0E0A343
:101A1300E0F9A3E0FAA3E0FBA37808E0F608A3DF6C
:101A2300FAE0FCA3E0FDA3E0FEA3E0FFA3E0C0E037
:101A3300A3E0C0E0A3E0F5D0A3E0F520A3E0A3F585
:101A4300F010AF088583198582188008858319856E
:101A53008218D2AFD082D083D0E0F8D0E0327404C1
:101A63008006740280027401C0E0F40412182BD0C3
:101A7300E0121701227404800474028000CCC0E0D9
:101A8300EDC0E0E518C39CCCAD1950011D10AF06A5
:101A93008C188D1980068C188D19D2AF12170ED0A1
:101AA300E0FDD0E0FC22D083D082C5F0E493A3C54F
:101AB300F0C395F0F5F0E493A3C395F04005E5F08A
:101AC300048001E475F002A42582F582E5F03583F4
:101AD300F583E493A3C0E0E493C0E022D083D082F3
:101AE300E9C0E0E493A3C386F0C5F095F0F908E4F8
:101AF30093A386F0C5F095F0700BE493A3C39940CC
:101B030005E9048002A3E475F002A42582F582E5C9
:101B1300F03583F583D0E0F9E493A3C0E0E493C008
:101B2300E022D083D082E9C0E0E493A3C386F0C56A
:101B3300F095F0F908E493A386F0C5F095F07024CE
:101B430008E493A386F0C5F095F0701908E493A315
:101B530086F0C5F095F0700E08E493A3C39940078F
:101B6300E9048004A3A3A3E475F002A42582F5820B
:101B7300E5F03583F583D0E0F9E493A3C0E0E49383
:101B8300C0E022D083D082CCC0E0E493A3600612ED
:101B93001BB01470FAE493A36006121BCF1470FAFF
:101BA300D0E0FCE493A3C0E0E493C0E022C0E0E40F
:101BB30093A3D39C5010E493A3C39C400AD0E0D0DA
:101BC300E0D0E0021BA3A3A3A3D0E022C0E0E493F0
:101BD300A36C7009D0E0D0E0D0E0021BA3A3A3D094
:101BE300E022D083D082ECC0E0EDC0E0E493A3FC1C
:101BF300E493A3FDED4C600D121C31EC24FFFCEDCE
:101C030034FFFD80EFE493A3FCE493A3FDED4C606C
:101C13000D121C70EC24FFFCED34FFFD80EFD0E0CF
:101C2300FDD0E0FCE493A3C0E0E493C0E022C0E075
:101C3300C3E49396087401939618400FE493667077
:101C43000808740193661870007019A3A3C3E49382
:101C530096087401939618A3A3400DD0E0D0E0D06A
:101C6300E0021C21A3A3A3A3A3A3D0E022C0E0C04E
:101C7300F088F0E4936670080874019366187000A6
:101C8300A8F0A3A3700BD0F0D0E0D0E0D0E0021C0A
:101C930021A3A3D0F0D0E022D083D082ECC0E0ED2A
:101CA300C0E0EEC0E0EFC0E0E493A3FCE493A3FD47
:101CB300E493A3FEE493A3FFEF4E4D4C6015121D76
:101CC30017EC24FFFCED34FFFDEE34FFFEEF34FF91
:101CD300FF80E5E493A3FCE493A3FDE493A3FEE474
:101CE30093A3FFEF4E4D4C6015121D54EC24FFFCE3
:101CF300ED34FFFDEE34FFFEEF34FFFF80E5D0E06F
:101D0300FFD0E0FED0E0FDD0E0FCE493A3C0E0E42C
:101D130093C0E022C0E0C0F088F012143CA8F04069
:101D230007121394A8F0701AA3A3A3A312143CA838
:101D3300F0A3A3A3A34013D0F0D0E0D0E0D0E002FF
:101D43001D01A3A3A3A3A3A3A3A3A3A3D0F0D0E0A4
:101D530022C0E0C0F088F0121394A8F0A3A3A3A3B9
:101D6300700BD0F0D0E0D0E0D0E0021D01A3A3D0EF
:041D7300F0D0E022AA
:101D7800C0E074F01219AAA2AFE433FFD2AFE5892C
:101D8800F8E5AB58F50A6051F4F589C2C57E008EB6
:101D980008750900740278081217E8121E5EC3E875
:101DA8009408E99400502BE85407F87401B800022D
:101DB8008004C333D8FC550A6018750800750901FA
:101DC800EE78081217E8AA08AB09900281E0F91228
:101DD80004D30EEEC3940440B6EFA2E092AF7F03A3
:101DE800021A09C0E074F01219AAA2AFE433FFD2B4
:101DF800AFE58AF8E58D58F50A6059F4F58AC2EB23
:101E08007E008E08750900740278081217E8121E01
:101E18005EE82400FAE934FFFBC3EA9408EB940077
:101E2800502BE85407F87401B800028004C333D873
:101E3800FC550A6018750800750901EE7808121734
:101E4800E8AA08AB09900281E0F91204D30EEEC3A8
:101E5800940440AE8083121ECBF922C0E074F012C5
:101E680019AAA2AFE433FFD2AFE58BF8E5AC58F579
:101E78000A604DF4F58BC2E87E008E08750900747F
:101E88000278081217E8121ECBC39402402BE854BC
:101E980007F87401B800028004C333D8FC550A60FF
:101EA80018750800750901EE78081217E8AA08AB3A
:101EB80009900281E0F91204D30EEEC3940440BAEB
:101EC800021DE174622508F58274033509F583E083
:101ED800F8A3E022C2AF02000022C0E0C0D0E8C0F0
:101EE800E0E9C0E0E5A8D2AFC2C7751A00A2E7A230
:101EF800E792AFD0E0F9D0E0F8D0D0D0E03274F576
:101F08001218BEEAFEEBFFEE2434F8EF3400F9882D
:101F1800088909EE2435122032F8EE2437122032CF
:101F2800F50AEC850AF0A4FCAAF0850AF0EDA42ACB
:101F3800FDE82CF8E43DF97A257B00121770EA8554
:101F48000882850983F074075AF87401B800028082
:101F580004C333D8FCFBEA131313541FF8EE28F814
:101F6800EF3400F9E8245DF582E91220355B60035F
:101F7800EA801CEE2436122032F5F0EA84A8F0EE4E
:101F880028F8EF3400F9E82438F582E9122035F909
:101F98007F0402196A74F51218BEEAFEEBFFEE24FC
:101FA80034122032C0E0EE2435F582EF3400F58398
:101FB800D0E0F08E828F83A3A3A3A3A3E0FAA3E0CB
:101FC800FB8E828F83A3A3A3A3A3A3A3E0FCA3E018
:101FD800FDECC39AF50AED9BF50BEE247FF508EFAF
:101FE8003400F509850882F583E06401702BEE243E
:101FF80080F582EF3400F583121A7C12203B7402BC
:10200800121811E960137C937D06EEFAEFFB120EAD
:10201800BD850882850983E4F0AC0AAD0BEEFAEFC2
:10202800FB121F06122ACD021F98F582EF3400F525
:1020380083E022C082C083851882851983E0F8A3D3
:10204800E0F9C3EA9CEB9D5010C3EC98ED99401B56
:10205800C3EA98EB995014800EC3EA98EB994007AD
:10206800C3EC98ED994004790180027900D083D0BF
:102078008222EAC39CFAEB9DFB2274ED1218BE90F3
:102088000559E064086005E06407702C9061C8E0B9
:102098006026900587E0F874FF68601CE875F00317
:1020A800A4C8AAF02AF9748928FE740539FF8E821B
:1020B8008F83A3A3A3E070057900022222EE24688F
:1020C800F510EF3400F511906060E08510828511FD
:1020D80083F0750A13750B07750800750900E5D9B3
:1020E80014F50EE5D95403F50F601CEE2482F50CA7
:1020F800EF3400F50D7403650F6058E50E6013EEBC
:102108002467122032700B793DEEFAEFFB120EE1D4
:1021180080A690070EE064016026850C82850D83F9
:10212800E06004780480027800850E08E508C3980A
:10213800FA95E0FB120D498A088B09EA45097006F1
:1021480012118D0220C0850C82850D83E070048AEF
:102158000A8B0B78008016E5D9C0E08812E50A25BD
:1021680012F582E50B3400F583D0E0F008E8C3955A
:102178000E40E4850C82850D83E0602874FC250EF2
:10218800F50E780A121A65AC0EA90FEEFAEFFB12DB
:102198000F8F7402121811E9700AAA08AB09120607
:1021A8005F02210F7403650F6058850E0C750D00D2
:1021B800780C121A65AC0AAD0BAA08AB09120F53BA
:1021C8007402121811851082851183E0F8748068F2
:1021D8007005750C7F8002880CE50CF50A780A12E8
:1021E8001A69E50FF50A780A121A69A90EAC08AD42
:1021F80009900587E0FA7B00120BE17402121811AE
:102208008013900559E06408600BAC0AAD0BEEFA38
:10221800EFFB12104912119979017F0C02196A74A7
:10222800F31218BE74FC1217FBEAFEEBFF8908A232
:10223800AFE433F509C2AFEE2463F50AEF3400F5D5
:102248000B8010AA0AAB0B120F0B12065F90069AAE
:10225800E004F0850A82850B83E0F8A3E0F9E849F9
:10226800602FE82402FAE93400FBEA2402F50CEBBB
:102278003400F50D780C121A658A828B83E0FCA372
:10228800E0F9EEFAEFFB120EFF7402121811E96082
:10229800B290069AE0605790069BE0F890069AE0A4
:1022A800C398500C74026508704490069CE0603E28
:1022B8008E828F83A3A3A3A3E08518828519831236
:1022C80023067402121846E8122306900699E0289D
:1022D800F07402121846AC82AD8385188285198382
:1022E800AA82AB837901120BED90069AE4F0E50916
:1022F800A2E092AF74041218117F0602196AF0A3C3
:10230800E4F090069AE0F822852A87852BC622C039
:10231800E074EF1219AAA2AFE433FEC2AF759B00B6
:10232800906182E0A2E05012E591A2E0500C759114
:10233800FE7401652A7003122082E0A2E55051E57F
:1023480091A2E5504B7591DF900559E0640760054F
:10235800E0640870237401652A7035790190058757
:10236800E0FA75F003A4CAA8F028FB74892AFA7465
:10237800053BFB1222278018E0640D701390057B43
:10238800E004F064287002E4F07A00E0F912119F8A
:10239800906182E0A2E6400302243EE591A2E64075
:1023A8000302243E7591BF900559E0640570081238
:1023B800108B1210978003121091752A00121115B4
:1023C800E990055AF079001210F7120E1B7A017B7A
:1023D80000900558E0F91204D3907803E064427045
:1023E80055900712E014F0704DC2AF1223F6007832
:1023F80033D0E0F618D0E0F6E59F5407700575096C
:10240800FF800375097FC4C0E07832E6F50808E666
:102418005509F509740B78081217D9D0E02508F882
:10242800906270E0A2E740F8E8C333906272F090DF
:102438006270E0D2E0F0906181E0A2E35009E5E942
:10244800A2E3500375E9F7A3E0A2E75009E591A2DA
:10245800E7500375917FEEA2E092AF7F04021A095C
:10246800C0E0C0D0C082C083906183E0A2E0500980
:10247800E5BFA2E0500375BFFEE0A2E15009E5BF49
:10248800A2E1500375BFFDE0A2E25009E5BFA2E258
:10249800500375BFFBE0A2E35009E5BFA2E3500378
:1024A80075BFF7E0A2E45009E5BFA2E4500375BF89
:1024B800EFE0A2E55009E5BFA2E5500375BFDFE0F4
:1024C800A2E65009E5BFA2E6500375BFBFD083D08E
:1024D80082D0D0D0E032C0E074F21219AAE5A7A2E7
:1024E800E4500FE5A1A2E4500953A7EF75A1EF123C
:1024F8002532E5A7A2E5500CE5A1A2E5500653A7B1
:10250800DF75A1DFE5A7A2E15009E5A1A2E150032B
:1025180075A1FDE5A7A2E2500CE5A1A2E250065381
:10252800A7FB75A1FB7F01021A0974F81218BE7582
:102538002A01900559E0640670077A007B001210A2
:1025480073A2AFE433FED2AF90055FE06401701868
:102558007A207B00900558E0F912055D7A207B000F
:10256800900558E0F91204D9906182E0D2E6F09023
:10257800070FE0602185C62B801690055EE0640198
:102588007008E5C654F84405F5C653BEFC1223107E
:102598007401652A60E4EEA2E092AF7F0102196A35
:1025A8008E2C8F2D858231858330851882851983FD
:1025B800E0CEA3E0CF853182853083EBC9EAC8ED50
:1025C800CBECCA75F010C3E833C8E933C9EA33CA9B
:1025D800EB33CBC3EA9EF52FEB9FF52EB35004AB3C
:1025E8002EAA2FEC33CCED33CDD5F0DAAE2CAF2DAF
:1025F8002274E91218BE74FA1217FBEAFEEBFF8C7C
:10260800088D09900559E024F7C394055006751004
:1026180001022724120FE98A0A8B0BEA450B700383
:102628000227211210A98A0C8B0D1210A9EA650C39
:102638007003EB650D60ECEEFCEFFD8518828519E3
:1026480083AA82AB831210AF850A82850B83A3A36A
:10265800780C1216CB909464780C12166C8518823C
:1026680085198378141216CB909464781412166C1A
:10267800780C79141213FD501F780C791412164433
:10268800909418780C12141D4047850C10850D1174
:10269800850E12850F1380459094188514108515A2
:1026A800118516128517137810790C1216447810B4
:1026B80012141D501C751000751100751200751349
:1026C80001781079141216447810790C12160B80C0
:1026D8000C751001751100751200751300740978D6
:1026E800101215EC909414780C1216CB7810790C03
:1026F8001214D0900559E06408600AE06406600589
:10270800E064057020909410781012141D501690F3
:10271800940C781012161E800C7510007511007537
:10272800120075130085088285098378101216DA5D
:1027380074061218117F1002196A74F71218BE1263
:1027480010C190070DE064017010906245E4F0A399
:10275800F053F4F343FE0C5390F3121061E5C654A2
:10276800804449F5C6E59E547F644970F8906185B8
:10277800740FF090070BE0F47002A3E0602C75086A
:102788000175090090070BE078081217E8E508F4CE
:10279800FAA3E0600814600A14600C800DEA528005
:1027A8008008EA52908003EA52A079007F02021959
:1027B8006A74F71218BEE9FEEAFF74016E700C7AAB
:1027C800807B00900558E0F91204D3902ADCE4934A
:1027D800F46008E493F9120DFD800953C680E59E64
:1027E800547F70FA12106790070DE06401700312AD
:1027F8000E3390070BE0F47002A3E0602A7508011D
:1028080075090090070BE078081217E8AA08A3E0FA
:10281800600814600A14600C800DEA42808008EA9F
:1028280042908003EA42A0120FE98A088B09A8089F
:10283800A909E8496017E5E170FCE82414F582E984
:102848003400F583E0F874FF68600288E174016F72
:10285800700A7A01900558E0F912052D0227B47420
:10286800F11218BE8A088B098C0A8D0B9094647833
:102878000812166C740F121846780C1216CB909426
:1028880064780C12166C7808790C1213FD90941861
:1028980050107808790C121644780812141D401448
:1028A800800E780C7908121644780C12141D500406
:1028B8007901800279007F0802196A74ED1218BE46
:1028C8008A088B098C0A8D0B909464780812166C10
:1028D8007413121846780C1216CB909464780C1264
:1028E800166C780C79081213FD40117808790C12CF
:1028F8001644AA08AB09AC0AAD0B80227510007506
:1029080011007512007513017810790C12164478AD
:1029180010790812160BAA10AB11AC12AD137F0C6C
:1029280002196A90946478081216CB8A828B83788D
:102938000812167F7F0402196A74F51218BE8C8279
:102948008D8378081216CB8A828B837808121658E2
:10295800122995C3E098F0A3E099122987401E90A8
:10296800940878081216CB8A828B8378081216315D
:102978008E828F83E02420F0A3E0344EF080A4F010
:102988008E828F83C3E09420A3E0944E22EA24042D
:10299800F8EB3400F9E8FEE9FF8C828D83A3A3A34A
:1029A800A3E0F8A3E0F98E828F832274F51218BE93
:1029B800E9FE9006AEE0FAA3E0FBEEC333F8E43399
:1029C800F974F928F582749239F583E02AF508A399
:1029D800E03BF5097808121A659094781216E91206
:1029E80025A874021218118A088B098C0A8D0B7499
:1029F8001078081215D3AA08AB097F0402196A7463
:102A0800F11218BE8A0C8B0D8C0E8D0F740F1218D4
:102A180046E0FAA3E0FB7411121846E0F508A3E0BB
:102A2800F5097808121A65EA2401F508EB3400F56F
:102A380009E4F50AF50B780C79081214509094748F
:102A480078081216CB780C7908121450AA0CAB0D22
:102A5800AC0EAD0F1225A874021218118B09EA45A5
:102A68000960047A0180027A00EC2AFCED3400FD4A
:102A78007413121846E0F8A3E0F9E8FEE9FFECF851
:102A8800EDF97A717B0212177088088909E4F50A52
:102A9800F50B8E828F8378081216DAECF8EDF97A46
:102AA800717B021217708A088B097405780812174F
:102AB800E88E828F83A3A3A3A3E508F0A3E509F01A
:102AC8007F0802196AC082C083E9906000F0D08351
:032AD800D0822287
:102ADC00FFFFFFFFFFFFFFFFC082C08385218285C0
:102AEC002283E06420700A852283A385822185835A
:102AFC0022023B9474F4121852A821A922AC21ADE5
:102B0C0022801CA3AA82AB838A828B83E0F50A7491
:102B1C0020650A60EE7409650A60E8EAFCEBFDECDE
:102B2C00FAEDFB8A828B83E075F00D84E5F033FEC1
:102B3C00E433FF74812EF58274093FF5831263969A
:102B4C008004ECFAEDFB8A828B83E0F50A7427652E
:102B5C000A60067422650A703A122CD28A828B8320
:102B6C00A3AA82AB838A828B83E0FCA3AA82AB8369
:102B7C0088828983122CD8E50A6C609F740A6C7069
:102B8C00E4E824FFF8E934FFF9EA24FFFAEB34FF18
:102B9C00FB8088740A650A701A88828983740AF02B
:102BAC00026BC0AE08AF098A828B83A3AA82AB8367
:102BBC00E0F50A8E828F83A38582088583098E8235
:102BCC008F83E0650A60DCE0F50AC394804033C370
:102BDC00E52198E522995008122CCB700318A98393
:102BEC00122CD28E828F83E064806003022B1485BA
:102BFC000882850983E088828983F0A308A983026F
:102C0C002B14EEFAEFFB8A828B83A3AE82AF838AFE
:102C1C00828B83E0C3948040E9EE24FF122CC464C1
:102C2C008070088E828F83A30EAF838E828F83E099
:102C3C006003022B4E8C828D83122CDF5016122CCB
:102C4C00D28C828D83A3AC82AD83122CDF40030225
:102C5C002B2B80EA88828983A3AA82AB83740965B3
:102C6C000A60067420650A7036C3E52198E522993E
:102C7C005010122CCB600B888289837420F0EAF8F8
:102C8C00EBF98C828D83A3AC82AD83E0F50A7420C2
:102C9C00650A60EE7409650A6003022B2B80E388D9
:102CAC00828983E50AF0EAF8EBF98C828D83A3AC78
:102CBC0082AD83022B2BF582EF34FFF583E02212D9
:102CCC006E1FE064202288828983E50AF0A3A88223
:102CDC00A98322E0F50A74BF250AC3941A2274E86A
:102CEC001218528A108B118C128D13750C0A750DDB
:102CFC0000750E00750F0090942C78101213D740AD
:102D0C001B792D1205FF78101215A8800F90947066
:102D1C0078081216CB780C7908121450780C7910AC
:102D2C001213AD50E88036851014851115851216D6
:102D3C00851317850C08850D09850E0A850F0B78F0
:102D4C0014790812156A90947078081216CB7814BE
:102D5C00790812156AE5082430F91205FF90947071
:102D6C0078081216CB780C790812156A122D7F7020
:102D7C00B6800CE50C450D450E450F221218117F3F
:102D8C001002192474F61218521203B99002D1E4ED
:102D9C00F0A31257DF802B126389E875F00AA4F8B0
:102DAC00AAF075F00AE9A42AF9E50828F8E439F93B
:102DBC00E824D0F8E934FFF99002D1E8F0A3E91245
:102DCC0058E8E0F50874D02508C3940A5015900211
:102DDC00D1C3E09499A3E094199002D140B974FF47
:102DEC00F0A3F07F02021924C082C0837A007B001A
:102DFC00852182852283E0F8742268600574276837
:102E0C00702A852283A38582218583228008EA2467
:102E1C00010AEB3400FB7921E72AF58209E73BF53F
:102E2C0083E0F9E8696009740A6970E27AFF7BFF54
:102E3C00023B9474F7121852EAFEEBFF800C120559
:102E4C00FF8E828F83A3AE82AF838E828F83E0F955
:102E5C0070EC790A1205FF7F01021924C082C0832D
:102E6C009002CFE0FAA3E0800E8A828B83A3A3E0CA
:102E7C00F8EA28FAEB3400FBEA65237003EB6524CF
:102E8C0060138A82C0821263868B83D082C3E098DF
:102E9C00A3E09940D4023B9474F11218528908753E
:102EAC000920122FDEA3E0F50B9002CDE0240312D3
:102EBC002FF1AA0AAB0BE4FCFD1203C580057920A7
:102ECC001205FF85080B74FF250BF5080470EF80C5
:102EDC003CA90A1205FF8E828F83E0F50AA3AE820D
:102EEC00AF83E50AC3948040E8EE24FE122CC2F5B1
:102EFC000A7428650A60139002CD123C37E0642CEA
:102F0C00600879201205FF750A20850A09122FDE48
:102F1C009002CDE0240108122FF2740A650A7003A6
:102F2C00022FD4E50AC394805007A90A1205FF802A
:102F3C00D9750C81750D09802A7480650E7004ECAE
:102F4C00F8EDF988828983A3A882A983E8FEE9FFBA
:102F5C0088828983E07023E50C2402F50CE50D349E
:102F6C0000F50D850C82850D83126396EE4F609AE9
:102F7C00EEF8EFF980DAECF8EDF988828983A3ACEE
:102F8C0082AD8388828983E0C3948040E9E0F50EAA
:102F9C00E50A650E70A37480650A701E8C828D83A1
:102FAC00E0FB9002CDE0FAA3E0F5838A82E06B703F
:102FBC00889002CDE02401122FF174206509600580
:102FCC0079201205FF022EE2790A1205FF7F070213
:102FDC0019249002CDE0F8122FEAE0F50A22A3E0C2
:102FEC00F583888222F8A3E03400F99002CDE8F052
:102FFC00A3E9F02274F0121852E9FFEAFE750800FA
:10300C00750900750A00750B00802274D02AFAEA43
:10301C00C39E50518E0CE4F50DF50EF50F78087922
:10302C000C1214508A0C7808790C12160BEFF974E8
:10303C00FF291F046035852182852283E0FAA38550
:10304C00822185832274D02AC3940A40BE74BF2A7D
:10305C00C39406500474C980B4749F2AC394065058
:10306C000474A980A8752502125876AA08AB09AC7D
:10307C000AAD0B025B8174F41218528908EAFCEB5E
:10308C00FD9002D3E06508700D9002D41263898C18
:10309C00828D8302314D74BF2508F985080A750BA2
:1030AC00007402780A1217E87826E6250AFA08E670
:1030BC00350BFBEA24FCFAEB34FEFBE91313135437
:1030CC001FFE18E62EFE08E63400FFEE2468F5829B
:1030DC00EF125820C0E0740759F8D0E0B800028015
:1030EC0004C313D8FCA2E05063A828A929800D883A
:1030FC00828983126395E82EF8E93FF9C3E8952697
:10310C00E99527504788828983E0645670E1A3A330
:10311C00A3A3E0650870D88C828D83123B23888230
:10312C008983A3A3A3E06402602DE5089002D3F089
:10313C009002D4123B23E82408F8E93400F99002F9
:10314C00D6123B239002D6126CC1800B8C828D83DD
:10315C00749DF0A37409F0026BC074EC121852EA5F
:10316C00FEEBFF123B345061A38582218583221232
:10317C0003EF8A088B098E828F83125E8C705C85BC
:10318C002182852283E06428703FA3858221858378
:10319C002279011204078A108B118C128D13E525EC
:1031AC00702790942C78101213D7501D8E828F8319
:1031BC00123B49F50CA3E034FFF50DE4F50EF50FC9
:1031CC00780C79101213AD40067A007B008010E564
:1031DC00082510F508E5093511F509AA08AB097F92
:1031EC000C02192474F2121852E9FE8A088B09A8F1
:1031FC0008A9091232DAEA24F8F8EB34FFF9C3E82B
:10320C009523E9952450067525040232D585080CC2
:10321C0085090DE50C2408F8E50D3400F91232DAB5
:10322C008A288B29AC28FD8C828D837456F0E50C92
:10323C002408A3123B248C828D83A3A3A37404F0D3
:10324C00EE8C828D83A3A3A3A3F074BF2EFF125820
:10325C00335FFA88828983E0C0E0EAFBD0E0BB00F0
:10326C00028004C313DBFC54018C828D83A3A3A3C3
:10327C00A3A3F08C828D83A3A3A3A3A3A31258941E
:10328C00B800028004C333D8FCF974FFC399F8E08A
:10329C005849F07828E62408FA08E63400FB740E46
:1032AC00121846E0FCA3E0FDEC4D600F7808121AF2
:1032BC006512047F74021218118009AC08AD0979EB
:1032CC00001204979002D3E4F07F06021924C31273
:1032DC0032DF22E498FAE499FB78281232EB22E6EA
:1032EC002AFA08E63BFB2274F0121852E9FEEA2493
:1032FC00FCFCEB34FFFD74BE6E701A8C828D8378EF
:10330C00081216CB78081215A88C828D83780812B7
:10331C0016DA02350BECFAEDFBEA24FCFCEB34FF7D
:10332C00FDEE121AA9AC11FF3459336D3381339D64
:10333C0033C133F13306341B3430343F3455346BE2
:10334C00346B34813497343F34C034DB348A828B11
:10335C008378081216CB8C828D83780812163180F4
:10336C00B18A828B8378081216CB8C828D83780875
:10337C00121658809D8C828D8378081216CB8A8207
:10338C008B83780C1216CB7808790C1214500234FB
:10339C00F48A828B83780C1216CB122D7F70030269
:1033AC0035048C828D8378081216CB7808790C1230
:1033BC00156A0234F48A828B83780C1216CB122D88
:1033CC007F70030235048C828D8378081216CB78BB
:1033DC0008790C12156A850C08850D09850E0A856D
:1033EC000F0B0234F48A828B8378081216CB8C82F2
:1033FC008D83780812167F02350B8A828B837808AE
:10340C001216CB8C828D8378081216A502350B8A86
:10341C00828B8378081216CB8C828D8378081216D7
:10342C00B802350B8A828B8378081216CB8C828D6E
:10343C0083804F8A828B8378081216CB8C828D8383
:10344C00780812137F605C80568C828D837808120A
:10345C0016CB8A828B8378081213C2504680408A1E
:10346C00828B8378081216CB8C828D83780812138A
:10347C007F7030802A8C828D8378081216CB8A82DA
:10348C008B8378081213C2401A80148A828B83783B
:10349C00081216CB8C828D8378081213C25004D27A
:1034AC00F08002C2F0A2F0E433F508E4F509F50A65
:1034BC00F50B80348C828D8378081216CB8A828B24
:1034CC0083780C1216CBE50C78081215EC80198C4D
:1034DC00828D8378081216CB8A828B83780C121615
:1034EC00CBE50C78081215B98C828D8378081216EE
:1034FC00DA800C75250280037525037A007B0002A7
:10350C005B8174E812185274D11217FB74021218F2
:10351C0046E9F0750E01E52560030238A7740F1219
:10352C0018468582088583097407121846AE82AF47
:10353C0083740E121846A882A983740512184612B9
:10354C003B237407121846A882A9837403121846E9
:10355C00123B23740F1218468582168583178055EB
:10356C00742F121846E58265087004E583650970AE
:10357C0003023697852182852283E0F50A750B00BC
:10358C007402780A1217E874A5250AF582748F352F
:10359C000BF5831216E98508828509831216F585C9
:1035AC002182852283A38582218583228514088527
:1035BC001509750E00852182852283E0F510A385FF
:1035CC00822185832278211269D9EAF8EBF9E50882
:1035DC002404F514E5093400F5158E828F83A38538
:1035EC00820C85830D8E0A8F0BE510121B86029DB3
:1035FC009F4C38AEBD573A0F0AC13620C135282929
:10360C003829CF382C8438806C35AC573AAD4E3ACB
:10361C00BF4C38C0C037C14C38C20337C33B37C46A
:10362C00ED36E54C38333674D02510C3940A50313E
:10363C00742F121846E58265087004E583650960ED
:10364C004A882189227A0A79FF1203E98508828542
:10365C0009831216F58514088515097525000235A0
:10366C00BE74BF2510C3941A504B851882851983DC
:10367C00AA82AB83A9101203EF125E867013740535
:10368C00121846123B29500302383B7525040238A8
:10369C00A7742F121846E58265087004E583650946
:1036AC0060E98A828B831216E98508828509831268
:1036BC0016F50235B8882189227403121846C3E026
:1036CC009EA3E09F4003023AD512585CAA08AB09AE
:1036DC008E828F83E0F9120401123AFA40DB023831
:1036EC00A0742F121846E58265087004E5836509FD
:1036FC0060997A100236531203B9A821A922888244
:10370C008983A385822185832288828983E0642929
:10371C0060030238A0742F121846E5826508700405
:10372C00E5836509700302369712064D0236B51211
:10373C0003B9A821A92288828983A3858221858344
:10374C002288828983E0642960030238A0742F12D6
:10375C001846E58265087004E58365097003023636
:10376C009775B61FE5B4A2E750FAE5BAF50AE5BBC2
:10377C00F9E50AF50CE9F50D7406780C1217C9E594
:10378C000D3395E0F50EF50F90945078101216CB82
:10379C00780C791012145090944878101216CB783B
:1037AC000C791012156A850882850983780C12161B
:1037BC00DA0235B8123B3440030238A0A3E0642986
:1037CC0060030238A0742F121846E5826508700455
:1037DC00E58365097003023697852182852283A3D0
:1037EC00A3858221858322851882851983AA82ABC1
:1037FC00831203EF125E8660030238A0851882855F
:10380C0019831259B8850882850983880889097536
:10381C000A00750B0078081216DA0235B8740F120C
:10382C001846E5826E7003E5836F70030236978E3F
:10383C00828F83E510F0AE0CAF0D750E010235C111
:10384C007405121846123B2940030236978E828F5C
:10385C0083E510F0AE0CAF0D8E828F837428F0A32D
:10386C000EAF8380D5123B0C603EAA08AB09E8F979
:10387C00120401123AFA501C7407121846E5826EB3
:10388C007003E5836F70DE7402121846E0640270F8
:10389C00030236C5E52570037525027A007B007C92
:1038AC00007D00742F022D88A3AE82AF830235BE3B
:1038BC00123B0C602AAA08AB09E8F9120401123A6F
:1038CC00FA50D17407121846E5826E7003E5836FC7
:1038DC0070DE7402121846E0640170B80236C574CA
:1038EC0003121846C3E09EA3E09F40030235C17447
:1038FC000F121846E58265087004E583650960942B
:10390C00E50824FCF50AE50934FFF50B850A82F578
:10391C0083780C1216CB12585C8E828F83E0F510D4
:10392C002463606814606B14606E24E0600B24FEEA
:10393C00603024DC60750239E290942C780C121300
:10394C00D74005780C1215A8850C10850D11850E25
:10395C0012850F13850A82850B8378101216DA02F2
:10396C00384612049D8A108B11E4F512F513781069
:10397C00790C12156A850A82850B83E50CF0A3E598
:10398C000DF0A3E50EF0A3E50F023A43AA0C790063
:10399C00800AAA0C79018004AA0C790212043785DA
:1039AC000A82850B831216F5023846850D11E51136
:1039BC00548060030238A0E4F510F5117810121A47
:1039CC00657900AC0AAD0BAA0CAB0D1206E37402C0
:1039DC0012181102384674BF2510C3941A505B8517
:1039EC001882851983AA82AB83A9101203EF125E89
:1039FC008660030238A090942C780C1213D74003E5
:103A0C000238A0123B43F510A3E034FFF511E4F5A6
:103A1C0012F5137810790C1213AD40030238A0EA9A
:103A2C00250CF582EB350DF583E0850A82850B8339
:103A3C00F0A3E4F0A3F0A3F08005A3AE82AF830261
:103A4C003846E50EA2E050037510BE85100A74B21C
:103A5C00250AF5827491125820F50AEE24FFF8EF2E
:103A6C0034FFF988828983E0FC74542CF50C7407BC
:103A7C00121846E5826E7003E5836F6019E50CC37E
:103A8C0094135012745E250CF5827492125820FA1D
:103A9C00E50AC39A501F740F121846E5826E700324
:103AAC00E5836F70030236978E828F83E510F0A347
:103ABC00AE8202386D1EE9FFAA08AB09ECF91204BC
:103ACC0001123AFA40950238A07413121846E58296
:103ADC0065087004E583650960030238A0E50824D5
:103AEC00FCF582E5091263671216E90238AF8A0801
:103AFC008B098A828B83C3E5169582E51795832201
:103B0C00EE24FF1EEF34FFFF8E828F83E0F86428D3
:103B1C0022851082851183E8F0A3E9F022126BD381
:103B2C00C3E50A98E50B9922852182852283E0F969
:103B3C0074BF29C3941A22851882851983E0F81260
:103B4C003B4F22A3E0F5838882A3E024F822C082B5
:103B5C00C0837A007B0C1205159002CF125E567C46
:103B6C00007D0C79001204971259149002CF126A3E
:103B7C00482494F582E8340BF583858226858327C7
:103B8C00852628F529120413D083D082020135C072
:103B9C0082C0837A477B931203D71257F11203C565
:103BAC007A8E7B931203D77AC57B941203D780D875
:103BBC0074F612185212060B12040D123C5C12050C
:103BCC00F312062FE960497A727900120611123C41
:103BDC001F400612597A1206171206239002CFC301
:103BEC00E09523A3E0952450219002CF123C37128C
:103BFC001A7C7508007808121A699094441216E918
:103C0C00790312063B7403121811123C5C1205F373
:103C1C00022DEF8A088B09AC08AD09C3EC9401EDB9
:103C2C009400A2D265D033229002FBE0F8A3122FAD
:103C3C00EB22C082C083800F79007A007B001204D3
:103C4C0025123C5C1205F31205F9E970EB023B946A
:103C5C00AC28AD297823E62402FA08E63400FB22CE
:103C6C0074E812185274F11217FB7406121846E914
:103C7C00F0752500EA4B7003023D5D9002D1125E97
:103C8C0056AE23AF247406121846E0602178281231
:103C9C0057E7C3EA9EEB9F5003024F3D8A288B29BE
:103CAC008A828B837445F0A37403F0A3E4F01203AF
:103CBC00DD8A828B83A3A3A3858221858322C3E51E
:103CCC00219EE5229F40030240A6A821A9228882BA
:103CDC008983A385822185832288828983E0121AB5
:103CEC00A9802BFD3E9F40673F833F9A3FC03F21F9
:103CFC00404440493D73408E400D3FDF40DF409EC5
:103D0C0048514011413341AA49FF4DFF4DA2418119
:103D1C004B40424A425B42B342E5423C43634386DA
:103D2C004386438643C143CF433C445B45BF452751
:103D3C0046D2460C4782479D47CC47DA47852182BD
:103D4C00852283E0640A600302409F1259140240EA
:103D5C0073852382852483A3A385822185832212E4
:103D6C0003BF750A00850A1574012515F50A85151A
:103D7C00087821E6250812581C640A70E8A80AC3C2
:103D8C00E498FE95E0FF750B00780A121A65AC21D9
:103D9C00AD227828E62EFA08E63FFB1206057402DF
:103DAC001218117828E62EFA08E63FFB8A218B229E
:103DBC001203CB1203B99002D1126FEF7019852345
:103DCC0082852483A3A3858221858322E0640A60F3
:103DDC0003023CD6023EF99002D1E0F47003A3E05A
:103DEC00F4700302409F78211257E78A218B22A896
:103DFC0021AA28EAC398F50A9002D1E088828B8325
:103E0C00123B24E50A88828B83A3A3F01203DD8A7C
:103E1C00088B09AE08AF09EE65237003EF652460CB
:103E2C004F8E828F83126A29E0687003A3E0697059
:103E3C003F8E828F83A3A3E0F88882AC82C3E49C7C
:103E4C00FA95E0FB78231232EB8A238B24EAC39594
:103E5C0008F50CEB9509F50D780C121A65EE2CFC97
:103E6C00EF3400FDEEFAEFFB12047F74021218110E
:103E7C00852182852283A3A3A3E0640A606FAC230F
:103E8C00AD24850A8285820C750D007821E6C39CD1
:103E9C00FA08E69DFBC3EA950CEB940050077902F7
:103EAC00740F022D88ECC39508F508ED9509F509FA
:103EBC007808121A65EEFCEFFDEE250AFAEF3400D5
:103ECC00FB1206057402121811780C121A65AC213B
:103EDC00AD22EEFAEFFB12047F7402121811782354
:103EEC00E6250AFA08E63400FB8A238B2479018044
:103EFC00AF1258768A82F583E0C394804003024067
:103F0C009F740D121846AA82AB831203F58A088B94
:103F1C0009AE08AF09EE4F700302409F85218285E0
:103F2C002283E064B8600302409FA38582218583CD
:103F3C002279001204078A088B098C0A8D0BE5255F
:103F4C00600302409F740D121846125E8C8E828F95
:103F5C00836003024B22EAF0024B277E011203CB53
:103F6C00852182852283E0640A600302409F12034C
:103F7C00DD125E53024B441259147A727900120608
:103F8C0011123C1F402212597A120617801A7A77A6
:103F9C00790012061178239002CF126CC1E6C39AF5
:103FAC00FC08E69BFD12061D1206238523218524A1
:103FBC00220240A679001204078A08AF08E52560A2
:103FCC000302409FEF70030240A31203B91259433E
:103FDC00505EE0F87420686005740A6870557A7257
:103FEC00EFF9120611C3EB123C2C500302409F74E4
:103FFC000B121846AA82AB83EEF91203EF740B1264
:10400C001846125E8C6003024C04740B1218461294
:10401C005E7C024C0879001204078A08AF08E5257B
:10402C007071EF60721203B91259435003024C11B4
:10403C00125876120623805B1257F11203C57A8E42
:10404C007B931203D7852182852283E0640A704713
:10405C00024E0A852882852983E064537006125922
:10406C005F120AB51259DAC3E5289526E52995277A
:10407C0040E19002CF123C371258045003023CD658
:10408C008018852182852283E024BFC3941A5003B3
:10409C00024996E5257003752501E525C333F8E43F
:1040AC0033F974D928F582749239F583126CC112E4
:1040BC0003D7AC21AD22C3EC9523ED95244003022C
:1040CC00484FE52570030248599002CFE0FAA3E06F
:1040DC0002480B79001204078B098C0A8D0BE5251D
:1040EC0070B1852182852283E0640A70AAEA4509B1
:1040FC00450A450B60030240517900A38582218556
:10410C00832202487379001204071258AB7084851D
:10411C002182852283E0640A60030240A31203DD3E
:10412C008A828B8302408479001204071258AB6098
:10413C000302409F852182852283E0640A6003028A
:10414C0040A3AE23AF24852882852983A3A3A3A3F0
:10415C00A3C3E5829EE5839F5003024F3D7828E67A
:10416C0024FB1269CB888289837447F0A37405F011
:10417C00A3E41269E7E521F0A3E522F01203DD8A3E
:10418C00828B83A3A3A3858221858322C3E5219EF1
:10419C00E5229F0240871258F3400302409F881487
:1041AC00A38582218583221203B9852182852283EE
:1041BC00E064B8600302409FA38582218583227945
:1041CC00001204078A0C8B0D8C0E8D0FE5256003F5
:1041DC0002409FA821A92288828983A385822185F8
:1041EC00832288828983E064C560030240A379003E
:1041FC001204078A108B118C128D13E525600302B3
:10420C00409FA821A92288828983A3858221858346
:10421C002288828983E064C6600302490079001217
:10422C0004078A088B098C0A8D0BE5256003024074
:10423C009F02490FC2AF75C9AB75C95B80FE852162
:10424C0082852283E0640A600302409F0240A6122A
:10425C0058F3400302409F7406121846E81258E8BF
:10426C001203B9852182852283E064286003024011
:10427C009FA38582218583227901120407E525609D
:10428C000302409FE4F50CF50D780C121A657408C6
:10429C00121846E0F91203FB7402121811E525609E
:1042AC000302409F0240517E0079021204078A08E3
:1042BC00AF08E525600302409F1203B98521828572
:1042CC002283E064C76003024C5CA3858221858352
:1042DC0022EFF912063502405179001204078A08C0
:1042EC008B098C0A8D0BE525600302409F90942C62
:1042FC0078081213D740030240A3A821A922888270
:10430C008983A385822185832288828983E0640A3C
:10431C0070E8852182852283121A7C750C00780C3A
:10432C00121A69790312063B7403121811023EF932
:10433C0079001204078A088B098C0A8D0BE525601D
:10434C000302409F90942C78081213D7400302402C
:10435C00A312065302405179001204078B098C0AF0
:10436C008D0BE525600302409FEA4509450A450B84
:10437C007003024CD37901024CD512587612042BDF
:10438C00E9FEE525600302409F1203B98521828571
:10439C002283E064B860030240A3A3858221858355
:1043AC00227900120407E525600302409FEEF91202
:1043BC00043102405112580D5003024DAA752507C5
:1043CC000240A69002FD7401F0126FEC700A90028C
:1043DC00FB74DCF0A37402F0852182852283E0F566
:1043EC000A7508FB7509022469700302516724B72A
:1043FC007003024F4814601024FE7003024F5814CF
:10440C00700302502D0251D91259C25003024802B6
:10441C001259F97405F09002FBE02401125902F0D4
:10442C00852182852283A3858221858322024051A6
:10443C009002FDE41257DFE0C39480508C7510009D
:10444C007F0079001204078A088B098C0A8D0BE512
:10445C0025600302409F1203B9852182852283E0E7
:10446C0024206009147003024F4302409F7E01A375
:10447C00858221858322E064E170090E0EA385827A
:10448C0021858322852182852283E064E6700AA33C
:10449C00858221858322751001852182852283E006
:1044AC0064E77008A38582218583220F852182858C
:1044BC002283E064D860030240A3A3E0649060030D
:1044CC000240A3852182852283A3A3858221858333
:1044DC002279001204071258AB600302409F12634A
:1044EC008690037A123B237808121A617C007D00B7
:1044FC0079007A027B001206DD7404121811780818
:10450C00121A617C007D0079007A037B001206DDB3
:10451C007404121811EFA2E0B3E433F508E4F509C2
:10452C00F50AF50B7808121A617C007D0079007A87
:10453C00237B001206DD740412181112071F7B0076
:10454C00E510A2E0E433FAEEF912071902405179B2
:10455C00001204078A088B09A909E52560030240AB
:10456C009FAE08E9547FFFE95480700302529B858B
:10457C001882851983AA82AB83852182852283E0E8
:10458C00F91203EF8A088B09AC08AD09125E86603C
:10459C000302409F90942C121A787404121846123D
:1045AC003B49F9EEFAEFFB1206DD7404121811E91F
:1045BC000242AB7402121846E4F012042B7403127C
:1045CC001846E9F0E525600302409F1203B9A821C3
:1045DC00A92288828983A385822185832288828966
:1045EC0083E02435600F147003024CFA147003023C
:1045FC004D1B0247FC74041218467408F0125E6CD2
:10460C00740A686003024CDB74051218467428F0B7
:10461C007406121846125876024D28750C001204B6
:10462C002BE9FEE525600302409FEE131313541F84
:10463C005407F50EEE54C0F50D7480650D700AE547
:10464C000EC394044003024DA41203B9A821A9225D
:10465C0088828983A385822185832288828983E04D
:10466C00243260091460030247FC750C01A821A9CF
:10467C002288828983A385822185832288828983EB
:10468C00E0649060030247FC7900120407E52560A2
:10469C000302409FEEF9120641E97003024DA4A8F3
:1046AC000E7401B800028004C333D8FCF9E50D6028
:1046BC0003024D3BE58CA2E0E433450CF58CE9425A
:1046CC00ABD2BD02405112042BE9F8E52560030280
:1046DC00409FE8131313541F5407FA7401BA0002D5
:1046EC008004C333DAFCF4FAE854C0FB6003024DD7
:1046FC0080EA52ABE5AB6003024D9BC2BD024D9B01
:10470C00852182852283E0F874EB686003025336BE
:10471C00A385822185832279021204078A08AE08B8
:10472C007902120407EAF50CE525600302409FEEBE
:10473C00C3940440030240A3EAC394044003024020
:10474C00A3852182852283E0FF74E96F600874EAF7
:10475C006F60030240A3A385822185832279001216
:10476C000407E525600302409F74E96F6003025261
:10477C00BD78200252BF852182852283E0243060DF
:10478C00091470030257D702409F9002D9E40244E7
:10479C002B79001204078A0C8B0D8C0E8D0F780C64
:1047AC00121B2508000000069F40C4479F40C447C9
:1047BC009F40C4479F40C447EA9009A5F00240516E
:1047CC0012580D40030243C912043D0242A9A8210C
:1047DC00A92288828983A385822185832288828964
:1047EC0083E02418700302541124FD70030253DB80
:1047FC0012587602409F7525050240A6E8FAE9FB9F
:10480C008A828B83A3A3E0F8EA28F8EB3400F9EA58
:10481C0065237003EB6524600EC3EC9AED9B40DCC2
:10482C00C3EC98ED9950D5125E53793E1205FF7981
:10483C003E1205FF79201205FF79011203E3790A74
:10484C001205FF7404652570047902800279010257
:10485C003EACE970030248F419852182852283A3BA
:10486C00A3E0FA1812582612580D50571258172454
:10487C0075600B1460101460081460D680DB09801E
:10488C00D8E970D58062E970D085822185832202B7
:10489C003CD67E001203B9852182852283E0640A0E
:1048AC00600302409FA385822185832280101E8590
:1048BC002182852283A3A3E0FA782112582612586C
:1048CC000D400A7AC57B941203D7023EF9852182EA
:1048DC00852283A3A3A3E0F8748B6870030E80CFAA
:1048EC00748E6870CAEE70C6852182852283A3A35C
:1048FC00A3024432125876750801750900750A0036
:10490C00750B001203B9852182852283E0640A604D
:10491C000302409F7828E624F212584E5003024FAF
:10492C003D8A288B29851416751700740278161287
:10493C0017E87826E62516FC08E63517FDEC24FC6E
:10494C00F582ED34FEF583780C1216DA8A828B83AD
:10495C007446F0A3740EF0A3E4125880E5141258B8
:10496C0080A378101216DA8A828B83A3A3A3A3A345
:10497C00A3A3A378081216DAEA240CF582EB1269C9
:10498C0099E521F0A3E5220247C8A3E0640A60037D
:10499C0002409F800912595F120AB51259DAC3E519
:1049AC00289526E5299527400302409F8528828576
:1049BC002983E024BB603514603D14600E24F46040
:1049CC00D424FD7003024AD6024F3D12586570CBB9
:1049DC00A828A92988828983A3A3A3E0F521A3E0B1
:1049EC00F522888289831259E00240511258657071
:1049FC00AA1259DA023EF97821E624FFF58208E67C
:104A0C00122CC564897094AA28AB298A828B83A343
:104A1C00A3A3E0F508852182852283E06508600365
:104A2C000249A7750900740278081217E87826E67F
:104A3C002508FC08E63509FDEC24FCFCED34FEFDF4
:104A4C00EA2408FEEB3400FF8C828D837808121662
:104A5C00CB8E828F83780812161E85080C85090D63
:104A6C00850A0E850B0F8C828D83780C1216DA8ECC
:104A7C00828F8378081216CBEA2404F8EB3400F901
:104A8C00E8FCE9FD90943C78081213D750158C8201
:104A9C008D83780C1213C2501F8A828B831259E0BB
:104AAC0002442C90942C78081213D740EC8C828DF5
:104ABC0083780C1213D750E1EA240CF582EB1258D0
:104ACC0020F521A3E0F522024051AC28AD29A3A387
:104ADC00A3A3E024BFFE1258335EFA8C828D83A30D
:104AEC00A3A3A3A3E0C0E0EAFBD0E0BB00028004D8
:104AFC00C333DBFCFB7401BA00028004C333DAFC61
:104B0C00FA74FFC39AFA88828983E05A4BF09002B8
:104B1C00D3E4F00249A778081216DA740D1218467D
:104B2C00126A3B126CCA70030240511204670240B5
:104B3C00511EEEF91203E30E9002CDE065237004D2
:104B4C00A3E0652470030240519002CD12593A241F
:104B5C0077601324FE60DB1460D71460D4146006F5
:104B6C0024FA60CE80011EEEF91203E380CAA385FD
:104B7C008221858322852182852283E0640A700844
:104B8C00790A1205FF0240511203D18A088B09AE33
:104B9C0008AF0974FF6E700374FF6F704E8521822D
:104BAC00852283E0F8742268700302409F742768A2
:104BBC00700302409F742C6860B474206860AF79F5
:104BCC0002120407E525600302409F1203C580A56D
:104BDC00A821A92288828983A385822185832288A2
:104BEC00828983E0F91205FF12585CEE4F70E18563
:104BFC002182852283024B7A7C047D0012061712D7
:104C0C000623024051E0F87420686008740A68605A
:104C1C000302403F7A77EFF9120611C3EB123C2CDA
:104C2C00500302409F7409121846AA82AB83EEF916
:104C3C001203EF7409121846125E8C700A74091272
:104C4C001846125E7C80047C047D0012061D80AF29
:104C5C0079001204078A0C8B0D8C0E8D0FE52560E4
:104C6C000302409F1203B9852182852283E064C828
:104C7C007008A38582218583220E8521828522835B
:104C8C00E0649060030240A3A3858221858322798E
:104C9C00001204078A088B09E525600302409F78FF
:104CAC0008121A65EEF5087808121A69AA0CAB0DF1
:104CBC00AC0EAD0FEFF912063B7403121811E9603C
:104CCC000302405102409F790012062902405174A0
:104CDC00C968700974051218467430802D74CA683E
:104CEC0060030247FC74051218467438801C740566
:104CFC00121846E054C060030240A3740412184614
:104D0C007408F074051218467448F07406800A741E
:104D1C00041218467410F07405121846AC82AD8358
:104D2C007402121846AA82AB831204430242A9747D
:104D3C0040650D7027E50EC39404E50C5013C33386
:104D4C00F8E58C540248F58CE9428D439A100240E8
:104D5C0051333354FCF8E58C540480E9E50C3333BF
:104D6C003354F8F8E58C540848F58CE942AC439A76
:104D7C000202405174406B700CEA528DE58D700F3D
:104D8C00539AEF800AEA52ACE5AC7003539AFD12C9
:104D9C000647E960030240517525060240A6A8218A
:104DAC00A92288828983A38582218583228882898E
:104DBC0083E024697003024F2D24BE601814700325
:104DCC00024F1F14605314605014604D14604A1449
:104DDC00604702409F7821E624FBF58208E61263C7
:104DEC00671263899002FE123B239003007401F05A
:104DFC00A3E4F0852182852283E0640A7012852168
:104E0C0082852283A312580440030240A6023CD69A
:104E1C00A385822185832280DA900300E02401F0AF
:104E2C00A3E03400F0A821A92288828983A385827B
:104E3C002185832288828983E0242560E81460E53B
:104E4C001460E21460D31460D0125876F583E0FE3F
:104E5C0074BF2EFFC3941A400302409F85188285AD
:104E6C001983AA82AB83EEF91203EF851882851998
:104E7C008312593A644E6003024DFF7828E624F8F9
:104E8C0012584E5003024F3D8A288B298518828573
:104E9C001983EAF0A3EB126A21123C377456126A9A
:104EAC0021123C37A37408F0A3E412591F740212A8
:104EBC00591FA3EEF08F11EF1258335511FA888257
:104ECC008983E0C0E0EAFBD0E0BB00028004C3139E
:104EDC00DBFC5401C0E0851882851983E0FBA3E05C
:104EEC00F5838B82A3A3A3A3A3D0E0126A21E0FBDA
:104EFC00A3E0CB2406F582EB126999125894B80002
:104F0C00028004C333D8FCF974FFC399F8E0584904
:104F1C00024DFE900300E02402F0A3E03400024DA9
:104F2C00FE120449E914700302409F146003024D01
:104F3C00FF7525040240A67E020244901259C2500D
:104F4C00030248021259F97406024421A3858221F6
:104F5C00858322E0F50A7427650A60097422650AC4
:104F6C00600302409F1203D18A0A8B0BAE0AAF0B6F
:104F7C0074FF6E700374FF6F700302409F1259C26E
:104F8C005003024802181818E0F9E508C398F8E530
:104F9C000999F9E824FEF508E934FFF509C3EE9503
:104FAC0008EF9509A2D265D0335017EE04C0E01279
:104FBC003C34D0E01259B274091259958E088F09FD
:104FCC008012E50804C0E0123C34D0E01259B274EF
:104FDC00081259957808121A65AC21AD22126CBED4
:104FEC0012047F74021218119002FBE02508F8A33A
:104FFC00E03509F99002FB123B23C3EE9415EF1236
:10500C003C2C5004EEFA80027A15AC21AD227900CA
:10501C001209B37821E62EF58208E63FF5830244A7
:10502C0032126FEC700302409F9002FBE0240108E7
:10503C001259CD50030248029002FB126396900263
:10504C00FB123B2380419002FBE02401FAA3E034E5
:10505C0000FBC3E5089AE5099B5003024802123C89
:10506C0034E50C1259951203B97A1079021203E93E
:10507C008A0CE52560D0852182852283E0650A6053
:10508C00030240A6752500852182852283A3858293
:10509C0021858322E0F50A740A650A7010EEF890F7
:1050AC0002FBE0C398148E828F830247C874276575
:1050BC000A60067422650A7009A385822185832201
:1050CC0080A474BF250AC3941A400302515BA3E069
:1050DC00F8740A686008742068600302409F8518A1
:1050EC0082851983AA82AB83A90A1203EF125E860A
:1050FC00600302409F126BC59002FBE028F8A3E00E
:10510C0039F9E824F8F8E934FFF9C3E50898E5091A
:10511C00995003024802750A08850A0C8518828585
:10512C001983E0F8126BCBC3E50C98E499400302A9
:10513C0050938A828B83E0C0E0123C34D0E0F08A3A
:10514C00828B83A3AA82AB83125996050A80CA74F8
:10515C0020650A600302409F0250939002FBE064BA
:10516C00DC7004A3E06402700A9002FBE4F0A3F08C
:10517C0002409F9002FDE0A2E090942C502B121A5A
:10518C00787CDC7D029002FBE0C394DCF97A077B2F
:10519C00031206DD740412181190943C121A787CD8
:1051AC00007D0079007A058011121A787CDC7D0272
:1051BC009002FBE0C394DCF97A087B031206DD74E1
:1051CC00041218119002FBE4F0A302442B7427651F
:1051DC000A60097422650A600302409F12044FE9B9
:1051EC00700302409F900312E0F89002FBE028FA53
:1051FC00A3E034008A82F583A3A3C3E5089582E576
:10520C000995835003024802900312E004C0E01297
:10521C003C34D0E01259A924FE600B24FE6011240A
:10522C00F4601702409F9002FC123C3A7403801207
:10523C009002FC123C3A740580089002FC123C3A35
:10524C0074071259A9F5087509007808121A657CBB
:10525C00027D03126CBE12047F7402121811120329
:10526C00B9852182852283E064E270139002FB12DF
:10527C006A4824FFF582E8122CC5C2E01258E89067
:10528C000312E0F89002FBE0281259020247C87999
:10529C00001204078A088B098C0A8D0BE525600324
:1052AC0002409F7808121A617C007D00790002454B
:1052BC00AF7800E50CC4333354C048F50CEA1460E5
:1052CC000A14600C24FE601002409F430C0F800BEC
:1052DC00E50CD2E4F50C8003430C11EEA2E1900234
:1052EC00D84023E4F0EEA2E0400543F32C800343C6
:1052FC00F42CA2E0E5F192E0F5F175C200850CC545
:10530C007586000240517401F0EEA2E0400543F3B3
:10531C0038800343F4E0A2E0E5F192E1F5F175FA8F
:10532C0000850CFC75F80002405174E868600302BB
:10533C00409FA385822185832212042BE9F508E581
:10534C0025600302409F1203B9123B344003024014
:10535C00A3851882851983AA82AB831203EF8A0A6C
:10536C008B0BAE0AAF0B125E86600302409F852149
:10537C0082852283A38582218583227A00A9081243
:10538C0004319002D8E0851882851983701E125959
:10539C00B6E84960335386F98E828F83E0F5C1E518
:1053AC0086A2E150FAE5C112589C80E51259B680EC
:1053BC001353F8F98E828F83E0F5F9A2F950FCE5CE
:1053CC00F912589CE84970E97A01A9080243BBAE6E
:1053DC0023AF2412042BE99002DAF012042BE9908B
:1053EC0002DBF0E525701B9002DA12594DAE82AF4C
:1053FC00839002DB12594DAC82AD83AA23AB2412ED
:10540C0004430242A9751200751300750A00750B4E
:10541C0000751000852182852283E064DD60030223
:10542C00409FA3858221858322AE23AF249002DB8B
:10543C00E0F5087509008E828F8374101258B660DF
:10544C00051259F080068E828F837410F00E800640
:10545C00125A13F0E8FEE9FF852182852283E0F8D9
:10546C00740A6870030256D474DB687055A3858285
:10547C0021858322E0F50C74BF250CC3941A4003DC
:10548C0002409FA38582218583227407121846AAA5
:10549C0082AB83A90C1203EF8A128B1374071218B8
:1054AC0046125E8C60030255AB7407121846123C10
:1054BC0039A3E024F8F510FC7D0079001204970262
:1054CC0055B77902120407E525600302409F7B80E3
:1054DC008E828F83A3A882A983EA5B601EE5097084
:1054EC003C7509019002DBE065086007E0F5087483
:1054FC0002801C8E828F837408801FE509601E75E4
:10550C0009009002DBE06508600AE0F508740112FE
:10551C005A1C80068E828F83741012588E8E828F46
:10552C0083A3A882A9839002DAE065086005125A69
:10553C001380068E828F8374081258CFA3A9839090
:10554C0002DAE0650860051259F080068E828F83BE
:10555C007410125889EBC313FB60030254DCE50989
:10556C0070207509018E828F83A3A9839002DBE0E2
:10557C0065086005125A1380068E828F8374081298
:10558C0058898E828F83A3A882A9839002DAE06562
:10559C0008600302545C8E828F83740802545F8A05
:1055AC00828B831258C8A3F07510018E828F83A34F
:1055BC00A882A9839002DAE0650860051259F08090
:1055CC00068E828F83741012588EE509702075092F
:1055DC00018E828F83A3A9839002DBE065086005AE
:1055EC00125A1380068E828F8374081258898E0A81
:1055FC008F0B85100C8006125A13125889850C0DCE
:10560C0074FF250DF50C0470030256D47A088E82B3
:10561C008F83A3A882A9839002DAE0650860051243
:10562C005A1380068E828F8374081258CF9002DB37
:10563C00E065086006125A13125E668E828F8374C0
:10564C0078F0A3E41258B660051259F080068E82E9
:10565C008F8374101258891AEA70B3E509602075AB
:10566C0009008E828F83A3A9839002DBE06508601A
:10567C00051259F080068E828F8374101258898E11
:10568C00828F83A3A882A9839002DAE06508600563
:10569C00125A1380068E828F83740812588E8E8253
:1056AC008F837410125E66E5096003025609750952
:1056BC0001A3A9839002DBE0650860030256038E08
:1056CC00828F837408025606E50960227509008EE4
:1056DC00828F83A3A882A9839002DBE06508600512
:1056EC001259F080068E828F83741012588E8E821F
:1056FC008F83A3A882A9839002DAE0650860051263
:10570C005A1380068E828F83740812588EE50970A6
:10571C00218E828F83A3A9839002DBE06508600948
:10572C00E044028E828F8380068E828F83740812EF
:10573C005889EEFCEFFDAA23AB24120443E5256047
:10574C00030242A9E512451370030240517A007816
:10575C00007900E51033333354F8F51080207C00C9
:10576C00EAC3334CFA126356E854077011EA8512F7
:10577C0082851383F0A38582128583137A00C3E597
:10578C000A9EE50B9F4003024051851008C3E89523
:10579C0008E994004003024051AC0AAD0B8C828D99
:1057AC0083A385820A85830B8C828D83E064787059
:1057BC00CDAC0AAD0B8C828D83A385820A85830BBD
:1057CC008C828D83E060977C0180959002D9744027
:1057DC0002442BF085218285228322E624FDFA08DF
:1057EC00E634FFFB2279287823E7C396FA0809E709
:1057FC0096FB3395E0FCFD22A3A3A3858221858330
:10580C0022C3E5219523E5229524227821E6240361
:10581C00F58208E63400F583E022E62AFA08E6343D
:10582C0000FB8A218B2222131313541FFA7826E6CD
:10583C002AFA08E63400FBEA2468F8EB3400F97421
:10584C000722FA08E634FFFBC3EA9523EB952422E2
:10585C00EE24FF1EEF34FFFF227821E624FFF582B1
:10586C0008E634FFF583E064912278211269DD8A21
:10587C00218B2222F08A828B83A3A3A322F00EE930
:10588C00FF22F0E8FEE9FF221269EEEAF874012229
:10589C00F0E824FF18E934FFF9A3AE82AF8322901D
:1058AC0002D1EAF0A3EBF0E52522F0A3AE82AF83A0
:1058BC00A3A9839002DAE0650822F0A3E4F0A3F038
:1058CC00A3F022F0E8FEE9FF8E828F8374601258F9
:1058DC00DE22F0A3E4F0A30E0EAF83221257DFA357
:1058EC0085822185832222852182852283E0F8749A
:1058FC00BF28C3941A2212590622F8A3E03400F9E7
:10590C009002FBE8F0A3E9229002CFE0F523A3E09C
:10591C00F52422F085188285198312592A221259EE
:10592C002E22E0F8A3E0F5838882A3A3A3221259C8
:10593C003E2212592EE022125A8374BF2EC3941A9F
:10594C0022E044028E828F83F0A37430F0A3742083
:10595C00F0A322851882851983AC82AD83852882B9
:10596C00852983A3A3A312592AA312598F2290022B
:10597C00CFE02CF8A3E03DF9882389249002CF12C4
:10598C00598F22E0FAA3E0FB22F012599A22125905
:10599C009E229002FBE02401125906F022F01259CB
:1059AC009A900312E022125A0A22E0F8123B4FF8A6
:1059BC00A3E034FFF9229002FBE02403F81259CD46
:1059CC0022A3E03400F9C3E50898E509992285285B
:1059DC0082852983A37828E026FAA308E036FB8A7F
:1059EC00288B2922E0F5087401125A1C2218181869
:1059FC00122FEB7402125A0A7401125A0A22F01274
:105A0C00599EF583888222E0F5087402125A1C22F2
:105A1C0045088E828F832274F4121852E525701279
:105A2C00125A8374632EFFC39403400B125876757D
:105A3C0025067900026BC079011204078A08A808B0
:105A4C00E52570EBE8C3940850E5749F6E700C74F8
:105A5C00016860DB740268700D80D4749E6E7006F1
:105A6C00E8C3940450C9E833333354F8F8EFC43323
:105A7C003354C048F980BD852182852283E0FEA382
:105A8C008582218583222274F7121852E9FDEAFCE3
:105A9C00ED131313541F5407F87401B8000280045B
:105AAC00C333D8FCF8F4FEEDC4131354036005148F
:105ABC006011801EE580FFEC70027800EF5E48F507
:105ACC0080801CE590FFEC70027800EF5E48F5904A
:105ADC00800DE5A0FFEC70027800EF5E48F5A002A7
:105AEC002E6374F0121852E9FFEAFEEF60051460A1
:105AFC00678069750801750900EE78081217E8E5EA
:105B0C000855F2604F9002D9E0F89009A5E04E4894
:105B1C00F5B6E5B4A2E750FAE5BAF50CE4F50DF5E7
