:020000040000FA
:0600000002011D02244C68
:03002B00021EC6EC
:03003300021E4763
:030053000224C2C2
:03006B00021D5C17
:03007B00021DCF94
:100083000222FBE5C754F84401F5C77901220000B9
:100093000080FB120086B90003020107E47921788E
:1000A30011B800028004F709D8FCE479327802B869
:1000B30000028004F709D8FCE4900281780D7908E6
:1000C3008002F0A3D8FCD9FA781A90014D7A01BACC
:1000D30000028007E493A3F608DAF990098DAA8257
:1000E300AB8390014E783D79038015E493A3AC82F2
:1000F300AD838A828B83F0A3AA82AB838C828D83A8
:10010300D8E9D9E77582067583E8740312012F7560
:100113008291758300740012012F75D00075813FA1
:10012300751881751902759F00020096C09FF59F8F
:10013300E473D09F22D083D082C09FE493C0E07445
:100143000193C0E0740293F59F220102C194010060
:1001530000A69402BD94010000DD9410CE9203002A
:1001630000890202B994030000820202BD940100D7
:1001730000DE94109E9203000000000000A203968C
:1001830003828EF08F84901091508F3B90FE8D8D63
:10019300935391B391A293FC8ECB90000056000031
:1001A300020000000030FF02020202020202020209
:1001B300010D000000100102C194010000AC940283
:1001C300BD94010000E90902C9940100007403020F
:1001D300BD94010000EA0902CB9401000080930260
:1001E300BD94010000EB0902CD9401000065930268
:1001F300BD94010000EC0902CF940100008C92022F
:10020300BD94010000ED0902D19401000056920251
:10021300BD94010000EE0902D3940100007A92021A
:10022300BD94010000EF0902D59401000068920219
:10023300BD94010000F00902DB9401000049930220
:10024300BD94010000F10902D794010000F209FFF7
:10025300000000FF00080101000302010600000086
:10026300000000000000000000000000000000008B
:10027300000000000000000000FFFF015000200309
:10028300E8031C082808FF0000B400002800280029
:10029300283075A000A000A000A00000080008E01E
:1002A30001F00010001000100010001000100050AA
:1002B300005000500010001000D0070000000000A4
:1002C300000F0001000500307507001000010081D8
:1002D300FF00000000FF3C095A094209FF02020225
:1002E30008025000A0000000E80302C194010000CE
:1002F300A09402BD940100001F0B02B794010000FB
:10030300AE0402BD94010000200B02B5940100006D
:10031300C40402BD94010000210B02B39401000048
:10032300C60402BD94010000220B02B19408000030
:10033300C70402BD94010000230B02AF9401000027
:10034300240BFF0100FF2002C194010000A99402C5
:10035300BD94010000880B02BF940000000000025E
:10036300B9940300001405840F840F840F840F8451
:100373000F840F840F840F840F840F840F840F84E2
:100383000F9012A8128A12120138AFB20312013869
:100393002BB303120138B2B4031201380BB50312A5
:1003A300013864B50312013876B50312013806B675
:1003B3000312013896B603120138C82A0012013815
:1003C300E42A00120138C22C001201387D2D0012DC
:1003D3000138E12D00120138272E00120138502E6A
:1003E300001201388C2E00120138E82F0012013858
:1003F3006A3000120138573100120138E13100121E
:100403000138DC3200120138033500120138343B65
:1004130000120138753B00120138963B0012013877
:10042300F93B00120138273C00120138D35900125E
:100433000138415A00120138CF5A00120138735E55
:10044300001201381E6400120138006B00120138DB
:10045300E96B001201385A6C00120138516D001219
:100463000138C26E00120138026F00120138727037
:1004730000120138B0A203120138BAA203120138E4
:10048300F8A20312013841A3031201387BA303121C
:100493000138D5A303120138F6A303120138FFA3D1
:1004A300031201384CA40312013875A40312013856
:1004B3007FA403120138EBA4031201387DA50312B4
:1004C3000138C7A503120138FDA50312013889A617
:1004D30003120138CAA60312013801A70312013817
:1004E30013A70312013832A7031201383BA70312E3
:1004F300013808A8031201385EE803120138C7E582
:10050300031201385DDB0312013893DB0312013858
:10051300C9DB0312013814DD031201386EE703123D
:10052300013884E7031201388EE703120138D8E754
:100533000312013806C1031201381BC1031201382B
:10054300CBC1031201380BC20312013824C20312B8
:1005530001385FC203120138ACC203120138DEC294
:100563000312013820C30312013821C503120138D5
:1005730093C503120138B3E803120138C5E8031227
:10058300013813D40312013838D40312013862D46A
:100593000312013875FF01120138ECFF0112013813
:1005A300BEE603120138CEE603120138D7E6031282
:1005B300013868E703120138C3E40312013848E540
:1005C30003120138AEE503120138F87F0012013837
:1005D30024D903120138B3DA0312013814DB0312EE
:1005E30001385ADB0312013836A80312013808A96F
:1005F3000312013839A90312013850A90312013833
:100603005AA903120138A4A903120138A7A9031296
:1006130001380DAA0312013879AA0312013817AB66
:10062300031201389BAB03120138E4AB0312013808
:1006330010AC031201383AAC03120138B5AC031203
:1006430001380BAD031201385EAD031201386BADF7
:1006530003120138ADE003120138FFE00312013841
:1006630089E103120138F0E103120138DFD60312E6
:10067300013809D703120138D7D703120138B2D88A
:1006830003120138008003120138C78003120138B6
:10069300FE80031201382881031201388881031276
:1006A3000138DE8103120138438203120138DB82F1
:1006B30003120138EA8303120138818503120138DA
:1006C3000E86031201387586031201388C860312D5
:1006D3000138A687031201380080021201389A8379
:1006E30002120138088602120138628602120138AA
:1006F300818602120138FC860212013875880212C3
:1007030001386189021201382B8E02120138FB8EE7
:1007130002120138A28F02120138E08F021201384F
:100723004EDD0312013865DD0312013896DD031235
:100733000138D1DD03120138FBDD0312013825DE58
:10074300031201383CDE0312013853DE0312013871
:100753006ADE0312013893DE03120138A6DE0312A8
:100763000138BCDE03120138CFDE03120138F6DE96
:1007730003120138AACF02120138AED00212013897
:10078300E6D00212013809D10212013814D1021243
:10079300013837D10212013846D2021201381BD375
:1007A3000212013896D3021201381ED40212013804
:1007B30059D40212013890D4021201381ED5021204
:1007C3000138F7D50212013857D60212013862D622
:1007D30002120138E1D602120138E4D602120138BE
:1007E300E7D60212013876D70212013879D70212FE
:1007F3000138A9D702120138D3D702120138C1D860
:100803000212013873D902120138AEE30212013821
:10081300A6E402120138DAE4021201385CE502129E
:100823000138A4E50212013808E60212013895E600
:10083300021201384FE7021201385EEA0212013850
:10084300E9EB021201380CEC0212013849BC031225
:10085300013871BC031201389FBC03120138D6BCA6
:100863000312013834BD031201387FBD031201386E
:10087300CABD031201380ABE0312013850BE031267
:1008830001387EBE031201383BBF0312013845BF56
:100893000312013852BF0312013885BF0312013816
:1008A30051C0031201385DC00312013875C0031231
:1008B30001387FC00312013820FF0212013838FFCC
:1008C3000212013850FF021201384CAD02120138F6
:1008D30028AE021201388CAF02120138E3AF0212C4
:1008E300013864B00212013854B102120138A1B1C7
:1008F3000212013827B20212013859B2021201382A
:100903006DB402120138AFB402120138CDB4021231
:10091300013850B50212013824B602120138ECB680
:1009230002120138308F0312013803900312013889
:10093300AC9003120138FF9003120138AF910312F8
:1009430001383B920312013827930312013856935F
:1009530003120138699403120138B1940312013868
:10096300869503120138C29503120138DE950312EE
:100973000138B3CD03120138D9CD03120138F5CEB6
:1009830003120138FFCE0312013834D003120138A9
:100993002CD10312013836D10312013888AD03126A
:1009A3000138B8AE03120138EBAE0312013835AF8C
:1009B30003120138FCB003120138EF8F0212013821
:1009C300599002120138B891021201384292021270
:1009D30001385292021201387F9202120138DB92DF
:1009E30002120138E29302120138AC940212013868
:1009F3000C96021201384F9602120138F496021235
:100A0300013841970212013867970212013875992C
:100A1300021201387A99021201387F9B02120138BF
:100A2300CC9B021201383F9C02120138729C0212C5
:100A33000138149D02120138BD9D02120138F59D43
:100A430002120138F89D02120138409E0212013849
:100A5300809E02120138D79E0212013840D1031240
:100A6300013858D103120138A0D103120138B6D18D
:100A730003120138FDD10312013811D303120138D7
:100A83009ED303120138E9D303120138DF94011214
:100A930001381A95011201385F95011201381F962A
:100AA30001120138AE960112013834970112013850
:100AB300999701120138C59701120138FE97011267
:100AC30001383C9A01120138209C01120138069E1C
:100AD30001120138499F0112013897A1011201380F
:100AE300A9A201120138F4A30112013804A50112CD
:100AF300013821A5011201385CA5011201387EA538
:100B030001120138E1A501120138A2AA011201382C
:100B130037AB0112013889AB01120138A7AB0112BF
:100B2300013801AC01120138EAAC0112013860AEA0
:100B330001120138E4AE01120138169D0312013887
:100B4300209D03120138639D031201387E9D031219
:100B530001380E9E03120138369E03120138739E2C
:100B630003120138AA9E03120138D39E03120138DF
:100B7300489F031201385D9F03120138729F0312CD
:100B83000138949F03120138DD9F0312013802A03C
:100B9300031201383CA00312013868A00312013884
:100BA30096A003120138E1A00312013851A10312E8
:100BB3000138BFA103120138EAA10312013833A29D
:100BC300031201385DA20312013888A2031201380F
:100BD300AAE3031201381F71001201386D7200126B
:100BE30001384D73001201386C7300120138E97338
:100BF300001201382C74001201388275001201387A
:100C03003276001201386B7800120138F27A001242
:100C13000138937B00120138897C00120138867DEC
:100C230000120138E07E001201386B7F0012013898
:100C33004FE203120138B8E2031201380CE3031246
:100C4300013833E30312013864E303120138A0C50A
:100C5300031201380DC60312013854C603120138BA
:100C63006CC70312013868C8031201384BC9031259
:100C73000138B0F602120138F2F602120138C4F755
:100C8300021201389DF80212013897F90212013855
:100C930079FA02120138E2FA0212013898FB0212C1
:100CA30001380CFC0212013878FC02120138A1FC55
:100CB300021201381BFD02120138B4FD0212013881
:100CC30019FE021201382EFE0212013874FE0212BE
:100CD30001388DFE02120138F2FE02120138F5FED0
:100CE30002120138A2FC01120138CAFC01120138B8
:100CF30008FD01120138C6FD011201382DFE011253
:100D0300013849FE0112013871FE01120138A1FEBA
:100D130001120138B0FE011201382DFF0112013812
:100D230027C401120138F8C50112013809C801129C
:100D3300013845C80112013872C8011201385BC974
:100D430001120138A2C901120138E3C901120138A5
:100D530010CA011201385BCA01120138A2CA01127A
:100D63000138D0CA0112013822CB01120138B2CBAB
:100D7300011201384FCE011201386AD00112013835
:100D8300A8D0011201381DD20112013862D201121A
:100D9300013846D3011201384DD501120138C4D5AB
:100DA300011201380ED6011201382FD60112013873
:100DB300D1D601120138BBD70112013857D801121D
:100DC300013837ED02120138B6ED0212013878F31B
:100DD3000212013887F402120138EFF502120138CA
:100DE30086F6021201384BAF0112013894AF01129B
:100DF3000138C1AF01120138F4AF0112013801B05B
:100E0300011201380DB0011201381FB0011201386F
:100E130006B10112013864B10112013899B101120E
:100E23000138DCB20112013829B30112013895B33C
:100E3300011201383EB401120138ECB40112013839
:100E43004AB501120138BAB5011201381AB60112B6
:100E5300013885B70112013892B701120138DDB7A5
:100E6300011201383AB801120138F9B801120138F8
:100E730026B9011201389EB901120138FAB90112DB
:100E8300013844BA01120138DABA01120138A5BB9C
:100E9300011201385ABC01120138CFBC01120138CA
:100EA3002ABD011201389ABD01120138C5BD0112D4
:100EB300013867BE0112013877BF01120138B7BF8D
:100EC30001120138D4BF01120138F3BF01120138F6
:100ED3003AC0011201385FC00112013895C00112F6
:100EE30001380FC10112013850C10112013874C217
:100EF300011201381BC30112013872C301120138F8
:100F0300DCC301120138F5C301120138E4D902121E
:100F1300013837DA0212013843DA0212013818DBDA
:100F2300021201383FDB021201387ADB0212013868
:100F3300E6DB0212013822DC021201385BDC02120A
:100F4300013873DC02120138C8DC02120138E1DC1B
:100F5300021201382ADD021201383DDD0212013886
:100F630057DD021201386DDD02120138A0DE0212D4
:100F73000138E7DF02120138E9E002120138E3E148
:100F830002120138EC7F0012013880B703120138D6
:100F930016B803120138CDB803120138F7B803129B
:100FA3000138EABA0312013812BC0312013879D8A6
:100FB30001120138ADD80112013897E1011201384D
:100FC300EBE201120138E4E30112013864E5011296
:100FD300013846E60112013880E601120138A3E622
:100FE30001120138E5E601120138EEE6011201387B
:100FF30038E70112013842E701120138ECE7011228
:101003000138C5E80112013819E9011201387BE9F9
:1010130001120138CEE901120138FDE9011201384C
:101023003AEA0112013815EB011201387CEE011284
:10103300013882EE0112013804F4011201387DF8FF
:101043000112013853FC011201380DCA0312013891
:1010530083CA0312013899CA03120138DACA031288
:10106300013814CB031201388DCB03120138C8CBDE
:10107300031201383BCC0312013879CC0312013837
:1010830082CC031201388ECC03120138AACC03128E
:101093000138D5CC03120138EBCC0312013814CD3F
:1010A3000312013877CD0312013853960312013826
:1010B300669603120138809603120138A99603122B
:1010C3000138EC96031201382B9703120138699704
:1010D30003120138CE9703120138E3970312013844
:1010E300EE9703120138FB9703120138129803128B
:1010F30001382098031201382F98031201384498BD
:101103000312013859980312013864980312013805
:101113007098031201388398031201388E980312D2
:101123000138B198031201385899031201386899AC
:10113300031201387D99031201389799031201387C
:10114300B29903120138CF9903120138DA990312C5
:101153000138969A03120138829B03120138A79B28
:1011630003120138B29B03120138C79B03120138E3
:10117300DB9B031201383C9C03120138429C03128F
:101183000138489C031201384E9C03120138669CB7
:1011930003120138999C03120138C99F02120138C6
:1011A30055A002120138B4A102120138D5A30212CC
:1011B3000138C1A402120138F6A40212013818A59D
:1011C30002120138C7A502120138BFA70212013863
:1011D300E8A7021201387AA802120138ACA8021259
:1011E3000138B9A80212013810A90212013836A930
:1011F30002120138A3AB02120138A6AC0212013865
:10120300FEAC021201382EB90212013838B90212AB
:1012130001385AB90212013866B902120138FFBA0D
:10122300021201382EBB021201384ABC02120138E5
:10123300A3BC0212013817BE0212013884BE021287
:101243000138BFBE02120138FEBE02120138B7C117
:1012530002120138D1C1021201385DC202120138F3
:101263006BC202120138C4C202120138D2C2021286
:10127300013845C302120138A9C302120138F3C36E
:10128300021201387CC4021201389EC402120138D2
:10129300C4C602120138D9C902120138F1CA0212B6
:1012A3000138A4CB0212013886CC0212013808DFC0
:1012B300031201382DDF031201389FDF03120138B7
:1012C300E48703120138ED8703120138F68703120E
:1012D3000138CD88031201387E8A03120138B48A9B
:1012E30003120138EE8A03120138248B03120138EA
:1012F3005E8B03120138928B03120138BE8B0312EB
:101303000138078C03120138418C031201388A8C8F
:1013130003120138E28C03120138178D03120138CE
:10132300728D03120138AC8D03120138FD8D031247
:101333000138338E031201386D8E03120138908EFB
:101343000312013820E9031201382AE90312013894
:101353003AE903120138F4E80312013844E903E0DF
:1013630066701008A3E066700A08A3E066700408BC
:10137300A3E06622E4936670130874019366700C0D
:1013830008740293667005087403936622C3E79694
:101393000809E7960809E7960809E796A2D265D0F7
:1013A3003322C3E09608A3E09608A3E09608A3E0DF
:1013B30096A2D265D03322C008C3E096F50808A3ED
:1013C300E096420808A3E096420808A3E096420884
:1013D300A2D265D033E5087001D3D00822C3E796C3
:1013E3000809E7960809E7960809E79622C3E096F5
:1013F30008A3E09608A3E09608A3E09622C008C3DA
:10140300E096F50808A3E096420808A3E096420890
:1014130008A3E09645087001D3D00822C3E493964D
:1014230008740193960874029396087403939622A2
:10143300080808EAC0E0EBC0E086F0E7A4FA180960
:1014430086F0E7A42AFA180986F0E7A42AFA18090D
:1014530086F0E7A42AFA1986F0E7A4FBE5F02AFA56
:10146300190886F0E7A42BFBE5F03AFA190886F091
:10147300E7A42BFBE5F03AFA18180986F0E7A4C5B0
:10148300F02BFBE43AFA1908E7C5F0C6A426F6E503
:10149300F03BFBE43AFA1886F0E7A4F6E5F00826F9
:1014A300F6E43B08F6E43A08F6D0E0FBD0E0FA2293
:1014B300E4CFC0E0E4CEC0E0E4CDC0E0E4CCC0E0E3
:1014C30075F020C3E633F608E633F608E633F6088C
:1014D300E633F6181818EC33FCED33FDEE33FEEF6C
:1014E30033FFC3EC9709ED9709EE9709EF971919A5
:1014F30019400FFFEC97FC09ED97FD09EE97FE19D4
:101503001906D5F0BEECF709EDF709EEF709EFF789
:10151300191919D0E0FCD0E0FDD0E0FED0E0FF22A5
:1015230012158B1818181214B312157A19191922D7
:1015330012157A191919080808E618181820E7E08F
:101543001214B312158B18181822090909E719196F
:101553001920E7DC080808E618181820E703021426
:10156300B312158B1818181214B312158B181818F8
:1015730012157A19191922E4C397F709E497F709A1
:10158300E497F709E497F722E4C396F608E496F69E
:1015930008E496F608E496F6226017080808C6A23F
:1015A300E713C618C613C618C613C618C613C6D57E
:1015B300E0E9226016080808C6C313C618C613C696
:1015C30018C613C618C613C6D5E0EA227009080860
:1015D30008226016181818C6C333C608C633C608CF
:1015E300C633C608C633C6D5E0EA22E627F608099D
:1015F300E637F60809E637F60809E637F622E02665
:10160300F608A3E036F608A3E036F608A3E036F6BC
:1016130022E026F008A3E036F008A3E036F008A3A2
:10162300E036F022C3E697F60809E697F60809E6DE
:1016330097F60809E697F622C3E096F008A3E0962A
:10164300F008A3E096F008A3E096F022E056F6082F
:10165300A3E056F608A3E056F608A3E056F622E008
:1016630056F008A3E056F008A3E056F008A3E056AE
:10167300F022E647F60809E647F60809E647F608C2
:1016830009E647F622E046F008A3E046F008A3E0A7
:1016930046F008A3E046F022E066F008A3E066F017
:1016A30008A3E066F008A3E066F022E0F608A3E0F2
:1016B300F608A3E0F608A3E0F622E6F008A3E6F0B6
:1016C30008A3E6F008A3E6F022E0FAA3E0FBA3E018
:1016D300FCA3E0FD22EAF0A3EBF0A3ECF0A3EDF012
:1016E30022CAC0E0E6F0A308DAFAD0E0FA22CAC0C0
:1016F300E0E0A3C582CCC582C583CDC583F0A3C575
:1017030082CCC582C583CDC583DAE6D0E0CA22C3C5
:10171300E498F8E499F91217538026C3E49AFAE49B
:101723009BFBE920E7E9121753E498F8E499F922BF
:10173300C3E498F8E499F9121753E498F8E499F993
:10174300C3E49AFAE49BFB22EB20E7CFE920E7E02E
:10175300B90010BB0008E88AF084F8AAF022E4FB81
:10176300C8FA22EB70227B10C833C8C933C933507F
:1017730007C39AC3DBF280069A50012ADBEAC83317
:10178300F4C8C933F4C9FA2275F008E4C833C8C9E8
:1017930033C933C99AC99B5004C92AC93BD5F0EC54
:1017A300FBC833F4C8E4C9FA22600D08C6A2E713E4
:1017B300C618C613C6D5E0F322600C08C6C313C609
:1017C30018C613C6D5E0F422700422600D18C6C3F0
:1017D30033C608C633C6D5E0F41822251810AF085F
:1017E300F518400215198008F51840021519D2AFF3
:1017F30022C0D0251810AF08F5185002051980082B
:10180300F51850020519D2AFD0D0222518F5821051
:10181300AF08F518400215198008F518400215198C
:10182300D2AF851983222518F582E43519F5832271
:10183300E4732518C582C0E0E51934FFC583C0E011
:10184300E518C3958224F810AF088583198582189B
:101853008008858319858218D2AFCEF0A3E520F0E6
:10186300A37808E608F0A3DEFAEFF0A3E58124FAF3
:10187300F8E608F0A3E608F0A3E608F0A30808E6F4
:1018830008F0A3E608F0A315811581D0E0FED0E0AF
:10189300F8158115811581E8C0E0EEC0E022251816
:1018A300C582C0E0E51934FFC583C0E0E518C395E0
:1018B3008224F910AF0885831985821880088583EF
:1018C30019858218D2AFCEF0A3E520F0A37808E6FD
:1018D30008F0A3DEFAEFF0A3E58124FBF8E608F0B5
:1018E300A3E608F0A30808E608F0A3E608F0A315AA
:1018F300811581D0E0FED0E0F815811581E8C0E0C4
:10190300EEC0E022851983851882E0A3FEE0A3F5EB
:10191300207808E0A3F608DFFAE0A3FFE0A3C0E025
:10192300E0A3C0E0E0A3C0E0E0A3C0E0E0A3C0E028
:1019330010AF0885821885831980088582188583EE
:1019430019D2AFD083D082020135851983851882DD
:10195300E0A3FEE0A3F5207808E0A3F608DFFAE0B1
:10196300A3FFE0A3C0E0E0A3C0E0E0A3C0E0E0A3E6
:10197300C0E010AF08858218858319800885821816
:10198300858319D2AFD083D08222C0D02518C582D7
:10199300C0E0E51934FFC583C0E0E518C395822490
:1019A300F310AF088583198582188008858319850C
:1019B3008218D2AFC8F0A3E9F0A3EAF0A3EBF0A337
:1019C3007908E709F0A3D8FAECF0A3EDF0A3EEF061
:1019D300A3EFF0A3D0E0F0A3D0E0F0A3D0E0F0A316
:1019E300E520F0A3E5F0F0A322851983851882E0B2
:1019F300C0E0A3E0F9A3E0FAA3E0FBA37808E0F6D4
:101A030008A3DFFAE0FCA3E0FDA3E0FEA3E0FFA34D
:101A1300E0C0E0A3E0C0E0A3E0F5D0A3E0F520A39D
:101A2300E0A3F5F010AF0885831985821880088537
:101A33008319858218D2AFD082D083D0E0F8D0E06A
:101A43003274048006740280027401C0E0F404124C
:101A5300180ED0E01216E42274048004740280008D
:101A6300CCC0E0EDC0E0E518C39CCCAD1950011D1E
:101A730010AF068C188D1980068C188D19D2AF12F1
:101A830016F1D0E0FDD0E0FC22D083D082C5F0E493
:101A930093A3C5F0C395F0F5F0E493A3C395F04089
:101AA30005E5F0048001E475F002A42582F582E5E2
:101AB300F03583F583E493A3C0E0E493C0E022D040
:101AC30083D082E9C0E0E493A3C386F0C5F095F028
:101AD300F908E493A386F0C5F095F0700BE493A3A3
:101AE300C3994005E9048002A3E475F002A42582AA
:101AF300F582E5F03583F583D0E0F9E493A3C0E004
:101B0300E493C0E022D083D082E9C0E0E493A3C38E
:101B130086F0C5F095F0F908E493A386F0C5F09537
:101B2300F0702408E493A386F0C5F095F0701908CB
:101B3300E493A386F0C5F095F0700E08E493A3C375
:101B4300994007E9048004A3A3A3E475F002A42544
:101B530082F582E5F03583F583D0E0F9E493A3C001
:101B6300E0E493C0E022D083D082CCC0E0E493A32E
:101B73006006121B931470FAE493A36006121BB25F
:101B83001470FAD0E0FCE493A3C0E0E493C0E02235
:101B9300C0E0E493A3D39C5010E493A3C39C400AF6
:101BA300D0E0D0E0D0E0021B86A3A3A3D0E022C004
:101BB300E0E493A36C7009D0E0D0E0D0E0021B8690
:101BC300A3A3D0E022D083D082ECC0E0EDC0E0E458
:101BD30093A3FCE493A3FDED4C600D121C14EC24C1
:101BE300FFFCED34FFFD80EFE493A3FCE493A3FD3E
:101BF300ED4C600D121C53EC24FFFCED34FFFD8013
:101C0300EFD0E0FDD0E0FCE493A3C0E0E493C0E0B8
:101C130022C0E0C3E49396087401939618400FE43E
:101C23009366700808740193661870007019A3A373
:101C3300C3E49396087401939618A3A3400DD0E0D0
:101C4300D0E0D0E0021C04A3A3A3A3A3A3D0E0226B
:101C5300C0E0C0F088F0E4936670080874019366EE
:101C6300187000A8F0A3A3700BD0F0D0E0D0E0D0A0
:101C7300E0021C04A3A3D0F0D0E022D083D082ECF6
:101C8300C0E0EDC0E0EEC0E0EFC0E0E493A3FCE40D
:101C930093A3FDE493A3FEE493A3FFEF4E4D4C60A7
:101CA30015121CFAEC24FFFCED34FFFDEE34FFFEAD
:101CB300EF34FFFF80E5E493A3FCE493A3FDE493F7
:101CC300A3FEE493A3FFEF4E4D4C6015121D37ECBA
:101CD30024FFFCED34FFFDEE34FFFEEF34FFFF8005
:101CE300E5D0E0FFD0E0FED0E0FDD0E0FCE493A33C
:101CF300C0E0E493C0E022C0E0C0F088F012141FFB
:101D0300A8F04007121377A8F0701AA3A3A3A31295
:101D1300141FA8F0A3A3A3A34013D0F0D0E0D0E0F6
:101D2300D0E0021CE4A3A3A3A3A3A3A3A3A3A3D0D0
:101D3300F0D0E022C0E0C0F088F0121377A8F0A33F
:101D4300A3A3A3700BD0F0D0E0D0E0D0E0021CE45A
:071D5300A3A3D0F0D0E022B1
:101D5C00C0E074F012198DA2AFE433FFD2AFE58965
:101D6C00F8E5AB58F50A6051F4F589C2C57E008ED2
:101D7C0008750900740278081217CB121E42C3E8CA
:101D8C009408E99400502BE85407F87401B8000249
:101D9C008004C333D8FC550A601875080075090116
:101DAC00EE78081217CBAA08AB09900281E0F91261
:101DBC0004CE0EEEC3940440B6EFA2E092AF7F03C4
:101DCC000219ECC0E074F012198DA2AFE433FFD20B
:101DDC00AFE58AF8E58D58F50A6059F4F58AC2EB3F
:101DEC007E008E08750900740278081217CB121E3B
:101DFC0042E82400FAE934FFFBC3EA9408EB9400B0
:101E0C00502BE85407F87401B800028004C333D88F
:101E1C00FC550A6018750800750901EE7808121750
:101E2C00CBAA08AB09900281E0F91204CE0EEEC3E6
:101E3C00940440AE8083121EAFF922C0E074F012FD
:101E4C00198DA2AFE433FFD2AFE58BF8E5AC58F5B2
:101E5C000A604DF4F58BC2E87E008E08750900749B
:101E6C000278081217CB121EAFC39402402BE85411
:101E7C0007F87401B800028004C333D8FC550A601B
:101E8C0018750800750901EE78081217CBAA08AB73
:101E9C0009900281E0F91204CE0EEEC3940440BA0C
:101EAC00021DC574A72508F58274033509F583E076
:101EBC00F8A3E022C2AF02000022C0E0C0D0E8C00C
:101ECC00E0E9C0E0E5A8D2AFC2C7751A00A2E7A24C
:101EDC00E792AFD0E0F9D0E0F8D0D0D0E03274F592
:101EEC001218A1EAFEEBFFEE2434F8EF3400F98867
:101EFC00088909EE2435122016F8EE243712201624
:101F0C00F50AEC850AF0A4FCAAF0850AF0EDA42AE7
:101F1C00FDE82CF8E43DF97A257B00121753EA858D
:101F2C000882850983F074075AF87401B80002809E
:101F3C0004C333D8FCFBEA131313541FF8EE28F830
:101F4C00EF3400F9E8245DF582E91220195B600397
:101F5C00EA801CEE2436122016F5F0EA84A8F0EE86
:101F6C0028F8EF3400F9E82438F582E9122019F941
:101F7C007F0402194D74F51218A1EAFEEBFFEE2452
:101F8C0034122016C0E0EE2435F582EF3400F583D0
:101F9C00D0E0F08E828F83A3A3A3A3A3E0FAA3E0E7
:101FAC00FB8E828F83A3A3A3A3A3A3A3E0FCA3E034
:101FBC00FDECC39AF50AED9BF50BEE247FF508EFCB
:101FCC003400F509850882F583E06401702BEE245A
:101FDC0080F582EF3400F583121A5F12201F740211
:101FEC001217F4E960137CD77D06EEFAEFFB120EA4
:101FFC00AC850882850983E4F0AC0AAD0BEEFAEFF0
:10200C00FB121EEA122AB1021F7CF582EF3400F596
:10201C0083E022C082C083851882851983E0F8A3EF
:10202C00E0F9C3EA9CEB9D5010C3EC98ED99401B72
:10203C00C3EA98EB995014800EC3EA98EB994007C9
:10204C00C3EC98ED994004790180027900D083D0DB
:10205C008222EAC39CFAEB9DFB2274ED1218A1902C
:10206C00059DE064086005E06407702C9061C8E091
:10207C0060269005CBE0F874FF68601CE875F003EF
:10208C00A4C8AAF02AF974CD28FE740539FF8E82F3
:10209C008F83A3A3A3E070057900022206EE2468C7
:1020AC00F510EF3400F511906060E0851082851119
:1020BC0083F0750A57750B07750800750900E5D98B
:1020CC0014F50EE5D95403F50F601CEE2482F50CC3
:1020DC00EF3400F50D7403650F6058E50E6013EED8
:1020EC002467122016700B793DEEFAEFFB120ED01E
:1020FC0080A6900752E064016026850C82850D83D2
:10210C00E06004780480027800850E08E508C39826
:10211C00FA95E0FB120D328A088B09EA4509700624
:10212C0012117C0220A4850C82850D83E070048A38
:10213C000A8B0B78008016E5D9C0E08812E50A25D9
:10214C0012F582E50B3400F583D0E0F008E8C39576
:10215C000E40E4850C82850D83E0602874FC250E0E
:10216C00F50E780A121A48AC0EA90FEEFAEFFB1214
:10217C000F7E74021217F4E9700AAA08AB09120652
:10218C005A0220F37403650F6058850E0C750D0010
:10219C00780C121A48AC0AAD0BAA08AB09120F4204
:1021AC0074021217F4851082851183E0F87480682C
:1021BC007005750C7F8002880CE50CF50A780A1204
:1021CC001A4CE50FF50A780A121A4CA90EAC08AD98
:1021DC00099005CBE0FA7B00120BD074021217F4B5
:1021EC00801390059DE06408600BAC0AAD0BEEFA11
:1021FC00EFFB12103812118879017F0C02194D7403
:10220C00F31218A174FC1217DEEAFEEBFF8908A288
:10221C00AFE433F509C2AFEE2463F50AEF3400F5F1
:10222C000B8010AA0AAB0B120EFA12065A9006DE9D
:10223C00E004F0850A82850B83E0F8A3E0F9E84915
:10224C00602FE82402FAE93400FBEA2402F50CEBD7
:10225C003400F50D780C121A488A828B83E0FCA3AB
:10226C00E0F9EEFAEFFB120EEE74021217F4E960CD
:10227C00B29006DEE060579006DFE0F89006DEE0F4
:10228C00C398500C7402650870449006E0E0603E00
:10229C008E828F83A3A3A3A3E08518828519831252
:1022AC0022EA7402121829E81222EA9006DDE028CC
:1022BC00F07402121829AC82AD83851882851983BB
:1022CC00AA82AB837901120BD69006DEE4F0E50905
:1022DC00A2E092AF74041217F47F0602194DF0A31A
:1022EC00E4F09006DEE0F822852A87852BC622C012
:1022FC00E074EF12198DA2AFE433FEC2AF759B00F0
:10230C00906182E0A2E05012E591A2E0500C759130
:10231C00FE7401652A7003122066E0A2E55051E5B7
:10232C0091A2E5504B7591DF90059DE06407600527
:10233C00E0640870237401652A703579019005CB2F
:10234C00E0FA75F003A4CAA8F028FB74CD2AFA743D
:10235C00053BFB12220B8018E0640D70139005BF37
:10236C00E004F064287002E4F07A00E0F912118EB7
:10237C00906182E0A2E64003022422E591A2E640AD
:10238C00030224227591BF90059DE064057008122C
:10239C00107A1210868003121080752A0012110414
:1023AC00E990059EF079001210E6120E0A7A017B74
:1023BC000090059CE0F91204CE907803E064427022
:1023CC0055900756E014F0704DC2AF1223DA007826
:1023DC0033D0E0F618D0E0F6E59F54077005750988
:1023EC00FF800375097FC4C0E07832E6F50808E683
:1023FC005509F509740B78081217BCD0E02508F8BC
:10240C00906270E0A2E740F8E8C333906272F090FB
:10241C006270E0D2E0F0906181E0A2E35009E5E95E
:10242C00A2E3500375E9F7A3E0A2E75009E591A2F6
:10243C00E7500375917FEEA2E092AF7F040219EC96
:10244C00C0E0C0D0C082C083906183E0A2E050099C
:10245C00E5BFA2E0500375BFFEE0A2E15009E5BF65
:10246C00A2E1500375BFFDE0A2E25009E5BFA2E274
:10247C00500375BFFBE0A2E35009E5BFA2E3500394
:10248C0075BFF7E0A2E45009E5BFA2E4500375BFA5
:10249C00EFE0A2E55009E5BFA2E5500375BFDFE010
:1024AC00A2E65009E5BFA2E6500375BFBFD083D0AA
:1024BC0082D0D0D0E032C0E074F212198DE5A7A220
:1024CC00E4500FE5A1A2E4500953A7EF75A1EF1258
:1024DC002516E5A7A2E5500CE5A1A2E5500653A7E9
:1024EC00DF75A1DFE5A7A2E15009E5A1A2E1500348
:1024FC0075A1FDE5A7A2E2500CE5A1A2E25006539E
:10250C00A7FB75A1FB7F010219EC74F81218A175D9
:10251C002A0190059DE0640670077A007B0012107A
:10252C0062A2AFE433FED2AF9005A3E06401701851
:10253C007A207B0090059CE0F91205587A207B00EC
:10254C0090059CE0F91204D4906182E0D2E6F09000
:10255C000753E0602185C62B80169005A2E064012C
:10256C007008E5C654F84405F5C653BEFC1222F4B7
:10257C007401652A60E4EEA2E092AF7F0102194D6E
:10258C008E2C8F2D85823185833085188285198319
:10259C00E0CEA3E0CF853182853083EBC9EAC8ED6C
:1025AC00CBECCA75F010C3E833C8E933C9EA33CAB7
:1025BC00EB33CBC3EA9EF52FEB9FF52EB35004AB58
:1025CC002EAA2FEC33CCED33CDD5F0DAAE2CAF2DCB
:1025DC002274E91218A174FA1217DEEAFEEBFF8CD2
:1025EC00088D0990059DE024F7C3940550067510DD
:1025FC0001022708120FD88A0A8B0BEA450B7003CD
:10260C000227051210988A0C8B0D121098EA650C93
:10261C007003EB650D60ECEEFCEFFD8518828519FF
:10262C0083AA82AB8312109E850A82850B83A3A397
:10263C00780C1216AE909448780C12164F851882AE
:10264C0085198378141216AE909448781412164F8C
:10265C00780C79141213E0501F780C791412162789
:10266C0090940C780C1214004047850C10850D11B9
:10267C00850E12850F13804590940C8514108515CA
:10268C00118516128517137810790C1216277810ED
:10269C00121400501C751000751100751200751382
:1026AC0001781079141216277810790C1215EE8017
:1026BC000C751001751100751200751300740978F2
:1026CC00101215CF909408780C1216AE7810790C65
:1026DC001214B390059DE06408600AE0640660057E
:1026EC00E064057020909404781012140050169039
:1026FC0094007810121601800C751000751100757D
:10270C00120075130085088285098378101216BD96
:10271C0074061217F47F1002194D74F71218A112D7
:10272C0010B0900751E064017010906245E4F0A382
:10273C00F053F4F343FE0C5390F3121050E5C654CF
:10274C00804449F5C6E59E547F644970F8906185D4
:10275C00740FF090074FE0F47002A3E0602C750842
:10276C000175090090074FE078081217CBE508F4C3
:10277C00FAA3E0600814600A14600C800DEA528021
:10278C008008EA52908003EA52A079007F02021975
:10279C004D74F71218A1E9FEEAFF74016E700C7A01
:1027AC00807B0090059CE0F91204CE902AC0E49343
:1027BC00F46008E493F9120DEC800953C680E59E91
:1027CC00547F70FA121056900751E0640170031296
:1027DC000E2290074FE0F47002A3E0602A75080106
:1027EC0075090090074FE078081217CBAA08A3E0F0
:1027FC00600814600A14600C800DEA42808008EABC
:10280C0042908003EA42A0120FD88A088B09A808CC
:10281C00A909E8496017E5E170FCE82414F582E9A0
:10282C003400F583E0F874FF68600288E174016F8E
:10283C00700A7A0190059CE0F91205280227987419
:10284C00F11218A18A088B098C0A8D0B9094487888
:10285C000812164F740F121829780C1216AE909499
:10286C0048780C12164F7808790C1213E090940CDF
:10287C0050107808790C121627780812140040149E
:10288C00800E780C7908121627780C12140050045C
:10289C007901800279007F0802194D74ED1218A19C
:1028AC008A088B098C0A8D0B909448780812164F65
:1028BC007413121829780C1216AE909448780C12D6
:1028CC00164F780C79081213E040117808790C1225
:1028DC001627AA08AB09AC0AAD0B8022751000753F
:1028EC0011007512007513017810790C12162778E7
:1028FC001079081215EEAA10AB11AC12AD137F0CA7
:10290C0002194D90944878081216AE8A828B8378FF
:10291C00081216627F0402194D74F51218A18C82EC
:10292C008D8378081216AE8A828B83780812163B38
:10293C00122979C3E098F0A3E09912296B401E90FC
:10294C00949078081216AE8A828B8378081216142B
:10295C008E828F83E02420F0A3E0344EF080A4F02C
:10296C008E828F83C3E09420A3E0944E22EA240449
:10297C00F8EB3400F9E8FEE9FF8C828D83A3A3A366
:10298C00A3E0F8A3E0F98E828F832274F51218A1CC
:10299C00E9FE9006F2E0FAA3E0FBEEC333F8E43371
:1029AC00F974FE28F582749239F583E02AF508A3B0
:1029BC00E03BF5097808121A489094981216CC123C
:1029CC00258C74021217F48A088B098C0A8D0B74EF
:1029DC001078081215B6AA08AB097F0402194D74B9
:1029EC00F11218A18A0C8B0D8C0E8D0F740F12180E
:1029FC0029E0FAA3E0FB7411121829E0F508A3E012
:102A0C00F5097808121A48EA2401F508EB3400F5A8
:102A1C0009E4F50AF50B780C79081214339093F845
:102A2C0078081216AE780C7908121433AA0CAB0D78
:102A3C00AC0EAD0F12258C74021217F48B09EA45FB
:102A4C000960047A0180027A00EC2AFCED3400FD66
:102A5C007413121829E0F8A3E0F9E8FEE9FFECF88A
:102A6C00EDF97A717B0212175388088909E4F50A8B
:102A7C00F50B8E828F8378081216BDECF8EDF97A7F
:102A8C00717B021217538A088B0974057808121788
:102A9C00CB8E828F83A3A3A3A3E508F0A3E509F053
:102AAC007F0802194DC082C083E9906000F0D0838A
:032ABC00D08222A3
:102AC000FFFFFFFFFFFFFFFFC082C08385218285DC
:102AD0002283E06420700A852283A3858221858376
:102AE00022023B6E74F4121835A821A922AC21AD44
:102AF00022801CA3AA82AB838A828B83E0F50A74AE
:102B000020650A60EE7409650A60E8EAFCEBFDECFA
:102B1000FAEDFB8A828B83E075F00D84E5F033FEDD
:102B2000E433FF74C32EF58274093FF58312640DFC
:102B30008004ECFAEDFB8A828B83E0F50A7427654A
:102B40000A60067422650A703A122CB58A828B8359
:102B5000A3AA82AB838A828B83E0FCA3AA82AB8385
:102B600088828983122CBBE50A6C609F740A6C70A2
:102B7000E4E824FFF8E934FFF9EA24FFFAEB34FF34
:102B8000FB8088740A650A701A88828983740AF047
:102B9000023152AE08AF098A828B83A3AA82AB832B
:102BA000E0F50A8E828F83A38582088583098E8251
:102BB0008F83E0650A60DCE0F50AC394804033C38C
:102BC000E52198E522995008122CAE700318A983CC
:102BD000122CB58E828F83E064806003022AF88510
:102BE0000882850983E088828983F0A308A983028B
:102BF0002AF8EEFAEFFB8A828B83A3AE82AF838A38
:102C0000828B83E0C3948040E9EE24FF122CA864F9
:102C10008070088E828F83A30EAF838E828F83E0B5
:102C20006003022B328C828D8312591C5016122C99
:102C3000B58C828D83A3AC82AD8312591C400302F4
:102C40002B0F80EA88828983A3AA82AB83740965EB
:102C50000A60067420650A7036C3E52198E522995A
:102C60005010122CAE600B888289837420F0EAF831
:102C7000EBF98C828D83A3AC82AD83E0F50A7420DE
:102C8000650A60EE7409650A6003022B0F80E38811
:102C9000828983E50AF0EAF8EBF98C828D83A3AC94
:102CA00082AD83022B0FF582EF126A12E022126EC0
:102CB000A0E064202288828983E50AF0A3A882A983
:102CC000832274E8121835E9FE8A0C8B0D8C0E8D68
:102CD0000F75100A75110075120075130090945845
:102CE000780C1213BA401C792D1205FA780C1215C3
:102CF0008B80109093FC78081216AE781079081229
:102D000014331E7810790C12139050E7EEFF74FF05
:102D10002F1E04C39401A2D265D033403D79201206
:102D200005FA80E8850C08850D09850E0A850F0BCC
:102D300085101485111585121685131778087914D6
:102D400012154D9093FC78141216AE78087914126F
:102D5000154DE5142430F91205FA9093FC78081209
:102D600016AE7810790812154DE51045114512453B
:102D70001370B180031217F47F1002190774F61252
:102D800018351203BA900311E4F0A3125848802BAF
:102D9000125DBFE875F00AA4F8AAF075F00AE9A47C
:102DA0002AF9E50828F8E439F9E824D0F8E934FFED
:102DB000F9900311E8F0A3E912583DE0F50874D04A
:102DC0002508C3940A5015900311C3E09499A3E019
:102DD000941990031140B974FFF0A3F07F02021917
:102DE00007C082C0837A007B00852182852283E030
:102DF000F874226860057427687025852283A3858E
:102E0000822185832280031263EC7921E72AF582EF
:102E100009E73BF583E0F9E8696009740A6970E73E
:102E20007AFF7BFF023B6E74F7121835EAFEEBFF68
:102E3000800C1205FA8E828F83A3AE82AF838E82BE
:102E40008F83E0F970EC790A1205FA7F0102190705
:102E5000C082C08390030FE0FAA3E0800E8A828BC9
:102E600083A3A3E0F8EA28FAEB3400FBEA652370B9
:102E700003EB652460138A82C082125DBC8B83D011
:102E800082C3E098A3E09940D4023B6E74F012181C
:102E90003589088A09750A20122FE0F50CA3E0F5A0
:102EA0000D90030DE02403122FD1AA0CAB0DE4FC0E
:102EB000FDA9081203C6800579201205FA85090CC0
:102EC00074FF250CF5090470EF8005890B850B0A4A
:102ED000122FE0F50B90030DE0240108122FD2749D
:102EE0000A650B7003022FC9E50BC394805007A934
:102EF0000B1205FA80D77CC37D0980267480650D8E
:102F00007004A80EA90F88828983A3A882A983E8E8
:102F1000FEE9FF88828983E0701DEC2402FCED3419
:102F200000FD8C828D8312640DEE4F60A0EEF8EFF1
:102F3000F980E0A80EA90F88828983A385820E8577
:102F4000830F88828983E0C3948040E7E0F50DE534
:102F50000B650D70A77480650B701B850E82850F45
:102F600083E0FB90030D125DE0E06B708F90030D2A
:102F7000E02401122FD17420650A600979208002B3
:102F8000A90B1205FA8E828F83E0F50BA3AE82AFF8
:102F900083E50BC3948040E8EE24FE122CA6F9745E
:102FA00028697003022ECB122FE0642C7003022ECE
:102FB000CBEE24FF122CA664C17003022ECB792025
:102FC0001205FA750B20022ECD790A1205FA023489
:102FD000FEF8A3E03400F990030DE8F0A3E9F02235
:102FE00090030D1258A5E02274F0121835E9FFEA9B
:102FF000FE750800750900750A00750B00802274C3
:10300000D02AFAEAC39E50518E0CE4F50DF50EF568
:103010000F7808790C1214338A0C7808790C121581
:10302000EEEFF974FF291F04603585218285228324
:10303000E0FAA385822185832274D02AC3940A40B2
:10304000BE74BF2AC39406500474C980B4749F2A06
:10305000C39406500474A980A8752502125A39AA8F
:1030600008AB09AC0AAD0B0234FE74F412183589B2
:1030700008EAFCEBFD900313E06508700D90031463
:10308000125DBF8C828D8302313574BF2508F985AE
:10309000080A750B007402780A1217CB7826E62509
:1030A0000AFA08E6350BFBEA24FCFAEB34FEFBE9EE
:1030B000131313541FFE18E62EFE08E63400FFEE2D
:1030C0002468F582EF123AF1C0E0740759F8D0E0B5
:1030D000B800028004C313D8FCA2E05063A828A95A
:1030E00029800D8882898312640CE82EF8E93FF963
:1030F000C3E89526E99527504788828983E064567E
:1031000070E1A3A3A3A3E0650870D88C828D83121D
:103110003B0B88828983A3A3A3E06402602DE508AA
:10312000900313F0900314123B0BE82408F8E934E1
:1031300000F9900316123B0B900316126AB4800B31
:103140008C828D8374DFF0A37409F0800574021201
:1031500017F47F0402190774EC121835EAFEEBFF2E
:10316000123B115061A38582218583221203F08ACC
:10317000088B098E828F83125E6D705C852182853B
:103180002283E06428703FA3858221858322790110
:103190001204088A108B118C128D13E5257027906C
:1031A000945878101213BA501D8E828F83123B26CA
:1031B000F50CA3E034FFF50DE4F50EF50F780C796E
:1031C0001012139040067A007B008010E50825104D
:1031D000F508E5093511F509AA08AB097F0C0219B4
:1031E0000774F2121835E9FE8A088B09A808A909A4
:1031F0001232C3EA24F8F8EB34FFF9C3E89523E967
:10320000952450067525040232BE85080C85090DEB
:10321000E50C2408F8E50D3400F91232C38A288B36
:1032200029AC28FD8C828D837456F0E50C2408A30C
:10323000123B0C8C828D83A3A3A37404F0EE8C82CA
:103240008D83A3A3A3A3F074BF2EFF1257A45FFA2C
:1032500088828983E0C0E0EAFBD0E0BB0002800402
:10326000C313DBFC54018C828D83A3A3A3A3A312FD
:1032700057FCA3A312581BB800028004C333D8FC28
:10328000F974FFC399F8E05849F07828E62408FA61
:1032900008E63400FB740E121829126AABEC4D607C
:1032A0000F7808121A4812047A74021217F480096F
:1032B000AC08AD097900120492900313E4F07F0684
:1032C000021907C31232C822E498FAE499FB78285D
:1032D0001232D422E62AFA08E63BFB2274F01218D6
:1032E00035E9FEEA24FCFCEB34FFFD74BB6E701A7A
:1032F0008C828D8378081216AE780812158B8C821A
:103300008D8378081216BD0234FEECFAEDFBEA2438
:10331000FCFCEB34FFFDEE121A8CA911F23442339F
:1033200056336A338633AF33E433F9330E34233400
:10333000323448345E345E3474348A343234B334D4
:10334000CE348A828B8378081216AE8C828D837875
:103350000812161480B18A828B8378081216AE8CFC
:10336000828D83780812163B809D8C828D8378082D
:103370001216AE8A828B83780C1216AE7808790CFE
:103380001214330234E78A828B83780C1216AEE56E
:103390000C450D450E450F70030234F78C828D836A
:1033A00078081216AE7808790C12154D0234E78AA7
:1033B000828B83780C1216AEE50C450D450E450F39
:1033C00070030234F78C828D8378081216AE780869
:1033D000790C12154D850C08850D09850E0A850F8F
:1033E0000B0234E78A828B8378081216AE8C828DAA
:1033F0008378081216620234FE8A828B8378081260
:1034000016AE8C828D8378081216880234FE8A826A
:103410008B8378081216AE8C828D83780812169BE7
:103420000234FE8A828B8378081216AE8C828D83DA
:10343000804F8A828B8378081216AE8C828D8378B7
:1034400008121362605C80568C828D837808121695
:10345000AE8A828B8378081213A5504680408A82F8
:103460008B8378081216AE8C828D837808121362D3
:103470007030802A8C828D8378081216AE8A828BF7
:103480008378081213A5401A80148A828B837808E7
:103490001216AE8C828D8378081213A55004D2F0D8
:1034A0008002C2F0A2F0E433F508E4F509F50AF56C
:1034B0000B80348C828D8378081216AE8A828B83BF
:1034C000780C1216AEE50C78081215CF80198C8294
:1034D0008D8378081216AE8A828B83780C1216AE12
:1034E000E50C780812159C8C828D8378081216BD25
:1034F000800C75250280037525037A007B007F0808
:1035000002190774E812183574D11217DE7402120A
:103510001829E9F0750E01E525600302388F740F54
:103520001218298582088583097407121829AE822A
:10353000AF83740E121829A882A983740512182962
:10354000123B0B7407121829A882A983740312185E
:1035500029123B0B740F1218298582168583178058
:1035600055742F121829E58265087004E5836509F2
:10357000700302367F852182852283E0F50A750B70
:10358000007402780A1217CB749C250AF582748F96
:10359000350BF5831216CC8508828509831216D85F
:1035A000852182852283A385822185832285140833
:1035B000851509750E00852182852283E0F510129C
:1035C0005D8FE5082404F514E5093400F5158E82B5
:1035D0008F83A385820C85830D8E0A8F0BE51012D5
:1035E0001B69029A9C3438ABBA3C3A0F0AA93620C0
:1035F000B63528113829B7382C6C38806135A93C8C
:103600003AAA333ABC3438BDA837BE3438BFEB369B
:10361000C02337C1D536E234381B3674D02510C3E9
:10362000940A5031742F121829E58265087004E558
:10363000836509604A882189227A0A79FF1203EAA0
:103640008508828509831216D885140885150975A1
:1036500025000235B374BF2510C3941A504B85184A
:1036600082851983AA82AB83A9101203F0125E67C8
:10367000701374051218291264135003023823754D
:10368000250402388F742F121829E582650870040A
:10369000E583650960E98A828B831216CC850882EE
:1036A0008509831216D80235AD8821892274031248
:1036B0001829C3E09EA3E09F4003023ABA1257E2E2
:1036C000AA08AB098E828F83E0F9120402123ADB5A
:1036D00040DB023888742F121829E58265087004CF
:1036E000E583650960997A1002363B1203BAA82176
:1036F000A92288828983A385822185832288828961
:1037000083E064296003023888742F121829E58247
:1037100065087004E5836509700302367F12064868
:1037200002369D1203BAA821A92288828983A38523
:10373000822185832288828983E06429600302389C
:1037400088742F121829E58265087004E5836509DD
:10375000700302367F75B61FE5B4A2E750FAE5BAEA
:10376000F50AE5BBF9E50AF50CE9F50D7406780CE8
:103770001217ACE50D3395E0F50EF50F9094207817
:10378000101216AE780C7910121433909430781011
:103790001216AE780C791012154D850882850983B2
:1037A000780C1216BD0235AD123B11400302388869
:1037B000A3E064296003023888742F121829E58277
:1037C00065087004E5836509700302367F852182F0
:1037D000852283A3A385822185832285188285196A
:1037E00083AA82AB831203F0125E676003023888FB
:1037F00085188285198312598185088285098388F5
:10380000088909750A00750B0078081216BD023583
:10381000AD740F121829E5826E7003E5836F700393
:1038200002367F8E828F83E510F0AE0CAF0D750EE1
:10383000010235B6740512182912641340030236CA
:103840007F8E828F83E510F0AE0CAF0D8E828F835A
:103850007428F0A30EAF8380D5123AF7603EAA0811
:10386000AB09E8F9120402123ADB501C7407121873
:1038700029E5826E7003E5836F70DE7402121829E9
:10388000E0640270030236ADE52570037525027A07
:10389000007B007C007D00742F022D75A3AE82AFEB
:1038A000830235B3123AF7602AAA08AB09E8F91285
:1038B0000402123ADB50D17407121829E5826E70A7
:1038C00003E5836F70DE7402121829E0640170B89A
:1038D0000236AD7403121829C3E09EA3E09F400393
:1038E0000235B6740F121829E58265087004E58365
:1038F00065096094E50824FCF50AE50934FFF50B39
:10390000850A82F583780C1216AE1257E28E828FEA
:1039100083E0F5102466606814606B14606E24E028
:10392000600B24FE603024DC60750239CA90945824
:10393000780C1213BA4005780C12158B850C108583
:103940000D11850E12850F13850A82850B83781061
:103950001216BD02382E1204988A108B11E4F5124B
:10396000F5137810790C12154D850A82850B83E5C5
:103970000CF0A3E50DF0A3E50EF0A3E50F023A2845
:10398000AA0C7900800AAA0C79018004AA0C790299
:10399000120432850A82850B831216D802382E85CE
:1039A0000D11E51154806003023888E4F510F5111B
:1039B0007810121A487900AC0AAD0BAA0CAB0D12A4
:1039C00006DE74021217F402382E74BF2510C39459
:1039D0001A5058851882851983AA82AB83A91012C0
:1039E00003F0125E676003023888909458780C12D6
:1039F00013BA4003023888123B20F510A3E034FFCD
:103A0000F511E4F512F5137810790C1213904003B8
:103A1000023888EA250CF582EB350DF583E0850A3E
:103A200082850B831263F9A3F08005A3AE82AF8376
:103A300002382EE50EA2E050037510BB85100A7403
:103A40009A250AF5827491123AF1F50AEE24FFF8EC
:103A5000EF34FFF988828983E0FC74572CF50C74ED
:103A600007121829E5826E7003E5836F6019E50C73
:103A7000C3941350127443250CF5827492123AF1D8
:103A8000FAE50AC39A501F740F121829E5826E7066
:103A900003E5836F700302367F8E828F83E510F01B
:103AA000A3AE820238551EE9FFAA08AB09ECF91251
:103AB0000402123ADB40950238887413121829E583
:103AC0008265087004E58365096003023888E508AB
:103AD00024FC126A0E1216CC0238978A088B098AC7
:103AE000828B83C3E5169582E517958322F58208BC
:103AF000E63400F583E022EE24FF1EEF34FFFF8E54
:103B0000828F83E0F8642822900340E8F0A3E9F074
:103B100022852182852283E0F974BF29C3941A2269
:103B2000851882851983E0F8123B2C221258ABA32A
:103B3000E024F822C082C0837A007B0C120510902A
:103B4000030F125DB67C007D0C79001204921258AE
:103B50009390030F126AD02494F582E8340BF58316
:103B6000858226858327852628F529120414D0838B
:103B7000D082020135C082C0837A2C7B931203D895
:103B80001257621203C67A737B931203D87AA37B0F
:103B9000941203D880D874F612183512060612044F
:103BA0000E123C171205EE12062AE960497A727964
:103BB0000012060C1257BF400612592712061212A5
:103BC000061E90030FC3E09523A3E0952450219097
:103BD000030F1258A1121A5F7508007808121A4CC8
:103BE0009094341216CC790312063674031217F42B
:103BF000123C171205EE022DDCC082C083800F79C3
:103C0000007A007B00120426123C171205EE120502
:103C1000F4E970EB023B6EAC28AD297823E6240270
:103C2000FA08E63400FB2274E812183574F1121712
:103C3000DE7402121829E9F0752500EA4B700302C0
:103C40003D12900311125DB6AE23AF247402121818
:103C500029E06021782812574EC3EA9EEB9F50035B
:103C6000024FAE8A288B298A828B837445F0A37415
:103C700003F0A3E4F01203DE8A828B83A3A3A3855F
:103C80008221858322C3E5219EE5229F40030240D5
:103C9000D4A821A92288828983A3858221858322B1
:103CA00088828983E0121A8C8028B93ECD40233F58
:103CB0006A3F813FA73F06403040FE3C8840BC4001
:103CC0000D410D41AC483B415A41BB496F4E6F4ECF
:103CD000CC41F64B6A423D407442CC42FE425543D1
:103CE000744374437443BC43CA4337445545B94590
:103CF0002346CE4608477E479947C847D647852181
:103D000082852283E0640A60030240CD1258930248
:103D1000408890031DE4F0A3F0852382852483A3CB
:103D2000A38582218583221203C0750A00740212C2
:103D30001829E50AF004F50AE0FA7821E62A123A91
:103D4000ED640A70E8A80AC3E498FE95E0FF750BDD
:103D500000780A121A48AC21AD227828E62EFA081B
:103D6000E63FFB12060074021217F47828E62EFADA
:103D700008E63FFB8A218B221203CC1203BA900380
:103D80001112706C7019852382852483A3A3858208
:103D900021858322E0640A6003023C91023EB590D3
:103DA0000311E0F47003A3E0F470030240CD782126
:103DB00012574E8A218B22A821AA28EAC398F50A15
:103DC000900311E088828B83123B0CE50A88828B7A
:103DD00083A3A3F01203DE8A088B09AE08AF09EEB5
:103DE00065237003EF6524604F8E828F83126AA46F
:103DF000E0687003A3E069703F8E828F83A3A3E025
:103E0000F88882AC82C3E49CFA95E0FB78231232F6
:103E1000D48A238B24EAC39508F50CEB9509F50D9C
:103E2000780C121A48EE2CFCEF3400FDEEFAEFFB92
:103E300012047A74021217F4852182852283A3A3C7
:103E4000A3E0640A606FAC23AD24850A8285820CEE
:103E5000750D007821E6C39CFA08E69DFBC3EA9540
:103E60000CEB940050077902740F022D75ECC3958A
:103E700008F508ED9509F5097808121A48EEFCEFE7
:103E8000FDEE250AFAEF3400FB1206007402121749
:103E9000F4780C121A48AC21AD22EEFAEFFB1204B2
:103EA0007A74021217F47823E6250AFA08E6340039
:103EB000FB8A238B24790180AF125A398A82F583D9
:103EC000E0C3948040030240CD740D121829AA82E9
:103ED000AB831203F68A088B09AE08AF09EE4F7068
:103EE000030240CD852182852283E064B560030210
:103EF00040CDA385822185832279001204088A0897
:103F00008B098C0A8D0BE52560030240CD740D12E0
:103F10001829125E6D8E828F836003024B40EAF097
:103F2000024B457508017509017E017F001203CC23
:103F3000852182852283E0640A60030240CD9003DC
:103F40000FE0F8A3E0F9E865237003E96524700346
:103F5000024B708882898312640D88828983A3A3AF
:103F6000E0FAE82AF8E9340080DB1258937A727993
:103F70000012060C1257BF40221259271206128057
:103F80001A7A77790012060C782390030F126AB41C
:103F9000E6C39AFC08E69BFD12061812061E85234E
:103FA000218524220240D479001204088A08AF082F
:103FB000E52560030240CDEF70030240D11203BA41
:103FC0001258E15062E0F87420686005740A687065
:103FD000597A72EFF912060C12575850030240CD6D
:103FE0007403121829AA82AB83EEF91203F074034A
:103FF000121829125E6D6003024C7B74031218299B
:104000001258EB024C7F79001204088A08AF08E5C9
:104010002560030240CDEF70030240D11203BA12B3
:1040200058E15003024C88125A3912061E0240CD44
:104030001257621203C67A737B931203D8852182CA
:10404000852283E0640A60030240D1024E7AA3A372
:10405000A3A3E024BFFC1257A45CFA85288285291B
:1040600083A3A3A3A3A3E0C0E0EAFBD0E0BB0002CC
:104070008004C333DBFCFB7401BA00028004C33349
:10408000DAFC12586D1259A3C3E5289526E5299547
:10409000275019852882852983E024AD600624FDF8
:1040A00060AC80E1125901120A9E80D990030F1270
:1040B00058A11257775003023C91801885218285C0
:1040C0002283E024BFC3941A50030249A7E5257058
:1040D00003752501E525C333F8E433F974BE28F5EB
:1040E00082749239F583126AB41203D8AC21AD22DE
:1040F000C3EC9523ED95244003024857E525700352
:1041000002486190030FE0FAA3E002480E79001222
:1041100004088B098C0A8D0BE52570B185218285F9
:104120002283E0640A70AA125746600302403D7978
:1041300000A385822185832202487B79001204082E
:104140001258327088852182852283E0640A70814A
:104150001203DE8A828B830240B2790012040812B5
:10416000583260030240CD852182852283E0640AB3
:1041700060030240D1AE23AF24852882852983A322
:10418000A3A3A3A3C3E5829EE5839F5003024FAE82
:104190007828E624FB126A40A828F988828983746B
:1041A00047F0A37405F0A3E4126A65E521F0A3E5E6
:1041B00022F01203DE8A828B83A3A3A3858221854A
:1041C0008322C3E5219EE5229F0240B5125850404C
:1041D000030240CD8815A38582218583221203BA6C
:1041E000852182852283E064B560030240CDA385EA
:1041F000822185832279001204088A088B098C0A9F
:104200008D0BE52560030240CDA821A92288828973
:1042100083A385822185832288828983E064C260AA
:10422000030240D179001204088A0C8B0D8C0E8D8C
:104230000FE52560030240CDA821A9228882898349
:10424000A385822185832288828983E064C36003F9
:1042500002490E79001204088A108B118C128D13FA
:10426000E52560030240CD02491DC2AF75C9AB759B
:10427000C95B80FE12585040030240CD74021218F0
:1042800029E812583D1203BA852182852283E06411
:104290002860030240CDA385822185832279011203
:1042A0000408E52560030240CDE4F50CF50D780C1B
:1042B000121A487404121829E0F91203FC7402124D
:1042C00017F4E52560030240CD02403D7E007902EF
:1042D0001204088A08AF08E52560030240CD1203E6
:1042E000BA852182852283E064C46003024CD1A395
:1042F000858221858322EFF912063002403D790044
:104300001204088A088B098C0A8D0BE525600302CC
:1043100040CD90945878081213BA40030240D1A8B7
:1043200021A92288828983A385822185832288828C
:104330008983E0640A70E8852182852283121A5FEE
:10434000750C00780C121A4C79031206367403129D
:1043500017F4023EB579001204088B098C0A8D0B04
:10436000E52560030240CD1257467003024D48799F
:1043700001024D4A125A3912042C7402121829E90A
:10438000F0E52560030240CD852182852283E0642B
:10439000B560030240D1A385822185832279001272
:1043A00004088B098C0A8D0BE52560030240CD12B1
:1043B00057467003024B1E7803024B201257805061
:1043C00003024E1A7525070240D49003427401F08F
:1043D000127069700A9003407421F0A37403F08591
:1043E0002182852283E0F50A750840750903246B54
:1043F00070030251D824B87003024FB9146010241E
:10440000FE7003024FC91470030250A102524A12F7
:10441000598B50030248051259B97405F0900340B6
:10442000E02401125881F0852182852283A38582B0
:104430002185832202403D900342E4126A89C3949D
:1044400080508D7510007F0079001204088A088B57
:10445000098C0A8D0BE52560030240CD1203BA8555
:104460002182852283E024236009147003024FB463
:104470000240CD7E01A3858221858322E064DE7027
:10448000090E0EA3858221858322852182852283C0
:10449000E064E3700AA3858221858322751001857B
:1044A0002182852283E064E47008A38582218583CC
:1044B000220F852182852283E064D560030240D1EA
:1044C000A3E0648E60030240D1852182852283A30C
:1044D000A385822185832279001204081258326054
:1044E000030240CD125DBC9003BF123B0B78081253
:1044F0001A447C007D0079007A027B001206D87491
:10450000041217F47808121A447C007D0079007AAE
:10451000037B001206D874041217F4EFA2E0B3E490
:1045200033F508E4F509F50AF50B7808121A447C0E
:10453000007D0079007A237B001206D874041217DC
:10454000F412071A7B00E510A2E0E433FAEEF91248
:10455000071402403D79001204088A088B09A90952
:10456000E52560030240CDAE08E9547FFFE95480A1
:104570007003025305851882851983AA82AB83854F
:104580002182852283E0F91203F08A088B09AC08A6
:10459000AD09125E6760030240CD909458121A5B19
:1045A0007404121829123B26F9EEFAEFFB1206D812
:1045B00074041217F4E90242C47405121829E4F0D5
:1045C00012042C7406121829E9F0E5256003024054
:1045D000CD1203BAA821A92288828983A3858221CA
:1045E00085832288828983E02438600A24FE700350
:1045F000024D8D0247FF74071218297410126A8940
:10460000F8A3858221858322740A686003024D50D5
:1046100074081218297418F07409121829125A39DA
:10462000024D98750C0012042CE9FEE5256003028A
:1046300040CDEE131313541F5407F50EEE54C0F57E
:104640000D7480650D700AE50EC394044003024E9C
:10465000141203BAA821A92288828983A385822102
:1046600085832288828983E02435600914600302EF
:1046700047FF750C01A821A92288828983A385821E
:104680002185832288828983E0648E60030247FF4C
:104690007900120408E52560030240CDEEF9120608
:1046A0003CE97003024E14A80E7401B800028004A5
:1046B000C333D8FCF9E50D6003024DABE58CA2E0F5
:1046C000E433450CF58CE942ABD2BD02403D120407
:1046D0002CE9F8E52560030240CDE8131313541FBD
:1046E0005407FA7401BA00028004C333DAFCF4FA06
:1046F000E854C0FB6003024DF0EA52ABE5AB600347
:10470000024E0BC2BD024E0B852182852283E0F84A
:1047100074E86860030253A0A3858221858322790F
:10472000021204088A08AE087902120408EAF50C9D
:10473000E52560030240CDEEC3940440030240D15E
:10474000EAC3940440030240D1852182852283E09C
:10475000FF74E66F600874E76F60030240D1A385C1
:1047600082218583227900120408E5256003024036
:10477000CD74E66F60030253277820025329852108
:1047800082852283E02433600914700302573E02BD
:1047900040CD900319E402442679001204088A0CE3
:1047A0008B0D8C0E8D0F780C121B08080000000674
:1047B000CD40C047CD40C047CD40C047CD40C047A9
:1047C000EA9009E7F002403D12578040030243C4DB
:1047D0001204380242C2A821A92288828983A385B3
:1047E000822185832288828983E0242870030254F1
:1047F000AF24FE70030254AF24F270030254791206
:104800005A390240CD7525050240D4E8FAE9FB8A01
:10481000828B83A3A3E0F8EA28F8EB3400F9EA6579
:10482000237003EB6524600EC3EC9AED9B40DCC360
:10483000EC98ED9950D590030D125DB6793E1205B6
:10484000FA793E1205FA79201205FA7A01790012F6
:1048500003E4790A1205FA7404652570047902806C
:10486000027901023E68E97003024902198521823A
:10487000852283A3A3E0FA18125797125780505D40
:104880007821E62403123AED2476600C14601114AA
:10489000600924F760D080D50980D2E970CF8062AA
:1048A000E970CA858221858322023C917E00120331
:1048B000BA852182852283E0640A60030240CDA389
:1048C00085822185832280101E852182852283A3F3
:1048D000A3E0FA7821125797125780400A7AA37BF7
:1048E000941203D8023EB5852182852283A3A3A317
:1048F000E0F8748A6870030E80CF74956870CAEE11
:1049000070C6852182852283A3A3A302442D125A57
:10491000397510017511007512007513001203BA74
:10492000852182852283E0640A60030240CD7828D5
:10493000E624F21257D45003024FAE8A288B29ACDA
:1049400028AD29851516751700740278161217CB35
:104950007826E62516FA08E63517FBEA24FCF582E8
:10496000EB34FEF58378081216BD8C828D83744675
:10497000F0A3740EF0A3E4125801E5151257FC7869
:104980000C1216BD8C828D83A3A3A3A3A3A3A3A300
:1049900078101216BDEC240CF582ED126A1EE5218A
:1049A000F0A3E5220247C4A3E0640A60030240CDFD
:1049B0008009125901120A9E1259A3C3E5289526AF
:1049C000E52995274003024B13852882852983E03A
:1049D00024BB603514603D14600E24F460D424FDC3
:1049E0007003024AD7024FAE1257EB70CBA828A92A
:1049F0002988828983A3A3A3E0F521A3E0F5228877
:104A00008289831259A902403D1257EB70AA1259AC
:104A1000A3023EB5126EAA08E6122CA9648970980A
:104A2000AA28AB298A828B83A3A3A3E0F50885215A
:104A300082852283E0650860030249B87509007425
:104A40000278081217CB7826E62508FC08E6350917
:104A5000FDEC24FCFCED34FEFDEA2408FEEB340002
:104A6000FF8C828D8378081216AE8E828F83780831
:104A70001216018C828D8378081216BD8E828F8368
:104A8000780C1216AEEA2404F8EB3400F9E8FCE9DD
:104A9000FD909450780C1213BA50158C828D837847
:104AA000081213A5501F8A828B831259A90244272A
:104AB000909458780C1213BA40EC8C828D8378084D
:104AC0001213BA50E1EA240CF582EB123AF1F52107
:104AD000A3E0F52202403DAC28AD29A3A3A3A3E0A7
:104AE00024BFFE1257A45EFA8C828D83A3A3A3A3D6
:104AF000A3E0C0E0EAFBD0E0BB00028004C333DBEC
:104B0000FCFB7401BA00028004C333DAFC12586D56
:104B10000249B81257EB60030240CD0240D478043A
:104B20007402121829E048F07403121829AC82ADFF
:104B3000837402121829AA82AB8312043E02403DFC
:104B400078081216BD740D121829126AC3126D4B23
:104B5000700302403D12046202403D0509EEF8EF89
:104B6000F97A0A7B00121753880A890BAE0AAF0B39
:104B7000EE4F70E71203DE90030D125DB6122FE0C8
:104B8000FEA3E0FFEE4F60291509EEF8EFF97A0A6F
:104B90007B00121753880A890BAE0AAF0B80E5E53C
:104BA00008C3940240021508AA08A9091203E405E3
:104BB0000890030DE065237004A3E06524700302F0
:104BC000403D90030D1258D8247760111460D91419
:104BD00060CD1460CA24FA60CF24FD7009E508C3D3
:104BE000940240021508AA08A9091203E480C2A38E
:104BF000858221858322852182852283E0640A7053
:104C000008790A1205FA02403D1203D28A088B097C
:104C1000AE08AF0974FF6E700374FF6F705085218A
:104C200082852283E0F874226870030240CD7427E5
:104C30006870030240CD742C6860B474206860AF63
:104C40007902120408E52560030240CD79001203C1
:104C5000C680A3A821A92288828983A38582218571
:104C6000832288828983E0F91205FA1257E2EE4F17
:104C700070E1852182852283024BEF7C047D001246
:104C8000061212061E02403DE0F8742068600874A7
:104C90000A68600302402A7A77EFF912060C12576D
:104CA0005850030240CD740B121829AA82AB83EE30
:104CB000F91203F0740B121829125E6D700A740B4E
:104CC0001218291258EB80047C047D00120618800B
:104CD000B179001204088A0C8B0D8C0E8D0FE5251E
:104CE00060030240CD1203BA852182852283E064ED
:104CF000C57008A38582218583220E8521828522A5
:104D000083E0648E60030240D1A3858221858322E3
:104D100079001204088A088B09E52560030240CD5A
:104D20007808121A48EEF5087808121A4CAA0CAB4B
:104D30000DAC0EAD0FEFF912063674031217F4E93D
:104D4000600302403D0240CD790012062402403D3E
:104D500074C668700974081218297420802A74C7F0
:104D600068700974081218297428801C74C9686056
:104D7000030247FF7409121829E054C0600302407F
:104D8000D174081218297430F0740980087407125D
:104D900018297408F0121829AC82AD837405121812
:104DA00029AA82AB8312043E0242C27440650D7090
:104DB00027E50EC39404E50C5013C333F8E58C5477
:104DC0000248F58CE9428D439A1002403D3333543A
:104DD000FCF8E58C540480E9E50C33333354F8F8DF
:104DE000E58C540848F58CE942AC439A0202403DF8
:104DF00074406B700CEA528DE58D700F539AEF8002
:104E00000AEA52ACE5AC7003539AFD120642E9601F
:104E10000302403D7525060240D4A821A9228882BC
:104E20008983A385822185832288828983E0246BFC
:104E30007003024F9E24BF6018147003024F901439
:104E4000605314605014604D14604A14604702406F
:104E5000CD7821E624FBF58208E6126A12125DBFC6
:104E6000900343123B0B9003457401F0A3E4F085DB
:104E70002182852283E0640A701285218285228343
:104E8000A312577740030240D4023C91A3858221AC
:104E900085832280DA900345E02401F0A3E034000A
:104EA000F0A821A92288828983A385822185832273
:104EB00088828983E0242860E81460E51460E214A5
:104EC00060D31460D0125A39F583E0FE74BF2EFF10
:104ED000C3941A40030240CD851882851983AA82A3
:104EE000AB83EEF91203F08518828519831258D826
:104EF000644E6003024E6F7828E624F81257D450AF
:104F000003024FAE8A288B29851882851983125D8A
:104F1000B68518828519831258A174561258B91291
:104F200058A1A37408F0A3E41258B274021258B244
:104F3000A3EEF08F14EF1257A45514FA88828983D8
:104F4000E0C0E0EAFBD0E0BB00028004C313DBFC5E
:104F50005401C0E0851882851983E0FBA3E0F58346
:104F60008B82A3A3A3A3A3D0E01257F7FBA3E0CBAC
:104F70002406F582EB126A1E12581BB80002800448
:104F8000C333D8FCF974FFC399F8E05849024E6E58
:104F9000900345E02402F0A3E03400024E6E1204B8
:104FA00044E91470030240CD146003024E6F75256E
:104FB000040240D47E0202448A12598B50030248F4
:104FC000051259B9740602441CA3858221858322E7
:104FD000E0F50A7427650A60097422650A60030215
:104FE00040CD1203D28A0A8B0BAE0AAF0B74FF6E50
:104FF000700374FF6F70030240CD12598B5003028F
:105000004805181818E0F9E508C398F8E50999F972
:10501000E824FEF508E934FFF509C3EE9508EF959D
:1050200009A2D265D033501AEE04C0E090034012BA
:1050300058A1D0E012595F74091259428E088F09A5
:105040008015E50804C0E09003401258A1D0E0129A
:10505000595F74081259427808121A48AC21AD22DF
:10506000126AB112047A74021217F4900340E02518
:1050700008F8A3E03509F9123B08C3EE9415EF12C6
:10508000575A5004EEFA80027A15AC21AD2279000D
:1050900012099C7821E62EF58208E63FF58302444A
:1050A0002D12706970030240CD900340E024010886
:1050B000125996500302480590034012640D123BAA
:1050C00008803E900340125DF9C3E5089AE5099B0C
:1050D00050030248059003401258A1E50C125942B2
:1050E0001203BA7A1079021203EA8A0CE52560D31A
:1050F000852182852283E0650A60030240D47525FC
:1051000000852182852283A3858221858322E0F583
:105110000A740A650A7010EEF8900340E0C3981410
:105120008E828F830247C47427650A6006742265E5
:105130000A7009A385822185832280A474BF250A71
:10514000C3941A40030251CCA3E0F8740A686008C3
:1051500074206860030240CD851882851983AA8275
:10516000AB83A90A1203F0125E6760030240CD12FE
:105170006C46900340E028F8A3E039F9E824F8F8F9
:10518000E934FFF9C3E50898E50999500302480599
:10519000750A08850A0C851882851983E0F8126C57
:1051A0004CC3E50C98E49940030251018A828B8339
:1051B000E0C0E09003401258A1D0E0F08A828B83D7
:1051C000A3AA82AB83125943050A80C77420650ADB
:1051D00060030240CD025101900340E0642170045D
:1051E000A3E06403700A900340E4F0A3F00240CD12
:1051F000900342E0A2E0909458502B121A5B7C215D
:105200007D03900340E0C39421F97A077B031206E3
:10521000D874041217F4909450121A5B7C007D002D
:1052200079007A058011121A5B7C217D039003407E
:10523000E0C39421F97A087B031206D8740412178C
:10524000F4900340E4F0A30244267427650A600941
:105250007422650A60030240CD12044AE970030219
:1052600040CD900357E0F8900340E028FAA3E034E3
:10527000008A82F583A3A3C3E5089582E509958397
:105280005003024805900357E004C0E09003401229
:1052900058A1D0E012595624FE600B24FE600E2463
:1052A000F460110240CD125DC37403800C125DC323
:1052B00074058005125DC37407125956F508750907
:1052C000007808121A487C477D03126AB112047AEA
:1052D00074021217F41203BA852182852283E064D6
:1052E000DF7012900340126AD0126EADE8122CA942
:1052F000C2E012583D900357E0F8900340E02812B6
:1053000058810247C479001204088A088B098C0A64
:105310008D0BE52560030240CD7808121A447C000D
:105320007D0079000245A97800E50CC4333354C0F0
:1053300048F50CEA14600A14600C24FE6010024068
:10534000CD430C0F800BE50CD2E4F50C8003430C2D
:1053500011EEA2E19003184023E4F0EEA2E0400534
:1053600043F32C800343F42CA2E0E5F192E0F5F145
:1053700075C200850CC575860002403D7401F0EED3
:10538000A2E0400543F338800343F4E0A2E0E5F1F6
:1053900092E1F5F175FA00850CFC75F80002403DCC
:1053A00074E56860030240CDA385822185832212C3
:1053B000042CE9851882851983F04403C0E0740148
:1053C000121829D0E01257F7D2E2F0E52560030267
:1053D00040CD1203BA123B1140030240D1740312B4
:1053E0001829AA82AB831203F08A088B09AE08AF92
:1053F000097403121829125E6D60030240CD8521E5
:1054000082852283A3858221858322740112182933
:10541000AC82AD83851882851983AA82AB8312047E
:105420003E900318E07023740312182912597FE884
:105430004960385386F98E828F83E0F5C1E586A2F4
:10544000E150FAE5C112582380E5740312182912BD
:10545000597F801353F8F98E828F83E0F5F9A2F912
:1054600050FCE5F9125823E84970E9740212182932
:10547000AC82AD837401024B33AE23AF2412042CF3
:10548000E990031AF012042CE990031BF0E5257053
:105490001B90031A1258F5AE82AF8390031B12586B
:1054A000F5AC82AD83AA23AB2412043E0242C2753E
:1054B0001000751100750800750A00AE23AF24783E
:1054C00021E624FF08E6122CA964D87005750901AD
:1054D00080037509008E828F83748812580AE4F065
:1054E000A3F012578AE4F0A30E1259638002050854
:1054F000852182852283E0F8740A68700302568F42
:1055000074D8687028A3858221858322E509600309
:105510000240CDE50870030240CD90031A12585F97
:10552000AE82125963750901850A0B801579021242
:105530000408EAF50BE52560030240CDE50870029A
:105540008A0AE509420B7A808E828F83A3A882A9FA
:1055500083E50B5A90031B6005E044028003E0449E
:10556000018E828F83F0E8FEE9FF90031AE0440287
:10557000F88E828F83F0A37468F0A30E0EAF839031
:10558000031AE04401F9125811EAC313FA70B990F2
:10559000031B12585FE8F0A37468123B0CA3AE82A1
:1055A000AF83E50970030254EE1203BA85218285A8
:1055B000228312591C40030240CDA385822185839A
:1055C000227409121829AA82AB83A90A1203F08A4D
:1055D000108B117409121829125E6D70197409125A
:1055E0001829A3125DC6A3E024F8F508FC7D007914
:1055F00000120492800C8A828B83127113A3F075BF
:1056000008018E828F8374881258158E128F1312A0
:10561000578A740112581590031AE04401FA12587F
:105620001190031BE04402FB12581185080A8019EF
:10563000EB8E828F83F00EE9FFEC8E828F83F0A3D6
:10564000125DB6A30E0E0EAF83850A0974FF2509FD
:10565000F50A04603A780890031AE04402FC8E824E
:105660008F83F0A3746812580A90031BE044058EE0
:10567000828F83F0A3EAF0A30E0EAF8318E870D7F1
:10568000A3A983E50A60A990031BE0440180A290CE
:10569000031BE044018E828F8312580A90031A1272
:1056A00058D190031B1258D1E5124513602485127E
:1056B00082851383EEF0A3EFF085080C750D00745E
:1056C00004780C1217CBAC0CAD0DF9EEFAEFFB120F
:1056D0000492EEFCEFFDAA23AB2412043EE5256004
:1056E000030242C2E5124513700302403D7B00E510
:1056F0000833333354F8F5087A018E828F83A30E72
:10570000AF8380267800EBC33348FB74075A7011CF
:10571000EB851082851183F0A38582108583117B30
:10572000000AEE2402FEEF3400FFE508C39A50039E
:1057300002403D8E828F83E060CA780180C890036A
:10574000197440024426EA4509450A450B22E6241D
:10575000FDFA08E634FFFB22C3EB9400A2D265D029
:10576000332279287823E7C396FA0809E796FB33B2
:1057700095E0FCFD790022A3A3A3858221858322E5
:10578000C3E5219523E522952422EE2402FEEF3481
:1057900000FF8E828F8322E62AFA08E63400FB8A15
:1057A000218B2222131313541FFA7826E62AFA08B3
:1057B000E63400FBEA2468F8EB3400F97407228A27
:1057C000088B09AC08AD09C3EC9401ED9400A2D29A
:1057D00065D03322FA08E634FFFBC3EA9523EB9544
:1057E0002422EE24FF1EEF34FFFF22126EAA08E6E9
:1057F000126A12E0648F221258B9E022125801A3F3
:1058000022F08C828D83A3A3A322F0A3AE82AF8368
:10581000228E828F83F0A30EAF8322126A6CEAF885
:10582000740122F0E824FF18E934FFF9A3AE82AF37
:105830008322900311EAF0A3EBF0E52522125848E9
:10584000A385822185832222F085218285228322DD
:10585000852182852283E0F874BF28C3941A22121E
:10586000586322E044028E828F83F0A322FA74FFF1
:10587000C39AFA88828983E05A4BF0900313E4F0CC
:105880002212588522F8A3E03400F9900340E8F092
:10589000A3E92290030FE0F523A3E0F5242290036F
:1058A0001D1258A522E0F81258AB22A3E0F5838818
:1058B00082221258B91258C122F0851882851983A4
:1058C000221258C522E0F8A3E0F5838882A3A3A39F
:1058D000221258630EAF83221258DC221258C5E000
:1058E00022125A2974BF2EC3941A22123B2CFCA3F5
:1058F000E034FFFD221258637420F0A37458F0A323
:1059000022851882851983AC82AD838528828529FA
:1059100083A3A3A31258C1A312593C22E0F50A7431
:10592000BF250AC3941A2290030FE02CF8A3E03D90
:10593000F98823892490030F12593C22E0FAA3E04E
:10594000FB22F01259472212594B22900340E024C7
:1059500001125885F022F0125947900357E02212A5
:1059600059CA22AF8390031B12597290031A12591D
:105970007222E044018E828F83F0A30EAF8322E077
:10598000F8123B2CF8A3E034FFF922900340E02406
:1059900003F812599622A3E03400F9C3E50898E50C
:1059A000099922852882852983A37828E026FAA3ED
:1059B00008E036FB8A288B29221818181258AC7474
:1059C000021259CA74011259CA22F012594BF583B6
:1059D00088822274F4121835E52570151203BA1264
:1059E0005A2974662EFFC39403400B125A39752549
:1059F00006790002315279011204088A08A808E5E4
:105A00002570EBE8C3940850E5749C6E700A74012D
:105A10006860DB74026860D6E833333354F8F8EF1B
:105A2000C4333354C048F980CA852182852283E07B
:105A3000FEA385822185832222125D9E8A218B22EC
:105A40002274F0121835E9FFEAFEEF600514605F7A
:105A50008061750801750900EE78081217CBE5081A
:105A600055F26047900319E0F89009E7E04E48F5D9
:105A7000B6E5B4A2E750FAE5BAF50CE4F50DF50E7B
:105A8000F50FE5BBF508E4C508F5093395E0F50A1F
:105A9000F50B780C7908121675126400780C121543
:105AA0009CAA0CAB0DAC0EAD0F8021E5808006E505
:105AB000908002E5A0F508750900EE78081217AC91
:105AC000E5085401FAE4FB3395E0FCFD0234FE7472
:105AD000F412183574FE1217DE90031D12706C70EC
:105AE0002490031DE523F0A3E524F090031CE4F0CB
:105AF00090031FF0A3800D12589E7408125E30248C
:105B000001125DCAF0852182852283E0FC125D8F3F
:105B1000EC24F6603824EA60EC24F460E824976012
:105B20003224FB604414604114603E24D460652438
